{
  "_format": "hh-sol-artifact-1",
  "contractName": "SigatTokenX",
  "sourceName": "contracts/SGTX.sol",
  "abi": [
    {
      "inputs": [
        {
          "internalType": "string",
          "name": "name_",
          "type": "string"
        },
        {
          "internalType": "string",
          "name": "symbol_",
          "type": "string"
        },
        {
          "internalType": "uint256",
          "name": "supply_",
          "type": "uint256"
        },
        {
          "internalType": "uint8",
          "name": "decimals_",
          "type": "uint8"
        }
      ],
      "stateMutability": "nonpayable",
      "type": "constructor"
    },
    {
      "inputs": [
        {
          "internalType": "address",
          "name": "spender",
          "type": "address"
        },
        {
          "internalType": "uint256",
          "name": "allowance",
          "type": "uint256"
        },
        {
          "internalType": "uint256",
          "name": "needed",
          "type": "uint256"
        }
      ],
      "name": "ERC20InsufficientAllowance",
      "type": "error"
    },
    {
      "inputs": [
        {
          "internalType": "address",
          "name": "sender",
          "type": "address"
        },
        {
          "internalType": "uint256",
          "name": "balance",
          "type": "uint256"
        },
        {
          "internalType": "uint256",
          "name": "needed",
          "type": "uint256"
        }
      ],
      "name": "ERC20InsufficientBalance",
      "type": "error"
    },
    {
      "inputs": [
        {
          "internalType": "address",
          "name": "approver",
          "type": "address"
        }
      ],
      "name": "ERC20InvalidApprover",
      "type": "error"
    },
    {
      "inputs": [
        {
          "internalType": "address",
          "name": "receiver",
          "type": "address"
        }
      ],
      "name": "ERC20InvalidReceiver",
      "type": "error"
    },
    {
      "inputs": [
        {
          "internalType": "address",
          "name": "sender",
          "type": "address"
        }
      ],
      "name": "ERC20InvalidSender",
      "type": "error"
    },
    {
      "inputs": [
        {
          "internalType": "address",
          "name": "spender",
          "type": "address"
        }
      ],
      "name": "ERC20InvalidSpender",
      "type": "error"
    },
    {
      "anonymous": false,
      "inputs": [
        {
          "indexed": true,
          "internalType": "address",
          "name": "owner",
          "type": "address"
        },
        {
          "indexed": true,
          "internalType": "address",
          "name": "spender",
          "type": "address"
        },
        {
          "indexed": false,
          "internalType": "uint256",
          "name": "value",
          "type": "uint256"
        }
      ],
      "name": "Approval",
      "type": "event"
    },
    {
      "anonymous": false,
      "inputs": [
        {
          "indexed": true,
          "internalType": "address",
          "name": "currentOwner",
          "type": "address"
        },
        {
          "indexed": true,
          "internalType": "uint256",
          "name": "timeStamp",
          "type": "uint256"
        },
        {
          "indexed": true,
          "internalType": "bool",
          "name": "freeTranfer",
          "type": "bool"
        }
      ],
      "name": "FreeTranfered",
      "type": "event"
    },
    {
      "anonymous": false,
      "inputs": [
        {
          "indexed": true,
          "internalType": "address",
          "name": "currentOwner",
          "type": "address"
        },
        {
          "indexed": true,
          "internalType": "uint256",
          "name": "timeStamp",
          "type": "uint256"
        },
        {
          "indexed": true,
          "internalType": "bool",
          "name": "paused",
          "type": "bool"
        }
      ],
      "name": "Paused",
      "type": "event"
    },
    {
      "anonymous": false,
      "inputs": [
        {
          "indexed": true,
          "internalType": "address",
          "name": "from",
          "type": "address"
        },
        {
          "indexed": true,
          "internalType": "address",
          "name": "to",
          "type": "address"
        },
        {
          "indexed": false,
          "internalType": "uint256",
          "name": "value",
          "type": "uint256"
        }
      ],
      "name": "Transfer",
      "type": "event"
    },
    {
      "inputs": [
        {
          "internalType": "address",
          "name": "adr",
          "type": "address"
        }
      ],
      "name": "FreezeAddress",
      "outputs": [
        {
          "internalType": "bool",
          "name": "",
          "type": "bool"
        }
      ],
      "stateMutability": "nonpayable",
      "type": "function"
    },
    {
      "inputs": [],
      "name": "Pause",
      "outputs": [
        {
          "internalType": "bool",
          "name": "",
          "type": "bool"
        }
      ],
      "stateMutability": "nonpayable",
      "type": "function"
    },
    {
      "inputs": [
        {
          "internalType": "address",
          "name": "newOwner",
          "type": "address"
        }
      ],
      "name": "TranferOwner",
      "outputs": [
        {
          "internalType": "address",
          "name": "new_owner",
          "type": "address"
        }
      ],
      "stateMutability": "nonpayable",
      "type": "function"
    },
    {
      "inputs": [
        {
          "internalType": "address",
          "name": "adr",
          "type": "address"
        }
      ],
      "name": "UnFreezeAddress",
      "outputs": [
        {
          "internalType": "bool",
          "name": "",
          "type": "bool"
        }
      ],
      "stateMutability": "nonpayable",
      "type": "function"
    },
    {
      "inputs": [
        {
          "internalType": "address",
          "name": "",
          "type": "address"
        }
      ],
      "name": "_balances",
      "outputs": [
        {
          "internalType": "uint256",
          "name": "",
          "type": "uint256"
        }
      ],
      "stateMutability": "view",
      "type": "function"
    },
    {
      "inputs": [
        {
          "internalType": "address",
          "name": "",
          "type": "address"
        }
      ],
      "name": "_freeze",
      "outputs": [
        {
          "internalType": "bool",
          "name": "",
          "type": "bool"
        }
      ],
      "stateMutability": "view",
      "type": "function"
    },
    {
      "inputs": [
        {
          "internalType": "address",
          "name": "",
          "type": "address"
        }
      ],
      "name": "_holders",
      "outputs": [
        {
          "internalType": "bool",
          "name": "",
          "type": "bool"
        }
      ],
      "stateMutability": "view",
      "type": "function"
    },
    {
      "inputs": [
        {
          "internalType": "address",
          "name": "owner",
          "type": "address"
        },
        {
          "internalType": "address",
          "name": "spender",
          "type": "address"
        }
      ],
      "name": "allowance",
      "outputs": [
        {
          "internalType": "uint256",
          "name": "",
          "type": "uint256"
        }
      ],
      "stateMutability": "view",
      "type": "function"
    },
    {
      "inputs": [
        {
          "internalType": "address",
          "name": "spender",
          "type": "address"
        },
        {
          "internalType": "uint256",
          "name": "value",
          "type": "uint256"
        }
      ],
      "name": "approve",
      "outputs": [
        {
          "internalType": "bool",
          "name": "",
          "type": "bool"
        }
      ],
      "stateMutability": "nonpayable",
      "type": "function"
    },
    {
      "inputs": [
        {
          "internalType": "address",
          "name": "account",
          "type": "address"
        }
      ],
      "name": "balanceOf",
      "outputs": [
        {
          "internalType": "uint256",
          "name": "",
          "type": "uint256"
        }
      ],
      "stateMutability": "view",
      "type": "function"
    },
    {
      "inputs": [],
      "name": "decimals",
      "outputs": [
        {
          "internalType": "uint8",
          "name": "",
          "type": "uint8"
        }
      ],
      "stateMutability": "view",
      "type": "function"
    },
    {
      "inputs": [],
      "name": "freeTranfer",
      "outputs": [
        {
          "internalType": "bool",
          "name": "",
          "type": "bool"
        }
      ],
      "stateMutability": "nonpayable",
      "type": "function"
    },
    {
      "inputs": [
        {
          "internalType": "address",
          "name": "spender",
          "type": "address"
        },
        {
          "internalType": "uint256",
          "name": "addedValue",
          "type": "uint256"
        }
      ],
      "name": "increaseAllowance",
      "outputs": [
        {
          "internalType": "bool",
          "name": "",
          "type": "bool"
        }
      ],
      "stateMutability": "nonpayable",
      "type": "function"
    },
    {
      "inputs": [
        {
          "internalType": "address",
          "name": "adr",
          "type": "address"
        }
      ],
      "name": "isFreezed",
      "outputs": [
        {
          "internalType": "bool",
          "name": "",
          "type": "bool"
        }
      ],
      "stateMutability": "view",
      "type": "function"
    },
    {
      "inputs": [],
      "name": "isPaused",
      "outputs": [
        {
          "internalType": "bool",
          "name": "",
          "type": "bool"
        }
      ],
      "stateMutability": "view",
      "type": "function"
    },
    {
      "inputs": [],
      "name": "name",
      "outputs": [
        {
          "internalType": "string",
          "name": "",
          "type": "string"
        }
      ],
      "stateMutability": "view",
      "type": "function"
    },
    {
      "inputs": [],
      "name": "symbol",
      "outputs": [
        {
          "internalType": "string",
          "name": "",
          "type": "string"
        }
      ],
      "stateMutability": "view",
      "type": "function"
    },
    {
      "inputs": [],
      "name": "totalSupply",
      "outputs": [
        {
          "internalType": "uint256",
          "name": "",
          "type": "uint256"
        }
      ],
      "stateMutability": "view",
      "type": "function"
    },
    {
      "inputs": [
        {
          "internalType": "address",
          "name": "to",
          "type": "address"
        },
        {
          "internalType": "uint256",
          "name": "value",
          "type": "uint256"
        }
      ],
      "name": "transfer",
      "outputs": [
        {
          "internalType": "bool",
          "name": "",
          "type": "bool"
        }
      ],
      "stateMutability": "nonpayable",
      "type": "function"
    },
    {
      "inputs": [
        {
          "internalType": "address",
          "name": "from",
          "type": "address"
        },
        {
          "internalType": "address",
          "name": "to",
          "type": "address"
        },
        {
          "internalType": "uint256",
          "name": "value",
          "type": "uint256"
        }
      ],
      "name": "transferFrom",
      "outputs": [
        {
          "internalType": "bool",
          "name": "",
          "type": "bool"
        }
      ],
      "stateMutability": "nonpayable",
      "type": "function"
    },
    {
      "inputs": [],
      "name": "unFreeTransfer",
      "outputs": [
        {
          "internalType": "bool",
          "name": "statusTransfer",
          "type": "bool"
        }
      ],
      "stateMutability": "nonpayable",
      "type": "function"
    },
    {
      "inputs": [],
      "name": "unPause",
      "outputs": [
        {
          "internalType": "bool",
          "name": "statusPause",
          "type": "bool"
        }
      ],
      "stateMutability": "nonpayable",
      "type": "function"
    }
  ],
  "bytecode": "0x60806040523480156200001157600080fd5b50604051620025ca380380620025ca83398181016040528101906200003791906200034f565b336000806101000a81548173ffffffffffffffffffffffffffffffffffffffff021916908373ffffffffffffffffffffffffffffffffffffffff1602179055508160038190555083600190816200008f919062000640565b508260029081620000a1919062000640565b5080600460006101000a81548160ff021916908360ff1602179055506000600460016101000a81548160ff0219169083151502179055506000600460026101000a81548160ff021916908315150217905550600354600560003373ffffffffffffffffffffffffffffffffffffffff1673ffffffffffffffffffffffffffffffffffffffff168152602001908152602001600020819055505050505062000727565b6000604051905090565b600080fd5b600080fd5b600080fd5b600080fd5b6000601f19601f8301169050919050565b7f4e487b7100000000000000000000000000000000000000000000000000000000600052604160045260246000fd5b620001ac8262000161565b810181811067ffffffffffffffff82111715620001ce57620001cd62000172565b5b80604052505050565b6000620001e362000143565b9050620001f18282620001a1565b919050565b600067ffffffffffffffff82111562000214576200021362000172565b5b6200021f8262000161565b9050602081019050919050565b60005b838110156200024c5780820151818401526020810190506200022f565b60008484015250505050565b60006200026f6200026984620001f6565b620001d7565b9050828152602081018484840111156200028e576200028d6200015c565b5b6200029b8482856200022c565b509392505050565b600082601f830112620002bb57620002ba62000157565b5b8151620002cd84826020860162000258565b91505092915050565b6000819050919050565b620002eb81620002d6565b8114620002f757600080fd5b50565b6000815190506200030b81620002e0565b92915050565b600060ff82169050919050565b620003298162000311565b81146200033557600080fd5b50565b60008151905062000349816200031e565b92915050565b600080600080608085870312156200036c576200036b6200014d565b5b600085015167ffffffffffffffff8111156200038d576200038c62000152565b5b6200039b87828801620002a3565b945050602085015167ffffffffffffffff811115620003bf57620003be62000152565b5b620003cd87828801620002a3565b9350506040620003e087828801620002fa565b9250506060620003f38782880162000338565b91505092959194509250565b600081519050919050565b7f4e487b7100000000000000000000000000000000000000000000000000000000600052602260045260246000fd5b600060028204905060018216806200045257607f821691505b6020821081036200046857620004676200040a565b5b50919050565b60008190508160005260206000209050919050565b60006020601f8301049050919050565b600082821b905092915050565b600060088302620004d27fffffffffffffffffffffffffffffffffffffffffffffffffffffffffffffffff8262000493565b620004de868362000493565b95508019841693508086168417925050509392505050565b6000819050919050565b6000620005216200051b6200051584620002d6565b620004f6565b620002d6565b9050919050565b6000819050919050565b6200053d8362000500565b620005556200054c8262000528565b848454620004a0565b825550505050565b600090565b6200056c6200055d565b6200057981848462000532565b505050565b5b81811015620005a1576200059560008262000562565b6001810190506200057f565b5050565b601f821115620005f057620005ba816200046e565b620005c58462000483565b81016020851015620005d5578190505b620005ed620005e48562000483565b8301826200057e565b50505b505050565b600082821c905092915050565b60006200061560001984600802620005f5565b1980831691505092915050565b600062000630838362000602565b9150826002028217905092915050565b6200064b82620003ff565b67ffffffffffffffff81111562000667576200066662000172565b5b62000673825462000439565b62000680828285620005a5565b600060209050601f831160018114620006b85760008415620006a3578287015190505b620006af858262000622565b8655506200071f565b601f198416620006c8866200046e565b60005b82811015620006f257848901518255600182019150602085019450602081019050620006cb565b868310156200071257848901516200070e601f89168262000602565b8355505b6001600288020188555050505b505050505050565b611e9380620007376000396000f3fe608060405234801561001057600080fd5b50600436106101425760003560e01c80637c77db72116100b8578063b187bd261161007c578063b187bd26146103db578063b8f309c7146103f9578063d6b70ac014610429578063dd62ed3e14610447578063eb1d815214610477578063f7b188a5146104a757610142565b80637c77db72146102fd5780638111f24e1461032d57806391e2c3151461035d57806395d89b411461038d578063a9059cbb146103ab57610142565b806323b872dd1161010a57806323b872dd14610201578063313ce56714610231578063395093511461024f5780636985a0221461027f5780636ebcf6071461029d57806370a08231146102cd57610142565b806306fdde0314610147578063095ea7b31461016557806318160ddd146101955780631aa66049146101b35780631d4ca8bf146101e3575b600080fd5b61014f6104c5565b60405161015c9190611911565b60405180910390f35b61017f600480360381019061017a91906119cc565b610557565b60405161018c9190611a27565b60405180910390f35b61019d61064d565b6040516101aa9190611a51565b60405180910390f35b6101cd60048036038101906101c89190611a6c565b610657565b6040516101da9190611a27565b60405180910390f35b6101eb610749565b6040516101f89190611a27565b60405180910390f35b61021b60048036038101906102169190611a99565b610844565b6040516102289190611a27565b60405180910390f35b6102396109b1565b6040516102469190611b08565b60405180910390f35b610269600480360381019061026491906119cc565b6109c8565b6040516102769190611a27565b60405180910390f35b610287610a9a565b6040516102949190611a27565b60405180910390f35b6102b760048036038101906102b29190611a6c565b610b95565b6040516102c49190611a51565b60405180910390f35b6102e760048036038101906102e29190611a6c565b610bad565b6040516102f49190611a51565b60405180910390f35b61031760048036038101906103129190611a6c565b610bf6565b6040516103249190611a27565b60405180910390f35b61034760048036038101906103429190611a6c565b610c16565b6040516103549190611a27565b60405180910390f35b61037760048036038101906103729190611a6c565b610c6c565b6040516103849190611a27565b60405180910390f35b610395610d5e565b6040516103a29190611911565b60405180910390f35b6103c560048036038101906103c091906119cc565b610df0565b6040516103d29190611a27565b60405180910390f35b6103e3610f51565b6040516103f09190611a27565b60405180910390f35b610413600480360381019061040e9190611a6c565b610f68565b6040516104209190611b32565b60405180910390f35b610431611041565b60405161043e9190611a27565b60405180910390f35b610461600480360381019061045c9190611b4d565b61114a565b60405161046e9190611a51565b60405180910390f35b610491600480360381019061048c9190611a6c565b6111d1565b60405161049e9190611a27565b60405180910390f35b6104af6111f1565b6040516104bc9190611a27565b60405180910390f35b6060600180546104d490611bbc565b80601f016020809104026020016040519081016040528092919081815260200182805461050090611bbc565b801561054d5780601f106105225761010080835404028352916020019161054d565b820191906000526020600020905b81548152906001019060200180831161053057829003601f168201915b5050505050905090565b6000600460019054906101000a900460ff16156105a9576040517f08c379a00000000000000000000000000000000000000000000000000000000081526004016105a090611c39565b60405180910390fd5b600015156105b633610c16565b1515146105f8576040517f08c379a00000000000000000000000000000000000000000000000000000000081526004016105ef90611ca5565b60405180910390fd5b6000339050600460029054906101000a900460ff166106355760008054906101000a900473ffffffffffffffffffffffffffffffffffffffff1693505b61064281858560016112fa565b600191505092915050565b6000600354905090565b60008060009054906101000a900473ffffffffffffffffffffffffffffffffffffffff1673ffffffffffffffffffffffffffffffffffffffff163373ffffffffffffffffffffffffffffffffffffffff16146106e8576040517f08c379a00000000000000000000000000000000000000000000000000000000081526004016106df90611d11565b60405180910390fd5b6001600760008473ffffffffffffffffffffffffffffffffffffffff1673ffffffffffffffffffffffffffffffffffffffff16815260200190815260200160002060006101000a81548160ff02191690831515021790555060019050919050565b60008060009054906101000a900473ffffffffffffffffffffffffffffffffffffffff1673ffffffffffffffffffffffffffffffffffffffff163373ffffffffffffffffffffffffffffffffffffffff16146107da576040517f08c379a00000000000000000000000000000000000000000000000000000000081526004016107d190611d11565b60405180910390fd5b6001600460026101000a81548160ff02191690831515021790555060011515423373ffffffffffffffffffffffffffffffffffffffff167f01184061675848e328fb316abfd3f046f1cae4fb526dc24d09bdaa92e392121760405160405180910390a46001905090565b6000600460019054906101000a900460ff1615610896576040517f08c379a000000000000000000000000000000000000000000000000000000000815260040161088d90611c39565b60405180910390fd5b600015156108a333610c16565b1515146108e5576040517f08c379a00000000000000000000000000000000000000000000000000000000081526004016108dc90611ca5565b60405180910390fd5b60008054906101000a900473ffffffffffffffffffffffffffffffffffffffff1673ffffffffffffffffffffffffffffffffffffffff163373ffffffffffffffffffffffffffffffffffffffff16148061094b5750600460029054906101000a900460ff165b61098a576040517f08c379a000000000000000000000000000000000000000000000000000000000815260040161098190611da3565b60405180910390fd5b600033905061099a8582856114d1565b6109a5858585611565565b60019150509392505050565b6000600460009054906101000a900460ff16905090565b6000600460019054906101000a900460ff1615610a1a576040517f08c379a0000000000000000000000000000000000000000000000000000000008152600401610a1190611c39565b60405180910390fd5b60001515610a2733610c16565b151514610a69576040517f08c379a0000000000000000000000000000000000000000000000000000000008152600401610a6090611ca5565b60405180910390fd5b6000339050610a8f818585610a7e858961114a565b610a889190611df2565b60016112fa565b600191505092915050565b60008060009054906101000a900473ffffffffffffffffffffffffffffffffffffffff1673ffffffffffffffffffffffffffffffffffffffff163373ffffffffffffffffffffffffffffffffffffffff1614610b2b576040517f08c379a0000000000000000000000000000000000000000000000000000000008152600401610b2290611d11565b60405180910390fd5b6001600460016101000a81548160ff02191690831515021790555060011515423373ffffffffffffffffffffffffffffffffffffffff167fcd52c664c2010b8cb55e5d2ea0ae5add4a5b0460cfafc8af4af80f5bee1032ca60405160405180910390a46001905090565b60056020528060005260406000206000915090505481565b6000600560008373ffffffffffffffffffffffffffffffffffffffff1673ffffffffffffffffffffffffffffffffffffffff168152602001908152602001600020549050919050565b60076020528060005260406000206000915054906101000a900460ff1681565b6000600760008373ffffffffffffffffffffffffffffffffffffffff1673ffffffffffffffffffffffffffffffffffffffff16815260200190815260200160002060009054906101000a900460ff169050919050565b60008060009054906101000a900473ffffffffffffffffffffffffffffffffffffffff1673ffffffffffffffffffffffffffffffffffffffff163373ffffffffffffffffffffffffffffffffffffffff1614610cfd576040517f08c379a0000000000000000000000000000000000000000000000000000000008152600401610cf490611d11565b60405180910390fd5b6000600760008473ffffffffffffffffffffffffffffffffffffffff1673ffffffffffffffffffffffffffffffffffffffff16815260200190815260200160002060006101000a81548160ff02191690831515021790555060019050919050565b606060028054610d6d90611bbc565b80601f0160208091040260200160405190810160405280929190818152602001828054610d9990611bbc565b8015610de65780601f10610dbb57610100808354040283529160200191610de6565b820191906000526020600020905b815481529060010190602001808311610dc957829003601f168201915b5050505050905090565b6000600460019054906101000a900460ff1615610e42576040517f08c379a0000000000000000000000000000000000000000000000000000000008152600401610e3990611c39565b60405180910390fd5b60001515610e4f33610c16565b151514610e91576040517f08c379a0000000000000000000000000000000000000000000000000000000008152600401610e8890611ca5565b60405180910390fd5b60008054906101000a900473ffffffffffffffffffffffffffffffffffffffff1673ffffffffffffffffffffffffffffffffffffffff163373ffffffffffffffffffffffffffffffffffffffff161480610ef75750600460029054906101000a900460ff165b610f36576040517f08c379a0000000000000000000000000000000000000000000000000000000008152600401610f2d90611da3565b60405180910390fd5b6000339050610f46818585611659565b600191505092915050565b6000600460019054906101000a900460ff16905090565b60008060009054906101000a900473ffffffffffffffffffffffffffffffffffffffff1673ffffffffffffffffffffffffffffffffffffffff163373ffffffffffffffffffffffffffffffffffffffff1614610ff9576040517f08c379a0000000000000000000000000000000000000000000000000000000008152600401610ff090611d11565b60405180910390fd5b816000806101000a81548173ffffffffffffffffffffffffffffffffffffffff021916908373ffffffffffffffffffffffffffffffffffffffff160217905550819050919050565b60008060009054906101000a900473ffffffffffffffffffffffffffffffffffffffff1673ffffffffffffffffffffffffffffffffffffffff163373ffffffffffffffffffffffffffffffffffffffff16146110d2576040517f08c379a00000000000000000000000000000000000000000000000000000000081526004016110c990611d11565b60405180910390fd5b6000600460026101000a81548160ff02191690831515021790555060001515423373ffffffffffffffffffffffffffffffffffffffff167f01184061675848e328fb316abfd3f046f1cae4fb526dc24d09bdaa92e392121760405160405180910390a4600460029054906101000a900460ff16905090565b6000600860008473ffffffffffffffffffffffffffffffffffffffff1673ffffffffffffffffffffffffffffffffffffffff16815260200190815260200160002060008373ffffffffffffffffffffffffffffffffffffffff1673ffffffffffffffffffffffffffffffffffffffff16815260200190815260200160002054905092915050565b60066020528060005260406000206000915054906101000a900460ff1681565b60008060009054906101000a900473ffffffffffffffffffffffffffffffffffffffff1673ffffffffffffffffffffffffffffffffffffffff163373ffffffffffffffffffffffffffffffffffffffff1614611282576040517f08c379a000000000000000000000000000000000000000000000000000000000815260040161127990611d11565b60405180910390fd5b6000600460016101000a81548160ff02191690831515021790555060001515423373ffffffffffffffffffffffffffffffffffffffff167fcd52c664c2010b8cb55e5d2ea0ae5add4a5b0460cfafc8af4af80f5bee1032ca60405160405180910390a4600460019054906101000a900460ff16905090565b600073ffffffffffffffffffffffffffffffffffffffff168473ffffffffffffffffffffffffffffffffffffffff160361136c5760006040517fe602df050000000000000000000000000000000000000000000000000000000081526004016113639190611b32565b60405180910390fd5b600073ffffffffffffffffffffffffffffffffffffffff168373ffffffffffffffffffffffffffffffffffffffff16036113de5760006040517f94280d620000000000000000000000000000000000000000000000000000000081526004016113d59190611b32565b60405180910390fd5b81600860008673ffffffffffffffffffffffffffffffffffffffff1673ffffffffffffffffffffffffffffffffffffffff16815260200190815260200160002060008573ffffffffffffffffffffffffffffffffffffffff1673ffffffffffffffffffffffffffffffffffffffff1681526020019081526020016000208190555080156114cb578273ffffffffffffffffffffffffffffffffffffffff168473ffffffffffffffffffffffffffffffffffffffff167f8c5be1e5ebec7d5bd14f71427d1e84f3dd0314c0f7b2291e5b200ac8c7c3b925846040516114c29190611a51565b60405180910390a35b50505050565b60006114dd848461114a565b90507fffffffffffffffffffffffffffffffffffffffffffffffffffffffffffffffff811461155f578181101561154f578281836040517ffb8f41b200000000000000000000000000000000000000000000000000000000815260040161154693929190611e26565b60405180910390fd5b61155e848484840360006112fa565b5b50505050565b600073ffffffffffffffffffffffffffffffffffffffff168373ffffffffffffffffffffffffffffffffffffffff16036115d75760006040517f96c6fd1e0000000000000000000000000000000000000000000000000000000081526004016115ce9190611b32565b60405180910390fd5b600073ffffffffffffffffffffffffffffffffffffffff168273ffffffffffffffffffffffffffffffffffffffff16036116495760006040517fec442f050000000000000000000000000000000000000000000000000000000081526004016116409190611b32565b60405180910390fd5b611654838383611659565b505050565b600073ffffffffffffffffffffffffffffffffffffffff168373ffffffffffffffffffffffffffffffffffffffff16036116ab57806003600082825461169f9190611df2565b92505081905550611780565b6000600560008573ffffffffffffffffffffffffffffffffffffffff1673ffffffffffffffffffffffffffffffffffffffff16815260200190815260200160002054905081811015611738578381836040517fe450d38c00000000000000000000000000000000000000000000000000000000815260040161172f93929190611e26565b60405180910390fd5b818103600560008673ffffffffffffffffffffffffffffffffffffffff1673ffffffffffffffffffffffffffffffffffffffff16815260200190815260200160002081905550505b600073ffffffffffffffffffffffffffffffffffffffff168273ffffffffffffffffffffffffffffffffffffffff16036117c95780600360008282540392505081905550611817565b80600560008473ffffffffffffffffffffffffffffffffffffffff1673ffffffffffffffffffffffffffffffffffffffff168152602001908152602001600020600082825401925050819055505b8173ffffffffffffffffffffffffffffffffffffffff168373ffffffffffffffffffffffffffffffffffffffff167fddf252ad1be2c89b69c2b068fc378daa952ba7f163c4a11628f55a4df523b3ef836040516118749190611a51565b60405180910390a3505050565b600081519050919050565b600082825260208201905092915050565b60005b838110156118bb5780820151818401526020810190506118a0565b60008484015250505050565b6000601f19601f8301169050919050565b60006118e382611881565b6118ed818561188c565b93506118fd81856020860161189d565b611906816118c7565b840191505092915050565b6000602082019050818103600083015261192b81846118d8565b905092915050565b600080fd5b600073ffffffffffffffffffffffffffffffffffffffff82169050919050565b600061196382611938565b9050919050565b61197381611958565b811461197e57600080fd5b50565b6000813590506119908161196a565b92915050565b6000819050919050565b6119a981611996565b81146119b457600080fd5b50565b6000813590506119c6816119a0565b92915050565b600080604083850312156119e3576119e2611933565b5b60006119f185828601611981565b9250506020611a02858286016119b7565b9150509250929050565b60008115159050919050565b611a2181611a0c565b82525050565b6000602082019050611a3c6000830184611a18565b92915050565b611a4b81611996565b82525050565b6000602082019050611a666000830184611a42565b92915050565b600060208284031215611a8257611a81611933565b5b6000611a9084828501611981565b91505092915050565b600080600060608486031215611ab257611ab1611933565b5b6000611ac086828701611981565b9350506020611ad186828701611981565b9250506040611ae2868287016119b7565b9150509250925092565b600060ff82169050919050565b611b0281611aec565b82525050565b6000602082019050611b1d6000830184611af9565b92915050565b611b2c81611958565b82525050565b6000602082019050611b476000830184611b23565b92915050565b60008060408385031215611b6457611b63611933565b5b6000611b7285828601611981565b9250506020611b8385828601611981565b9150509250929050565b7f4e487b7100000000000000000000000000000000000000000000000000000000600052602260045260246000fd5b60006002820490506001821680611bd457607f821691505b602082108103611be757611be6611b8d565b5b50919050565b7f436f6e74726163742069732050417573656420427920746865204f776e657200600082015250565b6000611c23601f8361188c565b9150611c2e82611bed565b602082019050919050565b60006020820190508181036000830152611c5281611c16565b9050919050565b7f4164647265737320697320667265657a65642000000000000000000000000000600082015250565b6000611c8f60138361188c565b9150611c9a82611c59565b602082019050919050565b60006020820190508181036000830152611cbe81611c82565b9050919050565b7f4f6e6c79204f776e657220636f6e206163746976617465000000000000000000600082015250565b6000611cfb60178361188c565b9150611d0682611cc5565b602082019050919050565b60006020820190508181036000830152611d2a81611cee565b9050919050565b7f5472616e666572206973206e6f7420616c6c6f77656420746f2075736572206f60008201527f6e6c79204f776e65722063616e20736574000000000000000000000000000000602082015250565b6000611d8d60318361188c565b9150611d9882611d31565b604082019050919050565b60006020820190508181036000830152611dbc81611d80565b9050919050565b7f4e487b7100000000000000000000000000000000000000000000000000000000600052601160045260246000fd5b6000611dfd82611996565b9150611e0883611996565b9250828201905080821115611e2057611e1f611dc3565b5b92915050565b6000606082019050611e3b6000830186611b23565b611e486020830185611a42565b611e556040830184611a42565b94935050505056fea2646970667358221220acc3f05acb6fd9b2ba7454aa6572704bc98ce927f15fabbdda41bafcbab9585364736f6c63430008150033",
  "linkReferences": {},
  "deployedLinkReferences": {}
}