{
	"TokenSGTX/contracts/Licencias.sol": {
		"Licencias": {
			"abi": [
				{
					"inputs": [],
					"stateMutability": "nonpayable",
					"type": "constructor"
				},
				{
					"anonymous": false,
					"inputs": [
						{
							"indexed": true,
							"internalType": "address",
							"name": "_addressHolder",
							"type": "address"
						},
						{
							"components": [
								{
									"internalType": "string",
									"name": "alcaldia",
									"type": "string"
								},
								{
									"internalType": "string",
									"name": "rif",
									"type": "string"
								},
								{
									"internalType": "uint256",
									"name": "renoDate",
									"type": "uint256"
								},
								{
									"internalType": "uint256",
									"name": "expDate",
									"type": "uint256"
								},
								{
									"internalType": "string",
									"name": "activitis",
									"type": "string"
								},
								{
									"internalType": "bytes32",
									"name": "firma",
									"type": "bytes32"
								}
							],
							"indexed": false,
							"internalType": "struct Licencias.StructLicencia",
							"name": "data",
							"type": "tuple"
						}
					],
					"name": "licencia",
					"type": "event"
				},
				{
					"inputs": [
						{
							"internalType": "address",
							"name": "subject",
							"type": "address"
						}
					],
					"name": "addOwners",
					"outputs": [],
					"stateMutability": "payable",
					"type": "function"
				},
				{
					"inputs": [
						{
							"internalType": "string",
							"name": "_rif",
							"type": "string"
						},
						{
							"internalType": "address",
							"name": "_relationAddress",
							"type": "address"
						}
					],
					"name": "addTaxPayer",
					"outputs": [
						{
							"internalType": "bool",
							"name": "",
							"type": "bool"
						}
					],
					"stateMutability": "nonpayable",
					"type": "function"
				},
				{
					"inputs": [
						{
							"internalType": "string",
							"name": "_alcaldia",
							"type": "string"
						},
						{
							"internalType": "string",
							"name": "_rif",
							"type": "string"
						},
						{
							"internalType": "uint256",
							"name": "_renoDate",
							"type": "uint256"
						},
						{
							"internalType": "uint256",
							"name": "_expDate",
							"type": "uint256"
						},
						{
							"internalType": "string",
							"name": "_activitis",
							"type": "string"
						},
						{
							"internalType": "string",
							"name": "license",
							"type": "string"
						}
					],
					"name": "createLicencia",
					"outputs": [
						{
							"internalType": "bytes32",
							"name": "",
							"type": "bytes32"
						}
					],
					"stateMutability": "payable",
					"type": "function"
				},
				{
					"inputs": [
						{
							"internalType": "address",
							"name": "_holder",
							"type": "address"
						},
						{
							"internalType": "string",
							"name": "license",
							"type": "string"
						}
					],
					"name": "getLicenseLicence",
					"outputs": [
						{
							"components": [
								{
									"internalType": "string",
									"name": "alcaldia",
									"type": "string"
								},
								{
									"internalType": "string",
									"name": "rif",
									"type": "string"
								},
								{
									"internalType": "uint256",
									"name": "renoDate",
									"type": "uint256"
								},
								{
									"internalType": "uint256",
									"name": "expDate",
									"type": "uint256"
								},
								{
									"internalType": "string",
									"name": "activitis",
									"type": "string"
								},
								{
									"internalType": "bytes32",
									"name": "firma",
									"type": "bytes32"
								}
							],
							"internalType": "struct Licencias.StructLicencia",
							"name": "",
							"type": "tuple"
						}
					],
					"stateMutability": "view",
					"type": "function"
				},
				{
					"inputs": [
						{
							"internalType": "address",
							"name": "_holder",
							"type": "address"
						}
					],
					"name": "getUserLicences",
					"outputs": [
						{
							"internalType": "string[]",
							"name": "",
							"type": "string[]"
						}
					],
					"stateMutability": "view",
					"type": "function"
				},
				{
					"inputs": [
						{
							"internalType": "string",
							"name": "_rif",
							"type": "string"
						}
					],
					"name": "taxpayerAddress",
					"outputs": [
						{
							"internalType": "address",
							"name": "",
							"type": "address"
						}
					],
					"stateMutability": "view",
					"type": "function"
				},
				{
					"inputs": [
						{
							"internalType": "address",
							"name": "sub",
							"type": "address"
						},
						{
							"internalType": "bytes32",
							"name": "sing",
							"type": "bytes32"
						}
					],
					"name": "validLicence",
					"outputs": [
						{
							"internalType": "bool",
							"name": "",
							"type": "bool"
						}
					],
					"stateMutability": "view",
					"type": "function"
				}
			],
			"devdoc": {
				"kind": "dev",
				"methods": {},
				"version": 1
			},
			"evm": {
				"assembly": "    /* \"TokenSGTX/contracts/Licencias.sol\":73:4434  contract Licencias {... */\n  mstore(0x40, 0x80)\n    /* \"TokenSGTX/contracts/Licencias.sol\":99:187  constructor() {... */\n  callvalue\n  dup1\n  iszero\n  tag_1\n  jumpi\n  0x00\n  dup1\n  revert\ntag_1:\n  pop\n    /* \"TokenSGTX/contracts/Licencias.sol\":146:150  true */\n  0x01\n    /* \"TokenSGTX/contracts/Licencias.sol\":124:131  _owners */\n  0x03\n    /* \"TokenSGTX/contracts/Licencias.sol\":124:143  _owners[msg.sender] */\n  0x00\n    /* \"TokenSGTX/contracts/Licencias.sol\":132:142  msg.sender */\n  caller\n    /* \"TokenSGTX/contracts/Licencias.sol\":124:143  _owners[msg.sender] */\n  0xffffffffffffffffffffffffffffffffffffffff\n  and\n  0xffffffffffffffffffffffffffffffffffffffff\n  and\n  dup2\n  mstore\n  0x20\n  add\n  swap1\n  dup2\n  mstore\n  0x20\n  add\n  0x00\n  keccak256\n  0x00\n    /* \"TokenSGTX/contracts/Licencias.sol\":124:150  _owners[msg.sender] = true */\n  0x0100\n  exp\n  dup2\n  sload\n  dup2\n  0xff\n  mul\n  not\n  and\n  swap1\n  dup4\n  iszero\n  iszero\n  mul\n  or\n  swap1\n  sstore\n  pop\n    /* \"TokenSGTX/contracts/Licencias.sol\":169:179  msg.sender */\n  caller\n    /* \"TokenSGTX/contracts/Licencias.sol\":161:166  owner */\n  0x05\n  0x00\n    /* \"TokenSGTX/contracts/Licencias.sol\":161:179  owner = msg.sender */\n  0x0100\n  exp\n  dup2\n  sload\n  dup2\n  0xffffffffffffffffffffffffffffffffffffffff\n  mul\n  not\n  and\n  swap1\n  dup4\n  0xffffffffffffffffffffffffffffffffffffffff\n  and\n  mul\n  or\n  swap1\n  sstore\n  pop\n    /* \"TokenSGTX/contracts/Licencias.sol\":73:4434  contract Licencias {... */\n  dataSize(sub_0)\n  dup1\n  dataOffset(sub_0)\n  0x00\n  codecopy\n  0x00\n  return\nstop\n\nsub_0: assembly {\n        /* \"TokenSGTX/contracts/Licencias.sol\":73:4434  contract Licencias {... */\n      mstore(0x40, 0x80)\n      jumpi(tag_1, lt(calldatasize, 0x04))\n      shr(0xe0, calldataload(0x00))\n      dup1\n      0x8c7c0098\n      gt\n      tag_9\n      jumpi\n      dup1\n      0x8c7c0098\n      eq\n      tag_5\n      jumpi\n      dup1\n      0x9dfb7831\n      eq\n      tag_6\n      jumpi\n      dup1\n      0xd1a81411\n      eq\n      tag_7\n      jumpi\n      dup1\n      0xdd2bd41e\n      eq\n      tag_8\n      jumpi\n      jump(tag_1)\n    tag_9:\n      dup1\n      0x5f3b1f3b\n      eq\n      tag_2\n      jumpi\n      dup1\n      0x61ad6d37\n      eq\n      tag_3\n      jumpi\n      dup1\n      0x84e26b2c\n      eq\n      tag_4\n      jumpi\n    tag_1:\n      0x00\n      dup1\n      revert\n        /* \"TokenSGTX/contracts/Licencias.sol\":3584:3684  function addOwners(address subject) public payable isOwner{... */\n    tag_2:\n      tag_10\n      0x04\n      dup1\n      calldatasize\n      sub\n      dup2\n      add\n      swap1\n      tag_11\n      swap2\n      swap1\n      tag_12\n      jump\t// in\n    tag_11:\n      tag_13\n      jump\t// in\n    tag_10:\n      stop\n        /* \"TokenSGTX/contracts/Licencias.sol\":2628:2825  function getLicenseLicence(... */\n    tag_3:\n      callvalue\n      dup1\n      iszero\n      tag_14\n      jumpi\n      0x00\n      dup1\n      revert\n    tag_14:\n      pop\n      tag_15\n      0x04\n      dup1\n      calldatasize\n      sub\n      dup2\n      add\n      swap1\n      tag_16\n      swap2\n      swap1\n      tag_17\n      jump\t// in\n    tag_16:\n      tag_18\n      jump\t// in\n    tag_15:\n      mload(0x40)\n      tag_19\n      swap2\n      swap1\n      tag_20\n      jump\t// in\n    tag_19:\n      mload(0x40)\n      dup1\n      swap2\n      sub\n      swap1\n      return\n        /* \"TokenSGTX/contracts/Licencias.sol\":3930:4047  function taxpayerAddress(string memory _rif) public view returns (address) {... */\n    tag_4:\n      callvalue\n      dup1\n      iszero\n      tag_21\n      jumpi\n      0x00\n      dup1\n      revert\n    tag_21:\n      pop\n      tag_22\n      0x04\n      dup1\n      calldatasize\n      sub\n      dup2\n      add\n      swap1\n      tag_23\n      swap2\n      swap1\n      tag_24\n      jump\t// in\n    tag_23:\n      tag_25\n      jump\t// in\n    tag_22:\n      mload(0x40)\n      tag_26\n      swap2\n      swap1\n      tag_27\n      jump\t// in\n    tag_26:\n      mload(0x40)\n      dup1\n      swap2\n      sub\n      swap1\n      return\n        /* \"TokenSGTX/contracts/Licencias.sol\":3261:3576  function validLicence(address sub, bytes32 sing) public view returns(bool) {... */\n    tag_5:\n      callvalue\n      dup1\n      iszero\n      tag_28\n      jumpi\n      0x00\n      dup1\n      revert\n    tag_28:\n      pop\n      tag_29\n      0x04\n      dup1\n      calldatasize\n      sub\n      dup2\n      add\n      swap1\n      tag_30\n      swap2\n      swap1\n      tag_31\n      jump\t// in\n    tag_30:\n      tag_32\n      jump\t// in\n    tag_29:\n      mload(0x40)\n      tag_33\n      swap2\n      swap1\n      tag_34\n      jump\t// in\n    tag_33:\n      mload(0x40)\n      dup1\n      swap2\n      sub\n      swap1\n      return\n        /* \"TokenSGTX/contracts/Licencias.sol\":4256:4429  function addTaxPayer(string memory _rif, address _relationAddress) public isOwner returns (bool) {... */\n    tag_6:\n      callvalue\n      dup1\n      iszero\n      tag_35\n      jumpi\n      0x00\n      dup1\n      revert\n    tag_35:\n      pop\n      tag_36\n      0x04\n      dup1\n      calldatasize\n      sub\n      dup2\n      add\n      swap1\n      tag_37\n      swap2\n      swap1\n      tag_38\n      jump\t// in\n    tag_37:\n      tag_39\n      jump\t// in\n    tag_36:\n      mload(0x40)\n      tag_40\n      swap2\n      swap1\n      tag_34\n      jump\t// in\n    tag_40:\n      mload(0x40)\n      dup1\n      swap2\n      sub\n      swap1\n      return\n        /* \"TokenSGTX/contracts/Licencias.sol\":2476:2620  function getUserLicences(... */\n    tag_7:\n      callvalue\n      dup1\n      iszero\n      tag_41\n      jumpi\n      0x00\n      dup1\n      revert\n    tag_41:\n      pop\n      tag_42\n      0x04\n      dup1\n      calldatasize\n      sub\n      dup2\n      add\n      swap1\n      tag_43\n      swap2\n      swap1\n      tag_12\n      jump\t// in\n    tag_43:\n      tag_44\n      jump\t// in\n    tag_42:\n      mload(0x40)\n      tag_45\n      swap2\n      swap1\n      tag_46\n      jump\t// in\n    tag_45:\n      mload(0x40)\n      dup1\n      swap2\n      sub\n      swap1\n      return\n        /* \"TokenSGTX/contracts/Licencias.sol\":775:1883  function createLicencia(... */\n    tag_8:\n      tag_47\n      0x04\n      dup1\n      calldatasize\n      sub\n      dup2\n      add\n      swap1\n      tag_48\n      swap2\n      swap1\n      tag_49\n      jump\t// in\n    tag_48:\n      tag_50\n      jump\t// in\n    tag_47:\n      mload(0x40)\n      tag_51\n      swap2\n      swap1\n      tag_52\n      jump\t// in\n    tag_51:\n      mload(0x40)\n      dup1\n      swap2\n      sub\n      swap1\n      return\n        /* \"TokenSGTX/contracts/Licencias.sol\":3584:3684  function addOwners(address subject) public payable isOwner{... */\n    tag_13:\n        /* \"TokenSGTX/contracts/Licencias.sol\":3744:3749  owner */\n      0x05\n      0x00\n      swap1\n      sload\n      swap1\n      0x0100\n      exp\n      swap1\n      div\n      0xffffffffffffffffffffffffffffffffffffffff\n      and\n        /* \"TokenSGTX/contracts/Licencias.sol\":3730:3749  msg.sender == owner */\n      0xffffffffffffffffffffffffffffffffffffffff\n      and\n        /* \"TokenSGTX/contracts/Licencias.sol\":3730:3740  msg.sender */\n      caller\n        /* \"TokenSGTX/contracts/Licencias.sol\":3730:3749  msg.sender == owner */\n      0xffffffffffffffffffffffffffffffffffffffff\n      and\n      eq\n        /* \"TokenSGTX/contracts/Licencias.sol\":3722:3777  require(msg.sender == owner, \"Only Owner con activate\") */\n      tag_54\n      jumpi\n      mload(0x40)\n      0x08c379a000000000000000000000000000000000000000000000000000000000\n      dup2\n      mstore\n      0x04\n      add\n      tag_55\n      swap1\n      tag_56\n      jump\t// in\n    tag_55:\n      mload(0x40)\n      dup1\n      swap2\n      sub\n      swap1\n      revert\n    tag_54:\n        /* \"TokenSGTX/contracts/Licencias.sol\":3672:3676  true */\n      0x01\n        /* \"TokenSGTX/contracts/Licencias.sol\":3653:3660  _owners */\n      0x03\n        /* \"TokenSGTX/contracts/Licencias.sol\":3653:3669  _owners[subject] */\n      0x00\n        /* \"TokenSGTX/contracts/Licencias.sol\":3661:3668  subject */\n      dup4\n        /* \"TokenSGTX/contracts/Licencias.sol\":3653:3669  _owners[subject] */\n      0xffffffffffffffffffffffffffffffffffffffff\n      and\n      0xffffffffffffffffffffffffffffffffffffffff\n      and\n      dup2\n      mstore\n      0x20\n      add\n      swap1\n      dup2\n      mstore\n      0x20\n      add\n      0x00\n      keccak256\n      0x00\n        /* \"TokenSGTX/contracts/Licencias.sol\":3653:3676  _owners[subject] = true */\n      0x0100\n      exp\n      dup2\n      sload\n      dup2\n      0xff\n      mul\n      not\n      and\n      swap1\n      dup4\n      iszero\n      iszero\n      mul\n      or\n      swap1\n      sstore\n      pop\n        /* \"TokenSGTX/contracts/Licencias.sol\":3584:3684  function addOwners(address subject) public payable isOwner{... */\n      pop\n      jump\t// out\n        /* \"TokenSGTX/contracts/Licencias.sol\":2628:2825  function getLicenseLicence(... */\n    tag_18:\n        /* \"TokenSGTX/contracts/Licencias.sol\":2741:2762  StructLicencia memory */\n      tag_58\n      tag_59\n      jump\t// in\n    tag_58:\n        /* \"TokenSGTX/contracts/Licencias.sol\":2782:2799  _recordedLicenses */\n      0x00\n        /* \"TokenSGTX/contracts/Licencias.sol\":2782:2808  _recordedLicenses[_holder] */\n      dup1\n        /* \"TokenSGTX/contracts/Licencias.sol\":2800:2807  _holder */\n      dup5\n        /* \"TokenSGTX/contracts/Licencias.sol\":2782:2808  _recordedLicenses[_holder] */\n      0xffffffffffffffffffffffffffffffffffffffff\n      and\n      0xffffffffffffffffffffffffffffffffffffffff\n      and\n      dup2\n      mstore\n      0x20\n      add\n      swap1\n      dup2\n      mstore\n      0x20\n      add\n      0x00\n      keccak256\n        /* \"TokenSGTX/contracts/Licencias.sol\":2809:2816  license */\n      dup3\n        /* \"TokenSGTX/contracts/Licencias.sol\":2782:2817  _recordedLicenses[_holder][license] */\n      mload(0x40)\n      tag_61\n      swap2\n      swap1\n      tag_62\n      jump\t// in\n    tag_61:\n      swap1\n      dup2\n      mstore\n      0x20\n      add\n      mload(0x40)\n      dup1\n      swap2\n      sub\n      swap1\n      keccak256\n        /* \"TokenSGTX/contracts/Licencias.sol\":2775:2817  return _recordedLicenses[_holder][license] */\n      mload(0x40)\n      dup1\n      0xc0\n      add\n      0x40\n      mstore\n      swap1\n      dup2\n      0x00\n      dup3\n      add\n      dup1\n      sload\n      tag_63\n      swap1\n      tag_64\n      jump\t// in\n    tag_63:\n      dup1\n      0x1f\n      add\n      0x20\n      dup1\n      swap2\n      div\n      mul\n      0x20\n      add\n      mload(0x40)\n      swap1\n      dup2\n      add\n      0x40\n      mstore\n      dup1\n      swap3\n      swap2\n      swap1\n      dup2\n      dup2\n      mstore\n      0x20\n      add\n      dup3\n      dup1\n      sload\n      tag_65\n      swap1\n      tag_64\n      jump\t// in\n    tag_65:\n      dup1\n      iszero\n      tag_66\n      jumpi\n      dup1\n      0x1f\n      lt\n      tag_67\n      jumpi\n      0x0100\n      dup1\n      dup4\n      sload\n      div\n      mul\n      dup4\n      mstore\n      swap2\n      0x20\n      add\n      swap2\n      jump(tag_66)\n    tag_67:\n      dup3\n      add\n      swap2\n      swap1\n      0x00\n      mstore\n      keccak256(0x00, 0x20)\n      swap1\n    tag_68:\n      dup2\n      sload\n      dup2\n      mstore\n      swap1\n      0x01\n      add\n      swap1\n      0x20\n      add\n      dup1\n      dup4\n      gt\n      tag_68\n      jumpi\n      dup3\n      swap1\n      sub\n      0x1f\n      and\n      dup3\n      add\n      swap2\n    tag_66:\n      pop\n      pop\n      pop\n      pop\n      pop\n      dup2\n      mstore\n      0x20\n      add\n      0x01\n      dup3\n      add\n      dup1\n      sload\n      tag_69\n      swap1\n      tag_64\n      jump\t// in\n    tag_69:\n      dup1\n      0x1f\n      add\n      0x20\n      dup1\n      swap2\n      div\n      mul\n      0x20\n      add\n      mload(0x40)\n      swap1\n      dup2\n      add\n      0x40\n      mstore\n      dup1\n      swap3\n      swap2\n      swap1\n      dup2\n      dup2\n      mstore\n      0x20\n      add\n      dup3\n      dup1\n      sload\n      tag_70\n      swap1\n      tag_64\n      jump\t// in\n    tag_70:\n      dup1\n      iszero\n      tag_71\n      jumpi\n      dup1\n      0x1f\n      lt\n      tag_72\n      jumpi\n      0x0100\n      dup1\n      dup4\n      sload\n      div\n      mul\n      dup4\n      mstore\n      swap2\n      0x20\n      add\n      swap2\n      jump(tag_71)\n    tag_72:\n      dup3\n      add\n      swap2\n      swap1\n      0x00\n      mstore\n      keccak256(0x00, 0x20)\n      swap1\n    tag_73:\n      dup2\n      sload\n      dup2\n      mstore\n      swap1\n      0x01\n      add\n      swap1\n      0x20\n      add\n      dup1\n      dup4\n      gt\n      tag_73\n      jumpi\n      dup3\n      swap1\n      sub\n      0x1f\n      and\n      dup3\n      add\n      swap2\n    tag_71:\n      pop\n      pop\n      pop\n      pop\n      pop\n      dup2\n      mstore\n      0x20\n      add\n      0x02\n      dup3\n      add\n      sload\n      dup2\n      mstore\n      0x20\n      add\n      0x03\n      dup3\n      add\n      sload\n      dup2\n      mstore\n      0x20\n      add\n      0x04\n      dup3\n      add\n      dup1\n      sload\n      tag_74\n      swap1\n      tag_64\n      jump\t// in\n    tag_74:\n      dup1\n      0x1f\n      add\n      0x20\n      dup1\n      swap2\n      div\n      mul\n      0x20\n      add\n      mload(0x40)\n      swap1\n      dup2\n      add\n      0x40\n      mstore\n      dup1\n      swap3\n      swap2\n      swap1\n      dup2\n      dup2\n      mstore\n      0x20\n      add\n      dup3\n      dup1\n      sload\n      tag_75\n      swap1\n      tag_64\n      jump\t// in\n    tag_75:\n      dup1\n      iszero\n      tag_76\n      jumpi\n      dup1\n      0x1f\n      lt\n      tag_77\n      jumpi\n      0x0100\n      dup1\n      dup4\n      sload\n      div\n      mul\n      dup4\n      mstore\n      swap2\n      0x20\n      add\n      swap2\n      jump(tag_76)\n    tag_77:\n      dup3\n      add\n      swap2\n      swap1\n      0x00\n      mstore\n      keccak256(0x00, 0x20)\n      swap1\n    tag_78:\n      dup2\n      sload\n      dup2\n      mstore\n      swap1\n      0x01\n      add\n      swap1\n      0x20\n      add\n      dup1\n      dup4\n      gt\n      tag_78\n      jumpi\n      dup3\n      swap1\n      sub\n      0x1f\n      and\n      dup3\n      add\n      swap2\n    tag_76:\n      pop\n      pop\n      pop\n      pop\n      pop\n      dup2\n      mstore\n      0x20\n      add\n      0x05\n      dup3\n      add\n      sload\n      dup2\n      mstore\n      pop\n      pop\n      swap1\n      pop\n        /* \"TokenSGTX/contracts/Licencias.sol\":2628:2825  function getLicenseLicence(... */\n      swap3\n      swap2\n      pop\n      pop\n      jump\t// out\n        /* \"TokenSGTX/contracts/Licencias.sol\":3930:4047  function taxpayerAddress(string memory _rif) public view returns (address) {... */\n    tag_25:\n        /* \"TokenSGTX/contracts/Licencias.sol\":3996:4003  address */\n      0x00\n        /* \"TokenSGTX/contracts/Licencias.sol\":4023:4033  _taxpayers */\n      0x04\n        /* \"TokenSGTX/contracts/Licencias.sol\":4034:4038  _rif */\n      dup3\n        /* \"TokenSGTX/contracts/Licencias.sol\":4023:4039  _taxpayers[_rif] */\n      mload(0x40)\n      tag_80\n      swap2\n      swap1\n      tag_62\n      jump\t// in\n    tag_80:\n      swap1\n      dup2\n      mstore\n      0x20\n      add\n      mload(0x40)\n      dup1\n      swap2\n      sub\n      swap1\n      keccak256\n      0x00\n      swap1\n      sload\n      swap1\n      0x0100\n      exp\n      swap1\n      div\n      0xffffffffffffffffffffffffffffffffffffffff\n      and\n        /* \"TokenSGTX/contracts/Licencias.sol\":4016:4039  return _taxpayers[_rif] */\n      swap1\n      pop\n        /* \"TokenSGTX/contracts/Licencias.sol\":3930:4047  function taxpayerAddress(string memory _rif) public view returns (address) {... */\n      swap2\n      swap1\n      pop\n      jump\t// out\n        /* \"TokenSGTX/contracts/Licencias.sol\":3261:3576  function validLicence(address sub, bytes32 sing) public view returns(bool) {... */\n    tag_32:\n        /* \"TokenSGTX/contracts/Licencias.sol\":3330:3334  bool */\n      0x00\n        /* \"TokenSGTX/contracts/Licencias.sol\":3347:3373  bytes32[] memory userSings */\n      dup1\n        /* \"TokenSGTX/contracts/Licencias.sol\":3376:3386  _userSings */\n      0x02\n        /* \"TokenSGTX/contracts/Licencias.sol\":3376:3391  _userSings[sub] */\n      0x00\n        /* \"TokenSGTX/contracts/Licencias.sol\":3387:3390  sub */\n      dup6\n        /* \"TokenSGTX/contracts/Licencias.sol\":3376:3391  _userSings[sub] */\n      0xffffffffffffffffffffffffffffffffffffffff\n      and\n      0xffffffffffffffffffffffffffffffffffffffff\n      and\n      dup2\n      mstore\n      0x20\n      add\n      swap1\n      dup2\n      mstore\n      0x20\n      add\n      0x00\n      keccak256\n        /* \"TokenSGTX/contracts/Licencias.sol\":3347:3391  bytes32[] memory userSings = _userSings[sub] */\n      dup1\n      sload\n      dup1\n      0x20\n      mul\n      0x20\n      add\n      mload(0x40)\n      swap1\n      dup2\n      add\n      0x40\n      mstore\n      dup1\n      swap3\n      swap2\n      swap1\n      dup2\n      dup2\n      mstore\n      0x20\n      add\n      dup3\n      dup1\n      sload\n      dup1\n      iszero\n      tag_82\n      jumpi\n      0x20\n      mul\n      dup3\n      add\n      swap2\n      swap1\n      0x00\n      mstore\n      keccak256(0x00, 0x20)\n      swap1\n    tag_83:\n      dup2\n      sload\n      dup2\n      mstore\n      0x20\n      add\n      swap1\n      0x01\n      add\n      swap1\n      dup1\n      dup4\n      gt\n      tag_83\n      jumpi\n    tag_82:\n      pop\n      pop\n      pop\n      pop\n      pop\n      swap1\n      pop\n        /* \"TokenSGTX/contracts/Licencias.sol\":3407:3416  uint256 i */\n      0x00\n        /* \"TokenSGTX/contracts/Licencias.sol\":3402:3546  for (uint256 i = 0; i < userSings.length; i++) {... */\n    tag_84:\n        /* \"TokenSGTX/contracts/Licencias.sol\":3426:3435  userSings */\n      dup2\n        /* \"TokenSGTX/contracts/Licencias.sol\":3426:3442  userSings.length */\n      mload\n        /* \"TokenSGTX/contracts/Licencias.sol\":3422:3423  i */\n      dup2\n        /* \"TokenSGTX/contracts/Licencias.sol\":3422:3442  i < userSings.length */\n      lt\n        /* \"TokenSGTX/contracts/Licencias.sol\":3402:3546  for (uint256 i = 0; i < userSings.length; i++) {... */\n      iszero\n      tag_85\n      jumpi\n        /* \"TokenSGTX/contracts/Licencias.sol\":3483:3487  sing */\n      dup4\n        /* \"TokenSGTX/contracts/Licencias.sol\":3467:3476  userSings */\n      dup3\n        /* \"TokenSGTX/contracts/Licencias.sol\":3477:3478  i */\n      dup3\n        /* \"TokenSGTX/contracts/Licencias.sol\":3467:3479  userSings[i] */\n      dup2\n      mload\n      dup2\n      lt\n      tag_87\n      jumpi\n      tag_88\n      tag_89\n      jump\t// in\n    tag_88:\n    tag_87:\n      0x20\n      mul\n      0x20\n      add\n      add\n      mload\n        /* \"TokenSGTX/contracts/Licencias.sol\":3467:3487  userSings[i] == sing */\n      sub\n        /* \"TokenSGTX/contracts/Licencias.sol\":3464:3535  if(userSings[i] == sing) {... */\n      tag_90\n      jumpi\n        /* \"TokenSGTX/contracts/Licencias.sol\":3515:3519  true */\n      0x01\n        /* \"TokenSGTX/contracts/Licencias.sol\":3508:3519  return true */\n      swap3\n      pop\n      pop\n      pop\n      jump(tag_81)\n        /* \"TokenSGTX/contracts/Licencias.sol\":3464:3535  if(userSings[i] == sing) {... */\n    tag_90:\n        /* \"TokenSGTX/contracts/Licencias.sol\":3444:3447  i++ */\n      dup1\n      dup1\n      tag_91\n      swap1\n      tag_92\n      jump\t// in\n    tag_91:\n      swap2\n      pop\n      pop\n        /* \"TokenSGTX/contracts/Licencias.sol\":3402:3546  for (uint256 i = 0; i < userSings.length; i++) {... */\n      jump(tag_84)\n    tag_85:\n      pop\n        /* \"TokenSGTX/contracts/Licencias.sol\":3563:3568  false */\n      0x00\n        /* \"TokenSGTX/contracts/Licencias.sol\":3556:3568  return false */\n      swap2\n      pop\n      pop\n        /* \"TokenSGTX/contracts/Licencias.sol\":3261:3576  function validLicence(address sub, bytes32 sing) public view returns(bool) {... */\n    tag_81:\n      swap3\n      swap2\n      pop\n      pop\n      jump\t// out\n        /* \"TokenSGTX/contracts/Licencias.sol\":4256:4429  function addTaxPayer(string memory _rif, address _relationAddress) public isOwner returns (bool) {... */\n    tag_39:\n        /* \"TokenSGTX/contracts/Licencias.sol\":4347:4351  bool */\n      0x00\n        /* \"TokenSGTX/contracts/Licencias.sol\":3744:3749  owner */\n      0x05\n      0x00\n      swap1\n      sload\n      swap1\n      0x0100\n      exp\n      swap1\n      div\n      0xffffffffffffffffffffffffffffffffffffffff\n      and\n        /* \"TokenSGTX/contracts/Licencias.sol\":3730:3749  msg.sender == owner */\n      0xffffffffffffffffffffffffffffffffffffffff\n      and\n        /* \"TokenSGTX/contracts/Licencias.sol\":3730:3740  msg.sender */\n      caller\n        /* \"TokenSGTX/contracts/Licencias.sol\":3730:3749  msg.sender == owner */\n      0xffffffffffffffffffffffffffffffffffffffff\n      and\n      eq\n        /* \"TokenSGTX/contracts/Licencias.sol\":3722:3777  require(msg.sender == owner, \"Only Owner con activate\") */\n      tag_94\n      jumpi\n      mload(0x40)\n      0x08c379a000000000000000000000000000000000000000000000000000000000\n      dup2\n      mstore\n      0x04\n      add\n      tag_95\n      swap1\n      tag_56\n      jump\t// in\n    tag_95:\n      mload(0x40)\n      dup1\n      swap2\n      sub\n      swap1\n      revert\n    tag_94:\n        /* \"TokenSGTX/contracts/Licencias.sol\":4383:4399  _relationAddress */\n      dup2\n        /* \"TokenSGTX/contracts/Licencias.sol\":4364:4374  _taxpayers */\n      0x04\n        /* \"TokenSGTX/contracts/Licencias.sol\":4375:4379  _rif */\n      dup5\n        /* \"TokenSGTX/contracts/Licencias.sol\":4364:4380  _taxpayers[_rif] */\n      mload(0x40)\n      tag_97\n      swap2\n      swap1\n      tag_62\n      jump\t// in\n    tag_97:\n      swap1\n      dup2\n      mstore\n      0x20\n      add\n      mload(0x40)\n      dup1\n      swap2\n      sub\n      swap1\n      keccak256\n      0x00\n        /* \"TokenSGTX/contracts/Licencias.sol\":4364:4399  _taxpayers[_rif] = _relationAddress */\n      0x0100\n      exp\n      dup2\n      sload\n      dup2\n      0xffffffffffffffffffffffffffffffffffffffff\n      mul\n      not\n      and\n      swap1\n      dup4\n      0xffffffffffffffffffffffffffffffffffffffff\n      and\n      mul\n      or\n      swap1\n      sstore\n      pop\n        /* \"TokenSGTX/contracts/Licencias.sol\":4417:4421  true */\n      0x01\n        /* \"TokenSGTX/contracts/Licencias.sol\":4410:4421  return true */\n      swap1\n      pop\n        /* \"TokenSGTX/contracts/Licencias.sol\":4256:4429  function addTaxPayer(string memory _rif, address _relationAddress) public isOwner returns (bool) {... */\n      swap3\n      swap2\n      pop\n      pop\n      jump\t// out\n        /* \"TokenSGTX/contracts/Licencias.sol\":2476:2620  function getUserLicences(... */\n    tag_44:\n        /* \"TokenSGTX/contracts/Licencias.sol\":2555:2570  string[] memory */\n      0x60\n        /* \"TokenSGTX/contracts/Licencias.sol\":2590:2603  _userLicenses */\n      0x01\n        /* \"TokenSGTX/contracts/Licencias.sol\":2590:2612  _userLicenses[_holder] */\n      0x00\n        /* \"TokenSGTX/contracts/Licencias.sol\":2604:2611  _holder */\n      dup4\n        /* \"TokenSGTX/contracts/Licencias.sol\":2590:2612  _userLicenses[_holder] */\n      0xffffffffffffffffffffffffffffffffffffffff\n      and\n      0xffffffffffffffffffffffffffffffffffffffff\n      and\n      dup2\n      mstore\n      0x20\n      add\n      swap1\n      dup2\n      mstore\n      0x20\n      add\n      0x00\n      keccak256\n        /* \"TokenSGTX/contracts/Licencias.sol\":2583:2612  return _userLicenses[_holder] */\n      dup1\n      sload\n      dup1\n      0x20\n      mul\n      0x20\n      add\n      mload(0x40)\n      swap1\n      dup2\n      add\n      0x40\n      mstore\n      dup1\n      swap3\n      swap2\n      swap1\n      dup2\n      dup2\n      mstore\n      0x20\n      add\n      0x00\n      swap1\n    tag_99:\n      dup3\n      dup3\n      lt\n      iszero\n      tag_100\n      jumpi\n      dup4\n      dup3\n      swap1\n      0x00\n      mstore\n      keccak256(0x00, 0x20)\n      add\n      dup1\n      sload\n      tag_102\n      swap1\n      tag_64\n      jump\t// in\n    tag_102:\n      dup1\n      0x1f\n      add\n      0x20\n      dup1\n      swap2\n      div\n      mul\n      0x20\n      add\n      mload(0x40)\n      swap1\n      dup2\n      add\n      0x40\n      mstore\n      dup1\n      swap3\n      swap2\n      swap1\n      dup2\n      dup2\n      mstore\n      0x20\n      add\n      dup3\n      dup1\n      sload\n      tag_103\n      swap1\n      tag_64\n      jump\t// in\n    tag_103:\n      dup1\n      iszero\n      tag_104\n      jumpi\n      dup1\n      0x1f\n      lt\n      tag_105\n      jumpi\n      0x0100\n      dup1\n      dup4\n      sload\n      div\n      mul\n      dup4\n      mstore\n      swap2\n      0x20\n      add\n      swap2\n      jump(tag_104)\n    tag_105:\n      dup3\n      add\n      swap2\n      swap1\n      0x00\n      mstore\n      keccak256(0x00, 0x20)\n      swap1\n    tag_106:\n      dup2\n      sload\n      dup2\n      mstore\n      swap1\n      0x01\n      add\n      swap1\n      0x20\n      add\n      dup1\n      dup4\n      gt\n      tag_106\n      jumpi\n      dup3\n      swap1\n      sub\n      0x1f\n      and\n      dup3\n      add\n      swap2\n    tag_104:\n      pop\n      pop\n      pop\n      pop\n      pop\n      dup2\n      mstore\n      0x20\n      add\n      swap1\n      0x01\n      add\n      swap1\n      jump(tag_99)\n    tag_100:\n      pop\n      pop\n      pop\n      pop\n      swap1\n      pop\n        /* \"TokenSGTX/contracts/Licencias.sol\":2476:2620  function getUserLicences(... */\n      swap2\n      swap1\n      pop\n      jump\t// out\n        /* \"TokenSGTX/contracts/Licencias.sol\":775:1883  function createLicencia(... */\n    tag_50:\n        /* \"TokenSGTX/contracts/Licencias.sol\":1027:1034  bytes32 */\n      0x00\n        /* \"TokenSGTX/contracts/Licencias.sol\":3870:3874  true */\n      0x01\n        /* \"TokenSGTX/contracts/Licencias.sol\":3847:3874  _owners[msg.sender] == true */\n      iszero\n      iszero\n        /* \"TokenSGTX/contracts/Licencias.sol\":3847:3854  _owners */\n      0x03\n        /* \"TokenSGTX/contracts/Licencias.sol\":3847:3866  _owners[msg.sender] */\n      0x00\n        /* \"TokenSGTX/contracts/Licencias.sol\":3855:3865  msg.sender */\n      caller\n        /* \"TokenSGTX/contracts/Licencias.sol\":3847:3866  _owners[msg.sender] */\n      0xffffffffffffffffffffffffffffffffffffffff\n      and\n      0xffffffffffffffffffffffffffffffffffffffff\n      and\n      dup2\n      mstore\n      0x20\n      add\n      swap1\n      dup2\n      mstore\n      0x20\n      add\n      0x00\n      keccak256\n      0x00\n      swap1\n      sload\n      swap1\n      0x0100\n      exp\n      swap1\n      div\n      0xff\n      and\n        /* \"TokenSGTX/contracts/Licencias.sol\":3847:3874  _owners[msg.sender] == true */\n      iszero\n      iszero\n      eq\n        /* \"TokenSGTX/contracts/Licencias.sol\":3839:3902  require(_owners[msg.sender] == true, \"Only Owner con activate\") */\n      tag_108\n      jumpi\n      mload(0x40)\n      0x08c379a000000000000000000000000000000000000000000000000000000000\n      dup2\n      mstore\n      0x04\n      add\n      tag_109\n      swap1\n      tag_56\n      jump\t// in\n    tag_109:\n      mload(0x40)\n      dup1\n      swap2\n      sub\n      swap1\n      revert\n    tag_108:\n        /* \"TokenSGTX/contracts/Licencias.sol\":1048:1063  address _holder */\n      0x00\n        /* \"TokenSGTX/contracts/Licencias.sol\":1066:1087  taxpayerAddress(_rif) */\n      tag_111\n        /* \"TokenSGTX/contracts/Licencias.sol\":1082:1086  _rif */\n      dup10\n      dup10\n        /* \"TokenSGTX/contracts/Licencias.sol\":1066:1087  taxpayerAddress(_rif) */\n      dup1\n      dup1\n      0x1f\n      add\n      0x20\n      dup1\n      swap2\n      div\n      mul\n      0x20\n      add\n      mload(0x40)\n      swap1\n      dup2\n      add\n      0x40\n      mstore\n      dup1\n      swap4\n      swap3\n      swap2\n      swap1\n      dup2\n      dup2\n      mstore\n      0x20\n      add\n      dup4\n      dup4\n      dup1\n      dup3\n      dup5\n      calldatacopy\n      0x00\n      dup2\n      dup5\n      add\n      mstore\n      not(0x1f)\n      0x1f\n      dup3\n      add\n      and\n      swap1\n      pop\n      dup1\n      dup4\n      add\n      swap3\n      pop\n      pop\n      pop\n      pop\n      pop\n      pop\n      pop\n        /* \"TokenSGTX/contracts/Licencias.sol\":1066:1081  taxpayerAddress */\n      tag_25\n        /* \"TokenSGTX/contracts/Licencias.sol\":1066:1087  taxpayerAddress(_rif) */\n      jump\t// in\n    tag_111:\n        /* \"TokenSGTX/contracts/Licencias.sol\":1048:1087  address _holder = taxpayerAddress(_rif) */\n      swap1\n      pop\n        /* \"TokenSGTX/contracts/Licencias.sol\":1122:1123  0 */\n      0x00\n        /* \"TokenSGTX/contracts/Licencias.sol\":1103:1124  _holder == address(0) */\n      0xffffffffffffffffffffffffffffffffffffffff\n      and\n        /* \"TokenSGTX/contracts/Licencias.sol\":1103:1110  _holder */\n      dup2\n        /* \"TokenSGTX/contracts/Licencias.sol\":1103:1124  _holder == address(0) */\n      0xffffffffffffffffffffffffffffffffffffffff\n      and\n      sub\n        /* \"TokenSGTX/contracts/Licencias.sol\":1100:1193  if(_holder == address(0)) {... */\n      tag_112\n      jumpi\n        /* \"TokenSGTX/contracts/Licencias.sol\":1141:1181  revert('Rif Not Registred has Taxpayer') */\n      mload(0x40)\n      0x08c379a000000000000000000000000000000000000000000000000000000000\n      dup2\n      mstore\n      0x04\n      add\n      tag_113\n      swap1\n      tag_114\n      jump\t// in\n    tag_113:\n      mload(0x40)\n      dup1\n      swap2\n      sub\n      swap1\n      revert\n        /* \"TokenSGTX/contracts/Licencias.sol\":1100:1193  if(_holder == address(0)) {... */\n    tag_112:\n        /* \"TokenSGTX/contracts/Licencias.sol\":1205:1224  bytes32 singLicense */\n      0x00\n        /* \"TokenSGTX/contracts/Licencias.sol\":1227:1341  singLicense(... */\n      tag_115\n        /* \"TokenSGTX/contracts/Licencias.sol\":1253:1260  _holder */\n      dup3\n        /* \"TokenSGTX/contracts/Licencias.sol\":1275:1282  license */\n      dup6\n        /* \"TokenSGTX/contracts/Licencias.sol\":1297:1307  _activitis */\n      dup9\n      dup9\n        /* \"TokenSGTX/contracts/Licencias.sol\":1227:1341  singLicense(... */\n      dup1\n      dup1\n      0x1f\n      add\n      0x20\n      dup1\n      swap2\n      div\n      mul\n      0x20\n      add\n      mload(0x40)\n      swap1\n      dup2\n      add\n      0x40\n      mstore\n      dup1\n      swap4\n      swap3\n      swap2\n      swap1\n      dup2\n      dup2\n      mstore\n      0x20\n      add\n      dup4\n      dup4\n      dup1\n      dup3\n      dup5\n      calldatacopy\n      0x00\n      dup2\n      dup5\n      add\n      mstore\n      not(0x1f)\n      0x1f\n      dup3\n      add\n      and\n      swap1\n      pop\n      dup1\n      dup4\n      add\n      swap3\n      pop\n      pop\n      pop\n      pop\n      pop\n      pop\n      pop\n        /* \"TokenSGTX/contracts/Licencias.sol\":1322:1330  _expDate */\n      dup11\n        /* \"TokenSGTX/contracts/Licencias.sol\":1227:1238  singLicense */\n      tag_116\n        /* \"TokenSGTX/contracts/Licencias.sol\":1227:1341  singLicense(... */\n      jump\t// in\n    tag_115:\n        /* \"TokenSGTX/contracts/Licencias.sol\":1205:1341  bytes32 singLicense = singLicense(... */\n      swap1\n      pop\n        /* \"TokenSGTX/contracts/Licencias.sol\":1367:1533  StructLicencia(... */\n      mload(0x40)\n      dup1\n      0xc0\n      add\n      0x40\n      mstore\n      dup1\n        /* \"TokenSGTX/contracts/Licencias.sol\":1396:1405  _alcaldia */\n      dup14\n      dup14\n        /* \"TokenSGTX/contracts/Licencias.sol\":1367:1533  StructLicencia(... */\n      dup1\n      dup1\n      0x1f\n      add\n      0x20\n      dup1\n      swap2\n      div\n      mul\n      0x20\n      add\n      mload(0x40)\n      swap1\n      dup2\n      add\n      0x40\n      mstore\n      dup1\n      swap4\n      swap3\n      swap2\n      swap1\n      dup2\n      dup2\n      mstore\n      0x20\n      add\n      dup4\n      dup4\n      dup1\n      dup3\n      dup5\n      calldatacopy\n      0x00\n      dup2\n      dup5\n      add\n      mstore\n      not(0x1f)\n      0x1f\n      dup3\n      add\n      and\n      swap1\n      pop\n      dup1\n      dup4\n      add\n      swap3\n      pop\n      pop\n      pop\n      pop\n      pop\n      pop\n      pop\n      dup2\n      mstore\n      0x20\n      add\n        /* \"TokenSGTX/contracts/Licencias.sol\":1420:1424  _rif */\n      dup12\n      dup12\n        /* \"TokenSGTX/contracts/Licencias.sol\":1367:1533  StructLicencia(... */\n      dup1\n      dup1\n      0x1f\n      add\n      0x20\n      dup1\n      swap2\n      div\n      mul\n      0x20\n      add\n      mload(0x40)\n      swap1\n      dup2\n      add\n      0x40\n      mstore\n      dup1\n      swap4\n      swap3\n      swap2\n      swap1\n      dup2\n      dup2\n      mstore\n      0x20\n      add\n      dup4\n      dup4\n      dup1\n      dup3\n      dup5\n      calldatacopy\n      0x00\n      dup2\n      dup5\n      add\n      mstore\n      not(0x1f)\n      0x1f\n      dup3\n      add\n      and\n      swap1\n      pop\n      dup1\n      dup4\n      add\n      swap3\n      pop\n      pop\n      pop\n      pop\n      pop\n      pop\n      pop\n      dup2\n      mstore\n      0x20\n      add\n        /* \"TokenSGTX/contracts/Licencias.sol\":1439:1448  _renoDate */\n      dup10\n        /* \"TokenSGTX/contracts/Licencias.sol\":1367:1533  StructLicencia(... */\n      dup2\n      mstore\n      0x20\n      add\n        /* \"TokenSGTX/contracts/Licencias.sol\":1463:1471  _expDate */\n      dup9\n        /* \"TokenSGTX/contracts/Licencias.sol\":1367:1533  StructLicencia(... */\n      dup2\n      mstore\n      0x20\n      add\n        /* \"TokenSGTX/contracts/Licencias.sol\":1486:1496  _activitis */\n      dup8\n      dup8\n        /* \"TokenSGTX/contracts/Licencias.sol\":1367:1533  StructLicencia(... */\n      dup1\n      dup1\n      0x1f\n      add\n      0x20\n      dup1\n      swap2\n      div\n      mul\n      0x20\n      add\n      mload(0x40)\n      swap1\n      dup2\n      add\n      0x40\n      mstore\n      dup1\n      swap4\n      swap3\n      swap2\n      swap1\n      dup2\n      dup2\n      mstore\n      0x20\n      add\n      dup4\n      dup4\n      dup1\n      dup3\n      dup5\n      calldatacopy\n      0x00\n      dup2\n      dup5\n      add\n      mstore\n      not(0x1f)\n      0x1f\n      dup3\n      add\n      and\n      swap1\n      pop\n      dup1\n      dup4\n      add\n      swap3\n      pop\n      pop\n      pop\n      pop\n      pop\n      pop\n      pop\n      dup2\n      mstore\n      0x20\n      add\n        /* \"TokenSGTX/contracts/Licencias.sol\":1511:1522  singLicense */\n      dup3\n        /* \"TokenSGTX/contracts/Licencias.sol\":1367:1533  StructLicencia(... */\n      dup2\n      mstore\n      pop\n        /* \"TokenSGTX/contracts/Licencias.sol\":1354:1364  objlisense */\n      0x06\n        /* \"TokenSGTX/contracts/Licencias.sol\":1354:1533  objlisense = StructLicencia(... */\n      0x00\n      dup3\n      add\n      mload\n      dup2\n      0x00\n      add\n      swap1\n      dup2\n      tag_117\n      swap2\n      swap1\n      tag_118\n      jump\t// in\n    tag_117:\n      pop\n      0x20\n      dup3\n      add\n      mload\n      dup2\n      0x01\n      add\n      swap1\n      dup2\n      tag_119\n      swap2\n      swap1\n      tag_118\n      jump\t// in\n    tag_119:\n      pop\n      0x40\n      dup3\n      add\n      mload\n      dup2\n      0x02\n      add\n      sstore\n      0x60\n      dup3\n      add\n      mload\n      dup2\n      0x03\n      add\n      sstore\n      0x80\n      dup3\n      add\n      mload\n      dup2\n      0x04\n      add\n      swap1\n      dup2\n      tag_120\n      swap2\n      swap1\n      tag_118\n      jump\t// in\n    tag_120:\n      pop\n      0xa0\n      dup3\n      add\n      mload\n      dup2\n      0x05\n      add\n      sstore\n      swap1\n      pop\n      pop\n        /* \"TokenSGTX/contracts/Licencias.sol\":1546:1603  _createUpdateContracLicense(_holder, license, objlisense) */\n      tag_121\n        /* \"TokenSGTX/contracts/Licencias.sol\":1574:1581  _holder */\n      dup3\n        /* \"TokenSGTX/contracts/Licencias.sol\":1583:1590  license */\n      dup6\n        /* \"TokenSGTX/contracts/Licencias.sol\":1592:1602  objlisense */\n      0x06\n        /* \"TokenSGTX/contracts/Licencias.sol\":1546:1603  _createUpdateContracLicense(_holder, license, objlisense) */\n      mload(0x40)\n      dup1\n      0xc0\n      add\n      0x40\n      mstore\n      swap1\n      dup2\n      0x00\n      dup3\n      add\n      dup1\n      sload\n      tag_122\n      swap1\n      tag_64\n      jump\t// in\n    tag_122:\n      dup1\n      0x1f\n      add\n      0x20\n      dup1\n      swap2\n      div\n      mul\n      0x20\n      add\n      mload(0x40)\n      swap1\n      dup2\n      add\n      0x40\n      mstore\n      dup1\n      swap3\n      swap2\n      swap1\n      dup2\n      dup2\n      mstore\n      0x20\n      add\n      dup3\n      dup1\n      sload\n      tag_123\n      swap1\n      tag_64\n      jump\t// in\n    tag_123:\n      dup1\n      iszero\n      tag_124\n      jumpi\n      dup1\n      0x1f\n      lt\n      tag_125\n      jumpi\n      0x0100\n      dup1\n      dup4\n      sload\n      div\n      mul\n      dup4\n      mstore\n      swap2\n      0x20\n      add\n      swap2\n      jump(tag_124)\n    tag_125:\n      dup3\n      add\n      swap2\n      swap1\n      0x00\n      mstore\n      keccak256(0x00, 0x20)\n      swap1\n    tag_126:\n      dup2\n      sload\n      dup2\n      mstore\n      swap1\n      0x01\n      add\n      swap1\n      0x20\n      add\n      dup1\n      dup4\n      gt\n      tag_126\n      jumpi\n      dup3\n      swap1\n      sub\n      0x1f\n      and\n      dup3\n      add\n      swap2\n    tag_124:\n      pop\n      pop\n      pop\n      pop\n      pop\n      dup2\n      mstore\n      0x20\n      add\n      0x01\n      dup3\n      add\n      dup1\n      sload\n      tag_127\n      swap1\n      tag_64\n      jump\t// in\n    tag_127:\n      dup1\n      0x1f\n      add\n      0x20\n      dup1\n      swap2\n      div\n      mul\n      0x20\n      add\n      mload(0x40)\n      swap1\n      dup2\n      add\n      0x40\n      mstore\n      dup1\n      swap3\n      swap2\n      swap1\n      dup2\n      dup2\n      mstore\n      0x20\n      add\n      dup3\n      dup1\n      sload\n      tag_128\n      swap1\n      tag_64\n      jump\t// in\n    tag_128:\n      dup1\n      iszero\n      tag_129\n      jumpi\n      dup1\n      0x1f\n      lt\n      tag_130\n      jumpi\n      0x0100\n      dup1\n      dup4\n      sload\n      div\n      mul\n      dup4\n      mstore\n      swap2\n      0x20\n      add\n      swap2\n      jump(tag_129)\n    tag_130:\n      dup3\n      add\n      swap2\n      swap1\n      0x00\n      mstore\n      keccak256(0x00, 0x20)\n      swap1\n    tag_131:\n      dup2\n      sload\n      dup2\n      mstore\n      swap1\n      0x01\n      add\n      swap1\n      0x20\n      add\n      dup1\n      dup4\n      gt\n      tag_131\n      jumpi\n      dup3\n      swap1\n      sub\n      0x1f\n      and\n      dup3\n      add\n      swap2\n    tag_129:\n      pop\n      pop\n      pop\n      pop\n      pop\n      dup2\n      mstore\n      0x20\n      add\n      0x02\n      dup3\n      add\n      sload\n      dup2\n      mstore\n      0x20\n      add\n      0x03\n      dup3\n      add\n      sload\n      dup2\n      mstore\n      0x20\n      add\n      0x04\n      dup3\n      add\n      dup1\n      sload\n      tag_132\n      swap1\n      tag_64\n      jump\t// in\n    tag_132:\n      dup1\n      0x1f\n      add\n      0x20\n      dup1\n      swap2\n      div\n      mul\n      0x20\n      add\n      mload(0x40)\n      swap1\n      dup2\n      add\n      0x40\n      mstore\n      dup1\n      swap3\n      swap2\n      swap1\n      dup2\n      dup2\n      mstore\n      0x20\n      add\n      dup3\n      dup1\n      sload\n      tag_133\n      swap1\n      tag_64\n      jump\t// in\n    tag_133:\n      dup1\n      iszero\n      tag_134\n      jumpi\n      dup1\n      0x1f\n      lt\n      tag_135\n      jumpi\n      0x0100\n      dup1\n      dup4\n      sload\n      div\n      mul\n      dup4\n      mstore\n      swap2\n      0x20\n      add\n      swap2\n      jump(tag_134)\n    tag_135:\n      dup3\n      add\n      swap2\n      swap1\n      0x00\n      mstore\n      keccak256(0x00, 0x20)\n      swap1\n    tag_136:\n      dup2\n      sload\n      dup2\n      mstore\n      swap1\n      0x01\n      add\n      swap1\n      0x20\n      add\n      dup1\n      dup4\n      gt\n      tag_136\n      jumpi\n      dup3\n      swap1\n      sub\n      0x1f\n      and\n      dup3\n      add\n      swap2\n    tag_134:\n      pop\n      pop\n      pop\n      pop\n      pop\n      dup2\n      mstore\n      0x20\n      add\n      0x05\n      dup3\n      add\n      sload\n      dup2\n      mstore\n      pop\n      pop\n        /* \"TokenSGTX/contracts/Licencias.sol\":1546:1573  _createUpdateContracLicense */\n      tag_137\n        /* \"TokenSGTX/contracts/Licencias.sol\":1546:1603  _createUpdateContracLicense(_holder, license, objlisense) */\n      jump\t// in\n    tag_121:\n        /* \"TokenSGTX/contracts/Licencias.sol\":1616:1644  string[] memory userLicenses */\n      0x00\n        /* \"TokenSGTX/contracts/Licencias.sol\":1647:1671  getUserLicences(_holder) */\n      tag_138\n        /* \"TokenSGTX/contracts/Licencias.sol\":1663:1670  _holder */\n      dup4\n        /* \"TokenSGTX/contracts/Licencias.sol\":1647:1662  getUserLicences */\n      tag_44\n        /* \"TokenSGTX/contracts/Licencias.sol\":1647:1671  getUserLicences(_holder) */\n      jump\t// in\n    tag_138:\n        /* \"TokenSGTX/contracts/Licencias.sol\":1616:1671  string[] memory userLicenses = getUserLicences(_holder) */\n      swap1\n      pop\n        /* \"TokenSGTX/contracts/Licencias.sol\":1711:1712  0 */\n      0x00\n        /* \"TokenSGTX/contracts/Licencias.sol\":1688:1700  userLicenses */\n      dup2\n        /* \"TokenSGTX/contracts/Licencias.sol\":1688:1707  userLicenses.length */\n      mload\n        /* \"TokenSGTX/contracts/Licencias.sol\":1688:1712  userLicenses.length == 0 */\n      sub\n        /* \"TokenSGTX/contracts/Licencias.sol\":1684:1777  if (userLicenses.length == 0) {... */\n      tag_139\n      jumpi\n        /* \"TokenSGTX/contracts/Licencias.sol\":1729:1765  _loadLicenseAnUser(_holder, license) */\n      tag_140\n        /* \"TokenSGTX/contracts/Licencias.sol\":1748:1755  _holder */\n      dup4\n        /* \"TokenSGTX/contracts/Licencias.sol\":1757:1764  license */\n      dup7\n        /* \"TokenSGTX/contracts/Licencias.sol\":1729:1747  _loadLicenseAnUser */\n      tag_141\n        /* \"TokenSGTX/contracts/Licencias.sol\":1729:1765  _loadLicenseAnUser(_holder, license) */\n      jump\t// in\n    tag_140:\n        /* \"TokenSGTX/contracts/Licencias.sol\":1684:1777  if (userLicenses.length == 0) {... */\n    tag_139:\n        /* \"TokenSGTX/contracts/Licencias.sol\":1787:1839  _loadLicenseHashUserArray(_holder, objlisense.firma) */\n      tag_142\n        /* \"TokenSGTX/contracts/Licencias.sol\":1813:1820  _holder */\n      dup4\n        /* \"TokenSGTX/contracts/Licencias.sol\":1822:1832  objlisense */\n      0x06\n        /* \"TokenSGTX/contracts/Licencias.sol\":1822:1838  objlisense.firma */\n      0x05\n      add\n      sload\n        /* \"TokenSGTX/contracts/Licencias.sol\":1787:1812  _loadLicenseHashUserArray */\n      tag_143\n        /* \"TokenSGTX/contracts/Licencias.sol\":1787:1839  _loadLicenseHashUserArray(_holder, objlisense.firma) */\n      jump\t// in\n    tag_142:\n        /* \"TokenSGTX/contracts/Licencias.sol\":1859:1869  objlisense */\n      0x06\n        /* \"TokenSGTX/contracts/Licencias.sol\":1859:1875  objlisense.firma */\n      0x05\n      add\n      sload\n        /* \"TokenSGTX/contracts/Licencias.sol\":1852:1875  return objlisense.firma */\n      swap4\n      pop\n      pop\n      pop\n      pop\n        /* \"TokenSGTX/contracts/Licencias.sol\":775:1883  function createLicencia(... */\n      swap10\n      swap9\n      pop\n      pop\n      pop\n      pop\n      pop\n      pop\n      pop\n      pop\n      pop\n      jump\t// out\n        /* \"TokenSGTX/contracts/Licencias.sol\":2833:3116  function singLicense(... */\n    tag_116:\n        /* \"TokenSGTX/contracts/Licencias.sol\":3001:3008  bytes32 */\n      0x00\n        /* \"TokenSGTX/contracts/Licencias.sol\":3062:3069  _holder */\n      dup5\n        /* \"TokenSGTX/contracts/Licencias.sol\":3071:3078  license */\n      dup5\n        /* \"TokenSGTX/contracts/Licencias.sol\":3080:3090  activities */\n      dup5\n        /* \"TokenSGTX/contracts/Licencias.sol\":3092:3106  expirationDate */\n      dup5\n        /* \"TokenSGTX/contracts/Licencias.sol\":3051:3107  abi.encode(_holder, license, activities, expirationDate) */\n      add(0x20, mload(0x40))\n      tag_145\n      swap5\n      swap4\n      swap3\n      swap2\n      swap1\n      tag_146\n      jump\t// in\n    tag_145:\n      mload(0x40)\n      0x20\n      dup2\n      dup4\n      sub\n      sub\n      dup2\n      mstore\n      swap1\n      0x40\n      mstore\n        /* \"TokenSGTX/contracts/Licencias.sol\":3041:3108  keccak256(abi.encode(_holder, license, activities, expirationDate)) */\n      dup1\n      mload\n      swap1\n      0x20\n      add\n      keccak256\n        /* \"TokenSGTX/contracts/Licencias.sol\":3021:3108  return... */\n      swap1\n      pop\n        /* \"TokenSGTX/contracts/Licencias.sol\":2833:3116  function singLicense(... */\n      swap5\n      swap4\n      pop\n      pop\n      pop\n      pop\n      jump\t// out\n        /* \"TokenSGTX/contracts/Licencias.sol\":1891:2148  function _createUpdateContracLicense (... */\n    tag_137:\n        /* \"TokenSGTX/contracts/Licencias.sol\":2088:2092  _val */\n      dup1\n        /* \"TokenSGTX/contracts/Licencias.sol\":2050:2067  _recordedLicenses */\n      0x00\n        /* \"TokenSGTX/contracts/Licencias.sol\":2050:2076  _recordedLicenses[_holder] */\n      dup1\n        /* \"TokenSGTX/contracts/Licencias.sol\":2068:2075  _holder */\n      dup6\n        /* \"TokenSGTX/contracts/Licencias.sol\":2050:2076  _recordedLicenses[_holder] */\n      0xffffffffffffffffffffffffffffffffffffffff\n      and\n      0xffffffffffffffffffffffffffffffffffffffff\n      and\n      dup2\n      mstore\n      0x20\n      add\n      swap1\n      dup2\n      mstore\n      0x20\n      add\n      0x00\n      keccak256\n        /* \"TokenSGTX/contracts/Licencias.sol\":2077:2084  licence */\n      dup4\n        /* \"TokenSGTX/contracts/Licencias.sol\":2050:2085  _recordedLicenses[_holder][licence] */\n      mload(0x40)\n      tag_148\n      swap2\n      swap1\n      tag_62\n      jump\t// in\n    tag_148:\n      swap1\n      dup2\n      mstore\n      0x20\n      add\n      mload(0x40)\n      dup1\n      swap2\n      sub\n      swap1\n      keccak256\n        /* \"TokenSGTX/contracts/Licencias.sol\":2050:2092  _recordedLicenses[_holder][licence] = _val */\n      0x00\n      dup3\n      add\n      mload\n      dup2\n      0x00\n      add\n      swap1\n      dup2\n      tag_149\n      swap2\n      swap1\n      tag_118\n      jump\t// in\n    tag_149:\n      pop\n      0x20\n      dup3\n      add\n      mload\n      dup2\n      0x01\n      add\n      swap1\n      dup2\n      tag_150\n      swap2\n      swap1\n      tag_118\n      jump\t// in\n    tag_150:\n      pop\n      0x40\n      dup3\n      add\n      mload\n      dup2\n      0x02\n      add\n      sstore\n      0x60\n      dup3\n      add\n      mload\n      dup2\n      0x03\n      add\n      sstore\n      0x80\n      dup3\n      add\n      mload\n      dup2\n      0x04\n      add\n      swap1\n      dup2\n      tag_151\n      swap2\n      swap1\n      tag_118\n      jump\t// in\n    tag_151:\n      pop\n      0xa0\n      dup3\n      add\n      mload\n      dup2\n      0x05\n      add\n      sstore\n      swap1\n      pop\n      pop\n        /* \"TokenSGTX/contracts/Licencias.sol\":2117:2127  msg.sender */\n      caller\n        /* \"TokenSGTX/contracts/Licencias.sol\":2108:2140  licencia(msg.sender, objlisense) */\n      0xffffffffffffffffffffffffffffffffffffffff\n      and\n      0x214840ea044f43197a98c1a9b09034c14d0bce39b2a60521c55de14366c8f78d\n        /* \"TokenSGTX/contracts/Licencias.sol\":2129:2139  objlisense */\n      0x06\n        /* \"TokenSGTX/contracts/Licencias.sol\":2108:2140  licencia(msg.sender, objlisense) */\n      mload(0x40)\n      tag_152\n      swap2\n      swap1\n      tag_153\n      jump\t// in\n    tag_152:\n      mload(0x40)\n      dup1\n      swap2\n      sub\n      swap1\n      log2\n        /* \"TokenSGTX/contracts/Licencias.sol\":1891:2148  function _createUpdateContracLicense (... */\n      pop\n      pop\n      pop\n      jump\t// out\n        /* \"TokenSGTX/contracts/Licencias.sol\":2156:2312  function _loadLicenseAnUser(... */\n    tag_141:\n        /* \"TokenSGTX/contracts/Licencias.sol\":2268:2281  _userLicenses */\n      0x01\n        /* \"TokenSGTX/contracts/Licencias.sol\":2268:2290  _userLicenses[_holder] */\n      0x00\n        /* \"TokenSGTX/contracts/Licencias.sol\":2282:2289  _holder */\n      dup4\n        /* \"TokenSGTX/contracts/Licencias.sol\":2268:2290  _userLicenses[_holder] */\n      0xffffffffffffffffffffffffffffffffffffffff\n      and\n      0xffffffffffffffffffffffffffffffffffffffff\n      and\n      dup2\n      mstore\n      0x20\n      add\n      swap1\n      dup2\n      mstore\n      0x20\n      add\n      0x00\n      keccak256\n        /* \"TokenSGTX/contracts/Licencias.sol\":2296:2303  licence */\n      dup2\n        /* \"TokenSGTX/contracts/Licencias.sol\":2268:2304  _userLicenses[_holder].push(licence) */\n      swap1\n      dup1\n      0x01\n      dup2\n      sload\n      add\n      dup1\n      dup3\n      sstore\n      dup1\n      swap2\n      pop\n      pop\n      0x01\n      swap1\n      sub\n      swap1\n      0x00\n      mstore\n      keccak256(0x00, 0x20)\n      add\n      0x00\n      swap1\n      swap2\n      swap1\n      swap2\n      swap1\n      swap2\n      pop\n      swap1\n      dup2\n      tag_156\n      swap2\n      swap1\n      tag_118\n      jump\t// in\n    tag_156:\n      pop\n        /* \"TokenSGTX/contracts/Licencias.sol\":2156:2312  function _loadLicenseAnUser(... */\n      pop\n      pop\n      jump\t// out\n        /* \"TokenSGTX/contracts/Licencias.sol\":2320:2468  function _loadLicenseHashUserArray(... */\n    tag_143:\n        /* \"TokenSGTX/contracts/Licencias.sol\":2430:2440  _userSings */\n      0x02\n        /* \"TokenSGTX/contracts/Licencias.sol\":2430:2449  _userSings[_holder] */\n      0x00\n        /* \"TokenSGTX/contracts/Licencias.sol\":2441:2448  _holder */\n      dup4\n        /* \"TokenSGTX/contracts/Licencias.sol\":2430:2449  _userSings[_holder] */\n      0xffffffffffffffffffffffffffffffffffffffff\n      and\n      0xffffffffffffffffffffffffffffffffffffffff\n      and\n      dup2\n      mstore\n      0x20\n      add\n      swap1\n      dup2\n      mstore\n      0x20\n      add\n      0x00\n      keccak256\n        /* \"TokenSGTX/contracts/Licencias.sol\":2455:2459  sing */\n      dup2\n        /* \"TokenSGTX/contracts/Licencias.sol\":2430:2460  _userSings[_holder].push(sing) */\n      swap1\n      dup1\n      0x01\n      dup2\n      sload\n      add\n      dup1\n      dup3\n      sstore\n      dup1\n      swap2\n      pop\n      pop\n      0x01\n      swap1\n      sub\n      swap1\n      0x00\n      mstore\n      keccak256(0x00, 0x20)\n      add\n      0x00\n      swap1\n      swap2\n      swap1\n      swap2\n      swap1\n      swap2\n      pop\n      sstore\n        /* \"TokenSGTX/contracts/Licencias.sol\":2320:2468  function _loadLicenseHashUserArray(... */\n      pop\n      pop\n      jump\t// out\n    tag_59:\n      mload(0x40)\n      dup1\n      0xc0\n      add\n      0x40\n      mstore\n      dup1\n      0x60\n      dup2\n      mstore\n      0x20\n      add\n      0x60\n      dup2\n      mstore\n      0x20\n      add\n      0x00\n      dup2\n      mstore\n      0x20\n      add\n      0x00\n      dup2\n      mstore\n      0x20\n      add\n      0x60\n      dup2\n      mstore\n      0x20\n      add\n      0x00\n      dup1\n      not\n      and\n      dup2\n      mstore\n      pop\n      swap1\n      jump\t// out\n        /* \"#utility.yul\":7:82   */\n    tag_159:\n        /* \"#utility.yul\":40:46   */\n      0x00\n        /* \"#utility.yul\":73:75   */\n      0x40\n        /* \"#utility.yul\":67:76   */\n      mload\n        /* \"#utility.yul\":57:76   */\n      swap1\n      pop\n        /* \"#utility.yul\":7:82   */\n      swap1\n      jump\t// out\n        /* \"#utility.yul\":88:205   */\n    tag_160:\n        /* \"#utility.yul\":197:198   */\n      0x00\n        /* \"#utility.yul\":194:195   */\n      dup1\n        /* \"#utility.yul\":187:199   */\n      revert\n        /* \"#utility.yul\":211:328   */\n    tag_161:\n        /* \"#utility.yul\":320:321   */\n      0x00\n        /* \"#utility.yul\":317:318   */\n      dup1\n        /* \"#utility.yul\":310:322   */\n      revert\n        /* \"#utility.yul\":334:460   */\n    tag_162:\n        /* \"#utility.yul\":371:378   */\n      0x00\n        /* \"#utility.yul\":411:453   */\n      0xffffffffffffffffffffffffffffffffffffffff\n        /* \"#utility.yul\":404:409   */\n      dup3\n        /* \"#utility.yul\":400:454   */\n      and\n        /* \"#utility.yul\":389:454   */\n      swap1\n      pop\n        /* \"#utility.yul\":334:460   */\n      swap2\n      swap1\n      pop\n      jump\t// out\n        /* \"#utility.yul\":466:562   */\n    tag_163:\n        /* \"#utility.yul\":503:510   */\n      0x00\n        /* \"#utility.yul\":532:556   */\n      tag_241\n        /* \"#utility.yul\":550:555   */\n      dup3\n        /* \"#utility.yul\":532:556   */\n      tag_162\n      jump\t// in\n    tag_241:\n        /* \"#utility.yul\":521:556   */\n      swap1\n      pop\n        /* \"#utility.yul\":466:562   */\n      swap2\n      swap1\n      pop\n      jump\t// out\n        /* \"#utility.yul\":568:690   */\n    tag_164:\n        /* \"#utility.yul\":641:665   */\n      tag_243\n        /* \"#utility.yul\":659:664   */\n      dup2\n        /* \"#utility.yul\":641:665   */\n      tag_163\n      jump\t// in\n    tag_243:\n        /* \"#utility.yul\":634:639   */\n      dup2\n        /* \"#utility.yul\":631:666   */\n      eq\n        /* \"#utility.yul\":621:684   */\n      tag_244\n      jumpi\n        /* \"#utility.yul\":680:681   */\n      0x00\n        /* \"#utility.yul\":677:678   */\n      dup1\n        /* \"#utility.yul\":670:682   */\n      revert\n        /* \"#utility.yul\":621:684   */\n    tag_244:\n        /* \"#utility.yul\":568:690   */\n      pop\n      jump\t// out\n        /* \"#utility.yul\":696:835   */\n    tag_165:\n        /* \"#utility.yul\":742:747   */\n      0x00\n        /* \"#utility.yul\":780:786   */\n      dup2\n        /* \"#utility.yul\":767:787   */\n      calldataload\n        /* \"#utility.yul\":758:787   */\n      swap1\n      pop\n        /* \"#utility.yul\":796:829   */\n      tag_246\n        /* \"#utility.yul\":823:828   */\n      dup2\n        /* \"#utility.yul\":796:829   */\n      tag_164\n      jump\t// in\n    tag_246:\n        /* \"#utility.yul\":696:835   */\n      swap3\n      swap2\n      pop\n      pop\n      jump\t// out\n        /* \"#utility.yul\":841:1170   */\n    tag_12:\n        /* \"#utility.yul\":900:906   */\n      0x00\n        /* \"#utility.yul\":949:951   */\n      0x20\n        /* \"#utility.yul\":937:946   */\n      dup3\n        /* \"#utility.yul\":928:935   */\n      dup5\n        /* \"#utility.yul\":924:947   */\n      sub\n        /* \"#utility.yul\":920:952   */\n      slt\n        /* \"#utility.yul\":917:1036   */\n      iszero\n      tag_248\n      jumpi\n        /* \"#utility.yul\":955:1034   */\n      tag_249\n      tag_160\n      jump\t// in\n    tag_249:\n        /* \"#utility.yul\":917:1036   */\n    tag_248:\n        /* \"#utility.yul\":1075:1076   */\n      0x00\n        /* \"#utility.yul\":1100:1153   */\n      tag_250\n        /* \"#utility.yul\":1145:1152   */\n      dup5\n        /* \"#utility.yul\":1136:1142   */\n      dup3\n        /* \"#utility.yul\":1125:1134   */\n      dup6\n        /* \"#utility.yul\":1121:1143   */\n      add\n        /* \"#utility.yul\":1100:1153   */\n      tag_165\n      jump\t// in\n    tag_250:\n        /* \"#utility.yul\":1090:1153   */\n      swap2\n      pop\n        /* \"#utility.yul\":1046:1163   */\n      pop\n        /* \"#utility.yul\":841:1170   */\n      swap3\n      swap2\n      pop\n      pop\n      jump\t// out\n        /* \"#utility.yul\":1176:1293   */\n    tag_166:\n        /* \"#utility.yul\":1285:1286   */\n      0x00\n        /* \"#utility.yul\":1282:1283   */\n      dup1\n        /* \"#utility.yul\":1275:1287   */\n      revert\n        /* \"#utility.yul\":1299:1416   */\n    tag_167:\n        /* \"#utility.yul\":1408:1409   */\n      0x00\n        /* \"#utility.yul\":1405:1406   */\n      dup1\n        /* \"#utility.yul\":1398:1410   */\n      revert\n        /* \"#utility.yul\":1422:1524   */\n    tag_168:\n        /* \"#utility.yul\":1463:1469   */\n      0x00\n        /* \"#utility.yul\":1514:1516   */\n      0x1f\n        /* \"#utility.yul\":1510:1517   */\n      not\n        /* \"#utility.yul\":1505:1507   */\n      0x1f\n        /* \"#utility.yul\":1498:1503   */\n      dup4\n        /* \"#utility.yul\":1494:1508   */\n      add\n        /* \"#utility.yul\":1490:1518   */\n      and\n        /* \"#utility.yul\":1480:1518   */\n      swap1\n      pop\n        /* \"#utility.yul\":1422:1524   */\n      swap2\n      swap1\n      pop\n      jump\t// out\n        /* \"#utility.yul\":1530:1710   */\n    tag_169:\n        /* \"#utility.yul\":1578:1655   */\n      0x4e487b7100000000000000000000000000000000000000000000000000000000\n        /* \"#utility.yul\":1575:1576   */\n      0x00\n        /* \"#utility.yul\":1568:1656   */\n      mstore\n        /* \"#utility.yul\":1675:1679   */\n      0x41\n        /* \"#utility.yul\":1672:1673   */\n      0x04\n        /* \"#utility.yul\":1665:1680   */\n      mstore\n        /* \"#utility.yul\":1699:1703   */\n      0x24\n        /* \"#utility.yul\":1696:1697   */\n      0x00\n        /* \"#utility.yul\":1689:1704   */\n      revert\n        /* \"#utility.yul\":1716:1997   */\n    tag_170:\n        /* \"#utility.yul\":1799:1826   */\n      tag_256\n        /* \"#utility.yul\":1821:1825   */\n      dup3\n        /* \"#utility.yul\":1799:1826   */\n      tag_168\n      jump\t// in\n    tag_256:\n        /* \"#utility.yul\":1791:1797   */\n      dup2\n        /* \"#utility.yul\":1787:1827   */\n      add\n        /* \"#utility.yul\":1929:1935   */\n      dup2\n        /* \"#utility.yul\":1917:1927   */\n      dup2\n        /* \"#utility.yul\":1914:1936   */\n      lt\n        /* \"#utility.yul\":1893:1911   */\n      0xffffffffffffffff\n        /* \"#utility.yul\":1881:1891   */\n      dup3\n        /* \"#utility.yul\":1878:1912   */\n      gt\n        /* \"#utility.yul\":1875:1937   */\n      or\n        /* \"#utility.yul\":1872:1960   */\n      iszero\n      tag_257\n      jumpi\n        /* \"#utility.yul\":1940:1958   */\n      tag_258\n      tag_169\n      jump\t// in\n    tag_258:\n        /* \"#utility.yul\":1872:1960   */\n    tag_257:\n        /* \"#utility.yul\":1980:1990   */\n      dup1\n        /* \"#utility.yul\":1976:1978   */\n      0x40\n        /* \"#utility.yul\":1969:1991   */\n      mstore\n        /* \"#utility.yul\":1759:1997   */\n      pop\n        /* \"#utility.yul\":1716:1997   */\n      pop\n      pop\n      jump\t// out\n        /* \"#utility.yul\":2003:2132   */\n    tag_171:\n        /* \"#utility.yul\":2037:2043   */\n      0x00\n        /* \"#utility.yul\":2064:2084   */\n      tag_260\n      tag_159\n      jump\t// in\n    tag_260:\n        /* \"#utility.yul\":2054:2084   */\n      swap1\n      pop\n        /* \"#utility.yul\":2093:2126   */\n      tag_261\n        /* \"#utility.yul\":2121:2125   */\n      dup3\n        /* \"#utility.yul\":2113:2119   */\n      dup3\n        /* \"#utility.yul\":2093:2126   */\n      tag_170\n      jump\t// in\n    tag_261:\n        /* \"#utility.yul\":2003:2132   */\n      swap2\n      swap1\n      pop\n      jump\t// out\n        /* \"#utility.yul\":2138:2446   */\n    tag_172:\n        /* \"#utility.yul\":2200:2204   */\n      0x00\n        /* \"#utility.yul\":2290:2308   */\n      0xffffffffffffffff\n        /* \"#utility.yul\":2282:2288   */\n      dup3\n        /* \"#utility.yul\":2279:2309   */\n      gt\n        /* \"#utility.yul\":2276:2332   */\n      iszero\n      tag_263\n      jumpi\n        /* \"#utility.yul\":2312:2330   */\n      tag_264\n      tag_169\n      jump\t// in\n    tag_264:\n        /* \"#utility.yul\":2276:2332   */\n    tag_263:\n        /* \"#utility.yul\":2350:2379   */\n      tag_265\n        /* \"#utility.yul\":2372:2378   */\n      dup3\n        /* \"#utility.yul\":2350:2379   */\n      tag_168\n      jump\t// in\n    tag_265:\n        /* \"#utility.yul\":2342:2379   */\n      swap1\n      pop\n        /* \"#utility.yul\":2434:2438   */\n      0x20\n        /* \"#utility.yul\":2428:2432   */\n      dup2\n        /* \"#utility.yul\":2424:2439   */\n      add\n        /* \"#utility.yul\":2416:2439   */\n      swap1\n      pop\n        /* \"#utility.yul\":2138:2446   */\n      swap2\n      swap1\n      pop\n      jump\t// out\n        /* \"#utility.yul\":2452:2598   */\n    tag_173:\n        /* \"#utility.yul\":2549:2555   */\n      dup3\n        /* \"#utility.yul\":2544:2547   */\n      dup2\n        /* \"#utility.yul\":2539:2542   */\n      dup4\n        /* \"#utility.yul\":2526:2556   */\n      calldatacopy\n        /* \"#utility.yul\":2590:2591   */\n      0x00\n        /* \"#utility.yul\":2581:2587   */\n      dup4\n        /* \"#utility.yul\":2576:2579   */\n      dup4\n        /* \"#utility.yul\":2572:2588   */\n      add\n        /* \"#utility.yul\":2565:2592   */\n      mstore\n        /* \"#utility.yul\":2452:2598   */\n      pop\n      pop\n      pop\n      jump\t// out\n        /* \"#utility.yul\":2604:3029   */\n    tag_174:\n        /* \"#utility.yul\":2682:2687   */\n      0x00\n        /* \"#utility.yul\":2707:2773   */\n      tag_268\n        /* \"#utility.yul\":2723:2772   */\n      tag_269\n        /* \"#utility.yul\":2765:2771   */\n      dup5\n        /* \"#utility.yul\":2723:2772   */\n      tag_172\n      jump\t// in\n    tag_269:\n        /* \"#utility.yul\":2707:2773   */\n      tag_171\n      jump\t// in\n    tag_268:\n        /* \"#utility.yul\":2698:2773   */\n      swap1\n      pop\n        /* \"#utility.yul\":2796:2802   */\n      dup3\n        /* \"#utility.yul\":2789:2794   */\n      dup2\n        /* \"#utility.yul\":2782:2803   */\n      mstore\n        /* \"#utility.yul\":2834:2838   */\n      0x20\n        /* \"#utility.yul\":2827:2832   */\n      dup2\n        /* \"#utility.yul\":2823:2839   */\n      add\n        /* \"#utility.yul\":2872:2875   */\n      dup5\n        /* \"#utility.yul\":2863:2869   */\n      dup5\n        /* \"#utility.yul\":2858:2861   */\n      dup5\n        /* \"#utility.yul\":2854:2870   */\n      add\n        /* \"#utility.yul\":2851:2876   */\n      gt\n        /* \"#utility.yul\":2848:2960   */\n      iszero\n      tag_270\n      jumpi\n        /* \"#utility.yul\":2879:2958   */\n      tag_271\n      tag_167\n      jump\t// in\n    tag_271:\n        /* \"#utility.yul\":2848:2960   */\n    tag_270:\n        /* \"#utility.yul\":2969:3023   */\n      tag_272\n        /* \"#utility.yul\":3016:3022   */\n      dup5\n        /* \"#utility.yul\":3011:3014   */\n      dup3\n        /* \"#utility.yul\":3006:3009   */\n      dup6\n        /* \"#utility.yul\":2969:3023   */\n      tag_173\n      jump\t// in\n    tag_272:\n        /* \"#utility.yul\":2688:3029   */\n      pop\n        /* \"#utility.yul\":2604:3029   */\n      swap4\n      swap3\n      pop\n      pop\n      pop\n      jump\t// out\n        /* \"#utility.yul\":3049:3389   */\n    tag_175:\n        /* \"#utility.yul\":3105:3110   */\n      0x00\n        /* \"#utility.yul\":3154:3157   */\n      dup3\n        /* \"#utility.yul\":3147:3151   */\n      0x1f\n        /* \"#utility.yul\":3139:3145   */\n      dup4\n        /* \"#utility.yul\":3135:3152   */\n      add\n        /* \"#utility.yul\":3131:3158   */\n      slt\n        /* \"#utility.yul\":3121:3243   */\n      tag_274\n      jumpi\n        /* \"#utility.yul\":3162:3241   */\n      tag_275\n      tag_166\n      jump\t// in\n    tag_275:\n        /* \"#utility.yul\":3121:3243   */\n    tag_274:\n        /* \"#utility.yul\":3279:3285   */\n      dup2\n        /* \"#utility.yul\":3266:3286   */\n      calldataload\n        /* \"#utility.yul\":3304:3383   */\n      tag_276\n        /* \"#utility.yul\":3379:3382   */\n      dup5\n        /* \"#utility.yul\":3371:3377   */\n      dup3\n        /* \"#utility.yul\":3364:3368   */\n      0x20\n        /* \"#utility.yul\":3356:3362   */\n      dup7\n        /* \"#utility.yul\":3352:3369   */\n      add\n        /* \"#utility.yul\":3304:3383   */\n      tag_174\n      jump\t// in\n    tag_276:\n        /* \"#utility.yul\":3295:3383   */\n      swap2\n      pop\n        /* \"#utility.yul\":3111:3389   */\n      pop\n        /* \"#utility.yul\":3049:3389   */\n      swap3\n      swap2\n      pop\n      pop\n      jump\t// out\n        /* \"#utility.yul\":3395:4049   */\n    tag_17:\n        /* \"#utility.yul\":3473:3479   */\n      0x00\n        /* \"#utility.yul\":3481:3487   */\n      dup1\n        /* \"#utility.yul\":3530:3532   */\n      0x40\n        /* \"#utility.yul\":3518:3527   */\n      dup4\n        /* \"#utility.yul\":3509:3516   */\n      dup6\n        /* \"#utility.yul\":3505:3528   */\n      sub\n        /* \"#utility.yul\":3501:3533   */\n      slt\n        /* \"#utility.yul\":3498:3617   */\n      iszero\n      tag_278\n      jumpi\n        /* \"#utility.yul\":3536:3615   */\n      tag_279\n      tag_160\n      jump\t// in\n    tag_279:\n        /* \"#utility.yul\":3498:3617   */\n    tag_278:\n        /* \"#utility.yul\":3656:3657   */\n      0x00\n        /* \"#utility.yul\":3681:3734   */\n      tag_280\n        /* \"#utility.yul\":3726:3733   */\n      dup6\n        /* \"#utility.yul\":3717:3723   */\n      dup3\n        /* \"#utility.yul\":3706:3715   */\n      dup7\n        /* \"#utility.yul\":3702:3724   */\n      add\n        /* \"#utility.yul\":3681:3734   */\n      tag_165\n      jump\t// in\n    tag_280:\n        /* \"#utility.yul\":3671:3734   */\n      swap3\n      pop\n        /* \"#utility.yul\":3627:3744   */\n      pop\n        /* \"#utility.yul\":3811:3813   */\n      0x20\n        /* \"#utility.yul\":3800:3809   */\n      dup4\n        /* \"#utility.yul\":3796:3814   */\n      add\n        /* \"#utility.yul\":3783:3815   */\n      calldataload\n        /* \"#utility.yul\":3842:3860   */\n      0xffffffffffffffff\n        /* \"#utility.yul\":3834:3840   */\n      dup2\n        /* \"#utility.yul\":3831:3861   */\n      gt\n        /* \"#utility.yul\":3828:3945   */\n      iszero\n      tag_281\n      jumpi\n        /* \"#utility.yul\":3864:3943   */\n      tag_282\n      tag_161\n      jump\t// in\n    tag_282:\n        /* \"#utility.yul\":3828:3945   */\n    tag_281:\n        /* \"#utility.yul\":3969:4032   */\n      tag_283\n        /* \"#utility.yul\":4024:4031   */\n      dup6\n        /* \"#utility.yul\":4015:4021   */\n      dup3\n        /* \"#utility.yul\":4004:4013   */\n      dup7\n        /* \"#utility.yul\":4000:4022   */\n      add\n        /* \"#utility.yul\":3969:4032   */\n      tag_175\n      jump\t// in\n    tag_283:\n        /* \"#utility.yul\":3959:4032   */\n      swap2\n      pop\n        /* \"#utility.yul\":3754:4042   */\n      pop\n        /* \"#utility.yul\":3395:4049   */\n      swap3\n      pop\n      swap3\n      swap1\n      pop\n      jump\t// out\n        /* \"#utility.yul\":4055:4154   */\n    tag_176:\n        /* \"#utility.yul\":4107:4113   */\n      0x00\n        /* \"#utility.yul\":4141:4146   */\n      dup2\n        /* \"#utility.yul\":4135:4147   */\n      mload\n        /* \"#utility.yul\":4125:4147   */\n      swap1\n      pop\n        /* \"#utility.yul\":4055:4154   */\n      swap2\n      swap1\n      pop\n      jump\t// out\n        /* \"#utility.yul\":4160:4319   */\n    tag_177:\n        /* \"#utility.yul\":4234:4245   */\n      0x00\n        /* \"#utility.yul\":4268:4274   */\n      dup3\n        /* \"#utility.yul\":4263:4266   */\n      dup3\n        /* \"#utility.yul\":4256:4275   */\n      mstore\n        /* \"#utility.yul\":4308:4312   */\n      0x20\n        /* \"#utility.yul\":4303:4306   */\n      dup3\n        /* \"#utility.yul\":4299:4313   */\n      add\n        /* \"#utility.yul\":4284:4313   */\n      swap1\n      pop\n        /* \"#utility.yul\":4160:4319   */\n      swap3\n      swap2\n      pop\n      pop\n      jump\t// out\n        /* \"#utility.yul\":4325:4571   */\n    tag_178:\n        /* \"#utility.yul\":4406:4407   */\n      0x00\n        /* \"#utility.yul\":4416:4529   */\n    tag_287:\n        /* \"#utility.yul\":4430:4436   */\n      dup4\n        /* \"#utility.yul\":4427:4428   */\n      dup2\n        /* \"#utility.yul\":4424:4437   */\n      lt\n        /* \"#utility.yul\":4416:4529   */\n      iszero\n      tag_289\n      jumpi\n        /* \"#utility.yul\":4515:4516   */\n      dup1\n        /* \"#utility.yul\":4510:4513   */\n      dup3\n        /* \"#utility.yul\":4506:4517   */\n      add\n        /* \"#utility.yul\":4500:4518   */\n      mload\n        /* \"#utility.yul\":4496:4497   */\n      dup2\n        /* \"#utility.yul\":4491:4494   */\n      dup5\n        /* \"#utility.yul\":4487:4498   */\n      add\n        /* \"#utility.yul\":4480:4519   */\n      mstore\n        /* \"#utility.yul\":4452:4454   */\n      0x20\n        /* \"#utility.yul\":4449:4450   */\n      dup2\n        /* \"#utility.yul\":4445:4455   */\n      add\n        /* \"#utility.yul\":4440:4455   */\n      swap1\n      pop\n        /* \"#utility.yul\":4416:4529   */\n      jump(tag_287)\n    tag_289:\n        /* \"#utility.yul\":4563:4564   */\n      0x00\n        /* \"#utility.yul\":4554:4560   */\n      dup5\n        /* \"#utility.yul\":4549:4552   */\n      dup5\n        /* \"#utility.yul\":4545:4561   */\n      add\n        /* \"#utility.yul\":4538:4565   */\n      mstore\n        /* \"#utility.yul\":4387:4571   */\n      pop\n        /* \"#utility.yul\":4325:4571   */\n      pop\n      pop\n      pop\n      jump\t// out\n        /* \"#utility.yul\":4577:4934   */\n    tag_179:\n        /* \"#utility.yul\":4655:4658   */\n      0x00\n        /* \"#utility.yul\":4683:4722   */\n      tag_291\n        /* \"#utility.yul\":4716:4721   */\n      dup3\n        /* \"#utility.yul\":4683:4722   */\n      tag_176\n      jump\t// in\n    tag_291:\n        /* \"#utility.yul\":4738:4799   */\n      tag_292\n        /* \"#utility.yul\":4792:4798   */\n      dup2\n        /* \"#utility.yul\":4787:4790   */\n      dup6\n        /* \"#utility.yul\":4738:4799   */\n      tag_177\n      jump\t// in\n    tag_292:\n        /* \"#utility.yul\":4731:4799   */\n      swap4\n      pop\n        /* \"#utility.yul\":4808:4873   */\n      tag_293\n        /* \"#utility.yul\":4866:4872   */\n      dup2\n        /* \"#utility.yul\":4861:4864   */\n      dup6\n        /* \"#utility.yul\":4854:4858   */\n      0x20\n        /* \"#utility.yul\":4847:4852   */\n      dup7\n        /* \"#utility.yul\":4843:4859   */\n      add\n        /* \"#utility.yul\":4808:4873   */\n      tag_178\n      jump\t// in\n    tag_293:\n        /* \"#utility.yul\":4898:4927   */\n      tag_294\n        /* \"#utility.yul\":4920:4926   */\n      dup2\n        /* \"#utility.yul\":4898:4927   */\n      tag_168\n      jump\t// in\n    tag_294:\n        /* \"#utility.yul\":4893:4896   */\n      dup5\n        /* \"#utility.yul\":4889:4928   */\n      add\n        /* \"#utility.yul\":4882:4928   */\n      swap2\n      pop\n        /* \"#utility.yul\":4659:4934   */\n      pop\n        /* \"#utility.yul\":4577:4934   */\n      swap3\n      swap2\n      pop\n      pop\n      jump\t// out\n        /* \"#utility.yul\":4940:5017   */\n    tag_180:\n        /* \"#utility.yul\":4977:4984   */\n      0x00\n        /* \"#utility.yul\":5006:5011   */\n      dup2\n        /* \"#utility.yul\":4995:5011   */\n      swap1\n      pop\n        /* \"#utility.yul\":4940:5017   */\n      swap2\n      swap1\n      pop\n      jump\t// out\n        /* \"#utility.yul\":5023:5131   */\n    tag_181:\n        /* \"#utility.yul\":5100:5124   */\n      tag_297\n        /* \"#utility.yul\":5118:5123   */\n      dup2\n        /* \"#utility.yul\":5100:5124   */\n      tag_180\n      jump\t// in\n    tag_297:\n        /* \"#utility.yul\":5095:5098   */\n      dup3\n        /* \"#utility.yul\":5088:5125   */\n      mstore\n        /* \"#utility.yul\":5023:5131   */\n      pop\n      pop\n      jump\t// out\n        /* \"#utility.yul\":5137:5214   */\n    tag_182:\n        /* \"#utility.yul\":5174:5181   */\n      0x00\n        /* \"#utility.yul\":5203:5208   */\n      dup2\n        /* \"#utility.yul\":5192:5208   */\n      swap1\n      pop\n        /* \"#utility.yul\":5137:5214   */\n      swap2\n      swap1\n      pop\n      jump\t// out\n        /* \"#utility.yul\":5220:5328   */\n    tag_183:\n        /* \"#utility.yul\":5297:5321   */\n      tag_300\n        /* \"#utility.yul\":5315:5320   */\n      dup2\n        /* \"#utility.yul\":5297:5321   */\n      tag_182\n      jump\t// in\n    tag_300:\n        /* \"#utility.yul\":5292:5295   */\n      dup3\n        /* \"#utility.yul\":5285:5322   */\n      mstore\n        /* \"#utility.yul\":5220:5328   */\n      pop\n      pop\n      jump\t// out\n        /* \"#utility.yul\":5408:6878   */\n    tag_184:\n        /* \"#utility.yul\":5537:5540   */\n      0x00\n        /* \"#utility.yul\":5573:5577   */\n      0xc0\n        /* \"#utility.yul\":5568:5571   */\n      dup4\n        /* \"#utility.yul\":5564:5578   */\n      add\n        /* \"#utility.yul\":5664:5668   */\n      0x00\n        /* \"#utility.yul\":5657:5662   */\n      dup4\n        /* \"#utility.yul\":5653:5669   */\n      add\n        /* \"#utility.yul\":5647:5670   */\n      mload\n        /* \"#utility.yul\":5717:5720   */\n      dup5\n        /* \"#utility.yul\":5711:5715   */\n      dup3\n        /* \"#utility.yul\":5707:5721   */\n      sub\n        /* \"#utility.yul\":5700:5704   */\n      0x00\n        /* \"#utility.yul\":5695:5698   */\n      dup7\n        /* \"#utility.yul\":5691:5705   */\n      add\n        /* \"#utility.yul\":5684:5722   */\n      mstore\n        /* \"#utility.yul\":5743:5816   */\n      tag_302\n        /* \"#utility.yul\":5811:5815   */\n      dup3\n        /* \"#utility.yul\":5797:5809   */\n      dup3\n        /* \"#utility.yul\":5743:5816   */\n      tag_179\n      jump\t// in\n    tag_302:\n        /* \"#utility.yul\":5735:5816   */\n      swap2\n      pop\n        /* \"#utility.yul\":5588:5827   */\n      pop\n        /* \"#utility.yul\":5908:5912   */\n      0x20\n        /* \"#utility.yul\":5901:5906   */\n      dup4\n        /* \"#utility.yul\":5897:5913   */\n      add\n        /* \"#utility.yul\":5891:5914   */\n      mload\n        /* \"#utility.yul\":5961:5964   */\n      dup5\n        /* \"#utility.yul\":5955:5959   */\n      dup3\n        /* \"#utility.yul\":5951:5965   */\n      sub\n        /* \"#utility.yul\":5944:5948   */\n      0x20\n        /* \"#utility.yul\":5939:5942   */\n      dup7\n        /* \"#utility.yul\":5935:5949   */\n      add\n        /* \"#utility.yul\":5928:5966   */\n      mstore\n        /* \"#utility.yul\":5987:6060   */\n      tag_303\n        /* \"#utility.yul\":6055:6059   */\n      dup3\n        /* \"#utility.yul\":6041:6053   */\n      dup3\n        /* \"#utility.yul\":5987:6060   */\n      tag_179\n      jump\t// in\n    tag_303:\n        /* \"#utility.yul\":5979:6060   */\n      swap2\n      pop\n        /* \"#utility.yul\":5837:6071   */\n      pop\n        /* \"#utility.yul\":6157:6161   */\n      0x40\n        /* \"#utility.yul\":6150:6155   */\n      dup4\n        /* \"#utility.yul\":6146:6162   */\n      add\n        /* \"#utility.yul\":6140:6163   */\n      mload\n        /* \"#utility.yul\":6176:6239   */\n      tag_304\n        /* \"#utility.yul\":6233:6237   */\n      0x40\n        /* \"#utility.yul\":6228:6231   */\n      dup7\n        /* \"#utility.yul\":6224:6238   */\n      add\n        /* \"#utility.yul\":6210:6222   */\n      dup3\n        /* \"#utility.yul\":6176:6239   */\n      tag_181\n      jump\t// in\n    tag_304:\n        /* \"#utility.yul\":6081:6249   */\n      pop\n        /* \"#utility.yul\":6334:6338   */\n      0x60\n        /* \"#utility.yul\":6327:6332   */\n      dup4\n        /* \"#utility.yul\":6323:6339   */\n      add\n        /* \"#utility.yul\":6317:6340   */\n      mload\n        /* \"#utility.yul\":6353:6416   */\n      tag_305\n        /* \"#utility.yul\":6410:6414   */\n      0x60\n        /* \"#utility.yul\":6405:6408   */\n      dup7\n        /* \"#utility.yul\":6401:6415   */\n      add\n        /* \"#utility.yul\":6387:6399   */\n      dup3\n        /* \"#utility.yul\":6353:6416   */\n      tag_181\n      jump\t// in\n    tag_305:\n        /* \"#utility.yul\":6259:6426   */\n      pop\n        /* \"#utility.yul\":6513:6517   */\n      0x80\n        /* \"#utility.yul\":6506:6511   */\n      dup4\n        /* \"#utility.yul\":6502:6518   */\n      add\n        /* \"#utility.yul\":6496:6519   */\n      mload\n        /* \"#utility.yul\":6566:6569   */\n      dup5\n        /* \"#utility.yul\":6560:6564   */\n      dup3\n        /* \"#utility.yul\":6556:6570   */\n      sub\n        /* \"#utility.yul\":6549:6553   */\n      0x80\n        /* \"#utility.yul\":6544:6547   */\n      dup7\n        /* \"#utility.yul\":6540:6554   */\n      add\n        /* \"#utility.yul\":6533:6571   */\n      mstore\n        /* \"#utility.yul\":6592:6665   */\n      tag_306\n        /* \"#utility.yul\":6660:6664   */\n      dup3\n        /* \"#utility.yul\":6646:6658   */\n      dup3\n        /* \"#utility.yul\":6592:6665   */\n      tag_179\n      jump\t// in\n    tag_306:\n        /* \"#utility.yul\":6584:6665   */\n      swap2\n      pop\n        /* \"#utility.yul\":6436:6676   */\n      pop\n        /* \"#utility.yul\":6759:6763   */\n      0xa0\n        /* \"#utility.yul\":6752:6757   */\n      dup4\n        /* \"#utility.yul\":6748:6764   */\n      add\n        /* \"#utility.yul\":6742:6765   */\n      mload\n        /* \"#utility.yul\":6778:6841   */\n      tag_307\n        /* \"#utility.yul\":6835:6839   */\n      0xa0\n        /* \"#utility.yul\":6830:6833   */\n      dup7\n        /* \"#utility.yul\":6826:6840   */\n      add\n        /* \"#utility.yul\":6812:6824   */\n      dup3\n        /* \"#utility.yul\":6778:6841   */\n      tag_183\n      jump\t// in\n    tag_307:\n        /* \"#utility.yul\":6686:6851   */\n      pop\n        /* \"#utility.yul\":6868:6872   */\n      dup1\n        /* \"#utility.yul\":6861:6872   */\n      swap2\n      pop\n        /* \"#utility.yul\":5542:6878   */\n      pop\n        /* \"#utility.yul\":5408:6878   */\n      swap3\n      swap2\n      pop\n      pop\n      jump\t// out\n        /* \"#utility.yul\":6884:7277   */\n    tag_20:\n        /* \"#utility.yul\":7037:7041   */\n      0x00\n        /* \"#utility.yul\":7075:7077   */\n      0x20\n        /* \"#utility.yul\":7064:7073   */\n      dup3\n        /* \"#utility.yul\":7060:7078   */\n      add\n        /* \"#utility.yul\":7052:7078   */\n      swap1\n      pop\n        /* \"#utility.yul\":7124:7133   */\n      dup2\n        /* \"#utility.yul\":7118:7122   */\n      dup2\n        /* \"#utility.yul\":7114:7134   */\n      sub\n        /* \"#utility.yul\":7110:7111   */\n      0x00\n        /* \"#utility.yul\":7099:7108   */\n      dup4\n        /* \"#utility.yul\":7095:7112   */\n      add\n        /* \"#utility.yul\":7088:7135   */\n      mstore\n        /* \"#utility.yul\":7152:7270   */\n      tag_309\n        /* \"#utility.yul\":7265:7269   */\n      dup2\n        /* \"#utility.yul\":7256:7262   */\n      dup5\n        /* \"#utility.yul\":7152:7270   */\n      tag_184\n      jump\t// in\n    tag_309:\n        /* \"#utility.yul\":7144:7270   */\n      swap1\n      pop\n        /* \"#utility.yul\":6884:7277   */\n      swap3\n      swap2\n      pop\n      pop\n      jump\t// out\n        /* \"#utility.yul\":7283:7792   */\n    tag_24:\n        /* \"#utility.yul\":7352:7358   */\n      0x00\n        /* \"#utility.yul\":7401:7403   */\n      0x20\n        /* \"#utility.yul\":7389:7398   */\n      dup3\n        /* \"#utility.yul\":7380:7387   */\n      dup5\n        /* \"#utility.yul\":7376:7399   */\n      sub\n        /* \"#utility.yul\":7372:7404   */\n      slt\n        /* \"#utility.yul\":7369:7488   */\n      iszero\n      tag_311\n      jumpi\n        /* \"#utility.yul\":7407:7486   */\n      tag_312\n      tag_160\n      jump\t// in\n    tag_312:\n        /* \"#utility.yul\":7369:7488   */\n    tag_311:\n        /* \"#utility.yul\":7555:7556   */\n      0x00\n        /* \"#utility.yul\":7544:7553   */\n      dup3\n        /* \"#utility.yul\":7540:7557   */\n      add\n        /* \"#utility.yul\":7527:7558   */\n      calldataload\n        /* \"#utility.yul\":7585:7603   */\n      0xffffffffffffffff\n        /* \"#utility.yul\":7577:7583   */\n      dup2\n        /* \"#utility.yul\":7574:7604   */\n      gt\n        /* \"#utility.yul\":7571:7688   */\n      iszero\n      tag_313\n      jumpi\n        /* \"#utility.yul\":7607:7686   */\n      tag_314\n      tag_161\n      jump\t// in\n    tag_314:\n        /* \"#utility.yul\":7571:7688   */\n    tag_313:\n        /* \"#utility.yul\":7712:7775   */\n      tag_315\n        /* \"#utility.yul\":7767:7774   */\n      dup5\n        /* \"#utility.yul\":7758:7764   */\n      dup3\n        /* \"#utility.yul\":7747:7756   */\n      dup6\n        /* \"#utility.yul\":7743:7765   */\n      add\n        /* \"#utility.yul\":7712:7775   */\n      tag_175\n      jump\t// in\n    tag_315:\n        /* \"#utility.yul\":7702:7775   */\n      swap2\n      pop\n        /* \"#utility.yul\":7498:7785   */\n      pop\n        /* \"#utility.yul\":7283:7792   */\n      swap3\n      swap2\n      pop\n      pop\n      jump\t// out\n        /* \"#utility.yul\":7798:7916   */\n    tag_185:\n        /* \"#utility.yul\":7885:7909   */\n      tag_317\n        /* \"#utility.yul\":7903:7908   */\n      dup2\n        /* \"#utility.yul\":7885:7909   */\n      tag_163\n      jump\t// in\n    tag_317:\n        /* \"#utility.yul\":7880:7883   */\n      dup3\n        /* \"#utility.yul\":7873:7910   */\n      mstore\n        /* \"#utility.yul\":7798:7916   */\n      pop\n      pop\n      jump\t// out\n        /* \"#utility.yul\":7922:8144   */\n    tag_27:\n        /* \"#utility.yul\":8015:8019   */\n      0x00\n        /* \"#utility.yul\":8053:8055   */\n      0x20\n        /* \"#utility.yul\":8042:8051   */\n      dup3\n        /* \"#utility.yul\":8038:8056   */\n      add\n        /* \"#utility.yul\":8030:8056   */\n      swap1\n      pop\n        /* \"#utility.yul\":8066:8137   */\n      tag_319\n        /* \"#utility.yul\":8134:8135   */\n      0x00\n        /* \"#utility.yul\":8123:8132   */\n      dup4\n        /* \"#utility.yul\":8119:8136   */\n      add\n        /* \"#utility.yul\":8110:8116   */\n      dup5\n        /* \"#utility.yul\":8066:8137   */\n      tag_185\n      jump\t// in\n    tag_319:\n        /* \"#utility.yul\":7922:8144   */\n      swap3\n      swap2\n      pop\n      pop\n      jump\t// out\n        /* \"#utility.yul\":8150:8272   */\n    tag_186:\n        /* \"#utility.yul\":8223:8247   */\n      tag_321\n        /* \"#utility.yul\":8241:8246   */\n      dup2\n        /* \"#utility.yul\":8223:8247   */\n      tag_182\n      jump\t// in\n    tag_321:\n        /* \"#utility.yul\":8216:8221   */\n      dup2\n        /* \"#utility.yul\":8213:8248   */\n      eq\n        /* \"#utility.yul\":8203:8266   */\n      tag_322\n      jumpi\n        /* \"#utility.yul\":8262:8263   */\n      0x00\n        /* \"#utility.yul\":8259:8260   */\n      dup1\n        /* \"#utility.yul\":8252:8264   */\n      revert\n        /* \"#utility.yul\":8203:8266   */\n    tag_322:\n        /* \"#utility.yul\":8150:8272   */\n      pop\n      jump\t// out\n        /* \"#utility.yul\":8278:8417   */\n    tag_187:\n        /* \"#utility.yul\":8324:8329   */\n      0x00\n        /* \"#utility.yul\":8362:8368   */\n      dup2\n        /* \"#utility.yul\":8349:8369   */\n      calldataload\n        /* \"#utility.yul\":8340:8369   */\n      swap1\n      pop\n        /* \"#utility.yul\":8378:8411   */\n      tag_324\n        /* \"#utility.yul\":8405:8410   */\n      dup2\n        /* \"#utility.yul\":8378:8411   */\n      tag_186\n      jump\t// in\n    tag_324:\n        /* \"#utility.yul\":8278:8417   */\n      swap3\n      swap2\n      pop\n      pop\n      jump\t// out\n        /* \"#utility.yul\":8423:8897   */\n    tag_31:\n        /* \"#utility.yul\":8491:8497   */\n      0x00\n        /* \"#utility.yul\":8499:8505   */\n      dup1\n        /* \"#utility.yul\":8548:8550   */\n      0x40\n        /* \"#utility.yul\":8536:8545   */\n      dup4\n        /* \"#utility.yul\":8527:8534   */\n      dup6\n        /* \"#utility.yul\":8523:8546   */\n      sub\n        /* \"#utility.yul\":8519:8551   */\n      slt\n        /* \"#utility.yul\":8516:8635   */\n      iszero\n      tag_326\n      jumpi\n        /* \"#utility.yul\":8554:8633   */\n      tag_327\n      tag_160\n      jump\t// in\n    tag_327:\n        /* \"#utility.yul\":8516:8635   */\n    tag_326:\n        /* \"#utility.yul\":8674:8675   */\n      0x00\n        /* \"#utility.yul\":8699:8752   */\n      tag_328\n        /* \"#utility.yul\":8744:8751   */\n      dup6\n        /* \"#utility.yul\":8735:8741   */\n      dup3\n        /* \"#utility.yul\":8724:8733   */\n      dup7\n        /* \"#utility.yul\":8720:8742   */\n      add\n        /* \"#utility.yul\":8699:8752   */\n      tag_165\n      jump\t// in\n    tag_328:\n        /* \"#utility.yul\":8689:8752   */\n      swap3\n      pop\n        /* \"#utility.yul\":8645:8762   */\n      pop\n        /* \"#utility.yul\":8801:8803   */\n      0x20\n        /* \"#utility.yul\":8827:8880   */\n      tag_329\n        /* \"#utility.yul\":8872:8879   */\n      dup6\n        /* \"#utility.yul\":8863:8869   */\n      dup3\n        /* \"#utility.yul\":8852:8861   */\n      dup7\n        /* \"#utility.yul\":8848:8870   */\n      add\n        /* \"#utility.yul\":8827:8880   */\n      tag_187\n      jump\t// in\n    tag_329:\n        /* \"#utility.yul\":8817:8880   */\n      swap2\n      pop\n        /* \"#utility.yul\":8772:8890   */\n      pop\n        /* \"#utility.yul\":8423:8897   */\n      swap3\n      pop\n      swap3\n      swap1\n      pop\n      jump\t// out\n        /* \"#utility.yul\":8903:8993   */\n    tag_188:\n        /* \"#utility.yul\":8937:8944   */\n      0x00\n        /* \"#utility.yul\":8980:8985   */\n      dup2\n        /* \"#utility.yul\":8973:8986   */\n      iszero\n        /* \"#utility.yul\":8966:8987   */\n      iszero\n        /* \"#utility.yul\":8955:8987   */\n      swap1\n      pop\n        /* \"#utility.yul\":8903:8993   */\n      swap2\n      swap1\n      pop\n      jump\t// out\n        /* \"#utility.yul\":8999:9108   */\n    tag_189:\n        /* \"#utility.yul\":9080:9101   */\n      tag_332\n        /* \"#utility.yul\":9095:9100   */\n      dup2\n        /* \"#utility.yul\":9080:9101   */\n      tag_188\n      jump\t// in\n    tag_332:\n        /* \"#utility.yul\":9075:9078   */\n      dup3\n        /* \"#utility.yul\":9068:9102   */\n      mstore\n        /* \"#utility.yul\":8999:9108   */\n      pop\n      pop\n      jump\t// out\n        /* \"#utility.yul\":9114:9324   */\n    tag_34:\n        /* \"#utility.yul\":9201:9205   */\n      0x00\n        /* \"#utility.yul\":9239:9241   */\n      0x20\n        /* \"#utility.yul\":9228:9237   */\n      dup3\n        /* \"#utility.yul\":9224:9242   */\n      add\n        /* \"#utility.yul\":9216:9242   */\n      swap1\n      pop\n        /* \"#utility.yul\":9252:9317   */\n      tag_334\n        /* \"#utility.yul\":9314:9315   */\n      0x00\n        /* \"#utility.yul\":9303:9312   */\n      dup4\n        /* \"#utility.yul\":9299:9316   */\n      add\n        /* \"#utility.yul\":9290:9296   */\n      dup5\n        /* \"#utility.yul\":9252:9317   */\n      tag_189\n      jump\t// in\n    tag_334:\n        /* \"#utility.yul\":9114:9324   */\n      swap3\n      swap2\n      pop\n      pop\n      jump\t// out\n        /* \"#utility.yul\":9330:9984   */\n    tag_38:\n        /* \"#utility.yul\":9408:9414   */\n      0x00\n        /* \"#utility.yul\":9416:9422   */\n      dup1\n        /* \"#utility.yul\":9465:9467   */\n      0x40\n        /* \"#utility.yul\":9453:9462   */\n      dup4\n        /* \"#utility.yul\":9444:9451   */\n      dup6\n        /* \"#utility.yul\":9440:9463   */\n      sub\n        /* \"#utility.yul\":9436:9468   */\n      slt\n        /* \"#utility.yul\":9433:9552   */\n      iszero\n      tag_336\n      jumpi\n        /* \"#utility.yul\":9471:9550   */\n      tag_337\n      tag_160\n      jump\t// in\n    tag_337:\n        /* \"#utility.yul\":9433:9552   */\n    tag_336:\n        /* \"#utility.yul\":9619:9620   */\n      0x00\n        /* \"#utility.yul\":9608:9617   */\n      dup4\n        /* \"#utility.yul\":9604:9621   */\n      add\n        /* \"#utility.yul\":9591:9622   */\n      calldataload\n        /* \"#utility.yul\":9649:9667   */\n      0xffffffffffffffff\n        /* \"#utility.yul\":9641:9647   */\n      dup2\n        /* \"#utility.yul\":9638:9668   */\n      gt\n        /* \"#utility.yul\":9635:9752   */\n      iszero\n      tag_338\n      jumpi\n        /* \"#utility.yul\":9671:9750   */\n      tag_339\n      tag_161\n      jump\t// in\n    tag_339:\n        /* \"#utility.yul\":9635:9752   */\n    tag_338:\n        /* \"#utility.yul\":9776:9839   */\n      tag_340\n        /* \"#utility.yul\":9831:9838   */\n      dup6\n        /* \"#utility.yul\":9822:9828   */\n      dup3\n        /* \"#utility.yul\":9811:9820   */\n      dup7\n        /* \"#utility.yul\":9807:9829   */\n      add\n        /* \"#utility.yul\":9776:9839   */\n      tag_175\n      jump\t// in\n    tag_340:\n        /* \"#utility.yul\":9766:9839   */\n      swap3\n      pop\n        /* \"#utility.yul\":9562:9849   */\n      pop\n        /* \"#utility.yul\":9888:9890   */\n      0x20\n        /* \"#utility.yul\":9914:9967   */\n      tag_341\n        /* \"#utility.yul\":9959:9966   */\n      dup6\n        /* \"#utility.yul\":9950:9956   */\n      dup3\n        /* \"#utility.yul\":9939:9948   */\n      dup7\n        /* \"#utility.yul\":9935:9957   */\n      add\n        /* \"#utility.yul\":9914:9967   */\n      tag_165\n      jump\t// in\n    tag_341:\n        /* \"#utility.yul\":9904:9967   */\n      swap2\n      pop\n        /* \"#utility.yul\":9859:9977   */\n      pop\n        /* \"#utility.yul\":9330:9984   */\n      swap3\n      pop\n      swap3\n      swap1\n      pop\n      jump\t// out\n        /* \"#utility.yul\":9990:10114   */\n    tag_190:\n        /* \"#utility.yul\":10067:10073   */\n      0x00\n        /* \"#utility.yul\":10101:10106   */\n      dup2\n        /* \"#utility.yul\":10095:10107   */\n      mload\n        /* \"#utility.yul\":10085:10107   */\n      swap1\n      pop\n        /* \"#utility.yul\":9990:10114   */\n      swap2\n      swap1\n      pop\n      jump\t// out\n        /* \"#utility.yul\":10120:10314   */\n    tag_191:\n        /* \"#utility.yul\":10229:10240   */\n      0x00\n        /* \"#utility.yul\":10263:10269   */\n      dup3\n        /* \"#utility.yul\":10258:10261   */\n      dup3\n        /* \"#utility.yul\":10251:10270   */\n      mstore\n        /* \"#utility.yul\":10303:10307   */\n      0x20\n        /* \"#utility.yul\":10298:10301   */\n      dup3\n        /* \"#utility.yul\":10294:10308   */\n      add\n        /* \"#utility.yul\":10279:10308   */\n      swap1\n      pop\n        /* \"#utility.yul\":10120:10314   */\n      swap3\n      swap2\n      pop\n      pop\n      jump\t// out\n        /* \"#utility.yul\":10320:10462   */\n    tag_192:\n        /* \"#utility.yul\":10397:10401   */\n      0x00\n        /* \"#utility.yul\":10420:10423   */\n      dup2\n        /* \"#utility.yul\":10412:10423   */\n      swap1\n      pop\n        /* \"#utility.yul\":10450:10454   */\n      0x20\n        /* \"#utility.yul\":10445:10448   */\n      dup3\n        /* \"#utility.yul\":10441:10455   */\n      add\n        /* \"#utility.yul\":10433:10455   */\n      swap1\n      pop\n        /* \"#utility.yul\":10320:10462   */\n      swap2\n      swap1\n      pop\n      jump\t// out\n        /* \"#utility.yul\":10468:10664   */\n    tag_193:\n        /* \"#utility.yul\":10557:10567   */\n      0x00\n        /* \"#utility.yul\":10592:10658   */\n      tag_346\n        /* \"#utility.yul\":10654:10657   */\n      dup4\n        /* \"#utility.yul\":10646:10652   */\n      dup4\n        /* \"#utility.yul\":10592:10658   */\n      tag_179\n      jump\t// in\n    tag_346:\n        /* \"#utility.yul\":10578:10658   */\n      swap1\n      pop\n        /* \"#utility.yul\":10468:10664   */\n      swap3\n      swap2\n      pop\n      pop\n      jump\t// out\n        /* \"#utility.yul\":10670:10793   */\n    tag_194:\n        /* \"#utility.yul\":10750:10754   */\n      0x00\n        /* \"#utility.yul\":10782:10786   */\n      0x20\n        /* \"#utility.yul\":10777:10780   */\n      dup3\n        /* \"#utility.yul\":10773:10787   */\n      add\n        /* \"#utility.yul\":10765:10787   */\n      swap1\n      pop\n        /* \"#utility.yul\":10670:10793   */\n      swap2\n      swap1\n      pop\n      jump\t// out\n        /* \"#utility.yul\":10827:11818   */\n    tag_195:\n        /* \"#utility.yul\":10966:10969   */\n      0x00\n        /* \"#utility.yul\":10995:11059   */\n      tag_349\n        /* \"#utility.yul\":11053:11058   */\n      dup3\n        /* \"#utility.yul\":10995:11059   */\n      tag_190\n      jump\t// in\n    tag_349:\n        /* \"#utility.yul\":11075:11171   */\n      tag_350\n        /* \"#utility.yul\":11164:11170   */\n      dup2\n        /* \"#utility.yul\":11159:11162   */\n      dup6\n        /* \"#utility.yul\":11075:11171   */\n      tag_191\n      jump\t// in\n    tag_350:\n        /* \"#utility.yul\":11068:11171   */\n      swap4\n      pop\n        /* \"#utility.yul\":11197:11200   */\n      dup4\n        /* \"#utility.yul\":11242:11246   */\n      0x20\n        /* \"#utility.yul\":11234:11240   */\n      dup3\n        /* \"#utility.yul\":11230:11247   */\n      mul\n        /* \"#utility.yul\":11225:11228   */\n      dup6\n        /* \"#utility.yul\":11221:11248   */\n      add\n        /* \"#utility.yul\":11272:11338   */\n      tag_351\n        /* \"#utility.yul\":11332:11337   */\n      dup6\n        /* \"#utility.yul\":11272:11338   */\n      tag_192\n      jump\t// in\n    tag_351:\n        /* \"#utility.yul\":11361:11368   */\n      dup1\n        /* \"#utility.yul\":11392:11393   */\n      0x00\n        /* \"#utility.yul\":11377:11773   */\n    tag_352:\n        /* \"#utility.yul\":11402:11408   */\n      dup6\n        /* \"#utility.yul\":11399:11400   */\n      dup2\n        /* \"#utility.yul\":11396:11409   */\n      lt\n        /* \"#utility.yul\":11377:11773   */\n      iszero\n      tag_354\n      jumpi\n        /* \"#utility.yul\":11473:11482   */\n      dup5\n        /* \"#utility.yul\":11467:11471   */\n      dup5\n        /* \"#utility.yul\":11463:11483   */\n      sub\n        /* \"#utility.yul\":11458:11461   */\n      dup10\n        /* \"#utility.yul\":11451:11484   */\n      mstore\n        /* \"#utility.yul\":11524:11530   */\n      dup2\n        /* \"#utility.yul\":11518:11531   */\n      mload\n        /* \"#utility.yul\":11552:11636   */\n      tag_355\n        /* \"#utility.yul\":11631:11635   */\n      dup6\n        /* \"#utility.yul\":11616:11629   */\n      dup3\n        /* \"#utility.yul\":11552:11636   */\n      tag_193\n      jump\t// in\n    tag_355:\n        /* \"#utility.yul\":11544:11636   */\n      swap5\n      pop\n        /* \"#utility.yul\":11659:11729   */\n      tag_356\n        /* \"#utility.yul\":11722:11728   */\n      dup4\n        /* \"#utility.yul\":11659:11729   */\n      tag_194\n      jump\t// in\n    tag_356:\n        /* \"#utility.yul\":11649:11729   */\n      swap3\n      pop\n        /* \"#utility.yul\":11758:11762   */\n      0x20\n        /* \"#utility.yul\":11753:11756   */\n      dup11\n        /* \"#utility.yul\":11749:11763   */\n      add\n        /* \"#utility.yul\":11742:11763   */\n      swap10\n      pop\n        /* \"#utility.yul\":11437:11773   */\n      pop\n        /* \"#utility.yul\":11424:11425   */\n      0x01\n        /* \"#utility.yul\":11421:11422   */\n      dup2\n        /* \"#utility.yul\":11417:11426   */\n      add\n        /* \"#utility.yul\":11412:11426   */\n      swap1\n      pop\n        /* \"#utility.yul\":11377:11773   */\n      jump(tag_352)\n    tag_354:\n        /* \"#utility.yul\":11381:11395   */\n      pop\n        /* \"#utility.yul\":11789:11793   */\n      dup3\n        /* \"#utility.yul\":11782:11793   */\n      swap8\n      pop\n        /* \"#utility.yul\":11809:11812   */\n      dup8\n        /* \"#utility.yul\":11802:11812   */\n      swap6\n      pop\n        /* \"#utility.yul\":10971:11818   */\n      pop\n      pop\n      pop\n      pop\n      pop\n        /* \"#utility.yul\":10827:11818   */\n      swap3\n      swap2\n      pop\n      pop\n      jump\t// out\n        /* \"#utility.yul\":11824:12237   */\n    tag_46:\n        /* \"#utility.yul\":11987:11991   */\n      0x00\n        /* \"#utility.yul\":12025:12027   */\n      0x20\n        /* \"#utility.yul\":12014:12023   */\n      dup3\n        /* \"#utility.yul\":12010:12028   */\n      add\n        /* \"#utility.yul\":12002:12028   */\n      swap1\n      pop\n        /* \"#utility.yul\":12074:12083   */\n      dup2\n        /* \"#utility.yul\":12068:12072   */\n      dup2\n        /* \"#utility.yul\":12064:12084   */\n      sub\n        /* \"#utility.yul\":12060:12061   */\n      0x00\n        /* \"#utility.yul\":12049:12058   */\n      dup4\n        /* \"#utility.yul\":12045:12062   */\n      add\n        /* \"#utility.yul\":12038:12085   */\n      mstore\n        /* \"#utility.yul\":12102:12230   */\n      tag_358\n        /* \"#utility.yul\":12225:12229   */\n      dup2\n        /* \"#utility.yul\":12216:12222   */\n      dup5\n        /* \"#utility.yul\":12102:12230   */\n      tag_195\n      jump\t// in\n    tag_358:\n        /* \"#utility.yul\":12094:12230   */\n      swap1\n      pop\n        /* \"#utility.yul\":11824:12237   */\n      swap3\n      swap2\n      pop\n      pop\n      jump\t// out\n        /* \"#utility.yul\":12243:12360   */\n    tag_196:\n        /* \"#utility.yul\":12352:12353   */\n      0x00\n        /* \"#utility.yul\":12349:12350   */\n      dup1\n        /* \"#utility.yul\":12342:12354   */\n      revert\n        /* \"#utility.yul\":12366:12483   */\n    tag_197:\n        /* \"#utility.yul\":12475:12476   */\n      0x00\n        /* \"#utility.yul\":12472:12473   */\n      dup1\n        /* \"#utility.yul\":12465:12477   */\n      revert\n        /* \"#utility.yul\":12503:13056   */\n    tag_198:\n        /* \"#utility.yul\":12561:12569   */\n      0x00\n        /* \"#utility.yul\":12571:12577   */\n      dup1\n        /* \"#utility.yul\":12621:12624   */\n      dup4\n        /* \"#utility.yul\":12614:12618   */\n      0x1f\n        /* \"#utility.yul\":12606:12612   */\n      dup5\n        /* \"#utility.yul\":12602:12619   */\n      add\n        /* \"#utility.yul\":12598:12625   */\n      slt\n        /* \"#utility.yul\":12588:12710   */\n      tag_362\n      jumpi\n        /* \"#utility.yul\":12629:12708   */\n      tag_363\n      tag_166\n      jump\t// in\n    tag_363:\n        /* \"#utility.yul\":12588:12710   */\n    tag_362:\n        /* \"#utility.yul\":12742:12748   */\n      dup3\n        /* \"#utility.yul\":12729:12749   */\n      calldataload\n        /* \"#utility.yul\":12719:12749   */\n      swap1\n      pop\n        /* \"#utility.yul\":12772:12790   */\n      0xffffffffffffffff\n        /* \"#utility.yul\":12764:12770   */\n      dup2\n        /* \"#utility.yul\":12761:12791   */\n      gt\n        /* \"#utility.yul\":12758:12875   */\n      iszero\n      tag_364\n      jumpi\n        /* \"#utility.yul\":12794:12873   */\n      tag_365\n      tag_196\n      jump\t// in\n    tag_365:\n        /* \"#utility.yul\":12758:12875   */\n    tag_364:\n        /* \"#utility.yul\":12908:12912   */\n      0x20\n        /* \"#utility.yul\":12900:12906   */\n      dup4\n        /* \"#utility.yul\":12896:12913   */\n      add\n        /* \"#utility.yul\":12884:12913   */\n      swap2\n      pop\n        /* \"#utility.yul\":12962:12965   */\n      dup4\n        /* \"#utility.yul\":12954:12958   */\n      0x01\n        /* \"#utility.yul\":12946:12952   */\n      dup3\n        /* \"#utility.yul\":12942:12959   */\n      mul\n        /* \"#utility.yul\":12932:12940   */\n      dup4\n        /* \"#utility.yul\":12928:12960   */\n      add\n        /* \"#utility.yul\":12925:12966   */\n      gt\n        /* \"#utility.yul\":12922:13050   */\n      iszero\n      tag_366\n      jumpi\n        /* \"#utility.yul\":12969:13048   */\n      tag_367\n      tag_197\n      jump\t// in\n    tag_367:\n        /* \"#utility.yul\":12922:13050   */\n    tag_366:\n        /* \"#utility.yul\":12503:13056   */\n      swap3\n      pop\n      swap3\n      swap1\n      pop\n      jump\t// out\n        /* \"#utility.yul\":13062:13184   */\n    tag_199:\n        /* \"#utility.yul\":13135:13159   */\n      tag_369\n        /* \"#utility.yul\":13153:13158   */\n      dup2\n        /* \"#utility.yul\":13135:13159   */\n      tag_180\n      jump\t// in\n    tag_369:\n        /* \"#utility.yul\":13128:13133   */\n      dup2\n        /* \"#utility.yul\":13125:13160   */\n      eq\n        /* \"#utility.yul\":13115:13178   */\n      tag_370\n      jumpi\n        /* \"#utility.yul\":13174:13175   */\n      0x00\n        /* \"#utility.yul\":13171:13172   */\n      dup1\n        /* \"#utility.yul\":13164:13176   */\n      revert\n        /* \"#utility.yul\":13115:13178   */\n    tag_370:\n        /* \"#utility.yul\":13062:13184   */\n      pop\n      jump\t// out\n        /* \"#utility.yul\":13190:13329   */\n    tag_200:\n        /* \"#utility.yul\":13236:13241   */\n      0x00\n        /* \"#utility.yul\":13274:13280   */\n      dup2\n        /* \"#utility.yul\":13261:13281   */\n      calldataload\n        /* \"#utility.yul\":13252:13281   */\n      swap1\n      pop\n        /* \"#utility.yul\":13290:13323   */\n      tag_372\n        /* \"#utility.yul\":13317:13322   */\n      dup2\n        /* \"#utility.yul\":13290:13323   */\n      tag_199\n      jump\t// in\n    tag_372:\n        /* \"#utility.yul\":13190:13329   */\n      swap3\n      swap2\n      pop\n      pop\n      jump\t// out\n        /* \"#utility.yul\":13335:15172   */\n    tag_49:\n        /* \"#utility.yul\":13485:13491   */\n      0x00\n        /* \"#utility.yul\":13493:13499   */\n      dup1\n        /* \"#utility.yul\":13501:13507   */\n      0x00\n        /* \"#utility.yul\":13509:13515   */\n      dup1\n        /* \"#utility.yul\":13517:13523   */\n      0x00\n        /* \"#utility.yul\":13525:13531   */\n      dup1\n        /* \"#utility.yul\":13533:13539   */\n      0x00\n        /* \"#utility.yul\":13541:13547   */\n      dup1\n        /* \"#utility.yul\":13549:13555   */\n      0x00\n        /* \"#utility.yul\":13598:13601   */\n      0xc0\n        /* \"#utility.yul\":13586:13595   */\n      dup11\n        /* \"#utility.yul\":13577:13584   */\n      dup13\n        /* \"#utility.yul\":13573:13596   */\n      sub\n        /* \"#utility.yul\":13569:13602   */\n      slt\n        /* \"#utility.yul\":13566:13686   */\n      iszero\n      tag_374\n      jumpi\n        /* \"#utility.yul\":13605:13684   */\n      tag_375\n      tag_160\n      jump\t// in\n    tag_375:\n        /* \"#utility.yul\":13566:13686   */\n    tag_374:\n        /* \"#utility.yul\":13753:13754   */\n      0x00\n        /* \"#utility.yul\":13742:13751   */\n      dup11\n        /* \"#utility.yul\":13738:13755   */\n      add\n        /* \"#utility.yul\":13725:13756   */\n      calldataload\n        /* \"#utility.yul\":13783:13801   */\n      0xffffffffffffffff\n        /* \"#utility.yul\":13775:13781   */\n      dup2\n        /* \"#utility.yul\":13772:13802   */\n      gt\n        /* \"#utility.yul\":13769:13886   */\n      iszero\n      tag_376\n      jumpi\n        /* \"#utility.yul\":13805:13884   */\n      tag_377\n      tag_161\n      jump\t// in\n    tag_377:\n        /* \"#utility.yul\":13769:13886   */\n    tag_376:\n        /* \"#utility.yul\":13918:13983   */\n      tag_378\n        /* \"#utility.yul\":13975:13982   */\n      dup13\n        /* \"#utility.yul\":13966:13972   */\n      dup3\n        /* \"#utility.yul\":13955:13964   */\n      dup14\n        /* \"#utility.yul\":13951:13973   */\n      add\n        /* \"#utility.yul\":13918:13983   */\n      tag_198\n      jump\t// in\n    tag_378:\n        /* \"#utility.yul\":13900:13983   */\n      swap10\n      pop\n      swap10\n      pop\n        /* \"#utility.yul\":13696:13993   */\n      pop\n        /* \"#utility.yul\":14060:14062   */\n      0x20\n        /* \"#utility.yul\":14049:14058   */\n      dup11\n        /* \"#utility.yul\":14045:14063   */\n      add\n        /* \"#utility.yul\":14032:14064   */\n      calldataload\n        /* \"#utility.yul\":14091:14109   */\n      0xffffffffffffffff\n        /* \"#utility.yul\":14083:14089   */\n      dup2\n        /* \"#utility.yul\":14080:14110   */\n      gt\n        /* \"#utility.yul\":14077:14194   */\n      iszero\n      tag_379\n      jumpi\n        /* \"#utility.yul\":14113:14192   */\n      tag_380\n      tag_161\n      jump\t// in\n    tag_380:\n        /* \"#utility.yul\":14077:14194   */\n    tag_379:\n        /* \"#utility.yul\":14226:14291   */\n      tag_381\n        /* \"#utility.yul\":14283:14290   */\n      dup13\n        /* \"#utility.yul\":14274:14280   */\n      dup3\n        /* \"#utility.yul\":14263:14272   */\n      dup14\n        /* \"#utility.yul\":14259:14281   */\n      add\n        /* \"#utility.yul\":14226:14291   */\n      tag_198\n      jump\t// in\n    tag_381:\n        /* \"#utility.yul\":14208:14291   */\n      swap8\n      pop\n      swap8\n      pop\n        /* \"#utility.yul\":14003:14301   */\n      pop\n        /* \"#utility.yul\":14340:14342   */\n      0x40\n        /* \"#utility.yul\":14366:14419   */\n      tag_382\n        /* \"#utility.yul\":14411:14418   */\n      dup13\n        /* \"#utility.yul\":14402:14408   */\n      dup3\n        /* \"#utility.yul\":14391:14400   */\n      dup14\n        /* \"#utility.yul\":14387:14409   */\n      add\n        /* \"#utility.yul\":14366:14419   */\n      tag_200\n      jump\t// in\n    tag_382:\n        /* \"#utility.yul\":14356:14419   */\n      swap6\n      pop\n        /* \"#utility.yul\":14311:14429   */\n      pop\n        /* \"#utility.yul\":14468:14470   */\n      0x60\n        /* \"#utility.yul\":14494:14547   */\n      tag_383\n        /* \"#utility.yul\":14539:14546   */\n      dup13\n        /* \"#utility.yul\":14530:14536   */\n      dup3\n        /* \"#utility.yul\":14519:14528   */\n      dup14\n        /* \"#utility.yul\":14515:14537   */\n      add\n        /* \"#utility.yul\":14494:14547   */\n      tag_200\n      jump\t// in\n    tag_383:\n        /* \"#utility.yul\":14484:14547   */\n      swap5\n      pop\n        /* \"#utility.yul\":14439:14557   */\n      pop\n        /* \"#utility.yul\":14624:14627   */\n      0x80\n        /* \"#utility.yul\":14613:14622   */\n      dup11\n        /* \"#utility.yul\":14609:14628   */\n      add\n        /* \"#utility.yul\":14596:14629   */\n      calldataload\n        /* \"#utility.yul\":14656:14674   */\n      0xffffffffffffffff\n        /* \"#utility.yul\":14648:14654   */\n      dup2\n        /* \"#utility.yul\":14645:14675   */\n      gt\n        /* \"#utility.yul\":14642:14759   */\n      iszero\n      tag_384\n      jumpi\n        /* \"#utility.yul\":14678:14757   */\n      tag_385\n      tag_161\n      jump\t// in\n    tag_385:\n        /* \"#utility.yul\":14642:14759   */\n    tag_384:\n        /* \"#utility.yul\":14791:14856   */\n      tag_386\n        /* \"#utility.yul\":14848:14855   */\n      dup13\n        /* \"#utility.yul\":14839:14845   */\n      dup3\n        /* \"#utility.yul\":14828:14837   */\n      dup14\n        /* \"#utility.yul\":14824:14846   */\n      add\n        /* \"#utility.yul\":14791:14856   */\n      tag_198\n      jump\t// in\n    tag_386:\n        /* \"#utility.yul\":14773:14856   */\n      swap4\n      pop\n      swap4\n      pop\n        /* \"#utility.yul\":14567:14866   */\n      pop\n        /* \"#utility.yul\":14933:14936   */\n      0xa0\n        /* \"#utility.yul\":14922:14931   */\n      dup11\n        /* \"#utility.yul\":14918:14937   */\n      add\n        /* \"#utility.yul\":14905:14938   */\n      calldataload\n        /* \"#utility.yul\":14965:14983   */\n      0xffffffffffffffff\n        /* \"#utility.yul\":14957:14963   */\n      dup2\n        /* \"#utility.yul\":14954:14984   */\n      gt\n        /* \"#utility.yul\":14951:15068   */\n      iszero\n      tag_387\n      jumpi\n        /* \"#utility.yul\":14987:15066   */\n      tag_388\n      tag_161\n      jump\t// in\n    tag_388:\n        /* \"#utility.yul\":14951:15068   */\n    tag_387:\n        /* \"#utility.yul\":15092:15155   */\n      tag_389\n        /* \"#utility.yul\":15147:15154   */\n      dup13\n        /* \"#utility.yul\":15138:15144   */\n      dup3\n        /* \"#utility.yul\":15127:15136   */\n      dup14\n        /* \"#utility.yul\":15123:15145   */\n      add\n        /* \"#utility.yul\":15092:15155   */\n      tag_175\n      jump\t// in\n    tag_389:\n        /* \"#utility.yul\":15082:15155   */\n      swap2\n      pop\n        /* \"#utility.yul\":14876:15165   */\n      pop\n        /* \"#utility.yul\":13335:15172   */\n      swap3\n      swap6\n      swap9\n      pop\n      swap3\n      swap6\n      swap9\n      pop\n      swap3\n      swap6\n      swap9\n      jump\t// out\n        /* \"#utility.yul\":15178:15296   */\n    tag_201:\n        /* \"#utility.yul\":15265:15289   */\n      tag_391\n        /* \"#utility.yul\":15283:15288   */\n      dup2\n        /* \"#utility.yul\":15265:15289   */\n      tag_182\n      jump\t// in\n    tag_391:\n        /* \"#utility.yul\":15260:15263   */\n      dup3\n        /* \"#utility.yul\":15253:15290   */\n      mstore\n        /* \"#utility.yul\":15178:15296   */\n      pop\n      pop\n      jump\t// out\n        /* \"#utility.yul\":15302:15524   */\n    tag_52:\n        /* \"#utility.yul\":15395:15399   */\n      0x00\n        /* \"#utility.yul\":15433:15435   */\n      0x20\n        /* \"#utility.yul\":15422:15431   */\n      dup3\n        /* \"#utility.yul\":15418:15436   */\n      add\n        /* \"#utility.yul\":15410:15436   */\n      swap1\n      pop\n        /* \"#utility.yul\":15446:15517   */\n      tag_393\n        /* \"#utility.yul\":15514:15515   */\n      0x00\n        /* \"#utility.yul\":15503:15512   */\n      dup4\n        /* \"#utility.yul\":15499:15516   */\n      add\n        /* \"#utility.yul\":15490:15496   */\n      dup5\n        /* \"#utility.yul\":15446:15517   */\n      tag_201\n      jump\t// in\n    tag_393:\n        /* \"#utility.yul\":15302:15524   */\n      swap3\n      swap2\n      pop\n      pop\n      jump\t// out\n        /* \"#utility.yul\":15530:15699   */\n    tag_202:\n        /* \"#utility.yul\":15614:15625   */\n      0x00\n        /* \"#utility.yul\":15648:15654   */\n      dup3\n        /* \"#utility.yul\":15643:15646   */\n      dup3\n        /* \"#utility.yul\":15636:15655   */\n      mstore\n        /* \"#utility.yul\":15688:15692   */\n      0x20\n        /* \"#utility.yul\":15683:15686   */\n      dup3\n        /* \"#utility.yul\":15679:15693   */\n      add\n        /* \"#utility.yul\":15664:15693   */\n      swap1\n      pop\n        /* \"#utility.yul\":15530:15699   */\n      swap3\n      swap2\n      pop\n      pop\n      jump\t// out\n        /* \"#utility.yul\":15705:15878   */\n    tag_203:\n        /* \"#utility.yul\":15845:15870   */\n      0x4f6e6c79204f776e657220636f6e206163746976617465000000000000000000\n        /* \"#utility.yul\":15841:15842   */\n      0x00\n        /* \"#utility.yul\":15833:15839   */\n      dup3\n        /* \"#utility.yul\":15829:15843   */\n      add\n        /* \"#utility.yul\":15822:15871   */\n      mstore\n        /* \"#utility.yul\":15705:15878   */\n      pop\n      jump\t// out\n        /* \"#utility.yul\":15884:16250   */\n    tag_204:\n        /* \"#utility.yul\":16026:16029   */\n      0x00\n        /* \"#utility.yul\":16047:16114   */\n      tag_397\n        /* \"#utility.yul\":16111:16113   */\n      0x17\n        /* \"#utility.yul\":16106:16109   */\n      dup4\n        /* \"#utility.yul\":16047:16114   */\n      tag_202\n      jump\t// in\n    tag_397:\n        /* \"#utility.yul\":16040:16114   */\n      swap2\n      pop\n        /* \"#utility.yul\":16123:16216   */\n      tag_398\n        /* \"#utility.yul\":16212:16215   */\n      dup3\n        /* \"#utility.yul\":16123:16216   */\n      tag_203\n      jump\t// in\n    tag_398:\n        /* \"#utility.yul\":16241:16243   */\n      0x20\n        /* \"#utility.yul\":16236:16239   */\n      dup3\n        /* \"#utility.yul\":16232:16244   */\n      add\n        /* \"#utility.yul\":16225:16244   */\n      swap1\n      pop\n        /* \"#utility.yul\":15884:16250   */\n      swap2\n      swap1\n      pop\n      jump\t// out\n        /* \"#utility.yul\":16256:16675   */\n    tag_56:\n        /* \"#utility.yul\":16422:16426   */\n      0x00\n        /* \"#utility.yul\":16460:16462   */\n      0x20\n        /* \"#utility.yul\":16449:16458   */\n      dup3\n        /* \"#utility.yul\":16445:16463   */\n      add\n        /* \"#utility.yul\":16437:16463   */\n      swap1\n      pop\n        /* \"#utility.yul\":16509:16518   */\n      dup2\n        /* \"#utility.yul\":16503:16507   */\n      dup2\n        /* \"#utility.yul\":16499:16519   */\n      sub\n        /* \"#utility.yul\":16495:16496   */\n      0x00\n        /* \"#utility.yul\":16484:16493   */\n      dup4\n        /* \"#utility.yul\":16480:16497   */\n      add\n        /* \"#utility.yul\":16473:16520   */\n      mstore\n        /* \"#utility.yul\":16537:16668   */\n      tag_400\n        /* \"#utility.yul\":16663:16667   */\n      dup2\n        /* \"#utility.yul\":16537:16668   */\n      tag_204\n      jump\t// in\n    tag_400:\n        /* \"#utility.yul\":16529:16668   */\n      swap1\n      pop\n        /* \"#utility.yul\":16256:16675   */\n      swap2\n      swap1\n      pop\n      jump\t// out\n        /* \"#utility.yul\":16681:16829   */\n    tag_205:\n        /* \"#utility.yul\":16783:16794   */\n      0x00\n        /* \"#utility.yul\":16820:16823   */\n      dup2\n        /* \"#utility.yul\":16805:16823   */\n      swap1\n      pop\n        /* \"#utility.yul\":16681:16829   */\n      swap3\n      swap2\n      pop\n      pop\n      jump\t// out\n        /* \"#utility.yul\":16835:17225   */\n    tag_206:\n        /* \"#utility.yul\":16941:16944   */\n      0x00\n        /* \"#utility.yul\":16969:17008   */\n      tag_403\n        /* \"#utility.yul\":17002:17007   */\n      dup3\n        /* \"#utility.yul\":16969:17008   */\n      tag_176\n      jump\t// in\n    tag_403:\n        /* \"#utility.yul\":17024:17113   */\n      tag_404\n        /* \"#utility.yul\":17106:17112   */\n      dup2\n        /* \"#utility.yul\":17101:17104   */\n      dup6\n        /* \"#utility.yul\":17024:17113   */\n      tag_205\n      jump\t// in\n    tag_404:\n        /* \"#utility.yul\":17017:17113   */\n      swap4\n      pop\n        /* \"#utility.yul\":17122:17187   */\n      tag_405\n        /* \"#utility.yul\":17180:17186   */\n      dup2\n        /* \"#utility.yul\":17175:17178   */\n      dup6\n        /* \"#utility.yul\":17168:17172   */\n      0x20\n        /* \"#utility.yul\":17161:17166   */\n      dup7\n        /* \"#utility.yul\":17157:17173   */\n      add\n        /* \"#utility.yul\":17122:17187   */\n      tag_178\n      jump\t// in\n    tag_405:\n        /* \"#utility.yul\":17212:17218   */\n      dup1\n        /* \"#utility.yul\":17207:17210   */\n      dup5\n        /* \"#utility.yul\":17203:17219   */\n      add\n        /* \"#utility.yul\":17196:17219   */\n      swap2\n      pop\n        /* \"#utility.yul\":16945:17225   */\n      pop\n        /* \"#utility.yul\":16835:17225   */\n      swap3\n      swap2\n      pop\n      pop\n      jump\t// out\n        /* \"#utility.yul\":17231:17506   */\n    tag_62:\n        /* \"#utility.yul\":17363:17366   */\n      0x00\n        /* \"#utility.yul\":17385:17480   */\n      tag_407\n        /* \"#utility.yul\":17476:17479   */\n      dup3\n        /* \"#utility.yul\":17467:17473   */\n      dup5\n        /* \"#utility.yul\":17385:17480   */\n      tag_206\n      jump\t// in\n    tag_407:\n        /* \"#utility.yul\":17378:17480   */\n      swap2\n      pop\n        /* \"#utility.yul\":17497:17500   */\n      dup2\n        /* \"#utility.yul\":17490:17500   */\n      swap1\n      pop\n        /* \"#utility.yul\":17231:17506   */\n      swap3\n      swap2\n      pop\n      pop\n      jump\t// out\n        /* \"#utility.yul\":17512:17692   */\n    tag_207:\n        /* \"#utility.yul\":17560:17637   */\n      0x4e487b7100000000000000000000000000000000000000000000000000000000\n        /* \"#utility.yul\":17557:17558   */\n      0x00\n        /* \"#utility.yul\":17550:17638   */\n      mstore\n        /* \"#utility.yul\":17657:17661   */\n      0x22\n        /* \"#utility.yul\":17654:17655   */\n      0x04\n        /* \"#utility.yul\":17647:17662   */\n      mstore\n        /* \"#utility.yul\":17681:17685   */\n      0x24\n        /* \"#utility.yul\":17678:17679   */\n      0x00\n        /* \"#utility.yul\":17671:17686   */\n      revert\n        /* \"#utility.yul\":17698:18018   */\n    tag_64:\n        /* \"#utility.yul\":17742:17748   */\n      0x00\n        /* \"#utility.yul\":17779:17780   */\n      0x02\n        /* \"#utility.yul\":17773:17777   */\n      dup3\n        /* \"#utility.yul\":17769:17781   */\n      div\n        /* \"#utility.yul\":17759:17781   */\n      swap1\n      pop\n        /* \"#utility.yul\":17826:17827   */\n      0x01\n        /* \"#utility.yul\":17820:17824   */\n      dup3\n        /* \"#utility.yul\":17816:17828   */\n      and\n        /* \"#utility.yul\":17847:17865   */\n      dup1\n        /* \"#utility.yul\":17837:17918   */\n      tag_410\n      jumpi\n        /* \"#utility.yul\":17903:17907   */\n      0x7f\n        /* \"#utility.yul\":17895:17901   */\n      dup3\n        /* \"#utility.yul\":17891:17908   */\n      and\n        /* \"#utility.yul\":17881:17908   */\n      swap2\n      pop\n        /* \"#utility.yul\":17837:17918   */\n    tag_410:\n        /* \"#utility.yul\":17965:17967   */\n      0x20\n        /* \"#utility.yul\":17957:17963   */\n      dup3\n        /* \"#utility.yul\":17954:17968   */\n      lt\n        /* \"#utility.yul\":17934:17952   */\n      dup2\n        /* \"#utility.yul\":17931:17969   */\n      sub\n        /* \"#utility.yul\":17928:18012   */\n      tag_411\n      jumpi\n        /* \"#utility.yul\":17984:18002   */\n      tag_412\n      tag_207\n      jump\t// in\n    tag_412:\n        /* \"#utility.yul\":17928:18012   */\n    tag_411:\n        /* \"#utility.yul\":17749:18018   */\n      pop\n        /* \"#utility.yul\":17698:18018   */\n      swap2\n      swap1\n      pop\n      jump\t// out\n        /* \"#utility.yul\":18024:18204   */\n    tag_89:\n        /* \"#utility.yul\":18072:18149   */\n      0x4e487b7100000000000000000000000000000000000000000000000000000000\n        /* \"#utility.yul\":18069:18070   */\n      0x00\n        /* \"#utility.yul\":18062:18150   */\n      mstore\n        /* \"#utility.yul\":18169:18173   */\n      0x32\n        /* \"#utility.yul\":18166:18167   */\n      0x04\n        /* \"#utility.yul\":18159:18174   */\n      mstore\n        /* \"#utility.yul\":18193:18197   */\n      0x24\n        /* \"#utility.yul\":18190:18191   */\n      0x00\n        /* \"#utility.yul\":18183:18198   */\n      revert\n        /* \"#utility.yul\":18210:18390   */\n    tag_208:\n        /* \"#utility.yul\":18258:18335   */\n      0x4e487b7100000000000000000000000000000000000000000000000000000000\n        /* \"#utility.yul\":18255:18256   */\n      0x00\n        /* \"#utility.yul\":18248:18336   */\n      mstore\n        /* \"#utility.yul\":18355:18359   */\n      0x11\n        /* \"#utility.yul\":18352:18353   */\n      0x04\n        /* \"#utility.yul\":18345:18360   */\n      mstore\n        /* \"#utility.yul\":18379:18383   */\n      0x24\n        /* \"#utility.yul\":18376:18377   */\n      0x00\n        /* \"#utility.yul\":18369:18384   */\n      revert\n        /* \"#utility.yul\":18396:18629   */\n    tag_92:\n        /* \"#utility.yul\":18435:18438   */\n      0x00\n        /* \"#utility.yul\":18458:18482   */\n      tag_416\n        /* \"#utility.yul\":18476:18481   */\n      dup3\n        /* \"#utility.yul\":18458:18482   */\n      tag_180\n      jump\t// in\n    tag_416:\n        /* \"#utility.yul\":18449:18482   */\n      swap2\n      pop\n        /* \"#utility.yul\":18504:18570   */\n      0xffffffffffffffffffffffffffffffffffffffffffffffffffffffffffffffff\n        /* \"#utility.yul\":18497:18502   */\n      dup3\n        /* \"#utility.yul\":18494:18571   */\n      sub\n        /* \"#utility.yul\":18491:18594   */\n      tag_417\n      jumpi\n        /* \"#utility.yul\":18574:18592   */\n      tag_418\n      tag_208\n      jump\t// in\n    tag_418:\n        /* \"#utility.yul\":18491:18594   */\n    tag_417:\n        /* \"#utility.yul\":18621:18622   */\n      0x01\n        /* \"#utility.yul\":18614:18619   */\n      dup3\n        /* \"#utility.yul\":18610:18623   */\n      add\n        /* \"#utility.yul\":18603:18623   */\n      swap1\n      pop\n        /* \"#utility.yul\":18396:18629   */\n      swap2\n      swap1\n      pop\n      jump\t// out\n        /* \"#utility.yul\":18635:18815   */\n    tag_209:\n        /* \"#utility.yul\":18775:18807   */\n      0x526966204e6f7420526567697374726564206861732054617870617965720000\n        /* \"#utility.yul\":18771:18772   */\n      0x00\n        /* \"#utility.yul\":18763:18769   */\n      dup3\n        /* \"#utility.yul\":18759:18773   */\n      add\n        /* \"#utility.yul\":18752:18808   */\n      mstore\n        /* \"#utility.yul\":18635:18815   */\n      pop\n      jump\t// out\n        /* \"#utility.yul\":18821:19187   */\n    tag_210:\n        /* \"#utility.yul\":18963:18966   */\n      0x00\n        /* \"#utility.yul\":18984:19051   */\n      tag_421\n        /* \"#utility.yul\":19048:19050   */\n      0x1e\n        /* \"#utility.yul\":19043:19046   */\n      dup4\n        /* \"#utility.yul\":18984:19051   */\n      tag_202\n      jump\t// in\n    tag_421:\n        /* \"#utility.yul\":18977:19051   */\n      swap2\n      pop\n        /* \"#utility.yul\":19060:19153   */\n      tag_422\n        /* \"#utility.yul\":19149:19152   */\n      dup3\n        /* \"#utility.yul\":19060:19153   */\n      tag_209\n      jump\t// in\n    tag_422:\n        /* \"#utility.yul\":19178:19180   */\n      0x20\n        /* \"#utility.yul\":19173:19176   */\n      dup3\n        /* \"#utility.yul\":19169:19181   */\n      add\n        /* \"#utility.yul\":19162:19181   */\n      swap1\n      pop\n        /* \"#utility.yul\":18821:19187   */\n      swap2\n      swap1\n      pop\n      jump\t// out\n        /* \"#utility.yul\":19193:19612   */\n    tag_114:\n        /* \"#utility.yul\":19359:19363   */\n      0x00\n        /* \"#utility.yul\":19397:19399   */\n      0x20\n        /* \"#utility.yul\":19386:19395   */\n      dup3\n        /* \"#utility.yul\":19382:19400   */\n      add\n        /* \"#utility.yul\":19374:19400   */\n      swap1\n      pop\n        /* \"#utility.yul\":19446:19455   */\n      dup2\n        /* \"#utility.yul\":19440:19444   */\n      dup2\n        /* \"#utility.yul\":19436:19456   */\n      sub\n        /* \"#utility.yul\":19432:19433   */\n      0x00\n        /* \"#utility.yul\":19421:19430   */\n      dup4\n        /* \"#utility.yul\":19417:19434   */\n      add\n        /* \"#utility.yul\":19410:19457   */\n      mstore\n        /* \"#utility.yul\":19474:19605   */\n      tag_424\n        /* \"#utility.yul\":19600:19604   */\n      dup2\n        /* \"#utility.yul\":19474:19605   */\n      tag_210\n      jump\t// in\n    tag_424:\n        /* \"#utility.yul\":19466:19605   */\n      swap1\n      pop\n        /* \"#utility.yul\":19193:19612   */\n      swap2\n      swap1\n      pop\n      jump\t// out\n        /* \"#utility.yul\":19618:19759   */\n    tag_211:\n        /* \"#utility.yul\":19667:19671   */\n      0x00\n        /* \"#utility.yul\":19690:19693   */\n      dup2\n        /* \"#utility.yul\":19682:19693   */\n      swap1\n      pop\n        /* \"#utility.yul\":19713:19716   */\n      dup2\n        /* \"#utility.yul\":19710:19711   */\n      0x00\n        /* \"#utility.yul\":19703:19717   */\n      mstore\n        /* \"#utility.yul\":19747:19751   */\n      0x20\n        /* \"#utility.yul\":19744:19745   */\n      0x00\n        /* \"#utility.yul\":19734:19752   */\n      keccak256\n        /* \"#utility.yul\":19726:19752   */\n      swap1\n      pop\n        /* \"#utility.yul\":19618:19759   */\n      swap2\n      swap1\n      pop\n      jump\t// out\n        /* \"#utility.yul\":19765:19858   */\n    tag_212:\n        /* \"#utility.yul\":19802:19808   */\n      0x00\n        /* \"#utility.yul\":19849:19851   */\n      0x20\n        /* \"#utility.yul\":19844:19846   */\n      0x1f\n        /* \"#utility.yul\":19837:19842   */\n      dup4\n        /* \"#utility.yul\":19833:19847   */\n      add\n        /* \"#utility.yul\":19829:19852   */\n      div\n        /* \"#utility.yul\":19819:19852   */\n      swap1\n      pop\n        /* \"#utility.yul\":19765:19858   */\n      swap2\n      swap1\n      pop\n      jump\t// out\n        /* \"#utility.yul\":19864:19971   */\n    tag_213:\n        /* \"#utility.yul\":19908:19916   */\n      0x00\n        /* \"#utility.yul\":19958:19963   */\n      dup3\n        /* \"#utility.yul\":19952:19956   */\n      dup3\n        /* \"#utility.yul\":19948:19964   */\n      shl\n        /* \"#utility.yul\":19927:19964   */\n      swap1\n      pop\n        /* \"#utility.yul\":19864:19971   */\n      swap3\n      swap2\n      pop\n      pop\n      jump\t// out\n        /* \"#utility.yul\":19977:20370   */\n    tag_214:\n        /* \"#utility.yul\":20046:20052   */\n      0x00\n        /* \"#utility.yul\":20096:20097   */\n      0x08\n        /* \"#utility.yul\":20084:20094   */\n      dup4\n        /* \"#utility.yul\":20080:20098   */\n      mul\n        /* \"#utility.yul\":20119:20216   */\n      tag_429\n        /* \"#utility.yul\":20149:20215   */\n      0xffffffffffffffffffffffffffffffffffffffffffffffffffffffffffffffff\n        /* \"#utility.yul\":20138:20147   */\n      dup3\n        /* \"#utility.yul\":20119:20216   */\n      tag_213\n      jump\t// in\n    tag_429:\n        /* \"#utility.yul\":20237:20276   */\n      tag_430\n        /* \"#utility.yul\":20267:20275   */\n      dup7\n        /* \"#utility.yul\":20256:20265   */\n      dup4\n        /* \"#utility.yul\":20237:20276   */\n      tag_213\n      jump\t// in\n    tag_430:\n        /* \"#utility.yul\":20225:20276   */\n      swap6\n      pop\n        /* \"#utility.yul\":20309:20313   */\n      dup1\n        /* \"#utility.yul\":20305:20314   */\n      not\n        /* \"#utility.yul\":20298:20303   */\n      dup5\n        /* \"#utility.yul\":20294:20315   */\n      and\n        /* \"#utility.yul\":20285:20315   */\n      swap4\n      pop\n        /* \"#utility.yul\":20358:20362   */\n      dup1\n        /* \"#utility.yul\":20348:20356   */\n      dup7\n        /* \"#utility.yul\":20344:20363   */\n      and\n        /* \"#utility.yul\":20337:20342   */\n      dup5\n        /* \"#utility.yul\":20334:20364   */\n      or\n        /* \"#utility.yul\":20324:20364   */\n      swap3\n      pop\n        /* \"#utility.yul\":20053:20370   */\n      pop\n      pop\n        /* \"#utility.yul\":19977:20370   */\n      swap4\n      swap3\n      pop\n      pop\n      pop\n      jump\t// out\n        /* \"#utility.yul\":20376:20436   */\n    tag_215:\n        /* \"#utility.yul\":20404:20407   */\n      0x00\n        /* \"#utility.yul\":20425:20430   */\n      dup2\n        /* \"#utility.yul\":20418:20430   */\n      swap1\n      pop\n        /* \"#utility.yul\":20376:20436   */\n      swap2\n      swap1\n      pop\n      jump\t// out\n        /* \"#utility.yul\":20442:20584   */\n    tag_216:\n        /* \"#utility.yul\":20492:20501   */\n      0x00\n        /* \"#utility.yul\":20525:20578   */\n      tag_433\n        /* \"#utility.yul\":20543:20577   */\n      tag_434\n        /* \"#utility.yul\":20552:20576   */\n      tag_435\n        /* \"#utility.yul\":20570:20575   */\n      dup5\n        /* \"#utility.yul\":20552:20576   */\n      tag_180\n      jump\t// in\n    tag_435:\n        /* \"#utility.yul\":20543:20577   */\n      tag_215\n      jump\t// in\n    tag_434:\n        /* \"#utility.yul\":20525:20578   */\n      tag_180\n      jump\t// in\n    tag_433:\n        /* \"#utility.yul\":20512:20578   */\n      swap1\n      pop\n        /* \"#utility.yul\":20442:20584   */\n      swap2\n      swap1\n      pop\n      jump\t// out\n        /* \"#utility.yul\":20590:20665   */\n    tag_217:\n        /* \"#utility.yul\":20633:20636   */\n      0x00\n        /* \"#utility.yul\":20654:20659   */\n      dup2\n        /* \"#utility.yul\":20647:20659   */\n      swap1\n      pop\n        /* \"#utility.yul\":20590:20665   */\n      swap2\n      swap1\n      pop\n      jump\t// out\n        /* \"#utility.yul\":20671:20940   */\n    tag_218:\n        /* \"#utility.yul\":20781:20820   */\n      tag_438\n        /* \"#utility.yul\":20812:20819   */\n      dup4\n        /* \"#utility.yul\":20781:20820   */\n      tag_216\n      jump\t// in\n    tag_438:\n        /* \"#utility.yul\":20842:20933   */\n      tag_439\n        /* \"#utility.yul\":20891:20932   */\n      tag_440\n        /* \"#utility.yul\":20915:20931   */\n      dup3\n        /* \"#utility.yul\":20891:20932   */\n      tag_217\n      jump\t// in\n    tag_440:\n        /* \"#utility.yul\":20883:20889   */\n      dup5\n        /* \"#utility.yul\":20876:20880   */\n      dup5\n        /* \"#utility.yul\":20870:20881   */\n      sload\n        /* \"#utility.yul\":20842:20933   */\n      tag_214\n      jump\t// in\n    tag_439:\n        /* \"#utility.yul\":20836:20840   */\n      dup3\n        /* \"#utility.yul\":20829:20934   */\n      sstore\n        /* \"#utility.yul\":20747:20940   */\n      pop\n        /* \"#utility.yul\":20671:20940   */\n      pop\n      pop\n      pop\n      jump\t// out\n        /* \"#utility.yul\":20946:21019   */\n    tag_219:\n        /* \"#utility.yul\":20991:20994   */\n      0x00\n        /* \"#utility.yul\":20946:21019   */\n      swap1\n      jump\t// out\n        /* \"#utility.yul\":21025:21214   */\n    tag_220:\n        /* \"#utility.yul\":21102:21134   */\n      tag_443\n      tag_219\n      jump\t// in\n    tag_443:\n        /* \"#utility.yul\":21143:21208   */\n      tag_444\n        /* \"#utility.yul\":21201:21207   */\n      dup2\n        /* \"#utility.yul\":21193:21199   */\n      dup5\n        /* \"#utility.yul\":21187:21191   */\n      dup5\n        /* \"#utility.yul\":21143:21208   */\n      tag_218\n      jump\t// in\n    tag_444:\n        /* \"#utility.yul\":21078:21214   */\n      pop\n        /* \"#utility.yul\":21025:21214   */\n      pop\n      pop\n      jump\t// out\n        /* \"#utility.yul\":21220:21406   */\n    tag_221:\n        /* \"#utility.yul\":21280:21400   */\n    tag_446:\n        /* \"#utility.yul\":21297:21300   */\n      dup2\n        /* \"#utility.yul\":21290:21295   */\n      dup2\n        /* \"#utility.yul\":21287:21301   */\n      lt\n        /* \"#utility.yul\":21280:21400   */\n      iszero\n      tag_448\n      jumpi\n        /* \"#utility.yul\":21351:21390   */\n      tag_449\n        /* \"#utility.yul\":21388:21389   */\n      0x00\n        /* \"#utility.yul\":21381:21386   */\n      dup3\n        /* \"#utility.yul\":21351:21390   */\n      tag_220\n      jump\t// in\n    tag_449:\n        /* \"#utility.yul\":21324:21325   */\n      0x01\n        /* \"#utility.yul\":21317:21322   */\n      dup2\n        /* \"#utility.yul\":21313:21326   */\n      add\n        /* \"#utility.yul\":21304:21326   */\n      swap1\n      pop\n        /* \"#utility.yul\":21280:21400   */\n      jump(tag_446)\n    tag_448:\n        /* \"#utility.yul\":21220:21406   */\n      pop\n      pop\n      jump\t// out\n        /* \"#utility.yul\":21412:21955   */\n    tag_222:\n        /* \"#utility.yul\":21513:21515   */\n      0x1f\n        /* \"#utility.yul\":21508:21511   */\n      dup3\n        /* \"#utility.yul\":21505:21516   */\n      gt\n        /* \"#utility.yul\":21502:21948   */\n      iszero\n      tag_451\n      jumpi\n        /* \"#utility.yul\":21547:21585   */\n      tag_452\n        /* \"#utility.yul\":21579:21584   */\n      dup2\n        /* \"#utility.yul\":21547:21585   */\n      tag_211\n      jump\t// in\n    tag_452:\n        /* \"#utility.yul\":21631:21660   */\n      tag_453\n        /* \"#utility.yul\":21649:21659   */\n      dup5\n        /* \"#utility.yul\":21631:21660   */\n      tag_212\n      jump\t// in\n    tag_453:\n        /* \"#utility.yul\":21621:21629   */\n      dup2\n        /* \"#utility.yul\":21617:21661   */\n      add\n        /* \"#utility.yul\":21814:21816   */\n      0x20\n        /* \"#utility.yul\":21802:21812   */\n      dup6\n        /* \"#utility.yul\":21799:21817   */\n      lt\n        /* \"#utility.yul\":21796:21845   */\n      iszero\n      tag_454\n      jumpi\n        /* \"#utility.yul\":21835:21843   */\n      dup2\n        /* \"#utility.yul\":21820:21843   */\n      swap1\n      pop\n        /* \"#utility.yul\":21796:21845   */\n    tag_454:\n        /* \"#utility.yul\":21858:21938   */\n      tag_455\n        /* \"#utility.yul\":21914:21936   */\n      tag_456\n        /* \"#utility.yul\":21932:21935   */\n      dup6\n        /* \"#utility.yul\":21914:21936   */\n      tag_212\n      jump\t// in\n    tag_456:\n        /* \"#utility.yul\":21904:21912   */\n      dup4\n        /* \"#utility.yul\":21900:21937   */\n      add\n        /* \"#utility.yul\":21887:21898   */\n      dup3\n        /* \"#utility.yul\":21858:21938   */\n      tag_221\n      jump\t// in\n    tag_455:\n        /* \"#utility.yul\":21517:21948   */\n      pop\n      pop\n        /* \"#utility.yul\":21502:21948   */\n    tag_451:\n        /* \"#utility.yul\":21412:21955   */\n      pop\n      pop\n      pop\n      jump\t// out\n        /* \"#utility.yul\":21961:22078   */\n    tag_223:\n        /* \"#utility.yul\":22015:22023   */\n      0x00\n        /* \"#utility.yul\":22065:22070   */\n      dup3\n        /* \"#utility.yul\":22059:22063   */\n      dup3\n        /* \"#utility.yul\":22055:22071   */\n      shr\n        /* \"#utility.yul\":22034:22071   */\n      swap1\n      pop\n        /* \"#utility.yul\":21961:22078   */\n      swap3\n      swap2\n      pop\n      pop\n      jump\t// out\n        /* \"#utility.yul\":22084:22253   */\n    tag_224:\n        /* \"#utility.yul\":22128:22134   */\n      0x00\n        /* \"#utility.yul\":22161:22212   */\n      tag_459\n        /* \"#utility.yul\":22209:22210   */\n      0x00\n        /* \"#utility.yul\":22205:22211   */\n      not\n        /* \"#utility.yul\":22197:22202   */\n      dup5\n        /* \"#utility.yul\":22194:22195   */\n      0x08\n        /* \"#utility.yul\":22190:22203   */\n      mul\n        /* \"#utility.yul\":22161:22212   */\n      tag_223\n      jump\t// in\n    tag_459:\n        /* \"#utility.yul\":22157:22213   */\n      not\n        /* \"#utility.yul\":22242:22246   */\n      dup1\n        /* \"#utility.yul\":22236:22240   */\n      dup4\n        /* \"#utility.yul\":22232:22247   */\n      and\n        /* \"#utility.yul\":22222:22247   */\n      swap2\n      pop\n        /* \"#utility.yul\":22135:22253   */\n      pop\n        /* \"#utility.yul\":22084:22253   */\n      swap3\n      swap2\n      pop\n      pop\n      jump\t// out\n        /* \"#utility.yul\":22258:22553   */\n    tag_225:\n        /* \"#utility.yul\":22334:22338   */\n      0x00\n        /* \"#utility.yul\":22480:22509   */\n      tag_461\n        /* \"#utility.yul\":22505:22508   */\n      dup4\n        /* \"#utility.yul\":22499:22503   */\n      dup4\n        /* \"#utility.yul\":22480:22509   */\n      tag_224\n      jump\t// in\n    tag_461:\n        /* \"#utility.yul\":22472:22509   */\n      swap2\n      pop\n        /* \"#utility.yul\":22542:22545   */\n      dup3\n        /* \"#utility.yul\":22539:22540   */\n      0x02\n        /* \"#utility.yul\":22535:22546   */\n      mul\n        /* \"#utility.yul\":22529:22533   */\n      dup3\n        /* \"#utility.yul\":22526:22547   */\n      or\n        /* \"#utility.yul\":22518:22547   */\n      swap1\n      pop\n        /* \"#utility.yul\":22258:22553   */\n      swap3\n      swap2\n      pop\n      pop\n      jump\t// out\n        /* \"#utility.yul\":22558:23953   */\n    tag_118:\n        /* \"#utility.yul\":22675:22712   */\n      tag_463\n        /* \"#utility.yul\":22708:22711   */\n      dup3\n        /* \"#utility.yul\":22675:22712   */\n      tag_176\n      jump\t// in\n    tag_463:\n        /* \"#utility.yul\":22777:22795   */\n      0xffffffffffffffff\n        /* \"#utility.yul\":22769:22775   */\n      dup2\n        /* \"#utility.yul\":22766:22796   */\n      gt\n        /* \"#utility.yul\":22763:22819   */\n      iszero\n      tag_464\n      jumpi\n        /* \"#utility.yul\":22799:22817   */\n      tag_465\n      tag_169\n      jump\t// in\n    tag_465:\n        /* \"#utility.yul\":22763:22819   */\n    tag_464:\n        /* \"#utility.yul\":22843:22881   */\n      tag_466\n        /* \"#utility.yul\":22875:22879   */\n      dup3\n        /* \"#utility.yul\":22869:22880   */\n      sload\n        /* \"#utility.yul\":22843:22881   */\n      tag_64\n      jump\t// in\n    tag_466:\n        /* \"#utility.yul\":22928:22995   */\n      tag_467\n        /* \"#utility.yul\":22988:22994   */\n      dup3\n        /* \"#utility.yul\":22980:22986   */\n      dup3\n        /* \"#utility.yul\":22974:22978   */\n      dup6\n        /* \"#utility.yul\":22928:22995   */\n      tag_222\n      jump\t// in\n    tag_467:\n        /* \"#utility.yul\":23022:23023   */\n      0x00\n        /* \"#utility.yul\":23046:23050   */\n      0x20\n        /* \"#utility.yul\":23033:23050   */\n      swap1\n      pop\n        /* \"#utility.yul\":23078:23080   */\n      0x1f\n        /* \"#utility.yul\":23070:23076   */\n      dup4\n        /* \"#utility.yul\":23067:23081   */\n      gt\n        /* \"#utility.yul\":23095:23096   */\n      0x01\n        /* \"#utility.yul\":23090:23708   */\n      dup2\n      eq\n      tag_469\n      jumpi\n        /* \"#utility.yul\":23752:23753   */\n      0x00\n        /* \"#utility.yul\":23769:23775   */\n      dup5\n        /* \"#utility.yul\":23766:23843   */\n      iszero\n      tag_470\n      jumpi\n        /* \"#utility.yul\":23818:23827   */\n      dup3\n        /* \"#utility.yul\":23813:23816   */\n      dup8\n        /* \"#utility.yul\":23809:23828   */\n      add\n        /* \"#utility.yul\":23803:23829   */\n      mload\n        /* \"#utility.yul\":23794:23829   */\n      swap1\n      pop\n        /* \"#utility.yul\":23766:23843   */\n    tag_470:\n        /* \"#utility.yul\":23869:23936   */\n      tag_471\n        /* \"#utility.yul\":23929:23935   */\n      dup6\n        /* \"#utility.yul\":23922:23927   */\n      dup3\n        /* \"#utility.yul\":23869:23936   */\n      tag_225\n      jump\t// in\n    tag_471:\n        /* \"#utility.yul\":23863:23867   */\n      dup7\n        /* \"#utility.yul\":23856:23937   */\n      sstore\n        /* \"#utility.yul\":23725:23947   */\n      pop\n        /* \"#utility.yul\":23060:23947   */\n      jump(tag_468)\n        /* \"#utility.yul\":23090:23708   */\n    tag_469:\n        /* \"#utility.yul\":23142:23146   */\n      0x1f\n        /* \"#utility.yul\":23138:23147   */\n      not\n        /* \"#utility.yul\":23130:23136   */\n      dup5\n        /* \"#utility.yul\":23126:23148   */\n      and\n        /* \"#utility.yul\":23176:23213   */\n      tag_472\n        /* \"#utility.yul\":23208:23212   */\n      dup7\n        /* \"#utility.yul\":23176:23213   */\n      tag_211\n      jump\t// in\n    tag_472:\n        /* \"#utility.yul\":23235:23236   */\n      0x00\n        /* \"#utility.yul\":23249:23457   */\n    tag_473:\n        /* \"#utility.yul\":23263:23270   */\n      dup3\n        /* \"#utility.yul\":23260:23261   */\n      dup2\n        /* \"#utility.yul\":23257:23271   */\n      lt\n        /* \"#utility.yul\":23249:23457   */\n      iszero\n      tag_475\n      jumpi\n        /* \"#utility.yul\":23342:23351   */\n      dup5\n        /* \"#utility.yul\":23337:23340   */\n      dup10\n        /* \"#utility.yul\":23333:23352   */\n      add\n        /* \"#utility.yul\":23327:23353   */\n      mload\n        /* \"#utility.yul\":23319:23325   */\n      dup3\n        /* \"#utility.yul\":23312:23354   */\n      sstore\n        /* \"#utility.yul\":23393:23394   */\n      0x01\n        /* \"#utility.yul\":23385:23391   */\n      dup3\n        /* \"#utility.yul\":23381:23395   */\n      add\n        /* \"#utility.yul\":23371:23395   */\n      swap2\n      pop\n        /* \"#utility.yul\":23440:23442   */\n      0x20\n        /* \"#utility.yul\":23429:23438   */\n      dup6\n        /* \"#utility.yul\":23425:23443   */\n      add\n        /* \"#utility.yul\":23412:23443   */\n      swap5\n      pop\n        /* \"#utility.yul\":23286:23290   */\n      0x20\n        /* \"#utility.yul\":23283:23284   */\n      dup2\n        /* \"#utility.yul\":23279:23291   */\n      add\n        /* \"#utility.yul\":23274:23291   */\n      swap1\n      pop\n        /* \"#utility.yul\":23249:23457   */\n      jump(tag_473)\n    tag_475:\n        /* \"#utility.yul\":23485:23491   */\n      dup7\n        /* \"#utility.yul\":23476:23483   */\n      dup4\n        /* \"#utility.yul\":23473:23492   */\n      lt\n        /* \"#utility.yul\":23470:23649   */\n      iszero\n      tag_476\n      jumpi\n        /* \"#utility.yul\":23543:23552   */\n      dup5\n        /* \"#utility.yul\":23538:23541   */\n      dup10\n        /* \"#utility.yul\":23534:23553   */\n      add\n        /* \"#utility.yul\":23528:23554   */\n      mload\n        /* \"#utility.yul\":23586:23634   */\n      tag_477\n        /* \"#utility.yul\":23628:23632   */\n      0x1f\n        /* \"#utility.yul\":23620:23626   */\n      dup10\n        /* \"#utility.yul\":23616:23633   */\n      and\n        /* \"#utility.yul\":23605:23614   */\n      dup3\n        /* \"#utility.yul\":23586:23634   */\n      tag_224\n      jump\t// in\n    tag_477:\n        /* \"#utility.yul\":23578:23584   */\n      dup4\n        /* \"#utility.yul\":23571:23635   */\n      sstore\n        /* \"#utility.yul\":23493:23649   */\n      pop\n        /* \"#utility.yul\":23470:23649   */\n    tag_476:\n        /* \"#utility.yul\":23695:23696   */\n      0x01\n        /* \"#utility.yul\":23691:23692   */\n      0x02\n        /* \"#utility.yul\":23683:23689   */\n      dup9\n        /* \"#utility.yul\":23679:23693   */\n      mul\n        /* \"#utility.yul\":23675:23697   */\n      add\n        /* \"#utility.yul\":23669:23673   */\n      dup9\n        /* \"#utility.yul\":23662:23698   */\n      sstore\n        /* \"#utility.yul\":23097:23708   */\n      pop\n      pop\n      pop\n        /* \"#utility.yul\":23060:23947   */\n    tag_468:\n      pop\n        /* \"#utility.yul\":22650:23953   */\n      pop\n      pop\n      pop\n        /* \"#utility.yul\":22558:23953   */\n      pop\n      pop\n      jump\t// out\n        /* \"#utility.yul\":23959:24336   */\n    tag_226:\n        /* \"#utility.yul\":24047:24050   */\n      0x00\n        /* \"#utility.yul\":24075:24114   */\n      tag_479\n        /* \"#utility.yul\":24108:24113   */\n      dup3\n        /* \"#utility.yul\":24075:24114   */\n      tag_176\n      jump\t// in\n    tag_479:\n        /* \"#utility.yul\":24130:24201   */\n      tag_480\n        /* \"#utility.yul\":24194:24200   */\n      dup2\n        /* \"#utility.yul\":24189:24192   */\n      dup6\n        /* \"#utility.yul\":24130:24201   */\n      tag_202\n      jump\t// in\n    tag_480:\n        /* \"#utility.yul\":24123:24201   */\n      swap4\n      pop\n        /* \"#utility.yul\":24210:24275   */\n      tag_481\n        /* \"#utility.yul\":24268:24274   */\n      dup2\n        /* \"#utility.yul\":24263:24266   */\n      dup6\n        /* \"#utility.yul\":24256:24260   */\n      0x20\n        /* \"#utility.yul\":24249:24254   */\n      dup7\n        /* \"#utility.yul\":24245:24261   */\n      add\n        /* \"#utility.yul\":24210:24275   */\n      tag_178\n      jump\t// in\n    tag_481:\n        /* \"#utility.yul\":24300:24329   */\n      tag_482\n        /* \"#utility.yul\":24322:24328   */\n      dup2\n        /* \"#utility.yul\":24300:24329   */\n      tag_168\n      jump\t// in\n    tag_482:\n        /* \"#utility.yul\":24295:24298   */\n      dup5\n        /* \"#utility.yul\":24291:24330   */\n      add\n        /* \"#utility.yul\":24284:24330   */\n      swap2\n      pop\n        /* \"#utility.yul\":24051:24336   */\n      pop\n        /* \"#utility.yul\":23959:24336   */\n      swap3\n      swap2\n      pop\n      pop\n      jump\t// out\n        /* \"#utility.yul\":24342:24460   */\n    tag_227:\n        /* \"#utility.yul\":24429:24453   */\n      tag_484\n        /* \"#utility.yul\":24447:24452   */\n      dup2\n        /* \"#utility.yul\":24429:24453   */\n      tag_180\n      jump\t// in\n    tag_484:\n        /* \"#utility.yul\":24424:24427   */\n      dup3\n        /* \"#utility.yul\":24417:24454   */\n      mstore\n        /* \"#utility.yul\":24342:24460   */\n      pop\n      pop\n      jump\t// out\n        /* \"#utility.yul\":24466:25201   */\n    tag_146:\n        /* \"#utility.yul\":24683:24687   */\n      0x00\n        /* \"#utility.yul\":24721:24724   */\n      0x80\n        /* \"#utility.yul\":24710:24719   */\n      dup3\n        /* \"#utility.yul\":24706:24725   */\n      add\n        /* \"#utility.yul\":24698:24725   */\n      swap1\n      pop\n        /* \"#utility.yul\":24735:24806   */\n      tag_486\n        /* \"#utility.yul\":24803:24804   */\n      0x00\n        /* \"#utility.yul\":24792:24801   */\n      dup4\n        /* \"#utility.yul\":24788:24805   */\n      add\n        /* \"#utility.yul\":24779:24785   */\n      dup8\n        /* \"#utility.yul\":24735:24806   */\n      tag_185\n      jump\t// in\n    tag_486:\n        /* \"#utility.yul\":24853:24862   */\n      dup2\n        /* \"#utility.yul\":24847:24851   */\n      dup2\n        /* \"#utility.yul\":24843:24863   */\n      sub\n        /* \"#utility.yul\":24838:24840   */\n      0x20\n        /* \"#utility.yul\":24827:24836   */\n      dup4\n        /* \"#utility.yul\":24823:24841   */\n      add\n        /* \"#utility.yul\":24816:24864   */\n      mstore\n        /* \"#utility.yul\":24881:24959   */\n      tag_487\n        /* \"#utility.yul\":24954:24958   */\n      dup2\n        /* \"#utility.yul\":24945:24951   */\n      dup7\n        /* \"#utility.yul\":24881:24959   */\n      tag_226\n      jump\t// in\n    tag_487:\n        /* \"#utility.yul\":24873:24959   */\n      swap1\n      pop\n        /* \"#utility.yul\":25006:25015   */\n      dup2\n        /* \"#utility.yul\":25000:25004   */\n      dup2\n        /* \"#utility.yul\":24996:25016   */\n      sub\n        /* \"#utility.yul\":24991:24993   */\n      0x40\n        /* \"#utility.yul\":24980:24989   */\n      dup4\n        /* \"#utility.yul\":24976:24994   */\n      add\n        /* \"#utility.yul\":24969:25017   */\n      mstore\n        /* \"#utility.yul\":25034:25112   */\n      tag_488\n        /* \"#utility.yul\":25107:25111   */\n      dup2\n        /* \"#utility.yul\":25098:25104   */\n      dup6\n        /* \"#utility.yul\":25034:25112   */\n      tag_226\n      jump\t// in\n    tag_488:\n        /* \"#utility.yul\":25026:25112   */\n      swap1\n      pop\n        /* \"#utility.yul\":25122:25194   */\n      tag_489\n        /* \"#utility.yul\":25190:25192   */\n      0x60\n        /* \"#utility.yul\":25179:25188   */\n      dup4\n        /* \"#utility.yul\":25175:25193   */\n      add\n        /* \"#utility.yul\":25166:25172   */\n      dup5\n        /* \"#utility.yul\":25122:25194   */\n      tag_227\n      jump\t// in\n    tag_489:\n        /* \"#utility.yul\":24466:25201   */\n      swap6\n      swap5\n      pop\n      pop\n      pop\n      pop\n      pop\n      jump\t// out\n        /* \"#utility.yul\":25231:26042   */\n    tag_228:\n        /* \"#utility.yul\":25306:25309   */\n      0x00\n        /* \"#utility.yul\":25343:25348   */\n      dup2\n        /* \"#utility.yul\":25337:25349   */\n      sload\n        /* \"#utility.yul\":25372:25408   */\n      tag_491\n        /* \"#utility.yul\":25398:25407   */\n      dup2\n        /* \"#utility.yul\":25372:25408   */\n      tag_64\n      jump\t// in\n    tag_491:\n        /* \"#utility.yul\":25424:25485   */\n      tag_492\n        /* \"#utility.yul\":25478:25484   */\n      dup2\n        /* \"#utility.yul\":25473:25476   */\n      dup7\n        /* \"#utility.yul\":25424:25485   */\n      tag_177\n      jump\t// in\n    tag_492:\n        /* \"#utility.yul\":25417:25485   */\n      swap5\n      pop\n        /* \"#utility.yul\":25516:25517   */\n      0x01\n        /* \"#utility.yul\":25505:25514   */\n      dup3\n        /* \"#utility.yul\":25501:25518   */\n      and\n        /* \"#utility.yul\":25532:25533   */\n      0x00\n        /* \"#utility.yul\":25527:25691   */\n      dup2\n      eq\n      tag_494\n      jumpi\n        /* \"#utility.yul\":25705:25706   */\n      0x01\n        /* \"#utility.yul\":25700:26036   */\n      dup2\n      eq\n      tag_495\n      jumpi\n        /* \"#utility.yul\":25494:26036   */\n      jump(tag_493)\n        /* \"#utility.yul\":25527:25691   */\n    tag_494:\n        /* \"#utility.yul\":25611:25615   */\n      0xff\n        /* \"#utility.yul\":25607:25616   */\n      not\n        /* \"#utility.yul\":25596:25605   */\n      dup4\n        /* \"#utility.yul\":25592:25617   */\n      and\n        /* \"#utility.yul\":25587:25590   */\n      dup7\n        /* \"#utility.yul\":25580:25618   */\n      mstore\n        /* \"#utility.yul\":25671:25677   */\n      dup2\n        /* \"#utility.yul\":25664:25678   */\n      iszero\n        /* \"#utility.yul\":25657:25679   */\n      iszero\n        /* \"#utility.yul\":25651:25655   */\n      0x20\n        /* \"#utility.yul\":25647:25680   */\n      mul\n        /* \"#utility.yul\":25642:25645   */\n      dup7\n        /* \"#utility.yul\":25638:25681   */\n      add\n        /* \"#utility.yul\":25631:25681   */\n      swap4\n      pop\n        /* \"#utility.yul\":25527:25691   */\n      jump(tag_493)\n        /* \"#utility.yul\":25700:26036   */\n    tag_495:\n        /* \"#utility.yul\":25767:25805   */\n      tag_496\n        /* \"#utility.yul\":25799:25804   */\n      dup6\n        /* \"#utility.yul\":25767:25805   */\n      tag_211\n      jump\t// in\n    tag_496:\n        /* \"#utility.yul\":25827:25828   */\n      0x00\n        /* \"#utility.yul\":25841:25995   */\n    tag_497:\n        /* \"#utility.yul\":25855:25861   */\n      dup4\n        /* \"#utility.yul\":25852:25853   */\n      dup2\n        /* \"#utility.yul\":25849:25862   */\n      lt\n        /* \"#utility.yul\":25841:25995   */\n      iszero\n      tag_499\n      jumpi\n        /* \"#utility.yul\":25929:25936   */\n      dup2\n        /* \"#utility.yul\":25923:25937   */\n      sload\n        /* \"#utility.yul\":25919:25920   */\n      dup2\n        /* \"#utility.yul\":25914:25917   */\n      dup10\n        /* \"#utility.yul\":25910:25921   */\n      add\n        /* \"#utility.yul\":25903:25938   */\n      mstore\n        /* \"#utility.yul\":25979:25980   */\n      0x01\n        /* \"#utility.yul\":25970:25977   */\n      dup3\n        /* \"#utility.yul\":25966:25981   */\n      add\n        /* \"#utility.yul\":25955:25981   */\n      swap2\n      pop\n        /* \"#utility.yul\":25877:25881   */\n      0x20\n        /* \"#utility.yul\":25874:25875   */\n      dup2\n        /* \"#utility.yul\":25870:25882   */\n      add\n        /* \"#utility.yul\":25865:25882   */\n      swap1\n      pop\n        /* \"#utility.yul\":25841:25995   */\n      jump(tag_497)\n    tag_499:\n        /* \"#utility.yul\":26024:26025   */\n      dup1\n        /* \"#utility.yul\":26019:26022   */\n      dup9\n        /* \"#utility.yul\":26015:26026   */\n      add\n        /* \"#utility.yul\":26008:26026   */\n      swap6\n      pop\n        /* \"#utility.yul\":25707:26036   */\n      pop\n      pop\n        /* \"#utility.yul\":25494:26036   */\n    tag_493:\n      pop\n        /* \"#utility.yul\":25310:26042   */\n      pop\n      pop\n        /* \"#utility.yul\":25231:26042   */\n      swap3\n      swap2\n      pop\n      pop\n      jump\t// out\n        /* \"#utility.yul\":26048:26150   */\n    tag_229:\n        /* \"#utility.yul\":26090:26098   */\n      0x00\n        /* \"#utility.yul\":26137:26142   */\n      dup2\n        /* \"#utility.yul\":26134:26135   */\n      0x00\n        /* \"#utility.yul\":26130:26143   */\n      shr\n        /* \"#utility.yul\":26109:26143   */\n      swap1\n      pop\n        /* \"#utility.yul\":26048:26150   */\n      swap2\n      swap1\n      pop\n      jump\t// out\n        /* \"#utility.yul\":26156:26246   */\n    tag_230:\n        /* \"#utility.yul\":26206:26213   */\n      0x00\n        /* \"#utility.yul\":26235:26240   */\n      dup2\n        /* \"#utility.yul\":26224:26240   */\n      swap1\n      pop\n        /* \"#utility.yul\":26156:26246   */\n      swap2\n      swap1\n      pop\n      jump\t// out\n        /* \"#utility.yul\":26252:26418   */\n    tag_231:\n        /* \"#utility.yul\":26321:26326   */\n      0x00\n        /* \"#utility.yul\":26346:26412   */\n      tag_503\n        /* \"#utility.yul\":26377:26411   */\n      tag_504\n        /* \"#utility.yul\":26400:26410   */\n      dup4\n        /* \"#utility.yul\":26377:26411   */\n      tag_229\n      jump\t// in\n    tag_504:\n        /* \"#utility.yul\":26346:26412   */\n      tag_230\n      jump\t// in\n    tag_503:\n        /* \"#utility.yul\":26337:26412   */\n      swap1\n      pop\n        /* \"#utility.yul\":26252:26418   */\n      swap2\n      swap1\n      pop\n      jump\t// out\n        /* \"#utility.yul\":26424:26514   */\n    tag_232:\n        /* \"#utility.yul\":26474:26481   */\n      0x00\n        /* \"#utility.yul\":26503:26508   */\n      dup2\n        /* \"#utility.yul\":26492:26508   */\n      swap1\n      pop\n        /* \"#utility.yul\":26424:26514   */\n      swap2\n      swap1\n      pop\n      jump\t// out\n        /* \"#utility.yul\":26520:26686   */\n    tag_233:\n        /* \"#utility.yul\":26589:26594   */\n      0x00\n        /* \"#utility.yul\":26614:26680   */\n      tag_507\n        /* \"#utility.yul\":26645:26679   */\n      tag_508\n        /* \"#utility.yul\":26668:26678   */\n      dup4\n        /* \"#utility.yul\":26645:26679   */\n      tag_229\n      jump\t// in\n    tag_508:\n        /* \"#utility.yul\":26614:26680   */\n      tag_232\n      jump\t// in\n    tag_507:\n        /* \"#utility.yul\":26605:26680   */\n      swap1\n      pop\n        /* \"#utility.yul\":26520:26686   */\n      swap2\n      swap1\n      pop\n      jump\t// out\n        /* \"#utility.yul\":26766:28470   */\n    tag_234:\n        /* \"#utility.yul\":26892:26895   */\n      0x00\n        /* \"#utility.yul\":26928:26932   */\n      0xc0\n        /* \"#utility.yul\":26923:26926   */\n      dup4\n        /* \"#utility.yul\":26919:26933   */\n      add\n        /* \"#utility.yul\":26959:26960   */\n      0x00\n        /* \"#utility.yul\":27040:27044   */\n      dup1\n        /* \"#utility.yul\":27033:27038   */\n      dup5\n        /* \"#utility.yul\":27029:27045   */\n      add\n        /* \"#utility.yul\":27092:27095   */\n      dup6\n        /* \"#utility.yul\":27086:27090   */\n      dup4\n        /* \"#utility.yul\":27082:27096   */\n      sub\n        /* \"#utility.yul\":27075:27079   */\n      0x00\n        /* \"#utility.yul\":27070:27073   */\n      dup8\n        /* \"#utility.yul\":27066:27080   */\n      add\n        /* \"#utility.yul\":27059:27097   */\n      mstore\n        /* \"#utility.yul\":27118:27188   */\n      tag_510\n        /* \"#utility.yul\":27183:27187   */\n      dup4\n        /* \"#utility.yul\":27169:27181   */\n      dup3\n        /* \"#utility.yul\":27118:27188   */\n      tag_228\n      jump\t// in\n    tag_510:\n        /* \"#utility.yul\":27110:27188   */\n      swap3\n      pop\n        /* \"#utility.yul\":26970:27199   */\n      pop\n        /* \"#utility.yul\":27274:27278   */\n      0x01\n        /* \"#utility.yul\":27267:27272   */\n      dup5\n        /* \"#utility.yul\":27263:27279   */\n      add\n        /* \"#utility.yul\":27326:27329   */\n      dup6\n        /* \"#utility.yul\":27320:27324   */\n      dup4\n        /* \"#utility.yul\":27316:27330   */\n      sub\n        /* \"#utility.yul\":27309:27313   */\n      0x20\n        /* \"#utility.yul\":27304:27307   */\n      dup8\n        /* \"#utility.yul\":27300:27314   */\n      add\n        /* \"#utility.yul\":27293:27331   */\n      mstore\n        /* \"#utility.yul\":27352:27422   */\n      tag_511\n        /* \"#utility.yul\":27417:27421   */\n      dup4\n        /* \"#utility.yul\":27403:27415   */\n      dup3\n        /* \"#utility.yul\":27352:27422   */\n      tag_228\n      jump\t// in\n    tag_511:\n        /* \"#utility.yul\":27344:27422   */\n      swap3\n      pop\n        /* \"#utility.yul\":27209:27433   */\n      pop\n        /* \"#utility.yul\":27511:27515   */\n      0x02\n        /* \"#utility.yul\":27504:27509   */\n      dup5\n        /* \"#utility.yul\":27500:27516   */\n      add\n        /* \"#utility.yul\":27494:27517   */\n      sload\n        /* \"#utility.yul\":27481:27517   */\n      swap1\n      pop\n        /* \"#utility.yul\":27550:27605   */\n      tag_512\n        /* \"#utility.yul\":27595:27604   */\n      dup2\n        /* \"#utility.yul\":27550:27605   */\n      tag_231\n      jump\t// in\n    tag_512:\n        /* \"#utility.yul\":27618:27681   */\n      tag_513\n        /* \"#utility.yul\":27675:27679   */\n      0x40\n        /* \"#utility.yul\":27670:27673   */\n      dup8\n        /* \"#utility.yul\":27666:27680   */\n      add\n        /* \"#utility.yul\":27652:27664   */\n      dup3\n        /* \"#utility.yul\":27618:27681   */\n      tag_181\n      jump\t// in\n    tag_513:\n        /* \"#utility.yul\":27443:27691   */\n      pop\n        /* \"#utility.yul\":27768:27772   */\n      0x03\n        /* \"#utility.yul\":27761:27766   */\n      dup5\n        /* \"#utility.yul\":27757:27773   */\n      add\n        /* \"#utility.yul\":27751:27774   */\n      sload\n        /* \"#utility.yul\":27738:27774   */\n      swap1\n      pop\n        /* \"#utility.yul\":27807:27862   */\n      tag_514\n        /* \"#utility.yul\":27852:27861   */\n      dup2\n        /* \"#utility.yul\":27807:27862   */\n      tag_231\n      jump\t// in\n    tag_514:\n        /* \"#utility.yul\":27875:27938   */\n      tag_515\n        /* \"#utility.yul\":27932:27936   */\n      0x60\n        /* \"#utility.yul\":27927:27930   */\n      dup8\n        /* \"#utility.yul\":27923:27937   */\n      add\n        /* \"#utility.yul\":27909:27921   */\n      dup3\n        /* \"#utility.yul\":27875:27938   */\n      tag_181\n      jump\t// in\n    tag_515:\n        /* \"#utility.yul\":27701:27948   */\n      pop\n        /* \"#utility.yul\":28029:28033   */\n      0x04\n        /* \"#utility.yul\":28022:28027   */\n      dup5\n        /* \"#utility.yul\":28018:28034   */\n      add\n        /* \"#utility.yul\":28081:28084   */\n      dup6\n        /* \"#utility.yul\":28075:28079   */\n      dup4\n        /* \"#utility.yul\":28071:28085   */\n      sub\n        /* \"#utility.yul\":28064:28068   */\n      0x80\n        /* \"#utility.yul\":28059:28062   */\n      dup8\n        /* \"#utility.yul\":28055:28069   */\n      add\n        /* \"#utility.yul\":28048:28086   */\n      mstore\n        /* \"#utility.yul\":28107:28177   */\n      tag_516\n        /* \"#utility.yul\":28172:28176   */\n      dup4\n        /* \"#utility.yul\":28158:28170   */\n      dup3\n        /* \"#utility.yul\":28107:28177   */\n      tag_228\n      jump\t// in\n    tag_516:\n        /* \"#utility.yul\":28099:28177   */\n      swap3\n      pop\n        /* \"#utility.yul\":27958:28188   */\n      pop\n        /* \"#utility.yul\":28263:28267   */\n      0x05\n        /* \"#utility.yul\":28256:28261   */\n      dup5\n        /* \"#utility.yul\":28252:28268   */\n      add\n        /* \"#utility.yul\":28246:28269   */\n      sload\n        /* \"#utility.yul\":28233:28269   */\n      swap1\n      pop\n        /* \"#utility.yul\":28302:28357   */\n      tag_517\n        /* \"#utility.yul\":28347:28356   */\n      dup2\n        /* \"#utility.yul\":28302:28357   */\n      tag_233\n      jump\t// in\n    tag_517:\n        /* \"#utility.yul\":28370:28433   */\n      tag_518\n        /* \"#utility.yul\":28427:28431   */\n      0xa0\n        /* \"#utility.yul\":28422:28425   */\n      dup8\n        /* \"#utility.yul\":28418:28432   */\n      add\n        /* \"#utility.yul\":28404:28416   */\n      dup3\n        /* \"#utility.yul\":28370:28433   */\n      tag_183\n      jump\t// in\n    tag_518:\n        /* \"#utility.yul\":28198:28443   */\n      pop\n        /* \"#utility.yul\":28460:28464   */\n      dup2\n        /* \"#utility.yul\":28453:28464   */\n      swap3\n      pop\n        /* \"#utility.yul\":26897:28470   */\n      pop\n      pop\n        /* \"#utility.yul\":26766:28470   */\n      swap3\n      swap2\n      pop\n      pop\n      jump\t// out\n        /* \"#utility.yul\":28476:28863   */\n    tag_153:\n        /* \"#utility.yul\":28626:28630   */\n      0x00\n        /* \"#utility.yul\":28664:28666   */\n      0x20\n        /* \"#utility.yul\":28653:28662   */\n      dup3\n        /* \"#utility.yul\":28649:28667   */\n      add\n        /* \"#utility.yul\":28641:28667   */\n      swap1\n      pop\n        /* \"#utility.yul\":28713:28722   */\n      dup2\n        /* \"#utility.yul\":28707:28711   */\n      dup2\n        /* \"#utility.yul\":28703:28723   */\n      sub\n        /* \"#utility.yul\":28699:28700   */\n      0x00\n        /* \"#utility.yul\":28688:28697   */\n      dup4\n        /* \"#utility.yul\":28684:28701   */\n      add\n        /* \"#utility.yul\":28677:28724   */\n      mstore\n        /* \"#utility.yul\":28741:28856   */\n      tag_520\n        /* \"#utility.yul\":28851:28855   */\n      dup2\n        /* \"#utility.yul\":28842:28848   */\n      dup5\n        /* \"#utility.yul\":28741:28856   */\n      tag_234\n      jump\t// in\n    tag_520:\n        /* \"#utility.yul\":28733:28856   */\n      swap1\n      pop\n        /* \"#utility.yul\":28476:28863   */\n      swap3\n      swap2\n      pop\n      pop\n      jump\t// out\n\n    auxdata: 0xa26469706673582212206bfbce0851cac5442c0d304cefcc3a01481aceec1610c45edb5c03ad68485f8d64736f6c63430008140033\n}\n",
				"bytecode": {
					"linkReferences": {},
					"object": "608060405234801561000f575f80fd5b50600160035f3373ffffffffffffffffffffffffffffffffffffffff1673ffffffffffffffffffffffffffffffffffffffff1681526020019081526020015f205f6101000a81548160ff0219169083151502179055503360055f6101000a81548173ffffffffffffffffffffffffffffffffffffffff021916908373ffffffffffffffffffffffffffffffffffffffff160217905550611e41806100b25f395ff3fe60806040526004361061006f575f3560e01c80638c7c00981161004d5780638c7c0098146101075780639dfb783114610143578063d1a814111461017f578063dd2bd41e146101bb5761006f565b80635f3b1f3b1461007357806361ad6d371461008f57806384e26b2c146100cb575b5f80fd5b61008d60048036038101906100889190611023565b6101eb565b005b34801561009a575f80fd5b506100b560048036038101906100b0919061118a565b6102d2565b6040516100c29190611322565b60405180910390f35b3480156100d6575f80fd5b506100f160048036038101906100ec9190611342565b610512565b6040516100fe9190611398565b60405180910390f35b348015610112575f80fd5b5061012d600480360381019061012891906113db565b610558565b60405161013a9190611433565b60405180910390f35b34801561014e575f80fd5b506101696004803603810190610164919061144c565b61063c565b6040516101769190611433565b60405180910390f35b34801561018a575f80fd5b506101a560048036038101906101a09190611023565b610732565b6040516101b29190611561565b60405180910390f35b6101d560048036038101906101d09190611608565b610843565b6040516101e2919061171c565b60405180910390f35b60055f9054906101000a900473ffffffffffffffffffffffffffffffffffffffff1673ffffffffffffffffffffffffffffffffffffffff163373ffffffffffffffffffffffffffffffffffffffff161461027a576040517f08c379a00000000000000000000000000000000000000000000000000000000081526004016102719061178f565b60405180910390fd5b600160035f8373ffffffffffffffffffffffffffffffffffffffff1673ffffffffffffffffffffffffffffffffffffffff1681526020019081526020015f205f6101000a81548160ff02191690831515021790555050565b6102da610f82565b5f808473ffffffffffffffffffffffffffffffffffffffff1673ffffffffffffffffffffffffffffffffffffffff1681526020019081526020015f208260405161032491906117e7565b90815260200160405180910390206040518060c00160405290815f8201805461034c9061182a565b80601f01602080910402602001604051908101604052809291908181526020018280546103789061182a565b80156103c35780601f1061039a576101008083540402835291602001916103c3565b820191905f5260205f20905b8154815290600101906020018083116103a657829003601f168201915b505050505081526020016001820180546103dc9061182a565b80601f01602080910402602001604051908101604052809291908181526020018280546104089061182a565b80156104535780601f1061042a57610100808354040283529160200191610453565b820191905f5260205f20905b81548152906001019060200180831161043657829003601f168201915b5050505050815260200160028201548152602001600382015481526020016004820180546104809061182a565b80601f01602080910402602001604051908101604052809291908181526020018280546104ac9061182a565b80156104f75780601f106104ce576101008083540402835291602001916104f7565b820191905f5260205f20905b8154815290600101906020018083116104da57829003601f168201915b50505050508152602001600582015481525050905092915050565b5f60048260405161052391906117e7565b90815260200160405180910390205f9054906101000a900473ffffffffffffffffffffffffffffffffffffffff169050919050565b5f8060025f8573ffffffffffffffffffffffffffffffffffffffff1673ffffffffffffffffffffffffffffffffffffffff1681526020019081526020015f208054806020026020016040519081016040528092919081815260200182805480156105df57602002820191905f5260205f20905b8154815260200190600101908083116105cb575b505050505090505f5b815181101561063057838282815181106106055761060461185a565b5b60200260200101510361061d57600192505050610636565b8080610628906118b4565b9150506105e8565b505f9150505b92915050565b5f60055f9054906101000a900473ffffffffffffffffffffffffffffffffffffffff1673ffffffffffffffffffffffffffffffffffffffff163373ffffffffffffffffffffffffffffffffffffffff16146106cc576040517f08c379a00000000000000000000000000000000000000000000000000000000081526004016106c39061178f565b60405180910390fd5b816004846040516106dd91906117e7565b90815260200160405180910390205f6101000a81548173ffffffffffffffffffffffffffffffffffffffff021916908373ffffffffffffffffffffffffffffffffffffffff1602179055506001905092915050565b606060015f8373ffffffffffffffffffffffffffffffffffffffff1673ffffffffffffffffffffffffffffffffffffffff1681526020019081526020015f20805480602002602001604051908101604052809291908181526020015f905b82821015610838578382905f5260205f200180546107ad9061182a565b80601f01602080910402602001604051908101604052809291908181526020018280546107d99061182a565b80156108245780601f106107fb57610100808354040283529160200191610824565b820191905f5260205f20905b81548152906001019060200180831161080757829003601f168201915b505050505081526020019060010190610790565b505050509050919050565b5f6001151560035f3373ffffffffffffffffffffffffffffffffffffffff1673ffffffffffffffffffffffffffffffffffffffff1681526020019081526020015f205f9054906101000a900460ff161515146108d4576040517f08c379a00000000000000000000000000000000000000000000000000000000081526004016108cb9061178f565b60405180910390fd5b5f61092189898080601f0160208091040260200160405190810160405280939291908181526020018383808284375f81840152601f19601f82011690508083019250505050505050610512565b90505f73ffffffffffffffffffffffffffffffffffffffff168173ffffffffffffffffffffffffffffffffffffffff1603610991576040517f08c379a000000000000000000000000000000000000000000000000000000000815260040161098890611945565b60405180910390fd5b5f6109e1828588888080601f0160208091040260200160405190810160405280939291908181526020018383808284375f81840152601f19601f820116905080830192505050505050508a610d66565b90506040518060c001604052808d8d8080601f0160208091040260200160405190810160405280939291908181526020018383808284375f81840152601f19601f8201169050808301925050505050505081526020018b8b8080601f0160208091040260200160405190810160405280939291908181526020018383808284375f81840152601f19601f82011690508083019250505050505050815260200189815260200188815260200187878080601f0160208091040260200160405190810160405280939291908181526020018383808284375f81840152601f19601f8201169050808301925050505050505081526020018281525060065f820151815f019081610aee9190611b00565b506020820151816001019081610b049190611b00565b5060408201518160020155606082015181600301556080820151816004019081610b2e9190611b00565b5060a08201518160050155905050610d20828560066040518060c00160405290815f82018054610b5d9061182a565b80601f0160208091040260200160405190810160405280929190818152602001828054610b899061182a565b8015610bd45780601f10610bab57610100808354040283529160200191610bd4565b820191905f5260205f20905b815481529060010190602001808311610bb757829003601f168201915b50505050508152602001600182018054610bed9061182a565b80601f0160208091040260200160405190810160405280929190818152602001828054610c199061182a565b8015610c645780601f10610c3b57610100808354040283529160200191610c64565b820191905f5260205f20905b815481529060010190602001808311610c4757829003601f168201915b505050505081526020016002820154815260200160038201548152602001600482018054610c919061182a565b80601f0160208091040260200160405190810160405280929190818152602001828054610cbd9061182a565b8015610d085780601f10610cdf57610100808354040283529160200191610d08565b820191905f5260205f20905b815481529060010190602001808311610ceb57829003601f168201915b50505050508152602001600582015481525050610d9e565b5f610d2a83610732565b90505f815103610d3f57610d3e8386610eac565b5b610d4e83600660050154610f1d565b60066005015493505050509998505050505050505050565b5f84848484604051602001610d7e9493929190611c16565b604051602081830303815290604052805190602001209050949350505050565b805f808573ffffffffffffffffffffffffffffffffffffffff1673ffffffffffffffffffffffffffffffffffffffff1681526020019081526020015f2083604051610de991906117e7565b90815260200160405180910390205f820151815f019081610e0a9190611b00565b506020820151816001019081610e209190611b00565b5060408201518160020155606082015181600301556080820151816004019081610e4a9190611b00565b5060a082015181600501559050503373ffffffffffffffffffffffffffffffffffffffff167f214840ea044f43197a98c1a9b09034c14d0bce39b2a60521c55de14366c8f78d6006604051610e9f9190611deb565b60405180910390a2505050565b60015f8373ffffffffffffffffffffffffffffffffffffffff1673ffffffffffffffffffffffffffffffffffffffff1681526020019081526020015f2081908060018154018082558091505060019003905f5260205f20015f909190919091509081610f189190611b00565b505050565b60025f8373ffffffffffffffffffffffffffffffffffffffff1673ffffffffffffffffffffffffffffffffffffffff1681526020019081526020015f2081908060018154018082558091505060019003905f5260205f20015f90919091909150555050565b6040518060c0016040528060608152602001606081526020015f81526020015f8152602001606081526020015f80191681525090565b5f604051905090565b5f80fd5b5f80fd5b5f73ffffffffffffffffffffffffffffffffffffffff82169050919050565b5f610ff282610fc9565b9050919050565b61100281610fe8565b811461100c575f80fd5b50565b5f8135905061101d81610ff9565b92915050565b5f6020828403121561103857611037610fc1565b5b5f6110458482850161100f565b91505092915050565b5f80fd5b5f80fd5b5f601f19601f8301169050919050565b7f4e487b71000000000000000000000000000000000000000000000000000000005f52604160045260245ffd5b61109c82611056565b810181811067ffffffffffffffff821117156110bb576110ba611066565b5b80604052505050565b5f6110cd610fb8565b90506110d98282611093565b919050565b5f67ffffffffffffffff8211156110f8576110f7611066565b5b61110182611056565b9050602081019050919050565b828183375f83830152505050565b5f61112e611129846110de565b6110c4565b90508281526020810184848401111561114a57611149611052565b5b61115584828561110e565b509392505050565b5f82601f8301126111715761117061104e565b5b813561118184826020860161111c565b91505092915050565b5f80604083850312156111a05761119f610fc1565b5b5f6111ad8582860161100f565b925050602083013567ffffffffffffffff8111156111ce576111cd610fc5565b5b6111da8582860161115d565b9150509250929050565b5f81519050919050565b5f82825260208201905092915050565b5f5b8381101561121b578082015181840152602081019050611200565b5f8484015250505050565b5f611230826111e4565b61123a81856111ee565b935061124a8185602086016111fe565b61125381611056565b840191505092915050565b5f819050919050565b6112708161125e565b82525050565b5f819050919050565b61128881611276565b82525050565b5f60c083015f8301518482035f8601526112a88282611226565b915050602083015184820360208601526112c28282611226565b91505060408301516112d76040860182611267565b5060608301516112ea6060860182611267565b50608083015184820360808601526113028282611226565b91505060a083015161131760a086018261127f565b508091505092915050565b5f6020820190508181035f83015261133a818461128e565b905092915050565b5f6020828403121561135757611356610fc1565b5b5f82013567ffffffffffffffff81111561137457611373610fc5565b5b6113808482850161115d565b91505092915050565b61139281610fe8565b82525050565b5f6020820190506113ab5f830184611389565b92915050565b6113ba81611276565b81146113c4575f80fd5b50565b5f813590506113d5816113b1565b92915050565b5f80604083850312156113f1576113f0610fc1565b5b5f6113fe8582860161100f565b925050602061140f858286016113c7565b9150509250929050565b5f8115159050919050565b61142d81611419565b82525050565b5f6020820190506114465f830184611424565b92915050565b5f806040838503121561146257611461610fc1565b5b5f83013567ffffffffffffffff81111561147f5761147e610fc5565b5b61148b8582860161115d565b925050602061149c8582860161100f565b9150509250929050565b5f81519050919050565b5f82825260208201905092915050565b5f819050602082019050919050565b5f6114da8383611226565b905092915050565b5f602082019050919050565b5f6114f8826114a6565b61150281856114b0565b935083602082028501611514856114c0565b805f5b8581101561154f578484038952815161153085826114cf565b945061153b836114e2565b925060208a01995050600181019050611517565b50829750879550505050505092915050565b5f6020820190508181035f83015261157981846114ee565b905092915050565b5f80fd5b5f80fd5b5f8083601f84011261159e5761159d61104e565b5b8235905067ffffffffffffffff8111156115bb576115ba611581565b5b6020830191508360018202830111156115d7576115d6611585565b5b9250929050565b6115e78161125e565b81146115f1575f80fd5b50565b5f81359050611602816115de565b92915050565b5f805f805f805f805f60c08a8c03121561162557611624610fc1565b5b5f8a013567ffffffffffffffff81111561164257611641610fc5565b5b61164e8c828d01611589565b995099505060208a013567ffffffffffffffff81111561167157611670610fc5565b5b61167d8c828d01611589565b975097505060406116908c828d016115f4565b95505060606116a18c828d016115f4565b94505060808a013567ffffffffffffffff8111156116c2576116c1610fc5565b5b6116ce8c828d01611589565b935093505060a08a013567ffffffffffffffff8111156116f1576116f0610fc5565b5b6116fd8c828d0161115d565b9150509295985092959850929598565b61171681611276565b82525050565b5f60208201905061172f5f83018461170d565b92915050565b5f82825260208201905092915050565b7f4f6e6c79204f776e657220636f6e2061637469766174650000000000000000005f82015250565b5f611779601783611735565b915061178482611745565b602082019050919050565b5f6020820190508181035f8301526117a68161176d565b9050919050565b5f81905092915050565b5f6117c1826111e4565b6117cb81856117ad565b93506117db8185602086016111fe565b80840191505092915050565b5f6117f282846117b7565b915081905092915050565b7f4e487b71000000000000000000000000000000000000000000000000000000005f52602260045260245ffd5b5f600282049050600182168061184157607f821691505b602082108103611854576118536117fd565b5b50919050565b7f4e487b71000000000000000000000000000000000000000000000000000000005f52603260045260245ffd5b7f4e487b71000000000000000000000000000000000000000000000000000000005f52601160045260245ffd5b5f6118be8261125e565b91507fffffffffffffffffffffffffffffffffffffffffffffffffffffffffffffffff82036118f0576118ef611887565b5b600182019050919050565b7f526966204e6f74205265676973747265642068617320546178706179657200005f82015250565b5f61192f601e83611735565b915061193a826118fb565b602082019050919050565b5f6020820190508181035f83015261195c81611923565b9050919050565b5f819050815f5260205f209050919050565b5f6020601f8301049050919050565b5f82821b905092915050565b5f600883026119bf7fffffffffffffffffffffffffffffffffffffffffffffffffffffffffffffffff82611984565b6119c98683611984565b95508019841693508086168417925050509392505050565b5f819050919050565b5f611a046119ff6119fa8461125e565b6119e1565b61125e565b9050919050565b5f819050919050565b611a1d836119ea565b611a31611a2982611a0b565b848454611990565b825550505050565b5f90565b611a45611a39565b611a50818484611a14565b505050565b5b81811015611a7357611a685f82611a3d565b600181019050611a56565b5050565b601f821115611ab857611a8981611963565b611a9284611975565b81016020851015611aa1578190505b611ab5611aad85611975565b830182611a55565b50505b505050565b5f82821c905092915050565b5f611ad85f1984600802611abd565b1980831691505092915050565b5f611af08383611ac9565b9150826002028217905092915050565b611b09826111e4565b67ffffffffffffffff811115611b2257611b21611066565b5b611b2c825461182a565b611b37828285611a77565b5f60209050601f831160018114611b68575f8415611b56578287015190505b611b608582611ae5565b865550611bc7565b601f198416611b7686611963565b5f5b82811015611b9d57848901518255600182019150602085019450602081019050611b78565b86831015611bba5784890151611bb6601f891682611ac9565b8355505b6001600288020188555050505b505050505050565b5f611bd9826111e4565b611be38185611735565b9350611bf38185602086016111fe565b611bfc81611056565b840191505092915050565b611c108161125e565b82525050565b5f608082019050611c295f830187611389565b8181036020830152611c3b8186611bcf565b90508181036040830152611c4f8185611bcf565b9050611c5e6060830184611c07565b95945050505050565b5f8154611c738161182a565b611c7d81866111ee565b9450600182165f8114611c975760018114611cad57611cdf565b60ff198316865281151560200286019350611cdf565b611cb685611963565b5f5b83811015611cd757815481890152600182019150602081019050611cb8565b808801955050505b50505092915050565b5f815f1c9050919050565b5f819050919050565b5f611d0e611d0983611ce8565b611cf3565b9050919050565b5f819050919050565b5f611d30611d2b83611ce8565b611d15565b9050919050565b5f60c083015f8084018583035f870152611d518382611c67565b925050600184018583036020870152611d6a8382611c67565b92505060028401549050611d7d81611cfc565b611d8a6040870182611267565b5060038401549050611d9b81611cfc565b611da86060870182611267565b50600484018583036080870152611dbf8382611c67565b92505060058401549050611dd281611d1e565b611ddf60a087018261127f565b50819250505092915050565b5f6020820190508181035f830152611e038184611d37565b90509291505056fea26469706673582212206bfbce0851cac5442c0d304cefcc3a01481aceec1610c45edb5c03ad68485f8d64736f6c63430008140033",
					"opcodes": "PUSH1 0x80 PUSH1 0x40 MSTORE CALLVALUE DUP1 ISZERO PUSH2 0xF JUMPI PUSH0 DUP1 REVERT JUMPDEST POP PUSH1 0x1 PUSH1 0x3 PUSH0 CALLER PUSH20 0xFFFFFFFFFFFFFFFFFFFFFFFFFFFFFFFFFFFFFFFF AND PUSH20 0xFFFFFFFFFFFFFFFFFFFFFFFFFFFFFFFFFFFFFFFF AND DUP2 MSTORE PUSH1 0x20 ADD SWAP1 DUP2 MSTORE PUSH1 0x20 ADD PUSH0 KECCAK256 PUSH0 PUSH2 0x100 EXP DUP2 SLOAD DUP2 PUSH1 0xFF MUL NOT AND SWAP1 DUP4 ISZERO ISZERO MUL OR SWAP1 SSTORE POP CALLER PUSH1 0x5 PUSH0 PUSH2 0x100 EXP DUP2 SLOAD DUP2 PUSH20 0xFFFFFFFFFFFFFFFFFFFFFFFFFFFFFFFFFFFFFFFF MUL NOT AND SWAP1 DUP4 PUSH20 0xFFFFFFFFFFFFFFFFFFFFFFFFFFFFFFFFFFFFFFFF AND MUL OR SWAP1 SSTORE POP PUSH2 0x1E41 DUP1 PUSH2 0xB2 PUSH0 CODECOPY PUSH0 RETURN INVALID PUSH1 0x80 PUSH1 0x40 MSTORE PUSH1 0x4 CALLDATASIZE LT PUSH2 0x6F JUMPI PUSH0 CALLDATALOAD PUSH1 0xE0 SHR DUP1 PUSH4 0x8C7C0098 GT PUSH2 0x4D JUMPI DUP1 PUSH4 0x8C7C0098 EQ PUSH2 0x107 JUMPI DUP1 PUSH4 0x9DFB7831 EQ PUSH2 0x143 JUMPI DUP1 PUSH4 0xD1A81411 EQ PUSH2 0x17F JUMPI DUP1 PUSH4 0xDD2BD41E EQ PUSH2 0x1BB JUMPI PUSH2 0x6F JUMP JUMPDEST DUP1 PUSH4 0x5F3B1F3B EQ PUSH2 0x73 JUMPI DUP1 PUSH4 0x61AD6D37 EQ PUSH2 0x8F JUMPI DUP1 PUSH4 0x84E26B2C EQ PUSH2 0xCB JUMPI JUMPDEST PUSH0 DUP1 REVERT JUMPDEST PUSH2 0x8D PUSH1 0x4 DUP1 CALLDATASIZE SUB DUP2 ADD SWAP1 PUSH2 0x88 SWAP2 SWAP1 PUSH2 0x1023 JUMP JUMPDEST PUSH2 0x1EB JUMP JUMPDEST STOP JUMPDEST CALLVALUE DUP1 ISZERO PUSH2 0x9A JUMPI PUSH0 DUP1 REVERT JUMPDEST POP PUSH2 0xB5 PUSH1 0x4 DUP1 CALLDATASIZE SUB DUP2 ADD SWAP1 PUSH2 0xB0 SWAP2 SWAP1 PUSH2 0x118A JUMP JUMPDEST PUSH2 0x2D2 JUMP JUMPDEST PUSH1 0x40 MLOAD PUSH2 0xC2 SWAP2 SWAP1 PUSH2 0x1322 JUMP JUMPDEST PUSH1 0x40 MLOAD DUP1 SWAP2 SUB SWAP1 RETURN JUMPDEST CALLVALUE DUP1 ISZERO PUSH2 0xD6 JUMPI PUSH0 DUP1 REVERT JUMPDEST POP PUSH2 0xF1 PUSH1 0x4 DUP1 CALLDATASIZE SUB DUP2 ADD SWAP1 PUSH2 0xEC SWAP2 SWAP1 PUSH2 0x1342 JUMP JUMPDEST PUSH2 0x512 JUMP JUMPDEST PUSH1 0x40 MLOAD PUSH2 0xFE SWAP2 SWAP1 PUSH2 0x1398 JUMP JUMPDEST PUSH1 0x40 MLOAD DUP1 SWAP2 SUB SWAP1 RETURN JUMPDEST CALLVALUE DUP1 ISZERO PUSH2 0x112 JUMPI PUSH0 DUP1 REVERT JUMPDEST POP PUSH2 0x12D PUSH1 0x4 DUP1 CALLDATASIZE SUB DUP2 ADD SWAP1 PUSH2 0x128 SWAP2 SWAP1 PUSH2 0x13DB JUMP JUMPDEST PUSH2 0x558 JUMP JUMPDEST PUSH1 0x40 MLOAD PUSH2 0x13A SWAP2 SWAP1 PUSH2 0x1433 JUMP JUMPDEST PUSH1 0x40 MLOAD DUP1 SWAP2 SUB SWAP1 RETURN JUMPDEST CALLVALUE DUP1 ISZERO PUSH2 0x14E JUMPI PUSH0 DUP1 REVERT JUMPDEST POP PUSH2 0x169 PUSH1 0x4 DUP1 CALLDATASIZE SUB DUP2 ADD SWAP1 PUSH2 0x164 SWAP2 SWAP1 PUSH2 0x144C JUMP JUMPDEST PUSH2 0x63C JUMP JUMPDEST PUSH1 0x40 MLOAD PUSH2 0x176 SWAP2 SWAP1 PUSH2 0x1433 JUMP JUMPDEST PUSH1 0x40 MLOAD DUP1 SWAP2 SUB SWAP1 RETURN JUMPDEST CALLVALUE DUP1 ISZERO PUSH2 0x18A JUMPI PUSH0 DUP1 REVERT JUMPDEST POP PUSH2 0x1A5 PUSH1 0x4 DUP1 CALLDATASIZE SUB DUP2 ADD SWAP1 PUSH2 0x1A0 SWAP2 SWAP1 PUSH2 0x1023 JUMP JUMPDEST PUSH2 0x732 JUMP JUMPDEST PUSH1 0x40 MLOAD PUSH2 0x1B2 SWAP2 SWAP1 PUSH2 0x1561 JUMP JUMPDEST PUSH1 0x40 MLOAD DUP1 SWAP2 SUB SWAP1 RETURN JUMPDEST PUSH2 0x1D5 PUSH1 0x4 DUP1 CALLDATASIZE SUB DUP2 ADD SWAP1 PUSH2 0x1D0 SWAP2 SWAP1 PUSH2 0x1608 JUMP JUMPDEST PUSH2 0x843 JUMP JUMPDEST PUSH1 0x40 MLOAD PUSH2 0x1E2 SWAP2 SWAP1 PUSH2 0x171C JUMP JUMPDEST PUSH1 0x40 MLOAD DUP1 SWAP2 SUB SWAP1 RETURN JUMPDEST PUSH1 0x5 PUSH0 SWAP1 SLOAD SWAP1 PUSH2 0x100 EXP SWAP1 DIV PUSH20 0xFFFFFFFFFFFFFFFFFFFFFFFFFFFFFFFFFFFFFFFF AND PUSH20 0xFFFFFFFFFFFFFFFFFFFFFFFFFFFFFFFFFFFFFFFF AND CALLER PUSH20 0xFFFFFFFFFFFFFFFFFFFFFFFFFFFFFFFFFFFFFFFF AND EQ PUSH2 0x27A JUMPI PUSH1 0x40 MLOAD PUSH32 0x8C379A000000000000000000000000000000000000000000000000000000000 DUP2 MSTORE PUSH1 0x4 ADD PUSH2 0x271 SWAP1 PUSH2 0x178F JUMP JUMPDEST PUSH1 0x40 MLOAD DUP1 SWAP2 SUB SWAP1 REVERT JUMPDEST PUSH1 0x1 PUSH1 0x3 PUSH0 DUP4 PUSH20 0xFFFFFFFFFFFFFFFFFFFFFFFFFFFFFFFFFFFFFFFF AND PUSH20 0xFFFFFFFFFFFFFFFFFFFFFFFFFFFFFFFFFFFFFFFF AND DUP2 MSTORE PUSH1 0x20 ADD SWAP1 DUP2 MSTORE PUSH1 0x20 ADD PUSH0 KECCAK256 PUSH0 PUSH2 0x100 EXP DUP2 SLOAD DUP2 PUSH1 0xFF MUL NOT AND SWAP1 DUP4 ISZERO ISZERO MUL OR SWAP1 SSTORE POP POP JUMP JUMPDEST PUSH2 0x2DA PUSH2 0xF82 JUMP JUMPDEST PUSH0 DUP1 DUP5 PUSH20 0xFFFFFFFFFFFFFFFFFFFFFFFFFFFFFFFFFFFFFFFF AND PUSH20 0xFFFFFFFFFFFFFFFFFFFFFFFFFFFFFFFFFFFFFFFF AND DUP2 MSTORE PUSH1 0x20 ADD SWAP1 DUP2 MSTORE PUSH1 0x20 ADD PUSH0 KECCAK256 DUP3 PUSH1 0x40 MLOAD PUSH2 0x324 SWAP2 SWAP1 PUSH2 0x17E7 JUMP JUMPDEST SWAP1 DUP2 MSTORE PUSH1 0x20 ADD PUSH1 0x40 MLOAD DUP1 SWAP2 SUB SWAP1 KECCAK256 PUSH1 0x40 MLOAD DUP1 PUSH1 0xC0 ADD PUSH1 0x40 MSTORE SWAP1 DUP2 PUSH0 DUP3 ADD DUP1 SLOAD PUSH2 0x34C SWAP1 PUSH2 0x182A JUMP JUMPDEST DUP1 PUSH1 0x1F ADD PUSH1 0x20 DUP1 SWAP2 DIV MUL PUSH1 0x20 ADD PUSH1 0x40 MLOAD SWAP1 DUP2 ADD PUSH1 0x40 MSTORE DUP1 SWAP3 SWAP2 SWAP1 DUP2 DUP2 MSTORE PUSH1 0x20 ADD DUP3 DUP1 SLOAD PUSH2 0x378 SWAP1 PUSH2 0x182A JUMP JUMPDEST DUP1 ISZERO PUSH2 0x3C3 JUMPI DUP1 PUSH1 0x1F LT PUSH2 0x39A JUMPI PUSH2 0x100 DUP1 DUP4 SLOAD DIV MUL DUP4 MSTORE SWAP2 PUSH1 0x20 ADD SWAP2 PUSH2 0x3C3 JUMP JUMPDEST DUP3 ADD SWAP2 SWAP1 PUSH0 MSTORE PUSH1 0x20 PUSH0 KECCAK256 SWAP1 JUMPDEST DUP2 SLOAD DUP2 MSTORE SWAP1 PUSH1 0x1 ADD SWAP1 PUSH1 0x20 ADD DUP1 DUP4 GT PUSH2 0x3A6 JUMPI DUP3 SWAP1 SUB PUSH1 0x1F AND DUP3 ADD SWAP2 JUMPDEST POP POP POP POP POP DUP2 MSTORE PUSH1 0x20 ADD PUSH1 0x1 DUP3 ADD DUP1 SLOAD PUSH2 0x3DC SWAP1 PUSH2 0x182A JUMP JUMPDEST DUP1 PUSH1 0x1F ADD PUSH1 0x20 DUP1 SWAP2 DIV MUL PUSH1 0x20 ADD PUSH1 0x40 MLOAD SWAP1 DUP2 ADD PUSH1 0x40 MSTORE DUP1 SWAP3 SWAP2 SWAP1 DUP2 DUP2 MSTORE PUSH1 0x20 ADD DUP3 DUP1 SLOAD PUSH2 0x408 SWAP1 PUSH2 0x182A JUMP JUMPDEST DUP1 ISZERO PUSH2 0x453 JUMPI DUP1 PUSH1 0x1F LT PUSH2 0x42A JUMPI PUSH2 0x100 DUP1 DUP4 SLOAD DIV MUL DUP4 MSTORE SWAP2 PUSH1 0x20 ADD SWAP2 PUSH2 0x453 JUMP JUMPDEST DUP3 ADD SWAP2 SWAP1 PUSH0 MSTORE PUSH1 0x20 PUSH0 KECCAK256 SWAP1 JUMPDEST DUP2 SLOAD DUP2 MSTORE SWAP1 PUSH1 0x1 ADD SWAP1 PUSH1 0x20 ADD DUP1 DUP4 GT PUSH2 0x436 JUMPI DUP3 SWAP1 SUB PUSH1 0x1F AND DUP3 ADD SWAP2 JUMPDEST POP POP POP POP POP DUP2 MSTORE PUSH1 0x20 ADD PUSH1 0x2 DUP3 ADD SLOAD DUP2 MSTORE PUSH1 0x20 ADD PUSH1 0x3 DUP3 ADD SLOAD DUP2 MSTORE PUSH1 0x20 ADD PUSH1 0x4 DUP3 ADD DUP1 SLOAD PUSH2 0x480 SWAP1 PUSH2 0x182A JUMP JUMPDEST DUP1 PUSH1 0x1F ADD PUSH1 0x20 DUP1 SWAP2 DIV MUL PUSH1 0x20 ADD PUSH1 0x40 MLOAD SWAP1 DUP2 ADD PUSH1 0x40 MSTORE DUP1 SWAP3 SWAP2 SWAP1 DUP2 DUP2 MSTORE PUSH1 0x20 ADD DUP3 DUP1 SLOAD PUSH2 0x4AC SWAP1 PUSH2 0x182A JUMP JUMPDEST DUP1 ISZERO PUSH2 0x4F7 JUMPI DUP1 PUSH1 0x1F LT PUSH2 0x4CE JUMPI PUSH2 0x100 DUP1 DUP4 SLOAD DIV MUL DUP4 MSTORE SWAP2 PUSH1 0x20 ADD SWAP2 PUSH2 0x4F7 JUMP JUMPDEST DUP3 ADD SWAP2 SWAP1 PUSH0 MSTORE PUSH1 0x20 PUSH0 KECCAK256 SWAP1 JUMPDEST DUP2 SLOAD DUP2 MSTORE SWAP1 PUSH1 0x1 ADD SWAP1 PUSH1 0x20 ADD DUP1 DUP4 GT PUSH2 0x4DA JUMPI DUP3 SWAP1 SUB PUSH1 0x1F AND DUP3 ADD SWAP2 JUMPDEST POP POP POP POP POP DUP2 MSTORE PUSH1 0x20 ADD PUSH1 0x5 DUP3 ADD SLOAD DUP2 MSTORE POP POP SWAP1 POP SWAP3 SWAP2 POP POP JUMP JUMPDEST PUSH0 PUSH1 0x4 DUP3 PUSH1 0x40 MLOAD PUSH2 0x523 SWAP2 SWAP1 PUSH2 0x17E7 JUMP JUMPDEST SWAP1 DUP2 MSTORE PUSH1 0x20 ADD PUSH1 0x40 MLOAD DUP1 SWAP2 SUB SWAP1 KECCAK256 PUSH0 SWAP1 SLOAD SWAP1 PUSH2 0x100 EXP SWAP1 DIV PUSH20 0xFFFFFFFFFFFFFFFFFFFFFFFFFFFFFFFFFFFFFFFF AND SWAP1 POP SWAP2 SWAP1 POP JUMP JUMPDEST PUSH0 DUP1 PUSH1 0x2 PUSH0 DUP6 PUSH20 0xFFFFFFFFFFFFFFFFFFFFFFFFFFFFFFFFFFFFFFFF AND PUSH20 0xFFFFFFFFFFFFFFFFFFFFFFFFFFFFFFFFFFFFFFFF AND DUP2 MSTORE PUSH1 0x20 ADD SWAP1 DUP2 MSTORE PUSH1 0x20 ADD PUSH0 KECCAK256 DUP1 SLOAD DUP1 PUSH1 0x20 MUL PUSH1 0x20 ADD PUSH1 0x40 MLOAD SWAP1 DUP2 ADD PUSH1 0x40 MSTORE DUP1 SWAP3 SWAP2 SWAP1 DUP2 DUP2 MSTORE PUSH1 0x20 ADD DUP3 DUP1 SLOAD DUP1 ISZERO PUSH2 0x5DF JUMPI PUSH1 0x20 MUL DUP3 ADD SWAP2 SWAP1 PUSH0 MSTORE PUSH1 0x20 PUSH0 KECCAK256 SWAP1 JUMPDEST DUP2 SLOAD DUP2 MSTORE PUSH1 0x20 ADD SWAP1 PUSH1 0x1 ADD SWAP1 DUP1 DUP4 GT PUSH2 0x5CB JUMPI JUMPDEST POP POP POP POP POP SWAP1 POP PUSH0 JUMPDEST DUP2 MLOAD DUP2 LT ISZERO PUSH2 0x630 JUMPI DUP4 DUP3 DUP3 DUP2 MLOAD DUP2 LT PUSH2 0x605 JUMPI PUSH2 0x604 PUSH2 0x185A JUMP JUMPDEST JUMPDEST PUSH1 0x20 MUL PUSH1 0x20 ADD ADD MLOAD SUB PUSH2 0x61D JUMPI PUSH1 0x1 SWAP3 POP POP POP PUSH2 0x636 JUMP JUMPDEST DUP1 DUP1 PUSH2 0x628 SWAP1 PUSH2 0x18B4 JUMP JUMPDEST SWAP2 POP POP PUSH2 0x5E8 JUMP JUMPDEST POP PUSH0 SWAP2 POP POP JUMPDEST SWAP3 SWAP2 POP POP JUMP JUMPDEST PUSH0 PUSH1 0x5 PUSH0 SWAP1 SLOAD SWAP1 PUSH2 0x100 EXP SWAP1 DIV PUSH20 0xFFFFFFFFFFFFFFFFFFFFFFFFFFFFFFFFFFFFFFFF AND PUSH20 0xFFFFFFFFFFFFFFFFFFFFFFFFFFFFFFFFFFFFFFFF AND CALLER PUSH20 0xFFFFFFFFFFFFFFFFFFFFFFFFFFFFFFFFFFFFFFFF AND EQ PUSH2 0x6CC JUMPI PUSH1 0x40 MLOAD PUSH32 0x8C379A000000000000000000000000000000000000000000000000000000000 DUP2 MSTORE PUSH1 0x4 ADD PUSH2 0x6C3 SWAP1 PUSH2 0x178F JUMP JUMPDEST PUSH1 0x40 MLOAD DUP1 SWAP2 SUB SWAP1 REVERT JUMPDEST DUP2 PUSH1 0x4 DUP5 PUSH1 0x40 MLOAD PUSH2 0x6DD SWAP2 SWAP1 PUSH2 0x17E7 JUMP JUMPDEST SWAP1 DUP2 MSTORE PUSH1 0x20 ADD PUSH1 0x40 MLOAD DUP1 SWAP2 SUB SWAP1 KECCAK256 PUSH0 PUSH2 0x100 EXP DUP2 SLOAD DUP2 PUSH20 0xFFFFFFFFFFFFFFFFFFFFFFFFFFFFFFFFFFFFFFFF MUL NOT AND SWAP1 DUP4 PUSH20 0xFFFFFFFFFFFFFFFFFFFFFFFFFFFFFFFFFFFFFFFF AND MUL OR SWAP1 SSTORE POP PUSH1 0x1 SWAP1 POP SWAP3 SWAP2 POP POP JUMP JUMPDEST PUSH1 0x60 PUSH1 0x1 PUSH0 DUP4 PUSH20 0xFFFFFFFFFFFFFFFFFFFFFFFFFFFFFFFFFFFFFFFF AND PUSH20 0xFFFFFFFFFFFFFFFFFFFFFFFFFFFFFFFFFFFFFFFF AND DUP2 MSTORE PUSH1 0x20 ADD SWAP1 DUP2 MSTORE PUSH1 0x20 ADD PUSH0 KECCAK256 DUP1 SLOAD DUP1 PUSH1 0x20 MUL PUSH1 0x20 ADD PUSH1 0x40 MLOAD SWAP1 DUP2 ADD PUSH1 0x40 MSTORE DUP1 SWAP3 SWAP2 SWAP1 DUP2 DUP2 MSTORE PUSH1 0x20 ADD PUSH0 SWAP1 JUMPDEST DUP3 DUP3 LT ISZERO PUSH2 0x838 JUMPI DUP4 DUP3 SWAP1 PUSH0 MSTORE PUSH1 0x20 PUSH0 KECCAK256 ADD DUP1 SLOAD PUSH2 0x7AD SWAP1 PUSH2 0x182A JUMP JUMPDEST DUP1 PUSH1 0x1F ADD PUSH1 0x20 DUP1 SWAP2 DIV MUL PUSH1 0x20 ADD PUSH1 0x40 MLOAD SWAP1 DUP2 ADD PUSH1 0x40 MSTORE DUP1 SWAP3 SWAP2 SWAP1 DUP2 DUP2 MSTORE PUSH1 0x20 ADD DUP3 DUP1 SLOAD PUSH2 0x7D9 SWAP1 PUSH2 0x182A JUMP JUMPDEST DUP1 ISZERO PUSH2 0x824 JUMPI DUP1 PUSH1 0x1F LT PUSH2 0x7FB JUMPI PUSH2 0x100 DUP1 DUP4 SLOAD DIV MUL DUP4 MSTORE SWAP2 PUSH1 0x20 ADD SWAP2 PUSH2 0x824 JUMP JUMPDEST DUP3 ADD SWAP2 SWAP1 PUSH0 MSTORE PUSH1 0x20 PUSH0 KECCAK256 SWAP1 JUMPDEST DUP2 SLOAD DUP2 MSTORE SWAP1 PUSH1 0x1 ADD SWAP1 PUSH1 0x20 ADD DUP1 DUP4 GT PUSH2 0x807 JUMPI DUP3 SWAP1 SUB PUSH1 0x1F AND DUP3 ADD SWAP2 JUMPDEST POP POP POP POP POP DUP2 MSTORE PUSH1 0x20 ADD SWAP1 PUSH1 0x1 ADD SWAP1 PUSH2 0x790 JUMP JUMPDEST POP POP POP POP SWAP1 POP SWAP2 SWAP1 POP JUMP JUMPDEST PUSH0 PUSH1 0x1 ISZERO ISZERO PUSH1 0x3 PUSH0 CALLER PUSH20 0xFFFFFFFFFFFFFFFFFFFFFFFFFFFFFFFFFFFFFFFF AND PUSH20 0xFFFFFFFFFFFFFFFFFFFFFFFFFFFFFFFFFFFFFFFF AND DUP2 MSTORE PUSH1 0x20 ADD SWAP1 DUP2 MSTORE PUSH1 0x20 ADD PUSH0 KECCAK256 PUSH0 SWAP1 SLOAD SWAP1 PUSH2 0x100 EXP SWAP1 DIV PUSH1 0xFF AND ISZERO ISZERO EQ PUSH2 0x8D4 JUMPI PUSH1 0x40 MLOAD PUSH32 0x8C379A000000000000000000000000000000000000000000000000000000000 DUP2 MSTORE PUSH1 0x4 ADD PUSH2 0x8CB SWAP1 PUSH2 0x178F JUMP JUMPDEST PUSH1 0x40 MLOAD DUP1 SWAP2 SUB SWAP1 REVERT JUMPDEST PUSH0 PUSH2 0x921 DUP10 DUP10 DUP1 DUP1 PUSH1 0x1F ADD PUSH1 0x20 DUP1 SWAP2 DIV MUL PUSH1 0x20 ADD PUSH1 0x40 MLOAD SWAP1 DUP2 ADD PUSH1 0x40 MSTORE DUP1 SWAP4 SWAP3 SWAP2 SWAP1 DUP2 DUP2 MSTORE PUSH1 0x20 ADD DUP4 DUP4 DUP1 DUP3 DUP5 CALLDATACOPY PUSH0 DUP2 DUP5 ADD MSTORE PUSH1 0x1F NOT PUSH1 0x1F DUP3 ADD AND SWAP1 POP DUP1 DUP4 ADD SWAP3 POP POP POP POP POP POP POP PUSH2 0x512 JUMP JUMPDEST SWAP1 POP PUSH0 PUSH20 0xFFFFFFFFFFFFFFFFFFFFFFFFFFFFFFFFFFFFFFFF AND DUP2 PUSH20 0xFFFFFFFFFFFFFFFFFFFFFFFFFFFFFFFFFFFFFFFF AND SUB PUSH2 0x991 JUMPI PUSH1 0x40 MLOAD PUSH32 0x8C379A000000000000000000000000000000000000000000000000000000000 DUP2 MSTORE PUSH1 0x4 ADD PUSH2 0x988 SWAP1 PUSH2 0x1945 JUMP JUMPDEST PUSH1 0x40 MLOAD DUP1 SWAP2 SUB SWAP1 REVERT JUMPDEST PUSH0 PUSH2 0x9E1 DUP3 DUP6 DUP9 DUP9 DUP1 DUP1 PUSH1 0x1F ADD PUSH1 0x20 DUP1 SWAP2 DIV MUL PUSH1 0x20 ADD PUSH1 0x40 MLOAD SWAP1 DUP2 ADD PUSH1 0x40 MSTORE DUP1 SWAP4 SWAP3 SWAP2 SWAP1 DUP2 DUP2 MSTORE PUSH1 0x20 ADD DUP4 DUP4 DUP1 DUP3 DUP5 CALLDATACOPY PUSH0 DUP2 DUP5 ADD MSTORE PUSH1 0x1F NOT PUSH1 0x1F DUP3 ADD AND SWAP1 POP DUP1 DUP4 ADD SWAP3 POP POP POP POP POP POP POP DUP11 PUSH2 0xD66 JUMP JUMPDEST SWAP1 POP PUSH1 0x40 MLOAD DUP1 PUSH1 0xC0 ADD PUSH1 0x40 MSTORE DUP1 DUP14 DUP14 DUP1 DUP1 PUSH1 0x1F ADD PUSH1 0x20 DUP1 SWAP2 DIV MUL PUSH1 0x20 ADD PUSH1 0x40 MLOAD SWAP1 DUP2 ADD PUSH1 0x40 MSTORE DUP1 SWAP4 SWAP3 SWAP2 SWAP1 DUP2 DUP2 MSTORE PUSH1 0x20 ADD DUP4 DUP4 DUP1 DUP3 DUP5 CALLDATACOPY PUSH0 DUP2 DUP5 ADD MSTORE PUSH1 0x1F NOT PUSH1 0x1F DUP3 ADD AND SWAP1 POP DUP1 DUP4 ADD SWAP3 POP POP POP POP POP POP POP DUP2 MSTORE PUSH1 0x20 ADD DUP12 DUP12 DUP1 DUP1 PUSH1 0x1F ADD PUSH1 0x20 DUP1 SWAP2 DIV MUL PUSH1 0x20 ADD PUSH1 0x40 MLOAD SWAP1 DUP2 ADD PUSH1 0x40 MSTORE DUP1 SWAP4 SWAP3 SWAP2 SWAP1 DUP2 DUP2 MSTORE PUSH1 0x20 ADD DUP4 DUP4 DUP1 DUP3 DUP5 CALLDATACOPY PUSH0 DUP2 DUP5 ADD MSTORE PUSH1 0x1F NOT PUSH1 0x1F DUP3 ADD AND SWAP1 POP DUP1 DUP4 ADD SWAP3 POP POP POP POP POP POP POP DUP2 MSTORE PUSH1 0x20 ADD DUP10 DUP2 MSTORE PUSH1 0x20 ADD DUP9 DUP2 MSTORE PUSH1 0x20 ADD DUP8 DUP8 DUP1 DUP1 PUSH1 0x1F ADD PUSH1 0x20 DUP1 SWAP2 DIV MUL PUSH1 0x20 ADD PUSH1 0x40 MLOAD SWAP1 DUP2 ADD PUSH1 0x40 MSTORE DUP1 SWAP4 SWAP3 SWAP2 SWAP1 DUP2 DUP2 MSTORE PUSH1 0x20 ADD DUP4 DUP4 DUP1 DUP3 DUP5 CALLDATACOPY PUSH0 DUP2 DUP5 ADD MSTORE PUSH1 0x1F NOT PUSH1 0x1F DUP3 ADD AND SWAP1 POP DUP1 DUP4 ADD SWAP3 POP POP POP POP POP POP POP DUP2 MSTORE PUSH1 0x20 ADD DUP3 DUP2 MSTORE POP PUSH1 0x6 PUSH0 DUP3 ADD MLOAD DUP2 PUSH0 ADD SWAP1 DUP2 PUSH2 0xAEE SWAP2 SWAP1 PUSH2 0x1B00 JUMP JUMPDEST POP PUSH1 0x20 DUP3 ADD MLOAD DUP2 PUSH1 0x1 ADD SWAP1 DUP2 PUSH2 0xB04 SWAP2 SWAP1 PUSH2 0x1B00 JUMP JUMPDEST POP PUSH1 0x40 DUP3 ADD MLOAD DUP2 PUSH1 0x2 ADD SSTORE PUSH1 0x60 DUP3 ADD MLOAD DUP2 PUSH1 0x3 ADD SSTORE PUSH1 0x80 DUP3 ADD MLOAD DUP2 PUSH1 0x4 ADD SWAP1 DUP2 PUSH2 0xB2E SWAP2 SWAP1 PUSH2 0x1B00 JUMP JUMPDEST POP PUSH1 0xA0 DUP3 ADD MLOAD DUP2 PUSH1 0x5 ADD SSTORE SWAP1 POP POP PUSH2 0xD20 DUP3 DUP6 PUSH1 0x6 PUSH1 0x40 MLOAD DUP1 PUSH1 0xC0 ADD PUSH1 0x40 MSTORE SWAP1 DUP2 PUSH0 DUP3 ADD DUP1 SLOAD PUSH2 0xB5D SWAP1 PUSH2 0x182A JUMP JUMPDEST DUP1 PUSH1 0x1F ADD PUSH1 0x20 DUP1 SWAP2 DIV MUL PUSH1 0x20 ADD PUSH1 0x40 MLOAD SWAP1 DUP2 ADD PUSH1 0x40 MSTORE DUP1 SWAP3 SWAP2 SWAP1 DUP2 DUP2 MSTORE PUSH1 0x20 ADD DUP3 DUP1 SLOAD PUSH2 0xB89 SWAP1 PUSH2 0x182A JUMP JUMPDEST DUP1 ISZERO PUSH2 0xBD4 JUMPI DUP1 PUSH1 0x1F LT PUSH2 0xBAB JUMPI PUSH2 0x100 DUP1 DUP4 SLOAD DIV MUL DUP4 MSTORE SWAP2 PUSH1 0x20 ADD SWAP2 PUSH2 0xBD4 JUMP JUMPDEST DUP3 ADD SWAP2 SWAP1 PUSH0 MSTORE PUSH1 0x20 PUSH0 KECCAK256 SWAP1 JUMPDEST DUP2 SLOAD DUP2 MSTORE SWAP1 PUSH1 0x1 ADD SWAP1 PUSH1 0x20 ADD DUP1 DUP4 GT PUSH2 0xBB7 JUMPI DUP3 SWAP1 SUB PUSH1 0x1F AND DUP3 ADD SWAP2 JUMPDEST POP POP POP POP POP DUP2 MSTORE PUSH1 0x20 ADD PUSH1 0x1 DUP3 ADD DUP1 SLOAD PUSH2 0xBED SWAP1 PUSH2 0x182A JUMP JUMPDEST DUP1 PUSH1 0x1F ADD PUSH1 0x20 DUP1 SWAP2 DIV MUL PUSH1 0x20 ADD PUSH1 0x40 MLOAD SWAP1 DUP2 ADD PUSH1 0x40 MSTORE DUP1 SWAP3 SWAP2 SWAP1 DUP2 DUP2 MSTORE PUSH1 0x20 ADD DUP3 DUP1 SLOAD PUSH2 0xC19 SWAP1 PUSH2 0x182A JUMP JUMPDEST DUP1 ISZERO PUSH2 0xC64 JUMPI DUP1 PUSH1 0x1F LT PUSH2 0xC3B JUMPI PUSH2 0x100 DUP1 DUP4 SLOAD DIV MUL DUP4 MSTORE SWAP2 PUSH1 0x20 ADD SWAP2 PUSH2 0xC64 JUMP JUMPDEST DUP3 ADD SWAP2 SWAP1 PUSH0 MSTORE PUSH1 0x20 PUSH0 KECCAK256 SWAP1 JUMPDEST DUP2 SLOAD DUP2 MSTORE SWAP1 PUSH1 0x1 ADD SWAP1 PUSH1 0x20 ADD DUP1 DUP4 GT PUSH2 0xC47 JUMPI DUP3 SWAP1 SUB PUSH1 0x1F AND DUP3 ADD SWAP2 JUMPDEST POP POP POP POP POP DUP2 MSTORE PUSH1 0x20 ADD PUSH1 0x2 DUP3 ADD SLOAD DUP2 MSTORE PUSH1 0x20 ADD PUSH1 0x3 DUP3 ADD SLOAD DUP2 MSTORE PUSH1 0x20 ADD PUSH1 0x4 DUP3 ADD DUP1 SLOAD PUSH2 0xC91 SWAP1 PUSH2 0x182A JUMP JUMPDEST DUP1 PUSH1 0x1F ADD PUSH1 0x20 DUP1 SWAP2 DIV MUL PUSH1 0x20 ADD PUSH1 0x40 MLOAD SWAP1 DUP2 ADD PUSH1 0x40 MSTORE DUP1 SWAP3 SWAP2 SWAP1 DUP2 DUP2 MSTORE PUSH1 0x20 ADD DUP3 DUP1 SLOAD PUSH2 0xCBD SWAP1 PUSH2 0x182A JUMP JUMPDEST DUP1 ISZERO PUSH2 0xD08 JUMPI DUP1 PUSH1 0x1F LT PUSH2 0xCDF JUMPI PUSH2 0x100 DUP1 DUP4 SLOAD DIV MUL DUP4 MSTORE SWAP2 PUSH1 0x20 ADD SWAP2 PUSH2 0xD08 JUMP JUMPDEST DUP3 ADD SWAP2 SWAP1 PUSH0 MSTORE PUSH1 0x20 PUSH0 KECCAK256 SWAP1 JUMPDEST DUP2 SLOAD DUP2 MSTORE SWAP1 PUSH1 0x1 ADD SWAP1 PUSH1 0x20 ADD DUP1 DUP4 GT PUSH2 0xCEB JUMPI DUP3 SWAP1 SUB PUSH1 0x1F AND DUP3 ADD SWAP2 JUMPDEST POP POP POP POP POP DUP2 MSTORE PUSH1 0x20 ADD PUSH1 0x5 DUP3 ADD SLOAD DUP2 MSTORE POP POP PUSH2 0xD9E JUMP JUMPDEST PUSH0 PUSH2 0xD2A DUP4 PUSH2 0x732 JUMP JUMPDEST SWAP1 POP PUSH0 DUP2 MLOAD SUB PUSH2 0xD3F JUMPI PUSH2 0xD3E DUP4 DUP7 PUSH2 0xEAC JUMP JUMPDEST JUMPDEST PUSH2 0xD4E DUP4 PUSH1 0x6 PUSH1 0x5 ADD SLOAD PUSH2 0xF1D JUMP JUMPDEST PUSH1 0x6 PUSH1 0x5 ADD SLOAD SWAP4 POP POP POP POP SWAP10 SWAP9 POP POP POP POP POP POP POP POP POP JUMP JUMPDEST PUSH0 DUP5 DUP5 DUP5 DUP5 PUSH1 0x40 MLOAD PUSH1 0x20 ADD PUSH2 0xD7E SWAP5 SWAP4 SWAP3 SWAP2 SWAP1 PUSH2 0x1C16 JUMP JUMPDEST PUSH1 0x40 MLOAD PUSH1 0x20 DUP2 DUP4 SUB SUB DUP2 MSTORE SWAP1 PUSH1 0x40 MSTORE DUP1 MLOAD SWAP1 PUSH1 0x20 ADD KECCAK256 SWAP1 POP SWAP5 SWAP4 POP POP POP POP JUMP JUMPDEST DUP1 PUSH0 DUP1 DUP6 PUSH20 0xFFFFFFFFFFFFFFFFFFFFFFFFFFFFFFFFFFFFFFFF AND PUSH20 0xFFFFFFFFFFFFFFFFFFFFFFFFFFFFFFFFFFFFFFFF AND DUP2 MSTORE PUSH1 0x20 ADD SWAP1 DUP2 MSTORE PUSH1 0x20 ADD PUSH0 KECCAK256 DUP4 PUSH1 0x40 MLOAD PUSH2 0xDE9 SWAP2 SWAP1 PUSH2 0x17E7 JUMP JUMPDEST SWAP1 DUP2 MSTORE PUSH1 0x20 ADD PUSH1 0x40 MLOAD DUP1 SWAP2 SUB SWAP1 KECCAK256 PUSH0 DUP3 ADD MLOAD DUP2 PUSH0 ADD SWAP1 DUP2 PUSH2 0xE0A SWAP2 SWAP1 PUSH2 0x1B00 JUMP JUMPDEST POP PUSH1 0x20 DUP3 ADD MLOAD DUP2 PUSH1 0x1 ADD SWAP1 DUP2 PUSH2 0xE20 SWAP2 SWAP1 PUSH2 0x1B00 JUMP JUMPDEST POP PUSH1 0x40 DUP3 ADD MLOAD DUP2 PUSH1 0x2 ADD SSTORE PUSH1 0x60 DUP3 ADD MLOAD DUP2 PUSH1 0x3 ADD SSTORE PUSH1 0x80 DUP3 ADD MLOAD DUP2 PUSH1 0x4 ADD SWAP1 DUP2 PUSH2 0xE4A SWAP2 SWAP1 PUSH2 0x1B00 JUMP JUMPDEST POP PUSH1 0xA0 DUP3 ADD MLOAD DUP2 PUSH1 0x5 ADD SSTORE SWAP1 POP POP CALLER PUSH20 0xFFFFFFFFFFFFFFFFFFFFFFFFFFFFFFFFFFFFFFFF AND PUSH32 0x214840EA044F43197A98C1A9B09034C14D0BCE39B2A60521C55DE14366C8F78D PUSH1 0x6 PUSH1 0x40 MLOAD PUSH2 0xE9F SWAP2 SWAP1 PUSH2 0x1DEB JUMP JUMPDEST PUSH1 0x40 MLOAD DUP1 SWAP2 SUB SWAP1 LOG2 POP POP POP JUMP JUMPDEST PUSH1 0x1 PUSH0 DUP4 PUSH20 0xFFFFFFFFFFFFFFFFFFFFFFFFFFFFFFFFFFFFFFFF AND PUSH20 0xFFFFFFFFFFFFFFFFFFFFFFFFFFFFFFFFFFFFFFFF AND DUP2 MSTORE PUSH1 0x20 ADD SWAP1 DUP2 MSTORE PUSH1 0x20 ADD PUSH0 KECCAK256 DUP2 SWAP1 DUP1 PUSH1 0x1 DUP2 SLOAD ADD DUP1 DUP3 SSTORE DUP1 SWAP2 POP POP PUSH1 0x1 SWAP1 SUB SWAP1 PUSH0 MSTORE PUSH1 0x20 PUSH0 KECCAK256 ADD PUSH0 SWAP1 SWAP2 SWAP1 SWAP2 SWAP1 SWAP2 POP SWAP1 DUP2 PUSH2 0xF18 SWAP2 SWAP1 PUSH2 0x1B00 JUMP JUMPDEST POP POP POP JUMP JUMPDEST PUSH1 0x2 PUSH0 DUP4 PUSH20 0xFFFFFFFFFFFFFFFFFFFFFFFFFFFFFFFFFFFFFFFF AND PUSH20 0xFFFFFFFFFFFFFFFFFFFFFFFFFFFFFFFFFFFFFFFF AND DUP2 MSTORE PUSH1 0x20 ADD SWAP1 DUP2 MSTORE PUSH1 0x20 ADD PUSH0 KECCAK256 DUP2 SWAP1 DUP1 PUSH1 0x1 DUP2 SLOAD ADD DUP1 DUP3 SSTORE DUP1 SWAP2 POP POP PUSH1 0x1 SWAP1 SUB SWAP1 PUSH0 MSTORE PUSH1 0x20 PUSH0 KECCAK256 ADD PUSH0 SWAP1 SWAP2 SWAP1 SWAP2 SWAP1 SWAP2 POP SSTORE POP POP JUMP JUMPDEST PUSH1 0x40 MLOAD DUP1 PUSH1 0xC0 ADD PUSH1 0x40 MSTORE DUP1 PUSH1 0x60 DUP2 MSTORE PUSH1 0x20 ADD PUSH1 0x60 DUP2 MSTORE PUSH1 0x20 ADD PUSH0 DUP2 MSTORE PUSH1 0x20 ADD PUSH0 DUP2 MSTORE PUSH1 0x20 ADD PUSH1 0x60 DUP2 MSTORE PUSH1 0x20 ADD PUSH0 DUP1 NOT AND DUP2 MSTORE POP SWAP1 JUMP JUMPDEST PUSH0 PUSH1 0x40 MLOAD SWAP1 POP SWAP1 JUMP JUMPDEST PUSH0 DUP1 REVERT JUMPDEST PUSH0 DUP1 REVERT JUMPDEST PUSH0 PUSH20 0xFFFFFFFFFFFFFFFFFFFFFFFFFFFFFFFFFFFFFFFF DUP3 AND SWAP1 POP SWAP2 SWAP1 POP JUMP JUMPDEST PUSH0 PUSH2 0xFF2 DUP3 PUSH2 0xFC9 JUMP JUMPDEST SWAP1 POP SWAP2 SWAP1 POP JUMP JUMPDEST PUSH2 0x1002 DUP2 PUSH2 0xFE8 JUMP JUMPDEST DUP2 EQ PUSH2 0x100C JUMPI PUSH0 DUP1 REVERT JUMPDEST POP JUMP JUMPDEST PUSH0 DUP2 CALLDATALOAD SWAP1 POP PUSH2 0x101D DUP2 PUSH2 0xFF9 JUMP JUMPDEST SWAP3 SWAP2 POP POP JUMP JUMPDEST PUSH0 PUSH1 0x20 DUP3 DUP5 SUB SLT ISZERO PUSH2 0x1038 JUMPI PUSH2 0x1037 PUSH2 0xFC1 JUMP JUMPDEST JUMPDEST PUSH0 PUSH2 0x1045 DUP5 DUP3 DUP6 ADD PUSH2 0x100F JUMP JUMPDEST SWAP2 POP POP SWAP3 SWAP2 POP POP JUMP JUMPDEST PUSH0 DUP1 REVERT JUMPDEST PUSH0 DUP1 REVERT JUMPDEST PUSH0 PUSH1 0x1F NOT PUSH1 0x1F DUP4 ADD AND SWAP1 POP SWAP2 SWAP1 POP JUMP JUMPDEST PUSH32 0x4E487B7100000000000000000000000000000000000000000000000000000000 PUSH0 MSTORE PUSH1 0x41 PUSH1 0x4 MSTORE PUSH1 0x24 PUSH0 REVERT JUMPDEST PUSH2 0x109C DUP3 PUSH2 0x1056 JUMP JUMPDEST DUP2 ADD DUP2 DUP2 LT PUSH8 0xFFFFFFFFFFFFFFFF DUP3 GT OR ISZERO PUSH2 0x10BB JUMPI PUSH2 0x10BA PUSH2 0x1066 JUMP JUMPDEST JUMPDEST DUP1 PUSH1 0x40 MSTORE POP POP POP JUMP JUMPDEST PUSH0 PUSH2 0x10CD PUSH2 0xFB8 JUMP JUMPDEST SWAP1 POP PUSH2 0x10D9 DUP3 DUP3 PUSH2 0x1093 JUMP JUMPDEST SWAP2 SWAP1 POP JUMP JUMPDEST PUSH0 PUSH8 0xFFFFFFFFFFFFFFFF DUP3 GT ISZERO PUSH2 0x10F8 JUMPI PUSH2 0x10F7 PUSH2 0x1066 JUMP JUMPDEST JUMPDEST PUSH2 0x1101 DUP3 PUSH2 0x1056 JUMP JUMPDEST SWAP1 POP PUSH1 0x20 DUP2 ADD SWAP1 POP SWAP2 SWAP1 POP JUMP JUMPDEST DUP3 DUP2 DUP4 CALLDATACOPY PUSH0 DUP4 DUP4 ADD MSTORE POP POP POP JUMP JUMPDEST PUSH0 PUSH2 0x112E PUSH2 0x1129 DUP5 PUSH2 0x10DE JUMP JUMPDEST PUSH2 0x10C4 JUMP JUMPDEST SWAP1 POP DUP3 DUP2 MSTORE PUSH1 0x20 DUP2 ADD DUP5 DUP5 DUP5 ADD GT ISZERO PUSH2 0x114A JUMPI PUSH2 0x1149 PUSH2 0x1052 JUMP JUMPDEST JUMPDEST PUSH2 0x1155 DUP5 DUP3 DUP6 PUSH2 0x110E JUMP JUMPDEST POP SWAP4 SWAP3 POP POP POP JUMP JUMPDEST PUSH0 DUP3 PUSH1 0x1F DUP4 ADD SLT PUSH2 0x1171 JUMPI PUSH2 0x1170 PUSH2 0x104E JUMP JUMPDEST JUMPDEST DUP2 CALLDATALOAD PUSH2 0x1181 DUP5 DUP3 PUSH1 0x20 DUP7 ADD PUSH2 0x111C JUMP JUMPDEST SWAP2 POP POP SWAP3 SWAP2 POP POP JUMP JUMPDEST PUSH0 DUP1 PUSH1 0x40 DUP4 DUP6 SUB SLT ISZERO PUSH2 0x11A0 JUMPI PUSH2 0x119F PUSH2 0xFC1 JUMP JUMPDEST JUMPDEST PUSH0 PUSH2 0x11AD DUP6 DUP3 DUP7 ADD PUSH2 0x100F JUMP JUMPDEST SWAP3 POP POP PUSH1 0x20 DUP4 ADD CALLDATALOAD PUSH8 0xFFFFFFFFFFFFFFFF DUP2 GT ISZERO PUSH2 0x11CE JUMPI PUSH2 0x11CD PUSH2 0xFC5 JUMP JUMPDEST JUMPDEST PUSH2 0x11DA DUP6 DUP3 DUP7 ADD PUSH2 0x115D JUMP JUMPDEST SWAP2 POP POP SWAP3 POP SWAP3 SWAP1 POP JUMP JUMPDEST PUSH0 DUP2 MLOAD SWAP1 POP SWAP2 SWAP1 POP JUMP JUMPDEST PUSH0 DUP3 DUP3 MSTORE PUSH1 0x20 DUP3 ADD SWAP1 POP SWAP3 SWAP2 POP POP JUMP JUMPDEST PUSH0 JUMPDEST DUP4 DUP2 LT ISZERO PUSH2 0x121B JUMPI DUP1 DUP3 ADD MLOAD DUP2 DUP5 ADD MSTORE PUSH1 0x20 DUP2 ADD SWAP1 POP PUSH2 0x1200 JUMP JUMPDEST PUSH0 DUP5 DUP5 ADD MSTORE POP POP POP POP JUMP JUMPDEST PUSH0 PUSH2 0x1230 DUP3 PUSH2 0x11E4 JUMP JUMPDEST PUSH2 0x123A DUP2 DUP6 PUSH2 0x11EE JUMP JUMPDEST SWAP4 POP PUSH2 0x124A DUP2 DUP6 PUSH1 0x20 DUP7 ADD PUSH2 0x11FE JUMP JUMPDEST PUSH2 0x1253 DUP2 PUSH2 0x1056 JUMP JUMPDEST DUP5 ADD SWAP2 POP POP SWAP3 SWAP2 POP POP JUMP JUMPDEST PUSH0 DUP2 SWAP1 POP SWAP2 SWAP1 POP JUMP JUMPDEST PUSH2 0x1270 DUP2 PUSH2 0x125E JUMP JUMPDEST DUP3 MSTORE POP POP JUMP JUMPDEST PUSH0 DUP2 SWAP1 POP SWAP2 SWAP1 POP JUMP JUMPDEST PUSH2 0x1288 DUP2 PUSH2 0x1276 JUMP JUMPDEST DUP3 MSTORE POP POP JUMP JUMPDEST PUSH0 PUSH1 0xC0 DUP4 ADD PUSH0 DUP4 ADD MLOAD DUP5 DUP3 SUB PUSH0 DUP7 ADD MSTORE PUSH2 0x12A8 DUP3 DUP3 PUSH2 0x1226 JUMP JUMPDEST SWAP2 POP POP PUSH1 0x20 DUP4 ADD MLOAD DUP5 DUP3 SUB PUSH1 0x20 DUP7 ADD MSTORE PUSH2 0x12C2 DUP3 DUP3 PUSH2 0x1226 JUMP JUMPDEST SWAP2 POP POP PUSH1 0x40 DUP4 ADD MLOAD PUSH2 0x12D7 PUSH1 0x40 DUP7 ADD DUP3 PUSH2 0x1267 JUMP JUMPDEST POP PUSH1 0x60 DUP4 ADD MLOAD PUSH2 0x12EA PUSH1 0x60 DUP7 ADD DUP3 PUSH2 0x1267 JUMP JUMPDEST POP PUSH1 0x80 DUP4 ADD MLOAD DUP5 DUP3 SUB PUSH1 0x80 DUP7 ADD MSTORE PUSH2 0x1302 DUP3 DUP3 PUSH2 0x1226 JUMP JUMPDEST SWAP2 POP POP PUSH1 0xA0 DUP4 ADD MLOAD PUSH2 0x1317 PUSH1 0xA0 DUP7 ADD DUP3 PUSH2 0x127F JUMP JUMPDEST POP DUP1 SWAP2 POP POP SWAP3 SWAP2 POP POP JUMP JUMPDEST PUSH0 PUSH1 0x20 DUP3 ADD SWAP1 POP DUP2 DUP2 SUB PUSH0 DUP4 ADD MSTORE PUSH2 0x133A DUP2 DUP5 PUSH2 0x128E JUMP JUMPDEST SWAP1 POP SWAP3 SWAP2 POP POP JUMP JUMPDEST PUSH0 PUSH1 0x20 DUP3 DUP5 SUB SLT ISZERO PUSH2 0x1357 JUMPI PUSH2 0x1356 PUSH2 0xFC1 JUMP JUMPDEST JUMPDEST PUSH0 DUP3 ADD CALLDATALOAD PUSH8 0xFFFFFFFFFFFFFFFF DUP2 GT ISZERO PUSH2 0x1374 JUMPI PUSH2 0x1373 PUSH2 0xFC5 JUMP JUMPDEST JUMPDEST PUSH2 0x1380 DUP5 DUP3 DUP6 ADD PUSH2 0x115D JUMP JUMPDEST SWAP2 POP POP SWAP3 SWAP2 POP POP JUMP JUMPDEST PUSH2 0x1392 DUP2 PUSH2 0xFE8 JUMP JUMPDEST DUP3 MSTORE POP POP JUMP JUMPDEST PUSH0 PUSH1 0x20 DUP3 ADD SWAP1 POP PUSH2 0x13AB PUSH0 DUP4 ADD DUP5 PUSH2 0x1389 JUMP JUMPDEST SWAP3 SWAP2 POP POP JUMP JUMPDEST PUSH2 0x13BA DUP2 PUSH2 0x1276 JUMP JUMPDEST DUP2 EQ PUSH2 0x13C4 JUMPI PUSH0 DUP1 REVERT JUMPDEST POP JUMP JUMPDEST PUSH0 DUP2 CALLDATALOAD SWAP1 POP PUSH2 0x13D5 DUP2 PUSH2 0x13B1 JUMP JUMPDEST SWAP3 SWAP2 POP POP JUMP JUMPDEST PUSH0 DUP1 PUSH1 0x40 DUP4 DUP6 SUB SLT ISZERO PUSH2 0x13F1 JUMPI PUSH2 0x13F0 PUSH2 0xFC1 JUMP JUMPDEST JUMPDEST PUSH0 PUSH2 0x13FE DUP6 DUP3 DUP7 ADD PUSH2 0x100F JUMP JUMPDEST SWAP3 POP POP PUSH1 0x20 PUSH2 0x140F DUP6 DUP3 DUP7 ADD PUSH2 0x13C7 JUMP JUMPDEST SWAP2 POP POP SWAP3 POP SWAP3 SWAP1 POP JUMP JUMPDEST PUSH0 DUP2 ISZERO ISZERO SWAP1 POP SWAP2 SWAP1 POP JUMP JUMPDEST PUSH2 0x142D DUP2 PUSH2 0x1419 JUMP JUMPDEST DUP3 MSTORE POP POP JUMP JUMPDEST PUSH0 PUSH1 0x20 DUP3 ADD SWAP1 POP PUSH2 0x1446 PUSH0 DUP4 ADD DUP5 PUSH2 0x1424 JUMP JUMPDEST SWAP3 SWAP2 POP POP JUMP JUMPDEST PUSH0 DUP1 PUSH1 0x40 DUP4 DUP6 SUB SLT ISZERO PUSH2 0x1462 JUMPI PUSH2 0x1461 PUSH2 0xFC1 JUMP JUMPDEST JUMPDEST PUSH0 DUP4 ADD CALLDATALOAD PUSH8 0xFFFFFFFFFFFFFFFF DUP2 GT ISZERO PUSH2 0x147F JUMPI PUSH2 0x147E PUSH2 0xFC5 JUMP JUMPDEST JUMPDEST PUSH2 0x148B DUP6 DUP3 DUP7 ADD PUSH2 0x115D JUMP JUMPDEST SWAP3 POP POP PUSH1 0x20 PUSH2 0x149C DUP6 DUP3 DUP7 ADD PUSH2 0x100F JUMP JUMPDEST SWAP2 POP POP SWAP3 POP SWAP3 SWAP1 POP JUMP JUMPDEST PUSH0 DUP2 MLOAD SWAP1 POP SWAP2 SWAP1 POP JUMP JUMPDEST PUSH0 DUP3 DUP3 MSTORE PUSH1 0x20 DUP3 ADD SWAP1 POP SWAP3 SWAP2 POP POP JUMP JUMPDEST PUSH0 DUP2 SWAP1 POP PUSH1 0x20 DUP3 ADD SWAP1 POP SWAP2 SWAP1 POP JUMP JUMPDEST PUSH0 PUSH2 0x14DA DUP4 DUP4 PUSH2 0x1226 JUMP JUMPDEST SWAP1 POP SWAP3 SWAP2 POP POP JUMP JUMPDEST PUSH0 PUSH1 0x20 DUP3 ADD SWAP1 POP SWAP2 SWAP1 POP JUMP JUMPDEST PUSH0 PUSH2 0x14F8 DUP3 PUSH2 0x14A6 JUMP JUMPDEST PUSH2 0x1502 DUP2 DUP6 PUSH2 0x14B0 JUMP JUMPDEST SWAP4 POP DUP4 PUSH1 0x20 DUP3 MUL DUP6 ADD PUSH2 0x1514 DUP6 PUSH2 0x14C0 JUMP JUMPDEST DUP1 PUSH0 JUMPDEST DUP6 DUP2 LT ISZERO PUSH2 0x154F JUMPI DUP5 DUP5 SUB DUP10 MSTORE DUP2 MLOAD PUSH2 0x1530 DUP6 DUP3 PUSH2 0x14CF JUMP JUMPDEST SWAP5 POP PUSH2 0x153B DUP4 PUSH2 0x14E2 JUMP JUMPDEST SWAP3 POP PUSH1 0x20 DUP11 ADD SWAP10 POP POP PUSH1 0x1 DUP2 ADD SWAP1 POP PUSH2 0x1517 JUMP JUMPDEST POP DUP3 SWAP8 POP DUP8 SWAP6 POP POP POP POP POP POP SWAP3 SWAP2 POP POP JUMP JUMPDEST PUSH0 PUSH1 0x20 DUP3 ADD SWAP1 POP DUP2 DUP2 SUB PUSH0 DUP4 ADD MSTORE PUSH2 0x1579 DUP2 DUP5 PUSH2 0x14EE JUMP JUMPDEST SWAP1 POP SWAP3 SWAP2 POP POP JUMP JUMPDEST PUSH0 DUP1 REVERT JUMPDEST PUSH0 DUP1 REVERT JUMPDEST PUSH0 DUP1 DUP4 PUSH1 0x1F DUP5 ADD SLT PUSH2 0x159E JUMPI PUSH2 0x159D PUSH2 0x104E JUMP JUMPDEST JUMPDEST DUP3 CALLDATALOAD SWAP1 POP PUSH8 0xFFFFFFFFFFFFFFFF DUP2 GT ISZERO PUSH2 0x15BB JUMPI PUSH2 0x15BA PUSH2 0x1581 JUMP JUMPDEST JUMPDEST PUSH1 0x20 DUP4 ADD SWAP2 POP DUP4 PUSH1 0x1 DUP3 MUL DUP4 ADD GT ISZERO PUSH2 0x15D7 JUMPI PUSH2 0x15D6 PUSH2 0x1585 JUMP JUMPDEST JUMPDEST SWAP3 POP SWAP3 SWAP1 POP JUMP JUMPDEST PUSH2 0x15E7 DUP2 PUSH2 0x125E JUMP JUMPDEST DUP2 EQ PUSH2 0x15F1 JUMPI PUSH0 DUP1 REVERT JUMPDEST POP JUMP JUMPDEST PUSH0 DUP2 CALLDATALOAD SWAP1 POP PUSH2 0x1602 DUP2 PUSH2 0x15DE JUMP JUMPDEST SWAP3 SWAP2 POP POP JUMP JUMPDEST PUSH0 DUP1 PUSH0 DUP1 PUSH0 DUP1 PUSH0 DUP1 PUSH0 PUSH1 0xC0 DUP11 DUP13 SUB SLT ISZERO PUSH2 0x1625 JUMPI PUSH2 0x1624 PUSH2 0xFC1 JUMP JUMPDEST JUMPDEST PUSH0 DUP11 ADD CALLDATALOAD PUSH8 0xFFFFFFFFFFFFFFFF DUP2 GT ISZERO PUSH2 0x1642 JUMPI PUSH2 0x1641 PUSH2 0xFC5 JUMP JUMPDEST JUMPDEST PUSH2 0x164E DUP13 DUP3 DUP14 ADD PUSH2 0x1589 JUMP JUMPDEST SWAP10 POP SWAP10 POP POP PUSH1 0x20 DUP11 ADD CALLDATALOAD PUSH8 0xFFFFFFFFFFFFFFFF DUP2 GT ISZERO PUSH2 0x1671 JUMPI PUSH2 0x1670 PUSH2 0xFC5 JUMP JUMPDEST JUMPDEST PUSH2 0x167D DUP13 DUP3 DUP14 ADD PUSH2 0x1589 JUMP JUMPDEST SWAP8 POP SWAP8 POP POP PUSH1 0x40 PUSH2 0x1690 DUP13 DUP3 DUP14 ADD PUSH2 0x15F4 JUMP JUMPDEST SWAP6 POP POP PUSH1 0x60 PUSH2 0x16A1 DUP13 DUP3 DUP14 ADD PUSH2 0x15F4 JUMP JUMPDEST SWAP5 POP POP PUSH1 0x80 DUP11 ADD CALLDATALOAD PUSH8 0xFFFFFFFFFFFFFFFF DUP2 GT ISZERO PUSH2 0x16C2 JUMPI PUSH2 0x16C1 PUSH2 0xFC5 JUMP JUMPDEST JUMPDEST PUSH2 0x16CE DUP13 DUP3 DUP14 ADD PUSH2 0x1589 JUMP JUMPDEST SWAP4 POP SWAP4 POP POP PUSH1 0xA0 DUP11 ADD CALLDATALOAD PUSH8 0xFFFFFFFFFFFFFFFF DUP2 GT ISZERO PUSH2 0x16F1 JUMPI PUSH2 0x16F0 PUSH2 0xFC5 JUMP JUMPDEST JUMPDEST PUSH2 0x16FD DUP13 DUP3 DUP14 ADD PUSH2 0x115D JUMP JUMPDEST SWAP2 POP POP SWAP3 SWAP6 SWAP9 POP SWAP3 SWAP6 SWAP9 POP SWAP3 SWAP6 SWAP9 JUMP JUMPDEST PUSH2 0x1716 DUP2 PUSH2 0x1276 JUMP JUMPDEST DUP3 MSTORE POP POP JUMP JUMPDEST PUSH0 PUSH1 0x20 DUP3 ADD SWAP1 POP PUSH2 0x172F PUSH0 DUP4 ADD DUP5 PUSH2 0x170D JUMP JUMPDEST SWAP3 SWAP2 POP POP JUMP JUMPDEST PUSH0 DUP3 DUP3 MSTORE PUSH1 0x20 DUP3 ADD SWAP1 POP SWAP3 SWAP2 POP POP JUMP JUMPDEST PUSH32 0x4F6E6C79204F776E657220636F6E206163746976617465000000000000000000 PUSH0 DUP3 ADD MSTORE POP JUMP JUMPDEST PUSH0 PUSH2 0x1779 PUSH1 0x17 DUP4 PUSH2 0x1735 JUMP JUMPDEST SWAP2 POP PUSH2 0x1784 DUP3 PUSH2 0x1745 JUMP JUMPDEST PUSH1 0x20 DUP3 ADD SWAP1 POP SWAP2 SWAP1 POP JUMP JUMPDEST PUSH0 PUSH1 0x20 DUP3 ADD SWAP1 POP DUP2 DUP2 SUB PUSH0 DUP4 ADD MSTORE PUSH2 0x17A6 DUP2 PUSH2 0x176D JUMP JUMPDEST SWAP1 POP SWAP2 SWAP1 POP JUMP JUMPDEST PUSH0 DUP2 SWAP1 POP SWAP3 SWAP2 POP POP JUMP JUMPDEST PUSH0 PUSH2 0x17C1 DUP3 PUSH2 0x11E4 JUMP JUMPDEST PUSH2 0x17CB DUP2 DUP6 PUSH2 0x17AD JUMP JUMPDEST SWAP4 POP PUSH2 0x17DB DUP2 DUP6 PUSH1 0x20 DUP7 ADD PUSH2 0x11FE JUMP JUMPDEST DUP1 DUP5 ADD SWAP2 POP POP SWAP3 SWAP2 POP POP JUMP JUMPDEST PUSH0 PUSH2 0x17F2 DUP3 DUP5 PUSH2 0x17B7 JUMP JUMPDEST SWAP2 POP DUP2 SWAP1 POP SWAP3 SWAP2 POP POP JUMP JUMPDEST PUSH32 0x4E487B7100000000000000000000000000000000000000000000000000000000 PUSH0 MSTORE PUSH1 0x22 PUSH1 0x4 MSTORE PUSH1 0x24 PUSH0 REVERT JUMPDEST PUSH0 PUSH1 0x2 DUP3 DIV SWAP1 POP PUSH1 0x1 DUP3 AND DUP1 PUSH2 0x1841 JUMPI PUSH1 0x7F DUP3 AND SWAP2 POP JUMPDEST PUSH1 0x20 DUP3 LT DUP2 SUB PUSH2 0x1854 JUMPI PUSH2 0x1853 PUSH2 0x17FD JUMP JUMPDEST JUMPDEST POP SWAP2 SWAP1 POP JUMP JUMPDEST PUSH32 0x4E487B7100000000000000000000000000000000000000000000000000000000 PUSH0 MSTORE PUSH1 0x32 PUSH1 0x4 MSTORE PUSH1 0x24 PUSH0 REVERT JUMPDEST PUSH32 0x4E487B7100000000000000000000000000000000000000000000000000000000 PUSH0 MSTORE PUSH1 0x11 PUSH1 0x4 MSTORE PUSH1 0x24 PUSH0 REVERT JUMPDEST PUSH0 PUSH2 0x18BE DUP3 PUSH2 0x125E JUMP JUMPDEST SWAP2 POP PUSH32 0xFFFFFFFFFFFFFFFFFFFFFFFFFFFFFFFFFFFFFFFFFFFFFFFFFFFFFFFFFFFFFFFF DUP3 SUB PUSH2 0x18F0 JUMPI PUSH2 0x18EF PUSH2 0x1887 JUMP JUMPDEST JUMPDEST PUSH1 0x1 DUP3 ADD SWAP1 POP SWAP2 SWAP1 POP JUMP JUMPDEST PUSH32 0x526966204E6F7420526567697374726564206861732054617870617965720000 PUSH0 DUP3 ADD MSTORE POP JUMP JUMPDEST PUSH0 PUSH2 0x192F PUSH1 0x1E DUP4 PUSH2 0x1735 JUMP JUMPDEST SWAP2 POP PUSH2 0x193A DUP3 PUSH2 0x18FB JUMP JUMPDEST PUSH1 0x20 DUP3 ADD SWAP1 POP SWAP2 SWAP1 POP JUMP JUMPDEST PUSH0 PUSH1 0x20 DUP3 ADD SWAP1 POP DUP2 DUP2 SUB PUSH0 DUP4 ADD MSTORE PUSH2 0x195C DUP2 PUSH2 0x1923 JUMP JUMPDEST SWAP1 POP SWAP2 SWAP1 POP JUMP JUMPDEST PUSH0 DUP2 SWAP1 POP DUP2 PUSH0 MSTORE PUSH1 0x20 PUSH0 KECCAK256 SWAP1 POP SWAP2 SWAP1 POP JUMP JUMPDEST PUSH0 PUSH1 0x20 PUSH1 0x1F DUP4 ADD DIV SWAP1 POP SWAP2 SWAP1 POP JUMP JUMPDEST PUSH0 DUP3 DUP3 SHL SWAP1 POP SWAP3 SWAP2 POP POP JUMP JUMPDEST PUSH0 PUSH1 0x8 DUP4 MUL PUSH2 0x19BF PUSH32 0xFFFFFFFFFFFFFFFFFFFFFFFFFFFFFFFFFFFFFFFFFFFFFFFFFFFFFFFFFFFFFFFF DUP3 PUSH2 0x1984 JUMP JUMPDEST PUSH2 0x19C9 DUP7 DUP4 PUSH2 0x1984 JUMP JUMPDEST SWAP6 POP DUP1 NOT DUP5 AND SWAP4 POP DUP1 DUP7 AND DUP5 OR SWAP3 POP POP POP SWAP4 SWAP3 POP POP POP JUMP JUMPDEST PUSH0 DUP2 SWAP1 POP SWAP2 SWAP1 POP JUMP JUMPDEST PUSH0 PUSH2 0x1A04 PUSH2 0x19FF PUSH2 0x19FA DUP5 PUSH2 0x125E JUMP JUMPDEST PUSH2 0x19E1 JUMP JUMPDEST PUSH2 0x125E JUMP JUMPDEST SWAP1 POP SWAP2 SWAP1 POP JUMP JUMPDEST PUSH0 DUP2 SWAP1 POP SWAP2 SWAP1 POP JUMP JUMPDEST PUSH2 0x1A1D DUP4 PUSH2 0x19EA JUMP JUMPDEST PUSH2 0x1A31 PUSH2 0x1A29 DUP3 PUSH2 0x1A0B JUMP JUMPDEST DUP5 DUP5 SLOAD PUSH2 0x1990 JUMP JUMPDEST DUP3 SSTORE POP POP POP POP JUMP JUMPDEST PUSH0 SWAP1 JUMP JUMPDEST PUSH2 0x1A45 PUSH2 0x1A39 JUMP JUMPDEST PUSH2 0x1A50 DUP2 DUP5 DUP5 PUSH2 0x1A14 JUMP JUMPDEST POP POP POP JUMP JUMPDEST JUMPDEST DUP2 DUP2 LT ISZERO PUSH2 0x1A73 JUMPI PUSH2 0x1A68 PUSH0 DUP3 PUSH2 0x1A3D JUMP JUMPDEST PUSH1 0x1 DUP2 ADD SWAP1 POP PUSH2 0x1A56 JUMP JUMPDEST POP POP JUMP JUMPDEST PUSH1 0x1F DUP3 GT ISZERO PUSH2 0x1AB8 JUMPI PUSH2 0x1A89 DUP2 PUSH2 0x1963 JUMP JUMPDEST PUSH2 0x1A92 DUP5 PUSH2 0x1975 JUMP JUMPDEST DUP2 ADD PUSH1 0x20 DUP6 LT ISZERO PUSH2 0x1AA1 JUMPI DUP2 SWAP1 POP JUMPDEST PUSH2 0x1AB5 PUSH2 0x1AAD DUP6 PUSH2 0x1975 JUMP JUMPDEST DUP4 ADD DUP3 PUSH2 0x1A55 JUMP JUMPDEST POP POP JUMPDEST POP POP POP JUMP JUMPDEST PUSH0 DUP3 DUP3 SHR SWAP1 POP SWAP3 SWAP2 POP POP JUMP JUMPDEST PUSH0 PUSH2 0x1AD8 PUSH0 NOT DUP5 PUSH1 0x8 MUL PUSH2 0x1ABD JUMP JUMPDEST NOT DUP1 DUP4 AND SWAP2 POP POP SWAP3 SWAP2 POP POP JUMP JUMPDEST PUSH0 PUSH2 0x1AF0 DUP4 DUP4 PUSH2 0x1AC9 JUMP JUMPDEST SWAP2 POP DUP3 PUSH1 0x2 MUL DUP3 OR SWAP1 POP SWAP3 SWAP2 POP POP JUMP JUMPDEST PUSH2 0x1B09 DUP3 PUSH2 0x11E4 JUMP JUMPDEST PUSH8 0xFFFFFFFFFFFFFFFF DUP2 GT ISZERO PUSH2 0x1B22 JUMPI PUSH2 0x1B21 PUSH2 0x1066 JUMP JUMPDEST JUMPDEST PUSH2 0x1B2C DUP3 SLOAD PUSH2 0x182A JUMP JUMPDEST PUSH2 0x1B37 DUP3 DUP3 DUP6 PUSH2 0x1A77 JUMP JUMPDEST PUSH0 PUSH1 0x20 SWAP1 POP PUSH1 0x1F DUP4 GT PUSH1 0x1 DUP2 EQ PUSH2 0x1B68 JUMPI PUSH0 DUP5 ISZERO PUSH2 0x1B56 JUMPI DUP3 DUP8 ADD MLOAD SWAP1 POP JUMPDEST PUSH2 0x1B60 DUP6 DUP3 PUSH2 0x1AE5 JUMP JUMPDEST DUP7 SSTORE POP PUSH2 0x1BC7 JUMP JUMPDEST PUSH1 0x1F NOT DUP5 AND PUSH2 0x1B76 DUP7 PUSH2 0x1963 JUMP JUMPDEST PUSH0 JUMPDEST DUP3 DUP2 LT ISZERO PUSH2 0x1B9D JUMPI DUP5 DUP10 ADD MLOAD DUP3 SSTORE PUSH1 0x1 DUP3 ADD SWAP2 POP PUSH1 0x20 DUP6 ADD SWAP5 POP PUSH1 0x20 DUP2 ADD SWAP1 POP PUSH2 0x1B78 JUMP JUMPDEST DUP7 DUP4 LT ISZERO PUSH2 0x1BBA JUMPI DUP5 DUP10 ADD MLOAD PUSH2 0x1BB6 PUSH1 0x1F DUP10 AND DUP3 PUSH2 0x1AC9 JUMP JUMPDEST DUP4 SSTORE POP JUMPDEST PUSH1 0x1 PUSH1 0x2 DUP9 MUL ADD DUP9 SSTORE POP POP POP JUMPDEST POP POP POP POP POP POP JUMP JUMPDEST PUSH0 PUSH2 0x1BD9 DUP3 PUSH2 0x11E4 JUMP JUMPDEST PUSH2 0x1BE3 DUP2 DUP6 PUSH2 0x1735 JUMP JUMPDEST SWAP4 POP PUSH2 0x1BF3 DUP2 DUP6 PUSH1 0x20 DUP7 ADD PUSH2 0x11FE JUMP JUMPDEST PUSH2 0x1BFC DUP2 PUSH2 0x1056 JUMP JUMPDEST DUP5 ADD SWAP2 POP POP SWAP3 SWAP2 POP POP JUMP JUMPDEST PUSH2 0x1C10 DUP2 PUSH2 0x125E JUMP JUMPDEST DUP3 MSTORE POP POP JUMP JUMPDEST PUSH0 PUSH1 0x80 DUP3 ADD SWAP1 POP PUSH2 0x1C29 PUSH0 DUP4 ADD DUP8 PUSH2 0x1389 JUMP JUMPDEST DUP2 DUP2 SUB PUSH1 0x20 DUP4 ADD MSTORE PUSH2 0x1C3B DUP2 DUP7 PUSH2 0x1BCF JUMP JUMPDEST SWAP1 POP DUP2 DUP2 SUB PUSH1 0x40 DUP4 ADD MSTORE PUSH2 0x1C4F DUP2 DUP6 PUSH2 0x1BCF JUMP JUMPDEST SWAP1 POP PUSH2 0x1C5E PUSH1 0x60 DUP4 ADD DUP5 PUSH2 0x1C07 JUMP JUMPDEST SWAP6 SWAP5 POP POP POP POP POP JUMP JUMPDEST PUSH0 DUP2 SLOAD PUSH2 0x1C73 DUP2 PUSH2 0x182A JUMP JUMPDEST PUSH2 0x1C7D DUP2 DUP7 PUSH2 0x11EE JUMP JUMPDEST SWAP5 POP PUSH1 0x1 DUP3 AND PUSH0 DUP2 EQ PUSH2 0x1C97 JUMPI PUSH1 0x1 DUP2 EQ PUSH2 0x1CAD JUMPI PUSH2 0x1CDF JUMP JUMPDEST PUSH1 0xFF NOT DUP4 AND DUP7 MSTORE DUP2 ISZERO ISZERO PUSH1 0x20 MUL DUP7 ADD SWAP4 POP PUSH2 0x1CDF JUMP JUMPDEST PUSH2 0x1CB6 DUP6 PUSH2 0x1963 JUMP JUMPDEST PUSH0 JUMPDEST DUP4 DUP2 LT ISZERO PUSH2 0x1CD7 JUMPI DUP2 SLOAD DUP2 DUP10 ADD MSTORE PUSH1 0x1 DUP3 ADD SWAP2 POP PUSH1 0x20 DUP2 ADD SWAP1 POP PUSH2 0x1CB8 JUMP JUMPDEST DUP1 DUP9 ADD SWAP6 POP POP POP JUMPDEST POP POP POP SWAP3 SWAP2 POP POP JUMP JUMPDEST PUSH0 DUP2 PUSH0 SHR SWAP1 POP SWAP2 SWAP1 POP JUMP JUMPDEST PUSH0 DUP2 SWAP1 POP SWAP2 SWAP1 POP JUMP JUMPDEST PUSH0 PUSH2 0x1D0E PUSH2 0x1D09 DUP4 PUSH2 0x1CE8 JUMP JUMPDEST PUSH2 0x1CF3 JUMP JUMPDEST SWAP1 POP SWAP2 SWAP1 POP JUMP JUMPDEST PUSH0 DUP2 SWAP1 POP SWAP2 SWAP1 POP JUMP JUMPDEST PUSH0 PUSH2 0x1D30 PUSH2 0x1D2B DUP4 PUSH2 0x1CE8 JUMP JUMPDEST PUSH2 0x1D15 JUMP JUMPDEST SWAP1 POP SWAP2 SWAP1 POP JUMP JUMPDEST PUSH0 PUSH1 0xC0 DUP4 ADD PUSH0 DUP1 DUP5 ADD DUP6 DUP4 SUB PUSH0 DUP8 ADD MSTORE PUSH2 0x1D51 DUP4 DUP3 PUSH2 0x1C67 JUMP JUMPDEST SWAP3 POP POP PUSH1 0x1 DUP5 ADD DUP6 DUP4 SUB PUSH1 0x20 DUP8 ADD MSTORE PUSH2 0x1D6A DUP4 DUP3 PUSH2 0x1C67 JUMP JUMPDEST SWAP3 POP POP PUSH1 0x2 DUP5 ADD SLOAD SWAP1 POP PUSH2 0x1D7D DUP2 PUSH2 0x1CFC JUMP JUMPDEST PUSH2 0x1D8A PUSH1 0x40 DUP8 ADD DUP3 PUSH2 0x1267 JUMP JUMPDEST POP PUSH1 0x3 DUP5 ADD SLOAD SWAP1 POP PUSH2 0x1D9B DUP2 PUSH2 0x1CFC JUMP JUMPDEST PUSH2 0x1DA8 PUSH1 0x60 DUP8 ADD DUP3 PUSH2 0x1267 JUMP JUMPDEST POP PUSH1 0x4 DUP5 ADD DUP6 DUP4 SUB PUSH1 0x80 DUP8 ADD MSTORE PUSH2 0x1DBF DUP4 DUP3 PUSH2 0x1C67 JUMP JUMPDEST SWAP3 POP POP PUSH1 0x5 DUP5 ADD SLOAD SWAP1 POP PUSH2 0x1DD2 DUP2 PUSH2 0x1D1E JUMP JUMPDEST PUSH2 0x1DDF PUSH1 0xA0 DUP8 ADD DUP3 PUSH2 0x127F JUMP JUMPDEST POP DUP2 SWAP3 POP POP POP SWAP3 SWAP2 POP POP JUMP JUMPDEST PUSH0 PUSH1 0x20 DUP3 ADD SWAP1 POP DUP2 DUP2 SUB PUSH0 DUP4 ADD MSTORE PUSH2 0x1E03 DUP2 DUP5 PUSH2 0x1D37 JUMP JUMPDEST SWAP1 POP SWAP3 SWAP2 POP POP JUMP INVALID LOG2 PUSH5 0x6970667358 0x22 SLT KECCAK256 PUSH12 0xFBCE0851CAC5442C0D304CEF 0xCC GASPRICE ADD BASEFEE BYTE 0xCE 0xEC AND LT 0xC4 0x5E 0xDB 0x5C SUB 0xAD PUSH9 0x485F8D64736F6C6343 STOP ADDMOD EQ STOP CALLER "
				},
				"gasEstimates": {
					"creation": {
						"codeDepositCost": "1549000",
						"executionCost": "50240",
						"totalCost": "1599240"
					},
					"external": {
						"addOwners(address)": "26949",
						"addTaxPayer(string,address)": "infinite",
						"createLicencia(string,string,uint256,uint256,string,string)": "infinite",
						"getLicenseLicence(address,string)": "infinite",
						"getUserLicences(address)": "infinite",
						"taxpayerAddress(string)": "infinite",
						"validLicence(address,bytes32)": "infinite"
					},
					"internal": {
						"_createUpdateContracLicense(address,string memory,struct Licencias.StructLicencia memory)": "infinite",
						"_loadLicenseAnUser(address,string memory)": "infinite",
						"_loadLicenseHashUserArray(address,bytes32)": "46527",
						"singLicense(address,string memory,string memory,uint256)": "infinite",
						"validTaxPayer(string memory)": "infinite"
					}
				},
				"methodIdentifiers": {
					"addOwners(address)": "5f3b1f3b",
					"addTaxPayer(string,address)": "9dfb7831",
					"createLicencia(string,string,uint256,uint256,string,string)": "dd2bd41e",
					"getLicenseLicence(address,string)": "61ad6d37",
					"getUserLicences(address)": "d1a81411",
					"taxpayerAddress(string)": "84e26b2c",
					"validLicence(address,bytes32)": "8c7c0098"
				}
			},
			"storageLayout": {
				"storage": [
					{
						"astId": 45,
						"contract": "TokenSGTX/contracts/Licencias.sol:Licencias",
						"label": "_recordedLicenses",
						"offset": 0,
						"slot": "0",
						"type": "t_mapping(t_address,t_mapping(t_string_memory_ptr,t_struct(StructLicencia)31_storage))"
					},
					{
						"astId": 50,
						"contract": "TokenSGTX/contracts/Licencias.sol:Licencias",
						"label": "_userLicenses",
						"offset": 0,
						"slot": "1",
						"type": "t_mapping(t_address,t_array(t_string_storage)dyn_storage)"
					},
					{
						"astId": 55,
						"contract": "TokenSGTX/contracts/Licencias.sol:Licencias",
						"label": "_userSings",
						"offset": 0,
						"slot": "2",
						"type": "t_mapping(t_address,t_array(t_bytes32)dyn_storage)"
					},
					{
						"astId": 59,
						"contract": "TokenSGTX/contracts/Licencias.sol:Licencias",
						"label": "_owners",
						"offset": 0,
						"slot": "3",
						"type": "t_mapping(t_address,t_bool)"
					},
					{
						"astId": 63,
						"contract": "TokenSGTX/contracts/Licencias.sol:Licencias",
						"label": "_taxpayers",
						"offset": 0,
						"slot": "4",
						"type": "t_mapping(t_string_memory_ptr,t_address)"
					},
					{
						"astId": 65,
						"contract": "TokenSGTX/contracts/Licencias.sol:Licencias",
						"label": "owner",
						"offset": 0,
						"slot": "5",
						"type": "t_address"
					},
					{
						"astId": 68,
						"contract": "TokenSGTX/contracts/Licencias.sol:Licencias",
						"label": "objlisense",
						"offset": 0,
						"slot": "6",
						"type": "t_struct(StructLicencia)31_storage"
					}
				],
				"types": {
					"t_address": {
						"encoding": "inplace",
						"label": "address",
						"numberOfBytes": "20"
					},
					"t_array(t_bytes32)dyn_storage": {
						"base": "t_bytes32",
						"encoding": "dynamic_array",
						"label": "bytes32[]",
						"numberOfBytes": "32"
					},
					"t_array(t_string_storage)dyn_storage": {
						"base": "t_string_storage",
						"encoding": "dynamic_array",
						"label": "string[]",
						"numberOfBytes": "32"
					},
					"t_bool": {
						"encoding": "inplace",
						"label": "bool",
						"numberOfBytes": "1"
					},
					"t_bytes32": {
						"encoding": "inplace",
						"label": "bytes32",
						"numberOfBytes": "32"
					},
					"t_mapping(t_address,t_array(t_bytes32)dyn_storage)": {
						"encoding": "mapping",
						"key": "t_address",
						"label": "mapping(address => bytes32[])",
						"numberOfBytes": "32",
						"value": "t_array(t_bytes32)dyn_storage"
					},
					"t_mapping(t_address,t_array(t_string_storage)dyn_storage)": {
						"encoding": "mapping",
						"key": "t_address",
						"label": "mapping(address => string[])",
						"numberOfBytes": "32",
						"value": "t_array(t_string_storage)dyn_storage"
					},
					"t_mapping(t_address,t_bool)": {
						"encoding": "mapping",
						"key": "t_address",
						"label": "mapping(address => bool)",
						"numberOfBytes": "32",
						"value": "t_bool"
					},
					"t_mapping(t_address,t_mapping(t_string_memory_ptr,t_struct(StructLicencia)31_storage))": {
						"encoding": "mapping",
						"key": "t_address",
						"label": "mapping(address => mapping(string => struct Licencias.StructLicencia))",
						"numberOfBytes": "32",
						"value": "t_mapping(t_string_memory_ptr,t_struct(StructLicencia)31_storage)"
					},
					"t_mapping(t_string_memory_ptr,t_address)": {
						"encoding": "mapping",
						"key": "t_string_memory_ptr",
						"label": "mapping(string => address)",
						"numberOfBytes": "32",
						"value": "t_address"
					},
					"t_mapping(t_string_memory_ptr,t_struct(StructLicencia)31_storage)": {
						"encoding": "mapping",
						"key": "t_string_memory_ptr",
						"label": "mapping(string => struct Licencias.StructLicencia)",
						"numberOfBytes": "32",
						"value": "t_struct(StructLicencia)31_storage"
					},
					"t_string_memory_ptr": {
						"encoding": "bytes",
						"label": "string",
						"numberOfBytes": "32"
					},
					"t_string_storage": {
						"encoding": "bytes",
						"label": "string",
						"numberOfBytes": "32"
					},
					"t_struct(StructLicencia)31_storage": {
						"encoding": "inplace",
						"label": "struct Licencias.StructLicencia",
						"members": [
							{
								"astId": 20,
								"contract": "TokenSGTX/contracts/Licencias.sol:Licencias",
								"label": "alcaldia",
								"offset": 0,
								"slot": "0",
								"type": "t_string_storage"
							},
							{
								"astId": 22,
								"contract": "TokenSGTX/contracts/Licencias.sol:Licencias",
								"label": "rif",
								"offset": 0,
								"slot": "1",
								"type": "t_string_storage"
							},
							{
								"astId": 24,
								"contract": "TokenSGTX/contracts/Licencias.sol:Licencias",
								"label": "renoDate",
								"offset": 0,
								"slot": "2",
								"type": "t_uint256"
							},
							{
								"astId": 26,
								"contract": "TokenSGTX/contracts/Licencias.sol:Licencias",
								"label": "expDate",
								"offset": 0,
								"slot": "3",
								"type": "t_uint256"
							},
							{
								"astId": 28,
								"contract": "TokenSGTX/contracts/Licencias.sol:Licencias",
								"label": "activitis",
								"offset": 0,
								"slot": "4",
								"type": "t_string_storage"
							},
							{
								"astId": 30,
								"contract": "TokenSGTX/contracts/Licencias.sol:Licencias",
								"label": "firma",
								"offset": 0,
								"slot": "5",
								"type": "t_bytes32"
							}
						],
						"numberOfBytes": "192"
					},
					"t_uint256": {
						"encoding": "inplace",
						"label": "uint256",
						"numberOfBytes": "32"
					}
				}
			},
			"userdoc": {
				"kind": "user",
				"methods": {},
				"version": 1
			}
		}
	}
}