{
	"TokenSGTX/contracts/LicensesTaxs.sol": {
		"LicenseTaxPayer": {
			"abi": [
				{
					"inputs": [],
					"stateMutability": "nonpayable",
					"type": "constructor"
				},
				{
					"anonymous": false,
					"inputs": [
						{
							"indexed": true,
							"internalType": "address",
							"name": "",
							"type": "address"
						},
						{
							"indexed": false,
							"internalType": "bool",
							"name": "",
							"type": "bool"
						}
					],
					"name": "eventNewAdminPropose",
					"type": "event"
				},
				{
					"anonymous": false,
					"inputs": [
						{
							"indexed": true,
							"internalType": "address",
							"name": "",
							"type": "address"
						},
						{
							"indexed": false,
							"internalType": "bool",
							"name": "",
							"type": "bool"
						}
					],
					"name": "eventNewAdminRegistred",
					"type": "event"
				},
				{
					"anonymous": false,
					"inputs": [
						{
							"indexed": true,
							"internalType": "address",
							"name": "",
							"type": "address"
						},
						{
							"indexed": false,
							"internalType": "bool",
							"name": "",
							"type": "bool"
						}
					],
					"name": "eventNewApprover",
					"type": "event"
				},
				{
					"anonymous": false,
					"inputs": [
						{
							"indexed": true,
							"internalType": "address",
							"name": "_addressHolder",
							"type": "address"
						},
						{
							"indexed": false,
							"internalType": "bytes32",
							"name": "sing",
							"type": "bytes32"
						}
					],
					"name": "eventSignatureCreate",
					"type": "event"
				},
				{
					"anonymous": false,
					"inputs": [
						{
							"indexed": true,
							"internalType": "address",
							"name": "_addressHolder",
							"type": "address"
						},
						{
							"indexed": false,
							"internalType": "bytes32",
							"name": "sing",
							"type": "bytes32"
						}
					],
					"name": "eventSignatureExpired",
					"type": "event"
				},
				{
					"inputs": [
						{
							"internalType": "string",
							"name": "_Id",
							"type": "string"
						},
						{
							"internalType": "address",
							"name": "_relationAddress",
							"type": "address"
						}
					],
					"name": "addApprover",
					"outputs": [
						{
							"internalType": "bool",
							"name": "",
							"type": "bool"
						}
					],
					"stateMutability": "payable",
					"type": "function"
				},
				{
					"inputs": [
						{
							"internalType": "string",
							"name": "_rif",
							"type": "string"
						},
						{
							"internalType": "address",
							"name": "_relationAddress",
							"type": "address"
						}
					],
					"name": "addTaxPayer",
					"outputs": [
						{
							"internalType": "bool",
							"name": "",
							"type": "bool"
						}
					],
					"stateMutability": "payable",
					"type": "function"
				},
				{
					"inputs": [
						{
							"internalType": "address",
							"name": "_relationAddress",
							"type": "address"
						}
					],
					"name": "approveAdmin",
					"outputs": [
						{
							"internalType": "bool",
							"name": "",
							"type": "bool"
						}
					],
					"stateMutability": "payable",
					"type": "function"
				},
				{
					"inputs": [],
					"name": "canMint",
					"outputs": [
						{
							"internalType": "bool",
							"name": "",
							"type": "bool"
						}
					],
					"stateMutability": "view",
					"type": "function"
				},
				{
					"inputs": [
						{
							"internalType": "bytes32",
							"name": "singnature",
							"type": "bytes32"
						}
					],
					"name": "expirationLicense",
					"outputs": [
						{
							"internalType": "bool",
							"name": "",
							"type": "bool"
						}
					],
					"stateMutability": "payable",
					"type": "function"
				},
				{
					"inputs": [
						{
							"internalType": "address",
							"name": "owner",
							"type": "address"
						},
						{
							"internalType": "bytes32",
							"name": "sign",
							"type": "bytes32"
						}
					],
					"name": "getExpiredLicense",
					"outputs": [
						{
							"components": [
								{
									"internalType": "string",
									"name": "concept",
									"type": "string"
								},
								{
									"internalType": "string",
									"name": "identifier",
									"type": "string"
								},
								{
									"internalType": "address",
									"name": "owner",
									"type": "address"
								},
								{
									"internalType": "string",
									"name": "data",
									"type": "string"
								},
								{
									"internalType": "address",
									"name": "aprrover",
									"type": "address"
								},
								{
									"internalType": "bytes32",
									"name": "signature",
									"type": "bytes32"
								},
								{
									"internalType": "bool",
									"name": "isEntity",
									"type": "bool"
								}
							],
							"internalType": "struct ISignature.StructSignature",
							"name": "",
							"type": "tuple"
						}
					],
					"stateMutability": "payable",
					"type": "function"
				},
				{
					"inputs": [
						{
							"internalType": "address",
							"name": "owner",
							"type": "address"
						}
					],
					"name": "getManyAddressSignature",
					"outputs": [
						{
							"internalType": "bytes32[]",
							"name": "",
							"type": "bytes32[]"
						}
					],
					"stateMutability": "view",
					"type": "function"
				},
				{
					"inputs": [],
					"name": "getOwnerAddressSignature",
					"outputs": [
						{
							"internalType": "bytes32[]",
							"name": "",
							"type": "bytes32[]"
						}
					],
					"stateMutability": "view",
					"type": "function"
				},
				{
					"inputs": [
						{
							"internalType": "bytes32",
							"name": "singnature",
							"type": "bytes32"
						}
					],
					"name": "getOwnnerSignature",
					"outputs": [
						{
							"components": [
								{
									"internalType": "string",
									"name": "concept",
									"type": "string"
								},
								{
									"internalType": "string",
									"name": "identifier",
									"type": "string"
								},
								{
									"internalType": "address",
									"name": "owner",
									"type": "address"
								},
								{
									"internalType": "string",
									"name": "data",
									"type": "string"
								},
								{
									"internalType": "address",
									"name": "aprrover",
									"type": "address"
								},
								{
									"internalType": "bytes32",
									"name": "signature",
									"type": "bytes32"
								},
								{
									"internalType": "bool",
									"name": "isEntity",
									"type": "bool"
								}
							],
							"internalType": "struct ISignature.StructSignature",
							"name": "",
							"type": "tuple"
						}
					],
					"stateMutability": "view",
					"type": "function"
				},
				{
					"inputs": [
						{
							"internalType": "bytes32",
							"name": "singnature",
							"type": "bytes32"
						}
					],
					"name": "getSignature",
					"outputs": [
						{
							"components": [
								{
									"internalType": "string",
									"name": "concept",
									"type": "string"
								},
								{
									"internalType": "string",
									"name": "identifier",
									"type": "string"
								},
								{
									"internalType": "address",
									"name": "owner",
									"type": "address"
								},
								{
									"internalType": "string",
									"name": "data",
									"type": "string"
								},
								{
									"internalType": "address",
									"name": "aprrover",
									"type": "address"
								},
								{
									"internalType": "bytes32",
									"name": "signature",
									"type": "bytes32"
								},
								{
									"internalType": "bool",
									"name": "isEntity",
									"type": "bool"
								}
							],
							"internalType": "struct ISignature.StructSignature",
							"name": "",
							"type": "tuple"
						}
					],
					"stateMutability": "view",
					"type": "function"
				},
				{
					"inputs": [],
					"name": "mintingStop",
					"outputs": [
						{
							"internalType": "bool",
							"name": "",
							"type": "bool"
						}
					],
					"stateMutability": "nonpayable",
					"type": "function"
				},
				{
					"inputs": [
						{
							"internalType": "address",
							"name": "_relationAddress",
							"type": "address"
						}
					],
					"name": "proposeAdmin",
					"outputs": [
						{
							"internalType": "bool",
							"name": "",
							"type": "bool"
						}
					],
					"stateMutability": "payable",
					"type": "function"
				},
				{
					"inputs": [
						{
							"internalType": "address",
							"name": "_successor",
							"type": "address"
						}
					],
					"name": "setSuccessor",
					"outputs": [
						{
							"internalType": "address",
							"name": "",
							"type": "address"
						}
					],
					"stateMutability": "payable",
					"type": "function"
				},
				{
					"inputs": [
						{
							"internalType": "string",
							"name": "_consept",
							"type": "string"
						},
						{
							"internalType": "string",
							"name": "_owner",
							"type": "string"
						},
						{
							"internalType": "string",
							"name": "_approver",
							"type": "string"
						},
						{
							"internalType": "string",
							"name": "data",
							"type": "string"
						},
						{
							"internalType": "string",
							"name": "identifier",
							"type": "string"
						}
					],
					"name": "signatureMint",
					"outputs": [
						{
							"internalType": "bytes32",
							"name": "",
							"type": "bytes32"
						}
					],
					"stateMutability": "payable",
					"type": "function"
				},
				{
					"inputs": [
						{
							"internalType": "bytes32",
							"name": "singnature",
							"type": "bytes32"
						}
					],
					"name": "signatureValidate",
					"outputs": [
						{
							"internalType": "bool",
							"name": "",
							"type": "bool"
						}
					],
					"stateMutability": "view",
					"type": "function"
				},
				{
					"inputs": [],
					"name": "successor",
					"outputs": [
						{
							"internalType": "address",
							"name": "",
							"type": "address"
						}
					],
					"stateMutability": "view",
					"type": "function"
				},
				{
					"inputs": [
						{
							"internalType": "string",
							"name": "_rif",
							"type": "string"
						}
					],
					"name": "taxpayerAddress",
					"outputs": [
						{
							"internalType": "address",
							"name": "",
							"type": "address"
						}
					],
					"stateMutability": "view",
					"type": "function"
				},
				{
					"inputs": [
						{
							"internalType": "address",
							"name": "NewOwner",
							"type": "address"
						}
					],
					"name": "tranferOwnership",
					"outputs": [
						{
							"internalType": "bool",
							"name": "",
							"type": "bool"
						}
					],
					"stateMutability": "payable",
					"type": "function"
				},
				{
					"inputs": [
						{
							"internalType": "string",
							"name": "_consept",
							"type": "string"
						},
						{
							"internalType": "string",
							"name": "_owner",
							"type": "string"
						},
						{
							"internalType": "string",
							"name": "_approver",
							"type": "string"
						},
						{
							"internalType": "string",
							"name": "data",
							"type": "string"
						},
						{
							"internalType": "string",
							"name": "identifier",
							"type": "string"
						}
					],
					"name": "validateData",
					"outputs": [
						{
							"internalType": "bool",
							"name": "",
							"type": "bool"
						}
					],
					"stateMutability": "view",
					"type": "function"
				}
			],
			"devdoc": {
				"kind": "dev",
				"methods": {},
				"version": 1
			},
			"evm": {
				"assembly": "    /* \"TokenSGTX/contracts/LicensesTaxs.sol\":158:9338  contract LicenseTaxPayer is ISignature {... */\n  mstore(0x40, 0x80)\n    /* \"TokenSGTX/contracts/LicensesTaxs.sol\":917:948  bool private stopMinting = true */\n  0x07\n  dup1\n  sload\n  not(shl(0xa0, 0xff))\n  and\n  shl(0xa0, 0x01)\n  or\n  swap1\n  sstore\n    /* \"TokenSGTX/contracts/LicensesTaxs.sol\":990:1078  constructor() {... */\n  callvalue\n  dup1\n  iszero\n  tag_1\n  jumpi\n  0x00\n  dup1\n  revert\ntag_1:\n  pop\n    /* \"TokenSGTX/contracts/LicensesTaxs.sol\":1023:1033  msg.sender */\n  caller\n    /* \"TokenSGTX/contracts/LicensesTaxs.sol\":1015:1034  _admins[msg.sender] */\n  0x00\n  dup2\n  dup2\n  mstore\n    /* \"TokenSGTX/contracts/LicensesTaxs.sol\":1015:1022  _admins */\n  0x04\n    /* \"TokenSGTX/contracts/LicensesTaxs.sol\":1015:1034  _admins[msg.sender] */\n  0x20\n  mstore\n  0x40\n  swap1\n  keccak256\n    /* \"TokenSGTX/contracts/LicensesTaxs.sol\":1015:1041  _admins[msg.sender] = true */\n  dup1\n  sload\n  not(0xff)\n  and\n    /* \"TokenSGTX/contracts/LicensesTaxs.sol\":1037:1041  true */\n  0x01\n    /* \"TokenSGTX/contracts/LicensesTaxs.sol\":1015:1041  _admins[msg.sender] = true */\n  or\n  swap1\n  sstore\n    /* \"TokenSGTX/contracts/LicensesTaxs.sol\":1052:1057  owner */\n  0x07\n    /* \"TokenSGTX/contracts/LicensesTaxs.sol\":1052:1070  owner = msg.sender */\n  dup1\n  sload\n  not(sub(shl(0xa0, 0x01), 0x01))\n  and\n  swap1\n  swap2\n  or\n  swap1\n  sstore\n    /* \"TokenSGTX/contracts/LicensesTaxs.sol\":158:9338  contract LicenseTaxPayer is ISignature {... */\n  dataSize(sub_0)\n  dup1\n  dataOffset(sub_0)\n  0x00\n  codecopy\n  0x00\n  return\nstop\n\nsub_0: assembly {\n        /* \"TokenSGTX/contracts/LicensesTaxs.sol\":158:9338  contract LicenseTaxPayer is ISignature {... */\n      mstore(0x40, 0x80)\n      jumpi(tag_1, lt(calldatasize, 0x04))\n      shr(0xe0, calldataload(0x00))\n      dup1\n      0x84e26b2c\n      gt\n      tag_21\n      jumpi\n      dup1\n      0xc8c2f4fe\n      gt\n      tag_22\n      jumpi\n      dup1\n      0xc8c2f4fe\n      eq\n      tag_16\n      jumpi\n      dup1\n      0xce7262a1\n      eq\n      tag_17\n      jumpi\n      dup1\n      0xd84ab181\n      eq\n      tag_18\n      jumpi\n      dup1\n      0xdc2aa909\n      eq\n      tag_19\n      jumpi\n      dup1\n      0xe516224e\n      eq\n      tag_20\n      jumpi\n      0x00\n      dup1\n      revert\n    tag_22:\n      dup1\n      0x84e26b2c\n      eq\n      tag_11\n      jumpi\n      dup1\n      0x9dfb7831\n      eq\n      tag_12\n      jumpi\n      dup1\n      0xbeb9716d\n      eq\n      tag_13\n      jumpi\n      dup1\n      0xbff2d536\n      eq\n      tag_14\n      jumpi\n      dup1\n      0xc4b14e0b\n      eq\n      tag_15\n      jumpi\n      0x00\n      dup1\n      revert\n    tag_21:\n      dup1\n      0x3fde3309\n      gt\n      tag_23\n      jumpi\n      dup1\n      0x3fde3309\n      eq\n      tag_6\n      jumpi\n      dup1\n      0x6d73e669\n      eq\n      tag_7\n      jumpi\n      dup1\n      0x6ff968c3\n      eq\n      tag_8\n      jumpi\n      dup1\n      0x7ea5cc1a\n      eq\n      tag_9\n      jumpi\n      dup1\n      0x83fc58b4\n      eq\n      tag_10\n      jumpi\n      0x00\n      dup1\n      revert\n    tag_23:\n      dup1\n      0x0c0bd76b\n      eq\n      tag_2\n      jumpi\n      dup1\n      0x10e5bff8\n      eq\n      tag_3\n      jumpi\n      dup1\n      0x147bf6c4\n      eq\n      tag_4\n      jumpi\n      dup1\n      0x369f6cd7\n      eq\n      tag_5\n      jumpi\n    tag_1:\n      0x00\n      dup1\n      revert\n        /* \"TokenSGTX/contracts/LicensesTaxs.sol\":2728:3064  function getOwnnerSignature(... */\n    tag_2:\n      callvalue\n      dup1\n      iszero\n      tag_24\n      jumpi\n      0x00\n      dup1\n      revert\n    tag_24:\n      pop\n      tag_25\n      tag_26\n      calldatasize\n      0x04\n      tag_27\n      jump\t// in\n    tag_26:\n      tag_28\n      jump\t// in\n    tag_25:\n      mload(0x40)\n      tag_29\n      swap2\n      swap1\n      tag_30\n      jump\t// in\n    tag_29:\n      mload(0x40)\n      dup1\n      swap2\n      sub\n      swap1\n      return\n        /* \"TokenSGTX/contracts/LicensesTaxs.sol\":8563:8785  function setSuccessor(address _successor) public payable isOwner returns (address) {... */\n    tag_3:\n      tag_31\n      tag_32\n      calldatasize\n      0x04\n      tag_33\n      jump\t// in\n    tag_32:\n      tag_34\n      jump\t// in\n    tag_31:\n      mload(0x40)\n      sub(shl(0xa0, 0x01), 0x01)\n        /* \"#utility.yul\":2540:2572   */\n      swap1\n      swap2\n      and\n        /* \"#utility.yul\":2522:2573   */\n      dup2\n      mstore\n        /* \"#utility.yul\":2510:2512   */\n      0x20\n        /* \"#utility.yul\":2495:2513   */\n      add\n        /* \"TokenSGTX/contracts/LicensesTaxs.sol\":8563:8785  function setSuccessor(address _successor) public payable isOwner returns (address) {... */\n      tag_29\n        /* \"#utility.yul\":2376:2579   */\n      jump\n        /* \"TokenSGTX/contracts/LicensesTaxs.sol\":7169:7544  function proposeAdmin(... */\n    tag_4:\n      tag_37\n      tag_38\n      calldatasize\n      0x04\n      tag_33\n      jump\t// in\n    tag_38:\n      tag_39\n      jump\t// in\n    tag_37:\n      mload(0x40)\n        /* \"#utility.yul\":2749:2763   */\n      swap1\n      iszero\n        /* \"#utility.yul\":2742:2764   */\n      iszero\n        /* \"#utility.yul\":2724:2765   */\n      dup2\n      mstore\n        /* \"#utility.yul\":2712:2714   */\n      0x20\n        /* \"#utility.yul\":2697:2715   */\n      add\n        /* \"TokenSGTX/contracts/LicensesTaxs.sol\":7169:7544  function proposeAdmin(... */\n      tag_29\n        /* \"#utility.yul\":2584:2771   */\n      jump\n        /* \"TokenSGTX/contracts/LicensesTaxs.sol\":3072:3228  function getManyAddressSignature(... */\n    tag_5:\n      callvalue\n      dup1\n      iszero\n      tag_42\n      jumpi\n      0x00\n      dup1\n      revert\n    tag_42:\n      pop\n      tag_43\n      tag_44\n      calldatasize\n      0x04\n      tag_33\n      jump\t// in\n    tag_44:\n      tag_45\n      jump\t// in\n    tag_43:\n      mload(0x40)\n      tag_29\n      swap2\n      swap1\n      tag_47\n      jump\t// in\n        /* \"TokenSGTX/contracts/LicensesTaxs.sol\":3236:3361  function getOwnerAddressSignature() external view returns (bytes32[] memory) {... */\n    tag_6:\n      callvalue\n      dup1\n      iszero\n      tag_48\n      jumpi\n      0x00\n      dup1\n      revert\n    tag_48:\n      pop\n      tag_43\n      tag_50\n      jump\t// in\n        /* \"TokenSGTX/contracts/LicensesTaxs.sol\":7552:7975  function approveAdmin(... */\n    tag_7:\n      tag_37\n      tag_53\n      calldatasize\n      0x04\n      tag_33\n      jump\t// in\n    tag_53:\n      tag_54\n      jump\t// in\n        /* \"TokenSGTX/contracts/LicensesTaxs.sol\":957:981  address public successor */\n    tag_8:\n      callvalue\n      dup1\n      iszero\n      tag_56\n      jumpi\n      0x00\n      dup1\n      revert\n    tag_56:\n      pop\n      sload(0x08)\n      tag_31\n      swap1\n      sub(shl(0xa0, 0x01), 0x01)\n      and\n      dup2\n      jump\n        /* \"TokenSGTX/contracts/LicensesTaxs.sol\":4872:5357  function validateData(... */\n    tag_9:\n      callvalue\n      dup1\n      iszero\n      tag_60\n      jumpi\n      0x00\n      dup1\n      revert\n    tag_60:\n      pop\n      tag_37\n      tag_62\n      calldatasize\n      0x04\n      tag_63\n      jump\t// in\n    tag_62:\n      tag_64\n      jump\t// in\n        /* \"TokenSGTX/contracts/LicensesTaxs.sol\":8325:8555  function tranferOwnership(... */\n    tag_10:\n      tag_37\n      tag_67\n      calldatasize\n      0x04\n      tag_33\n      jump\t// in\n    tag_67:\n      tag_68\n      jump\t// in\n        /* \"TokenSGTX/contracts/LicensesTaxs.sol\":3369:3510  function taxpayerAddress(... */\n    tag_11:\n      callvalue\n      dup1\n      iszero\n      tag_70\n      jumpi\n      0x00\n      dup1\n      revert\n    tag_70:\n      pop\n      tag_31\n      tag_72\n      calldatasize\n      0x04\n      tag_73\n      jump\t// in\n    tag_72:\n      tag_74\n      jump\t// in\n        /* \"TokenSGTX/contracts/LicensesTaxs.sol\":6955:7161  function addTaxPayer(... */\n    tag_12:\n      tag_37\n      tag_77\n      calldatasize\n      0x04\n      tag_78\n      jump\t// in\n    tag_77:\n      tag_79\n      jump\t// in\n        /* \"TokenSGTX/contracts/LicensesTaxs.sol\":8928:9013  function canMint() external view returns (bool) {... */\n    tag_13:\n      callvalue\n      dup1\n      iszero\n      tag_81\n      jumpi\n      0x00\n      dup1\n      revert\n    tag_81:\n      pop\n        /* \"TokenSGTX/contracts/LicensesTaxs.sol\":8994:9005  stopMinting */\n      sload(0x07)\n      shl(0xa0, 0x01)\n      swap1\n      div\n      0xff\n      and\n        /* \"TokenSGTX/contracts/LicensesTaxs.sol\":8928:9013  function canMint() external view returns (bool) {... */\n      jump(tag_37)\n        /* \"TokenSGTX/contracts/LicensesTaxs.sol\":2281:2544  function signatureValidate(... */\n    tag_14:\n      callvalue\n      dup1\n      iszero\n      tag_85\n      jumpi\n      0x00\n      dup1\n      revert\n    tag_85:\n      pop\n      tag_37\n      tag_87\n      calldatasize\n      0x04\n      tag_27\n      jump\t// in\n    tag_87:\n      tag_88\n      jump\t// in\n        /* \"TokenSGTX/contracts/LicensesTaxs.sol\":2552:2720  function getSignature(... */\n    tag_15:\n      callvalue\n      dup1\n      iszero\n      tag_90\n      jumpi\n      0x00\n      dup1\n      revert\n    tag_90:\n      pop\n      tag_25\n      tag_92\n      calldatasize\n      0x04\n      tag_27\n      jump\t// in\n    tag_92:\n      tag_93\n      jump\t// in\n        /* \"TokenSGTX/contracts/LicensesTaxs.sol\":7983:8317  function addApprover(... */\n    tag_16:\n      tag_37\n      tag_96\n      calldatasize\n      0x04\n      tag_78\n      jump\t// in\n    tag_96:\n      tag_97\n      jump\t// in\n        /* \"TokenSGTX/contracts/LicensesTaxs.sol\":1086:2273  function signatureMint(... */\n    tag_17:\n      tag_99\n      tag_100\n      calldatasize\n      0x04\n      tag_63\n      jump\t// in\n    tag_100:\n      tag_101\n      jump\t// in\n    tag_99:\n      mload(0x40)\n        /* \"#utility.yul\":6293:6318   */\n      swap1\n      dup2\n      mstore\n        /* \"#utility.yul\":6281:6283   */\n      0x20\n        /* \"#utility.yul\":6266:6284   */\n      add\n        /* \"TokenSGTX/contracts/LicensesTaxs.sol\":1086:2273  function signatureMint(... */\n      tag_29\n        /* \"#utility.yul\":6147:6324   */\n      jump\n        /* \"TokenSGTX/contracts/LicensesTaxs.sol\":5906:6558  function expirationLicense(... */\n    tag_18:\n      tag_37\n      tag_105\n      calldatasize\n      0x04\n      tag_27\n      jump\t// in\n    tag_105:\n      tag_106\n      jump\t// in\n        /* \"TokenSGTX/contracts/LicensesTaxs.sol\":8793:8920  function mintingStop() public isOwner returns (bool) {... */\n    tag_19:\n      callvalue\n      dup1\n      iszero\n      tag_108\n      jumpi\n      0x00\n      dup1\n      revert\n    tag_108:\n      pop\n      tag_37\n      tag_110\n      jump\t// in\n        /* \"TokenSGTX/contracts/LicensesTaxs.sol\":6568:6947  function getExpiredLicense(address owner , bytes32 sign) public payable isOwner returns (StructSignature memory) {... */\n    tag_20:\n      tag_25\n      tag_113\n      calldatasize\n      0x04\n      tag_114\n      jump\t// in\n    tag_113:\n      tag_115\n      jump\t// in\n        /* \"TokenSGTX/contracts/LicensesTaxs.sol\":2728:3064  function getOwnnerSignature(... */\n    tag_28:\n        /* \"TokenSGTX/contracts/LicensesTaxs.sol\":2815:2837  StructSignature memory */\n      tag_117\n      tag_118\n      jump\t// in\n    tag_117:\n        /* \"TokenSGTX/contracts/LicensesTaxs.sol\":2850:2876  StructSignature memory obj */\n      0x00\n        /* \"TokenSGTX/contracts/LicensesTaxs.sol\":2879:2908  _signatureEnabled[singnature] */\n      dup3\n      dup2\n      mstore\n      0x20\n      dup2\n      swap1\n      mstore\n      0x40\n      dup1\n      dup3\n      keccak256\n        /* \"TokenSGTX/contracts/LicensesTaxs.sol\":2850:2908  StructSignature memory obj = _signatureEnabled[singnature] */\n      dup2\n      mload\n      0xe0\n      dup2\n      add\n      swap1\n      swap3\n      mstore\n      dup1\n      sload\n      dup3\n      swap1\n        /* \"TokenSGTX/contracts/LicensesTaxs.sol\":2879:2908  _signatureEnabled[singnature] */\n      dup3\n      swap1\n        /* \"TokenSGTX/contracts/LicensesTaxs.sol\":2850:2908  StructSignature memory obj = _signatureEnabled[singnature] */\n      tag_120\n      swap1\n      tag_121\n      jump\t// in\n    tag_120:\n      dup1\n      0x1f\n      add\n      0x20\n      dup1\n      swap2\n      div\n      mul\n      0x20\n      add\n      mload(0x40)\n      swap1\n      dup2\n      add\n      0x40\n      mstore\n      dup1\n      swap3\n      swap2\n      swap1\n      dup2\n      dup2\n      mstore\n      0x20\n      add\n      dup3\n      dup1\n      sload\n      tag_122\n      swap1\n      tag_121\n      jump\t// in\n    tag_122:\n      dup1\n      iszero\n      tag_123\n      jumpi\n      dup1\n      0x1f\n      lt\n      tag_124\n      jumpi\n      0x0100\n      dup1\n      dup4\n      sload\n      div\n      mul\n      dup4\n      mstore\n      swap2\n      0x20\n      add\n      swap2\n      jump(tag_123)\n    tag_124:\n      dup3\n      add\n      swap2\n      swap1\n      0x00\n      mstore\n      keccak256(0x00, 0x20)\n      swap1\n    tag_125:\n      dup2\n      sload\n      dup2\n      mstore\n      swap1\n      0x01\n      add\n      swap1\n      0x20\n      add\n      dup1\n      dup4\n      gt\n      tag_125\n      jumpi\n      dup3\n      swap1\n      sub\n      0x1f\n      and\n      dup3\n      add\n      swap2\n    tag_123:\n      pop\n      pop\n      pop\n      pop\n      pop\n      dup2\n      mstore\n      0x20\n      add\n      0x01\n      dup3\n      add\n      dup1\n      sload\n      tag_126\n      swap1\n      tag_121\n      jump\t// in\n    tag_126:\n      dup1\n      0x1f\n      add\n      0x20\n      dup1\n      swap2\n      div\n      mul\n      0x20\n      add\n      mload(0x40)\n      swap1\n      dup2\n      add\n      0x40\n      mstore\n      dup1\n      swap3\n      swap2\n      swap1\n      dup2\n      dup2\n      mstore\n      0x20\n      add\n      dup3\n      dup1\n      sload\n      tag_127\n      swap1\n      tag_121\n      jump\t// in\n    tag_127:\n      dup1\n      iszero\n      tag_128\n      jumpi\n      dup1\n      0x1f\n      lt\n      tag_129\n      jumpi\n      0x0100\n      dup1\n      dup4\n      sload\n      div\n      mul\n      dup4\n      mstore\n      swap2\n      0x20\n      add\n      swap2\n      jump(tag_128)\n    tag_129:\n      dup3\n      add\n      swap2\n      swap1\n      0x00\n      mstore\n      keccak256(0x00, 0x20)\n      swap1\n    tag_130:\n      dup2\n      sload\n      dup2\n      mstore\n      swap1\n      0x01\n      add\n      swap1\n      0x20\n      add\n      dup1\n      dup4\n      gt\n      tag_130\n      jumpi\n      dup3\n      swap1\n      sub\n      0x1f\n      and\n      dup3\n      add\n      swap2\n    tag_128:\n      pop\n      pop\n      pop\n      swap2\n      dup4\n      mstore\n      pop\n      pop\n      0x02\n      dup3\n      add\n      sload\n      sub(shl(0xa0, 0x01), 0x01)\n      and\n      0x20\n      dup3\n      add\n      mstore\n      0x03\n      dup3\n      add\n      dup1\n      sload\n      0x40\n      swap1\n      swap3\n      add\n      swap2\n      tag_131\n      swap1\n      tag_121\n      jump\t// in\n    tag_131:\n      dup1\n      0x1f\n      add\n      0x20\n      dup1\n      swap2\n      div\n      mul\n      0x20\n      add\n      mload(0x40)\n      swap1\n      dup2\n      add\n      0x40\n      mstore\n      dup1\n      swap3\n      swap2\n      swap1\n      dup2\n      dup2\n      mstore\n      0x20\n      add\n      dup3\n      dup1\n      sload\n      tag_132\n      swap1\n      tag_121\n      jump\t// in\n    tag_132:\n      dup1\n      iszero\n      tag_133\n      jumpi\n      dup1\n      0x1f\n      lt\n      tag_134\n      jumpi\n      0x0100\n      dup1\n      dup4\n      sload\n      div\n      mul\n      dup4\n      mstore\n      swap2\n      0x20\n      add\n      swap2\n      jump(tag_133)\n    tag_134:\n      dup3\n      add\n      swap2\n      swap1\n      0x00\n      mstore\n      keccak256(0x00, 0x20)\n      swap1\n    tag_135:\n      dup2\n      sload\n      dup2\n      mstore\n      swap1\n      0x01\n      add\n      swap1\n      0x20\n      add\n      dup1\n      dup4\n      gt\n      tag_135\n      jumpi\n      dup3\n      swap1\n      sub\n      0x1f\n      and\n      dup3\n      add\n      swap2\n    tag_133:\n      pop\n      pop\n      pop\n      swap2\n      dup4\n      mstore\n      pop\n      pop\n      0x04\n      dup3\n      add\n      sload\n      sub(shl(0xa0, 0x01), 0x01)\n      swap1\n      dup2\n      and\n      0x20\n      dup4\n      add\n      mstore\n      0x05\n      dup4\n      add\n      sload\n      0x40\n      dup1\n      dup5\n      add\n      swap2\n      swap1\n      swap2\n      mstore\n      0x06\n      swap1\n      swap4\n      add\n      sload\n      0xff\n      and\n      iszero\n      iszero\n      0x60\n      swap1\n      swap3\n      add\n      swap2\n      swap1\n      swap2\n      mstore\n        /* \"TokenSGTX/contracts/LicensesTaxs.sol\":2941:2950  obj.owner */\n      swap1\n      dup3\n      add\n      mload\n        /* \"TokenSGTX/contracts/LicensesTaxs.sol\":2850:2908  StructSignature memory obj = _signatureEnabled[singnature] */\n      swap2\n      swap3\n      pop\n        /* \"TokenSGTX/contracts/LicensesTaxs.sol\":2941:2964  obj.owner == msg.sender */\n      and\n        /* \"TokenSGTX/contracts/LicensesTaxs.sol\":2954:2964  msg.sender */\n      caller\n        /* \"TokenSGTX/contracts/LicensesTaxs.sol\":2941:2964  obj.owner == msg.sender */\n      eq\n        /* \"TokenSGTX/contracts/LicensesTaxs.sol\":2919:3034  require(... */\n      tag_136\n      jumpi\n      mload(0x40)\n      shl(0xe5, 0x461bcd)\n      dup2\n      mstore\n        /* \"#utility.yul\":7175:7177   */\n      0x20\n        /* \"TokenSGTX/contracts/LicensesTaxs.sol\":2919:3034  require(... */\n      0x04\n      dup3\n      add\n        /* \"#utility.yul\":7157:7178   */\n      mstore\n        /* \"#utility.yul\":7214:7216   */\n      0x2a\n        /* \"#utility.yul\":7194:7212   */\n      0x24\n      dup3\n      add\n        /* \"#utility.yul\":7187:7217   */\n      mstore\n        /* \"#utility.yul\":7253:7287   */\n      0x596f75206d6f6e737420626520746865206f776e657220746f2073686f772064\n        /* \"#utility.yul\":7233:7251   */\n      0x44\n      dup3\n      add\n        /* \"#utility.yul\":7226:7288   */\n      mstore\n      shl(0xb2, 0x185d18481cda59db9959)\n        /* \"#utility.yul\":7304:7322   */\n      0x64\n      dup3\n      add\n        /* \"#utility.yul\":7297:7337   */\n      mstore\n        /* \"#utility.yul\":7354:7373   */\n      0x84\n      add\n        /* \"TokenSGTX/contracts/LicensesTaxs.sol\":2919:3034  require(... */\n    tag_137:\n      mload(0x40)\n      dup1\n      swap2\n      sub\n      swap1\n      revert\n    tag_136:\n        /* \"TokenSGTX/contracts/LicensesTaxs.sol\":3053:3056  obj */\n      swap3\n        /* \"TokenSGTX/contracts/LicensesTaxs.sol\":2728:3064  function getOwnnerSignature(... */\n      swap2\n      pop\n      pop\n      jump\t// out\n        /* \"TokenSGTX/contracts/LicensesTaxs.sol\":8563:8785  function setSuccessor(address _successor) public payable isOwner returns (address) {... */\n    tag_34:\n        /* \"TokenSGTX/contracts/LicensesTaxs.sol\":9073:9078  owner */\n      sload(0x07)\n        /* \"TokenSGTX/contracts/LicensesTaxs.sol\":8637:8644  address */\n      0x00\n      swap1\n      sub(shl(0xa0, 0x01), 0x01)\n        /* \"TokenSGTX/contracts/LicensesTaxs.sol\":9073:9078  owner */\n      and\n        /* \"TokenSGTX/contracts/LicensesTaxs.sol\":9059:9069  msg.sender */\n      caller\n        /* \"TokenSGTX/contracts/LicensesTaxs.sol\":9059:9078  msg.sender == owner */\n      eq\n        /* \"TokenSGTX/contracts/LicensesTaxs.sol\":9051:9106  require(msg.sender == owner, \"Only Owner can activate\") */\n      tag_140\n      jumpi\n      mload(0x40)\n      shl(0xe5, 0x461bcd)\n      dup2\n      mstore\n      0x04\n      add\n      tag_137\n      swap1\n      tag_142\n      jump\t// in\n    tag_140:\n      sub(shl(0xa0, 0x01), 0x01)\n        /* \"TokenSGTX/contracts/LicensesTaxs.sol\":8665:8689  _successor != address(0) */\n      dup3\n      and\n        /* \"TokenSGTX/contracts/LicensesTaxs.sol\":8657:8717  require(_successor != address(0), \"Must be a valid address\") */\n      tag_144\n      jumpi\n      mload(0x40)\n      shl(0xe5, 0x461bcd)\n      dup2\n      mstore\n        /* \"#utility.yul\":7938:7940   */\n      0x20\n        /* \"TokenSGTX/contracts/LicensesTaxs.sol\":8657:8717  require(_successor != address(0), \"Must be a valid address\") */\n      0x04\n      dup3\n      add\n        /* \"#utility.yul\":7920:7941   */\n      mstore\n        /* \"#utility.yul\":7977:7979   */\n      0x17\n        /* \"#utility.yul\":7957:7975   */\n      0x24\n      dup3\n      add\n        /* \"#utility.yul\":7950:7980   */\n      mstore\n        /* \"#utility.yul\":8016:8041   */\n      0x4d75737420626520612076616c69642061646472657373000000000000000000\n        /* \"#utility.yul\":7996:8014   */\n      0x44\n      dup3\n      add\n        /* \"#utility.yul\":7989:8042   */\n      mstore\n        /* \"#utility.yul\":8059:8077   */\n      0x64\n      add\n        /* \"TokenSGTX/contracts/LicensesTaxs.sol\":8657:8717  require(_successor != address(0), \"Must be a valid address\") */\n      tag_137\n        /* \"#utility.yul\":7736:8083   */\n      jump\n        /* \"TokenSGTX/contracts/LicensesTaxs.sol\":8657:8717  require(_successor != address(0), \"Must be a valid address\") */\n    tag_144:\n      pop\n        /* \"TokenSGTX/contracts/LicensesTaxs.sol\":8728:8737  successor */\n      0x08\n        /* \"TokenSGTX/contracts/LicensesTaxs.sol\":8728:8750  successor = _successor */\n      dup1\n      sload\n      not(sub(shl(0xa0, 0x01), 0x01))\n      and\n      sub(shl(0xa0, 0x01), 0x01)\n      dup4\n      and\n      swap1\n      dup2\n      or\n      swap1\n      swap2\n      sstore\n        /* \"TokenSGTX/contracts/LicensesTaxs.sol\":9117:9118  _ */\n    tag_143:\n        /* \"TokenSGTX/contracts/LicensesTaxs.sol\":8563:8785  function setSuccessor(address _successor) public payable isOwner returns (address) {... */\n      swap2\n      swap1\n      pop\n      jump\t// out\n        /* \"TokenSGTX/contracts/LicensesTaxs.sol\":7169:7544  function proposeAdmin(... */\n    tag_39:\n        /* \"TokenSGTX/contracts/LicensesTaxs.sol\":9180:9190  msg.sender */\n      caller\n        /* \"TokenSGTX/contracts/LicensesTaxs.sol\":7265:7269  bool */\n      0x00\n        /* \"TokenSGTX/contracts/LicensesTaxs.sol\":9172:9191  _admins[msg.sender] */\n      swap1\n      dup2\n      mstore\n        /* \"TokenSGTX/contracts/LicensesTaxs.sol\":9172:9179  _admins */\n      0x04\n        /* \"TokenSGTX/contracts/LicensesTaxs.sol\":9172:9191  _admins[msg.sender] */\n      0x20\n      mstore\n      0x40\n      dup2\n      keccak256\n      sload\n      0xff\n      and\n        /* \"TokenSGTX/contracts/LicensesTaxs.sol\":9164:9192  require(_admins[msg.sender]) */\n      tag_148\n      jumpi\n      0x00\n      dup1\n      revert\n    tag_148:\n      sub(shl(0xa0, 0x01), 0x01)\n        /* \"TokenSGTX/contracts/LicensesTaxs.sol\":7304:7336  _propoceAdmins[_relationAddress] */\n      dup3\n      and\n      0x00\n      swap1\n      dup2\n      mstore\n        /* \"TokenSGTX/contracts/LicensesTaxs.sol\":7304:7318  _propoceAdmins */\n      0x05\n        /* \"TokenSGTX/contracts/LicensesTaxs.sol\":7304:7336  _propoceAdmins[_relationAddress] */\n      0x20\n      mstore\n      0x40\n      swap1\n      keccak256\n      sload\n      0xff\n      and\n        /* \"TokenSGTX/contracts/LicensesTaxs.sol\":7304:7344  _propoceAdmins[_relationAddress] != true */\n      iszero\n      iszero\n        /* \"TokenSGTX/contracts/LicensesTaxs.sol\":7304:7336  _propoceAdmins[_relationAddress] */\n      0x01\n        /* \"TokenSGTX/contracts/LicensesTaxs.sol\":7304:7344  _propoceAdmins[_relationAddress] != true */\n      sub\n        /* \"TokenSGTX/contracts/LicensesTaxs.sol\":7282:7404  require(... */\n      tag_150\n      jumpi\n      mload(0x40)\n      shl(0xe5, 0x461bcd)\n      dup2\n      mstore\n        /* \"#utility.yul\":8290:8292   */\n      0x20\n        /* \"TokenSGTX/contracts/LicensesTaxs.sol\":7282:7404  require(... */\n      0x04\n      dup3\n      add\n        /* \"#utility.yul\":8272:8293   */\n      dup2\n      swap1\n      mstore\n        /* \"#utility.yul\":8309:8327   */\n      0x24\n      dup3\n      add\n        /* \"#utility.yul\":8302:8332   */\n      mstore\n        /* \"#utility.yul\":8368:8402   */\n      0x6164647265737320666f722061646d696e20616c726564792070726f706f7365\n        /* \"#utility.yul\":8348:8366   */\n      0x44\n      dup3\n      add\n        /* \"#utility.yul\":8341:8403   */\n      mstore\n        /* \"#utility.yul\":8420:8438   */\n      0x64\n      add\n        /* \"TokenSGTX/contracts/LicensesTaxs.sol\":7282:7404  require(... */\n      tag_137\n        /* \"#utility.yul\":8088:8444   */\n      jump\n        /* \"TokenSGTX/contracts/LicensesTaxs.sol\":7282:7404  require(... */\n    tag_150:\n      sub(shl(0xa0, 0x01), 0x01)\n        /* \"TokenSGTX/contracts/LicensesTaxs.sol\":7415:7447  _propoceAdmins[_relationAddress] */\n      dup3\n      and\n      0x00\n      dup2\n      dup2\n      mstore\n        /* \"TokenSGTX/contracts/LicensesTaxs.sol\":7415:7429  _propoceAdmins */\n      0x05\n        /* \"TokenSGTX/contracts/LicensesTaxs.sol\":7415:7447  _propoceAdmins[_relationAddress] */\n      0x20\n      swap1\n      dup2\n      mstore\n      0x40\n      swap2\n      dup3\n      swap1\n      keccak256\n        /* \"TokenSGTX/contracts/LicensesTaxs.sol\":7415:7454  _propoceAdmins[_relationAddress] = true */\n      dup1\n      sload\n      not(0xff)\n      and\n        /* \"TokenSGTX/contracts/LicensesTaxs.sol\":7450:7454  true */\n      0x01\n        /* \"TokenSGTX/contracts/LicensesTaxs.sol\":7415:7454  _propoceAdmins[_relationAddress] = true */\n      swap1\n      dup2\n      or\n      swap1\n      swap2\n      sstore\n        /* \"TokenSGTX/contracts/LicensesTaxs.sol\":7470:7514  eventNewAdminPropose(_relationAddress, true) */\n      swap2\n      mload\n        /* \"#utility.yul\":2724:2765   */\n      swap2\n      dup3\n      mstore\n        /* \"TokenSGTX/contracts/LicensesTaxs.sol\":7470:7514  eventNewAdminPropose(_relationAddress, true) */\n      0xfcd0029428c001bd11d12d6e8302dda11ac68335a836d75d43004bf4ca7292ef\n      swap2\n        /* \"#utility.yul\":2697:2715   */\n      add\n        /* \"TokenSGTX/contracts/LicensesTaxs.sol\":7470:7514  eventNewAdminPropose(_relationAddress, true) */\n    tag_153:\n      mload(0x40)\n      dup1\n      swap2\n      sub\n      swap1\n      log2\n      pop\n        /* \"TokenSGTX/contracts/LicensesTaxs.sol\":7532:7536  true */\n      0x01\n        /* \"TokenSGTX/contracts/LicensesTaxs.sol\":7169:7544  function proposeAdmin(... */\n      swap2\n      swap1\n      pop\n      jump\t// out\n        /* \"TokenSGTX/contracts/LicensesTaxs.sol\":3072:3228  function getManyAddressSignature(... */\n    tag_45:\n        /* \"TokenSGTX/contracts/LicensesTaxs.sol\":9180:9190  msg.sender */\n      caller\n        /* \"TokenSGTX/contracts/LicensesTaxs.sol\":9172:9191  _admins[msg.sender] */\n      0x00\n      swap1\n      dup2\n      mstore\n        /* \"TokenSGTX/contracts/LicensesTaxs.sol\":9172:9179  _admins */\n      0x04\n        /* \"TokenSGTX/contracts/LicensesTaxs.sol\":9172:9191  _admins[msg.sender] */\n      0x20\n      mstore\n      0x40\n      swap1\n      keccak256\n      sload\n        /* \"TokenSGTX/contracts/LicensesTaxs.sol\":3167:3183  bytes32[] memory */\n      0x60\n      swap1\n        /* \"TokenSGTX/contracts/LicensesTaxs.sol\":9172:9191  _admins[msg.sender] */\n      0xff\n      and\n        /* \"TokenSGTX/contracts/LicensesTaxs.sol\":9164:9192  require(_admins[msg.sender]) */\n      tag_155\n      jumpi\n      0x00\n      dup1\n      revert\n    tag_155:\n      sub(shl(0xa0, 0x01), 0x01)\n        /* \"TokenSGTX/contracts/LicensesTaxs.sol\":3203:3220  _userSings[owner] */\n      dup3\n      and\n      0x00\n      swap1\n      dup2\n      mstore\n        /* \"TokenSGTX/contracts/LicensesTaxs.sol\":3203:3213  _userSings */\n      0x01\n        /* \"TokenSGTX/contracts/LicensesTaxs.sol\":3203:3220  _userSings[owner] */\n      0x20\n      swap1\n      dup2\n      mstore\n      0x40\n      swap2\n      dup3\n      swap1\n      keccak256\n        /* \"TokenSGTX/contracts/LicensesTaxs.sol\":3196:3220  return _userSings[owner] */\n      dup1\n      sload\n      dup4\n      mload\n      dup2\n      dup5\n      mul\n      dup2\n      add\n      dup5\n      add\n      swap1\n      swap5\n      mstore\n      dup1\n      dup5\n      mstore\n        /* \"TokenSGTX/contracts/LicensesTaxs.sol\":3203:3220  _userSings[owner] */\n      swap1\n      swap2\n        /* \"TokenSGTX/contracts/LicensesTaxs.sol\":3196:3220  return _userSings[owner] */\n      dup4\n      add\n        /* \"TokenSGTX/contracts/LicensesTaxs.sol\":3203:3220  _userSings[owner] */\n      dup3\n        /* \"TokenSGTX/contracts/LicensesTaxs.sol\":3196:3220  return _userSings[owner] */\n      dup3\n      dup1\n      iszero\n      tag_157\n      jumpi\n      0x20\n      mul\n      dup3\n      add\n      swap2\n      swap1\n      0x00\n      mstore\n      keccak256(0x00, 0x20)\n      swap1\n    tag_158:\n      dup2\n      sload\n      dup2\n      mstore\n      0x20\n      add\n      swap1\n      0x01\n      add\n      swap1\n      dup1\n      dup4\n      gt\n      tag_158\n      jumpi\n    tag_157:\n      pop\n      pop\n      pop\n      pop\n      pop\n      swap1\n      pop\n        /* \"TokenSGTX/contracts/LicensesTaxs.sol\":3072:3228  function getManyAddressSignature(... */\n      swap2\n      swap1\n      pop\n      jump\t// out\n        /* \"TokenSGTX/contracts/LicensesTaxs.sol\":3236:3361  function getOwnerAddressSignature() external view returns (bytes32[] memory) {... */\n    tag_50:\n        /* \"TokenSGTX/contracts/LicensesTaxs.sol\":3342:3352  msg.sender */\n      caller\n        /* \"TokenSGTX/contracts/LicensesTaxs.sol\":3331:3353  _userSings[msg.sender] */\n      0x00\n      swap1\n      dup2\n      mstore\n        /* \"TokenSGTX/contracts/LicensesTaxs.sol\":3331:3341  _userSings */\n      0x01\n        /* \"TokenSGTX/contracts/LicensesTaxs.sol\":3331:3353  _userSings[msg.sender] */\n      0x20\n      swap1\n      dup2\n      mstore\n      0x40\n      swap2\n      dup3\n      swap1\n      keccak256\n        /* \"TokenSGTX/contracts/LicensesTaxs.sol\":3324:3353  return _userSings[msg.sender] */\n      dup1\n      sload\n      dup4\n      mload\n      dup2\n      dup5\n      mul\n      dup2\n      add\n      dup5\n      add\n      swap1\n      swap5\n      mstore\n      dup1\n      dup5\n      mstore\n        /* \"TokenSGTX/contracts/LicensesTaxs.sol\":3295:3311  bytes32[] memory */\n      0x60\n      swap4\n        /* \"TokenSGTX/contracts/LicensesTaxs.sol\":3324:3353  return _userSings[msg.sender] */\n      swap3\n      dup4\n      add\n        /* \"TokenSGTX/contracts/LicensesTaxs.sol\":3331:3353  _userSings[msg.sender] */\n      dup3\n        /* \"TokenSGTX/contracts/LicensesTaxs.sol\":3324:3353  return _userSings[msg.sender] */\n      dup3\n      dup1\n      iszero\n      tag_160\n      jumpi\n      0x20\n      mul\n      dup3\n      add\n      swap2\n      swap1\n      0x00\n      mstore\n      keccak256(0x00, 0x20)\n      swap1\n    tag_161:\n      dup2\n      sload\n      dup2\n      mstore\n      0x20\n      add\n      swap1\n      0x01\n      add\n      swap1\n      dup1\n      dup4\n      gt\n      tag_161\n      jumpi\n    tag_160:\n      pop\n      pop\n      pop\n      pop\n      pop\n      swap1\n      pop\n        /* \"TokenSGTX/contracts/LicensesTaxs.sol\":3236:3361  function getOwnerAddressSignature() external view returns (bytes32[] memory) {... */\n      swap1\n      jump\t// out\n        /* \"TokenSGTX/contracts/LicensesTaxs.sol\":7552:7975  function approveAdmin(... */\n    tag_54:\n        /* \"TokenSGTX/contracts/LicensesTaxs.sol\":9073:9078  owner */\n      sload(0x07)\n        /* \"TokenSGTX/contracts/LicensesTaxs.sol\":7648:7652  bool */\n      0x00\n      swap1\n      sub(shl(0xa0, 0x01), 0x01)\n        /* \"TokenSGTX/contracts/LicensesTaxs.sol\":9073:9078  owner */\n      and\n        /* \"TokenSGTX/contracts/LicensesTaxs.sol\":9059:9069  msg.sender */\n      caller\n        /* \"TokenSGTX/contracts/LicensesTaxs.sol\":9059:9078  msg.sender == owner */\n      eq\n        /* \"TokenSGTX/contracts/LicensesTaxs.sol\":9051:9106  require(msg.sender == owner, \"Only Owner can activate\") */\n      tag_163\n      jumpi\n      mload(0x40)\n      shl(0xe5, 0x461bcd)\n      dup2\n      mstore\n      0x04\n      add\n      tag_137\n      swap1\n      tag_142\n      jump\t// in\n    tag_163:\n      sub(shl(0xa0, 0x01), 0x01)\n        /* \"TokenSGTX/contracts/LicensesTaxs.sol\":7687:7719  _propoceAdmins[_relationAddress] */\n      dup3\n      and\n      0x00\n      swap1\n      dup2\n      mstore\n        /* \"TokenSGTX/contracts/LicensesTaxs.sol\":7687:7701  _propoceAdmins */\n      0x05\n        /* \"TokenSGTX/contracts/LicensesTaxs.sol\":7687:7719  _propoceAdmins[_relationAddress] */\n      0x20\n      mstore\n      0x40\n      swap1\n      keccak256\n      sload\n      0xff\n      and\n        /* \"TokenSGTX/contracts/LicensesTaxs.sol\":7687:7727  _propoceAdmins[_relationAddress] == true */\n      iszero\n      iszero\n        /* \"TokenSGTX/contracts/LicensesTaxs.sol\":7687:7719  _propoceAdmins[_relationAddress] */\n      0x01\n        /* \"TokenSGTX/contracts/LicensesTaxs.sol\":7687:7727  _propoceAdmins[_relationAddress] == true */\n      eq\n        /* \"TokenSGTX/contracts/LicensesTaxs.sol\":7665:7790  require(... */\n      tag_166\n      jumpi\n      mload(0x40)\n      shl(0xe5, 0x461bcd)\n      dup2\n      mstore\n        /* \"#utility.yul\":8651:8653   */\n      0x20\n        /* \"TokenSGTX/contracts/LicensesTaxs.sol\":7665:7790  require(... */\n      0x04\n      dup3\n      add\n        /* \"#utility.yul\":8633:8654   */\n      mstore\n        /* \"#utility.yul\":8690:8692   */\n      0x23\n        /* \"#utility.yul\":8670:8688   */\n      0x24\n      dup3\n      add\n        /* \"#utility.yul\":8663:8693   */\n      mstore\n        /* \"#utility.yul\":8729:8763   */\n      0x61646472657373206d757374206265207265676973747265642062792061646d\n        /* \"#utility.yul\":8709:8727   */\n      0x44\n      dup3\n      add\n        /* \"#utility.yul\":8702:8764   */\n      mstore\n      shl(0xe8, 0x696e73)\n        /* \"#utility.yul\":8780:8798   */\n      0x64\n      dup3\n      add\n        /* \"#utility.yul\":8773:8806   */\n      mstore\n        /* \"#utility.yul\":8823:8842   */\n      0x84\n      add\n        /* \"TokenSGTX/contracts/LicensesTaxs.sol\":7665:7790  require(... */\n      tag_137\n        /* \"#utility.yul\":8449:8848   */\n      jump\n        /* \"TokenSGTX/contracts/LicensesTaxs.sol\":7665:7790  require(... */\n    tag_166:\n      sub(shl(0xa0, 0x01), 0x01)\n        /* \"TokenSGTX/contracts/LicensesTaxs.sol\":7801:7826  _admins[_relationAddress] */\n      dup3\n      and\n      0x00\n      dup2\n      dup2\n      mstore\n        /* \"TokenSGTX/contracts/LicensesTaxs.sol\":7801:7808  _admins */\n      0x04\n        /* \"TokenSGTX/contracts/LicensesTaxs.sol\":7801:7826  _admins[_relationAddress] */\n      0x20\n      swap1\n      dup2\n      mstore\n      0x40\n      dup1\n      dup4\n      keccak256\n        /* \"TokenSGTX/contracts/LicensesTaxs.sol\":7801:7833  _admins[_relationAddress] = true */\n      dup1\n      sload\n        /* \"TokenSGTX/contracts/LicensesTaxs.sol\":7829:7833  true */\n      0x01\n      not(0xff)\n        /* \"TokenSGTX/contracts/LicensesTaxs.sol\":7801:7833  _admins[_relationAddress] = true */\n      swap2\n      dup3\n      and\n      dup2\n      or\n      swap1\n      swap3\n      sstore\n        /* \"TokenSGTX/contracts/LicensesTaxs.sol\":7851:7865  _propoceAdmins */\n      0x05\n        /* \"TokenSGTX/contracts/LicensesTaxs.sol\":7851:7883  _propoceAdmins[_relationAddress] */\n      dup5\n      mstore\n      swap4\n      dup3\n      swap1\n      keccak256\n        /* \"TokenSGTX/contracts/LicensesTaxs.sol\":7844:7883  delete _propoceAdmins[_relationAddress] */\n      dup1\n      sload\n      swap1\n      swap5\n      and\n      swap1\n      swap4\n      sstore\n        /* \"TokenSGTX/contracts/LicensesTaxs.sol\":7899:7945  eventNewAdminRegistred(_relationAddress, true) */\n      mload\n        /* \"#utility.yul\":2724:2765   */\n      swap2\n      dup3\n      mstore\n        /* \"TokenSGTX/contracts/LicensesTaxs.sol\":7899:7945  eventNewAdminRegistred(_relationAddress, true) */\n      0x9aab773cc5c7f377774352463d765fa3acae0bc1c83c44357f4405639ebab44a\n      swap2\n        /* \"#utility.yul\":2697:2715   */\n      add\n        /* \"TokenSGTX/contracts/LicensesTaxs.sol\":7899:7945  eventNewAdminRegistred(_relationAddress, true) */\n      tag_153\n        /* \"#utility.yul\":2584:2771   */\n      jump\n        /* \"TokenSGTX/contracts/LicensesTaxs.sol\":4872:5357  function validateData(... */\n    tag_64:\n        /* \"TokenSGTX/contracts/LicensesTaxs.sol\":9180:9190  msg.sender */\n      caller\n        /* \"TokenSGTX/contracts/LicensesTaxs.sol\":5091:5095  bool */\n      0x00\n        /* \"TokenSGTX/contracts/LicensesTaxs.sol\":9172:9191  _admins[msg.sender] */\n      swap1\n      dup2\n      mstore\n        /* \"TokenSGTX/contracts/LicensesTaxs.sol\":9172:9179  _admins */\n      0x04\n        /* \"TokenSGTX/contracts/LicensesTaxs.sol\":9172:9191  _admins[msg.sender] */\n      0x20\n      mstore\n      0x40\n      dup2\n      keccak256\n      sload\n      0xff\n      and\n        /* \"TokenSGTX/contracts/LicensesTaxs.sol\":9164:9192  require(_admins[msg.sender]) */\n      tag_171\n      jumpi\n      0x00\n      dup1\n      revert\n    tag_171:\n        /* \"TokenSGTX/contracts/LicensesTaxs.sol\":5108:5130  bytes32 singLicenseObj */\n      0x00\n        /* \"TokenSGTX/contracts/LicensesTaxs.sol\":5133:5296  singLicense(... */\n      tag_173\n        /* \"TokenSGTX/contracts/LicensesTaxs.sol\":5159:5167  _consept */\n      dup8\n        /* \"TokenSGTX/contracts/LicensesTaxs.sol\":5182:5192  identifier */\n      dup5\n        /* \"TokenSGTX/contracts/LicensesTaxs.sol\":5207:5230  taxpayerAddress(_owner) */\n      tag_174\n        /* \"TokenSGTX/contracts/LicensesTaxs.sol\":5223:5229  _owner */\n      dup10\n        /* \"TokenSGTX/contracts/LicensesTaxs.sol\":5207:5222  taxpayerAddress */\n      tag_74\n        /* \"TokenSGTX/contracts/LicensesTaxs.sol\":5207:5230  taxpayerAddress(_owner) */\n      jump\t// in\n    tag_174:\n        /* \"TokenSGTX/contracts/LicensesTaxs.sol\":5245:5249  data */\n      dup8\n        /* \"TokenSGTX/contracts/LicensesTaxs.sol\":5264:5274  _approvers */\n      0x06\n        /* \"TokenSGTX/contracts/LicensesTaxs.sol\":5275:5284  _approver */\n      dup11\n        /* \"TokenSGTX/contracts/LicensesTaxs.sol\":5264:5285  _approvers[_approver] */\n      mload(0x40)\n      tag_175\n      swap2\n      swap1\n      tag_176\n      jump\t// in\n    tag_175:\n      swap1\n      dup2\n      mstore\n      mload(0x40)\n      swap1\n      dup2\n      swap1\n      sub\n      0x20\n      add\n      swap1\n      keccak256\n      sload\n      sub(shl(0xa0, 0x01), 0x01)\n      and\n        /* \"TokenSGTX/contracts/LicensesTaxs.sol\":5133:5144  singLicense */\n      tag_177\n        /* \"TokenSGTX/contracts/LicensesTaxs.sol\":5133:5296  singLicense(... */\n      jump\t// in\n    tag_173:\n        /* \"TokenSGTX/contracts/LicensesTaxs.sol\":5108:5296  bytes32 singLicenseObj = singLicense(... */\n      swap1\n      pop\n        /* \"TokenSGTX/contracts/LicensesTaxs.sol\":5316:5349  signatureValidate(singLicenseObj) */\n      tag_178\n        /* \"TokenSGTX/contracts/LicensesTaxs.sol\":5334:5348  singLicenseObj */\n      dup2\n        /* \"TokenSGTX/contracts/LicensesTaxs.sol\":5316:5333  signatureValidate */\n      tag_88\n        /* \"TokenSGTX/contracts/LicensesTaxs.sol\":5316:5349  signatureValidate(singLicenseObj) */\n      jump\t// in\n    tag_178:\n        /* \"TokenSGTX/contracts/LicensesTaxs.sol\":5309:5349  return signatureValidate(singLicenseObj) */\n      swap8\n        /* \"TokenSGTX/contracts/LicensesTaxs.sol\":4872:5357  function validateData(... */\n      swap7\n      pop\n      pop\n      pop\n      pop\n      pop\n      pop\n      pop\n      jump\t// out\n        /* \"TokenSGTX/contracts/LicensesTaxs.sol\":8325:8555  function tranferOwnership(... */\n    tag_68:\n        /* \"TokenSGTX/contracts/LicensesTaxs.sol\":9073:9078  owner */\n      sload(0x07)\n        /* \"TokenSGTX/contracts/LicensesTaxs.sol\":8417:8421  bool */\n      0x00\n      swap1\n      sub(shl(0xa0, 0x01), 0x01)\n        /* \"TokenSGTX/contracts/LicensesTaxs.sol\":9073:9078  owner */\n      and\n        /* \"TokenSGTX/contracts/LicensesTaxs.sol\":9059:9069  msg.sender */\n      caller\n        /* \"TokenSGTX/contracts/LicensesTaxs.sol\":9059:9078  msg.sender == owner */\n      eq\n        /* \"TokenSGTX/contracts/LicensesTaxs.sol\":9051:9106  require(msg.sender == owner, \"Only Owner can activate\") */\n      tag_180\n      jumpi\n      mload(0x40)\n      shl(0xe5, 0x461bcd)\n      dup2\n      mstore\n      0x04\n      add\n      tag_137\n      swap1\n      tag_142\n      jump\t// in\n    tag_180:\n      sub(shl(0xa0, 0x01), 0x01)\n        /* \"TokenSGTX/contracts/LicensesTaxs.sol\":8442:8464  NewOwner != address(0) */\n      dup3\n      and\n        /* \"TokenSGTX/contracts/LicensesTaxs.sol\":8434:8498  require(NewOwner != address(0), \"Owner can't be a Zero address\") */\n      tag_183\n      jumpi\n      mload(0x40)\n      shl(0xe5, 0x461bcd)\n      dup2\n      mstore\n        /* \"#utility.yul\":9349:9351   */\n      0x20\n        /* \"TokenSGTX/contracts/LicensesTaxs.sol\":8434:8498  require(NewOwner != address(0), \"Owner can't be a Zero address\") */\n      0x04\n      dup3\n      add\n        /* \"#utility.yul\":9331:9352   */\n      mstore\n        /* \"#utility.yul\":9388:9390   */\n      0x1d\n        /* \"#utility.yul\":9368:9386   */\n      0x24\n      dup3\n      add\n        /* \"#utility.yul\":9361:9391   */\n      mstore\n        /* \"#utility.yul\":9427:9458   */\n      0x4f776e65722063616e27742062652061205a65726f2061646472657373000000\n        /* \"#utility.yul\":9407:9425   */\n      0x44\n      dup3\n      add\n        /* \"#utility.yul\":9400:9459   */\n      mstore\n        /* \"#utility.yul\":9476:9494   */\n      0x64\n      add\n        /* \"TokenSGTX/contracts/LicensesTaxs.sol\":8434:8498  require(NewOwner != address(0), \"Owner can't be a Zero address\") */\n      tag_137\n        /* \"#utility.yul\":9147:9500   */\n      jump\n        /* \"TokenSGTX/contracts/LicensesTaxs.sol\":8434:8498  require(NewOwner != address(0), \"Owner can't be a Zero address\") */\n    tag_183:\n      pop\n        /* \"TokenSGTX/contracts/LicensesTaxs.sol\":8509:8514  owner */\n      0x07\n        /* \"TokenSGTX/contracts/LicensesTaxs.sol\":8509:8525  owner = NewOwner */\n      dup1\n      sload\n      sub(shl(0xa0, 0x01), 0x01)\n      dup4\n      and\n      not(sub(shl(0xa0, 0x01), 0x01))\n      swap1\n      swap2\n      and\n      or\n      swap1\n      sstore\n      0x01\n        /* \"TokenSGTX/contracts/LicensesTaxs.sol\":8325:8555  function tranferOwnership(... */\n      swap2\n      swap1\n      pop\n      jump\t// out\n        /* \"TokenSGTX/contracts/LicensesTaxs.sol\":3369:3510  function taxpayerAddress(... */\n    tag_74:\n        /* \"TokenSGTX/contracts/LicensesTaxs.sol\":9180:9190  msg.sender */\n      caller\n        /* \"TokenSGTX/contracts/LicensesTaxs.sol\":3459:3466  address */\n      0x00\n        /* \"TokenSGTX/contracts/LicensesTaxs.sol\":9172:9191  _admins[msg.sender] */\n      swap1\n      dup2\n      mstore\n        /* \"TokenSGTX/contracts/LicensesTaxs.sol\":9172:9179  _admins */\n      0x04\n        /* \"TokenSGTX/contracts/LicensesTaxs.sol\":9172:9191  _admins[msg.sender] */\n      0x20\n      mstore\n      0x40\n      dup2\n      keccak256\n      sload\n      0xff\n      and\n        /* \"TokenSGTX/contracts/LicensesTaxs.sol\":9164:9192  require(_admins[msg.sender]) */\n      tag_187\n      jumpi\n      0x00\n      dup1\n      revert\n    tag_187:\n        /* \"TokenSGTX/contracts/LicensesTaxs.sol\":3486:3496  _taxpayers */\n      0x03\n        /* \"TokenSGTX/contracts/LicensesTaxs.sol\":3497:3501  _rif */\n      dup3\n        /* \"TokenSGTX/contracts/LicensesTaxs.sol\":3486:3502  _taxpayers[_rif] */\n      mload(0x40)\n      tag_189\n      swap2\n      swap1\n      tag_176\n      jump\t// in\n    tag_189:\n      swap1\n      dup2\n      mstore\n      mload(0x40)\n      swap1\n      dup2\n      swap1\n      sub\n      0x20\n      add\n      swap1\n      keccak256\n      sload\n      sub(shl(0xa0, 0x01), 0x01)\n      and\n      swap1\n      pop\n        /* \"TokenSGTX/contracts/LicensesTaxs.sol\":3369:3510  function taxpayerAddress(... */\n      swap2\n      swap1\n      pop\n      jump\t// out\n        /* \"TokenSGTX/contracts/LicensesTaxs.sol\":6955:7161  function addTaxPayer(... */\n    tag_79:\n        /* \"TokenSGTX/contracts/LicensesTaxs.sol\":9073:9078  owner */\n      sload(0x07)\n        /* \"TokenSGTX/contracts/LicensesTaxs.sol\":7079:7083  bool */\n      0x00\n      swap1\n      sub(shl(0xa0, 0x01), 0x01)\n        /* \"TokenSGTX/contracts/LicensesTaxs.sol\":9073:9078  owner */\n      and\n        /* \"TokenSGTX/contracts/LicensesTaxs.sol\":9059:9069  msg.sender */\n      caller\n        /* \"TokenSGTX/contracts/LicensesTaxs.sol\":9059:9078  msg.sender == owner */\n      eq\n        /* \"TokenSGTX/contracts/LicensesTaxs.sol\":9051:9106  require(msg.sender == owner, \"Only Owner can activate\") */\n      tag_191\n      jumpi\n      mload(0x40)\n      shl(0xe5, 0x461bcd)\n      dup2\n      mstore\n      0x04\n      add\n      tag_137\n      swap1\n      tag_142\n      jump\t// in\n    tag_191:\n        /* \"TokenSGTX/contracts/LicensesTaxs.sol\":7115:7131  _relationAddress */\n      dup2\n        /* \"TokenSGTX/contracts/LicensesTaxs.sol\":7096:7106  _taxpayers */\n      0x03\n        /* \"TokenSGTX/contracts/LicensesTaxs.sol\":7107:7111  _rif */\n      dup5\n        /* \"TokenSGTX/contracts/LicensesTaxs.sol\":7096:7112  _taxpayers[_rif] */\n      mload(0x40)\n      tag_194\n      swap2\n      swap1\n      tag_176\n      jump\t// in\n    tag_194:\n      swap1\n      dup2\n      mstore\n      mload(0x40)\n      swap1\n      dup2\n      swap1\n      sub\n      0x20\n      add\n      swap1\n      keccak256\n        /* \"TokenSGTX/contracts/LicensesTaxs.sol\":7096:7131  _taxpayers[_rif] = _relationAddress */\n      dup1\n      sload\n      sub(shl(0xa0, 0x01), 0x01)\n      swap3\n      swap1\n      swap3\n      and\n      not(sub(shl(0xa0, 0x01), 0x01))\n      swap1\n      swap3\n      and\n      swap2\n      swap1\n      swap2\n      or\n      swap1\n      sstore\n      pop\n      0x01\n        /* \"TokenSGTX/contracts/LicensesTaxs.sol\":6955:7161  function addTaxPayer(... */\n      swap3\n      swap2\n      pop\n      pop\n      jump\t// out\n        /* \"TokenSGTX/contracts/LicensesTaxs.sol\":2281:2544  function signatureValidate(... */\n    tag_88:\n        /* \"TokenSGTX/contracts/LicensesTaxs.sol\":2365:2369  bool */\n      0x00\n        /* \"TokenSGTX/contracts/LicensesTaxs.sol\":2382:2408  StructSignature memory obj */\n      dup1\n        /* \"TokenSGTX/contracts/LicensesTaxs.sol\":2411:2428  _signatureEnabled */\n      0x00\n        /* \"TokenSGTX/contracts/LicensesTaxs.sol\":2411:2440  _signatureEnabled[singnature] */\n      dup1\n        /* \"TokenSGTX/contracts/LicensesTaxs.sol\":2429:2439  singnature */\n      dup5\n        /* \"TokenSGTX/contracts/LicensesTaxs.sol\":2411:2440  _signatureEnabled[singnature] */\n      dup2\n      mstore\n      0x20\n      add\n      swap1\n      dup2\n      mstore\n      0x20\n      add\n      0x00\n      keccak256\n        /* \"TokenSGTX/contracts/LicensesTaxs.sol\":2382:2440  StructSignature memory obj = _signatureEnabled[singnature] */\n      mload(0x40)\n      dup1\n      0xe0\n      add\n      0x40\n      mstore\n      swap1\n      dup2\n      0x00\n      dup3\n      add\n      dup1\n      sload\n      tag_197\n      swap1\n      tag_121\n      jump\t// in\n    tag_197:\n      dup1\n      0x1f\n      add\n      0x20\n      dup1\n      swap2\n      div\n      mul\n      0x20\n      add\n      mload(0x40)\n      swap1\n      dup2\n      add\n      0x40\n      mstore\n      dup1\n      swap3\n      swap2\n      swap1\n      dup2\n      dup2\n      mstore\n      0x20\n      add\n      dup3\n      dup1\n      sload\n      tag_198\n      swap1\n      tag_121\n      jump\t// in\n    tag_198:\n      dup1\n      iszero\n      tag_199\n      jumpi\n      dup1\n      0x1f\n      lt\n      tag_200\n      jumpi\n      0x0100\n      dup1\n      dup4\n      sload\n      div\n      mul\n      dup4\n      mstore\n      swap2\n      0x20\n      add\n      swap2\n      jump(tag_199)\n    tag_200:\n      dup3\n      add\n      swap2\n      swap1\n      0x00\n      mstore\n      keccak256(0x00, 0x20)\n      swap1\n    tag_201:\n      dup2\n      sload\n      dup2\n      mstore\n      swap1\n      0x01\n      add\n      swap1\n      0x20\n      add\n      dup1\n      dup4\n      gt\n      tag_201\n      jumpi\n      dup3\n      swap1\n      sub\n      0x1f\n      and\n      dup3\n      add\n      swap2\n    tag_199:\n      pop\n      pop\n      pop\n      pop\n      pop\n      dup2\n      mstore\n      0x20\n      add\n      0x01\n      dup3\n      add\n      dup1\n      sload\n      tag_202\n      swap1\n      tag_121\n      jump\t// in\n    tag_202:\n      dup1\n      0x1f\n      add\n      0x20\n      dup1\n      swap2\n      div\n      mul\n      0x20\n      add\n      mload(0x40)\n      swap1\n      dup2\n      add\n      0x40\n      mstore\n      dup1\n      swap3\n      swap2\n      swap1\n      dup2\n      dup2\n      mstore\n      0x20\n      add\n      dup3\n      dup1\n      sload\n      tag_203\n      swap1\n      tag_121\n      jump\t// in\n    tag_203:\n      dup1\n      iszero\n      tag_204\n      jumpi\n      dup1\n      0x1f\n      lt\n      tag_205\n      jumpi\n      0x0100\n      dup1\n      dup4\n      sload\n      div\n      mul\n      dup4\n      mstore\n      swap2\n      0x20\n      add\n      swap2\n      jump(tag_204)\n    tag_205:\n      dup3\n      add\n      swap2\n      swap1\n      0x00\n      mstore\n      keccak256(0x00, 0x20)\n      swap1\n    tag_206:\n      dup2\n      sload\n      dup2\n      mstore\n      swap1\n      0x01\n      add\n      swap1\n      0x20\n      add\n      dup1\n      dup4\n      gt\n      tag_206\n      jumpi\n      dup3\n      swap1\n      sub\n      0x1f\n      and\n      dup3\n      add\n      swap2\n    tag_204:\n      pop\n      pop\n      pop\n      swap2\n      dup4\n      mstore\n      pop\n      pop\n      0x02\n      dup3\n      add\n      sload\n      sub(shl(0xa0, 0x01), 0x01)\n      and\n      0x20\n      dup3\n      add\n      mstore\n      0x03\n      dup3\n      add\n      dup1\n      sload\n      0x40\n      swap1\n      swap3\n      add\n      swap2\n      tag_207\n      swap1\n      tag_121\n      jump\t// in\n    tag_207:\n      dup1\n      0x1f\n      add\n      0x20\n      dup1\n      swap2\n      div\n      mul\n      0x20\n      add\n      mload(0x40)\n      swap1\n      dup2\n      add\n      0x40\n      mstore\n      dup1\n      swap3\n      swap2\n      swap1\n      dup2\n      dup2\n      mstore\n      0x20\n      add\n      dup3\n      dup1\n      sload\n      tag_208\n      swap1\n      tag_121\n      jump\t// in\n    tag_208:\n      dup1\n      iszero\n      tag_209\n      jumpi\n      dup1\n      0x1f\n      lt\n      tag_210\n      jumpi\n      0x0100\n      dup1\n      dup4\n      sload\n      div\n      mul\n      dup4\n      mstore\n      swap2\n      0x20\n      add\n      swap2\n      jump(tag_209)\n    tag_210:\n      dup3\n      add\n      swap2\n      swap1\n      0x00\n      mstore\n      keccak256(0x00, 0x20)\n      swap1\n    tag_211:\n      dup2\n      sload\n      dup2\n      mstore\n      swap1\n      0x01\n      add\n      swap1\n      0x20\n      add\n      dup1\n      dup4\n      gt\n      tag_211\n      jumpi\n      dup3\n      swap1\n      sub\n      0x1f\n      and\n      dup3\n      add\n      swap2\n    tag_209:\n      pop\n      pop\n      pop\n      swap2\n      dup4\n      mstore\n      pop\n      pop\n      0x04\n      dup3\n      add\n      sload\n      sub(shl(0xa0, 0x01), 0x01)\n      and\n      0x20\n      dup3\n      add\n      mstore\n      0x05\n      dup3\n      add\n      sload\n      0x40\n      dup3\n      add\n      mstore\n      0x06\n      swap1\n      swap2\n      add\n      sload\n      0xff\n      and\n      iszero\n      iszero\n      0x60\n      swap1\n      swap2\n      add\n      mstore\n        /* \"TokenSGTX/contracts/LicensesTaxs.sol\":2455:2468  obj.signature */\n      0xa0\n      dup2\n      add\n      mload\n        /* \"TokenSGTX/contracts/LicensesTaxs.sol\":2382:2440  StructSignature memory obj = _signatureEnabled[singnature] */\n      swap1\n      swap2\n      pop\n      0x00\n        /* \"TokenSGTX/contracts/LicensesTaxs.sol\":2455:2474  obj.signature == \"\" */\n      sub\n        /* \"TokenSGTX/contracts/LicensesTaxs.sol\":2451:2515  if (obj.signature == \"\") {... */\n      tag_212\n      jumpi\n      pop\n        /* \"TokenSGTX/contracts/LicensesTaxs.sol\":2498:2503  false */\n      0x00\n      swap3\n        /* \"TokenSGTX/contracts/LicensesTaxs.sol\":2281:2544  function signatureValidate(... */\n      swap2\n      pop\n      pop\n      jump\t// out\n        /* \"TokenSGTX/contracts/LicensesTaxs.sol\":2451:2515  if (obj.signature == \"\") {... */\n    tag_212:\n      pop\n        /* \"TokenSGTX/contracts/LicensesTaxs.sol\":2532:2536  true */\n      0x01\n      swap3\n        /* \"TokenSGTX/contracts/LicensesTaxs.sol\":2281:2544  function signatureValidate(... */\n      swap2\n      pop\n      pop\n      jump\t// out\n        /* \"TokenSGTX/contracts/LicensesTaxs.sol\":2552:2720  function getSignature(... */\n    tag_93:\n        /* \"TokenSGTX/contracts/LicensesTaxs.sol\":2641:2663  StructSignature memory */\n      tag_213\n      tag_118\n      jump\t// in\n    tag_213:\n        /* \"TokenSGTX/contracts/LicensesTaxs.sol\":9180:9190  msg.sender */\n      caller\n        /* \"TokenSGTX/contracts/LicensesTaxs.sol\":9172:9191  _admins[msg.sender] */\n      0x00\n      swap1\n      dup2\n      mstore\n        /* \"TokenSGTX/contracts/LicensesTaxs.sol\":9172:9179  _admins */\n      0x04\n        /* \"TokenSGTX/contracts/LicensesTaxs.sol\":9172:9191  _admins[msg.sender] */\n      0x20\n      mstore\n      0x40\n      swap1\n      keccak256\n      sload\n      0xff\n      and\n        /* \"TokenSGTX/contracts/LicensesTaxs.sol\":9164:9192  require(_admins[msg.sender]) */\n      tag_215\n      jumpi\n      0x00\n      dup1\n      revert\n    tag_215:\n        /* \"TokenSGTX/contracts/LicensesTaxs.sol\":2683:2700  _signatureEnabled */\n      0x00\n        /* \"TokenSGTX/contracts/LicensesTaxs.sol\":2683:2712  _signatureEnabled[singnature] */\n      dup3\n      dup2\n      mstore\n      0x20\n      dup2\n      swap1\n      mstore\n      0x40\n      swap1\n      dup2\n      swap1\n      keccak256\n        /* \"TokenSGTX/contracts/LicensesTaxs.sol\":2676:2712  return _signatureEnabled[singnature] */\n      dup2\n      mload\n      0xe0\n      dup2\n      add\n      swap1\n      swap3\n      mstore\n      dup1\n      sload\n      dup3\n      swap1\n        /* \"TokenSGTX/contracts/LicensesTaxs.sol\":2683:2712  _signatureEnabled[singnature] */\n      dup3\n      swap1\n        /* \"TokenSGTX/contracts/LicensesTaxs.sol\":2676:2712  return _signatureEnabled[singnature] */\n      tag_217\n      swap1\n      tag_121\n      jump\t// in\n    tag_217:\n      dup1\n      0x1f\n      add\n      0x20\n      dup1\n      swap2\n      div\n      mul\n      0x20\n      add\n      mload(0x40)\n      swap1\n      dup2\n      add\n      0x40\n      mstore\n      dup1\n      swap3\n      swap2\n      swap1\n      dup2\n      dup2\n      mstore\n      0x20\n      add\n      dup3\n      dup1\n      sload\n      tag_218\n      swap1\n      tag_121\n      jump\t// in\n    tag_218:\n      dup1\n      iszero\n      tag_219\n      jumpi\n      dup1\n      0x1f\n      lt\n      tag_220\n      jumpi\n      0x0100\n      dup1\n      dup4\n      sload\n      div\n      mul\n      dup4\n      mstore\n      swap2\n      0x20\n      add\n      swap2\n      jump(tag_219)\n    tag_220:\n      dup3\n      add\n      swap2\n      swap1\n      0x00\n      mstore\n      keccak256(0x00, 0x20)\n      swap1\n    tag_221:\n      dup2\n      sload\n      dup2\n      mstore\n      swap1\n      0x01\n      add\n      swap1\n      0x20\n      add\n      dup1\n      dup4\n      gt\n      tag_221\n      jumpi\n      dup3\n      swap1\n      sub\n      0x1f\n      and\n      dup3\n      add\n      swap2\n    tag_219:\n      pop\n      pop\n      pop\n      pop\n      pop\n      dup2\n      mstore\n      0x20\n      add\n      0x01\n      dup3\n      add\n      dup1\n      sload\n      tag_222\n      swap1\n      tag_121\n      jump\t// in\n    tag_222:\n      dup1\n      0x1f\n      add\n      0x20\n      dup1\n      swap2\n      div\n      mul\n      0x20\n      add\n      mload(0x40)\n      swap1\n      dup2\n      add\n      0x40\n      mstore\n      dup1\n      swap3\n      swap2\n      swap1\n      dup2\n      dup2\n      mstore\n      0x20\n      add\n      dup3\n      dup1\n      sload\n      tag_223\n      swap1\n      tag_121\n      jump\t// in\n    tag_223:\n      dup1\n      iszero\n      tag_224\n      jumpi\n      dup1\n      0x1f\n      lt\n      tag_225\n      jumpi\n      0x0100\n      dup1\n      dup4\n      sload\n      div\n      mul\n      dup4\n      mstore\n      swap2\n      0x20\n      add\n      swap2\n      jump(tag_224)\n    tag_225:\n      dup3\n      add\n      swap2\n      swap1\n      0x00\n      mstore\n      keccak256(0x00, 0x20)\n      swap1\n    tag_226:\n      dup2\n      sload\n      dup2\n      mstore\n      swap1\n      0x01\n      add\n      swap1\n      0x20\n      add\n      dup1\n      dup4\n      gt\n      tag_226\n      jumpi\n      dup3\n      swap1\n      sub\n      0x1f\n      and\n      dup3\n      add\n      swap2\n    tag_224:\n      pop\n      pop\n      pop\n      swap2\n      dup4\n      mstore\n      pop\n      pop\n      0x02\n      dup3\n      add\n      sload\n      sub(shl(0xa0, 0x01), 0x01)\n      and\n      0x20\n      dup3\n      add\n      mstore\n      0x03\n      dup3\n      add\n      dup1\n      sload\n      0x40\n      swap1\n      swap3\n      add\n      swap2\n      tag_227\n      swap1\n      tag_121\n      jump\t// in\n    tag_227:\n      dup1\n      0x1f\n      add\n      0x20\n      dup1\n      swap2\n      div\n      mul\n      0x20\n      add\n      mload(0x40)\n      swap1\n      dup2\n      add\n      0x40\n      mstore\n      dup1\n      swap3\n      swap2\n      swap1\n      dup2\n      dup2\n      mstore\n      0x20\n      add\n      dup3\n      dup1\n      sload\n      tag_228\n      swap1\n      tag_121\n      jump\t// in\n    tag_228:\n      dup1\n      iszero\n      tag_229\n      jumpi\n      dup1\n      0x1f\n      lt\n      tag_230\n      jumpi\n      0x0100\n      dup1\n      dup4\n      sload\n      div\n      mul\n      dup4\n      mstore\n      swap2\n      0x20\n      add\n      swap2\n      jump(tag_229)\n    tag_230:\n      dup3\n      add\n      swap2\n      swap1\n      0x00\n      mstore\n      keccak256(0x00, 0x20)\n      swap1\n    tag_231:\n      dup2\n      sload\n      dup2\n      mstore\n      swap1\n      0x01\n      add\n      swap1\n      0x20\n      add\n      dup1\n      dup4\n      gt\n      tag_231\n      jumpi\n      dup3\n      swap1\n      sub\n      0x1f\n      and\n      dup3\n      add\n      swap2\n    tag_229:\n      pop\n      pop\n      pop\n      swap2\n      dup4\n      mstore\n      pop\n      pop\n      0x04\n      dup3\n      add\n      sload\n      sub(shl(0xa0, 0x01), 0x01)\n      and\n      0x20\n      dup3\n      add\n      mstore\n      0x05\n      dup3\n      add\n      sload\n      0x40\n      dup3\n      add\n      mstore\n      0x06\n      swap1\n      swap2\n      add\n      sload\n      0xff\n      and\n      iszero\n      iszero\n      0x60\n      swap1\n      swap2\n      add\n      mstore\n      swap3\n        /* \"TokenSGTX/contracts/LicensesTaxs.sol\":2552:2720  function getSignature(... */\n      swap2\n      pop\n      pop\n      jump\t// out\n        /* \"TokenSGTX/contracts/LicensesTaxs.sol\":7983:8317  function addApprover(... */\n    tag_97:\n        /* \"TokenSGTX/contracts/LicensesTaxs.sol\":9073:9078  owner */\n      sload(0x07)\n        /* \"TokenSGTX/contracts/LicensesTaxs.sol\":8106:8110  bool */\n      0x00\n      swap1\n      sub(shl(0xa0, 0x01), 0x01)\n        /* \"TokenSGTX/contracts/LicensesTaxs.sol\":9073:9078  owner */\n      and\n        /* \"TokenSGTX/contracts/LicensesTaxs.sol\":9059:9069  msg.sender */\n      caller\n        /* \"TokenSGTX/contracts/LicensesTaxs.sol\":9059:9078  msg.sender == owner */\n      eq\n        /* \"TokenSGTX/contracts/LicensesTaxs.sol\":9051:9106  require(msg.sender == owner, \"Only Owner can activate\") */\n      tag_233\n      jumpi\n      mload(0x40)\n      shl(0xe5, 0x461bcd)\n      dup2\n      mstore\n      0x04\n      add\n      tag_137\n      swap1\n      tag_142\n      jump\t// in\n    tag_233:\n        /* \"TokenSGTX/contracts/LicensesTaxs.sol\":8158:8159  0 */\n      0x00\n      sub(shl(0xa0, 0x01), 0x01)\n        /* \"TokenSGTX/contracts/LicensesTaxs.sol\":8131:8160  _approvers[_Id] == address(0) */\n      and\n        /* \"TokenSGTX/contracts/LicensesTaxs.sol\":8131:8141  _approvers */\n      0x06\n        /* \"TokenSGTX/contracts/LicensesTaxs.sol\":8142:8145  _Id */\n      dup5\n        /* \"TokenSGTX/contracts/LicensesTaxs.sol\":8131:8146  _approvers[_Id] */\n      mload(0x40)\n      tag_236\n      swap2\n      swap1\n      tag_176\n      jump\t// in\n    tag_236:\n      swap1\n      dup2\n      mstore\n      mload(0x40)\n      swap1\n      dup2\n      swap1\n      sub\n      0x20\n      add\n      swap1\n      keccak256\n      sload\n      sub(shl(0xa0, 0x01), 0x01)\n      and\n        /* \"TokenSGTX/contracts/LicensesTaxs.sol\":8131:8160  _approvers[_Id] == address(0) */\n      eq\n        /* \"TokenSGTX/contracts/LicensesTaxs.sol\":8123:8186  require(_approvers[_Id] == address(0), \"Address already added\") */\n      tag_237\n      jumpi\n      mload(0x40)\n      shl(0xe5, 0x461bcd)\n      dup2\n      mstore\n        /* \"#utility.yul\":9707:9709   */\n      0x20\n        /* \"TokenSGTX/contracts/LicensesTaxs.sol\":8123:8186  require(_approvers[_Id] == address(0), \"Address already added\") */\n      0x04\n      dup3\n      add\n        /* \"#utility.yul\":9689:9710   */\n      mstore\n        /* \"#utility.yul\":9746:9748   */\n      0x15\n        /* \"#utility.yul\":9726:9744   */\n      0x24\n      dup3\n      add\n        /* \"#utility.yul\":9719:9749   */\n      mstore\n      shl(0x5a, 0x1059191c995cdcc8185b1c9958591e481859191959)\n        /* \"#utility.yul\":9765:9783   */\n      0x44\n      dup3\n      add\n        /* \"#utility.yul\":9758:9809   */\n      mstore\n        /* \"#utility.yul\":9826:9844   */\n      0x64\n      add\n        /* \"TokenSGTX/contracts/LicensesTaxs.sol\":8123:8186  require(_approvers[_Id] == address(0), \"Address already added\") */\n      tag_137\n        /* \"#utility.yul\":9505:9850   */\n      jump\n        /* \"TokenSGTX/contracts/LicensesTaxs.sol\":8123:8186  require(_approvers[_Id] == address(0), \"Address already added\") */\n    tag_237:\n        /* \"TokenSGTX/contracts/LicensesTaxs.sol\":8215:8231  _relationAddress */\n      dup2\n        /* \"TokenSGTX/contracts/LicensesTaxs.sol\":8197:8207  _approvers */\n      0x06\n        /* \"TokenSGTX/contracts/LicensesTaxs.sol\":8208:8211  _Id */\n      dup5\n        /* \"TokenSGTX/contracts/LicensesTaxs.sol\":8197:8212  _approvers[_Id] */\n      mload(0x40)\n      tag_240\n      swap2\n      swap1\n      tag_176\n      jump\t// in\n    tag_240:\n      swap1\n      dup2\n      mstore\n      mload(0x40)\n      0x20\n      swap2\n      dup2\n      swap1\n      sub\n      dup3\n      add\n      dup2\n      keccak256\n        /* \"TokenSGTX/contracts/LicensesTaxs.sol\":8197:8231  _approvers[_Id] = _relationAddress */\n      dup1\n      sload\n      not(sub(shl(0xa0, 0x01), 0x01))\n      and\n      sub(shl(0xa0, 0x01), 0x01)\n      swap5\n      dup6\n      and\n      or\n      swap1\n      sstore\n      0x01\n        /* \"#utility.yul\":2724:2765   */\n      dup2\n      mstore\n        /* \"TokenSGTX/contracts/LicensesTaxs.sol\":8247:8287  eventNewApprover(_relationAddress, true) */\n      swap2\n      dup5\n      and\n      swap2\n      0xa590b4fc649a56bfc2765312a8b4becaa85a972fd5403de3f9a0a4270c40e71e\n      swap2\n        /* \"#utility.yul\":2697:2715   */\n      add\n        /* \"TokenSGTX/contracts/LicensesTaxs.sol\":8247:8287  eventNewApprover(_relationAddress, true) */\n      mload(0x40)\n      dup1\n      swap2\n      sub\n      swap1\n      log2\n      pop\n        /* \"TokenSGTX/contracts/LicensesTaxs.sol\":8305:8309  true */\n      0x01\n        /* \"TokenSGTX/contracts/LicensesTaxs.sol\":7983:8317  function addApprover(... */\n      swap3\n      swap2\n      pop\n      pop\n      jump\t// out\n        /* \"TokenSGTX/contracts/LicensesTaxs.sol\":1086:2273  function signatureMint(... */\n    tag_101:\n        /* \"TokenSGTX/contracts/LicensesTaxs.sol\":9073:9078  owner */\n      sload(0x07)\n        /* \"TokenSGTX/contracts/LicensesTaxs.sol\":1320:1327  bytes32 */\n      0x00\n      swap1\n      sub(shl(0xa0, 0x01), 0x01)\n        /* \"TokenSGTX/contracts/LicensesTaxs.sol\":9073:9078  owner */\n      and\n        /* \"TokenSGTX/contracts/LicensesTaxs.sol\":9059:9069  msg.sender */\n      caller\n        /* \"TokenSGTX/contracts/LicensesTaxs.sol\":9059:9078  msg.sender == owner */\n      eq\n        /* \"TokenSGTX/contracts/LicensesTaxs.sol\":9051:9106  require(msg.sender == owner, \"Only Owner can activate\") */\n      tag_243\n      jumpi\n      mload(0x40)\n      shl(0xe5, 0x461bcd)\n      dup2\n      mstore\n      0x04\n      add\n      tag_137\n      swap1\n      tag_142\n      jump\t// in\n    tag_243:\n        /* \"TokenSGTX/contracts/LicensesTaxs.sol\":9260:9271  stopMinting */\n      sload(0x07)\n      shl(0xa0, 0x01)\n      swap1\n      div\n      0xff\n      and\n        /* \"TokenSGTX/contracts/LicensesTaxs.sol\":9260:9279  stopMinting == true */\n      iszero\n      iszero\n        /* \"TokenSGTX/contracts/LicensesTaxs.sol\":9275:9279  true */\n      0x01\n        /* \"TokenSGTX/contracts/LicensesTaxs.sol\":9260:9279  stopMinting == true */\n      eq\n        /* \"TokenSGTX/contracts/LicensesTaxs.sol\":9252:9315  require(stopMinting == true, \"Minting has stoped by the owner\") */\n      tag_246\n      jumpi\n      mload(0x40)\n      shl(0xe5, 0x461bcd)\n      dup2\n      mstore\n        /* \"#utility.yul\":10057:10059   */\n      0x20\n        /* \"TokenSGTX/contracts/LicensesTaxs.sol\":9252:9315  require(stopMinting == true, \"Minting has stoped by the owner\") */\n      0x04\n      dup3\n      add\n        /* \"#utility.yul\":10039:10060   */\n      mstore\n        /* \"#utility.yul\":10096:10098   */\n      0x1f\n        /* \"#utility.yul\":10076:10094   */\n      0x24\n      dup3\n      add\n        /* \"#utility.yul\":10069:10099   */\n      mstore\n        /* \"#utility.yul\":10135:10168   */\n      0x4d696e74696e67206861732073746f70656420627920746865206f776e657200\n        /* \"#utility.yul\":10115:10133   */\n      0x44\n      dup3\n      add\n        /* \"#utility.yul\":10108:10169   */\n      mstore\n        /* \"#utility.yul\":10186:10204   */\n      0x64\n      add\n        /* \"TokenSGTX/contracts/LicensesTaxs.sol\":9252:9315  require(stopMinting == true, \"Minting has stoped by the owner\") */\n      tag_137\n        /* \"#utility.yul\":9855:10210   */\n      jump\n        /* \"TokenSGTX/contracts/LicensesTaxs.sol\":9252:9315  require(stopMinting == true, \"Minting has stoped by the owner\") */\n    tag_246:\n        /* \"TokenSGTX/contracts/LicensesTaxs.sol\":1397:1398  0 */\n      0x00\n        /* \"TokenSGTX/contracts/LicensesTaxs.sol\":1362:1385  taxpayerAddress(_owner) */\n      tag_250\n        /* \"TokenSGTX/contracts/LicensesTaxs.sol\":1378:1384  _owner */\n      dup7\n        /* \"TokenSGTX/contracts/LicensesTaxs.sol\":1362:1377  taxpayerAddress */\n      tag_74\n        /* \"TokenSGTX/contracts/LicensesTaxs.sol\":1362:1385  taxpayerAddress(_owner) */\n      jump\t// in\n    tag_250:\n      sub(shl(0xa0, 0x01), 0x01)\n        /* \"TokenSGTX/contracts/LicensesTaxs.sol\":1362:1399  taxpayerAddress(_owner) != address(0) */\n      and\n      sub\n        /* \"TokenSGTX/contracts/LicensesTaxs.sol\":1340:1457  require(... */\n      tag_251\n      jumpi\n      mload(0x40)\n      shl(0xe5, 0x461bcd)\n      dup2\n      mstore\n        /* \"#utility.yul\":10417:10419   */\n      0x20\n        /* \"TokenSGTX/contracts/LicensesTaxs.sol\":1340:1457  require(... */\n      0x04\n      dup3\n      add\n        /* \"#utility.yul\":10399:10420   */\n      mstore\n        /* \"#utility.yul\":10456:10458   */\n      0x1e\n        /* \"#utility.yul\":10436:10454   */\n      0x24\n      dup3\n      add\n        /* \"#utility.yul\":10429:10459   */\n      mstore\n        /* \"#utility.yul\":10495:10527   */\n      0x526966204e6f7420526567697374726564206861732054617870617965720000\n        /* \"#utility.yul\":10475:10493   */\n      0x44\n      dup3\n      add\n        /* \"#utility.yul\":10468:10528   */\n      mstore\n        /* \"#utility.yul\":10545:10563   */\n      0x64\n      add\n        /* \"TokenSGTX/contracts/LicensesTaxs.sol\":1340:1457  require(... */\n      tag_137\n        /* \"#utility.yul\":10215:10569   */\n      jump\n        /* \"TokenSGTX/contracts/LicensesTaxs.sol\":1340:1457  require(... */\n    tag_251:\n        /* \"TokenSGTX/contracts/LicensesTaxs.sol\":1525:1526  0 */\n      0x00\n      sub(shl(0xa0, 0x01), 0x01)\n        /* \"TokenSGTX/contracts/LicensesTaxs.sol\":1492:1527  _approvers[_approver] != address(0) */\n      and\n        /* \"TokenSGTX/contracts/LicensesTaxs.sol\":1492:1502  _approvers */\n      0x06\n        /* \"TokenSGTX/contracts/LicensesTaxs.sol\":1503:1512  _approver */\n      dup6\n        /* \"TokenSGTX/contracts/LicensesTaxs.sol\":1492:1513  _approvers[_approver] */\n      mload(0x40)\n      tag_254\n      swap2\n      swap1\n      tag_176\n      jump\t// in\n    tag_254:\n      swap1\n      dup2\n      mstore\n      mload(0x40)\n      swap1\n      dup2\n      swap1\n      sub\n      0x20\n      add\n      swap1\n      keccak256\n      sload\n      sub(shl(0xa0, 0x01), 0x01)\n      and\n        /* \"TokenSGTX/contracts/LicensesTaxs.sol\":1492:1527  _approvers[_approver] != address(0) */\n      sub\n        /* \"TokenSGTX/contracts/LicensesTaxs.sol\":1470:1587  require(... */\n      tag_255\n      jumpi\n      mload(0x40)\n      shl(0xe5, 0x461bcd)\n      dup2\n      mstore\n        /* \"#utility.yul\":10776:10778   */\n      0x20\n        /* \"TokenSGTX/contracts/LicensesTaxs.sol\":1470:1587  require(... */\n      0x04\n      dup3\n      add\n        /* \"#utility.yul\":10758:10779   */\n      dup2\n      swap1\n      mstore\n        /* \"#utility.yul\":10795:10813   */\n      0x24\n      dup3\n      add\n        /* \"#utility.yul\":10788:10818   */\n      mstore\n        /* \"#utility.yul\":10854:10888   */\n      0x417070726f766572204e6f7420526567697374726564206861732056616c6964\n        /* \"#utility.yul\":10834:10852   */\n      0x44\n      dup3\n      add\n        /* \"#utility.yul\":10827:10889   */\n      mstore\n        /* \"#utility.yul\":10906:10924   */\n      0x64\n      add\n        /* \"TokenSGTX/contracts/LicensesTaxs.sol\":1470:1587  require(... */\n      tag_137\n        /* \"#utility.yul\":10574:10930   */\n      jump\n        /* \"TokenSGTX/contracts/LicensesTaxs.sol\":1470:1587  require(... */\n    tag_255:\n        /* \"TokenSGTX/contracts/LicensesTaxs.sol\":1648:1671  taxpayerAddress(_owner) */\n      tag_258\n        /* \"TokenSGTX/contracts/LicensesTaxs.sol\":1664:1670  _owner */\n      dup6\n        /* \"TokenSGTX/contracts/LicensesTaxs.sol\":1648:1663  taxpayerAddress */\n      tag_74\n        /* \"TokenSGTX/contracts/LicensesTaxs.sol\":1648:1671  taxpayerAddress(_owner) */\n      jump\t// in\n    tag_258:\n      sub(shl(0xa0, 0x01), 0x01)\n        /* \"TokenSGTX/contracts/LicensesTaxs.sol\":1622:1671  _approvers[_approver] !=  taxpayerAddress(_owner) */\n      and\n        /* \"TokenSGTX/contracts/LicensesTaxs.sol\":1622:1632  _approvers */\n      0x06\n        /* \"TokenSGTX/contracts/LicensesTaxs.sol\":1633:1642  _approver */\n      dup6\n        /* \"TokenSGTX/contracts/LicensesTaxs.sol\":1622:1643  _approvers[_approver] */\n      mload(0x40)\n      tag_259\n      swap2\n      swap1\n      tag_176\n      jump\t// in\n    tag_259:\n      swap1\n      dup2\n      mstore\n      mload(0x40)\n      swap1\n      dup2\n      swap1\n      sub\n      0x20\n      add\n      swap1\n      keccak256\n      sload\n      sub(shl(0xa0, 0x01), 0x01)\n      and\n        /* \"TokenSGTX/contracts/LicensesTaxs.sol\":1622:1671  _approvers[_approver] !=  taxpayerAddress(_owner) */\n      sub\n        /* \"TokenSGTX/contracts/LicensesTaxs.sol\":1600:1728  require(... */\n      tag_260\n      jumpi\n      mload(0x40)\n      shl(0xe5, 0x461bcd)\n      dup2\n      mstore\n        /* \"#utility.yul\":11137:11139   */\n      0x20\n        /* \"TokenSGTX/contracts/LicensesTaxs.sol\":1600:1728  require(... */\n      0x04\n      dup3\n      add\n        /* \"#utility.yul\":11119:11140   */\n      mstore\n        /* \"#utility.yul\":11176:11178   */\n      0x1d\n        /* \"#utility.yul\":11156:11174   */\n      0x24\n      dup3\n      add\n        /* \"#utility.yul\":11149:11179   */\n      mstore\n        /* \"#utility.yul\":11215:11246   */\n      0x417070726f7665722063616e6e6f742070726f76652068696d73656c66000000\n        /* \"#utility.yul\":11195:11213   */\n      0x44\n      dup3\n      add\n        /* \"#utility.yul\":11188:11247   */\n      mstore\n        /* \"#utility.yul\":11264:11282   */\n      0x64\n      add\n        /* \"TokenSGTX/contracts/LicensesTaxs.sol\":1600:1728  require(... */\n      tag_137\n        /* \"#utility.yul\":10935:11288   */\n      jump\n        /* \"TokenSGTX/contracts/LicensesTaxs.sol\":1600:1728  require(... */\n    tag_260:\n        /* \"TokenSGTX/contracts/LicensesTaxs.sol\":1741:1760  bytes32 singLicense */\n      0x00\n        /* \"TokenSGTX/contracts/LicensesTaxs.sol\":1763:1926  singLicense(... */\n      tag_263\n        /* \"TokenSGTX/contracts/LicensesTaxs.sol\":1789:1797  _consept */\n      dup8\n        /* \"TokenSGTX/contracts/LicensesTaxs.sol\":1812:1822  identifier */\n      dup5\n        /* \"TokenSGTX/contracts/LicensesTaxs.sol\":1837:1860  taxpayerAddress(_owner) */\n      tag_174\n        /* \"TokenSGTX/contracts/LicensesTaxs.sol\":1853:1859  _owner */\n      dup10\n        /* \"TokenSGTX/contracts/LicensesTaxs.sol\":1837:1852  taxpayerAddress */\n      tag_74\n        /* \"TokenSGTX/contracts/LicensesTaxs.sol\":1837:1860  taxpayerAddress(_owner) */\n      jump\t// in\n        /* \"TokenSGTX/contracts/LicensesTaxs.sol\":1763:1926  singLicense(... */\n    tag_263:\n        /* \"TokenSGTX/contracts/LicensesTaxs.sol\":1741:1926  bytes32 singLicense = singLicense(... */\n      swap1\n      pop\n        /* \"TokenSGTX/contracts/LicensesTaxs.sol\":1939:1972  StructSignature memory objlisense */\n      0x00\n        /* \"TokenSGTX/contracts/LicensesTaxs.sol\":1975:2187  StructSignature(... */\n      mload(0x40)\n      dup1\n      0xe0\n      add\n      0x40\n      mstore\n      dup1\n        /* \"TokenSGTX/contracts/LicensesTaxs.sol\":2005:2013  _consept */\n      dup10\n        /* \"TokenSGTX/contracts/LicensesTaxs.sol\":1975:2187  StructSignature(... */\n      dup2\n      mstore\n      0x20\n      add\n        /* \"TokenSGTX/contracts/LicensesTaxs.sol\":2028:2038  identifier */\n      dup6\n        /* \"TokenSGTX/contracts/LicensesTaxs.sol\":1975:2187  StructSignature(... */\n      dup2\n      mstore\n      0x20\n      add\n        /* \"TokenSGTX/contracts/LicensesTaxs.sol\":2053:2076  taxpayerAddress(_owner) */\n      tag_266\n        /* \"TokenSGTX/contracts/LicensesTaxs.sol\":2069:2075  _owner */\n      dup10\n        /* \"TokenSGTX/contracts/LicensesTaxs.sol\":2053:2068  taxpayerAddress */\n      tag_74\n        /* \"TokenSGTX/contracts/LicensesTaxs.sol\":2053:2076  taxpayerAddress(_owner) */\n      jump\t// in\n    tag_266:\n      sub(shl(0xa0, 0x01), 0x01)\n        /* \"TokenSGTX/contracts/LicensesTaxs.sol\":1975:2187  StructSignature(... */\n      and\n      dup2\n      mstore\n      0x20\n      add\n        /* \"TokenSGTX/contracts/LicensesTaxs.sol\":2091:2095  data */\n      dup7\n        /* \"TokenSGTX/contracts/LicensesTaxs.sol\":1975:2187  StructSignature(... */\n      dup2\n      mstore\n      0x20\n      add\n        /* \"TokenSGTX/contracts/LicensesTaxs.sol\":2110:2120  _approvers */\n      0x06\n        /* \"TokenSGTX/contracts/LicensesTaxs.sol\":2121:2130  _approver */\n      dup9\n        /* \"TokenSGTX/contracts/LicensesTaxs.sol\":2110:2131  _approvers[_approver] */\n      mload(0x40)\n      tag_267\n      swap2\n      swap1\n      tag_176\n      jump\t// in\n    tag_267:\n      swap1\n      dup2\n      mstore\n      0x40\n      dup1\n      mload\n      0x20\n      swap3\n      dup2\n      swap1\n      sub\n      dup4\n      add\n      swap1\n      keccak256\n      sload\n      sub(shl(0xa0, 0x01), 0x01)\n      and\n        /* \"TokenSGTX/contracts/LicensesTaxs.sol\":1975:2187  StructSignature(... */\n      dup4\n      mstore\n      swap1\n      dup3\n      add\n      dup6\n      swap1\n      mstore\n        /* \"TokenSGTX/contracts/LicensesTaxs.sol\":2110:2131  _approvers[_approver] */\n      0x01\n        /* \"TokenSGTX/contracts/LicensesTaxs.sol\":1975:2187  StructSignature(... */\n      swap2\n      add\n      mstore\n        /* \"TokenSGTX/contracts/LicensesTaxs.sol\":1939:2187  StructSignature memory objlisense = StructSignature(... */\n      swap1\n      pop\n        /* \"TokenSGTX/contracts/LicensesTaxs.sol\":2200:2225  _checkLicense(objlisense) */\n      tag_268\n        /* \"TokenSGTX/contracts/LicensesTaxs.sol\":1939:2187  StructSignature memory objlisense = StructSignature(... */\n      dup2\n        /* \"TokenSGTX/contracts/LicensesTaxs.sol\":2200:2213  _checkLicense */\n      tag_269\n        /* \"TokenSGTX/contracts/LicensesTaxs.sol\":2200:2225  _checkLicense(objlisense) */\n      jump\t// in\n    tag_268:\n      pop\n        /* \"TokenSGTX/contracts/LicensesTaxs.sol\":2245:2265  objlisense.signature */\n      0xa0\n      add\n      mload\n      swap8\n        /* \"TokenSGTX/contracts/LicensesTaxs.sol\":1086:2273  function signatureMint(... */\n      swap7\n      pop\n      pop\n      pop\n      pop\n      pop\n      pop\n      pop\n      jump\t// out\n        /* \"TokenSGTX/contracts/LicensesTaxs.sol\":5906:6558  function expirationLicense(... */\n    tag_106:\n        /* \"TokenSGTX/contracts/LicensesTaxs.sol\":9180:9190  msg.sender */\n      caller\n        /* \"TokenSGTX/contracts/LicensesTaxs.sol\":6001:6005  bool */\n      0x00\n        /* \"TokenSGTX/contracts/LicensesTaxs.sol\":9172:9191  _admins[msg.sender] */\n      swap1\n      dup2\n      mstore\n        /* \"TokenSGTX/contracts/LicensesTaxs.sol\":9172:9179  _admins */\n      0x04\n        /* \"TokenSGTX/contracts/LicensesTaxs.sol\":9172:9191  _admins[msg.sender] */\n      0x20\n      mstore\n      0x40\n      dup2\n      keccak256\n      sload\n      0xff\n      and\n        /* \"TokenSGTX/contracts/LicensesTaxs.sol\":9164:9192  require(_admins[msg.sender]) */\n      tag_271\n      jumpi\n      0x00\n      dup1\n      revert\n    tag_271:\n        /* \"TokenSGTX/contracts/LicensesTaxs.sol\":6018:6051  StructSignature memory objlisense */\n      0x00\n        /* \"TokenSGTX/contracts/LicensesTaxs.sol\":6054:6083  _signatureEnabled[singnature] */\n      dup3\n      dup2\n      mstore\n      0x20\n      dup2\n      swap1\n      mstore\n      0x40\n      dup1\n      dup3\n      keccak256\n        /* \"TokenSGTX/contracts/LicensesTaxs.sol\":6018:6083  StructSignature memory objlisense = _signatureEnabled[singnature] */\n      dup2\n      mload\n      0xe0\n      dup2\n      add\n      swap1\n      swap3\n      mstore\n      dup1\n      sload\n      dup3\n      swap1\n        /* \"TokenSGTX/contracts/LicensesTaxs.sol\":6054:6083  _signatureEnabled[singnature] */\n      dup3\n      swap1\n        /* \"TokenSGTX/contracts/LicensesTaxs.sol\":6018:6083  StructSignature memory objlisense = _signatureEnabled[singnature] */\n      tag_273\n      swap1\n      tag_121\n      jump\t// in\n    tag_273:\n      dup1\n      0x1f\n      add\n      0x20\n      dup1\n      swap2\n      div\n      mul\n      0x20\n      add\n      mload(0x40)\n      swap1\n      dup2\n      add\n      0x40\n      mstore\n      dup1\n      swap3\n      swap2\n      swap1\n      dup2\n      dup2\n      mstore\n      0x20\n      add\n      dup3\n      dup1\n      sload\n      tag_274\n      swap1\n      tag_121\n      jump\t// in\n    tag_274:\n      dup1\n      iszero\n      tag_275\n      jumpi\n      dup1\n      0x1f\n      lt\n      tag_276\n      jumpi\n      0x0100\n      dup1\n      dup4\n      sload\n      div\n      mul\n      dup4\n      mstore\n      swap2\n      0x20\n      add\n      swap2\n      jump(tag_275)\n    tag_276:\n      dup3\n      add\n      swap2\n      swap1\n      0x00\n      mstore\n      keccak256(0x00, 0x20)\n      swap1\n    tag_277:\n      dup2\n      sload\n      dup2\n      mstore\n      swap1\n      0x01\n      add\n      swap1\n      0x20\n      add\n      dup1\n      dup4\n      gt\n      tag_277\n      jumpi\n      dup3\n      swap1\n      sub\n      0x1f\n      and\n      dup3\n      add\n      swap2\n    tag_275:\n      pop\n      pop\n      pop\n      pop\n      pop\n      dup2\n      mstore\n      0x20\n      add\n      0x01\n      dup3\n      add\n      dup1\n      sload\n      tag_278\n      swap1\n      tag_121\n      jump\t// in\n    tag_278:\n      dup1\n      0x1f\n      add\n      0x20\n      dup1\n      swap2\n      div\n      mul\n      0x20\n      add\n      mload(0x40)\n      swap1\n      dup2\n      add\n      0x40\n      mstore\n      dup1\n      swap3\n      swap2\n      swap1\n      dup2\n      dup2\n      mstore\n      0x20\n      add\n      dup3\n      dup1\n      sload\n      tag_279\n      swap1\n      tag_121\n      jump\t// in\n    tag_279:\n      dup1\n      iszero\n      tag_280\n      jumpi\n      dup1\n      0x1f\n      lt\n      tag_281\n      jumpi\n      0x0100\n      dup1\n      dup4\n      sload\n      div\n      mul\n      dup4\n      mstore\n      swap2\n      0x20\n      add\n      swap2\n      jump(tag_280)\n    tag_281:\n      dup3\n      add\n      swap2\n      swap1\n      0x00\n      mstore\n      keccak256(0x00, 0x20)\n      swap1\n    tag_282:\n      dup2\n      sload\n      dup2\n      mstore\n      swap1\n      0x01\n      add\n      swap1\n      0x20\n      add\n      dup1\n      dup4\n      gt\n      tag_282\n      jumpi\n      dup3\n      swap1\n      sub\n      0x1f\n      and\n      dup3\n      add\n      swap2\n    tag_280:\n      pop\n      pop\n      pop\n      swap2\n      dup4\n      mstore\n      pop\n      pop\n      0x02\n      dup3\n      add\n      sload\n      sub(shl(0xa0, 0x01), 0x01)\n      and\n      0x20\n      dup3\n      add\n      mstore\n      0x03\n      dup3\n      add\n      dup1\n      sload\n      0x40\n      swap1\n      swap3\n      add\n      swap2\n      tag_283\n      swap1\n      tag_121\n      jump\t// in\n    tag_283:\n      dup1\n      0x1f\n      add\n      0x20\n      dup1\n      swap2\n      div\n      mul\n      0x20\n      add\n      mload(0x40)\n      swap1\n      dup2\n      add\n      0x40\n      mstore\n      dup1\n      swap3\n      swap2\n      swap1\n      dup2\n      dup2\n      mstore\n      0x20\n      add\n      dup3\n      dup1\n      sload\n      tag_284\n      swap1\n      tag_121\n      jump\t// in\n    tag_284:\n      dup1\n      iszero\n      tag_285\n      jumpi\n      dup1\n      0x1f\n      lt\n      tag_286\n      jumpi\n      0x0100\n      dup1\n      dup4\n      sload\n      div\n      mul\n      dup4\n      mstore\n      swap2\n      0x20\n      add\n      swap2\n      jump(tag_285)\n    tag_286:\n      dup3\n      add\n      swap2\n      swap1\n      0x00\n      mstore\n      keccak256(0x00, 0x20)\n      swap1\n    tag_287:\n      dup2\n      sload\n      dup2\n      mstore\n      swap1\n      0x01\n      add\n      swap1\n      0x20\n      add\n      dup1\n      dup4\n      gt\n      tag_287\n      jumpi\n      dup3\n      swap1\n      sub\n      0x1f\n      and\n      dup3\n      add\n      swap2\n    tag_285:\n      pop\n      pop\n      pop\n      swap2\n      dup4\n      mstore\n      pop\n      pop\n      0x04\n      dup3\n      add\n      sload\n      sub(shl(0xa0, 0x01), 0x01)\n      and\n      0x20\n      dup3\n      add\n      mstore\n      0x05\n      dup3\n      add\n      sload\n      0x40\n      dup1\n      dup4\n      add\n      swap2\n      swap1\n      swap2\n      mstore\n      0x06\n      swap1\n      swap3\n      add\n      sload\n      0xff\n      and\n      iszero\n      iszero\n      0x60\n      swap1\n      swap2\n      add\n      mstore\n        /* \"TokenSGTX/contracts/LicensesTaxs.sol\":6121:6137  objlisense.owner */\n      dup2\n      add\n      mload\n        /* \"TokenSGTX/contracts/LicensesTaxs.sol\":6018:6083  StructSignature memory objlisense = _signatureEnabled[singnature] */\n      swap1\n      swap2\n      pop\n        /* \"TokenSGTX/contracts/LicensesTaxs.sol\":6094:6138  _deleteLicense(singnature, objlisense.owner) */\n      tag_288\n      swap1\n        /* \"TokenSGTX/contracts/LicensesTaxs.sol\":6109:6119  singnature */\n      dup5\n      swap1\n        /* \"TokenSGTX/contracts/LicensesTaxs.sol\":6094:6108  _deleteLicense */\n      tag_289\n        /* \"TokenSGTX/contracts/LicensesTaxs.sol\":6094:6138  _deleteLicense(singnature, objlisense.owner) */\n      jump\t// in\n    tag_288:\n        /* \"TokenSGTX/contracts/LicensesTaxs.sol\":6200:6216  objlisense.owner */\n      0x40\n      dup1\n      dup3\n      add\n      mload\n      sub(shl(0xa0, 0x01), 0x01)\n        /* \"TokenSGTX/contracts/LicensesTaxs.sol\":6189:6217  _userSings[objlisense.owner] */\n      and\n        /* \"TokenSGTX/contracts/LicensesTaxs.sol\":6149:6186  bytes32[] memory ownersClientLicenses */\n      0x00\n        /* \"TokenSGTX/contracts/LicensesTaxs.sol\":6189:6217  _userSings[objlisense.owner] */\n      swap1\n      dup2\n      mstore\n        /* \"TokenSGTX/contracts/LicensesTaxs.sol\":6189:6199  _userSings */\n      0x01\n        /* \"TokenSGTX/contracts/LicensesTaxs.sol\":6189:6217  _userSings[objlisense.owner] */\n      0x20\n      swap1\n      dup2\n      mstore\n      dup3\n      dup3\n      keccak256\n        /* \"TokenSGTX/contracts/LicensesTaxs.sol\":6149:6217  bytes32[] memory ownersClientLicenses = _userSings[objlisense.owner] */\n      dup1\n      sload\n      dup5\n      mload\n      dup2\n      dup5\n      mul\n      dup2\n      add\n      dup5\n      add\n      swap1\n      swap6\n      mstore\n      dup1\n      dup6\n      mstore\n        /* \"TokenSGTX/contracts/LicensesTaxs.sol\":6149:6186  bytes32[] memory ownersClientLicenses */\n      swap3\n      swap4\n        /* \"TokenSGTX/contracts/LicensesTaxs.sol\":6149:6217  bytes32[] memory ownersClientLicenses = _userSings[objlisense.owner] */\n      swap3\n        /* \"TokenSGTX/contracts/LicensesTaxs.sol\":6189:6217  _userSings[objlisense.owner] */\n      swap1\n      swap2\n        /* \"TokenSGTX/contracts/LicensesTaxs.sol\":6149:6217  bytes32[] memory ownersClientLicenses = _userSings[objlisense.owner] */\n      dup4\n      add\n        /* \"TokenSGTX/contracts/LicensesTaxs.sol\":6189:6217  _userSings[objlisense.owner] */\n      dup3\n        /* \"TokenSGTX/contracts/LicensesTaxs.sol\":6149:6217  bytes32[] memory ownersClientLicenses = _userSings[objlisense.owner] */\n      dup3\n      dup1\n      iszero\n      tag_290\n      jumpi\n      0x20\n      mul\n      dup3\n      add\n      swap2\n      swap1\n      0x00\n      mstore\n      keccak256(0x00, 0x20)\n      swap1\n    tag_291:\n      dup2\n      sload\n      dup2\n      mstore\n      0x20\n      add\n      swap1\n      0x01\n      add\n      swap1\n      dup1\n      dup4\n      gt\n      tag_291\n      jumpi\n    tag_290:\n      pop\n      pop\n      pop\n      pop\n      pop\n      swap1\n      pop\n        /* \"TokenSGTX/contracts/LicensesTaxs.sol\":6233:6242  uint256 i */\n      0x00\n        /* \"TokenSGTX/contracts/LicensesTaxs.sol\":6228:6428  for (uint256 i = 0; i < ownersClientLicenses.length; i++) {... */\n    tag_292:\n        /* \"TokenSGTX/contracts/LicensesTaxs.sol\":6252:6272  ownersClientLicenses */\n      dup2\n        /* \"TokenSGTX/contracts/LicensesTaxs.sol\":6252:6279  ownersClientLicenses.length */\n      mload\n        /* \"TokenSGTX/contracts/LicensesTaxs.sol\":6248:6249  i */\n      dup2\n        /* \"TokenSGTX/contracts/LicensesTaxs.sol\":6248:6279  i < ownersClientLicenses.length */\n      lt\n        /* \"TokenSGTX/contracts/LicensesTaxs.sol\":6228:6428  for (uint256 i = 0; i < ownersClientLicenses.length; i++) {... */\n      iszero\n      tag_293\n      jumpi\n        /* \"TokenSGTX/contracts/LicensesTaxs.sol\":6332:6342  singnature */\n      dup5\n        /* \"TokenSGTX/contracts/LicensesTaxs.sol\":6305:6325  ownersClientLicenses */\n      dup3\n        /* \"TokenSGTX/contracts/LicensesTaxs.sol\":6326:6327  i */\n      dup3\n        /* \"TokenSGTX/contracts/LicensesTaxs.sol\":6305:6328  ownersClientLicenses[i] */\n      dup2\n      mload\n      dup2\n      lt\n      tag_296\n      jumpi\n      tag_296\n      tag_297\n      jump\t// in\n    tag_296:\n      0x20\n      mul\n      0x20\n      add\n      add\n      mload\n        /* \"TokenSGTX/contracts/LicensesTaxs.sol\":6305:6342  ownersClientLicenses[i] == singnature */\n      sub\n        /* \"TokenSGTX/contracts/LicensesTaxs.sol\":6301:6417  if (ownersClientLicenses[i] == singnature) {... */\n      tag_298\n      jumpi\n        /* \"TokenSGTX/contracts/LicensesTaxs.sol\":6381:6397  objlisense.owner */\n      0x40\n      dup1\n      dup5\n      add\n      mload\n      sub(shl(0xa0, 0x01), 0x01)\n        /* \"TokenSGTX/contracts/LicensesTaxs.sol\":6370:6398  _userSings[objlisense.owner] */\n      and\n      0x00\n      swap1\n      dup2\n      mstore\n        /* \"TokenSGTX/contracts/LicensesTaxs.sol\":6370:6380  _userSings */\n      0x01\n        /* \"TokenSGTX/contracts/LicensesTaxs.sol\":6370:6398  _userSings[objlisense.owner] */\n      0x20\n      mstore\n      keccak256\n        /* \"TokenSGTX/contracts/LicensesTaxs.sol\":6370:6401  _userSings[objlisense.owner][i] */\n      dup1\n      sload\n        /* \"TokenSGTX/contracts/LicensesTaxs.sol\":6399:6400  i */\n      dup3\n      swap1\n        /* \"TokenSGTX/contracts/LicensesTaxs.sol\":6370:6401  _userSings[objlisense.owner][i] */\n      dup2\n      lt\n      tag_300\n      jumpi\n      tag_300\n      tag_297\n      jump\t// in\n    tag_300:\n      0x00\n      swap2\n      dup3\n      mstore\n      0x20\n      dup3\n      keccak256\n      add\n        /* \"TokenSGTX/contracts/LicensesTaxs.sol\":6363:6401  delete _userSings[objlisense.owner][i] */\n      sstore\n        /* \"TokenSGTX/contracts/LicensesTaxs.sol\":6301:6417  if (ownersClientLicenses[i] == singnature) {... */\n    tag_298:\n        /* \"TokenSGTX/contracts/LicensesTaxs.sol\":6281:6284  i++ */\n      dup1\n      tag_302\n      dup2\n      tag_303\n      jump\t// in\n    tag_302:\n      swap2\n      pop\n      pop\n        /* \"TokenSGTX/contracts/LicensesTaxs.sol\":6228:6428  for (uint256 i = 0; i < ownersClientLicenses.length; i++) {... */\n      jump(tag_292)\n    tag_293:\n      pop\n        /* \"TokenSGTX/contracts/LicensesTaxs.sol\":6460:6465  false */\n      0x00\n        /* \"TokenSGTX/contracts/LicensesTaxs.sol\":6438:6457  objlisense.isEntity */\n      0xc0\n      dup4\n      add\n        /* \"TokenSGTX/contracts/LicensesTaxs.sol\":6438:6465  objlisense.isEntity = false */\n      dup2\n      swap1\n      mstore\n        /* \"TokenSGTX/contracts/LicensesTaxs.sol\":6494:6510  objlisense.owner */\n      0x40\n      dup1\n      dup5\n      add\n      mload\n      sub(shl(0xa0, 0x01), 0x01)\n        /* \"TokenSGTX/contracts/LicensesTaxs.sol\":6476:6511  _recordedLicenses[objlisense.owner] */\n      and\n      dup3\n      mstore\n        /* \"TokenSGTX/contracts/LicensesTaxs.sol\":6476:6493  _recordedLicenses */\n      0x02\n        /* \"TokenSGTX/contracts/LicensesTaxs.sol\":6476:6511  _recordedLicenses[objlisense.owner] */\n      0x20\n      swap1\n      dup2\n      mstore\n      swap1\n      dup3\n      keccak256\n        /* \"TokenSGTX/contracts/LicensesTaxs.sol\":6476:6528  _recordedLicenses[objlisense.owner].push(objlisense) */\n      dup1\n      sload\n        /* \"TokenSGTX/contracts/LicensesTaxs.sol\":6438:6465  objlisense.isEntity = false */\n      0x01\n        /* \"TokenSGTX/contracts/LicensesTaxs.sol\":6476:6528  _recordedLicenses[objlisense.owner].push(objlisense) */\n      dup2\n      add\n      dup3\n      sstore\n      swap1\n      dup4\n      mstore\n      swap2\n      keccak256\n      dup4\n      mload\n        /* \"TokenSGTX/contracts/LicensesTaxs.sol\":6438:6448  objlisense */\n      dup5\n      swap3\n        /* \"TokenSGTX/contracts/LicensesTaxs.sol\":6476:6528  _recordedLicenses[objlisense.owner].push(objlisense) */\n      0x07\n      mul\n      swap1\n      swap2\n      add\n      swap1\n      dup2\n      swap1\n      tag_305\n      swap1\n      dup3\n      tag_306\n      jump\t// in\n    tag_305:\n      pop\n      0x20\n      dup3\n      add\n      mload\n      0x01\n      dup3\n      add\n      swap1\n      tag_307\n      swap1\n      dup3\n      tag_306\n      jump\t// in\n    tag_307:\n      pop\n      0x40\n      dup3\n      add\n      mload\n      0x02\n      dup3\n      add\n      dup1\n      sload\n      not(sub(shl(0xa0, 0x01), 0x01))\n      and\n      sub(shl(0xa0, 0x01), 0x01)\n      swap1\n      swap3\n      and\n      swap2\n      swap1\n      swap2\n      or\n      swap1\n      sstore\n      0x60\n      dup3\n      add\n      mload\n      0x03\n      dup3\n      add\n      swap1\n      tag_308\n      swap1\n      dup3\n      tag_306\n      jump\t// in\n    tag_308:\n      pop\n      0x80\n      dup3\n      add\n      mload\n      0x04\n      dup3\n      add\n      dup1\n      sload\n      not(sub(shl(0xa0, 0x01), 0x01))\n      and\n      sub(shl(0xa0, 0x01), 0x01)\n      swap1\n      swap3\n      and\n      swap2\n      swap1\n      swap2\n      or\n      swap1\n      sstore\n      0xa0\n      dup3\n      add\n      mload\n      0x05\n      dup3\n      add\n      sstore\n      0xc0\n      swap1\n      swap2\n      add\n      mload\n      0x06\n      swap1\n      swap2\n      add\n      dup1\n      sload\n      not(0xff)\n      and\n      swap2\n      iszero\n      iszero\n      swap2\n      swap1\n      swap2\n      or\n      swap1\n      sstore\n      pop\n      0x01\n      swap4\n        /* \"TokenSGTX/contracts/LicensesTaxs.sol\":5906:6558  function expirationLicense(... */\n      swap3\n      pop\n      pop\n      pop\n      jump\t// out\n        /* \"TokenSGTX/contracts/LicensesTaxs.sol\":8793:8920  function mintingStop() public isOwner returns (bool) {... */\n    tag_110:\n        /* \"TokenSGTX/contracts/LicensesTaxs.sol\":9073:9078  owner */\n      sload(0x07)\n        /* \"TokenSGTX/contracts/LicensesTaxs.sol\":8840:8844  bool */\n      0x00\n      swap1\n      sub(shl(0xa0, 0x01), 0x01)\n        /* \"TokenSGTX/contracts/LicensesTaxs.sol\":9073:9078  owner */\n      and\n        /* \"TokenSGTX/contracts/LicensesTaxs.sol\":9059:9069  msg.sender */\n      caller\n        /* \"TokenSGTX/contracts/LicensesTaxs.sol\":9059:9078  msg.sender == owner */\n      eq\n        /* \"TokenSGTX/contracts/LicensesTaxs.sol\":9051:9106  require(msg.sender == owner, \"Only Owner can activate\") */\n      tag_310\n      jumpi\n      mload(0x40)\n      shl(0xe5, 0x461bcd)\n      dup2\n      mstore\n      0x04\n      add\n      tag_137\n      swap1\n      tag_142\n      jump\t// in\n    tag_310:\n      pop\n        /* \"TokenSGTX/contracts/LicensesTaxs.sol\":8872:8883  stopMinting */\n      0x07\n      dup1\n      sload\n      0xff\n      shl(0xa0, 0x01)\n      dup1\n      dup4\n      div\n      dup3\n      and\n        /* \"TokenSGTX/contracts/LicensesTaxs.sol\":8871:8883  !stopMinting */\n      iszero\n        /* \"TokenSGTX/contracts/LicensesTaxs.sol\":8857:8883  stopMinting = !stopMinting */\n      dup2\n      mul\n      not(shl(0xa0, 0xff))\n      swap1\n      swap4\n      and\n      swap3\n      swap1\n      swap3\n      or\n      swap3\n      dup4\n      swap1\n      sstore\n        /* \"TokenSGTX/contracts/LicensesTaxs.sol\":8901:8912  stopMinting */\n      swap2\n      div\n      and\n        /* \"TokenSGTX/contracts/LicensesTaxs.sol\":8793:8920  function mintingStop() public isOwner returns (bool) {... */\n      swap1\n      jump\t// out\n        /* \"TokenSGTX/contracts/LicensesTaxs.sol\":6568:6947  function getExpiredLicense(address owner , bytes32 sign) public payable isOwner returns (StructSignature memory) {... */\n    tag_115:\n        /* \"TokenSGTX/contracts/LicensesTaxs.sol\":6657:6679  StructSignature memory */\n      tag_313\n      tag_118\n      jump\t// in\n    tag_313:\n        /* \"TokenSGTX/contracts/LicensesTaxs.sol\":9073:9078  owner */\n      and(sub(shl(0xa0, 0x01), 0x01), sload(0x07))\n        /* \"TokenSGTX/contracts/LicensesTaxs.sol\":9059:9069  msg.sender */\n      caller\n        /* \"TokenSGTX/contracts/LicensesTaxs.sol\":9059:9078  msg.sender == owner */\n      eq\n        /* \"TokenSGTX/contracts/LicensesTaxs.sol\":9051:9106  require(msg.sender == owner, \"Only Owner can activate\") */\n      tag_315\n      jumpi\n      mload(0x40)\n      shl(0xe5, 0x461bcd)\n      dup2\n      mstore\n      0x04\n      add\n      tag_137\n      swap1\n      tag_142\n      jump\t// in\n    tag_315:\n      sub(shl(0xa0, 0x01), 0x01)\n        /* \"TokenSGTX/contracts/LicensesTaxs.sol\":6732:6756  _recordedLicenses[owner] */\n      dup4\n      and\n        /* \"TokenSGTX/contracts/LicensesTaxs.sol\":6692:6729  StructSignature[] memory objLincenses */\n      0x00\n        /* \"TokenSGTX/contracts/LicensesTaxs.sol\":6732:6756  _recordedLicenses[owner] */\n      swap1\n      dup2\n      mstore\n        /* \"TokenSGTX/contracts/LicensesTaxs.sol\":6732:6749  _recordedLicenses */\n      0x02\n        /* \"TokenSGTX/contracts/LicensesTaxs.sol\":6732:6756  _recordedLicenses[owner] */\n      0x20\n      swap1\n      dup2\n      mstore\n      0x40\n      dup1\n      dup4\n      keccak256\n        /* \"TokenSGTX/contracts/LicensesTaxs.sol\":6692:6756  StructSignature[] memory objLincenses = _recordedLicenses[owner] */\n      dup1\n      sload\n      dup3\n      mload\n      dup2\n      dup6\n      mul\n      dup2\n      add\n      dup6\n      add\n      swap1\n      swap4\n      mstore\n      dup1\n      dup4\n      mstore\n      swap2\n      swap3\n        /* \"TokenSGTX/contracts/LicensesTaxs.sol\":6732:6756  _recordedLicenses[owner] */\n      swap1\n      swap2\n        /* \"TokenSGTX/contracts/LicensesTaxs.sol\":6692:6756  StructSignature[] memory objLincenses = _recordedLicenses[owner] */\n      swap1\n        /* \"TokenSGTX/contracts/LicensesTaxs.sol\":6692:6729  StructSignature[] memory objLincenses */\n      dup5\n      swap1\n        /* \"TokenSGTX/contracts/LicensesTaxs.sol\":6692:6756  StructSignature[] memory objLincenses = _recordedLicenses[owner] */\n      dup5\n      add\n    tag_318:\n      dup3\n      dup3\n      lt\n      iszero\n      tag_319\n      jumpi\n      dup4\n      dup3\n      swap1\n      0x00\n      mstore\n      keccak256(0x00, 0x20)\n      swap1\n      0x07\n      mul\n      add\n      mload(0x40)\n      dup1\n      0xe0\n      add\n      0x40\n      mstore\n      swap1\n      dup2\n      0x00\n      dup3\n      add\n      dup1\n      sload\n      tag_321\n      swap1\n      tag_121\n      jump\t// in\n    tag_321:\n      dup1\n      0x1f\n      add\n      0x20\n      dup1\n      swap2\n      div\n      mul\n      0x20\n      add\n      mload(0x40)\n      swap1\n      dup2\n      add\n      0x40\n      mstore\n      dup1\n      swap3\n      swap2\n      swap1\n      dup2\n      dup2\n      mstore\n      0x20\n      add\n      dup3\n      dup1\n      sload\n      tag_322\n      swap1\n      tag_121\n      jump\t// in\n    tag_322:\n      dup1\n      iszero\n      tag_323\n      jumpi\n      dup1\n      0x1f\n      lt\n      tag_324\n      jumpi\n      0x0100\n      dup1\n      dup4\n      sload\n      div\n      mul\n      dup4\n      mstore\n      swap2\n      0x20\n      add\n      swap2\n      jump(tag_323)\n    tag_324:\n      dup3\n      add\n      swap2\n      swap1\n      0x00\n      mstore\n      keccak256(0x00, 0x20)\n      swap1\n    tag_325:\n      dup2\n      sload\n      dup2\n      mstore\n      swap1\n      0x01\n      add\n      swap1\n      0x20\n      add\n      dup1\n      dup4\n      gt\n      tag_325\n      jumpi\n      dup3\n      swap1\n      sub\n      0x1f\n      and\n      dup3\n      add\n      swap2\n    tag_323:\n      pop\n      pop\n      pop\n      pop\n      pop\n      dup2\n      mstore\n      0x20\n      add\n      0x01\n      dup3\n      add\n      dup1\n      sload\n      tag_326\n      swap1\n      tag_121\n      jump\t// in\n    tag_326:\n      dup1\n      0x1f\n      add\n      0x20\n      dup1\n      swap2\n      div\n      mul\n      0x20\n      add\n      mload(0x40)\n      swap1\n      dup2\n      add\n      0x40\n      mstore\n      dup1\n      swap3\n      swap2\n      swap1\n      dup2\n      dup2\n      mstore\n      0x20\n      add\n      dup3\n      dup1\n      sload\n      tag_327\n      swap1\n      tag_121\n      jump\t// in\n    tag_327:\n      dup1\n      iszero\n      tag_328\n      jumpi\n      dup1\n      0x1f\n      lt\n      tag_329\n      jumpi\n      0x0100\n      dup1\n      dup4\n      sload\n      div\n      mul\n      dup4\n      mstore\n      swap2\n      0x20\n      add\n      swap2\n      jump(tag_328)\n    tag_329:\n      dup3\n      add\n      swap2\n      swap1\n      0x00\n      mstore\n      keccak256(0x00, 0x20)\n      swap1\n    tag_330:\n      dup2\n      sload\n      dup2\n      mstore\n      swap1\n      0x01\n      add\n      swap1\n      0x20\n      add\n      dup1\n      dup4\n      gt\n      tag_330\n      jumpi\n      dup3\n      swap1\n      sub\n      0x1f\n      and\n      dup3\n      add\n      swap2\n    tag_328:\n      pop\n      pop\n      pop\n      swap2\n      dup4\n      mstore\n      pop\n      pop\n      0x02\n      dup3\n      add\n      sload\n      sub(shl(0xa0, 0x01), 0x01)\n      and\n      0x20\n      dup3\n      add\n      mstore\n      0x03\n      dup3\n      add\n      dup1\n      sload\n      0x40\n      swap1\n      swap3\n      add\n      swap2\n      tag_331\n      swap1\n      tag_121\n      jump\t// in\n    tag_331:\n      dup1\n      0x1f\n      add\n      0x20\n      dup1\n      swap2\n      div\n      mul\n      0x20\n      add\n      mload(0x40)\n      swap1\n      dup2\n      add\n      0x40\n      mstore\n      dup1\n      swap3\n      swap2\n      swap1\n      dup2\n      dup2\n      mstore\n      0x20\n      add\n      dup3\n      dup1\n      sload\n      tag_332\n      swap1\n      tag_121\n      jump\t// in\n    tag_332:\n      dup1\n      iszero\n      tag_333\n      jumpi\n      dup1\n      0x1f\n      lt\n      tag_334\n      jumpi\n      0x0100\n      dup1\n      dup4\n      sload\n      div\n      mul\n      dup4\n      mstore\n      swap2\n      0x20\n      add\n      swap2\n      jump(tag_333)\n    tag_334:\n      dup3\n      add\n      swap2\n      swap1\n      0x00\n      mstore\n      keccak256(0x00, 0x20)\n      swap1\n    tag_335:\n      dup2\n      sload\n      dup2\n      mstore\n      swap1\n      0x01\n      add\n      swap1\n      0x20\n      add\n      dup1\n      dup4\n      gt\n      tag_335\n      jumpi\n      dup3\n      swap1\n      sub\n      0x1f\n      and\n      dup3\n      add\n      swap2\n    tag_333:\n      pop\n      pop\n      pop\n      swap2\n      dup4\n      mstore\n      pop\n      pop\n      0x04\n      dup3\n      add\n      sload\n      sub(shl(0xa0, 0x01), 0x01)\n      and\n      0x20\n      dup1\n      dup4\n      add\n      swap2\n      swap1\n      swap2\n      mstore\n      0x05\n      dup4\n      add\n      sload\n      0x40\n      dup4\n      add\n      mstore\n      0x06\n      swap1\n      swap3\n      add\n      sload\n      0xff\n      and\n      iszero\n      iszero\n      0x60\n      swap1\n      swap2\n      add\n      mstore\n      swap1\n      dup3\n      mstore\n      0x01\n      swap3\n      swap1\n      swap3\n      add\n      swap2\n      add\n      jump(tag_318)\n    tag_319:\n      pop\n      pop\n      pop\n      pop\n      swap1\n      pop\n        /* \"TokenSGTX/contracts/LicensesTaxs.sol\":6773:6782  uint256 i */\n      0x00\n        /* \"TokenSGTX/contracts/LicensesTaxs.sol\":6768:6940  for (uint256 i = 0; i < objLincenses.length; i++) {... */\n    tag_336:\n        /* \"TokenSGTX/contracts/LicensesTaxs.sol\":6792:6804  objLincenses */\n      dup2\n        /* \"TokenSGTX/contracts/LicensesTaxs.sol\":6792:6811  objLincenses.length */\n      mload\n        /* \"TokenSGTX/contracts/LicensesTaxs.sol\":6788:6789  i */\n      dup2\n        /* \"TokenSGTX/contracts/LicensesTaxs.sol\":6788:6811  i < objLincenses.length */\n      lt\n        /* \"TokenSGTX/contracts/LicensesTaxs.sol\":6768:6940  for (uint256 i = 0; i < objLincenses.length; i++) {... */\n      iszero\n      tag_337\n      jumpi\n        /* \"TokenSGTX/contracts/LicensesTaxs.sol\":6866:6870  sign */\n      dup4\n        /* \"TokenSGTX/contracts/LicensesTaxs.sol\":6837:6849  objLincenses */\n      dup3\n        /* \"TokenSGTX/contracts/LicensesTaxs.sol\":6850:6851  i */\n      dup3\n        /* \"TokenSGTX/contracts/LicensesTaxs.sol\":6837:6852  objLincenses[i] */\n      dup2\n      mload\n      dup2\n      lt\n      tag_340\n      jumpi\n      tag_340\n      tag_297\n      jump\t// in\n    tag_340:\n      0x20\n      mul\n      0x20\n      add\n      add\n      mload\n        /* \"TokenSGTX/contracts/LicensesTaxs.sol\":6837:6862  objLincenses[i].signature */\n      0xa0\n      add\n      mload\n        /* \"TokenSGTX/contracts/LicensesTaxs.sol\":6837:6870  objLincenses[i].signature == sign */\n      sub\n        /* \"TokenSGTX/contracts/LicensesTaxs.sol\":6833:6929  if (objLincenses[i].signature == sign) {... */\n      tag_341\n      jumpi\n        /* \"TokenSGTX/contracts/LicensesTaxs.sol\":6898:6910  objLincenses */\n      dup2\n        /* \"TokenSGTX/contracts/LicensesTaxs.sol\":6911:6912  i */\n      dup2\n        /* \"TokenSGTX/contracts/LicensesTaxs.sol\":6898:6913  objLincenses[i] */\n      dup2\n      mload\n      dup2\n      lt\n      tag_343\n      jumpi\n      tag_343\n      tag_297\n      jump\t// in\n    tag_343:\n      0x20\n      mul\n      0x20\n      add\n      add\n      mload\n        /* \"TokenSGTX/contracts/LicensesTaxs.sol\":6891:6913  return objLincenses[i] */\n      swap3\n      pop\n      pop\n      pop\n      jump(tag_136)\n        /* \"TokenSGTX/contracts/LicensesTaxs.sol\":6833:6929  if (objLincenses[i].signature == sign) {... */\n    tag_341:\n        /* \"TokenSGTX/contracts/LicensesTaxs.sol\":6813:6816  i++ */\n      dup1\n      tag_344\n      dup2\n      tag_303\n      jump\t// in\n    tag_344:\n      swap2\n      pop\n      pop\n        /* \"TokenSGTX/contracts/LicensesTaxs.sol\":6768:6940  for (uint256 i = 0; i < objLincenses.length; i++) {... */\n      jump(tag_336)\n    tag_337:\n      pop\n        /* \"TokenSGTX/contracts/LicensesTaxs.sol\":6681:6947  {... */\n      pop\n        /* \"TokenSGTX/contracts/LicensesTaxs.sol\":6568:6947  function getExpiredLicense(address owner , bytes32 sign) public payable isOwner returns (StructSignature memory) {... */\n      swap3\n      swap2\n      pop\n      pop\n      jump\t// out\n        /* \"TokenSGTX/contracts/LicensesTaxs.sol\":3518:3884  function singLicense(... */\n    tag_177:\n        /* \"TokenSGTX/contracts/LicensesTaxs.sol\":9073:9078  owner */\n      sload(0x07)\n        /* \"TokenSGTX/contracts/LicensesTaxs.sol\":3731:3738  bytes32 */\n      0x00\n      swap1\n      sub(shl(0xa0, 0x01), 0x01)\n        /* \"TokenSGTX/contracts/LicensesTaxs.sol\":9073:9078  owner */\n      and\n        /* \"TokenSGTX/contracts/LicensesTaxs.sol\":9059:9069  msg.sender */\n      caller\n        /* \"TokenSGTX/contracts/LicensesTaxs.sol\":9059:9078  msg.sender == owner */\n      eq\n        /* \"TokenSGTX/contracts/LicensesTaxs.sol\":9051:9106  require(msg.sender == owner, \"Only Owner can activate\") */\n      tag_346\n      jumpi\n      mload(0x40)\n      shl(0xe5, 0x461bcd)\n      dup2\n      mstore\n      0x04\n      add\n      tag_137\n      swap1\n      tag_142\n      jump\t// in\n    tag_346:\n        /* \"TokenSGTX/contracts/LicensesTaxs.sol\":3810:3818  _consept */\n      dup6\n        /* \"TokenSGTX/contracts/LicensesTaxs.sol\":3820:3831  _identifier */\n      dup6\n        /* \"TokenSGTX/contracts/LicensesTaxs.sol\":3833:3842  _taxPayer */\n      dup6\n        /* \"TokenSGTX/contracts/LicensesTaxs.sol\":3844:3849  _data */\n      dup6\n        /* \"TokenSGTX/contracts/LicensesTaxs.sol\":3851:3860  _aprrover */\n      dup6\n        /* \"TokenSGTX/contracts/LicensesTaxs.sol\":3799:3861  abi.encode(_consept, _identifier, _taxPayer, _data, _aprrover) */\n      add(0x20, mload(0x40))\n      tag_349\n      swap6\n      swap5\n      swap4\n      swap3\n      swap2\n      swap1\n      tag_350\n      jump\t// in\n    tag_349:\n      mload(0x40)\n      0x20\n      dup2\n      dup4\n      sub\n      sub\n      dup2\n      mstore\n      swap1\n      0x40\n      mstore\n        /* \"TokenSGTX/contracts/LicensesTaxs.sol\":3771:3876  keccak256(... */\n      dup1\n      mload\n      swap1\n      0x20\n      add\n      keccak256\n        /* \"TokenSGTX/contracts/LicensesTaxs.sol\":3751:3876  return... */\n      swap1\n      pop\n        /* \"TokenSGTX/contracts/LicensesTaxs.sol\":3518:3884  function singLicense(... */\n      swap6\n      swap5\n      pop\n      pop\n      pop\n      pop\n      pop\n      jump\t// out\n        /* \"TokenSGTX/contracts/LicensesTaxs.sol\":3892:4864  function _checkLicense(... */\n    tag_269:\n        /* \"TokenSGTX/contracts/LicensesTaxs.sol\":9073:9078  owner */\n      sload(0x07)\n        /* \"TokenSGTX/contracts/LicensesTaxs.sol\":3995:3999  bool */\n      0x00\n      swap1\n      sub(shl(0xa0, 0x01), 0x01)\n        /* \"TokenSGTX/contracts/LicensesTaxs.sol\":9073:9078  owner */\n      and\n        /* \"TokenSGTX/contracts/LicensesTaxs.sol\":9059:9069  msg.sender */\n      caller\n        /* \"TokenSGTX/contracts/LicensesTaxs.sol\":9059:9078  msg.sender == owner */\n      eq\n        /* \"TokenSGTX/contracts/LicensesTaxs.sol\":9051:9106  require(msg.sender == owner, \"Only Owner can activate\") */\n      tag_352\n      jumpi\n      mload(0x40)\n      shl(0xe5, 0x461bcd)\n      dup2\n      mstore\n      0x04\n      add\n      tag_137\n      swap1\n      tag_142\n      jump\t// in\n    tag_352:\n        /* \"TokenSGTX/contracts/LicensesTaxs.sol\":4080:4104  _objectLicense.signature */\n      0xa0\n      dup3\n      add\n      mload\n        /* \"TokenSGTX/contracts/LicensesTaxs.sol\":4012:4045  StructSignature memory objlisense */\n      0x00\n        /* \"TokenSGTX/contracts/LicensesTaxs.sol\":4048:4115  _signatureEnabled[... */\n      swap1\n      dup2\n      mstore\n      0x20\n      dup2\n      swap1\n      mstore\n      0x40\n      dup1\n      dup3\n      keccak256\n        /* \"TokenSGTX/contracts/LicensesTaxs.sol\":4012:4115  StructSignature memory objlisense = _signatureEnabled[... */\n      dup2\n      mload\n      0xe0\n      dup2\n      add\n      swap1\n      swap3\n      mstore\n      dup1\n      sload\n      dup3\n      swap1\n        /* \"TokenSGTX/contracts/LicensesTaxs.sol\":4048:4115  _signatureEnabled[... */\n      dup3\n      swap1\n        /* \"TokenSGTX/contracts/LicensesTaxs.sol\":4012:4115  StructSignature memory objlisense = _signatureEnabled[... */\n      tag_355\n      swap1\n      tag_121\n      jump\t// in\n    tag_355:\n      dup1\n      0x1f\n      add\n      0x20\n      dup1\n      swap2\n      div\n      mul\n      0x20\n      add\n      mload(0x40)\n      swap1\n      dup2\n      add\n      0x40\n      mstore\n      dup1\n      swap3\n      swap2\n      swap1\n      dup2\n      dup2\n      mstore\n      0x20\n      add\n      dup3\n      dup1\n      sload\n      tag_356\n      swap1\n      tag_121\n      jump\t// in\n    tag_356:\n      dup1\n      iszero\n      tag_357\n      jumpi\n      dup1\n      0x1f\n      lt\n      tag_358\n      jumpi\n      0x0100\n      dup1\n      dup4\n      sload\n      div\n      mul\n      dup4\n      mstore\n      swap2\n      0x20\n      add\n      swap2\n      jump(tag_357)\n    tag_358:\n      dup3\n      add\n      swap2\n      swap1\n      0x00\n      mstore\n      keccak256(0x00, 0x20)\n      swap1\n    tag_359:\n      dup2\n      sload\n      dup2\n      mstore\n      swap1\n      0x01\n      add\n      swap1\n      0x20\n      add\n      dup1\n      dup4\n      gt\n      tag_359\n      jumpi\n      dup3\n      swap1\n      sub\n      0x1f\n      and\n      dup3\n      add\n      swap2\n    tag_357:\n      pop\n      pop\n      pop\n      pop\n      pop\n      dup2\n      mstore\n      0x20\n      add\n      0x01\n      dup3\n      add\n      dup1\n      sload\n      tag_360\n      swap1\n      tag_121\n      jump\t// in\n    tag_360:\n      dup1\n      0x1f\n      add\n      0x20\n      dup1\n      swap2\n      div\n      mul\n      0x20\n      add\n      mload(0x40)\n      swap1\n      dup2\n      add\n      0x40\n      mstore\n      dup1\n      swap3\n      swap2\n      swap1\n      dup2\n      dup2\n      mstore\n      0x20\n      add\n      dup3\n      dup1\n      sload\n      tag_361\n      swap1\n      tag_121\n      jump\t// in\n    tag_361:\n      dup1\n      iszero\n      tag_362\n      jumpi\n      dup1\n      0x1f\n      lt\n      tag_363\n      jumpi\n      0x0100\n      dup1\n      dup4\n      sload\n      div\n      mul\n      dup4\n      mstore\n      swap2\n      0x20\n      add\n      swap2\n      jump(tag_362)\n    tag_363:\n      dup3\n      add\n      swap2\n      swap1\n      0x00\n      mstore\n      keccak256(0x00, 0x20)\n      swap1\n    tag_364:\n      dup2\n      sload\n      dup2\n      mstore\n      swap1\n      0x01\n      add\n      swap1\n      0x20\n      add\n      dup1\n      dup4\n      gt\n      tag_364\n      jumpi\n      dup3\n      swap1\n      sub\n      0x1f\n      and\n      dup3\n      add\n      swap2\n    tag_362:\n      pop\n      pop\n      pop\n      swap2\n      dup4\n      mstore\n      pop\n      pop\n      0x02\n      dup3\n      add\n      sload\n      sub(shl(0xa0, 0x01), 0x01)\n      and\n      0x20\n      dup3\n      add\n      mstore\n      0x03\n      dup3\n      add\n      dup1\n      sload\n      0x40\n      swap1\n      swap3\n      add\n      swap2\n      tag_365\n      swap1\n      tag_121\n      jump\t// in\n    tag_365:\n      dup1\n      0x1f\n      add\n      0x20\n      dup1\n      swap2\n      div\n      mul\n      0x20\n      add\n      mload(0x40)\n      swap1\n      dup2\n      add\n      0x40\n      mstore\n      dup1\n      swap3\n      swap2\n      swap1\n      dup2\n      dup2\n      mstore\n      0x20\n      add\n      dup3\n      dup1\n      sload\n      tag_366\n      swap1\n      tag_121\n      jump\t// in\n    tag_366:\n      dup1\n      iszero\n      tag_367\n      jumpi\n      dup1\n      0x1f\n      lt\n      tag_368\n      jumpi\n      0x0100\n      dup1\n      dup4\n      sload\n      div\n      mul\n      dup4\n      mstore\n      swap2\n      0x20\n      add\n      swap2\n      jump(tag_367)\n    tag_368:\n      dup3\n      add\n      swap2\n      swap1\n      0x00\n      mstore\n      keccak256(0x00, 0x20)\n      swap1\n    tag_369:\n      dup2\n      sload\n      dup2\n      mstore\n      swap1\n      0x01\n      add\n      swap1\n      0x20\n      add\n      dup1\n      dup4\n      gt\n      tag_369\n      jumpi\n      dup3\n      swap1\n      sub\n      0x1f\n      and\n      dup3\n      add\n      swap2\n    tag_367:\n      pop\n      pop\n      pop\n      swap2\n      dup4\n      mstore\n      pop\n      pop\n      0x04\n      dup3\n      add\n      sload\n      sub(shl(0xa0, 0x01), 0x01)\n      and\n      0x20\n      dup3\n      add\n      mstore\n      0x05\n      dup3\n      add\n      sload\n      0x40\n      dup3\n      add\n      mstore\n      0x06\n      swap1\n      swap2\n      add\n      sload\n      0xff\n      and\n      iszero\n      iszero\n      0x60\n      swap1\n      swap2\n      add\n      mstore\n        /* \"TokenSGTX/contracts/LicensesTaxs.sol\":4132:4151  objlisense.isEntity */\n      0xc0\n      dup2\n      add\n      mload\n        /* \"TokenSGTX/contracts/LicensesTaxs.sol\":4012:4115  StructSignature memory objlisense = _signatureEnabled[... */\n      swap1\n      swap2\n      pop\n        /* \"TokenSGTX/contracts/LicensesTaxs.sol\":4132:4159  objlisense.isEntity == true */\n      iszero\n      iszero\n        /* \"TokenSGTX/contracts/LicensesTaxs.sol\":4012:4115  StructSignature memory objlisense = _signatureEnabled[... */\n      0x01\n        /* \"TokenSGTX/contracts/LicensesTaxs.sol\":4132:4159  objlisense.isEntity == true */\n      sub\n        /* \"TokenSGTX/contracts/LicensesTaxs.sol\":4128:4219  if (objlisense.isEntity == true) {... */\n      tag_370\n      jumpi\n        /* \"TokenSGTX/contracts/LicensesTaxs.sol\":4176:4207  revert(\"License Alredy Exists\") */\n      mload(0x40)\n      shl(0xe5, 0x461bcd)\n      dup2\n      mstore\n        /* \"#utility.yul\":14820:14822   */\n      0x20\n        /* \"TokenSGTX/contracts/LicensesTaxs.sol\":4176:4207  revert(\"License Alredy Exists\") */\n      0x04\n      dup3\n      add\n        /* \"#utility.yul\":14802:14823   */\n      mstore\n        /* \"#utility.yul\":14859:14861   */\n      0x15\n        /* \"#utility.yul\":14839:14857   */\n      0x24\n      dup3\n      add\n        /* \"#utility.yul\":14832:14862   */\n      mstore\n      shl(0x58, 0x4c6963656e736520416c7265647920457869737473)\n        /* \"#utility.yul\":14878:14896   */\n      0x44\n      dup3\n      add\n        /* \"#utility.yul\":14871:14922   */\n      mstore\n        /* \"#utility.yul\":14939:14957   */\n      0x64\n      add\n        /* \"TokenSGTX/contracts/LicensesTaxs.sol\":4176:4207  revert(\"License Alredy Exists\") */\n      tag_137\n        /* \"#utility.yul\":14618:14963   */\n      jump\n        /* \"TokenSGTX/contracts/LicensesTaxs.sol\":4128:4219  if (objlisense.isEntity == true) {... */\n    tag_370:\n        /* \"TokenSGTX/contracts/LicensesTaxs.sol\":4296:4316  _objectLicense.owner */\n      0x40\n      dup1\n      dup5\n      add\n      mload\n      sub(shl(0xa0, 0x01), 0x01)\n        /* \"TokenSGTX/contracts/LicensesTaxs.sol\":4271:4327  _userSings[... */\n      and\n        /* \"TokenSGTX/contracts/LicensesTaxs.sol\":4231:4268  bytes32[] memory ownersClientLicenses */\n      0x00\n        /* \"TokenSGTX/contracts/LicensesTaxs.sol\":4271:4327  _userSings[... */\n      swap1\n      dup2\n      mstore\n        /* \"TokenSGTX/contracts/LicensesTaxs.sol\":4271:4281  _userSings */\n      0x01\n        /* \"TokenSGTX/contracts/LicensesTaxs.sol\":4271:4327  _userSings[... */\n      0x20\n      swap1\n      dup2\n      mstore\n      dup3\n      dup3\n      keccak256\n        /* \"TokenSGTX/contracts/LicensesTaxs.sol\":4231:4327  bytes32[] memory ownersClientLicenses = _userSings[... */\n      dup1\n      sload\n      dup5\n      mload\n      dup2\n      dup5\n      mul\n      dup2\n      add\n      dup5\n      add\n      swap1\n      swap6\n      mstore\n      dup1\n      dup6\n      mstore\n        /* \"TokenSGTX/contracts/LicensesTaxs.sol\":4231:4268  bytes32[] memory ownersClientLicenses */\n      swap3\n      swap4\n        /* \"TokenSGTX/contracts/LicensesTaxs.sol\":4231:4327  bytes32[] memory ownersClientLicenses = _userSings[... */\n      swap3\n        /* \"TokenSGTX/contracts/LicensesTaxs.sol\":4271:4327  _userSings[... */\n      swap1\n      swap2\n        /* \"TokenSGTX/contracts/LicensesTaxs.sol\":4231:4327  bytes32[] memory ownersClientLicenses = _userSings[... */\n      dup4\n      add\n        /* \"TokenSGTX/contracts/LicensesTaxs.sol\":4271:4327  _userSings[... */\n      dup3\n        /* \"TokenSGTX/contracts/LicensesTaxs.sol\":4231:4327  bytes32[] memory ownersClientLicenses = _userSings[... */\n      dup3\n      dup1\n      iszero\n      tag_373\n      jumpi\n      0x20\n      mul\n      dup3\n      add\n      swap2\n      swap1\n      0x00\n      mstore\n      keccak256(0x00, 0x20)\n      swap1\n    tag_374:\n      dup2\n      sload\n      dup2\n      mstore\n      0x20\n      add\n      swap1\n      0x01\n      add\n      swap1\n      dup1\n      dup4\n      gt\n      tag_374\n      jumpi\n    tag_373:\n      pop\n      pop\n      pop\n      pop\n      pop\n      swap1\n      pop\n        /* \"TokenSGTX/contracts/LicensesTaxs.sol\":4343:4352  uint256 i */\n      0x00\n        /* \"TokenSGTX/contracts/LicensesTaxs.sol\":4338:4790  for (uint256 i = 0; i < ownersClientLicenses.length; i++) {... */\n    tag_375:\n        /* \"TokenSGTX/contracts/LicensesTaxs.sol\":4362:4382  ownersClientLicenses */\n      dup2\n        /* \"TokenSGTX/contracts/LicensesTaxs.sol\":4362:4389  ownersClientLicenses.length */\n      mload\n        /* \"TokenSGTX/contracts/LicensesTaxs.sol\":4358:4359  i */\n      dup2\n        /* \"TokenSGTX/contracts/LicensesTaxs.sol\":4358:4389  i < ownersClientLicenses.length */\n      lt\n        /* \"TokenSGTX/contracts/LicensesTaxs.sol\":4338:4790  for (uint256 i = 0; i < ownersClientLicenses.length; i++) {... */\n      iszero\n      tag_376\n      jumpi\n        /* \"TokenSGTX/contracts/LicensesTaxs.sol\":4424:4441  _signatureEnabled */\n      0x00\n        /* \"TokenSGTX/contracts/LicensesTaxs.sol\":4424:4466  _signatureEnabled[ownersClientLicenses[i]] */\n      dup1\n        /* \"TokenSGTX/contracts/LicensesTaxs.sol\":4442:4462  ownersClientLicenses */\n      dup4\n        /* \"TokenSGTX/contracts/LicensesTaxs.sol\":4463:4464  i */\n      dup4\n        /* \"TokenSGTX/contracts/LicensesTaxs.sol\":4442:4465  ownersClientLicenses[i] */\n      dup2\n      mload\n      dup2\n      lt\n      tag_379\n      jumpi\n      tag_379\n      tag_297\n      jump\t// in\n    tag_379:\n      0x20\n      mul\n      0x20\n      add\n      add\n      mload\n        /* \"TokenSGTX/contracts/LicensesTaxs.sol\":4424:4466  _signatureEnabled[ownersClientLicenses[i]] */\n      dup2\n      mstore\n      0x20\n      add\n      swap1\n      dup2\n      mstore\n      0x20\n      add\n      0x00\n      keccak256\n        /* \"TokenSGTX/contracts/LicensesTaxs.sol\":4411:4466  objlisense = _signatureEnabled[ownersClientLicenses[i]] */\n      mload(0x40)\n      dup1\n      0xe0\n      add\n      0x40\n      mstore\n      swap1\n      dup2\n      0x00\n      dup3\n      add\n      dup1\n      sload\n      tag_380\n      swap1\n      tag_121\n      jump\t// in\n    tag_380:\n      dup1\n      0x1f\n      add\n      0x20\n      dup1\n      swap2\n      div\n      mul\n      0x20\n      add\n      mload(0x40)\n      swap1\n      dup2\n      add\n      0x40\n      mstore\n      dup1\n      swap3\n      swap2\n      swap1\n      dup2\n      dup2\n      mstore\n      0x20\n      add\n      dup3\n      dup1\n      sload\n      tag_381\n      swap1\n      tag_121\n      jump\t// in\n    tag_381:\n      dup1\n      iszero\n      tag_382\n      jumpi\n      dup1\n      0x1f\n      lt\n      tag_383\n      jumpi\n      0x0100\n      dup1\n      dup4\n      sload\n      div\n      mul\n      dup4\n      mstore\n      swap2\n      0x20\n      add\n      swap2\n      jump(tag_382)\n    tag_383:\n      dup3\n      add\n      swap2\n      swap1\n      0x00\n      mstore\n      keccak256(0x00, 0x20)\n      swap1\n    tag_384:\n      dup2\n      sload\n      dup2\n      mstore\n      swap1\n      0x01\n      add\n      swap1\n      0x20\n      add\n      dup1\n      dup4\n      gt\n      tag_384\n      jumpi\n      dup3\n      swap1\n      sub\n      0x1f\n      and\n      dup3\n      add\n      swap2\n    tag_382:\n      pop\n      pop\n      pop\n      pop\n      pop\n      dup2\n      mstore\n      0x20\n      add\n      0x01\n      dup3\n      add\n      dup1\n      sload\n      tag_385\n      swap1\n      tag_121\n      jump\t// in\n    tag_385:\n      dup1\n      0x1f\n      add\n      0x20\n      dup1\n      swap2\n      div\n      mul\n      0x20\n      add\n      mload(0x40)\n      swap1\n      dup2\n      add\n      0x40\n      mstore\n      dup1\n      swap3\n      swap2\n      swap1\n      dup2\n      dup2\n      mstore\n      0x20\n      add\n      dup3\n      dup1\n      sload\n      tag_386\n      swap1\n      tag_121\n      jump\t// in\n    tag_386:\n      dup1\n      iszero\n      tag_387\n      jumpi\n      dup1\n      0x1f\n      lt\n      tag_388\n      jumpi\n      0x0100\n      dup1\n      dup4\n      sload\n      div\n      mul\n      dup4\n      mstore\n      swap2\n      0x20\n      add\n      swap2\n      jump(tag_387)\n    tag_388:\n      dup3\n      add\n      swap2\n      swap1\n      0x00\n      mstore\n      keccak256(0x00, 0x20)\n      swap1\n    tag_389:\n      dup2\n      sload\n      dup2\n      mstore\n      swap1\n      0x01\n      add\n      swap1\n      0x20\n      add\n      dup1\n      dup4\n      gt\n      tag_389\n      jumpi\n      dup3\n      swap1\n      sub\n      0x1f\n      and\n      dup3\n      add\n      swap2\n    tag_387:\n      pop\n      pop\n      pop\n      swap2\n      dup4\n      mstore\n      pop\n      pop\n      0x02\n      dup3\n      add\n      sload\n      sub(shl(0xa0, 0x01), 0x01)\n      and\n      0x20\n      dup3\n      add\n      mstore\n      0x03\n      dup3\n      add\n      dup1\n      sload\n      0x40\n      swap1\n      swap3\n      add\n      swap2\n      tag_390\n      swap1\n      tag_121\n      jump\t// in\n    tag_390:\n      dup1\n      0x1f\n      add\n      0x20\n      dup1\n      swap2\n      div\n      mul\n      0x20\n      add\n      mload(0x40)\n      swap1\n      dup2\n      add\n      0x40\n      mstore\n      dup1\n      swap3\n      swap2\n      swap1\n      dup2\n      dup2\n      mstore\n      0x20\n      add\n      dup3\n      dup1\n      sload\n      tag_391\n      swap1\n      tag_121\n      jump\t// in\n    tag_391:\n      dup1\n      iszero\n      tag_392\n      jumpi\n      dup1\n      0x1f\n      lt\n      tag_393\n      jumpi\n      0x0100\n      dup1\n      dup4\n      sload\n      div\n      mul\n      dup4\n      mstore\n      swap2\n      0x20\n      add\n      swap2\n      jump(tag_392)\n    tag_393:\n      dup3\n      add\n      swap2\n      swap1\n      0x00\n      mstore\n      keccak256(0x00, 0x20)\n      swap1\n    tag_394:\n      dup2\n      sload\n      dup2\n      mstore\n      swap1\n      0x01\n      add\n      swap1\n      0x20\n      add\n      dup1\n      dup4\n      gt\n      tag_394\n      jumpi\n      dup3\n      swap1\n      sub\n      0x1f\n      and\n      dup3\n      add\n      swap2\n    tag_392:\n      pop\n      pop\n      pop\n      swap2\n      dup4\n      mstore\n      pop\n      pop\n      0x04\n      dup3\n      add\n      sload\n      sub(shl(0xa0, 0x01), 0x01)\n      and\n      0x20\n      dup1\n      dup4\n      add\n      swap2\n      swap1\n      swap2\n      mstore\n      0x05\n      dup4\n      add\n      sload\n      0x40\n      dup4\n      add\n      mstore\n      0x06\n      swap1\n      swap3\n      add\n      sload\n      0xff\n      and\n      iszero\n      iszero\n      0x60\n      swap1\n      swap2\n      add\n      mstore\n        /* \"TokenSGTX/contracts/LicensesTaxs.sol\":4579:4604  _objectLicense.identifier */\n      dup7\n      dup2\n      add\n      mload\n        /* \"TokenSGTX/contracts/LicensesTaxs.sol\":4563:4606  keccak256(bytes(_objectLicense.identifier)) */\n      dup1\n      mload\n      swap1\n      dup3\n      add\n      keccak256\n        /* \"TokenSGTX/contracts/LicensesTaxs.sol\":4519:4540  objlisense.identifier */\n      dup3\n      dup3\n      add\n      mload\n        /* \"TokenSGTX/contracts/LicensesTaxs.sol\":4503:4542  keccak256(bytes(objlisense.identifier)) */\n      dup1\n      mload\n      swap3\n      add\n      swap2\n      swap1\n      swap2\n      keccak256\n        /* \"TokenSGTX/contracts/LicensesTaxs.sol\":4411:4466  objlisense = _signatureEnabled[ownersClientLicenses[i]] */\n      swap2\n      swap5\n      pop\n        /* \"TokenSGTX/contracts/LicensesTaxs.sol\":4503:4606  keccak256(bytes(objlisense.identifier)) ==... */\n      swap1\n      sub\n        /* \"TokenSGTX/contracts/LicensesTaxs.sol\":4481:4779  if (... */\n      tag_395\n      jumpi\n        /* \"TokenSGTX/contracts/LicensesTaxs.sol\":4641:4702  _deleteLicense(ownersClientLicenses[i], _objectLicense.owner) */\n      tag_396\n        /* \"TokenSGTX/contracts/LicensesTaxs.sol\":4656:4676  ownersClientLicenses */\n      dup3\n        /* \"TokenSGTX/contracts/LicensesTaxs.sol\":4677:4678  i */\n      dup3\n        /* \"TokenSGTX/contracts/LicensesTaxs.sol\":4656:4679  ownersClientLicenses[i] */\n      dup2\n      mload\n      dup2\n      lt\n      tag_398\n      jumpi\n      tag_398\n      tag_297\n      jump\t// in\n    tag_398:\n      0x20\n      mul\n      0x20\n      add\n      add\n      mload\n        /* \"TokenSGTX/contracts/LicensesTaxs.sol\":4681:4695  _objectLicense */\n      dup7\n        /* \"TokenSGTX/contracts/LicensesTaxs.sol\":4681:4701  _objectLicense.owner */\n      0x40\n      add\n      mload\n        /* \"TokenSGTX/contracts/LicensesTaxs.sol\":4641:4655  _deleteLicense */\n      tag_289\n        /* \"TokenSGTX/contracts/LicensesTaxs.sol\":4641:4702  _deleteLicense(ownersClientLicenses[i], _objectLicense.owner) */\n      jump\t// in\n    tag_396:\n        /* \"TokenSGTX/contracts/LicensesTaxs.sol\":4739:4759  _objectLicense.owner */\n      0x40\n      dup1\n      dup7\n      add\n      mload\n      sub(shl(0xa0, 0x01), 0x01)\n        /* \"TokenSGTX/contracts/LicensesTaxs.sol\":4728:4760  _userSings[_objectLicense.owner] */\n      and\n      0x00\n      swap1\n      dup2\n      mstore\n        /* \"TokenSGTX/contracts/LicensesTaxs.sol\":4728:4738  _userSings */\n      0x01\n        /* \"TokenSGTX/contracts/LicensesTaxs.sol\":4728:4760  _userSings[_objectLicense.owner] */\n      0x20\n      mstore\n      keccak256\n        /* \"TokenSGTX/contracts/LicensesTaxs.sol\":4728:4763  _userSings[_objectLicense.owner][i] */\n      dup1\n      sload\n        /* \"TokenSGTX/contracts/LicensesTaxs.sol\":4761:4762  i */\n      dup3\n      swap1\n        /* \"TokenSGTX/contracts/LicensesTaxs.sol\":4728:4763  _userSings[_objectLicense.owner][i] */\n      dup2\n      lt\n      tag_400\n      jumpi\n      tag_400\n      tag_297\n      jump\t// in\n    tag_400:\n      0x00\n      swap2\n      dup3\n      mstore\n      0x20\n      dup3\n      keccak256\n      add\n        /* \"TokenSGTX/contracts/LicensesTaxs.sol\":4721:4763  delete _userSings[_objectLicense.owner][i] */\n      sstore\n        /* \"TokenSGTX/contracts/LicensesTaxs.sol\":4481:4779  if (... */\n    tag_395:\n        /* \"TokenSGTX/contracts/LicensesTaxs.sol\":4391:4394  i++ */\n      dup1\n      tag_402\n      dup2\n      tag_303\n      jump\t// in\n    tag_402:\n      swap2\n      pop\n      pop\n        /* \"TokenSGTX/contracts/LicensesTaxs.sol\":4338:4790  for (uint256 i = 0; i < ownersClientLicenses.length; i++) {... */\n      jump(tag_375)\n    tag_376:\n      pop\n        /* \"TokenSGTX/contracts/LicensesTaxs.sol\":4802:4832  _createLicense(_objectLicense) */\n      tag_403\n        /* \"TokenSGTX/contracts/LicensesTaxs.sol\":4817:4831  _objectLicense */\n      dup5\n        /* \"TokenSGTX/contracts/LicensesTaxs.sol\":4802:4816  _createLicense */\n      tag_404\n        /* \"TokenSGTX/contracts/LicensesTaxs.sol\":4802:4832  _createLicense(_objectLicense) */\n      jump\t// in\n    tag_403:\n      pop\n        /* \"TokenSGTX/contracts/LicensesTaxs.sol\":4852:4856  true */\n      0x01\n      swap4\n        /* \"TokenSGTX/contracts/LicensesTaxs.sol\":3892:4864  function _checkLicense(... */\n      swap3\n      pop\n      pop\n      pop\n      jump\t// out\n        /* \"TokenSGTX/contracts/LicensesTaxs.sol\":5726:5898  function _deleteLicense(bytes32 sing, address _owner) private isAdmin() {... */\n    tag_289:\n        /* \"TokenSGTX/contracts/LicensesTaxs.sol\":9180:9190  msg.sender */\n      caller\n        /* \"TokenSGTX/contracts/LicensesTaxs.sol\":9172:9191  _admins[msg.sender] */\n      0x00\n      swap1\n      dup2\n      mstore\n        /* \"TokenSGTX/contracts/LicensesTaxs.sol\":9172:9179  _admins */\n      0x04\n        /* \"TokenSGTX/contracts/LicensesTaxs.sol\":9172:9191  _admins[msg.sender] */\n      0x20\n      mstore\n      0x40\n      swap1\n      keccak256\n      sload\n      0xff\n      and\n        /* \"TokenSGTX/contracts/LicensesTaxs.sol\":9164:9192  require(_admins[msg.sender]) */\n      tag_406\n      jumpi\n      0x00\n      dup1\n      revert\n    tag_406:\n        /* \"TokenSGTX/contracts/LicensesTaxs.sol\":5816:5833  _signatureEnabled */\n      0x00\n        /* \"TokenSGTX/contracts/LicensesTaxs.sol\":5816:5839  _signatureEnabled[sing] */\n      dup3\n      dup2\n      mstore\n      0x20\n      dup2\n      swap1\n      mstore\n      0x40\n      dup2\n      keccak256\n      swap1\n        /* \"TokenSGTX/contracts/LicensesTaxs.sol\":5809:5839  delete _signatureEnabled[sing] */\n      tag_408\n        /* \"TokenSGTX/contracts/LicensesTaxs.sol\":5816:5839  _signatureEnabled[sing] */\n      dup3\n        /* \"TokenSGTX/contracts/LicensesTaxs.sol\":5816:5833  _signatureEnabled */\n      dup3\n        /* \"TokenSGTX/contracts/LicensesTaxs.sol\":5809:5839  delete _signatureEnabled[sing] */\n      tag_409\n      jump\t// in\n    tag_408:\n      tag_410\n      0x01\n      dup4\n      add\n      0x00\n      tag_409\n      jump\t// in\n    tag_410:\n      0x02\n      dup3\n      add\n      dup1\n      sload\n      not(sub(shl(0xa0, 0x01), 0x01))\n      and\n      swap1\n      sstore\n      tag_411\n      0x03\n      dup4\n      add\n      0x00\n      tag_409\n      jump\t// in\n    tag_411:\n      pop\n      0x04\n      dup2\n      add\n      dup1\n      sload\n      not(sub(shl(0xa0, 0x01), 0x01))\n      and\n      swap1\n      sstore\n      0x00\n      0x05\n      dup3\n      add\n      sstore\n      0x06\n      add\n      dup1\n      sload\n      not(0xff)\n      and\n      swap1\n      sstore\n        /* \"TokenSGTX/contracts/LicensesTaxs.sol\":5855:5890  eventSignatureExpired(_owner, sing) */\n      mload(0x40)\n        /* \"#utility.yul\":6293:6318   */\n      dup3\n      dup2\n      mstore\n      sub(shl(0xa0, 0x01), 0x01)\n        /* \"TokenSGTX/contracts/LicensesTaxs.sol\":5855:5890  eventSignatureExpired(_owner, sing) */\n      dup3\n      and\n      swap1\n      0xfba9aeb04fd7e91a1cb29583e8d8bb97d3874361cc1f0b29f6e33f6d3047d8cf\n      swap1\n        /* \"#utility.yul\":6281:6283   */\n      0x20\n        /* \"#utility.yul\":6266:6284   */\n      add\n        /* \"TokenSGTX/contracts/LicensesTaxs.sol\":5855:5890  eventSignatureExpired(_owner, sing) */\n      mload(0x40)\n      dup1\n      swap2\n      sub\n      swap1\n      log2\n        /* \"TokenSGTX/contracts/LicensesTaxs.sol\":5726:5898  function _deleteLicense(bytes32 sing, address _owner) private isAdmin() {... */\n      pop\n      pop\n      jump\t// out\n        /* \"TokenSGTX/contracts/LicensesTaxs.sol\":5365:5718  function _createLicense(StructSignature memory _objectLicense) private isOwner {... */\n    tag_404:\n        /* \"TokenSGTX/contracts/LicensesTaxs.sol\":9073:9078  owner */\n      and(sub(shl(0xa0, 0x01), 0x01), sload(0x07))\n        /* \"TokenSGTX/contracts/LicensesTaxs.sol\":9059:9069  msg.sender */\n      caller\n        /* \"TokenSGTX/contracts/LicensesTaxs.sol\":9059:9078  msg.sender == owner */\n      eq\n        /* \"TokenSGTX/contracts/LicensesTaxs.sol\":9051:9106  require(msg.sender == owner, \"Only Owner can activate\") */\n      tag_414\n      jumpi\n      mload(0x40)\n      shl(0xe5, 0x461bcd)\n      dup2\n      mstore\n      0x04\n      add\n      tag_137\n      swap1\n      tag_142\n      jump\t// in\n    tag_414:\n        /* \"TokenSGTX/contracts/LicensesTaxs.sol\":5473:5497  _objectLicense.signature */\n      0xa0\n      dup2\n      add\n      mload\n        /* \"TokenSGTX/contracts/LicensesTaxs.sol\":5455:5472  _signatureEnabled */\n      0x00\n        /* \"TokenSGTX/contracts/LicensesTaxs.sol\":5455:5498  _signatureEnabled[_objectLicense.signature] */\n      swap1\n      dup2\n      mstore\n      0x20\n      dup2\n      swap1\n      mstore\n      0x40\n      swap1\n      keccak256\n        /* \"TokenSGTX/contracts/LicensesTaxs.sol\":5455:5515  _signatureEnabled[_objectLicense.signature] = _objectLicense */\n      dup2\n      mload\n        /* \"TokenSGTX/contracts/LicensesTaxs.sol\":5501:5515  _objectLicense */\n      dup3\n      swap2\n        /* \"TokenSGTX/contracts/LicensesTaxs.sol\":5455:5498  _signatureEnabled[_objectLicense.signature] */\n      swap1\n      dup2\n      swap1\n        /* \"TokenSGTX/contracts/LicensesTaxs.sol\":5455:5515  _signatureEnabled[_objectLicense.signature] = _objectLicense */\n      tag_417\n      swap1\n        /* \"TokenSGTX/contracts/LicensesTaxs.sol\":5455:5498  _signatureEnabled[_objectLicense.signature] */\n      dup3\n        /* \"TokenSGTX/contracts/LicensesTaxs.sol\":5455:5515  _signatureEnabled[_objectLicense.signature] = _objectLicense */\n      tag_306\n      jump\t// in\n    tag_417:\n      pop\n      0x20\n      dup3\n      add\n      mload\n      0x01\n      dup3\n      add\n      swap1\n      tag_418\n      swap1\n      dup3\n      tag_306\n      jump\t// in\n    tag_418:\n      pop\n      0x40\n      dup3\n      add\n      mload\n      0x02\n      dup3\n      add\n      dup1\n      sload\n      not(sub(shl(0xa0, 0x01), 0x01))\n      and\n      sub(shl(0xa0, 0x01), 0x01)\n      swap1\n      swap3\n      and\n      swap2\n      swap1\n      swap2\n      or\n      swap1\n      sstore\n      0x60\n      dup3\n      add\n      mload\n      0x03\n      dup3\n      add\n      swap1\n      tag_419\n      swap1\n      dup3\n      tag_306\n      jump\t// in\n    tag_419:\n      pop\n      0x80\n      dup3\n      add\n      mload\n      0x04\n      dup3\n      add\n      dup1\n      sload\n      not(sub(shl(0xa0, 0x01), 0x01))\n      and\n      sub(shl(0xa0, 0x01), 0x01)\n      swap3\n      dup4\n      and\n      or\n      swap1\n      sstore\n      0xa0\n      dup1\n      dup5\n      add\n      mload\n      0x05\n      dup5\n      add\n      sstore\n      0xc0\n      swap1\n      swap4\n      add\n      mload\n      0x06\n      swap1\n      swap3\n      add\n      dup1\n      sload\n      not(0xff)\n      and\n      swap3\n      iszero\n      iszero\n      swap3\n      swap1\n      swap3\n      or\n      swap1\n      swap2\n      sstore\n        /* \"TokenSGTX/contracts/LicensesTaxs.sol\":5537:5557  _objectLicense.owner */\n      0x40\n      dup4\n      dup2\n      add\n      dup1\n      mload\n        /* \"TokenSGTX/contracts/LicensesTaxs.sol\":5526:5558  _userSings[_objectLicense.owner] */\n      dup4\n      and\n      0x00\n      swap1\n      dup2\n      mstore\n      0x01\n      0x20\n      dup2\n      dup2\n      mstore\n      dup5\n      dup4\n      keccak256\n        /* \"TokenSGTX/contracts/LicensesTaxs.sol\":5564:5588  _objectLicense.signature */\n      swap7\n      dup9\n      add\n      dup1\n      mload\n        /* \"TokenSGTX/contracts/LicensesTaxs.sol\":5526:5589  _userSings[_objectLicense.owner].push(_objectLicense.signature) */\n      dup9\n      sload\n      swap4\n      dup5\n      add\n      dup10\n      sstore\n      swap8\n      dup5\n      mstore\n      swap3\n      dup2\n      swap1\n      keccak256\n      swap1\n      swap2\n      add\n      swap6\n      swap1\n      swap6\n      sstore\n        /* \"TokenSGTX/contracts/LicensesTaxs.sol\":5640:5660  _objectLicense.owner */\n      swap1\n      mload\n        /* \"TokenSGTX/contracts/LicensesTaxs.sol\":5675:5699  _objectLicense.signature */\n      swap1\n      mload\n        /* \"TokenSGTX/contracts/LicensesTaxs.sol\":5605:5710  eventSignatureCreate(... */\n      swap2\n      mload\n        /* \"#utility.yul\":6293:6318   */\n      swap2\n      dup3\n      mstore\n        /* \"TokenSGTX/contracts/LicensesTaxs.sol\":5605:5710  eventSignatureCreate(... */\n      swap1\n      swap2\n      and\n      swap2\n      0x88b059e42378123793b6b50c667570312662bfbe8c07098828e5639754fa1e5b\n      swap2\n        /* \"#utility.yul\":6266:6284   */\n      add\n        /* \"TokenSGTX/contracts/LicensesTaxs.sol\":5605:5710  eventSignatureCreate(... */\n      mload(0x40)\n      dup1\n      swap2\n      sub\n      swap1\n      log2\n        /* \"TokenSGTX/contracts/LicensesTaxs.sol\":5365:5718  function _createLicense(StructSignature memory _objectLicense) private isOwner {... */\n      pop\n      jump\t// out\n    tag_118:\n      0x40\n      dup1\n      mload\n      0xe0\n      dup2\n      add\n      dup3\n      mstore\n      0x60\n      dup1\n      dup3\n      mstore\n      0x20\n      dup3\n      add\n      dup2\n      swap1\n      mstore\n      0x00\n      swap3\n      dup3\n      add\n      dup4\n      swap1\n      mstore\n      dup1\n      dup3\n      add\n      mstore\n      0x80\n      dup2\n      add\n      dup3\n      swap1\n      mstore\n      0xa0\n      dup2\n      add\n      dup3\n      swap1\n      mstore\n      0xc0\n      dup2\n      add\n      swap2\n      swap1\n      swap2\n      mstore\n      swap1\n      jump\t// out\n    tag_409:\n      pop\n      dup1\n      sload\n      tag_422\n      swap1\n      tag_121\n      jump\t// in\n    tag_422:\n      0x00\n      dup3\n      sstore\n      dup1\n      0x1f\n      lt\n      tag_424\n      jumpi\n      pop\n      pop\n      jump\t// out\n    tag_424:\n      0x1f\n      add\n      0x20\n      swap1\n      div\n      swap1\n      0x00\n      mstore\n      keccak256(0x00, 0x20)\n      swap1\n      dup2\n      add\n      swap1\n      tag_425\n      swap2\n      swap1\n      tag_426\n      jump\t// in\n    tag_425:\n      pop\n      jump\t// out\n    tag_426:\n    tag_427:\n      dup1\n      dup3\n      gt\n      iszero\n      tag_428\n      jumpi\n      0x00\n      dup2\n      sstore\n      0x01\n      add\n      jump(tag_427)\n    tag_428:\n      pop\n      swap1\n      jump\t// out\n        /* \"#utility.yul\":14:194   */\n    tag_27:\n        /* \"#utility.yul\":73:79   */\n      0x00\n        /* \"#utility.yul\":126:128   */\n      0x20\n        /* \"#utility.yul\":114:123   */\n      dup3\n        /* \"#utility.yul\":105:112   */\n      dup5\n        /* \"#utility.yul\":101:124   */\n      sub\n        /* \"#utility.yul\":97:129   */\n      slt\n        /* \"#utility.yul\":94:146   */\n      iszero\n      tag_440\n      jumpi\n        /* \"#utility.yul\":142:143   */\n      0x00\n        /* \"#utility.yul\":139:140   */\n      dup1\n        /* \"#utility.yul\":132:144   */\n      revert\n        /* \"#utility.yul\":94:146   */\n    tag_440:\n      pop\n        /* \"#utility.yul\":165:188   */\n      calldataload\n      swap2\n        /* \"#utility.yul\":14:194   */\n      swap1\n      pop\n      jump\t// out\n        /* \"#utility.yul\":199:449   */\n    tag_429:\n        /* \"#utility.yul\":284:285   */\n      0x00\n        /* \"#utility.yul\":294:407   */\n    tag_442:\n        /* \"#utility.yul\":308:314   */\n      dup4\n        /* \"#utility.yul\":305:306   */\n      dup2\n        /* \"#utility.yul\":302:315   */\n      lt\n        /* \"#utility.yul\":294:407   */\n      iszero\n      tag_444\n      jumpi\n        /* \"#utility.yul\":384:395   */\n      dup2\n      dup2\n      add\n        /* \"#utility.yul\":378:396   */\n      mload\n        /* \"#utility.yul\":365:376   */\n      dup4\n      dup3\n      add\n        /* \"#utility.yul\":358:397   */\n      mstore\n        /* \"#utility.yul\":330:332   */\n      0x20\n        /* \"#utility.yul\":323:333   */\n      add\n        /* \"#utility.yul\":294:407   */\n      jump(tag_442)\n    tag_444:\n      pop\n      pop\n        /* \"#utility.yul\":441:442   */\n      0x00\n        /* \"#utility.yul\":423:439   */\n      swap2\n      add\n        /* \"#utility.yul\":416:443   */\n      mstore\n        /* \"#utility.yul\":199:449   */\n      jump\t// out\n        /* \"#utility.yul\":454:725   */\n    tag_430:\n        /* \"#utility.yul\":496:499   */\n      0x00\n        /* \"#utility.yul\":534:539   */\n      dup2\n        /* \"#utility.yul\":528:540   */\n      mload\n        /* \"#utility.yul\":561:567   */\n      dup1\n        /* \"#utility.yul\":556:559   */\n      dup5\n        /* \"#utility.yul\":549:568   */\n      mstore\n        /* \"#utility.yul\":577:653   */\n      tag_446\n        /* \"#utility.yul\":646:652   */\n      dup2\n        /* \"#utility.yul\":639:643   */\n      0x20\n        /* \"#utility.yul\":634:637   */\n      dup7\n        /* \"#utility.yul\":630:644   */\n      add\n        /* \"#utility.yul\":623:627   */\n      0x20\n        /* \"#utility.yul\":616:621   */\n      dup7\n        /* \"#utility.yul\":612:628   */\n      add\n        /* \"#utility.yul\":577:653   */\n      tag_429\n      jump\t// in\n    tag_446:\n        /* \"#utility.yul\":707:709   */\n      0x1f\n        /* \"#utility.yul\":686:701   */\n      add\n      not(0x1f)\n        /* \"#utility.yul\":682:711   */\n      and\n        /* \"#utility.yul\":673:712   */\n      swap3\n      swap1\n      swap3\n      add\n        /* \"#utility.yul\":714:718   */\n      0x20\n        /* \"#utility.yul\":669:719   */\n      add\n      swap3\n        /* \"#utility.yul\":454:725   */\n      swap2\n      pop\n      pop\n      jump\t// out\n        /* \"#utility.yul\":826:2002   */\n    tag_30:\n        /* \"#utility.yul\":1017:1019   */\n      0x20\n        /* \"#utility.yul\":1006:1015   */\n      dup2\n        /* \"#utility.yul\":999:1020   */\n      mstore\n        /* \"#utility.yul\":980:984   */\n      0x00\n        /* \"#utility.yul\":1055:1061   */\n      dup3\n        /* \"#utility.yul\":1049:1062   */\n      mload\n        /* \"#utility.yul\":1098:1102   */\n      0xe0\n        /* \"#utility.yul\":1093:1095   */\n      0x20\n        /* \"#utility.yul\":1082:1091   */\n      dup5\n        /* \"#utility.yul\":1078:1096   */\n      add\n        /* \"#utility.yul\":1071:1103   */\n      mstore\n        /* \"#utility.yul\":1126:1178   */\n      tag_449\n        /* \"#utility.yul\":1173:1176   */\n      0x0100\n        /* \"#utility.yul\":1162:1171   */\n      dup5\n        /* \"#utility.yul\":1158:1177   */\n      add\n        /* \"#utility.yul\":1144:1156   */\n      dup3\n        /* \"#utility.yul\":1126:1178   */\n      tag_430\n      jump\t// in\n    tag_449:\n        /* \"#utility.yul\":1112:1178   */\n      swap1\n      pop\n        /* \"#utility.yul\":1227:1229   */\n      0x20\n        /* \"#utility.yul\":1219:1225   */\n      dup5\n        /* \"#utility.yul\":1215:1230   */\n      add\n        /* \"#utility.yul\":1209:1231   */\n      mload\n        /* \"#utility.yul\":1254:1256   */\n      0x1f\n        /* \"#utility.yul\":1250:1257   */\n      not\n        /* \"#utility.yul\":1321:1323   */\n      dup1\n        /* \"#utility.yul\":1309:1318   */\n      dup6\n        /* \"#utility.yul\":1301:1307   */\n      dup5\n        /* \"#utility.yul\":1297:1319   */\n      sub\n        /* \"#utility.yul\":1293:1324   */\n      add\n        /* \"#utility.yul\":1288:1290   */\n      0x40\n        /* \"#utility.yul\":1277:1286   */\n      dup7\n        /* \"#utility.yul\":1273:1291   */\n      add\n        /* \"#utility.yul\":1266:1325   */\n      mstore\n        /* \"#utility.yul\":1348:1389   */\n      tag_450\n        /* \"#utility.yul\":1382:1388   */\n      dup4\n        /* \"#utility.yul\":1366:1380   */\n      dup4\n        /* \"#utility.yul\":1348:1389   */\n      tag_430\n      jump\t// in\n    tag_450:\n        /* \"#utility.yul\":1438:1440   */\n      0x40\n        /* \"#utility.yul\":1426:1441   */\n      dup8\n      add\n        /* \"#utility.yul\":1420:1442   */\n      mload\n      sub(shl(0xa0, 0x01), 0x01)\n        /* \"#utility.yul\":1516:1539   */\n      swap1\n      dup2\n      and\n        /* \"#utility.yul\":1511:1513   */\n      0x60\n        /* \"#utility.yul\":1496:1514   */\n      dup9\n      dup2\n      add\n        /* \"#utility.yul\":1489:1540   */\n      swap2\n      swap1\n      swap2\n      mstore\n        /* \"#utility.yul\":1577:1592   */\n      dup9\n      add\n        /* \"#utility.yul\":1571:1593   */\n      mload\n        /* \"#utility.yul\":1634:1656   */\n      dup8\n      dup4\n      sub\n        /* \"#utility.yul\":1630:1661   */\n      dup5\n      add\n        /* \"#utility.yul\":1624:1627   */\n      0x80\n        /* \"#utility.yul\":1609:1628   */\n      dup10\n      add\n        /* \"#utility.yul\":1602:1662   */\n      mstore\n        /* \"#utility.yul\":1334:1389   */\n      swap2\n      swap5\n      pop\n        /* \"#utility.yul\":1571:1593   */\n      swap1\n      swap3\n      pop\n        /* \"#utility.yul\":1685:1726   */\n      tag_451\n        /* \"#utility.yul\":1334:1389   */\n      dup5\n        /* \"#utility.yul\":1571:1593   */\n      dup5\n        /* \"#utility.yul\":1685:1726   */\n      tag_430\n      jump\t// in\n    tag_451:\n        /* \"#utility.yul\":1671:1726   */\n      swap4\n      pop\n        /* \"#utility.yul\":1792:1794   */\n      dup1\n        /* \"#utility.yul\":1785:1788   */\n      0x80\n        /* \"#utility.yul\":1777:1783   */\n      dup9\n        /* \"#utility.yul\":1773:1789   */\n      add\n        /* \"#utility.yul\":1767:1790   */\n      mload\n        /* \"#utility.yul\":1763:1795   */\n      and\n        /* \"#utility.yul\":1757:1760   */\n      0xa0\n        /* \"#utility.yul\":1746:1755   */\n      dup8\n        /* \"#utility.yul\":1742:1761   */\n      add\n        /* \"#utility.yul\":1735:1796   */\n      mstore\n      pop\n      pop\n      pop\n        /* \"#utility.yul\":1851:1854   */\n      0xa0\n        /* \"#utility.yul\":1843:1849   */\n      dup5\n        /* \"#utility.yul\":1839:1855   */\n      add\n        /* \"#utility.yul\":1833:1856   */\n      mload\n        /* \"#utility.yul\":1827:1830   */\n      0xc0\n        /* \"#utility.yul\":1816:1825   */\n      dup5\n        /* \"#utility.yul\":1812:1831   */\n      add\n        /* \"#utility.yul\":1805:1857   */\n      mstore\n        /* \"#utility.yul\":1906:1909   */\n      0xc0\n        /* \"#utility.yul\":1898:1904   */\n      dup5\n        /* \"#utility.yul\":1894:1910   */\n      add\n        /* \"#utility.yul\":1888:1911   */\n      mload\n        /* \"#utility.yul\":1920:1973   */\n      tag_452\n        /* \"#utility.yul\":1967:1971   */\n      0xe0\n        /* \"#utility.yul\":1956:1965   */\n      dup6\n        /* \"#utility.yul\":1952:1972   */\n      add\n        /* \"#utility.yul\":1936:1950   */\n      dup3\n        /* \"#utility.yul\":800:813   */\n      iszero\n        /* \"#utility.yul\":793:814   */\n      iszero\n        /* \"#utility.yul\":781:815   */\n      swap1\n      mstore\n        /* \"#utility.yul\":730:821   */\n      jump\n        /* \"#utility.yul\":1920:1973   */\n    tag_452:\n      pop\n        /* \"#utility.yul\":1990:1996   */\n      swap4\n        /* \"#utility.yul\":826:2002   */\n      swap3\n      pop\n      pop\n      pop\n      jump\t// out\n        /* \"#utility.yul\":2007:2180   */\n    tag_432:\n        /* \"#utility.yul\":2075:2095   */\n      dup1\n      calldataload\n      sub(shl(0xa0, 0x01), 0x01)\n        /* \"#utility.yul\":2124:2155   */\n      dup2\n      and\n        /* \"#utility.yul\":2114:2156   */\n      dup2\n      eq\n        /* \"#utility.yul\":2104:2174   */\n      tag_143\n      jumpi\n        /* \"#utility.yul\":2170:2171   */\n      0x00\n        /* \"#utility.yul\":2167:2168   */\n      dup1\n        /* \"#utility.yul\":2160:2172   */\n      revert\n        /* \"#utility.yul\":2185:2371   */\n    tag_33:\n        /* \"#utility.yul\":2244:2250   */\n      0x00\n        /* \"#utility.yul\":2297:2299   */\n      0x20\n        /* \"#utility.yul\":2285:2294   */\n      dup3\n        /* \"#utility.yul\":2276:2283   */\n      dup5\n        /* \"#utility.yul\":2272:2295   */\n      sub\n        /* \"#utility.yul\":2268:2300   */\n      slt\n        /* \"#utility.yul\":2265:2317   */\n      iszero\n      tag_456\n      jumpi\n        /* \"#utility.yul\":2313:2314   */\n      0x00\n        /* \"#utility.yul\":2310:2311   */\n      dup1\n        /* \"#utility.yul\":2303:2315   */\n      revert\n        /* \"#utility.yul\":2265:2317   */\n    tag_456:\n        /* \"#utility.yul\":2336:2365   */\n      tag_457\n        /* \"#utility.yul\":2355:2364   */\n      dup3\n        /* \"#utility.yul\":2336:2365   */\n      tag_432\n      jump\t// in\n    tag_457:\n        /* \"#utility.yul\":2326:2365   */\n      swap4\n        /* \"#utility.yul\":2185:2371   */\n      swap3\n      pop\n      pop\n      pop\n      jump\t// out\n        /* \"#utility.yul\":2776:3408   */\n    tag_47:\n        /* \"#utility.yul\":2947:2949   */\n      0x20\n        /* \"#utility.yul\":2999:3020   */\n      dup1\n      dup3\n      mstore\n        /* \"#utility.yul\":3069:3082   */\n      dup3\n      mload\n        /* \"#utility.yul\":2972:2990   */\n      dup3\n      dup3\n      add\n        /* \"#utility.yul\":3091:3113   */\n      dup2\n      swap1\n      mstore\n        /* \"#utility.yul\":2918:2922   */\n      0x00\n      swap2\n        /* \"#utility.yul\":2947:2949   */\n      swap1\n        /* \"#utility.yul\":3170:3185   */\n      dup5\n      dup3\n      add\n      swap1\n        /* \"#utility.yul\":3144:3146   */\n      0x40\n        /* \"#utility.yul\":3129:3147   */\n      dup6\n      add\n      swap1\n        /* \"#utility.yul\":2918:2922   */\n      dup5\n        /* \"#utility.yul\":3213:3382   */\n    tag_461:\n        /* \"#utility.yul\":3227:3233   */\n      dup2\n        /* \"#utility.yul\":3224:3225   */\n      dup2\n        /* \"#utility.yul\":3221:3234   */\n      lt\n        /* \"#utility.yul\":3213:3382   */\n      iszero\n      tag_463\n      jumpi\n        /* \"#utility.yul\":3288:3301   */\n      dup4\n      mload\n        /* \"#utility.yul\":3276:3302   */\n      dup4\n      mstore\n        /* \"#utility.yul\":3357:3372   */\n      swap3\n      dup5\n      add\n      swap3\n        /* \"#utility.yul\":3322:3334   */\n      swap2\n      dup5\n      add\n      swap2\n        /* \"#utility.yul\":3249:3250   */\n      0x01\n        /* \"#utility.yul\":3242:3251   */\n      add\n        /* \"#utility.yul\":3213:3382   */\n      jump(tag_461)\n    tag_463:\n      pop\n        /* \"#utility.yul\":3399:3402   */\n      swap1\n      swap7\n        /* \"#utility.yul\":2776:3408   */\n      swap6\n      pop\n      pop\n      pop\n      pop\n      pop\n      pop\n      jump\t// out\n        /* \"#utility.yul\":3413:3540   */\n    tag_433:\n        /* \"#utility.yul\":3474:3484   */\n      0x4e487b71\n        /* \"#utility.yul\":3469:3472   */\n      0xe0\n        /* \"#utility.yul\":3465:3485   */\n      shl\n        /* \"#utility.yul\":3462:3463   */\n      0x00\n        /* \"#utility.yul\":3455:3486   */\n      mstore\n        /* \"#utility.yul\":3505:3509   */\n      0x41\n        /* \"#utility.yul\":3502:3503   */\n      0x04\n        /* \"#utility.yul\":3495:3510   */\n      mstore\n        /* \"#utility.yul\":3529:3533   */\n      0x24\n        /* \"#utility.yul\":3526:3527   */\n      0x00\n        /* \"#utility.yul\":3519:3534   */\n      revert\n        /* \"#utility.yul\":3545:4264   */\n    tag_434:\n        /* \"#utility.yul\":3588:3593   */\n      0x00\n        /* \"#utility.yul\":3641:3644   */\n      dup3\n        /* \"#utility.yul\":3634:3638   */\n      0x1f\n        /* \"#utility.yul\":3626:3632   */\n      dup4\n        /* \"#utility.yul\":3622:3639   */\n      add\n        /* \"#utility.yul\":3618:3645   */\n      slt\n        /* \"#utility.yul\":3608:3663   */\n      tag_466\n      jumpi\n        /* \"#utility.yul\":3659:3660   */\n      0x00\n        /* \"#utility.yul\":3656:3657   */\n      dup1\n        /* \"#utility.yul\":3649:3661   */\n      revert\n        /* \"#utility.yul\":3608:3663   */\n    tag_466:\n        /* \"#utility.yul\":3695:3701   */\n      dup2\n        /* \"#utility.yul\":3682:3702   */\n      calldataload\n        /* \"#utility.yul\":3721:3739   */\n      0xffffffffffffffff\n        /* \"#utility.yul\":3758:3760   */\n      dup1\n        /* \"#utility.yul\":3754:3756   */\n      dup3\n        /* \"#utility.yul\":3751:3761   */\n      gt\n        /* \"#utility.yul\":3748:3784   */\n      iszero\n      tag_468\n      jumpi\n        /* \"#utility.yul\":3764:3782   */\n      tag_468\n      tag_433\n      jump\t// in\n    tag_468:\n        /* \"#utility.yul\":3839:3841   */\n      0x40\n        /* \"#utility.yul\":3833:3842   */\n      mload\n        /* \"#utility.yul\":3807:3809   */\n      0x1f\n        /* \"#utility.yul\":3893:3906   */\n      dup4\n      add\n      not(0x1f)\n        /* \"#utility.yul\":3889:3911   */\n      swap1\n      dup2\n      and\n        /* \"#utility.yul\":3913:3915   */\n      0x3f\n        /* \"#utility.yul\":3885:3916   */\n      add\n        /* \"#utility.yul\":3881:3921   */\n      and\n        /* \"#utility.yul\":3869:3922   */\n      dup2\n      add\n      swap1\n        /* \"#utility.yul\":3937:3955   */\n      dup3\n      dup3\n      gt\n        /* \"#utility.yul\":3957:3979   */\n      dup2\n      dup4\n      lt\n        /* \"#utility.yul\":3934:3980   */\n      or\n        /* \"#utility.yul\":3931:4003   */\n      iszero\n      tag_470\n      jumpi\n        /* \"#utility.yul\":3983:4001   */\n      tag_470\n      tag_433\n      jump\t// in\n    tag_470:\n        /* \"#utility.yul\":4023:4033   */\n      dup2\n        /* \"#utility.yul\":4019:4021   */\n      0x40\n        /* \"#utility.yul\":4012:4034   */\n      mstore\n        /* \"#utility.yul\":4058:4060   */\n      dup4\n        /* \"#utility.yul\":4050:4056   */\n      dup2\n        /* \"#utility.yul\":4043:4061   */\n      mstore\n        /* \"#utility.yul\":4104:4107   */\n      dup7\n        /* \"#utility.yul\":4097:4101   */\n      0x20\n        /* \"#utility.yul\":4092:4094   */\n      dup6\n        /* \"#utility.yul\":4084:4090   */\n      dup9\n        /* \"#utility.yul\":4080:4095   */\n      add\n        /* \"#utility.yul\":4076:4102   */\n      add\n        /* \"#utility.yul\":4073:4108   */\n      gt\n        /* \"#utility.yul\":4070:4125   */\n      iszero\n      tag_471\n      jumpi\n        /* \"#utility.yul\":4121:4122   */\n      0x00\n        /* \"#utility.yul\":4118:4119   */\n      dup1\n        /* \"#utility.yul\":4111:4123   */\n      revert\n        /* \"#utility.yul\":4070:4125   */\n    tag_471:\n        /* \"#utility.yul\":4185:4187   */\n      dup4\n        /* \"#utility.yul\":4178:4182   */\n      0x20\n        /* \"#utility.yul\":4170:4176   */\n      dup8\n        /* \"#utility.yul\":4166:4183   */\n      add\n        /* \"#utility.yul\":4159:4163   */\n      0x20\n        /* \"#utility.yul\":4151:4157   */\n      dup4\n        /* \"#utility.yul\":4147:4164   */\n      add\n        /* \"#utility.yul\":4134:4188   */\n      calldatacopy\n        /* \"#utility.yul\":4232:4233   */\n      0x00\n        /* \"#utility.yul\":4225:4229   */\n      0x20\n        /* \"#utility.yul\":4220:4222   */\n      dup6\n        /* \"#utility.yul\":4212:4218   */\n      dup4\n        /* \"#utility.yul\":4208:4223   */\n      add\n        /* \"#utility.yul\":4204:4230   */\n      add\n        /* \"#utility.yul\":4197:4234   */\n      mstore\n        /* \"#utility.yul\":4252:4258   */\n      dup1\n        /* \"#utility.yul\":4243:4258   */\n      swap5\n      pop\n      pop\n      pop\n      pop\n      pop\n        /* \"#utility.yul\":3545:4264   */\n      swap3\n      swap2\n      pop\n      pop\n      jump\t// out\n        /* \"#utility.yul\":4269:5414   */\n    tag_63:\n        /* \"#utility.yul\":4414:4420   */\n      0x00\n        /* \"#utility.yul\":4422:4428   */\n      dup1\n        /* \"#utility.yul\":4430:4436   */\n      0x00\n        /* \"#utility.yul\":4438:4444   */\n      dup1\n        /* \"#utility.yul\":4446:4452   */\n      0x00\n        /* \"#utility.yul\":4499:4502   */\n      0xa0\n        /* \"#utility.yul\":4487:4496   */\n      dup7\n        /* \"#utility.yul\":4478:4485   */\n      dup9\n        /* \"#utility.yul\":4474:4497   */\n      sub\n        /* \"#utility.yul\":4470:4503   */\n      slt\n        /* \"#utility.yul\":4467:4520   */\n      iszero\n      tag_473\n      jumpi\n        /* \"#utility.yul\":4516:4517   */\n      0x00\n        /* \"#utility.yul\":4513:4514   */\n      dup1\n        /* \"#utility.yul\":4506:4518   */\n      revert\n        /* \"#utility.yul\":4467:4520   */\n    tag_473:\n        /* \"#utility.yul\":4556:4565   */\n      dup6\n        /* \"#utility.yul\":4543:4566   */\n      calldataload\n        /* \"#utility.yul\":4585:4603   */\n      0xffffffffffffffff\n        /* \"#utility.yul\":4626:4628   */\n      dup1\n        /* \"#utility.yul\":4618:4624   */\n      dup3\n        /* \"#utility.yul\":4615:4629   */\n      gt\n        /* \"#utility.yul\":4612:4646   */\n      iszero\n      tag_474\n      jumpi\n        /* \"#utility.yul\":4642:4643   */\n      0x00\n        /* \"#utility.yul\":4639:4640   */\n      dup1\n        /* \"#utility.yul\":4632:4644   */\n      revert\n        /* \"#utility.yul\":4612:4646   */\n    tag_474:\n        /* \"#utility.yul\":4665:4715   */\n      tag_475\n        /* \"#utility.yul\":4707:4714   */\n      dup10\n        /* \"#utility.yul\":4698:4704   */\n      dup4\n        /* \"#utility.yul\":4687:4696   */\n      dup11\n        /* \"#utility.yul\":4683:4705   */\n      add\n        /* \"#utility.yul\":4665:4715   */\n      tag_434\n      jump\t// in\n    tag_475:\n        /* \"#utility.yul\":4655:4715   */\n      swap7\n      pop\n        /* \"#utility.yul\":4768:4770   */\n      0x20\n        /* \"#utility.yul\":4757:4766   */\n      dup9\n        /* \"#utility.yul\":4753:4771   */\n      add\n        /* \"#utility.yul\":4740:4772   */\n      calldataload\n        /* \"#utility.yul\":4724:4772   */\n      swap2\n      pop\n        /* \"#utility.yul\":4797:4799   */\n      dup1\n        /* \"#utility.yul\":4787:4795   */\n      dup3\n        /* \"#utility.yul\":4784:4800   */\n      gt\n        /* \"#utility.yul\":4781:4817   */\n      iszero\n      tag_476\n      jumpi\n        /* \"#utility.yul\":4813:4814   */\n      0x00\n        /* \"#utility.yul\":4810:4811   */\n      dup1\n        /* \"#utility.yul\":4803:4815   */\n      revert\n        /* \"#utility.yul\":4781:4817   */\n    tag_476:\n        /* \"#utility.yul\":4836:4888   */\n      tag_477\n        /* \"#utility.yul\":4880:4887   */\n      dup10\n        /* \"#utility.yul\":4869:4877   */\n      dup4\n        /* \"#utility.yul\":4858:4867   */\n      dup11\n        /* \"#utility.yul\":4854:4878   */\n      add\n        /* \"#utility.yul\":4836:4888   */\n      tag_434\n      jump\t// in\n    tag_477:\n        /* \"#utility.yul\":4826:4888   */\n      swap6\n      pop\n        /* \"#utility.yul\":4941:4943   */\n      0x40\n        /* \"#utility.yul\":4930:4939   */\n      dup9\n        /* \"#utility.yul\":4926:4944   */\n      add\n        /* \"#utility.yul\":4913:4945   */\n      calldataload\n        /* \"#utility.yul\":4897:4945   */\n      swap2\n      pop\n        /* \"#utility.yul\":4970:4972   */\n      dup1\n        /* \"#utility.yul\":4960:4968   */\n      dup3\n        /* \"#utility.yul\":4957:4973   */\n      gt\n        /* \"#utility.yul\":4954:4990   */\n      iszero\n      tag_478\n      jumpi\n        /* \"#utility.yul\":4986:4987   */\n      0x00\n        /* \"#utility.yul\":4983:4984   */\n      dup1\n        /* \"#utility.yul\":4976:4988   */\n      revert\n        /* \"#utility.yul\":4954:4990   */\n    tag_478:\n        /* \"#utility.yul\":5009:5061   */\n      tag_479\n        /* \"#utility.yul\":5053:5060   */\n      dup10\n        /* \"#utility.yul\":5042:5050   */\n      dup4\n        /* \"#utility.yul\":5031:5040   */\n      dup11\n        /* \"#utility.yul\":5027:5051   */\n      add\n        /* \"#utility.yul\":5009:5061   */\n      tag_434\n      jump\t// in\n    tag_479:\n        /* \"#utility.yul\":4999:5061   */\n      swap5\n      pop\n        /* \"#utility.yul\":5114:5116   */\n      0x60\n        /* \"#utility.yul\":5103:5112   */\n      dup9\n        /* \"#utility.yul\":5099:5117   */\n      add\n        /* \"#utility.yul\":5086:5118   */\n      calldataload\n        /* \"#utility.yul\":5070:5118   */\n      swap2\n      pop\n        /* \"#utility.yul\":5143:5145   */\n      dup1\n        /* \"#utility.yul\":5133:5141   */\n      dup3\n        /* \"#utility.yul\":5130:5146   */\n      gt\n        /* \"#utility.yul\":5127:5163   */\n      iszero\n      tag_480\n      jumpi\n        /* \"#utility.yul\":5159:5160   */\n      0x00\n        /* \"#utility.yul\":5156:5157   */\n      dup1\n        /* \"#utility.yul\":5149:5161   */\n      revert\n        /* \"#utility.yul\":5127:5163   */\n    tag_480:\n        /* \"#utility.yul\":5182:5234   */\n      tag_481\n        /* \"#utility.yul\":5226:5233   */\n      dup10\n        /* \"#utility.yul\":5215:5223   */\n      dup4\n        /* \"#utility.yul\":5204:5213   */\n      dup11\n        /* \"#utility.yul\":5200:5224   */\n      add\n        /* \"#utility.yul\":5182:5234   */\n      tag_434\n      jump\t// in\n    tag_481:\n        /* \"#utility.yul\":5172:5234   */\n      swap4\n      pop\n        /* \"#utility.yul\":5287:5290   */\n      0x80\n        /* \"#utility.yul\":5276:5285   */\n      dup9\n        /* \"#utility.yul\":5272:5291   */\n      add\n        /* \"#utility.yul\":5259:5292   */\n      calldataload\n        /* \"#utility.yul\":5243:5292   */\n      swap2\n      pop\n        /* \"#utility.yul\":5317:5319   */\n      dup1\n        /* \"#utility.yul\":5307:5315   */\n      dup3\n        /* \"#utility.yul\":5304:5320   */\n      gt\n        /* \"#utility.yul\":5301:5337   */\n      iszero\n      tag_482\n      jumpi\n        /* \"#utility.yul\":5333:5334   */\n      0x00\n        /* \"#utility.yul\":5330:5331   */\n      dup1\n        /* \"#utility.yul\":5323:5335   */\n      revert\n        /* \"#utility.yul\":5301:5337   */\n    tag_482:\n      pop\n        /* \"#utility.yul\":5356:5408   */\n      tag_483\n        /* \"#utility.yul\":5400:5407   */\n      dup9\n        /* \"#utility.yul\":5389:5397   */\n      dup3\n        /* \"#utility.yul\":5378:5387   */\n      dup10\n        /* \"#utility.yul\":5374:5398   */\n      add\n        /* \"#utility.yul\":5356:5408   */\n      tag_434\n      jump\t// in\n    tag_483:\n        /* \"#utility.yul\":5346:5408   */\n      swap2\n      pop\n      pop\n        /* \"#utility.yul\":4269:5414   */\n      swap3\n      swap6\n      pop\n      swap3\n      swap6\n      swap1\n      swap4\n      pop\n      jump\t// out\n        /* \"#utility.yul\":5419:5741   */\n    tag_73:\n        /* \"#utility.yul\":5488:5494   */\n      0x00\n        /* \"#utility.yul\":5541:5543   */\n      0x20\n        /* \"#utility.yul\":5529:5538   */\n      dup3\n        /* \"#utility.yul\":5520:5527   */\n      dup5\n        /* \"#utility.yul\":5516:5539   */\n      sub\n        /* \"#utility.yul\":5512:5544   */\n      slt\n        /* \"#utility.yul\":5509:5561   */\n      iszero\n      tag_485\n      jumpi\n        /* \"#utility.yul\":5557:5558   */\n      0x00\n        /* \"#utility.yul\":5554:5555   */\n      dup1\n        /* \"#utility.yul\":5547:5559   */\n      revert\n        /* \"#utility.yul\":5509:5561   */\n    tag_485:\n        /* \"#utility.yul\":5597:5606   */\n      dup2\n        /* \"#utility.yul\":5584:5607   */\n      calldataload\n        /* \"#utility.yul\":5630:5648   */\n      0xffffffffffffffff\n        /* \"#utility.yul\":5622:5628   */\n      dup2\n        /* \"#utility.yul\":5619:5649   */\n      gt\n        /* \"#utility.yul\":5616:5666   */\n      iszero\n      tag_486\n      jumpi\n        /* \"#utility.yul\":5662:5663   */\n      0x00\n        /* \"#utility.yul\":5659:5660   */\n      dup1\n        /* \"#utility.yul\":5652:5664   */\n      revert\n        /* \"#utility.yul\":5616:5666   */\n    tag_486:\n        /* \"#utility.yul\":5685:5735   */\n      tag_487\n        /* \"#utility.yul\":5727:5734   */\n      dup5\n        /* \"#utility.yul\":5718:5724   */\n      dup3\n        /* \"#utility.yul\":5707:5716   */\n      dup6\n        /* \"#utility.yul\":5703:5725   */\n      add\n        /* \"#utility.yul\":5685:5735   */\n      tag_434\n      jump\t// in\n    tag_487:\n        /* \"#utility.yul\":5675:5735   */\n      swap5\n        /* \"#utility.yul\":5419:5741   */\n      swap4\n      pop\n      pop\n      pop\n      pop\n      jump\t// out\n        /* \"#utility.yul\":5746:6142   */\n    tag_78:\n        /* \"#utility.yul\":5824:5830   */\n      0x00\n        /* \"#utility.yul\":5832:5838   */\n      dup1\n        /* \"#utility.yul\":5885:5887   */\n      0x40\n        /* \"#utility.yul\":5873:5882   */\n      dup4\n        /* \"#utility.yul\":5864:5871   */\n      dup6\n        /* \"#utility.yul\":5860:5883   */\n      sub\n        /* \"#utility.yul\":5856:5888   */\n      slt\n        /* \"#utility.yul\":5853:5905   */\n      iszero\n      tag_489\n      jumpi\n        /* \"#utility.yul\":5901:5902   */\n      0x00\n        /* \"#utility.yul\":5898:5899   */\n      dup1\n        /* \"#utility.yul\":5891:5903   */\n      revert\n        /* \"#utility.yul\":5853:5905   */\n    tag_489:\n        /* \"#utility.yul\":5941:5950   */\n      dup3\n        /* \"#utility.yul\":5928:5951   */\n      calldataload\n        /* \"#utility.yul\":5974:5992   */\n      0xffffffffffffffff\n        /* \"#utility.yul\":5966:5972   */\n      dup2\n        /* \"#utility.yul\":5963:5993   */\n      gt\n        /* \"#utility.yul\":5960:6010   */\n      iszero\n      tag_490\n      jumpi\n        /* \"#utility.yul\":6006:6007   */\n      0x00\n        /* \"#utility.yul\":6003:6004   */\n      dup1\n        /* \"#utility.yul\":5996:6008   */\n      revert\n        /* \"#utility.yul\":5960:6010   */\n    tag_490:\n        /* \"#utility.yul\":6029:6079   */\n      tag_491\n        /* \"#utility.yul\":6071:6078   */\n      dup6\n        /* \"#utility.yul\":6062:6068   */\n      dup3\n        /* \"#utility.yul\":6051:6060   */\n      dup7\n        /* \"#utility.yul\":6047:6069   */\n      add\n        /* \"#utility.yul\":6029:6079   */\n      tag_434\n      jump\t// in\n    tag_491:\n        /* \"#utility.yul\":6019:6079   */\n      swap3\n      pop\n      pop\n        /* \"#utility.yul\":6098:6136   */\n      tag_492\n        /* \"#utility.yul\":6132:6134   */\n      0x20\n        /* \"#utility.yul\":6121:6130   */\n      dup5\n        /* \"#utility.yul\":6117:6135   */\n      add\n        /* \"#utility.yul\":6098:6136   */\n      tag_432\n      jump\t// in\n    tag_492:\n        /* \"#utility.yul\":6088:6136   */\n      swap1\n      pop\n        /* \"#utility.yul\":5746:6142   */\n      swap3\n      pop\n      swap3\n      swap1\n      pop\n      jump\t// out\n        /* \"#utility.yul\":6329:6583   */\n    tag_114:\n        /* \"#utility.yul\":6397:6403   */\n      0x00\n        /* \"#utility.yul\":6405:6411   */\n      dup1\n        /* \"#utility.yul\":6458:6460   */\n      0x40\n        /* \"#utility.yul\":6446:6455   */\n      dup4\n        /* \"#utility.yul\":6437:6444   */\n      dup6\n        /* \"#utility.yul\":6433:6456   */\n      sub\n        /* \"#utility.yul\":6429:6461   */\n      slt\n        /* \"#utility.yul\":6426:6478   */\n      iszero\n      tag_495\n      jumpi\n        /* \"#utility.yul\":6474:6475   */\n      0x00\n        /* \"#utility.yul\":6471:6472   */\n      dup1\n        /* \"#utility.yul\":6464:6476   */\n      revert\n        /* \"#utility.yul\":6426:6478   */\n    tag_495:\n        /* \"#utility.yul\":6497:6526   */\n      tag_496\n        /* \"#utility.yul\":6516:6525   */\n      dup4\n        /* \"#utility.yul\":6497:6526   */\n      tag_432\n      jump\t// in\n    tag_496:\n        /* \"#utility.yul\":6487:6526   */\n      swap5\n        /* \"#utility.yul\":6573:6575   */\n      0x20\n        /* \"#utility.yul\":6558:6576   */\n      swap4\n      swap1\n      swap4\n      add\n        /* \"#utility.yul\":6545:6577   */\n      calldataload\n      swap4\n      pop\n      pop\n      pop\n        /* \"#utility.yul\":6329:6583   */\n      jump\t// out\n        /* \"#utility.yul\":6588:6968   */\n    tag_121:\n        /* \"#utility.yul\":6667:6668   */\n      0x01\n        /* \"#utility.yul\":6663:6675   */\n      dup2\n      dup2\n      shr\n      swap1\n        /* \"#utility.yul\":6710:6722   */\n      dup3\n      and\n      dup1\n        /* \"#utility.yul\":6731:6792   */\n      tag_498\n      jumpi\n        /* \"#utility.yul\":6785:6789   */\n      0x7f\n        /* \"#utility.yul\":6777:6783   */\n      dup3\n        /* \"#utility.yul\":6773:6790   */\n      and\n        /* \"#utility.yul\":6763:6790   */\n      swap2\n      pop\n        /* \"#utility.yul\":6731:6792   */\n    tag_498:\n        /* \"#utility.yul\":6838:6840   */\n      0x20\n        /* \"#utility.yul\":6830:6836   */\n      dup3\n        /* \"#utility.yul\":6827:6841   */\n      lt\n        /* \"#utility.yul\":6807:6825   */\n      dup2\n        /* \"#utility.yul\":6804:6842   */\n      sub\n        /* \"#utility.yul\":6801:6962   */\n      tag_499\n      jumpi\n        /* \"#utility.yul\":6884:6894   */\n      0x4e487b71\n        /* \"#utility.yul\":6879:6882   */\n      0xe0\n        /* \"#utility.yul\":6875:6895   */\n      shl\n        /* \"#utility.yul\":6872:6873   */\n      0x00\n        /* \"#utility.yul\":6865:6896   */\n      mstore\n        /* \"#utility.yul\":6919:6923   */\n      0x22\n        /* \"#utility.yul\":6916:6917   */\n      0x04\n        /* \"#utility.yul\":6909:6924   */\n      mstore\n        /* \"#utility.yul\":6947:6951   */\n      0x24\n        /* \"#utility.yul\":6944:6945   */\n      0x00\n        /* \"#utility.yul\":6937:6952   */\n      revert\n        /* \"#utility.yul\":6801:6962   */\n    tag_499:\n      pop\n        /* \"#utility.yul\":6588:6968   */\n      swap2\n      swap1\n      pop\n      jump\t// out\n        /* \"#utility.yul\":7384:7731   */\n    tag_142:\n        /* \"#utility.yul\":7586:7588   */\n      0x20\n        /* \"#utility.yul\":7568:7589   */\n      dup1\n      dup3\n      mstore\n        /* \"#utility.yul\":7625:7627   */\n      0x17\n        /* \"#utility.yul\":7605:7623   */\n      swap1\n      dup3\n      add\n        /* \"#utility.yul\":7598:7628   */\n      mstore\n        /* \"#utility.yul\":7664:7689   */\n      0x4f6e6c79204f776e65722063616e206163746976617465000000000000000000\n        /* \"#utility.yul\":7659:7661   */\n      0x40\n        /* \"#utility.yul\":7644:7662   */\n      dup3\n      add\n        /* \"#utility.yul\":7637:7690   */\n      mstore\n        /* \"#utility.yul\":7722:7724   */\n      0x60\n        /* \"#utility.yul\":7707:7725   */\n      add\n      swap1\n        /* \"#utility.yul\":7384:7731   */\n      jump\t// out\n        /* \"#utility.yul\":8853:9142   */\n    tag_176:\n        /* \"#utility.yul\":8984:8987   */\n      0x00\n        /* \"#utility.yul\":9022:9028   */\n      dup3\n        /* \"#utility.yul\":9016:9029   */\n      mload\n        /* \"#utility.yul\":9038:9104   */\n      tag_506\n        /* \"#utility.yul\":9097:9103   */\n      dup2\n        /* \"#utility.yul\":9092:9095   */\n      dup5\n        /* \"#utility.yul\":9085:9089   */\n      0x20\n        /* \"#utility.yul\":9077:9083   */\n      dup8\n        /* \"#utility.yul\":9073:9090   */\n      add\n        /* \"#utility.yul\":9038:9104   */\n      tag_429\n      jump\t// in\n    tag_506:\n        /* \"#utility.yul\":9120:9136   */\n      swap2\n      swap1\n      swap2\n      add\n      swap3\n        /* \"#utility.yul\":8853:9142   */\n      swap2\n      pop\n      pop\n      jump\t// out\n        /* \"#utility.yul\":11293:11420   */\n    tag_297:\n        /* \"#utility.yul\":11354:11364   */\n      0x4e487b71\n        /* \"#utility.yul\":11349:11352   */\n      0xe0\n        /* \"#utility.yul\":11345:11365   */\n      shl\n        /* \"#utility.yul\":11342:11343   */\n      0x00\n        /* \"#utility.yul\":11335:11366   */\n      mstore\n        /* \"#utility.yul\":11385:11389   */\n      0x32\n        /* \"#utility.yul\":11382:11383   */\n      0x04\n        /* \"#utility.yul\":11375:11390   */\n      mstore\n        /* \"#utility.yul\":11409:11413   */\n      0x24\n        /* \"#utility.yul\":11406:11407   */\n      0x00\n        /* \"#utility.yul\":11399:11414   */\n      revert\n        /* \"#utility.yul\":11425:11657   */\n    tag_303:\n        /* \"#utility.yul\":11464:11467   */\n      0x00\n        /* \"#utility.yul\":11485:11502   */\n      0x01\n      dup3\n      add\n        /* \"#utility.yul\":11482:11622   */\n      tag_515\n      jumpi\n        /* \"#utility.yul\":11544:11554   */\n      0x4e487b71\n        /* \"#utility.yul\":11539:11542   */\n      0xe0\n        /* \"#utility.yul\":11535:11555   */\n      shl\n        /* \"#utility.yul\":11532:11533   */\n      0x00\n        /* \"#utility.yul\":11525:11556   */\n      mstore\n        /* \"#utility.yul\":11579:11583   */\n      0x11\n        /* \"#utility.yul\":11576:11577   */\n      0x04\n        /* \"#utility.yul\":11569:11584   */\n      mstore\n        /* \"#utility.yul\":11607:11611   */\n      0x24\n        /* \"#utility.yul\":11604:11605   */\n      0x00\n        /* \"#utility.yul\":11597:11612   */\n      revert\n        /* \"#utility.yul\":11482:11622   */\n    tag_515:\n      pop\n        /* \"#utility.yul\":11649:11650   */\n      0x01\n        /* \"#utility.yul\":11638:11651   */\n      add\n      swap1\n        /* \"#utility.yul\":11425:11657   */\n      jump\t// out\n        /* \"#utility.yul\":11788:12333   */\n    tag_436:\n        /* \"#utility.yul\":11890:11892   */\n      0x1f\n        /* \"#utility.yul\":11885:11888   */\n      dup3\n        /* \"#utility.yul\":11882:11893   */\n      gt\n        /* \"#utility.yul\":11879:12327   */\n      iszero\n      tag_518\n      jumpi\n        /* \"#utility.yul\":11926:11927   */\n      0x00\n        /* \"#utility.yul\":11951:11956   */\n      dup2\n        /* \"#utility.yul\":11947:11949   */\n      dup2\n        /* \"#utility.yul\":11940:11957   */\n      mstore\n        /* \"#utility.yul\":11996:12000   */\n      0x20\n        /* \"#utility.yul\":11992:11994   */\n      dup2\n        /* \"#utility.yul\":11982:12001   */\n      keccak256\n        /* \"#utility.yul\":12066:12068   */\n      0x1f\n        /* \"#utility.yul\":12054:12064   */\n      dup6\n        /* \"#utility.yul\":12050:12069   */\n      add\n        /* \"#utility.yul\":12047:12048   */\n      0x05\n        /* \"#utility.yul\":12043:12070   */\n      shr\n        /* \"#utility.yul\":12037:12041   */\n      dup2\n        /* \"#utility.yul\":12033:12071   */\n      add\n        /* \"#utility.yul\":12102:12106   */\n      0x20\n        /* \"#utility.yul\":12090:12100   */\n      dup7\n        /* \"#utility.yul\":12087:12107   */\n      lt\n        /* \"#utility.yul\":12084:12131   */\n      iszero\n      tag_519\n      jumpi\n      pop\n        /* \"#utility.yul\":12125:12129   */\n      dup1\n        /* \"#utility.yul\":12084:12131   */\n    tag_519:\n        /* \"#utility.yul\":12180:12182   */\n      0x1f\n        /* \"#utility.yul\":12175:12178   */\n      dup6\n        /* \"#utility.yul\":12171:12183   */\n      add\n        /* \"#utility.yul\":12168:12169   */\n      0x05\n        /* \"#utility.yul\":12164:12184   */\n      shr\n        /* \"#utility.yul\":12158:12162   */\n      dup3\n        /* \"#utility.yul\":12154:12185   */\n      add\n        /* \"#utility.yul\":12144:12185   */\n      swap2\n      pop\n        /* \"#utility.yul\":12235:12317   */\n    tag_520:\n        /* \"#utility.yul\":12253:12255   */\n      dup2\n        /* \"#utility.yul\":12246:12251   */\n      dup2\n        /* \"#utility.yul\":12243:12256   */\n      lt\n        /* \"#utility.yul\":12235:12317   */\n      iszero\n      tag_522\n      jumpi\n        /* \"#utility.yul\":12298:12315   */\n      dup3\n      dup2\n      sstore\n        /* \"#utility.yul\":12279:12280   */\n      0x01\n        /* \"#utility.yul\":12268:12281   */\n      add\n        /* \"#utility.yul\":12235:12317   */\n      jump(tag_520)\n    tag_522:\n        /* \"#utility.yul\":12239:12242   */\n      pop\n      pop\n      pop\n        /* \"#utility.yul\":11879:12327   */\n    tag_518:\n        /* \"#utility.yul\":11788:12333   */\n      pop\n      pop\n      pop\n      jump\t// out\n        /* \"#utility.yul\":12509:13861   */\n    tag_306:\n        /* \"#utility.yul\":12635:12638   */\n      dup2\n        /* \"#utility.yul\":12629:12639   */\n      mload\n        /* \"#utility.yul\":12662:12680   */\n      0xffffffffffffffff\n        /* \"#utility.yul\":12654:12660   */\n      dup2\n        /* \"#utility.yul\":12651:12681   */\n      gt\n        /* \"#utility.yul\":12648:12704   */\n      iszero\n      tag_526\n      jumpi\n        /* \"#utility.yul\":12684:12702   */\n      tag_526\n      tag_433\n      jump\t// in\n    tag_526:\n        /* \"#utility.yul\":12713:12810   */\n      tag_527\n        /* \"#utility.yul\":12803:12809   */\n      dup2\n        /* \"#utility.yul\":12763:12801   */\n      tag_528\n        /* \"#utility.yul\":12795:12799   */\n      dup5\n        /* \"#utility.yul\":12789:12800   */\n      sload\n        /* \"#utility.yul\":12763:12801   */\n      tag_121\n      jump\t// in\n    tag_528:\n        /* \"#utility.yul\":12757:12761   */\n      dup5\n        /* \"#utility.yul\":12713:12810   */\n      tag_436\n      jump\t// in\n    tag_527:\n        /* \"#utility.yul\":12865:12869   */\n      0x20\n      dup1\n        /* \"#utility.yul\":12929:12931   */\n      0x1f\n        /* \"#utility.yul\":12918:12932   */\n      dup4\n      gt\n        /* \"#utility.yul\":12946:12947   */\n      0x01\n        /* \"#utility.yul\":12941:13604   */\n      dup2\n      eq\n      tag_530\n      jumpi\n        /* \"#utility.yul\":13648:13649   */\n      0x00\n        /* \"#utility.yul\":13665:13671   */\n      dup5\n        /* \"#utility.yul\":13662:13751   */\n      iszero\n      tag_531\n      jumpi\n      pop\n        /* \"#utility.yul\":13717:13736   */\n      dup6\n      dup4\n      add\n        /* \"#utility.yul\":13711:13737   */\n      mload\n        /* \"#utility.yul\":13662:13751   */\n    tag_531:\n      not(0x00)\n        /* \"#utility.yul\":12466:12467   */\n      0x03\n        /* \"#utility.yul\":12462:12473   */\n      dup7\n      swap1\n      shl\n        /* \"#utility.yul\":12458:12482   */\n      shr\n        /* \"#utility.yul\":12454:12483   */\n      not\n        /* \"#utility.yul\":12444:12484   */\n      and\n        /* \"#utility.yul\":12490:12491   */\n      0x01\n        /* \"#utility.yul\":12486:12497   */\n      dup6\n      swap1\n      shl\n        /* \"#utility.yul\":12441:12498   */\n      or\n        /* \"#utility.yul\":13764:13845   */\n      dup6\n      sstore\n        /* \"#utility.yul\":12911:13855   */\n      jump(tag_522)\n        /* \"#utility.yul\":12941:13604   */\n    tag_530:\n        /* \"#utility.yul\":11735:11736   */\n      0x00\n        /* \"#utility.yul\":11728:11742   */\n      dup6\n      dup2\n      mstore\n        /* \"#utility.yul\":11772:11776   */\n      0x20\n        /* \"#utility.yul\":11759:11777   */\n      dup2\n      keccak256\n      not(0x1f)\n        /* \"#utility.yul\":12977:12997   */\n      dup7\n      and\n      swap2\n        /* \"#utility.yul\":13095:13331   */\n    tag_534:\n        /* \"#utility.yul\":13109:13116   */\n      dup3\n        /* \"#utility.yul\":13106:13107   */\n      dup2\n        /* \"#utility.yul\":13103:13117   */\n      lt\n        /* \"#utility.yul\":13095:13331   */\n      iszero\n      tag_536\n      jumpi\n        /* \"#utility.yul\":13198:13217   */\n      dup9\n      dup7\n      add\n        /* \"#utility.yul\":13192:13218   */\n      mload\n        /* \"#utility.yul\":13177:13219   */\n      dup3\n      sstore\n        /* \"#utility.yul\":13290:13317   */\n      swap5\n      dup5\n      add\n      swap5\n        /* \"#utility.yul\":13258:13259   */\n      0x01\n        /* \"#utility.yul\":13246:13260   */\n      swap1\n      swap2\n      add\n      swap1\n        /* \"#utility.yul\":13125:13144   */\n      dup5\n      add\n        /* \"#utility.yul\":13095:13331   */\n      jump(tag_534)\n    tag_536:\n        /* \"#utility.yul\":13099:13102   */\n      pop\n        /* \"#utility.yul\":13359:13365   */\n      dup6\n        /* \"#utility.yul\":13350:13357   */\n      dup3\n        /* \"#utility.yul\":13347:13366   */\n      lt\n        /* \"#utility.yul\":13344:13545   */\n      iszero\n      tag_537\n      jumpi\n        /* \"#utility.yul\":13420:13439   */\n      dup8\n      dup6\n      add\n        /* \"#utility.yul\":13414:13440   */\n      mload\n      not(0x00)\n        /* \"#utility.yul\":13503:13504   */\n      0x03\n        /* \"#utility.yul\":13499:13513   */\n      dup9\n      swap1\n      shl\n        /* \"#utility.yul\":13515:13518   */\n      0xf8\n        /* \"#utility.yul\":13495:13519   */\n      and\n        /* \"#utility.yul\":13491:13528   */\n      shr\n        /* \"#utility.yul\":13487:13529   */\n      not\n        /* \"#utility.yul\":13472:13530   */\n      and\n        /* \"#utility.yul\":13457:13531   */\n      dup2\n      sstore\n        /* \"#utility.yul\":13344:13545   */\n    tag_537:\n      pop\n      pop\n      pop\n      pop\n      pop\n        /* \"#utility.yul\":13591:13592   */\n      0x01\n        /* \"#utility.yul\":13575:13589   */\n      swap1\n      dup2\n      shl\n        /* \"#utility.yul\":13571:13593   */\n      add\n        /* \"#utility.yul\":13558:13594   */\n      swap1\n      sstore\n      pop\n        /* \"#utility.yul\":12509:13861   */\n      jump\t// out\n        /* \"#utility.yul\":13866:14613   */\n    tag_350:\n        /* \"#utility.yul\":14167:14170   */\n      0xa0\n        /* \"#utility.yul\":14156:14165   */\n      dup2\n        /* \"#utility.yul\":14149:14171   */\n      mstore\n        /* \"#utility.yul\":14130:14134   */\n      0x00\n        /* \"#utility.yul\":14194:14240   */\n      tag_539\n        /* \"#utility.yul\":14235:14238   */\n      0xa0\n        /* \"#utility.yul\":14224:14233   */\n      dup4\n        /* \"#utility.yul\":14220:14239   */\n      add\n        /* \"#utility.yul\":14212:14218   */\n      dup9\n        /* \"#utility.yul\":14194:14240   */\n      tag_430\n      jump\t// in\n    tag_539:\n        /* \"#utility.yul\":14288:14297   */\n      dup3\n        /* \"#utility.yul\":14280:14286   */\n      dup2\n        /* \"#utility.yul\":14276:14298   */\n      sub\n        /* \"#utility.yul\":14271:14273   */\n      0x20\n        /* \"#utility.yul\":14260:14269   */\n      dup5\n        /* \"#utility.yul\":14256:14274   */\n      add\n        /* \"#utility.yul\":14249:14299   */\n      mstore\n        /* \"#utility.yul\":14322:14355   */\n      tag_540\n        /* \"#utility.yul\":14348:14354   */\n      dup2\n        /* \"#utility.yul\":14340:14346   */\n      dup9\n        /* \"#utility.yul\":14322:14355   */\n      tag_430\n      jump\t// in\n    tag_540:\n      sub(shl(0xa0, 0x01), 0x01)\n        /* \"#utility.yul\":14429:14444   */\n      dup8\n      dup2\n      and\n        /* \"#utility.yul\":14424:14426   */\n      0x40\n        /* \"#utility.yul\":14409:14427   */\n      dup7\n      add\n        /* \"#utility.yul\":14402:14445   */\n      mstore\n        /* \"#utility.yul\":14481:14503   */\n      dup5\n      dup3\n      sub\n        /* \"#utility.yul\":14476:14478   */\n      0x60\n        /* \"#utility.yul\":14461:14479   */\n      dup7\n      add\n        /* \"#utility.yul\":14454:14504   */\n      mstore\n        /* \"#utility.yul\":14308:14355   */\n      swap1\n      swap2\n      pop\n        /* \"#utility.yul\":14521:14554   */\n      tag_541\n        /* \"#utility.yul\":14308:14355   */\n      dup3\n        /* \"#utility.yul\":14539:14545   */\n      dup8\n        /* \"#utility.yul\":14521:14554   */\n      tag_430\n      jump\t// in\n    tag_541:\n        /* \"#utility.yul\":14513:14554   */\n      swap3\n      pop\n        /* \"#utility.yul\":14603:14605   */\n      dup1\n        /* \"#utility.yul\":14595:14601   */\n      dup6\n        /* \"#utility.yul\":14591:14606   */\n      and\n        /* \"#utility.yul\":14585:14588   */\n      0x80\n        /* \"#utility.yul\":14574:14583   */\n      dup6\n        /* \"#utility.yul\":14570:14589   */\n      add\n        /* \"#utility.yul\":14563:14607   */\n      mstore\n      pop\n      pop\n        /* \"#utility.yul\":13866:14613   */\n      swap7\n      swap6\n      pop\n      pop\n      pop\n      pop\n      pop\n      pop\n      jump\t// out\n\n    auxdata: 0xa26469706673582212205a5c1358d9d398564cf6c5e59a47b6193a86c124a257d6a35e9b82118d5a4d8764736f6c63430008150033\n}\n",
				"bytecode": {
					"linkReferences": {},
					"object": "60806040526007805460ff60a01b1916600160a01b179055348015610022575f80fd5b50335f818152600460205260409020805460ff19166001179055600780546001600160a01b031916909117905561293f8061005c5f395ff3fe608060405260043610610110575f3560e01c806384e26b2c1161009d578063c8c2f4fe11610062578063c8c2f4fe146102c9578063ce7262a1146102dc578063d84ab181146102fd578063dc2aa90914610310578063e516224e14610324575f80fd5b806384e26b2c1461023b5780639dfb78311461025a578063beb9716d1461026d578063bff2d5361461028b578063c4b14e0b146102aa575f80fd5b80633fde3309116100e35780633fde3309146101c35780636d73e669146101d75780636ff968c3146101ea5780637ea5cc1a1461020957806383fc58b414610228575f80fd5b80630c0bd76b1461011457806310e5bff814610149578063147bf6c414610174578063369f6cd714610197575b5f80fd5b34801561011f575f80fd5b5061013361012e366004612348565b610337565b60405161014091906123ac565b60405180910390f35b61015c610157366004612468565b6105c6565b6040516001600160a01b039091168152602001610140565b610187610182366004612468565b61066d565b6040519015158152602001610140565b3480156101a2575f80fd5b506101b66101b1366004612468565b610755565b6040516101409190612488565b3480156101ce575f80fd5b506101b66107d9565b6101876101e5366004612468565b610837565b3480156101f5575f80fd5b5060085461015c906001600160a01b031681565b348015610214575f80fd5b50610187610223366004612568565b610940565b610187610236366004612468565b6109ae565b348015610246575f80fd5b5061015c610255366004612631565b610a55565b61018761026836600461266b565b610a9f565b348015610278575f80fd5b50600754600160a01b900460ff16610187565b348015610296575f80fd5b506101876102a5366004612348565b610b14565b3480156102b5575f80fd5b506101336102c4366004612348565b610d43565b6101876102d736600461266b565b610f76565b6102ef6102ea366004612568565b611091565b604051908152602001610140565b61018761030b366004612348565b61131c565b34801561031b575f80fd5b5061018761171c565b6101336103323660046126b6565b611773565b61033f6122bc565b5f82815260208190526040808220815160e08101909252805482908290610365906126de565b80601f0160208091040260200160405190810160405280929190818152602001828054610391906126de565b80156103dc5780601f106103b3576101008083540402835291602001916103dc565b820191905f5260205f20905b8154815290600101906020018083116103bf57829003601f168201915b505050505081526020016001820180546103f5906126de565b80601f0160208091040260200160405190810160405280929190818152602001828054610421906126de565b801561046c5780601f106104435761010080835404028352916020019161046c565b820191905f5260205f20905b81548152906001019060200180831161044f57829003601f168201915b505050918352505060028201546001600160a01b0316602082015260038201805460409092019161049c906126de565b80601f01602080910402602001604051908101604052809291908181526020018280546104c8906126de565b80156105135780601f106104ea57610100808354040283529160200191610513565b820191905f5260205f20905b8154815290600101906020018083116104f657829003601f168201915b505050918352505060048201546001600160a01b039081166020830152600583015460408084019190915260069093015460ff161515606090920191909152908201519192501633146105c05760405162461bcd60e51b815260206004820152602a60248201527f596f75206d6f6e737420626520746865206f776e657220746f2073686f772064604482015269185d18481cda59db995960b21b60648201526084015b60405180910390fd5b92915050565b6007545f906001600160a01b031633146105f25760405162461bcd60e51b81526004016105b790612716565b6001600160a01b0382166106485760405162461bcd60e51b815260206004820152601760248201527f4d75737420626520612076616c6964206164647265737300000000000000000060448201526064016105b7565b50600880546001600160a01b0319166001600160a01b0383169081179091555b919050565b335f9081526004602052604081205460ff16610687575f80fd5b6001600160a01b0382165f9081526005602052604090205460ff1615156001036106f35760405162461bcd60e51b815260206004820181905260248201527f6164647265737320666f722061646d696e20616c726564792070726f706f736560448201526064016105b7565b6001600160a01b0382165f81815260056020908152604091829020805460ff1916600190811790915591519182527ffcd0029428c001bd11d12d6e8302dda11ac68335a836d75d43004bf4ca7292ef91015b60405180910390a2506001919050565b335f9081526004602052604090205460609060ff16610772575f80fd5b6001600160a01b0382165f90815260016020908152604091829020805483518184028101840190945280845290918301828280156107cd57602002820191905f5260205f20905b8154815260200190600101908083116107b9575b50505050509050919050565b335f9081526001602090815260409182902080548351818402810184019094528084526060939283018282801561082d57602002820191905f5260205f20905b815481526020019060010190808311610819575b5050505050905090565b6007545f906001600160a01b031633146108635760405162461bcd60e51b81526004016105b790612716565b6001600160a01b0382165f9081526005602052604090205460ff1615156001146108db5760405162461bcd60e51b815260206004820152602360248201527f61646472657373206d757374206265207265676973747265642062792061646d604482015262696e7360e81b60648201526084016105b7565b6001600160a01b0382165f8181526004602090815260408083208054600160ff19918216811790925560058452938290208054909416909355519182527f9aab773cc5c7f377774352463d765fa3acae0bc1c83c44357f4405639ebab44a9101610745565b335f9081526004602052604081205460ff1661095a575f80fd5b5f610998878461096989610a55565b8760068a60405161097a919061274d565b908152604051908190036020019020546001600160a01b0316611a74565b90506109a381610b14565b979650505050505050565b6007545f906001600160a01b031633146109da5760405162461bcd60e51b81526004016105b790612716565b6001600160a01b038216610a305760405162461bcd60e51b815260206004820152601d60248201527f4f776e65722063616e27742062652061205a65726f206164647265737300000060448201526064016105b7565b50600780546001600160a01b0383166001600160a01b03199091161790556001919050565b335f9081526004602052604081205460ff16610a6f575f80fd5b600382604051610a7f919061274d565b908152604051908190036020019020546001600160a01b03169050919050565b6007545f906001600160a01b03163314610acb5760405162461bcd60e51b81526004016105b790612716565b81600384604051610adc919061274d565b90815260405190819003602001902080546001600160a01b03929092166001600160a01b031990921691909117905550600192915050565b5f805f808481526020019081526020015f206040518060e00160405290815f82018054610b40906126de565b80601f0160208091040260200160405190810160405280929190818152602001828054610b6c906126de565b8015610bb75780601f10610b8e57610100808354040283529160200191610bb7565b820191905f5260205f20905b815481529060010190602001808311610b9a57829003601f168201915b50505050508152602001600182018054610bd0906126de565b80601f0160208091040260200160405190810160405280929190818152602001828054610bfc906126de565b8015610c475780601f10610c1e57610100808354040283529160200191610c47565b820191905f5260205f20905b815481529060010190602001808311610c2a57829003601f168201915b505050918352505060028201546001600160a01b03166020820152600382018054604090920191610c77906126de565b80601f0160208091040260200160405190810160405280929190818152602001828054610ca3906126de565b8015610cee5780601f10610cc557610100808354040283529160200191610cee565b820191905f5260205f20905b815481529060010190602001808311610cd157829003601f168201915b505050918352505060048201546001600160a01b031660208201526005820154604082015260069091015460ff16151560609091015260a08101519091505f03610d3a57505f92915050565b50600192915050565b610d4b6122bc565b335f9081526004602052604090205460ff16610d65575f80fd5b5f8281526020819052604090819020815160e08101909252805482908290610d8c906126de565b80601f0160208091040260200160405190810160405280929190818152602001828054610db8906126de565b8015610e035780601f10610dda57610100808354040283529160200191610e03565b820191905f5260205f20905b815481529060010190602001808311610de657829003601f168201915b50505050508152602001600182018054610e1c906126de565b80601f0160208091040260200160405190810160405280929190818152602001828054610e48906126de565b8015610e935780601f10610e6a57610100808354040283529160200191610e93565b820191905f5260205f20905b815481529060010190602001808311610e7657829003601f168201915b505050918352505060028201546001600160a01b03166020820152600382018054604090920191610ec3906126de565b80601f0160208091040260200160405190810160405280929190818152602001828054610eef906126de565b8015610f3a5780601f10610f1157610100808354040283529160200191610f3a565b820191905f5260205f20905b815481529060010190602001808311610f1d57829003601f168201915b505050918352505060048201546001600160a01b031660208201526005820154604082015260069091015460ff16151560609091015292915050565b6007545f906001600160a01b03163314610fa25760405162461bcd60e51b81526004016105b790612716565b5f6001600160a01b0316600684604051610fbc919061274d565b908152604051908190036020019020546001600160a01b03161461101a5760405162461bcd60e51b81526020600482015260156024820152741059191c995cdcc8185b1c9958591e481859191959605a1b60448201526064016105b7565b8160068460405161102b919061274d565b9081526040516020918190038201812080546001600160a01b0319166001600160a01b0394851617905560018152918416917fa590b4fc649a56bfc2765312a8b4becaa85a972fd5403de3f9a0a4270c40e71e910160405180910390a250600192915050565b6007545f906001600160a01b031633146110bd5760405162461bcd60e51b81526004016105b790612716565b600754600160a01b900460ff16151560011461111b5760405162461bcd60e51b815260206004820152601f60248201527f4d696e74696e67206861732073746f70656420627920746865206f776e65720060448201526064016105b7565b5f61112586610a55565b6001600160a01b03160361117b5760405162461bcd60e51b815260206004820152601e60248201527f526966204e6f742052656769737472656420686173205461787061796572000060448201526064016105b7565b5f6001600160a01b0316600685604051611195919061274d565b908152604051908190036020019020546001600160a01b0316036111fb5760405162461bcd60e51b815260206004820181905260248201527f417070726f766572204e6f7420526567697374726564206861732056616c696460448201526064016105b7565b61120485610a55565b6001600160a01b031660068560405161121d919061274d565b908152604051908190036020019020546001600160a01b0316036112835760405162461bcd60e51b815260206004820152601d60248201527f417070726f7665722063616e6e6f742070726f76652068696d73656c6600000060448201526064016105b7565b5f611292878461096989610a55565b90505f6040518060e001604052808981526020018581526020016112b589610a55565b6001600160a01b031681526020018681526020016006886040516112d9919061274d565b9081526040805160209281900383019020546001600160a01b031683529082018590526001910152905061130c81611ada565b5060a00151979650505050505050565b335f9081526004602052604081205460ff16611336575f80fd5b5f82815260208190526040808220815160e0810190925280548290829061135c906126de565b80601f0160208091040260200160405190810160405280929190818152602001828054611388906126de565b80156113d35780601f106113aa576101008083540402835291602001916113d3565b820191905f5260205f20905b8154815290600101906020018083116113b657829003601f168201915b505050505081526020016001820180546113ec906126de565b80601f0160208091040260200160405190810160405280929190818152602001828054611418906126de565b80156114635780601f1061143a57610100808354040283529160200191611463565b820191905f5260205f20905b81548152906001019060200180831161144657829003601f168201915b505050918352505060028201546001600160a01b03166020820152600382018054604090920191611493906126de565b80601f01602080910402602001604051908101604052809291908181526020018280546114bf906126de565b801561150a5780601f106114e15761010080835404028352916020019161150a565b820191905f5260205f20905b8154815290600101906020018083116114ed57829003601f168201915b505050918352505060048201546001600160a01b03166020820152600582015460408083019190915260069092015460ff1615156060909101528101519091506115559084906120a5565b6040808201516001600160a01b03165f90815260016020908152828220805484518184028101840190955280855292939290918301828280156115b557602002820191905f5260205f20905b8154815260200190600101908083116115a1575b505050505090505f5b815181101561162f57848282815181106115da576115da612768565b60200260200101510361161d576040808401516001600160a01b03165f90815260016020522080548290811061161257611612612768565b5f9182526020822001555b806116278161277c565b9150506115be565b505f60c083018190526040808401516001600160a01b0316825260026020908152908220805460018101825590835291208351849260070290910190819061167790826127ee565b506020820151600182019061168c90826127ee565b5060408201516002820180546001600160a01b0319166001600160a01b03909216919091179055606082015160038201906116c790826127ee565b5060808201516004820180546001600160a01b0319166001600160a01b0390921691909117905560a0820151600582015560c0909101516006909101805460ff19169115159190911790555060019392505050565b6007545f906001600160a01b031633146117485760405162461bcd60e51b81526004016105b790612716565b506007805460ff600160a01b808304821615810260ff60a01b19909316929092179283905591041690565b61177b6122bc565b6007546001600160a01b031633146117a55760405162461bcd60e51b81526004016105b790612716565b6001600160a01b0383165f90815260026020908152604080832080548251818502810185019093528083529192909190849084015b82821015611a02578382905f5260205f2090600702016040518060e00160405290815f8201805461180a906126de565b80601f0160208091040260200160405190810160405280929190818152602001828054611836906126de565b80156118815780601f1061185857610100808354040283529160200191611881565b820191905f5260205f20905b81548152906001019060200180831161186457829003601f168201915b5050505050815260200160018201805461189a906126de565b80601f01602080910402602001604051908101604052809291908181526020018280546118c6906126de565b80156119115780601f106118e857610100808354040283529160200191611911565b820191905f5260205f20905b8154815290600101906020018083116118f457829003601f168201915b505050918352505060028201546001600160a01b03166020820152600382018054604090920191611941906126de565b80601f016020809104026020016040519081016040528092919081815260200182805461196d906126de565b80156119b85780601f1061198f576101008083540402835291602001916119b8565b820191905f5260205f20905b81548152906001019060200180831161199b57829003601f168201915b505050918352505060048201546001600160a01b03166020808301919091526005830154604083015260069092015460ff16151560609091015290825260019290920191016117da565b5050505090505f5b8151811015611a6c5783828281518110611a2657611a26612768565b602002602001015160a0015103611a5a57818181518110611a4957611a49612768565b6020026020010151925050506105c0565b80611a648161277c565b915050611a0a565b505092915050565b6007545f906001600160a01b03163314611aa05760405162461bcd60e51b81526004016105b790612716565b8585858585604051602001611ab99594939291906128aa565b60405160208183030381529060405280519060200120905095945050505050565b6007545f906001600160a01b03163314611b065760405162461bcd60e51b81526004016105b790612716565b60a08201515f90815260208190526040808220815160e08101909252805482908290611b31906126de565b80601f0160208091040260200160405190810160405280929190818152602001828054611b5d906126de565b8015611ba85780601f10611b7f57610100808354040283529160200191611ba8565b820191905f5260205f20905b815481529060010190602001808311611b8b57829003601f168201915b50505050508152602001600182018054611bc1906126de565b80601f0160208091040260200160405190810160405280929190818152602001828054611bed906126de565b8015611c385780601f10611c0f57610100808354040283529160200191611c38565b820191905f5260205f20905b815481529060010190602001808311611c1b57829003601f168201915b505050918352505060028201546001600160a01b03166020820152600382018054604090920191611c68906126de565b80601f0160208091040260200160405190810160405280929190818152602001828054611c94906126de565b8015611cdf5780601f10611cb657610100808354040283529160200191611cdf565b820191905f5260205f20905b815481529060010190602001808311611cc257829003601f168201915b505050918352505060048201546001600160a01b031660208201526005820154604082015260069091015460ff16151560609091015260c08101519091501515600103611d665760405162461bcd60e51b81526020600482015260156024820152744c6963656e736520416c726564792045786973747360581b60448201526064016105b7565b6040808401516001600160a01b03165f9081526001602090815282822080548451818402810184019095528085529293929091830182828015611dc657602002820191905f5260205f20905b815481526020019060010190808311611db2575b505050505090505f5b8151811015612091575f80838381518110611dec57611dec612768565b602002602001015181526020019081526020015f206040518060e00160405290815f82018054611e1b906126de565b80601f0160208091040260200160405190810160405280929190818152602001828054611e47906126de565b8015611e925780601f10611e6957610100808354040283529160200191611e92565b820191905f5260205f20905b815481529060010190602001808311611e7557829003601f168201915b50505050508152602001600182018054611eab906126de565b80601f0160208091040260200160405190810160405280929190818152602001828054611ed7906126de565b8015611f225780601f10611ef957610100808354040283529160200191611f22565b820191905f5260205f20905b815481529060010190602001808311611f0557829003601f168201915b505050918352505060028201546001600160a01b03166020820152600382018054604090920191611f52906126de565b80601f0160208091040260200160405190810160405280929190818152602001828054611f7e906126de565b8015611fc95780601f10611fa057610100808354040283529160200191611fc9565b820191905f5260205f20905b815481529060010190602001808311611fac57829003601f168201915b505050918352505060048201546001600160a01b03166020808301919091526005830154604083015260069092015460ff16151560609091015286810151805190820120828201518051920191909120919450900361207f5761204982828151811061203757612037612768565b602002602001015186604001516120a5565b6040808601516001600160a01b03165f90815260016020522080548290811061207457612074612768565b5f9182526020822001555b806120898161277c565b915050611dcf565b5061209b84612169565b5060019392505050565b335f9081526004602052604090205460ff166120bf575f80fd5b5f828152602081905260408120906120d782826122f6565b6120e4600183015f6122f6565b6002820180546001600160a01b0319169055612103600383015f6122f6565b506004810180546001600160a01b03191690555f6005820155600601805460ff191690556040518281526001600160a01b038216907ffba9aeb04fd7e91a1cb29583e8d8bb97d3874361cc1f0b29f6e33f6d3047d8cf9060200160405180910390a25050565b6007546001600160a01b031633146121935760405162461bcd60e51b81526004016105b790612716565b60a08101515f908152602081905260409020815182919081906121b690826127ee565b50602082015160018201906121cb90826127ee565b5060408201516002820180546001600160a01b0319166001600160a01b039092169190911790556060820151600382019061220690826127ee565b5060808201516004820180546001600160a01b0319166001600160a01b0392831617905560a080840151600584015560c0909301516006909201805460ff1916921515929092179091556040838101805183165f908152600160208181528483209688018051885493840189559784529281902090910195909555905190519151918252909116917f88b059e42378123793b6b50c667570312662bfbe8c07098828e5639754fa1e5b910160405180910390a250565b6040805160e0810182526060808252602082018190525f928201839052808201526080810182905260a0810182905260c081019190915290565b508054612302906126de565b5f825580601f10612311575050565b601f0160209004905f5260205f209081019061232d9190612330565b50565b5b80821115612344575f8155600101612331565b5090565b5f60208284031215612358575f80fd5b5035919050565b5f5b83811015612379578181015183820152602001612361565b50505f910152565b5f815180845261239881602086016020860161235f565b601f01601f19169290920160200192915050565b602081525f825160e060208401526123c8610100840182612381565b90506020840151601f19808584030160408601526123e68383612381565b60408701516001600160a01b039081166060888101919091528801518783038401608089015291945090925061241c8484612381565b93508060808801511660a087015250505060a084015160c084015260c084015161244a60e085018215159052565b509392505050565b80356001600160a01b0381168114610668575f80fd5b5f60208284031215612478575f80fd5b61248182612452565b9392505050565b602080825282518282018190525f9190848201906040850190845b818110156124bf578351835292840192918401916001016124a3565b50909695505050505050565b634e487b7160e01b5f52604160045260245ffd5b5f82601f8301126124ee575f80fd5b813567ffffffffffffffff80821115612509576125096124cb565b604051601f8301601f19908116603f01168101908282118183101715612531576125316124cb565b81604052838152866020858801011115612549575f80fd5b836020870160208301375f602085830101528094505050505092915050565b5f805f805f60a0868803121561257c575f80fd5b853567ffffffffffffffff80821115612593575f80fd5b61259f89838a016124df565b965060208801359150808211156125b4575f80fd5b6125c089838a016124df565b955060408801359150808211156125d5575f80fd5b6125e189838a016124df565b945060608801359150808211156125f6575f80fd5b61260289838a016124df565b93506080880135915080821115612617575f80fd5b50612624888289016124df565b9150509295509295909350565b5f60208284031215612641575f80fd5b813567ffffffffffffffff811115612657575f80fd5b612663848285016124df565b949350505050565b5f806040838503121561267c575f80fd5b823567ffffffffffffffff811115612692575f80fd5b61269e858286016124df565b9250506126ad60208401612452565b90509250929050565b5f80604083850312156126c7575f80fd5b6126d083612452565b946020939093013593505050565b600181811c908216806126f257607f821691505b60208210810361271057634e487b7160e01b5f52602260045260245ffd5b50919050565b60208082526017908201527f4f6e6c79204f776e65722063616e206163746976617465000000000000000000604082015260600190565b5f825161275e81846020870161235f565b9190910192915050565b634e487b7160e01b5f52603260045260245ffd5b5f6001820161279957634e487b7160e01b5f52601160045260245ffd5b5060010190565b601f8211156127e9575f81815260208120601f850160051c810160208610156127c65750805b601f850160051c820191505b818110156127e5578281556001016127d2565b5050505b505050565b815167ffffffffffffffff811115612808576128086124cb565b61281c8161281684546126de565b846127a0565b602080601f83116001811461284f575f84156128385750858301515b5f19600386901b1c1916600185901b1785556127e5565b5f85815260208120601f198616915b8281101561287d5788860151825594840194600190910190840161285e565b508582101561289a57878501515f19600388901b60f8161c191681555b5050505050600190811b01905550565b60a081525f6128bc60a0830188612381565b82810360208401526128ce8188612381565b6001600160a01b03878116604086015284820360608601529091506128f38287612381565b925080851660808501525050969550505050505056fea26469706673582212205a5c1358d9d398564cf6c5e59a47b6193a86c124a257d6a35e9b82118d5a4d8764736f6c63430008150033",
					"opcodes": "PUSH1 0x80 PUSH1 0x40 MSTORE PUSH1 0x7 DUP1 SLOAD PUSH1 0xFF PUSH1 0xA0 SHL NOT AND PUSH1 0x1 PUSH1 0xA0 SHL OR SWAP1 SSTORE CALLVALUE DUP1 ISZERO PUSH2 0x22 JUMPI PUSH0 DUP1 REVERT JUMPDEST POP CALLER PUSH0 DUP2 DUP2 MSTORE PUSH1 0x4 PUSH1 0x20 MSTORE PUSH1 0x40 SWAP1 KECCAK256 DUP1 SLOAD PUSH1 0xFF NOT AND PUSH1 0x1 OR SWAP1 SSTORE PUSH1 0x7 DUP1 SLOAD PUSH1 0x1 PUSH1 0x1 PUSH1 0xA0 SHL SUB NOT AND SWAP1 SWAP2 OR SWAP1 SSTORE PUSH2 0x293F DUP1 PUSH2 0x5C PUSH0 CODECOPY PUSH0 RETURN INVALID PUSH1 0x80 PUSH1 0x40 MSTORE PUSH1 0x4 CALLDATASIZE LT PUSH2 0x110 JUMPI PUSH0 CALLDATALOAD PUSH1 0xE0 SHR DUP1 PUSH4 0x84E26B2C GT PUSH2 0x9D JUMPI DUP1 PUSH4 0xC8C2F4FE GT PUSH2 0x62 JUMPI DUP1 PUSH4 0xC8C2F4FE EQ PUSH2 0x2C9 JUMPI DUP1 PUSH4 0xCE7262A1 EQ PUSH2 0x2DC JUMPI DUP1 PUSH4 0xD84AB181 EQ PUSH2 0x2FD JUMPI DUP1 PUSH4 0xDC2AA909 EQ PUSH2 0x310 JUMPI DUP1 PUSH4 0xE516224E EQ PUSH2 0x324 JUMPI PUSH0 DUP1 REVERT JUMPDEST DUP1 PUSH4 0x84E26B2C EQ PUSH2 0x23B JUMPI DUP1 PUSH4 0x9DFB7831 EQ PUSH2 0x25A JUMPI DUP1 PUSH4 0xBEB9716D EQ PUSH2 0x26D JUMPI DUP1 PUSH4 0xBFF2D536 EQ PUSH2 0x28B JUMPI DUP1 PUSH4 0xC4B14E0B EQ PUSH2 0x2AA JUMPI PUSH0 DUP1 REVERT JUMPDEST DUP1 PUSH4 0x3FDE3309 GT PUSH2 0xE3 JUMPI DUP1 PUSH4 0x3FDE3309 EQ PUSH2 0x1C3 JUMPI DUP1 PUSH4 0x6D73E669 EQ PUSH2 0x1D7 JUMPI DUP1 PUSH4 0x6FF968C3 EQ PUSH2 0x1EA JUMPI DUP1 PUSH4 0x7EA5CC1A EQ PUSH2 0x209 JUMPI DUP1 PUSH4 0x83FC58B4 EQ PUSH2 0x228 JUMPI PUSH0 DUP1 REVERT JUMPDEST DUP1 PUSH4 0xC0BD76B EQ PUSH2 0x114 JUMPI DUP1 PUSH4 0x10E5BFF8 EQ PUSH2 0x149 JUMPI DUP1 PUSH4 0x147BF6C4 EQ PUSH2 0x174 JUMPI DUP1 PUSH4 0x369F6CD7 EQ PUSH2 0x197 JUMPI JUMPDEST PUSH0 DUP1 REVERT JUMPDEST CALLVALUE DUP1 ISZERO PUSH2 0x11F JUMPI PUSH0 DUP1 REVERT JUMPDEST POP PUSH2 0x133 PUSH2 0x12E CALLDATASIZE PUSH1 0x4 PUSH2 0x2348 JUMP JUMPDEST PUSH2 0x337 JUMP JUMPDEST PUSH1 0x40 MLOAD PUSH2 0x140 SWAP2 SWAP1 PUSH2 0x23AC JUMP JUMPDEST PUSH1 0x40 MLOAD DUP1 SWAP2 SUB SWAP1 RETURN JUMPDEST PUSH2 0x15C PUSH2 0x157 CALLDATASIZE PUSH1 0x4 PUSH2 0x2468 JUMP JUMPDEST PUSH2 0x5C6 JUMP JUMPDEST PUSH1 0x40 MLOAD PUSH1 0x1 PUSH1 0x1 PUSH1 0xA0 SHL SUB SWAP1 SWAP2 AND DUP2 MSTORE PUSH1 0x20 ADD PUSH2 0x140 JUMP JUMPDEST PUSH2 0x187 PUSH2 0x182 CALLDATASIZE PUSH1 0x4 PUSH2 0x2468 JUMP JUMPDEST PUSH2 0x66D JUMP JUMPDEST PUSH1 0x40 MLOAD SWAP1 ISZERO ISZERO DUP2 MSTORE PUSH1 0x20 ADD PUSH2 0x140 JUMP JUMPDEST CALLVALUE DUP1 ISZERO PUSH2 0x1A2 JUMPI PUSH0 DUP1 REVERT JUMPDEST POP PUSH2 0x1B6 PUSH2 0x1B1 CALLDATASIZE PUSH1 0x4 PUSH2 0x2468 JUMP JUMPDEST PUSH2 0x755 JUMP JUMPDEST PUSH1 0x40 MLOAD PUSH2 0x140 SWAP2 SWAP1 PUSH2 0x2488 JUMP JUMPDEST CALLVALUE DUP1 ISZERO PUSH2 0x1CE JUMPI PUSH0 DUP1 REVERT JUMPDEST POP PUSH2 0x1B6 PUSH2 0x7D9 JUMP JUMPDEST PUSH2 0x187 PUSH2 0x1E5 CALLDATASIZE PUSH1 0x4 PUSH2 0x2468 JUMP JUMPDEST PUSH2 0x837 JUMP JUMPDEST CALLVALUE DUP1 ISZERO PUSH2 0x1F5 JUMPI PUSH0 DUP1 REVERT JUMPDEST POP PUSH1 0x8 SLOAD PUSH2 0x15C SWAP1 PUSH1 0x1 PUSH1 0x1 PUSH1 0xA0 SHL SUB AND DUP2 JUMP JUMPDEST CALLVALUE DUP1 ISZERO PUSH2 0x214 JUMPI PUSH0 DUP1 REVERT JUMPDEST POP PUSH2 0x187 PUSH2 0x223 CALLDATASIZE PUSH1 0x4 PUSH2 0x2568 JUMP JUMPDEST PUSH2 0x940 JUMP JUMPDEST PUSH2 0x187 PUSH2 0x236 CALLDATASIZE PUSH1 0x4 PUSH2 0x2468 JUMP JUMPDEST PUSH2 0x9AE JUMP JUMPDEST CALLVALUE DUP1 ISZERO PUSH2 0x246 JUMPI PUSH0 DUP1 REVERT JUMPDEST POP PUSH2 0x15C PUSH2 0x255 CALLDATASIZE PUSH1 0x4 PUSH2 0x2631 JUMP JUMPDEST PUSH2 0xA55 JUMP JUMPDEST PUSH2 0x187 PUSH2 0x268 CALLDATASIZE PUSH1 0x4 PUSH2 0x266B JUMP JUMPDEST PUSH2 0xA9F JUMP JUMPDEST CALLVALUE DUP1 ISZERO PUSH2 0x278 JUMPI PUSH0 DUP1 REVERT JUMPDEST POP PUSH1 0x7 SLOAD PUSH1 0x1 PUSH1 0xA0 SHL SWAP1 DIV PUSH1 0xFF AND PUSH2 0x187 JUMP JUMPDEST CALLVALUE DUP1 ISZERO PUSH2 0x296 JUMPI PUSH0 DUP1 REVERT JUMPDEST POP PUSH2 0x187 PUSH2 0x2A5 CALLDATASIZE PUSH1 0x4 PUSH2 0x2348 JUMP JUMPDEST PUSH2 0xB14 JUMP JUMPDEST CALLVALUE DUP1 ISZERO PUSH2 0x2B5 JUMPI PUSH0 DUP1 REVERT JUMPDEST POP PUSH2 0x133 PUSH2 0x2C4 CALLDATASIZE PUSH1 0x4 PUSH2 0x2348 JUMP JUMPDEST PUSH2 0xD43 JUMP JUMPDEST PUSH2 0x187 PUSH2 0x2D7 CALLDATASIZE PUSH1 0x4 PUSH2 0x266B JUMP JUMPDEST PUSH2 0xF76 JUMP JUMPDEST PUSH2 0x2EF PUSH2 0x2EA CALLDATASIZE PUSH1 0x4 PUSH2 0x2568 JUMP JUMPDEST PUSH2 0x1091 JUMP JUMPDEST PUSH1 0x40 MLOAD SWAP1 DUP2 MSTORE PUSH1 0x20 ADD PUSH2 0x140 JUMP JUMPDEST PUSH2 0x187 PUSH2 0x30B CALLDATASIZE PUSH1 0x4 PUSH2 0x2348 JUMP JUMPDEST PUSH2 0x131C JUMP JUMPDEST CALLVALUE DUP1 ISZERO PUSH2 0x31B JUMPI PUSH0 DUP1 REVERT JUMPDEST POP PUSH2 0x187 PUSH2 0x171C JUMP JUMPDEST PUSH2 0x133 PUSH2 0x332 CALLDATASIZE PUSH1 0x4 PUSH2 0x26B6 JUMP JUMPDEST PUSH2 0x1773 JUMP JUMPDEST PUSH2 0x33F PUSH2 0x22BC JUMP JUMPDEST PUSH0 DUP3 DUP2 MSTORE PUSH1 0x20 DUP2 SWAP1 MSTORE PUSH1 0x40 DUP1 DUP3 KECCAK256 DUP2 MLOAD PUSH1 0xE0 DUP2 ADD SWAP1 SWAP3 MSTORE DUP1 SLOAD DUP3 SWAP1 DUP3 SWAP1 PUSH2 0x365 SWAP1 PUSH2 0x26DE JUMP JUMPDEST DUP1 PUSH1 0x1F ADD PUSH1 0x20 DUP1 SWAP2 DIV MUL PUSH1 0x20 ADD PUSH1 0x40 MLOAD SWAP1 DUP2 ADD PUSH1 0x40 MSTORE DUP1 SWAP3 SWAP2 SWAP1 DUP2 DUP2 MSTORE PUSH1 0x20 ADD DUP3 DUP1 SLOAD PUSH2 0x391 SWAP1 PUSH2 0x26DE JUMP JUMPDEST DUP1 ISZERO PUSH2 0x3DC JUMPI DUP1 PUSH1 0x1F LT PUSH2 0x3B3 JUMPI PUSH2 0x100 DUP1 DUP4 SLOAD DIV MUL DUP4 MSTORE SWAP2 PUSH1 0x20 ADD SWAP2 PUSH2 0x3DC JUMP JUMPDEST DUP3 ADD SWAP2 SWAP1 PUSH0 MSTORE PUSH1 0x20 PUSH0 KECCAK256 SWAP1 JUMPDEST DUP2 SLOAD DUP2 MSTORE SWAP1 PUSH1 0x1 ADD SWAP1 PUSH1 0x20 ADD DUP1 DUP4 GT PUSH2 0x3BF JUMPI DUP3 SWAP1 SUB PUSH1 0x1F AND DUP3 ADD SWAP2 JUMPDEST POP POP POP POP POP DUP2 MSTORE PUSH1 0x20 ADD PUSH1 0x1 DUP3 ADD DUP1 SLOAD PUSH2 0x3F5 SWAP1 PUSH2 0x26DE JUMP JUMPDEST DUP1 PUSH1 0x1F ADD PUSH1 0x20 DUP1 SWAP2 DIV MUL PUSH1 0x20 ADD PUSH1 0x40 MLOAD SWAP1 DUP2 ADD PUSH1 0x40 MSTORE DUP1 SWAP3 SWAP2 SWAP1 DUP2 DUP2 MSTORE PUSH1 0x20 ADD DUP3 DUP1 SLOAD PUSH2 0x421 SWAP1 PUSH2 0x26DE JUMP JUMPDEST DUP1 ISZERO PUSH2 0x46C JUMPI DUP1 PUSH1 0x1F LT PUSH2 0x443 JUMPI PUSH2 0x100 DUP1 DUP4 SLOAD DIV MUL DUP4 MSTORE SWAP2 PUSH1 0x20 ADD SWAP2 PUSH2 0x46C JUMP JUMPDEST DUP3 ADD SWAP2 SWAP1 PUSH0 MSTORE PUSH1 0x20 PUSH0 KECCAK256 SWAP1 JUMPDEST DUP2 SLOAD DUP2 MSTORE SWAP1 PUSH1 0x1 ADD SWAP1 PUSH1 0x20 ADD DUP1 DUP4 GT PUSH2 0x44F JUMPI DUP3 SWAP1 SUB PUSH1 0x1F AND DUP3 ADD SWAP2 JUMPDEST POP POP POP SWAP2 DUP4 MSTORE POP POP PUSH1 0x2 DUP3 ADD SLOAD PUSH1 0x1 PUSH1 0x1 PUSH1 0xA0 SHL SUB AND PUSH1 0x20 DUP3 ADD MSTORE PUSH1 0x3 DUP3 ADD DUP1 SLOAD PUSH1 0x40 SWAP1 SWAP3 ADD SWAP2 PUSH2 0x49C SWAP1 PUSH2 0x26DE JUMP JUMPDEST DUP1 PUSH1 0x1F ADD PUSH1 0x20 DUP1 SWAP2 DIV MUL PUSH1 0x20 ADD PUSH1 0x40 MLOAD SWAP1 DUP2 ADD PUSH1 0x40 MSTORE DUP1 SWAP3 SWAP2 SWAP1 DUP2 DUP2 MSTORE PUSH1 0x20 ADD DUP3 DUP1 SLOAD PUSH2 0x4C8 SWAP1 PUSH2 0x26DE JUMP JUMPDEST DUP1 ISZERO PUSH2 0x513 JUMPI DUP1 PUSH1 0x1F LT PUSH2 0x4EA JUMPI PUSH2 0x100 DUP1 DUP4 SLOAD DIV MUL DUP4 MSTORE SWAP2 PUSH1 0x20 ADD SWAP2 PUSH2 0x513 JUMP JUMPDEST DUP3 ADD SWAP2 SWAP1 PUSH0 MSTORE PUSH1 0x20 PUSH0 KECCAK256 SWAP1 JUMPDEST DUP2 SLOAD DUP2 MSTORE SWAP1 PUSH1 0x1 ADD SWAP1 PUSH1 0x20 ADD DUP1 DUP4 GT PUSH2 0x4F6 JUMPI DUP3 SWAP1 SUB PUSH1 0x1F AND DUP3 ADD SWAP2 JUMPDEST POP POP POP SWAP2 DUP4 MSTORE POP POP PUSH1 0x4 DUP3 ADD SLOAD PUSH1 0x1 PUSH1 0x1 PUSH1 0xA0 SHL SUB SWAP1 DUP2 AND PUSH1 0x20 DUP4 ADD MSTORE PUSH1 0x5 DUP4 ADD SLOAD PUSH1 0x40 DUP1 DUP5 ADD SWAP2 SWAP1 SWAP2 MSTORE PUSH1 0x6 SWAP1 SWAP4 ADD SLOAD PUSH1 0xFF AND ISZERO ISZERO PUSH1 0x60 SWAP1 SWAP3 ADD SWAP2 SWAP1 SWAP2 MSTORE SWAP1 DUP3 ADD MLOAD SWAP2 SWAP3 POP AND CALLER EQ PUSH2 0x5C0 JUMPI PUSH1 0x40 MLOAD PUSH3 0x461BCD PUSH1 0xE5 SHL DUP2 MSTORE PUSH1 0x20 PUSH1 0x4 DUP3 ADD MSTORE PUSH1 0x2A PUSH1 0x24 DUP3 ADD MSTORE PUSH32 0x596F75206D6F6E737420626520746865206F776E657220746F2073686F772064 PUSH1 0x44 DUP3 ADD MSTORE PUSH10 0x185D18481CDA59DB9959 PUSH1 0xB2 SHL PUSH1 0x64 DUP3 ADD MSTORE PUSH1 0x84 ADD JUMPDEST PUSH1 0x40 MLOAD DUP1 SWAP2 SUB SWAP1 REVERT JUMPDEST SWAP3 SWAP2 POP POP JUMP JUMPDEST PUSH1 0x7 SLOAD PUSH0 SWAP1 PUSH1 0x1 PUSH1 0x1 PUSH1 0xA0 SHL SUB AND CALLER EQ PUSH2 0x5F2 JUMPI PUSH1 0x40 MLOAD PUSH3 0x461BCD PUSH1 0xE5 SHL DUP2 MSTORE PUSH1 0x4 ADD PUSH2 0x5B7 SWAP1 PUSH2 0x2716 JUMP JUMPDEST PUSH1 0x1 PUSH1 0x1 PUSH1 0xA0 SHL SUB DUP3 AND PUSH2 0x648 JUMPI PUSH1 0x40 MLOAD PUSH3 0x461BCD PUSH1 0xE5 SHL DUP2 MSTORE PUSH1 0x20 PUSH1 0x4 DUP3 ADD MSTORE PUSH1 0x17 PUSH1 0x24 DUP3 ADD MSTORE PUSH32 0x4D75737420626520612076616C69642061646472657373000000000000000000 PUSH1 0x44 DUP3 ADD MSTORE PUSH1 0x64 ADD PUSH2 0x5B7 JUMP JUMPDEST POP PUSH1 0x8 DUP1 SLOAD PUSH1 0x1 PUSH1 0x1 PUSH1 0xA0 SHL SUB NOT AND PUSH1 0x1 PUSH1 0x1 PUSH1 0xA0 SHL SUB DUP4 AND SWAP1 DUP2 OR SWAP1 SWAP2 SSTORE JUMPDEST SWAP2 SWAP1 POP JUMP JUMPDEST CALLER PUSH0 SWAP1 DUP2 MSTORE PUSH1 0x4 PUSH1 0x20 MSTORE PUSH1 0x40 DUP2 KECCAK256 SLOAD PUSH1 0xFF AND PUSH2 0x687 JUMPI PUSH0 DUP1 REVERT JUMPDEST PUSH1 0x1 PUSH1 0x1 PUSH1 0xA0 SHL SUB DUP3 AND PUSH0 SWAP1 DUP2 MSTORE PUSH1 0x5 PUSH1 0x20 MSTORE PUSH1 0x40 SWAP1 KECCAK256 SLOAD PUSH1 0xFF AND ISZERO ISZERO PUSH1 0x1 SUB PUSH2 0x6F3 JUMPI PUSH1 0x40 MLOAD PUSH3 0x461BCD PUSH1 0xE5 SHL DUP2 MSTORE PUSH1 0x20 PUSH1 0x4 DUP3 ADD DUP2 SWAP1 MSTORE PUSH1 0x24 DUP3 ADD MSTORE PUSH32 0x6164647265737320666F722061646D696E20616C726564792070726F706F7365 PUSH1 0x44 DUP3 ADD MSTORE PUSH1 0x64 ADD PUSH2 0x5B7 JUMP JUMPDEST PUSH1 0x1 PUSH1 0x1 PUSH1 0xA0 SHL SUB DUP3 AND PUSH0 DUP2 DUP2 MSTORE PUSH1 0x5 PUSH1 0x20 SWAP1 DUP2 MSTORE PUSH1 0x40 SWAP2 DUP3 SWAP1 KECCAK256 DUP1 SLOAD PUSH1 0xFF NOT AND PUSH1 0x1 SWAP1 DUP2 OR SWAP1 SWAP2 SSTORE SWAP2 MLOAD SWAP2 DUP3 MSTORE PUSH32 0xFCD0029428C001BD11D12D6E8302DDA11AC68335A836D75D43004BF4CA7292EF SWAP2 ADD JUMPDEST PUSH1 0x40 MLOAD DUP1 SWAP2 SUB SWAP1 LOG2 POP PUSH1 0x1 SWAP2 SWAP1 POP JUMP JUMPDEST CALLER PUSH0 SWAP1 DUP2 MSTORE PUSH1 0x4 PUSH1 0x20 MSTORE PUSH1 0x40 SWAP1 KECCAK256 SLOAD PUSH1 0x60 SWAP1 PUSH1 0xFF AND PUSH2 0x772 JUMPI PUSH0 DUP1 REVERT JUMPDEST PUSH1 0x1 PUSH1 0x1 PUSH1 0xA0 SHL SUB DUP3 AND PUSH0 SWAP1 DUP2 MSTORE PUSH1 0x1 PUSH1 0x20 SWAP1 DUP2 MSTORE PUSH1 0x40 SWAP2 DUP3 SWAP1 KECCAK256 DUP1 SLOAD DUP4 MLOAD DUP2 DUP5 MUL DUP2 ADD DUP5 ADD SWAP1 SWAP5 MSTORE DUP1 DUP5 MSTORE SWAP1 SWAP2 DUP4 ADD DUP3 DUP3 DUP1 ISZERO PUSH2 0x7CD JUMPI PUSH1 0x20 MUL DUP3 ADD SWAP2 SWAP1 PUSH0 MSTORE PUSH1 0x20 PUSH0 KECCAK256 SWAP1 JUMPDEST DUP2 SLOAD DUP2 MSTORE PUSH1 0x20 ADD SWAP1 PUSH1 0x1 ADD SWAP1 DUP1 DUP4 GT PUSH2 0x7B9 JUMPI JUMPDEST POP POP POP POP POP SWAP1 POP SWAP2 SWAP1 POP JUMP JUMPDEST CALLER PUSH0 SWAP1 DUP2 MSTORE PUSH1 0x1 PUSH1 0x20 SWAP1 DUP2 MSTORE PUSH1 0x40 SWAP2 DUP3 SWAP1 KECCAK256 DUP1 SLOAD DUP4 MLOAD DUP2 DUP5 MUL DUP2 ADD DUP5 ADD SWAP1 SWAP5 MSTORE DUP1 DUP5 MSTORE PUSH1 0x60 SWAP4 SWAP3 DUP4 ADD DUP3 DUP3 DUP1 ISZERO PUSH2 0x82D JUMPI PUSH1 0x20 MUL DUP3 ADD SWAP2 SWAP1 PUSH0 MSTORE PUSH1 0x20 PUSH0 KECCAK256 SWAP1 JUMPDEST DUP2 SLOAD DUP2 MSTORE PUSH1 0x20 ADD SWAP1 PUSH1 0x1 ADD SWAP1 DUP1 DUP4 GT PUSH2 0x819 JUMPI JUMPDEST POP POP POP POP POP SWAP1 POP SWAP1 JUMP JUMPDEST PUSH1 0x7 SLOAD PUSH0 SWAP1 PUSH1 0x1 PUSH1 0x1 PUSH1 0xA0 SHL SUB AND CALLER EQ PUSH2 0x863 JUMPI PUSH1 0x40 MLOAD PUSH3 0x461BCD PUSH1 0xE5 SHL DUP2 MSTORE PUSH1 0x4 ADD PUSH2 0x5B7 SWAP1 PUSH2 0x2716 JUMP JUMPDEST PUSH1 0x1 PUSH1 0x1 PUSH1 0xA0 SHL SUB DUP3 AND PUSH0 SWAP1 DUP2 MSTORE PUSH1 0x5 PUSH1 0x20 MSTORE PUSH1 0x40 SWAP1 KECCAK256 SLOAD PUSH1 0xFF AND ISZERO ISZERO PUSH1 0x1 EQ PUSH2 0x8DB JUMPI PUSH1 0x40 MLOAD PUSH3 0x461BCD PUSH1 0xE5 SHL DUP2 MSTORE PUSH1 0x20 PUSH1 0x4 DUP3 ADD MSTORE PUSH1 0x23 PUSH1 0x24 DUP3 ADD MSTORE PUSH32 0x61646472657373206D757374206265207265676973747265642062792061646D PUSH1 0x44 DUP3 ADD MSTORE PUSH3 0x696E73 PUSH1 0xE8 SHL PUSH1 0x64 DUP3 ADD MSTORE PUSH1 0x84 ADD PUSH2 0x5B7 JUMP JUMPDEST PUSH1 0x1 PUSH1 0x1 PUSH1 0xA0 SHL SUB DUP3 AND PUSH0 DUP2 DUP2 MSTORE PUSH1 0x4 PUSH1 0x20 SWAP1 DUP2 MSTORE PUSH1 0x40 DUP1 DUP4 KECCAK256 DUP1 SLOAD PUSH1 0x1 PUSH1 0xFF NOT SWAP2 DUP3 AND DUP2 OR SWAP1 SWAP3 SSTORE PUSH1 0x5 DUP5 MSTORE SWAP4 DUP3 SWAP1 KECCAK256 DUP1 SLOAD SWAP1 SWAP5 AND SWAP1 SWAP4 SSTORE MLOAD SWAP2 DUP3 MSTORE PUSH32 0x9AAB773CC5C7F377774352463D765FA3ACAE0BC1C83C44357F4405639EBAB44A SWAP2 ADD PUSH2 0x745 JUMP JUMPDEST CALLER PUSH0 SWAP1 DUP2 MSTORE PUSH1 0x4 PUSH1 0x20 MSTORE PUSH1 0x40 DUP2 KECCAK256 SLOAD PUSH1 0xFF AND PUSH2 0x95A JUMPI PUSH0 DUP1 REVERT JUMPDEST PUSH0 PUSH2 0x998 DUP8 DUP5 PUSH2 0x969 DUP10 PUSH2 0xA55 JUMP JUMPDEST DUP8 PUSH1 0x6 DUP11 PUSH1 0x40 MLOAD PUSH2 0x97A SWAP2 SWAP1 PUSH2 0x274D JUMP JUMPDEST SWAP1 DUP2 MSTORE PUSH1 0x40 MLOAD SWAP1 DUP2 SWAP1 SUB PUSH1 0x20 ADD SWAP1 KECCAK256 SLOAD PUSH1 0x1 PUSH1 0x1 PUSH1 0xA0 SHL SUB AND PUSH2 0x1A74 JUMP JUMPDEST SWAP1 POP PUSH2 0x9A3 DUP2 PUSH2 0xB14 JUMP JUMPDEST SWAP8 SWAP7 POP POP POP POP POP POP POP JUMP JUMPDEST PUSH1 0x7 SLOAD PUSH0 SWAP1 PUSH1 0x1 PUSH1 0x1 PUSH1 0xA0 SHL SUB AND CALLER EQ PUSH2 0x9DA JUMPI PUSH1 0x40 MLOAD PUSH3 0x461BCD PUSH1 0xE5 SHL DUP2 MSTORE PUSH1 0x4 ADD PUSH2 0x5B7 SWAP1 PUSH2 0x2716 JUMP JUMPDEST PUSH1 0x1 PUSH1 0x1 PUSH1 0xA0 SHL SUB DUP3 AND PUSH2 0xA30 JUMPI PUSH1 0x40 MLOAD PUSH3 0x461BCD PUSH1 0xE5 SHL DUP2 MSTORE PUSH1 0x20 PUSH1 0x4 DUP3 ADD MSTORE PUSH1 0x1D PUSH1 0x24 DUP3 ADD MSTORE PUSH32 0x4F776E65722063616E27742062652061205A65726F2061646472657373000000 PUSH1 0x44 DUP3 ADD MSTORE PUSH1 0x64 ADD PUSH2 0x5B7 JUMP JUMPDEST POP PUSH1 0x7 DUP1 SLOAD PUSH1 0x1 PUSH1 0x1 PUSH1 0xA0 SHL SUB DUP4 AND PUSH1 0x1 PUSH1 0x1 PUSH1 0xA0 SHL SUB NOT SWAP1 SWAP2 AND OR SWAP1 SSTORE PUSH1 0x1 SWAP2 SWAP1 POP JUMP JUMPDEST CALLER PUSH0 SWAP1 DUP2 MSTORE PUSH1 0x4 PUSH1 0x20 MSTORE PUSH1 0x40 DUP2 KECCAK256 SLOAD PUSH1 0xFF AND PUSH2 0xA6F JUMPI PUSH0 DUP1 REVERT JUMPDEST PUSH1 0x3 DUP3 PUSH1 0x40 MLOAD PUSH2 0xA7F SWAP2 SWAP1 PUSH2 0x274D JUMP JUMPDEST SWAP1 DUP2 MSTORE PUSH1 0x40 MLOAD SWAP1 DUP2 SWAP1 SUB PUSH1 0x20 ADD SWAP1 KECCAK256 SLOAD PUSH1 0x1 PUSH1 0x1 PUSH1 0xA0 SHL SUB AND SWAP1 POP SWAP2 SWAP1 POP JUMP JUMPDEST PUSH1 0x7 SLOAD PUSH0 SWAP1 PUSH1 0x1 PUSH1 0x1 PUSH1 0xA0 SHL SUB AND CALLER EQ PUSH2 0xACB JUMPI PUSH1 0x40 MLOAD PUSH3 0x461BCD PUSH1 0xE5 SHL DUP2 MSTORE PUSH1 0x4 ADD PUSH2 0x5B7 SWAP1 PUSH2 0x2716 JUMP JUMPDEST DUP2 PUSH1 0x3 DUP5 PUSH1 0x40 MLOAD PUSH2 0xADC SWAP2 SWAP1 PUSH2 0x274D JUMP JUMPDEST SWAP1 DUP2 MSTORE PUSH1 0x40 MLOAD SWAP1 DUP2 SWAP1 SUB PUSH1 0x20 ADD SWAP1 KECCAK256 DUP1 SLOAD PUSH1 0x1 PUSH1 0x1 PUSH1 0xA0 SHL SUB SWAP3 SWAP1 SWAP3 AND PUSH1 0x1 PUSH1 0x1 PUSH1 0xA0 SHL SUB NOT SWAP1 SWAP3 AND SWAP2 SWAP1 SWAP2 OR SWAP1 SSTORE POP PUSH1 0x1 SWAP3 SWAP2 POP POP JUMP JUMPDEST PUSH0 DUP1 PUSH0 DUP1 DUP5 DUP2 MSTORE PUSH1 0x20 ADD SWAP1 DUP2 MSTORE PUSH1 0x20 ADD PUSH0 KECCAK256 PUSH1 0x40 MLOAD DUP1 PUSH1 0xE0 ADD PUSH1 0x40 MSTORE SWAP1 DUP2 PUSH0 DUP3 ADD DUP1 SLOAD PUSH2 0xB40 SWAP1 PUSH2 0x26DE JUMP JUMPDEST DUP1 PUSH1 0x1F ADD PUSH1 0x20 DUP1 SWAP2 DIV MUL PUSH1 0x20 ADD PUSH1 0x40 MLOAD SWAP1 DUP2 ADD PUSH1 0x40 MSTORE DUP1 SWAP3 SWAP2 SWAP1 DUP2 DUP2 MSTORE PUSH1 0x20 ADD DUP3 DUP1 SLOAD PUSH2 0xB6C SWAP1 PUSH2 0x26DE JUMP JUMPDEST DUP1 ISZERO PUSH2 0xBB7 JUMPI DUP1 PUSH1 0x1F LT PUSH2 0xB8E JUMPI PUSH2 0x100 DUP1 DUP4 SLOAD DIV MUL DUP4 MSTORE SWAP2 PUSH1 0x20 ADD SWAP2 PUSH2 0xBB7 JUMP JUMPDEST DUP3 ADD SWAP2 SWAP1 PUSH0 MSTORE PUSH1 0x20 PUSH0 KECCAK256 SWAP1 JUMPDEST DUP2 SLOAD DUP2 MSTORE SWAP1 PUSH1 0x1 ADD SWAP1 PUSH1 0x20 ADD DUP1 DUP4 GT PUSH2 0xB9A JUMPI DUP3 SWAP1 SUB PUSH1 0x1F AND DUP3 ADD SWAP2 JUMPDEST POP POP POP POP POP DUP2 MSTORE PUSH1 0x20 ADD PUSH1 0x1 DUP3 ADD DUP1 SLOAD PUSH2 0xBD0 SWAP1 PUSH2 0x26DE JUMP JUMPDEST DUP1 PUSH1 0x1F ADD PUSH1 0x20 DUP1 SWAP2 DIV MUL PUSH1 0x20 ADD PUSH1 0x40 MLOAD SWAP1 DUP2 ADD PUSH1 0x40 MSTORE DUP1 SWAP3 SWAP2 SWAP1 DUP2 DUP2 MSTORE PUSH1 0x20 ADD DUP3 DUP1 SLOAD PUSH2 0xBFC SWAP1 PUSH2 0x26DE JUMP JUMPDEST DUP1 ISZERO PUSH2 0xC47 JUMPI DUP1 PUSH1 0x1F LT PUSH2 0xC1E JUMPI PUSH2 0x100 DUP1 DUP4 SLOAD DIV MUL DUP4 MSTORE SWAP2 PUSH1 0x20 ADD SWAP2 PUSH2 0xC47 JUMP JUMPDEST DUP3 ADD SWAP2 SWAP1 PUSH0 MSTORE PUSH1 0x20 PUSH0 KECCAK256 SWAP1 JUMPDEST DUP2 SLOAD DUP2 MSTORE SWAP1 PUSH1 0x1 ADD SWAP1 PUSH1 0x20 ADD DUP1 DUP4 GT PUSH2 0xC2A JUMPI DUP3 SWAP1 SUB PUSH1 0x1F AND DUP3 ADD SWAP2 JUMPDEST POP POP POP SWAP2 DUP4 MSTORE POP POP PUSH1 0x2 DUP3 ADD SLOAD PUSH1 0x1 PUSH1 0x1 PUSH1 0xA0 SHL SUB AND PUSH1 0x20 DUP3 ADD MSTORE PUSH1 0x3 DUP3 ADD DUP1 SLOAD PUSH1 0x40 SWAP1 SWAP3 ADD SWAP2 PUSH2 0xC77 SWAP1 PUSH2 0x26DE JUMP JUMPDEST DUP1 PUSH1 0x1F ADD PUSH1 0x20 DUP1 SWAP2 DIV MUL PUSH1 0x20 ADD PUSH1 0x40 MLOAD SWAP1 DUP2 ADD PUSH1 0x40 MSTORE DUP1 SWAP3 SWAP2 SWAP1 DUP2 DUP2 MSTORE PUSH1 0x20 ADD DUP3 DUP1 SLOAD PUSH2 0xCA3 SWAP1 PUSH2 0x26DE JUMP JUMPDEST DUP1 ISZERO PUSH2 0xCEE JUMPI DUP1 PUSH1 0x1F LT PUSH2 0xCC5 JUMPI PUSH2 0x100 DUP1 DUP4 SLOAD DIV MUL DUP4 MSTORE SWAP2 PUSH1 0x20 ADD SWAP2 PUSH2 0xCEE JUMP JUMPDEST DUP3 ADD SWAP2 SWAP1 PUSH0 MSTORE PUSH1 0x20 PUSH0 KECCAK256 SWAP1 JUMPDEST DUP2 SLOAD DUP2 MSTORE SWAP1 PUSH1 0x1 ADD SWAP1 PUSH1 0x20 ADD DUP1 DUP4 GT PUSH2 0xCD1 JUMPI DUP3 SWAP1 SUB PUSH1 0x1F AND DUP3 ADD SWAP2 JUMPDEST POP POP POP SWAP2 DUP4 MSTORE POP POP PUSH1 0x4 DUP3 ADD SLOAD PUSH1 0x1 PUSH1 0x1 PUSH1 0xA0 SHL SUB AND PUSH1 0x20 DUP3 ADD MSTORE PUSH1 0x5 DUP3 ADD SLOAD PUSH1 0x40 DUP3 ADD MSTORE PUSH1 0x6 SWAP1 SWAP2 ADD SLOAD PUSH1 0xFF AND ISZERO ISZERO PUSH1 0x60 SWAP1 SWAP2 ADD MSTORE PUSH1 0xA0 DUP2 ADD MLOAD SWAP1 SWAP2 POP PUSH0 SUB PUSH2 0xD3A JUMPI POP PUSH0 SWAP3 SWAP2 POP POP JUMP JUMPDEST POP PUSH1 0x1 SWAP3 SWAP2 POP POP JUMP JUMPDEST PUSH2 0xD4B PUSH2 0x22BC JUMP JUMPDEST CALLER PUSH0 SWAP1 DUP2 MSTORE PUSH1 0x4 PUSH1 0x20 MSTORE PUSH1 0x40 SWAP1 KECCAK256 SLOAD PUSH1 0xFF AND PUSH2 0xD65 JUMPI PUSH0 DUP1 REVERT JUMPDEST PUSH0 DUP3 DUP2 MSTORE PUSH1 0x20 DUP2 SWAP1 MSTORE PUSH1 0x40 SWAP1 DUP2 SWAP1 KECCAK256 DUP2 MLOAD PUSH1 0xE0 DUP2 ADD SWAP1 SWAP3 MSTORE DUP1 SLOAD DUP3 SWAP1 DUP3 SWAP1 PUSH2 0xD8C SWAP1 PUSH2 0x26DE JUMP JUMPDEST DUP1 PUSH1 0x1F ADD PUSH1 0x20 DUP1 SWAP2 DIV MUL PUSH1 0x20 ADD PUSH1 0x40 MLOAD SWAP1 DUP2 ADD PUSH1 0x40 MSTORE DUP1 SWAP3 SWAP2 SWAP1 DUP2 DUP2 MSTORE PUSH1 0x20 ADD DUP3 DUP1 SLOAD PUSH2 0xDB8 SWAP1 PUSH2 0x26DE JUMP JUMPDEST DUP1 ISZERO PUSH2 0xE03 JUMPI DUP1 PUSH1 0x1F LT PUSH2 0xDDA JUMPI PUSH2 0x100 DUP1 DUP4 SLOAD DIV MUL DUP4 MSTORE SWAP2 PUSH1 0x20 ADD SWAP2 PUSH2 0xE03 JUMP JUMPDEST DUP3 ADD SWAP2 SWAP1 PUSH0 MSTORE PUSH1 0x20 PUSH0 KECCAK256 SWAP1 JUMPDEST DUP2 SLOAD DUP2 MSTORE SWAP1 PUSH1 0x1 ADD SWAP1 PUSH1 0x20 ADD DUP1 DUP4 GT PUSH2 0xDE6 JUMPI DUP3 SWAP1 SUB PUSH1 0x1F AND DUP3 ADD SWAP2 JUMPDEST POP POP POP POP POP DUP2 MSTORE PUSH1 0x20 ADD PUSH1 0x1 DUP3 ADD DUP1 SLOAD PUSH2 0xE1C SWAP1 PUSH2 0x26DE JUMP JUMPDEST DUP1 PUSH1 0x1F ADD PUSH1 0x20 DUP1 SWAP2 DIV MUL PUSH1 0x20 ADD PUSH1 0x40 MLOAD SWAP1 DUP2 ADD PUSH1 0x40 MSTORE DUP1 SWAP3 SWAP2 SWAP1 DUP2 DUP2 MSTORE PUSH1 0x20 ADD DUP3 DUP1 SLOAD PUSH2 0xE48 SWAP1 PUSH2 0x26DE JUMP JUMPDEST DUP1 ISZERO PUSH2 0xE93 JUMPI DUP1 PUSH1 0x1F LT PUSH2 0xE6A JUMPI PUSH2 0x100 DUP1 DUP4 SLOAD DIV MUL DUP4 MSTORE SWAP2 PUSH1 0x20 ADD SWAP2 PUSH2 0xE93 JUMP JUMPDEST DUP3 ADD SWAP2 SWAP1 PUSH0 MSTORE PUSH1 0x20 PUSH0 KECCAK256 SWAP1 JUMPDEST DUP2 SLOAD DUP2 MSTORE SWAP1 PUSH1 0x1 ADD SWAP1 PUSH1 0x20 ADD DUP1 DUP4 GT PUSH2 0xE76 JUMPI DUP3 SWAP1 SUB PUSH1 0x1F AND DUP3 ADD SWAP2 JUMPDEST POP POP POP SWAP2 DUP4 MSTORE POP POP PUSH1 0x2 DUP3 ADD SLOAD PUSH1 0x1 PUSH1 0x1 PUSH1 0xA0 SHL SUB AND PUSH1 0x20 DUP3 ADD MSTORE PUSH1 0x3 DUP3 ADD DUP1 SLOAD PUSH1 0x40 SWAP1 SWAP3 ADD SWAP2 PUSH2 0xEC3 SWAP1 PUSH2 0x26DE JUMP JUMPDEST DUP1 PUSH1 0x1F ADD PUSH1 0x20 DUP1 SWAP2 DIV MUL PUSH1 0x20 ADD PUSH1 0x40 MLOAD SWAP1 DUP2 ADD PUSH1 0x40 MSTORE DUP1 SWAP3 SWAP2 SWAP1 DUP2 DUP2 MSTORE PUSH1 0x20 ADD DUP3 DUP1 SLOAD PUSH2 0xEEF SWAP1 PUSH2 0x26DE JUMP JUMPDEST DUP1 ISZERO PUSH2 0xF3A JUMPI DUP1 PUSH1 0x1F LT PUSH2 0xF11 JUMPI PUSH2 0x100 DUP1 DUP4 SLOAD DIV MUL DUP4 MSTORE SWAP2 PUSH1 0x20 ADD SWAP2 PUSH2 0xF3A JUMP JUMPDEST DUP3 ADD SWAP2 SWAP1 PUSH0 MSTORE PUSH1 0x20 PUSH0 KECCAK256 SWAP1 JUMPDEST DUP2 SLOAD DUP2 MSTORE SWAP1 PUSH1 0x1 ADD SWAP1 PUSH1 0x20 ADD DUP1 DUP4 GT PUSH2 0xF1D JUMPI DUP3 SWAP1 SUB PUSH1 0x1F AND DUP3 ADD SWAP2 JUMPDEST POP POP POP SWAP2 DUP4 MSTORE POP POP PUSH1 0x4 DUP3 ADD SLOAD PUSH1 0x1 PUSH1 0x1 PUSH1 0xA0 SHL SUB AND PUSH1 0x20 DUP3 ADD MSTORE PUSH1 0x5 DUP3 ADD SLOAD PUSH1 0x40 DUP3 ADD MSTORE PUSH1 0x6 SWAP1 SWAP2 ADD SLOAD PUSH1 0xFF AND ISZERO ISZERO PUSH1 0x60 SWAP1 SWAP2 ADD MSTORE SWAP3 SWAP2 POP POP JUMP JUMPDEST PUSH1 0x7 SLOAD PUSH0 SWAP1 PUSH1 0x1 PUSH1 0x1 PUSH1 0xA0 SHL SUB AND CALLER EQ PUSH2 0xFA2 JUMPI PUSH1 0x40 MLOAD PUSH3 0x461BCD PUSH1 0xE5 SHL DUP2 MSTORE PUSH1 0x4 ADD PUSH2 0x5B7 SWAP1 PUSH2 0x2716 JUMP JUMPDEST PUSH0 PUSH1 0x1 PUSH1 0x1 PUSH1 0xA0 SHL SUB AND PUSH1 0x6 DUP5 PUSH1 0x40 MLOAD PUSH2 0xFBC SWAP2 SWAP1 PUSH2 0x274D JUMP JUMPDEST SWAP1 DUP2 MSTORE PUSH1 0x40 MLOAD SWAP1 DUP2 SWAP1 SUB PUSH1 0x20 ADD SWAP1 KECCAK256 SLOAD PUSH1 0x1 PUSH1 0x1 PUSH1 0xA0 SHL SUB AND EQ PUSH2 0x101A JUMPI PUSH1 0x40 MLOAD PUSH3 0x461BCD PUSH1 0xE5 SHL DUP2 MSTORE PUSH1 0x20 PUSH1 0x4 DUP3 ADD MSTORE PUSH1 0x15 PUSH1 0x24 DUP3 ADD MSTORE PUSH21 0x1059191C995CDCC8185B1C9958591E481859191959 PUSH1 0x5A SHL PUSH1 0x44 DUP3 ADD MSTORE PUSH1 0x64 ADD PUSH2 0x5B7 JUMP JUMPDEST DUP2 PUSH1 0x6 DUP5 PUSH1 0x40 MLOAD PUSH2 0x102B SWAP2 SWAP1 PUSH2 0x274D JUMP JUMPDEST SWAP1 DUP2 MSTORE PUSH1 0x40 MLOAD PUSH1 0x20 SWAP2 DUP2 SWAP1 SUB DUP3 ADD DUP2 KECCAK256 DUP1 SLOAD PUSH1 0x1 PUSH1 0x1 PUSH1 0xA0 SHL SUB NOT AND PUSH1 0x1 PUSH1 0x1 PUSH1 0xA0 SHL SUB SWAP5 DUP6 AND OR SWAP1 SSTORE PUSH1 0x1 DUP2 MSTORE SWAP2 DUP5 AND SWAP2 PUSH32 0xA590B4FC649A56BFC2765312A8B4BECAA85A972FD5403DE3F9A0A4270C40E71E SWAP2 ADD PUSH1 0x40 MLOAD DUP1 SWAP2 SUB SWAP1 LOG2 POP PUSH1 0x1 SWAP3 SWAP2 POP POP JUMP JUMPDEST PUSH1 0x7 SLOAD PUSH0 SWAP1 PUSH1 0x1 PUSH1 0x1 PUSH1 0xA0 SHL SUB AND CALLER EQ PUSH2 0x10BD JUMPI PUSH1 0x40 MLOAD PUSH3 0x461BCD PUSH1 0xE5 SHL DUP2 MSTORE PUSH1 0x4 ADD PUSH2 0x5B7 SWAP1 PUSH2 0x2716 JUMP JUMPDEST PUSH1 0x7 SLOAD PUSH1 0x1 PUSH1 0xA0 SHL SWAP1 DIV PUSH1 0xFF AND ISZERO ISZERO PUSH1 0x1 EQ PUSH2 0x111B JUMPI PUSH1 0x40 MLOAD PUSH3 0x461BCD PUSH1 0xE5 SHL DUP2 MSTORE PUSH1 0x20 PUSH1 0x4 DUP3 ADD MSTORE PUSH1 0x1F PUSH1 0x24 DUP3 ADD MSTORE PUSH32 0x4D696E74696E67206861732073746F70656420627920746865206F776E657200 PUSH1 0x44 DUP3 ADD MSTORE PUSH1 0x64 ADD PUSH2 0x5B7 JUMP JUMPDEST PUSH0 PUSH2 0x1125 DUP7 PUSH2 0xA55 JUMP JUMPDEST PUSH1 0x1 PUSH1 0x1 PUSH1 0xA0 SHL SUB AND SUB PUSH2 0x117B JUMPI PUSH1 0x40 MLOAD PUSH3 0x461BCD PUSH1 0xE5 SHL DUP2 MSTORE PUSH1 0x20 PUSH1 0x4 DUP3 ADD MSTORE PUSH1 0x1E PUSH1 0x24 DUP3 ADD MSTORE PUSH32 0x526966204E6F7420526567697374726564206861732054617870617965720000 PUSH1 0x44 DUP3 ADD MSTORE PUSH1 0x64 ADD PUSH2 0x5B7 JUMP JUMPDEST PUSH0 PUSH1 0x1 PUSH1 0x1 PUSH1 0xA0 SHL SUB AND PUSH1 0x6 DUP6 PUSH1 0x40 MLOAD PUSH2 0x1195 SWAP2 SWAP1 PUSH2 0x274D JUMP JUMPDEST SWAP1 DUP2 MSTORE PUSH1 0x40 MLOAD SWAP1 DUP2 SWAP1 SUB PUSH1 0x20 ADD SWAP1 KECCAK256 SLOAD PUSH1 0x1 PUSH1 0x1 PUSH1 0xA0 SHL SUB AND SUB PUSH2 0x11FB JUMPI PUSH1 0x40 MLOAD PUSH3 0x461BCD PUSH1 0xE5 SHL DUP2 MSTORE PUSH1 0x20 PUSH1 0x4 DUP3 ADD DUP2 SWAP1 MSTORE PUSH1 0x24 DUP3 ADD MSTORE PUSH32 0x417070726F766572204E6F7420526567697374726564206861732056616C6964 PUSH1 0x44 DUP3 ADD MSTORE PUSH1 0x64 ADD PUSH2 0x5B7 JUMP JUMPDEST PUSH2 0x1204 DUP6 PUSH2 0xA55 JUMP JUMPDEST PUSH1 0x1 PUSH1 0x1 PUSH1 0xA0 SHL SUB AND PUSH1 0x6 DUP6 PUSH1 0x40 MLOAD PUSH2 0x121D SWAP2 SWAP1 PUSH2 0x274D JUMP JUMPDEST SWAP1 DUP2 MSTORE PUSH1 0x40 MLOAD SWAP1 DUP2 SWAP1 SUB PUSH1 0x20 ADD SWAP1 KECCAK256 SLOAD PUSH1 0x1 PUSH1 0x1 PUSH1 0xA0 SHL SUB AND SUB PUSH2 0x1283 JUMPI PUSH1 0x40 MLOAD PUSH3 0x461BCD PUSH1 0xE5 SHL DUP2 MSTORE PUSH1 0x20 PUSH1 0x4 DUP3 ADD MSTORE PUSH1 0x1D PUSH1 0x24 DUP3 ADD MSTORE PUSH32 0x417070726F7665722063616E6E6F742070726F76652068696D73656C66000000 PUSH1 0x44 DUP3 ADD MSTORE PUSH1 0x64 ADD PUSH2 0x5B7 JUMP JUMPDEST PUSH0 PUSH2 0x1292 DUP8 DUP5 PUSH2 0x969 DUP10 PUSH2 0xA55 JUMP JUMPDEST SWAP1 POP PUSH0 PUSH1 0x40 MLOAD DUP1 PUSH1 0xE0 ADD PUSH1 0x40 MSTORE DUP1 DUP10 DUP2 MSTORE PUSH1 0x20 ADD DUP6 DUP2 MSTORE PUSH1 0x20 ADD PUSH2 0x12B5 DUP10 PUSH2 0xA55 JUMP JUMPDEST PUSH1 0x1 PUSH1 0x1 PUSH1 0xA0 SHL SUB AND DUP2 MSTORE PUSH1 0x20 ADD DUP7 DUP2 MSTORE PUSH1 0x20 ADD PUSH1 0x6 DUP9 PUSH1 0x40 MLOAD PUSH2 0x12D9 SWAP2 SWAP1 PUSH2 0x274D JUMP JUMPDEST SWAP1 DUP2 MSTORE PUSH1 0x40 DUP1 MLOAD PUSH1 0x20 SWAP3 DUP2 SWAP1 SUB DUP4 ADD SWAP1 KECCAK256 SLOAD PUSH1 0x1 PUSH1 0x1 PUSH1 0xA0 SHL SUB AND DUP4 MSTORE SWAP1 DUP3 ADD DUP6 SWAP1 MSTORE PUSH1 0x1 SWAP2 ADD MSTORE SWAP1 POP PUSH2 0x130C DUP2 PUSH2 0x1ADA JUMP JUMPDEST POP PUSH1 0xA0 ADD MLOAD SWAP8 SWAP7 POP POP POP POP POP POP POP JUMP JUMPDEST CALLER PUSH0 SWAP1 DUP2 MSTORE PUSH1 0x4 PUSH1 0x20 MSTORE PUSH1 0x40 DUP2 KECCAK256 SLOAD PUSH1 0xFF AND PUSH2 0x1336 JUMPI PUSH0 DUP1 REVERT JUMPDEST PUSH0 DUP3 DUP2 MSTORE PUSH1 0x20 DUP2 SWAP1 MSTORE PUSH1 0x40 DUP1 DUP3 KECCAK256 DUP2 MLOAD PUSH1 0xE0 DUP2 ADD SWAP1 SWAP3 MSTORE DUP1 SLOAD DUP3 SWAP1 DUP3 SWAP1 PUSH2 0x135C SWAP1 PUSH2 0x26DE JUMP JUMPDEST DUP1 PUSH1 0x1F ADD PUSH1 0x20 DUP1 SWAP2 DIV MUL PUSH1 0x20 ADD PUSH1 0x40 MLOAD SWAP1 DUP2 ADD PUSH1 0x40 MSTORE DUP1 SWAP3 SWAP2 SWAP1 DUP2 DUP2 MSTORE PUSH1 0x20 ADD DUP3 DUP1 SLOAD PUSH2 0x1388 SWAP1 PUSH2 0x26DE JUMP JUMPDEST DUP1 ISZERO PUSH2 0x13D3 JUMPI DUP1 PUSH1 0x1F LT PUSH2 0x13AA JUMPI PUSH2 0x100 DUP1 DUP4 SLOAD DIV MUL DUP4 MSTORE SWAP2 PUSH1 0x20 ADD SWAP2 PUSH2 0x13D3 JUMP JUMPDEST DUP3 ADD SWAP2 SWAP1 PUSH0 MSTORE PUSH1 0x20 PUSH0 KECCAK256 SWAP1 JUMPDEST DUP2 SLOAD DUP2 MSTORE SWAP1 PUSH1 0x1 ADD SWAP1 PUSH1 0x20 ADD DUP1 DUP4 GT PUSH2 0x13B6 JUMPI DUP3 SWAP1 SUB PUSH1 0x1F AND DUP3 ADD SWAP2 JUMPDEST POP POP POP POP POP DUP2 MSTORE PUSH1 0x20 ADD PUSH1 0x1 DUP3 ADD DUP1 SLOAD PUSH2 0x13EC SWAP1 PUSH2 0x26DE JUMP JUMPDEST DUP1 PUSH1 0x1F ADD PUSH1 0x20 DUP1 SWAP2 DIV MUL PUSH1 0x20 ADD PUSH1 0x40 MLOAD SWAP1 DUP2 ADD PUSH1 0x40 MSTORE DUP1 SWAP3 SWAP2 SWAP1 DUP2 DUP2 MSTORE PUSH1 0x20 ADD DUP3 DUP1 SLOAD PUSH2 0x1418 SWAP1 PUSH2 0x26DE JUMP JUMPDEST DUP1 ISZERO PUSH2 0x1463 JUMPI DUP1 PUSH1 0x1F LT PUSH2 0x143A JUMPI PUSH2 0x100 DUP1 DUP4 SLOAD DIV MUL DUP4 MSTORE SWAP2 PUSH1 0x20 ADD SWAP2 PUSH2 0x1463 JUMP JUMPDEST DUP3 ADD SWAP2 SWAP1 PUSH0 MSTORE PUSH1 0x20 PUSH0 KECCAK256 SWAP1 JUMPDEST DUP2 SLOAD DUP2 MSTORE SWAP1 PUSH1 0x1 ADD SWAP1 PUSH1 0x20 ADD DUP1 DUP4 GT PUSH2 0x1446 JUMPI DUP3 SWAP1 SUB PUSH1 0x1F AND DUP3 ADD SWAP2 JUMPDEST POP POP POP SWAP2 DUP4 MSTORE POP POP PUSH1 0x2 DUP3 ADD SLOAD PUSH1 0x1 PUSH1 0x1 PUSH1 0xA0 SHL SUB AND PUSH1 0x20 DUP3 ADD MSTORE PUSH1 0x3 DUP3 ADD DUP1 SLOAD PUSH1 0x40 SWAP1 SWAP3 ADD SWAP2 PUSH2 0x1493 SWAP1 PUSH2 0x26DE JUMP JUMPDEST DUP1 PUSH1 0x1F ADD PUSH1 0x20 DUP1 SWAP2 DIV MUL PUSH1 0x20 ADD PUSH1 0x40 MLOAD SWAP1 DUP2 ADD PUSH1 0x40 MSTORE DUP1 SWAP3 SWAP2 SWAP1 DUP2 DUP2 MSTORE PUSH1 0x20 ADD DUP3 DUP1 SLOAD PUSH2 0x14BF SWAP1 PUSH2 0x26DE JUMP JUMPDEST DUP1 ISZERO PUSH2 0x150A JUMPI DUP1 PUSH1 0x1F LT PUSH2 0x14E1 JUMPI PUSH2 0x100 DUP1 DUP4 SLOAD DIV MUL DUP4 MSTORE SWAP2 PUSH1 0x20 ADD SWAP2 PUSH2 0x150A JUMP JUMPDEST DUP3 ADD SWAP2 SWAP1 PUSH0 MSTORE PUSH1 0x20 PUSH0 KECCAK256 SWAP1 JUMPDEST DUP2 SLOAD DUP2 MSTORE SWAP1 PUSH1 0x1 ADD SWAP1 PUSH1 0x20 ADD DUP1 DUP4 GT PUSH2 0x14ED JUMPI DUP3 SWAP1 SUB PUSH1 0x1F AND DUP3 ADD SWAP2 JUMPDEST POP POP POP SWAP2 DUP4 MSTORE POP POP PUSH1 0x4 DUP3 ADD SLOAD PUSH1 0x1 PUSH1 0x1 PUSH1 0xA0 SHL SUB AND PUSH1 0x20 DUP3 ADD MSTORE PUSH1 0x5 DUP3 ADD SLOAD PUSH1 0x40 DUP1 DUP4 ADD SWAP2 SWAP1 SWAP2 MSTORE PUSH1 0x6 SWAP1 SWAP3 ADD SLOAD PUSH1 0xFF AND ISZERO ISZERO PUSH1 0x60 SWAP1 SWAP2 ADD MSTORE DUP2 ADD MLOAD SWAP1 SWAP2 POP PUSH2 0x1555 SWAP1 DUP5 SWAP1 PUSH2 0x20A5 JUMP JUMPDEST PUSH1 0x40 DUP1 DUP3 ADD MLOAD PUSH1 0x1 PUSH1 0x1 PUSH1 0xA0 SHL SUB AND PUSH0 SWAP1 DUP2 MSTORE PUSH1 0x1 PUSH1 0x20 SWAP1 DUP2 MSTORE DUP3 DUP3 KECCAK256 DUP1 SLOAD DUP5 MLOAD DUP2 DUP5 MUL DUP2 ADD DUP5 ADD SWAP1 SWAP6 MSTORE DUP1 DUP6 MSTORE SWAP3 SWAP4 SWAP3 SWAP1 SWAP2 DUP4 ADD DUP3 DUP3 DUP1 ISZERO PUSH2 0x15B5 JUMPI PUSH1 0x20 MUL DUP3 ADD SWAP2 SWAP1 PUSH0 MSTORE PUSH1 0x20 PUSH0 KECCAK256 SWAP1 JUMPDEST DUP2 SLOAD DUP2 MSTORE PUSH1 0x20 ADD SWAP1 PUSH1 0x1 ADD SWAP1 DUP1 DUP4 GT PUSH2 0x15A1 JUMPI JUMPDEST POP POP POP POP POP SWAP1 POP PUSH0 JUMPDEST DUP2 MLOAD DUP2 LT ISZERO PUSH2 0x162F JUMPI DUP5 DUP3 DUP3 DUP2 MLOAD DUP2 LT PUSH2 0x15DA JUMPI PUSH2 0x15DA PUSH2 0x2768 JUMP JUMPDEST PUSH1 0x20 MUL PUSH1 0x20 ADD ADD MLOAD SUB PUSH2 0x161D JUMPI PUSH1 0x40 DUP1 DUP5 ADD MLOAD PUSH1 0x1 PUSH1 0x1 PUSH1 0xA0 SHL SUB AND PUSH0 SWAP1 DUP2 MSTORE PUSH1 0x1 PUSH1 0x20 MSTORE KECCAK256 DUP1 SLOAD DUP3 SWAP1 DUP2 LT PUSH2 0x1612 JUMPI PUSH2 0x1612 PUSH2 0x2768 JUMP JUMPDEST PUSH0 SWAP2 DUP3 MSTORE PUSH1 0x20 DUP3 KECCAK256 ADD SSTORE JUMPDEST DUP1 PUSH2 0x1627 DUP2 PUSH2 0x277C JUMP JUMPDEST SWAP2 POP POP PUSH2 0x15BE JUMP JUMPDEST POP PUSH0 PUSH1 0xC0 DUP4 ADD DUP2 SWAP1 MSTORE PUSH1 0x40 DUP1 DUP5 ADD MLOAD PUSH1 0x1 PUSH1 0x1 PUSH1 0xA0 SHL SUB AND DUP3 MSTORE PUSH1 0x2 PUSH1 0x20 SWAP1 DUP2 MSTORE SWAP1 DUP3 KECCAK256 DUP1 SLOAD PUSH1 0x1 DUP2 ADD DUP3 SSTORE SWAP1 DUP4 MSTORE SWAP2 KECCAK256 DUP4 MLOAD DUP5 SWAP3 PUSH1 0x7 MUL SWAP1 SWAP2 ADD SWAP1 DUP2 SWAP1 PUSH2 0x1677 SWAP1 DUP3 PUSH2 0x27EE JUMP JUMPDEST POP PUSH1 0x20 DUP3 ADD MLOAD PUSH1 0x1 DUP3 ADD SWAP1 PUSH2 0x168C SWAP1 DUP3 PUSH2 0x27EE JUMP JUMPDEST POP PUSH1 0x40 DUP3 ADD MLOAD PUSH1 0x2 DUP3 ADD DUP1 SLOAD PUSH1 0x1 PUSH1 0x1 PUSH1 0xA0 SHL SUB NOT AND PUSH1 0x1 PUSH1 0x1 PUSH1 0xA0 SHL SUB SWAP1 SWAP3 AND SWAP2 SWAP1 SWAP2 OR SWAP1 SSTORE PUSH1 0x60 DUP3 ADD MLOAD PUSH1 0x3 DUP3 ADD SWAP1 PUSH2 0x16C7 SWAP1 DUP3 PUSH2 0x27EE JUMP JUMPDEST POP PUSH1 0x80 DUP3 ADD MLOAD PUSH1 0x4 DUP3 ADD DUP1 SLOAD PUSH1 0x1 PUSH1 0x1 PUSH1 0xA0 SHL SUB NOT AND PUSH1 0x1 PUSH1 0x1 PUSH1 0xA0 SHL SUB SWAP1 SWAP3 AND SWAP2 SWAP1 SWAP2 OR SWAP1 SSTORE PUSH1 0xA0 DUP3 ADD MLOAD PUSH1 0x5 DUP3 ADD SSTORE PUSH1 0xC0 SWAP1 SWAP2 ADD MLOAD PUSH1 0x6 SWAP1 SWAP2 ADD DUP1 SLOAD PUSH1 0xFF NOT AND SWAP2 ISZERO ISZERO SWAP2 SWAP1 SWAP2 OR SWAP1 SSTORE POP PUSH1 0x1 SWAP4 SWAP3 POP POP POP JUMP JUMPDEST PUSH1 0x7 SLOAD PUSH0 SWAP1 PUSH1 0x1 PUSH1 0x1 PUSH1 0xA0 SHL SUB AND CALLER EQ PUSH2 0x1748 JUMPI PUSH1 0x40 MLOAD PUSH3 0x461BCD PUSH1 0xE5 SHL DUP2 MSTORE PUSH1 0x4 ADD PUSH2 0x5B7 SWAP1 PUSH2 0x2716 JUMP JUMPDEST POP PUSH1 0x7 DUP1 SLOAD PUSH1 0xFF PUSH1 0x1 PUSH1 0xA0 SHL DUP1 DUP4 DIV DUP3 AND ISZERO DUP2 MUL PUSH1 0xFF PUSH1 0xA0 SHL NOT SWAP1 SWAP4 AND SWAP3 SWAP1 SWAP3 OR SWAP3 DUP4 SWAP1 SSTORE SWAP2 DIV AND SWAP1 JUMP JUMPDEST PUSH2 0x177B PUSH2 0x22BC JUMP JUMPDEST PUSH1 0x7 SLOAD PUSH1 0x1 PUSH1 0x1 PUSH1 0xA0 SHL SUB AND CALLER EQ PUSH2 0x17A5 JUMPI PUSH1 0x40 MLOAD PUSH3 0x461BCD PUSH1 0xE5 SHL DUP2 MSTORE PUSH1 0x4 ADD PUSH2 0x5B7 SWAP1 PUSH2 0x2716 JUMP JUMPDEST PUSH1 0x1 PUSH1 0x1 PUSH1 0xA0 SHL SUB DUP4 AND PUSH0 SWAP1 DUP2 MSTORE PUSH1 0x2 PUSH1 0x20 SWAP1 DUP2 MSTORE PUSH1 0x40 DUP1 DUP4 KECCAK256 DUP1 SLOAD DUP3 MLOAD DUP2 DUP6 MUL DUP2 ADD DUP6 ADD SWAP1 SWAP4 MSTORE DUP1 DUP4 MSTORE SWAP2 SWAP3 SWAP1 SWAP2 SWAP1 DUP5 SWAP1 DUP5 ADD JUMPDEST DUP3 DUP3 LT ISZERO PUSH2 0x1A02 JUMPI DUP4 DUP3 SWAP1 PUSH0 MSTORE PUSH1 0x20 PUSH0 KECCAK256 SWAP1 PUSH1 0x7 MUL ADD PUSH1 0x40 MLOAD DUP1 PUSH1 0xE0 ADD PUSH1 0x40 MSTORE SWAP1 DUP2 PUSH0 DUP3 ADD DUP1 SLOAD PUSH2 0x180A SWAP1 PUSH2 0x26DE JUMP JUMPDEST DUP1 PUSH1 0x1F ADD PUSH1 0x20 DUP1 SWAP2 DIV MUL PUSH1 0x20 ADD PUSH1 0x40 MLOAD SWAP1 DUP2 ADD PUSH1 0x40 MSTORE DUP1 SWAP3 SWAP2 SWAP1 DUP2 DUP2 MSTORE PUSH1 0x20 ADD DUP3 DUP1 SLOAD PUSH2 0x1836 SWAP1 PUSH2 0x26DE JUMP JUMPDEST DUP1 ISZERO PUSH2 0x1881 JUMPI DUP1 PUSH1 0x1F LT PUSH2 0x1858 JUMPI PUSH2 0x100 DUP1 DUP4 SLOAD DIV MUL DUP4 MSTORE SWAP2 PUSH1 0x20 ADD SWAP2 PUSH2 0x1881 JUMP JUMPDEST DUP3 ADD SWAP2 SWAP1 PUSH0 MSTORE PUSH1 0x20 PUSH0 KECCAK256 SWAP1 JUMPDEST DUP2 SLOAD DUP2 MSTORE SWAP1 PUSH1 0x1 ADD SWAP1 PUSH1 0x20 ADD DUP1 DUP4 GT PUSH2 0x1864 JUMPI DUP3 SWAP1 SUB PUSH1 0x1F AND DUP3 ADD SWAP2 JUMPDEST POP POP POP POP POP DUP2 MSTORE PUSH1 0x20 ADD PUSH1 0x1 DUP3 ADD DUP1 SLOAD PUSH2 0x189A SWAP1 PUSH2 0x26DE JUMP JUMPDEST DUP1 PUSH1 0x1F ADD PUSH1 0x20 DUP1 SWAP2 DIV MUL PUSH1 0x20 ADD PUSH1 0x40 MLOAD SWAP1 DUP2 ADD PUSH1 0x40 MSTORE DUP1 SWAP3 SWAP2 SWAP1 DUP2 DUP2 MSTORE PUSH1 0x20 ADD DUP3 DUP1 SLOAD PUSH2 0x18C6 SWAP1 PUSH2 0x26DE JUMP JUMPDEST DUP1 ISZERO PUSH2 0x1911 JUMPI DUP1 PUSH1 0x1F LT PUSH2 0x18E8 JUMPI PUSH2 0x100 DUP1 DUP4 SLOAD DIV MUL DUP4 MSTORE SWAP2 PUSH1 0x20 ADD SWAP2 PUSH2 0x1911 JUMP JUMPDEST DUP3 ADD SWAP2 SWAP1 PUSH0 MSTORE PUSH1 0x20 PUSH0 KECCAK256 SWAP1 JUMPDEST DUP2 SLOAD DUP2 MSTORE SWAP1 PUSH1 0x1 ADD SWAP1 PUSH1 0x20 ADD DUP1 DUP4 GT PUSH2 0x18F4 JUMPI DUP3 SWAP1 SUB PUSH1 0x1F AND DUP3 ADD SWAP2 JUMPDEST POP POP POP SWAP2 DUP4 MSTORE POP POP PUSH1 0x2 DUP3 ADD SLOAD PUSH1 0x1 PUSH1 0x1 PUSH1 0xA0 SHL SUB AND PUSH1 0x20 DUP3 ADD MSTORE PUSH1 0x3 DUP3 ADD DUP1 SLOAD PUSH1 0x40 SWAP1 SWAP3 ADD SWAP2 PUSH2 0x1941 SWAP1 PUSH2 0x26DE JUMP JUMPDEST DUP1 PUSH1 0x1F ADD PUSH1 0x20 DUP1 SWAP2 DIV MUL PUSH1 0x20 ADD PUSH1 0x40 MLOAD SWAP1 DUP2 ADD PUSH1 0x40 MSTORE DUP1 SWAP3 SWAP2 SWAP1 DUP2 DUP2 MSTORE PUSH1 0x20 ADD DUP3 DUP1 SLOAD PUSH2 0x196D SWAP1 PUSH2 0x26DE JUMP JUMPDEST DUP1 ISZERO PUSH2 0x19B8 JUMPI DUP1 PUSH1 0x1F LT PUSH2 0x198F JUMPI PUSH2 0x100 DUP1 DUP4 SLOAD DIV MUL DUP4 MSTORE SWAP2 PUSH1 0x20 ADD SWAP2 PUSH2 0x19B8 JUMP JUMPDEST DUP3 ADD SWAP2 SWAP1 PUSH0 MSTORE PUSH1 0x20 PUSH0 KECCAK256 SWAP1 JUMPDEST DUP2 SLOAD DUP2 MSTORE SWAP1 PUSH1 0x1 ADD SWAP1 PUSH1 0x20 ADD DUP1 DUP4 GT PUSH2 0x199B JUMPI DUP3 SWAP1 SUB PUSH1 0x1F AND DUP3 ADD SWAP2 JUMPDEST POP POP POP SWAP2 DUP4 MSTORE POP POP PUSH1 0x4 DUP3 ADD SLOAD PUSH1 0x1 PUSH1 0x1 PUSH1 0xA0 SHL SUB AND PUSH1 0x20 DUP1 DUP4 ADD SWAP2 SWAP1 SWAP2 MSTORE PUSH1 0x5 DUP4 ADD SLOAD PUSH1 0x40 DUP4 ADD MSTORE PUSH1 0x6 SWAP1 SWAP3 ADD SLOAD PUSH1 0xFF AND ISZERO ISZERO PUSH1 0x60 SWAP1 SWAP2 ADD MSTORE SWAP1 DUP3 MSTORE PUSH1 0x1 SWAP3 SWAP1 SWAP3 ADD SWAP2 ADD PUSH2 0x17DA JUMP JUMPDEST POP POP POP POP SWAP1 POP PUSH0 JUMPDEST DUP2 MLOAD DUP2 LT ISZERO PUSH2 0x1A6C JUMPI DUP4 DUP3 DUP3 DUP2 MLOAD DUP2 LT PUSH2 0x1A26 JUMPI PUSH2 0x1A26 PUSH2 0x2768 JUMP JUMPDEST PUSH1 0x20 MUL PUSH1 0x20 ADD ADD MLOAD PUSH1 0xA0 ADD MLOAD SUB PUSH2 0x1A5A JUMPI DUP2 DUP2 DUP2 MLOAD DUP2 LT PUSH2 0x1A49 JUMPI PUSH2 0x1A49 PUSH2 0x2768 JUMP JUMPDEST PUSH1 0x20 MUL PUSH1 0x20 ADD ADD MLOAD SWAP3 POP POP POP PUSH2 0x5C0 JUMP JUMPDEST DUP1 PUSH2 0x1A64 DUP2 PUSH2 0x277C JUMP JUMPDEST SWAP2 POP POP PUSH2 0x1A0A JUMP JUMPDEST POP POP SWAP3 SWAP2 POP POP JUMP JUMPDEST PUSH1 0x7 SLOAD PUSH0 SWAP1 PUSH1 0x1 PUSH1 0x1 PUSH1 0xA0 SHL SUB AND CALLER EQ PUSH2 0x1AA0 JUMPI PUSH1 0x40 MLOAD PUSH3 0x461BCD PUSH1 0xE5 SHL DUP2 MSTORE PUSH1 0x4 ADD PUSH2 0x5B7 SWAP1 PUSH2 0x2716 JUMP JUMPDEST DUP6 DUP6 DUP6 DUP6 DUP6 PUSH1 0x40 MLOAD PUSH1 0x20 ADD PUSH2 0x1AB9 SWAP6 SWAP5 SWAP4 SWAP3 SWAP2 SWAP1 PUSH2 0x28AA JUMP JUMPDEST PUSH1 0x40 MLOAD PUSH1 0x20 DUP2 DUP4 SUB SUB DUP2 MSTORE SWAP1 PUSH1 0x40 MSTORE DUP1 MLOAD SWAP1 PUSH1 0x20 ADD KECCAK256 SWAP1 POP SWAP6 SWAP5 POP POP POP POP POP JUMP JUMPDEST PUSH1 0x7 SLOAD PUSH0 SWAP1 PUSH1 0x1 PUSH1 0x1 PUSH1 0xA0 SHL SUB AND CALLER EQ PUSH2 0x1B06 JUMPI PUSH1 0x40 MLOAD PUSH3 0x461BCD PUSH1 0xE5 SHL DUP2 MSTORE PUSH1 0x4 ADD PUSH2 0x5B7 SWAP1 PUSH2 0x2716 JUMP JUMPDEST PUSH1 0xA0 DUP3 ADD MLOAD PUSH0 SWAP1 DUP2 MSTORE PUSH1 0x20 DUP2 SWAP1 MSTORE PUSH1 0x40 DUP1 DUP3 KECCAK256 DUP2 MLOAD PUSH1 0xE0 DUP2 ADD SWAP1 SWAP3 MSTORE DUP1 SLOAD DUP3 SWAP1 DUP3 SWAP1 PUSH2 0x1B31 SWAP1 PUSH2 0x26DE JUMP JUMPDEST DUP1 PUSH1 0x1F ADD PUSH1 0x20 DUP1 SWAP2 DIV MUL PUSH1 0x20 ADD PUSH1 0x40 MLOAD SWAP1 DUP2 ADD PUSH1 0x40 MSTORE DUP1 SWAP3 SWAP2 SWAP1 DUP2 DUP2 MSTORE PUSH1 0x20 ADD DUP3 DUP1 SLOAD PUSH2 0x1B5D SWAP1 PUSH2 0x26DE JUMP JUMPDEST DUP1 ISZERO PUSH2 0x1BA8 JUMPI DUP1 PUSH1 0x1F LT PUSH2 0x1B7F JUMPI PUSH2 0x100 DUP1 DUP4 SLOAD DIV MUL DUP4 MSTORE SWAP2 PUSH1 0x20 ADD SWAP2 PUSH2 0x1BA8 JUMP JUMPDEST DUP3 ADD SWAP2 SWAP1 PUSH0 MSTORE PUSH1 0x20 PUSH0 KECCAK256 SWAP1 JUMPDEST DUP2 SLOAD DUP2 MSTORE SWAP1 PUSH1 0x1 ADD SWAP1 PUSH1 0x20 ADD DUP1 DUP4 GT PUSH2 0x1B8B JUMPI DUP3 SWAP1 SUB PUSH1 0x1F AND DUP3 ADD SWAP2 JUMPDEST POP POP POP POP POP DUP2 MSTORE PUSH1 0x20 ADD PUSH1 0x1 DUP3 ADD DUP1 SLOAD PUSH2 0x1BC1 SWAP1 PUSH2 0x26DE JUMP JUMPDEST DUP1 PUSH1 0x1F ADD PUSH1 0x20 DUP1 SWAP2 DIV MUL PUSH1 0x20 ADD PUSH1 0x40 MLOAD SWAP1 DUP2 ADD PUSH1 0x40 MSTORE DUP1 SWAP3 SWAP2 SWAP1 DUP2 DUP2 MSTORE PUSH1 0x20 ADD DUP3 DUP1 SLOAD PUSH2 0x1BED SWAP1 PUSH2 0x26DE JUMP JUMPDEST DUP1 ISZERO PUSH2 0x1C38 JUMPI DUP1 PUSH1 0x1F LT PUSH2 0x1C0F JUMPI PUSH2 0x100 DUP1 DUP4 SLOAD DIV MUL DUP4 MSTORE SWAP2 PUSH1 0x20 ADD SWAP2 PUSH2 0x1C38 JUMP JUMPDEST DUP3 ADD SWAP2 SWAP1 PUSH0 MSTORE PUSH1 0x20 PUSH0 KECCAK256 SWAP1 JUMPDEST DUP2 SLOAD DUP2 MSTORE SWAP1 PUSH1 0x1 ADD SWAP1 PUSH1 0x20 ADD DUP1 DUP4 GT PUSH2 0x1C1B JUMPI DUP3 SWAP1 SUB PUSH1 0x1F AND DUP3 ADD SWAP2 JUMPDEST POP POP POP SWAP2 DUP4 MSTORE POP POP PUSH1 0x2 DUP3 ADD SLOAD PUSH1 0x1 PUSH1 0x1 PUSH1 0xA0 SHL SUB AND PUSH1 0x20 DUP3 ADD MSTORE PUSH1 0x3 DUP3 ADD DUP1 SLOAD PUSH1 0x40 SWAP1 SWAP3 ADD SWAP2 PUSH2 0x1C68 SWAP1 PUSH2 0x26DE JUMP JUMPDEST DUP1 PUSH1 0x1F ADD PUSH1 0x20 DUP1 SWAP2 DIV MUL PUSH1 0x20 ADD PUSH1 0x40 MLOAD SWAP1 DUP2 ADD PUSH1 0x40 MSTORE DUP1 SWAP3 SWAP2 SWAP1 DUP2 DUP2 MSTORE PUSH1 0x20 ADD DUP3 DUP1 SLOAD PUSH2 0x1C94 SWAP1 PUSH2 0x26DE JUMP JUMPDEST DUP1 ISZERO PUSH2 0x1CDF JUMPI DUP1 PUSH1 0x1F LT PUSH2 0x1CB6 JUMPI PUSH2 0x100 DUP1 DUP4 SLOAD DIV MUL DUP4 MSTORE SWAP2 PUSH1 0x20 ADD SWAP2 PUSH2 0x1CDF JUMP JUMPDEST DUP3 ADD SWAP2 SWAP1 PUSH0 MSTORE PUSH1 0x20 PUSH0 KECCAK256 SWAP1 JUMPDEST DUP2 SLOAD DUP2 MSTORE SWAP1 PUSH1 0x1 ADD SWAP1 PUSH1 0x20 ADD DUP1 DUP4 GT PUSH2 0x1CC2 JUMPI DUP3 SWAP1 SUB PUSH1 0x1F AND DUP3 ADD SWAP2 JUMPDEST POP POP POP SWAP2 DUP4 MSTORE POP POP PUSH1 0x4 DUP3 ADD SLOAD PUSH1 0x1 PUSH1 0x1 PUSH1 0xA0 SHL SUB AND PUSH1 0x20 DUP3 ADD MSTORE PUSH1 0x5 DUP3 ADD SLOAD PUSH1 0x40 DUP3 ADD MSTORE PUSH1 0x6 SWAP1 SWAP2 ADD SLOAD PUSH1 0xFF AND ISZERO ISZERO PUSH1 0x60 SWAP1 SWAP2 ADD MSTORE PUSH1 0xC0 DUP2 ADD MLOAD SWAP1 SWAP2 POP ISZERO ISZERO PUSH1 0x1 SUB PUSH2 0x1D66 JUMPI PUSH1 0x40 MLOAD PUSH3 0x461BCD PUSH1 0xE5 SHL DUP2 MSTORE PUSH1 0x20 PUSH1 0x4 DUP3 ADD MSTORE PUSH1 0x15 PUSH1 0x24 DUP3 ADD MSTORE PUSH21 0x4C6963656E736520416C7265647920457869737473 PUSH1 0x58 SHL PUSH1 0x44 DUP3 ADD MSTORE PUSH1 0x64 ADD PUSH2 0x5B7 JUMP JUMPDEST PUSH1 0x40 DUP1 DUP5 ADD MLOAD PUSH1 0x1 PUSH1 0x1 PUSH1 0xA0 SHL SUB AND PUSH0 SWAP1 DUP2 MSTORE PUSH1 0x1 PUSH1 0x20 SWAP1 DUP2 MSTORE DUP3 DUP3 KECCAK256 DUP1 SLOAD DUP5 MLOAD DUP2 DUP5 MUL DUP2 ADD DUP5 ADD SWAP1 SWAP6 MSTORE DUP1 DUP6 MSTORE SWAP3 SWAP4 SWAP3 SWAP1 SWAP2 DUP4 ADD DUP3 DUP3 DUP1 ISZERO PUSH2 0x1DC6 JUMPI PUSH1 0x20 MUL DUP3 ADD SWAP2 SWAP1 PUSH0 MSTORE PUSH1 0x20 PUSH0 KECCAK256 SWAP1 JUMPDEST DUP2 SLOAD DUP2 MSTORE PUSH1 0x20 ADD SWAP1 PUSH1 0x1 ADD SWAP1 DUP1 DUP4 GT PUSH2 0x1DB2 JUMPI JUMPDEST POP POP POP POP POP SWAP1 POP PUSH0 JUMPDEST DUP2 MLOAD DUP2 LT ISZERO PUSH2 0x2091 JUMPI PUSH0 DUP1 DUP4 DUP4 DUP2 MLOAD DUP2 LT PUSH2 0x1DEC JUMPI PUSH2 0x1DEC PUSH2 0x2768 JUMP JUMPDEST PUSH1 0x20 MUL PUSH1 0x20 ADD ADD MLOAD DUP2 MSTORE PUSH1 0x20 ADD SWAP1 DUP2 MSTORE PUSH1 0x20 ADD PUSH0 KECCAK256 PUSH1 0x40 MLOAD DUP1 PUSH1 0xE0 ADD PUSH1 0x40 MSTORE SWAP1 DUP2 PUSH0 DUP3 ADD DUP1 SLOAD PUSH2 0x1E1B SWAP1 PUSH2 0x26DE JUMP JUMPDEST DUP1 PUSH1 0x1F ADD PUSH1 0x20 DUP1 SWAP2 DIV MUL PUSH1 0x20 ADD PUSH1 0x40 MLOAD SWAP1 DUP2 ADD PUSH1 0x40 MSTORE DUP1 SWAP3 SWAP2 SWAP1 DUP2 DUP2 MSTORE PUSH1 0x20 ADD DUP3 DUP1 SLOAD PUSH2 0x1E47 SWAP1 PUSH2 0x26DE JUMP JUMPDEST DUP1 ISZERO PUSH2 0x1E92 JUMPI DUP1 PUSH1 0x1F LT PUSH2 0x1E69 JUMPI PUSH2 0x100 DUP1 DUP4 SLOAD DIV MUL DUP4 MSTORE SWAP2 PUSH1 0x20 ADD SWAP2 PUSH2 0x1E92 JUMP JUMPDEST DUP3 ADD SWAP2 SWAP1 PUSH0 MSTORE PUSH1 0x20 PUSH0 KECCAK256 SWAP1 JUMPDEST DUP2 SLOAD DUP2 MSTORE SWAP1 PUSH1 0x1 ADD SWAP1 PUSH1 0x20 ADD DUP1 DUP4 GT PUSH2 0x1E75 JUMPI DUP3 SWAP1 SUB PUSH1 0x1F AND DUP3 ADD SWAP2 JUMPDEST POP POP POP POP POP DUP2 MSTORE PUSH1 0x20 ADD PUSH1 0x1 DUP3 ADD DUP1 SLOAD PUSH2 0x1EAB SWAP1 PUSH2 0x26DE JUMP JUMPDEST DUP1 PUSH1 0x1F ADD PUSH1 0x20 DUP1 SWAP2 DIV MUL PUSH1 0x20 ADD PUSH1 0x40 MLOAD SWAP1 DUP2 ADD PUSH1 0x40 MSTORE DUP1 SWAP3 SWAP2 SWAP1 DUP2 DUP2 MSTORE PUSH1 0x20 ADD DUP3 DUP1 SLOAD PUSH2 0x1ED7 SWAP1 PUSH2 0x26DE JUMP JUMPDEST DUP1 ISZERO PUSH2 0x1F22 JUMPI DUP1 PUSH1 0x1F LT PUSH2 0x1EF9 JUMPI PUSH2 0x100 DUP1 DUP4 SLOAD DIV MUL DUP4 MSTORE SWAP2 PUSH1 0x20 ADD SWAP2 PUSH2 0x1F22 JUMP JUMPDEST DUP3 ADD SWAP2 SWAP1 PUSH0 MSTORE PUSH1 0x20 PUSH0 KECCAK256 SWAP1 JUMPDEST DUP2 SLOAD DUP2 MSTORE SWAP1 PUSH1 0x1 ADD SWAP1 PUSH1 0x20 ADD DUP1 DUP4 GT PUSH2 0x1F05 JUMPI DUP3 SWAP1 SUB PUSH1 0x1F AND DUP3 ADD SWAP2 JUMPDEST POP POP POP SWAP2 DUP4 MSTORE POP POP PUSH1 0x2 DUP3 ADD SLOAD PUSH1 0x1 PUSH1 0x1 PUSH1 0xA0 SHL SUB AND PUSH1 0x20 DUP3 ADD MSTORE PUSH1 0x3 DUP3 ADD DUP1 SLOAD PUSH1 0x40 SWAP1 SWAP3 ADD SWAP2 PUSH2 0x1F52 SWAP1 PUSH2 0x26DE JUMP JUMPDEST DUP1 PUSH1 0x1F ADD PUSH1 0x20 DUP1 SWAP2 DIV MUL PUSH1 0x20 ADD PUSH1 0x40 MLOAD SWAP1 DUP2 ADD PUSH1 0x40 MSTORE DUP1 SWAP3 SWAP2 SWAP1 DUP2 DUP2 MSTORE PUSH1 0x20 ADD DUP3 DUP1 SLOAD PUSH2 0x1F7E SWAP1 PUSH2 0x26DE JUMP JUMPDEST DUP1 ISZERO PUSH2 0x1FC9 JUMPI DUP1 PUSH1 0x1F LT PUSH2 0x1FA0 JUMPI PUSH2 0x100 DUP1 DUP4 SLOAD DIV MUL DUP4 MSTORE SWAP2 PUSH1 0x20 ADD SWAP2 PUSH2 0x1FC9 JUMP JUMPDEST DUP3 ADD SWAP2 SWAP1 PUSH0 MSTORE PUSH1 0x20 PUSH0 KECCAK256 SWAP1 JUMPDEST DUP2 SLOAD DUP2 MSTORE SWAP1 PUSH1 0x1 ADD SWAP1 PUSH1 0x20 ADD DUP1 DUP4 GT PUSH2 0x1FAC JUMPI DUP3 SWAP1 SUB PUSH1 0x1F AND DUP3 ADD SWAP2 JUMPDEST POP POP POP SWAP2 DUP4 MSTORE POP POP PUSH1 0x4 DUP3 ADD SLOAD PUSH1 0x1 PUSH1 0x1 PUSH1 0xA0 SHL SUB AND PUSH1 0x20 DUP1 DUP4 ADD SWAP2 SWAP1 SWAP2 MSTORE PUSH1 0x5 DUP4 ADD SLOAD PUSH1 0x40 DUP4 ADD MSTORE PUSH1 0x6 SWAP1 SWAP3 ADD SLOAD PUSH1 0xFF AND ISZERO ISZERO PUSH1 0x60 SWAP1 SWAP2 ADD MSTORE DUP7 DUP2 ADD MLOAD DUP1 MLOAD SWAP1 DUP3 ADD KECCAK256 DUP3 DUP3 ADD MLOAD DUP1 MLOAD SWAP3 ADD SWAP2 SWAP1 SWAP2 KECCAK256 SWAP2 SWAP5 POP SWAP1 SUB PUSH2 0x207F JUMPI PUSH2 0x2049 DUP3 DUP3 DUP2 MLOAD DUP2 LT PUSH2 0x2037 JUMPI PUSH2 0x2037 PUSH2 0x2768 JUMP JUMPDEST PUSH1 0x20 MUL PUSH1 0x20 ADD ADD MLOAD DUP7 PUSH1 0x40 ADD MLOAD PUSH2 0x20A5 JUMP JUMPDEST PUSH1 0x40 DUP1 DUP7 ADD MLOAD PUSH1 0x1 PUSH1 0x1 PUSH1 0xA0 SHL SUB AND PUSH0 SWAP1 DUP2 MSTORE PUSH1 0x1 PUSH1 0x20 MSTORE KECCAK256 DUP1 SLOAD DUP3 SWAP1 DUP2 LT PUSH2 0x2074 JUMPI PUSH2 0x2074 PUSH2 0x2768 JUMP JUMPDEST PUSH0 SWAP2 DUP3 MSTORE PUSH1 0x20 DUP3 KECCAK256 ADD SSTORE JUMPDEST DUP1 PUSH2 0x2089 DUP2 PUSH2 0x277C JUMP JUMPDEST SWAP2 POP POP PUSH2 0x1DCF JUMP JUMPDEST POP PUSH2 0x209B DUP5 PUSH2 0x2169 JUMP JUMPDEST POP PUSH1 0x1 SWAP4 SWAP3 POP POP POP JUMP JUMPDEST CALLER PUSH0 SWAP1 DUP2 MSTORE PUSH1 0x4 PUSH1 0x20 MSTORE PUSH1 0x40 SWAP1 KECCAK256 SLOAD PUSH1 0xFF AND PUSH2 0x20BF JUMPI PUSH0 DUP1 REVERT JUMPDEST PUSH0 DUP3 DUP2 MSTORE PUSH1 0x20 DUP2 SWAP1 MSTORE PUSH1 0x40 DUP2 KECCAK256 SWAP1 PUSH2 0x20D7 DUP3 DUP3 PUSH2 0x22F6 JUMP JUMPDEST PUSH2 0x20E4 PUSH1 0x1 DUP4 ADD PUSH0 PUSH2 0x22F6 JUMP JUMPDEST PUSH1 0x2 DUP3 ADD DUP1 SLOAD PUSH1 0x1 PUSH1 0x1 PUSH1 0xA0 SHL SUB NOT AND SWAP1 SSTORE PUSH2 0x2103 PUSH1 0x3 DUP4 ADD PUSH0 PUSH2 0x22F6 JUMP JUMPDEST POP PUSH1 0x4 DUP2 ADD DUP1 SLOAD PUSH1 0x1 PUSH1 0x1 PUSH1 0xA0 SHL SUB NOT AND SWAP1 SSTORE PUSH0 PUSH1 0x5 DUP3 ADD SSTORE PUSH1 0x6 ADD DUP1 SLOAD PUSH1 0xFF NOT AND SWAP1 SSTORE PUSH1 0x40 MLOAD DUP3 DUP2 MSTORE PUSH1 0x1 PUSH1 0x1 PUSH1 0xA0 SHL SUB DUP3 AND SWAP1 PUSH32 0xFBA9AEB04FD7E91A1CB29583E8D8BB97D3874361CC1F0B29F6E33F6D3047D8CF SWAP1 PUSH1 0x20 ADD PUSH1 0x40 MLOAD DUP1 SWAP2 SUB SWAP1 LOG2 POP POP JUMP JUMPDEST PUSH1 0x7 SLOAD PUSH1 0x1 PUSH1 0x1 PUSH1 0xA0 SHL SUB AND CALLER EQ PUSH2 0x2193 JUMPI PUSH1 0x40 MLOAD PUSH3 0x461BCD PUSH1 0xE5 SHL DUP2 MSTORE PUSH1 0x4 ADD PUSH2 0x5B7 SWAP1 PUSH2 0x2716 JUMP JUMPDEST PUSH1 0xA0 DUP2 ADD MLOAD PUSH0 SWAP1 DUP2 MSTORE PUSH1 0x20 DUP2 SWAP1 MSTORE PUSH1 0x40 SWAP1 KECCAK256 DUP2 MLOAD DUP3 SWAP2 SWAP1 DUP2 SWAP1 PUSH2 0x21B6 SWAP1 DUP3 PUSH2 0x27EE JUMP JUMPDEST POP PUSH1 0x20 DUP3 ADD MLOAD PUSH1 0x1 DUP3 ADD SWAP1 PUSH2 0x21CB SWAP1 DUP3 PUSH2 0x27EE JUMP JUMPDEST POP PUSH1 0x40 DUP3 ADD MLOAD PUSH1 0x2 DUP3 ADD DUP1 SLOAD PUSH1 0x1 PUSH1 0x1 PUSH1 0xA0 SHL SUB NOT AND PUSH1 0x1 PUSH1 0x1 PUSH1 0xA0 SHL SUB SWAP1 SWAP3 AND SWAP2 SWAP1 SWAP2 OR SWAP1 SSTORE PUSH1 0x60 DUP3 ADD MLOAD PUSH1 0x3 DUP3 ADD SWAP1 PUSH2 0x2206 SWAP1 DUP3 PUSH2 0x27EE JUMP JUMPDEST POP PUSH1 0x80 DUP3 ADD MLOAD PUSH1 0x4 DUP3 ADD DUP1 SLOAD PUSH1 0x1 PUSH1 0x1 PUSH1 0xA0 SHL SUB NOT AND PUSH1 0x1 PUSH1 0x1 PUSH1 0xA0 SHL SUB SWAP3 DUP4 AND OR SWAP1 SSTORE PUSH1 0xA0 DUP1 DUP5 ADD MLOAD PUSH1 0x5 DUP5 ADD SSTORE PUSH1 0xC0 SWAP1 SWAP4 ADD MLOAD PUSH1 0x6 SWAP1 SWAP3 ADD DUP1 SLOAD PUSH1 0xFF NOT AND SWAP3 ISZERO ISZERO SWAP3 SWAP1 SWAP3 OR SWAP1 SWAP2 SSTORE PUSH1 0x40 DUP4 DUP2 ADD DUP1 MLOAD DUP4 AND PUSH0 SWAP1 DUP2 MSTORE PUSH1 0x1 PUSH1 0x20 DUP2 DUP2 MSTORE DUP5 DUP4 KECCAK256 SWAP7 DUP9 ADD DUP1 MLOAD DUP9 SLOAD SWAP4 DUP5 ADD DUP10 SSTORE SWAP8 DUP5 MSTORE SWAP3 DUP2 SWAP1 KECCAK256 SWAP1 SWAP2 ADD SWAP6 SWAP1 SWAP6 SSTORE SWAP1 MLOAD SWAP1 MLOAD SWAP2 MLOAD SWAP2 DUP3 MSTORE SWAP1 SWAP2 AND SWAP2 PUSH32 0x88B059E42378123793B6B50C667570312662BFBE8C07098828E5639754FA1E5B SWAP2 ADD PUSH1 0x40 MLOAD DUP1 SWAP2 SUB SWAP1 LOG2 POP JUMP JUMPDEST PUSH1 0x40 DUP1 MLOAD PUSH1 0xE0 DUP2 ADD DUP3 MSTORE PUSH1 0x60 DUP1 DUP3 MSTORE PUSH1 0x20 DUP3 ADD DUP2 SWAP1 MSTORE PUSH0 SWAP3 DUP3 ADD DUP4 SWAP1 MSTORE DUP1 DUP3 ADD MSTORE PUSH1 0x80 DUP2 ADD DUP3 SWAP1 MSTORE PUSH1 0xA0 DUP2 ADD DUP3 SWAP1 MSTORE PUSH1 0xC0 DUP2 ADD SWAP2 SWAP1 SWAP2 MSTORE SWAP1 JUMP JUMPDEST POP DUP1 SLOAD PUSH2 0x2302 SWAP1 PUSH2 0x26DE JUMP JUMPDEST PUSH0 DUP3 SSTORE DUP1 PUSH1 0x1F LT PUSH2 0x2311 JUMPI POP POP JUMP JUMPDEST PUSH1 0x1F ADD PUSH1 0x20 SWAP1 DIV SWAP1 PUSH0 MSTORE PUSH1 0x20 PUSH0 KECCAK256 SWAP1 DUP2 ADD SWAP1 PUSH2 0x232D SWAP2 SWAP1 PUSH2 0x2330 JUMP JUMPDEST POP JUMP JUMPDEST JUMPDEST DUP1 DUP3 GT ISZERO PUSH2 0x2344 JUMPI PUSH0 DUP2 SSTORE PUSH1 0x1 ADD PUSH2 0x2331 JUMP JUMPDEST POP SWAP1 JUMP JUMPDEST PUSH0 PUSH1 0x20 DUP3 DUP5 SUB SLT ISZERO PUSH2 0x2358 JUMPI PUSH0 DUP1 REVERT JUMPDEST POP CALLDATALOAD SWAP2 SWAP1 POP JUMP JUMPDEST PUSH0 JUMPDEST DUP4 DUP2 LT ISZERO PUSH2 0x2379 JUMPI DUP2 DUP2 ADD MLOAD DUP4 DUP3 ADD MSTORE PUSH1 0x20 ADD PUSH2 0x2361 JUMP JUMPDEST POP POP PUSH0 SWAP2 ADD MSTORE JUMP JUMPDEST PUSH0 DUP2 MLOAD DUP1 DUP5 MSTORE PUSH2 0x2398 DUP2 PUSH1 0x20 DUP7 ADD PUSH1 0x20 DUP7 ADD PUSH2 0x235F JUMP JUMPDEST PUSH1 0x1F ADD PUSH1 0x1F NOT AND SWAP3 SWAP1 SWAP3 ADD PUSH1 0x20 ADD SWAP3 SWAP2 POP POP JUMP JUMPDEST PUSH1 0x20 DUP2 MSTORE PUSH0 DUP3 MLOAD PUSH1 0xE0 PUSH1 0x20 DUP5 ADD MSTORE PUSH2 0x23C8 PUSH2 0x100 DUP5 ADD DUP3 PUSH2 0x2381 JUMP JUMPDEST SWAP1 POP PUSH1 0x20 DUP5 ADD MLOAD PUSH1 0x1F NOT DUP1 DUP6 DUP5 SUB ADD PUSH1 0x40 DUP7 ADD MSTORE PUSH2 0x23E6 DUP4 DUP4 PUSH2 0x2381 JUMP JUMPDEST PUSH1 0x40 DUP8 ADD MLOAD PUSH1 0x1 PUSH1 0x1 PUSH1 0xA0 SHL SUB SWAP1 DUP2 AND PUSH1 0x60 DUP9 DUP2 ADD SWAP2 SWAP1 SWAP2 MSTORE DUP9 ADD MLOAD DUP8 DUP4 SUB DUP5 ADD PUSH1 0x80 DUP10 ADD MSTORE SWAP2 SWAP5 POP SWAP1 SWAP3 POP PUSH2 0x241C DUP5 DUP5 PUSH2 0x2381 JUMP JUMPDEST SWAP4 POP DUP1 PUSH1 0x80 DUP9 ADD MLOAD AND PUSH1 0xA0 DUP8 ADD MSTORE POP POP POP PUSH1 0xA0 DUP5 ADD MLOAD PUSH1 0xC0 DUP5 ADD MSTORE PUSH1 0xC0 DUP5 ADD MLOAD PUSH2 0x244A PUSH1 0xE0 DUP6 ADD DUP3 ISZERO ISZERO SWAP1 MSTORE JUMP JUMPDEST POP SWAP4 SWAP3 POP POP POP JUMP JUMPDEST DUP1 CALLDATALOAD PUSH1 0x1 PUSH1 0x1 PUSH1 0xA0 SHL SUB DUP2 AND DUP2 EQ PUSH2 0x668 JUMPI PUSH0 DUP1 REVERT JUMPDEST PUSH0 PUSH1 0x20 DUP3 DUP5 SUB SLT ISZERO PUSH2 0x2478 JUMPI PUSH0 DUP1 REVERT JUMPDEST PUSH2 0x2481 DUP3 PUSH2 0x2452 JUMP JUMPDEST SWAP4 SWAP3 POP POP POP JUMP JUMPDEST PUSH1 0x20 DUP1 DUP3 MSTORE DUP3 MLOAD DUP3 DUP3 ADD DUP2 SWAP1 MSTORE PUSH0 SWAP2 SWAP1 DUP5 DUP3 ADD SWAP1 PUSH1 0x40 DUP6 ADD SWAP1 DUP5 JUMPDEST DUP2 DUP2 LT ISZERO PUSH2 0x24BF JUMPI DUP4 MLOAD DUP4 MSTORE SWAP3 DUP5 ADD SWAP3 SWAP2 DUP5 ADD SWAP2 PUSH1 0x1 ADD PUSH2 0x24A3 JUMP JUMPDEST POP SWAP1 SWAP7 SWAP6 POP POP POP POP POP POP JUMP JUMPDEST PUSH4 0x4E487B71 PUSH1 0xE0 SHL PUSH0 MSTORE PUSH1 0x41 PUSH1 0x4 MSTORE PUSH1 0x24 PUSH0 REVERT JUMPDEST PUSH0 DUP3 PUSH1 0x1F DUP4 ADD SLT PUSH2 0x24EE JUMPI PUSH0 DUP1 REVERT JUMPDEST DUP2 CALLDATALOAD PUSH8 0xFFFFFFFFFFFFFFFF DUP1 DUP3 GT ISZERO PUSH2 0x2509 JUMPI PUSH2 0x2509 PUSH2 0x24CB JUMP JUMPDEST PUSH1 0x40 MLOAD PUSH1 0x1F DUP4 ADD PUSH1 0x1F NOT SWAP1 DUP2 AND PUSH1 0x3F ADD AND DUP2 ADD SWAP1 DUP3 DUP3 GT DUP2 DUP4 LT OR ISZERO PUSH2 0x2531 JUMPI PUSH2 0x2531 PUSH2 0x24CB JUMP JUMPDEST DUP2 PUSH1 0x40 MSTORE DUP4 DUP2 MSTORE DUP7 PUSH1 0x20 DUP6 DUP9 ADD ADD GT ISZERO PUSH2 0x2549 JUMPI PUSH0 DUP1 REVERT JUMPDEST DUP4 PUSH1 0x20 DUP8 ADD PUSH1 0x20 DUP4 ADD CALLDATACOPY PUSH0 PUSH1 0x20 DUP6 DUP4 ADD ADD MSTORE DUP1 SWAP5 POP POP POP POP POP SWAP3 SWAP2 POP POP JUMP JUMPDEST PUSH0 DUP1 PUSH0 DUP1 PUSH0 PUSH1 0xA0 DUP7 DUP9 SUB SLT ISZERO PUSH2 0x257C JUMPI PUSH0 DUP1 REVERT JUMPDEST DUP6 CALLDATALOAD PUSH8 0xFFFFFFFFFFFFFFFF DUP1 DUP3 GT ISZERO PUSH2 0x2593 JUMPI PUSH0 DUP1 REVERT JUMPDEST PUSH2 0x259F DUP10 DUP4 DUP11 ADD PUSH2 0x24DF JUMP JUMPDEST SWAP7 POP PUSH1 0x20 DUP9 ADD CALLDATALOAD SWAP2 POP DUP1 DUP3 GT ISZERO PUSH2 0x25B4 JUMPI PUSH0 DUP1 REVERT JUMPDEST PUSH2 0x25C0 DUP10 DUP4 DUP11 ADD PUSH2 0x24DF JUMP JUMPDEST SWAP6 POP PUSH1 0x40 DUP9 ADD CALLDATALOAD SWAP2 POP DUP1 DUP3 GT ISZERO PUSH2 0x25D5 JUMPI PUSH0 DUP1 REVERT JUMPDEST PUSH2 0x25E1 DUP10 DUP4 DUP11 ADD PUSH2 0x24DF JUMP JUMPDEST SWAP5 POP PUSH1 0x60 DUP9 ADD CALLDATALOAD SWAP2 POP DUP1 DUP3 GT ISZERO PUSH2 0x25F6 JUMPI PUSH0 DUP1 REVERT JUMPDEST PUSH2 0x2602 DUP10 DUP4 DUP11 ADD PUSH2 0x24DF JUMP JUMPDEST SWAP4 POP PUSH1 0x80 DUP9 ADD CALLDATALOAD SWAP2 POP DUP1 DUP3 GT ISZERO PUSH2 0x2617 JUMPI PUSH0 DUP1 REVERT JUMPDEST POP PUSH2 0x2624 DUP9 DUP3 DUP10 ADD PUSH2 0x24DF JUMP JUMPDEST SWAP2 POP POP SWAP3 SWAP6 POP SWAP3 SWAP6 SWAP1 SWAP4 POP JUMP JUMPDEST PUSH0 PUSH1 0x20 DUP3 DUP5 SUB SLT ISZERO PUSH2 0x2641 JUMPI PUSH0 DUP1 REVERT JUMPDEST DUP2 CALLDATALOAD PUSH8 0xFFFFFFFFFFFFFFFF DUP2 GT ISZERO PUSH2 0x2657 JUMPI PUSH0 DUP1 REVERT JUMPDEST PUSH2 0x2663 DUP5 DUP3 DUP6 ADD PUSH2 0x24DF JUMP JUMPDEST SWAP5 SWAP4 POP POP POP POP JUMP JUMPDEST PUSH0 DUP1 PUSH1 0x40 DUP4 DUP6 SUB SLT ISZERO PUSH2 0x267C JUMPI PUSH0 DUP1 REVERT JUMPDEST DUP3 CALLDATALOAD PUSH8 0xFFFFFFFFFFFFFFFF DUP2 GT ISZERO PUSH2 0x2692 JUMPI PUSH0 DUP1 REVERT JUMPDEST PUSH2 0x269E DUP6 DUP3 DUP7 ADD PUSH2 0x24DF JUMP JUMPDEST SWAP3 POP POP PUSH2 0x26AD PUSH1 0x20 DUP5 ADD PUSH2 0x2452 JUMP JUMPDEST SWAP1 POP SWAP3 POP SWAP3 SWAP1 POP JUMP JUMPDEST PUSH0 DUP1 PUSH1 0x40 DUP4 DUP6 SUB SLT ISZERO PUSH2 0x26C7 JUMPI PUSH0 DUP1 REVERT JUMPDEST PUSH2 0x26D0 DUP4 PUSH2 0x2452 JUMP JUMPDEST SWAP5 PUSH1 0x20 SWAP4 SWAP1 SWAP4 ADD CALLDATALOAD SWAP4 POP POP POP JUMP JUMPDEST PUSH1 0x1 DUP2 DUP2 SHR SWAP1 DUP3 AND DUP1 PUSH2 0x26F2 JUMPI PUSH1 0x7F DUP3 AND SWAP2 POP JUMPDEST PUSH1 0x20 DUP3 LT DUP2 SUB PUSH2 0x2710 JUMPI PUSH4 0x4E487B71 PUSH1 0xE0 SHL PUSH0 MSTORE PUSH1 0x22 PUSH1 0x4 MSTORE PUSH1 0x24 PUSH0 REVERT JUMPDEST POP SWAP2 SWAP1 POP JUMP JUMPDEST PUSH1 0x20 DUP1 DUP3 MSTORE PUSH1 0x17 SWAP1 DUP3 ADD MSTORE PUSH32 0x4F6E6C79204F776E65722063616E206163746976617465000000000000000000 PUSH1 0x40 DUP3 ADD MSTORE PUSH1 0x60 ADD SWAP1 JUMP JUMPDEST PUSH0 DUP3 MLOAD PUSH2 0x275E DUP2 DUP5 PUSH1 0x20 DUP8 ADD PUSH2 0x235F JUMP JUMPDEST SWAP2 SWAP1 SWAP2 ADD SWAP3 SWAP2 POP POP JUMP JUMPDEST PUSH4 0x4E487B71 PUSH1 0xE0 SHL PUSH0 MSTORE PUSH1 0x32 PUSH1 0x4 MSTORE PUSH1 0x24 PUSH0 REVERT JUMPDEST PUSH0 PUSH1 0x1 DUP3 ADD PUSH2 0x2799 JUMPI PUSH4 0x4E487B71 PUSH1 0xE0 SHL PUSH0 MSTORE PUSH1 0x11 PUSH1 0x4 MSTORE PUSH1 0x24 PUSH0 REVERT JUMPDEST POP PUSH1 0x1 ADD SWAP1 JUMP JUMPDEST PUSH1 0x1F DUP3 GT ISZERO PUSH2 0x27E9 JUMPI PUSH0 DUP2 DUP2 MSTORE PUSH1 0x20 DUP2 KECCAK256 PUSH1 0x1F DUP6 ADD PUSH1 0x5 SHR DUP2 ADD PUSH1 0x20 DUP7 LT ISZERO PUSH2 0x27C6 JUMPI POP DUP1 JUMPDEST PUSH1 0x1F DUP6 ADD PUSH1 0x5 SHR DUP3 ADD SWAP2 POP JUMPDEST DUP2 DUP2 LT ISZERO PUSH2 0x27E5 JUMPI DUP3 DUP2 SSTORE PUSH1 0x1 ADD PUSH2 0x27D2 JUMP JUMPDEST POP POP POP JUMPDEST POP POP POP JUMP JUMPDEST DUP2 MLOAD PUSH8 0xFFFFFFFFFFFFFFFF DUP2 GT ISZERO PUSH2 0x2808 JUMPI PUSH2 0x2808 PUSH2 0x24CB JUMP JUMPDEST PUSH2 0x281C DUP2 PUSH2 0x2816 DUP5 SLOAD PUSH2 0x26DE JUMP JUMPDEST DUP5 PUSH2 0x27A0 JUMP JUMPDEST PUSH1 0x20 DUP1 PUSH1 0x1F DUP4 GT PUSH1 0x1 DUP2 EQ PUSH2 0x284F JUMPI PUSH0 DUP5 ISZERO PUSH2 0x2838 JUMPI POP DUP6 DUP4 ADD MLOAD JUMPDEST PUSH0 NOT PUSH1 0x3 DUP7 SWAP1 SHL SHR NOT AND PUSH1 0x1 DUP6 SWAP1 SHL OR DUP6 SSTORE PUSH2 0x27E5 JUMP JUMPDEST PUSH0 DUP6 DUP2 MSTORE PUSH1 0x20 DUP2 KECCAK256 PUSH1 0x1F NOT DUP7 AND SWAP2 JUMPDEST DUP3 DUP2 LT ISZERO PUSH2 0x287D JUMPI DUP9 DUP7 ADD MLOAD DUP3 SSTORE SWAP5 DUP5 ADD SWAP5 PUSH1 0x1 SWAP1 SWAP2 ADD SWAP1 DUP5 ADD PUSH2 0x285E JUMP JUMPDEST POP DUP6 DUP3 LT ISZERO PUSH2 0x289A JUMPI DUP8 DUP6 ADD MLOAD PUSH0 NOT PUSH1 0x3 DUP9 SWAP1 SHL PUSH1 0xF8 AND SHR NOT AND DUP2 SSTORE JUMPDEST POP POP POP POP POP PUSH1 0x1 SWAP1 DUP2 SHL ADD SWAP1 SSTORE POP JUMP JUMPDEST PUSH1 0xA0 DUP2 MSTORE PUSH0 PUSH2 0x28BC PUSH1 0xA0 DUP4 ADD DUP9 PUSH2 0x2381 JUMP JUMPDEST DUP3 DUP2 SUB PUSH1 0x20 DUP5 ADD MSTORE PUSH2 0x28CE DUP2 DUP9 PUSH2 0x2381 JUMP JUMPDEST PUSH1 0x1 PUSH1 0x1 PUSH1 0xA0 SHL SUB DUP8 DUP2 AND PUSH1 0x40 DUP7 ADD MSTORE DUP5 DUP3 SUB PUSH1 0x60 DUP7 ADD MSTORE SWAP1 SWAP2 POP PUSH2 0x28F3 DUP3 DUP8 PUSH2 0x2381 JUMP JUMPDEST SWAP3 POP DUP1 DUP6 AND PUSH1 0x80 DUP6 ADD MSTORE POP POP SWAP7 SWAP6 POP POP POP POP POP POP JUMP INVALID LOG2 PUSH5 0x6970667358 0x22 SLT KECCAK256 GAS 0x5C SGT PC 0xD9 0xD3 SWAP9 JUMP 0x4C 0xF6 0xC5 0xE5 SWAP11 SELFBALANCE 0xB6 NOT GASPRICE DUP7 0xC1 0x24 LOG2 JUMPI 0xD6 LOG3 0x5E SWAP12 DUP3 GT DUP14 GAS 0x4D DUP8 PUSH5 0x736F6C6343 STOP ADDMOD ISZERO STOP CALLER "
				},
				"gasEstimates": {
					"creation": {
						"codeDepositCost": "2111800",
						"executionCost": "75007",
						"totalCost": "2186807"
					},
					"external": {
						"addApprover(string,address)": "infinite",
						"addTaxPayer(string,address)": "infinite",
						"approveAdmin(address)": "54804",
						"canMint()": "2387",
						"expirationLicense(bytes32)": "infinite",
						"getExpiredLicense(address,bytes32)": "infinite",
						"getManyAddressSignature(address)": "infinite",
						"getOwnerAddressSignature()": "infinite",
						"getOwnnerSignature(bytes32)": "infinite",
						"getSignature(bytes32)": "infinite",
						"mintingStop()": "26743",
						"proposeAdmin(address)": "30586",
						"setSuccessor(address)": "infinite",
						"signatureMint(string,string,string,string,string)": "infinite",
						"signatureValidate(bytes32)": "infinite",
						"successor()": "2403",
						"taxpayerAddress(string)": "infinite",
						"tranferOwnership(address)": "26903",
						"validateData(string,string,string,string,string)": "infinite"
					},
					"internal": {
						"_checkLicense(struct ISignature.StructSignature memory)": "infinite",
						"_createLicense(struct ISignature.StructSignature memory)": "infinite",
						"_deleteLicense(bytes32,address)": "infinite",
						"singLicense(string memory,string memory,address,string memory,address)": "infinite"
					}
				},
				"methodIdentifiers": {
					"addApprover(string,address)": "c8c2f4fe",
					"addTaxPayer(string,address)": "9dfb7831",
					"approveAdmin(address)": "6d73e669",
					"canMint()": "beb9716d",
					"expirationLicense(bytes32)": "d84ab181",
					"getExpiredLicense(address,bytes32)": "e516224e",
					"getManyAddressSignature(address)": "369f6cd7",
					"getOwnerAddressSignature()": "3fde3309",
					"getOwnnerSignature(bytes32)": "0c0bd76b",
					"getSignature(bytes32)": "c4b14e0b",
					"mintingStop()": "dc2aa909",
					"proposeAdmin(address)": "147bf6c4",
					"setSuccessor(address)": "10e5bff8",
					"signatureMint(string,string,string,string,string)": "ce7262a1",
					"signatureValidate(bytes32)": "bff2d536",
					"successor()": "6ff968c3",
					"taxpayerAddress(string)": "84e26b2c",
					"tranferOwnership(address)": "83fc58b4",
					"validateData(string,string,string,string,string)": "7ea5cc1a"
				}
			},
			"storageLayout": {
				"storage": [
					{
						"astId": 67,
						"contract": "TokenSGTX/contracts/LicensesTaxs.sol:LicenseTaxPayer",
						"label": "_signatureEnabled",
						"offset": 0,
						"slot": "0",
						"type": "t_mapping(t_bytes32,t_struct(StructSignature)16_storage)"
					},
					{
						"astId": 72,
						"contract": "TokenSGTX/contracts/LicensesTaxs.sol:LicenseTaxPayer",
						"label": "_userSings",
						"offset": 0,
						"slot": "1",
						"type": "t_mapping(t_address,t_array(t_bytes32)dyn_storage)"
					},
					{
						"astId": 78,
						"contract": "TokenSGTX/contracts/LicensesTaxs.sol:LicenseTaxPayer",
						"label": "_recordedLicenses",
						"offset": 0,
						"slot": "2",
						"type": "t_mapping(t_address,t_array(t_struct(StructSignature)16_storage)dyn_storage)"
					},
					{
						"astId": 82,
						"contract": "TokenSGTX/contracts/LicensesTaxs.sol:LicenseTaxPayer",
						"label": "_taxpayers",
						"offset": 0,
						"slot": "3",
						"type": "t_mapping(t_string_memory_ptr,t_address)"
					},
					{
						"astId": 86,
						"contract": "TokenSGTX/contracts/LicensesTaxs.sol:LicenseTaxPayer",
						"label": "_admins",
						"offset": 0,
						"slot": "4",
						"type": "t_mapping(t_address,t_bool)"
					},
					{
						"astId": 90,
						"contract": "TokenSGTX/contracts/LicensesTaxs.sol:LicenseTaxPayer",
						"label": "_propoceAdmins",
						"offset": 0,
						"slot": "5",
						"type": "t_mapping(t_address,t_bool)"
					},
					{
						"astId": 94,
						"contract": "TokenSGTX/contracts/LicensesTaxs.sol:LicenseTaxPayer",
						"label": "_approvers",
						"offset": 0,
						"slot": "6",
						"type": "t_mapping(t_string_memory_ptr,t_address)"
					},
					{
						"astId": 126,
						"contract": "TokenSGTX/contracts/LicensesTaxs.sol:LicenseTaxPayer",
						"label": "owner",
						"offset": 0,
						"slot": "7",
						"type": "t_address"
					},
					{
						"astId": 129,
						"contract": "TokenSGTX/contracts/LicensesTaxs.sol:LicenseTaxPayer",
						"label": "stopMinting",
						"offset": 20,
						"slot": "7",
						"type": "t_bool"
					},
					{
						"astId": 131,
						"contract": "TokenSGTX/contracts/LicensesTaxs.sol:LicenseTaxPayer",
						"label": "successor",
						"offset": 0,
						"slot": "8",
						"type": "t_address"
					}
				],
				"types": {
					"t_address": {
						"encoding": "inplace",
						"label": "address",
						"numberOfBytes": "20"
					},
					"t_array(t_bytes32)dyn_storage": {
						"base": "t_bytes32",
						"encoding": "dynamic_array",
						"label": "bytes32[]",
						"numberOfBytes": "32"
					},
					"t_array(t_struct(StructSignature)16_storage)dyn_storage": {
						"base": "t_struct(StructSignature)16_storage",
						"encoding": "dynamic_array",
						"label": "struct ISignature.StructSignature[]",
						"numberOfBytes": "32"
					},
					"t_bool": {
						"encoding": "inplace",
						"label": "bool",
						"numberOfBytes": "1"
					},
					"t_bytes32": {
						"encoding": "inplace",
						"label": "bytes32",
						"numberOfBytes": "32"
					},
					"t_mapping(t_address,t_array(t_bytes32)dyn_storage)": {
						"encoding": "mapping",
						"key": "t_address",
						"label": "mapping(address => bytes32[])",
						"numberOfBytes": "32",
						"value": "t_array(t_bytes32)dyn_storage"
					},
					"t_mapping(t_address,t_array(t_struct(StructSignature)16_storage)dyn_storage)": {
						"encoding": "mapping",
						"key": "t_address",
						"label": "mapping(address => struct ISignature.StructSignature[])",
						"numberOfBytes": "32",
						"value": "t_array(t_struct(StructSignature)16_storage)dyn_storage"
					},
					"t_mapping(t_address,t_bool)": {
						"encoding": "mapping",
						"key": "t_address",
						"label": "mapping(address => bool)",
						"numberOfBytes": "32",
						"value": "t_bool"
					},
					"t_mapping(t_bytes32,t_struct(StructSignature)16_storage)": {
						"encoding": "mapping",
						"key": "t_bytes32",
						"label": "mapping(bytes32 => struct ISignature.StructSignature)",
						"numberOfBytes": "32",
						"value": "t_struct(StructSignature)16_storage"
					},
					"t_mapping(t_string_memory_ptr,t_address)": {
						"encoding": "mapping",
						"key": "t_string_memory_ptr",
						"label": "mapping(string => address)",
						"numberOfBytes": "32",
						"value": "t_address"
					},
					"t_string_memory_ptr": {
						"encoding": "bytes",
						"label": "string",
						"numberOfBytes": "32"
					},
					"t_string_storage": {
						"encoding": "bytes",
						"label": "string",
						"numberOfBytes": "32"
					},
					"t_struct(StructSignature)16_storage": {
						"encoding": "inplace",
						"label": "struct ISignature.StructSignature",
						"members": [
							{
								"astId": 3,
								"contract": "TokenSGTX/contracts/LicensesTaxs.sol:LicenseTaxPayer",
								"label": "concept",
								"offset": 0,
								"slot": "0",
								"type": "t_string_storage"
							},
							{
								"astId": 5,
								"contract": "TokenSGTX/contracts/LicensesTaxs.sol:LicenseTaxPayer",
								"label": "identifier",
								"offset": 0,
								"slot": "1",
								"type": "t_string_storage"
							},
							{
								"astId": 7,
								"contract": "TokenSGTX/contracts/LicensesTaxs.sol:LicenseTaxPayer",
								"label": "owner",
								"offset": 0,
								"slot": "2",
								"type": "t_address"
							},
							{
								"astId": 9,
								"contract": "TokenSGTX/contracts/LicensesTaxs.sol:LicenseTaxPayer",
								"label": "data",
								"offset": 0,
								"slot": "3",
								"type": "t_string_storage"
							},
							{
								"astId": 11,
								"contract": "TokenSGTX/contracts/LicensesTaxs.sol:LicenseTaxPayer",
								"label": "aprrover",
								"offset": 0,
								"slot": "4",
								"type": "t_address"
							},
							{
								"astId": 13,
								"contract": "TokenSGTX/contracts/LicensesTaxs.sol:LicenseTaxPayer",
								"label": "signature",
								"offset": 0,
								"slot": "5",
								"type": "t_bytes32"
							},
							{
								"astId": 15,
								"contract": "TokenSGTX/contracts/LicensesTaxs.sol:LicenseTaxPayer",
								"label": "isEntity",
								"offset": 0,
								"slot": "6",
								"type": "t_bool"
							}
						],
						"numberOfBytes": "224"
					}
				}
			},
			"userdoc": {
				"kind": "user",
				"methods": {},
				"version": 1
			}
		}
	}
}