{
	"TokenSGTX/contracts/LicensesTaxs.sol": {
		"LicenseTaxPayer": {
			"abi": [
				{
					"inputs": [
						{
							"internalType": "string",
							"name": "name_",
							"type": "string"
						},
						{
							"internalType": "string",
							"name": "symbol_",
							"type": "string"
						}
					],
					"stateMutability": "nonpayable",
					"type": "constructor"
				},
				{
					"anonymous": false,
					"inputs": [
						{
							"indexed": true,
							"internalType": "address",
							"name": "",
							"type": "address"
						},
						{
							"indexed": false,
							"internalType": "bool",
							"name": "",
							"type": "bool"
						}
					],
					"name": "eventNewAdminPropose",
					"type": "event"
				},
				{
					"anonymous": false,
					"inputs": [
						{
							"indexed": true,
							"internalType": "address",
							"name": "",
							"type": "address"
						},
						{
							"indexed": false,
							"internalType": "bool",
							"name": "",
							"type": "bool"
						}
					],
					"name": "eventNewAdminRegistred",
					"type": "event"
				},
				{
					"anonymous": false,
					"inputs": [
						{
							"indexed": true,
							"internalType": "address",
							"name": "",
							"type": "address"
						},
						{
							"indexed": false,
							"internalType": "bool",
							"name": "",
							"type": "bool"
						}
					],
					"name": "eventNewApprover",
					"type": "event"
				},
				{
					"anonymous": false,
					"inputs": [
						{
							"indexed": true,
							"internalType": "address",
							"name": "_addressHolder",
							"type": "address"
						},
						{
							"indexed": false,
							"internalType": "bytes32",
							"name": "sing",
							"type": "bytes32"
						}
					],
					"name": "eventSignatureCreate",
					"type": "event"
				},
				{
					"anonymous": false,
					"inputs": [
						{
							"indexed": true,
							"internalType": "address",
							"name": "_addressHolder",
							"type": "address"
						},
						{
							"indexed": false,
							"internalType": "bytes32",
							"name": "sing",
							"type": "bytes32"
						}
					],
					"name": "eventSignatureExpired",
					"type": "event"
				},
				{
					"inputs": [
						{
							"internalType": "string",
							"name": "_Id",
							"type": "string"
						},
						{
							"internalType": "address",
							"name": "_relationAddress",
							"type": "address"
						}
					],
					"name": "addApprover",
					"outputs": [
						{
							"internalType": "bool",
							"name": "",
							"type": "bool"
						}
					],
					"stateMutability": "payable",
					"type": "function"
				},
				{
					"inputs": [
						{
							"internalType": "string",
							"name": "_rif",
							"type": "string"
						},
						{
							"internalType": "address",
							"name": "_relationAddress",
							"type": "address"
						}
					],
					"name": "addTaxPayer",
					"outputs": [
						{
							"internalType": "bool",
							"name": "",
							"type": "bool"
						}
					],
					"stateMutability": "payable",
					"type": "function"
				},
				{
					"inputs": [
						{
							"internalType": "address",
							"name": "_relationAddress",
							"type": "address"
						}
					],
					"name": "approveAdmin",
					"outputs": [
						{
							"internalType": "bool",
							"name": "",
							"type": "bool"
						}
					],
					"stateMutability": "payable",
					"type": "function"
				},
				{
					"inputs": [],
					"name": "balance",
					"outputs": [
						{
							"internalType": "uint256",
							"name": "",
							"type": "uint256"
						}
					],
					"stateMutability": "view",
					"type": "function"
				},
				{
					"inputs": [],
					"name": "canMint",
					"outputs": [
						{
							"internalType": "bool",
							"name": "",
							"type": "bool"
						}
					],
					"stateMutability": "view",
					"type": "function"
				},
				{
					"inputs": [
						{
							"internalType": "bytes32",
							"name": "singnature",
							"type": "bytes32"
						}
					],
					"name": "expirationLicense",
					"outputs": [
						{
							"internalType": "bool",
							"name": "",
							"type": "bool"
						}
					],
					"stateMutability": "payable",
					"type": "function"
				},
				{
					"inputs": [
						{
							"internalType": "address",
							"name": "_owner",
							"type": "address"
						},
						{
							"internalType": "bytes32",
							"name": "sign",
							"type": "bytes32"
						}
					],
					"name": "getExpiredLicense",
					"outputs": [
						{
							"components": [
								{
									"internalType": "string",
									"name": "concept",
									"type": "string"
								},
								{
									"internalType": "string",
									"name": "identifier",
									"type": "string"
								},
								{
									"internalType": "address",
									"name": "owner",
									"type": "address"
								},
								{
									"internalType": "string",
									"name": "data",
									"type": "string"
								},
								{
									"internalType": "address",
									"name": "aprrover",
									"type": "address"
								},
								{
									"internalType": "bytes32",
									"name": "signature",
									"type": "bytes32"
								},
								{
									"internalType": "bool",
									"name": "isEntity",
									"type": "bool"
								}
							],
							"internalType": "struct ISignature.StructSignature",
							"name": "",
							"type": "tuple"
						}
					],
					"stateMutability": "payable",
					"type": "function"
				},
				{
					"inputs": [
						{
							"internalType": "address",
							"name": "owner",
							"type": "address"
						}
					],
					"name": "getManyAddressSignature",
					"outputs": [
						{
							"internalType": "bytes32[]",
							"name": "",
							"type": "bytes32[]"
						}
					],
					"stateMutability": "view",
					"type": "function"
				},
				{
					"inputs": [],
					"name": "getOwnerAddressSignature",
					"outputs": [
						{
							"internalType": "bytes32[]",
							"name": "",
							"type": "bytes32[]"
						}
					],
					"stateMutability": "view",
					"type": "function"
				},
				{
					"inputs": [
						{
							"internalType": "bytes32",
							"name": "singnature",
							"type": "bytes32"
						}
					],
					"name": "getOwnnerSignature",
					"outputs": [
						{
							"components": [
								{
									"internalType": "string",
									"name": "concept",
									"type": "string"
								},
								{
									"internalType": "string",
									"name": "identifier",
									"type": "string"
								},
								{
									"internalType": "address",
									"name": "owner",
									"type": "address"
								},
								{
									"internalType": "string",
									"name": "data",
									"type": "string"
								},
								{
									"internalType": "address",
									"name": "aprrover",
									"type": "address"
								},
								{
									"internalType": "bytes32",
									"name": "signature",
									"type": "bytes32"
								},
								{
									"internalType": "bool",
									"name": "isEntity",
									"type": "bool"
								}
							],
							"internalType": "struct ISignature.StructSignature",
							"name": "",
							"type": "tuple"
						}
					],
					"stateMutability": "view",
					"type": "function"
				},
				{
					"inputs": [
						{
							"internalType": "bytes32",
							"name": "singnature",
							"type": "bytes32"
						}
					],
					"name": "getSignature",
					"outputs": [
						{
							"components": [
								{
									"internalType": "string",
									"name": "concept",
									"type": "string"
								},
								{
									"internalType": "string",
									"name": "identifier",
									"type": "string"
								},
								{
									"internalType": "address",
									"name": "owner",
									"type": "address"
								},
								{
									"internalType": "string",
									"name": "data",
									"type": "string"
								},
								{
									"internalType": "address",
									"name": "aprrover",
									"type": "address"
								},
								{
									"internalType": "bytes32",
									"name": "signature",
									"type": "bytes32"
								},
								{
									"internalType": "bool",
									"name": "isEntity",
									"type": "bool"
								}
							],
							"internalType": "struct ISignature.StructSignature",
							"name": "",
							"type": "tuple"
						}
					],
					"stateMutability": "view",
					"type": "function"
				},
				{
					"inputs": [],
					"name": "mintingStop",
					"outputs": [
						{
							"internalType": "bool",
							"name": "",
							"type": "bool"
						}
					],
					"stateMutability": "nonpayable",
					"type": "function"
				},
				{
					"inputs": [],
					"name": "name",
					"outputs": [
						{
							"internalType": "string",
							"name": "",
							"type": "string"
						}
					],
					"stateMutability": "view",
					"type": "function"
				},
				{
					"inputs": [
						{
							"internalType": "address",
							"name": "_relationAddress",
							"type": "address"
						}
					],
					"name": "proposeAdmin",
					"outputs": [
						{
							"internalType": "bool",
							"name": "",
							"type": "bool"
						}
					],
					"stateMutability": "payable",
					"type": "function"
				},
				{
					"inputs": [
						{
							"internalType": "address",
							"name": "_successor",
							"type": "address"
						}
					],
					"name": "setSuccessor",
					"outputs": [
						{
							"internalType": "address",
							"name": "",
							"type": "address"
						}
					],
					"stateMutability": "payable",
					"type": "function"
				},
				{
					"inputs": [
						{
							"internalType": "string",
							"name": "_consept",
							"type": "string"
						},
						{
							"internalType": "string",
							"name": "_owner",
							"type": "string"
						},
						{
							"internalType": "string",
							"name": "_approver",
							"type": "string"
						},
						{
							"internalType": "string",
							"name": "data",
							"type": "string"
						},
						{
							"internalType": "string",
							"name": "identifier",
							"type": "string"
						}
					],
					"name": "signatureMint",
					"outputs": [
						{
							"internalType": "bytes32",
							"name": "",
							"type": "bytes32"
						}
					],
					"stateMutability": "payable",
					"type": "function"
				},
				{
					"inputs": [
						{
							"internalType": "bytes32",
							"name": "singnature",
							"type": "bytes32"
						}
					],
					"name": "signatureValidate",
					"outputs": [
						{
							"internalType": "bool",
							"name": "",
							"type": "bool"
						}
					],
					"stateMutability": "view",
					"type": "function"
				},
				{
					"inputs": [],
					"name": "successor",
					"outputs": [
						{
							"internalType": "address",
							"name": "",
							"type": "address"
						}
					],
					"stateMutability": "view",
					"type": "function"
				},
				{
					"inputs": [],
					"name": "symbol",
					"outputs": [
						{
							"internalType": "string",
							"name": "",
							"type": "string"
						}
					],
					"stateMutability": "view",
					"type": "function"
				},
				{
					"inputs": [
						{
							"internalType": "string",
							"name": "_rif",
							"type": "string"
						}
					],
					"name": "taxpayerAddress",
					"outputs": [
						{
							"internalType": "address",
							"name": "",
							"type": "address"
						}
					],
					"stateMutability": "view",
					"type": "function"
				},
				{
					"inputs": [],
					"name": "totalMinted",
					"outputs": [
						{
							"internalType": "int32",
							"name": "",
							"type": "int32"
						}
					],
					"stateMutability": "view",
					"type": "function"
				},
				{
					"inputs": [
						{
							"internalType": "address",
							"name": "NewOwner",
							"type": "address"
						}
					],
					"name": "tranferOwnership",
					"outputs": [
						{
							"internalType": "bool",
							"name": "",
							"type": "bool"
						}
					],
					"stateMutability": "payable",
					"type": "function"
				},
				{
					"inputs": [
						{
							"internalType": "string",
							"name": "_consept",
							"type": "string"
						},
						{
							"internalType": "string",
							"name": "_owner",
							"type": "string"
						},
						{
							"internalType": "string",
							"name": "_approver",
							"type": "string"
						},
						{
							"internalType": "string",
							"name": "data",
							"type": "string"
						},
						{
							"internalType": "string",
							"name": "identifier",
							"type": "string"
						}
					],
					"name": "validateData",
					"outputs": [
						{
							"internalType": "bool",
							"name": "",
							"type": "bool"
						}
					],
					"stateMutability": "view",
					"type": "function"
				}
			],
			"devdoc": {
				"kind": "dev",
				"methods": {
					"symbol()": {
						"details": "See {IERC721Metadata-symbol}."
					}
				},
				"version": 1
			},
			"evm": {
				"assembly": "    /* \"TokenSGTX/contracts/LicensesTaxs.sol\":158:10099  contract LicenseTaxPayer is ISignature {... */\n  mstore(0x40, 0x80)\n    /* \"TokenSGTX/contracts/LicensesTaxs.sol\":979:1010  bool private stopMinting = true */\n  0x08\n  dup1\n  sload\n  not(shl(0xa0, 0xff))\n  and\n  shl(0xa0, 0x01)\n  or\n  swap1\n  sstore\n    /* \"TokenSGTX/contracts/LicensesTaxs.sol\":1052:1080  int32 public totalMinted = 0 */\n  0x09\n  dup1\n  sload\n  not(shl(0xa0, 0xffffffff))\n  and\n  swap1\n  sstore\n    /* \"TokenSGTX/contracts/LicensesTaxs.sol\":1149:1347  constructor(... */\n  callvalue\n  dup1\n  iszero\n  tag_1\n  jumpi\n  0x00\n  dup1\n  revert\ntag_1:\n  pop\n  mload(0x40)\n  sub(codesize, bytecodeSize)\n  dup1\n  bytecodeSize\n  dup4\n  codecopy\n  dup2\n  add\n  0x40\n  dup2\n  swap1\n  mstore\n  tag_2\n  swap2\n  tag_3\n  jump\t// in\ntag_2:\n    /* \"TokenSGTX/contracts/LicensesTaxs.sol\":1240:1250  msg.sender */\n  caller\n    /* \"TokenSGTX/contracts/LicensesTaxs.sol\":1232:1251  _admins[msg.sender] */\n  0x00\n  dup2\n  dup2\n  mstore\n    /* \"TokenSGTX/contracts/LicensesTaxs.sol\":1232:1239  _admins */\n  0x04\n    /* \"TokenSGTX/contracts/LicensesTaxs.sol\":1232:1251  _admins[msg.sender] */\n  0x20\n  mstore\n  0x40\n  swap1\n  keccak256\n    /* \"TokenSGTX/contracts/LicensesTaxs.sol\":1232:1258  _admins[msg.sender] = true */\n  dup1\n  sload\n  not(0xff)\n  and\n    /* \"TokenSGTX/contracts/LicensesTaxs.sol\":1254:1258  true */\n  0x01\n    /* \"TokenSGTX/contracts/LicensesTaxs.sol\":1232:1258  _admins[msg.sender] = true */\n  or\n  swap1\n  sstore\n    /* \"TokenSGTX/contracts/LicensesTaxs.sol\":1269:1274  owner */\n  0x08\n    /* \"TokenSGTX/contracts/LicensesTaxs.sol\":1269:1287  owner = msg.sender */\n  dup1\n  sload\n  not(sub(shl(0xa0, 0x01), 0x01))\n  and\n  swap1\n  swap2\n  or\n  swap1\n  sstore\n    /* \"TokenSGTX/contracts/LicensesTaxs.sol\":1298:1303  _name */\n  0x0a\n    /* \"TokenSGTX/contracts/LicensesTaxs.sol\":1298:1311  _name = name_ */\n  tag_6\n    /* \"TokenSGTX/contracts/LicensesTaxs.sol\":1306:1311  name_ */\n  dup4\n    /* \"TokenSGTX/contracts/LicensesTaxs.sol\":1298:1303  _name */\n  dup3\n    /* \"TokenSGTX/contracts/LicensesTaxs.sol\":1298:1311  _name = name_ */\n  tag_7\n  jump\t// in\ntag_6:\n  pop\n    /* \"TokenSGTX/contracts/LicensesTaxs.sol\":1322:1329  _symbol */\n  0x0b\n    /* \"TokenSGTX/contracts/LicensesTaxs.sol\":1322:1339  _symbol = symbol_ */\n  tag_8\n    /* \"TokenSGTX/contracts/LicensesTaxs.sol\":1332:1339  symbol_ */\n  dup3\n    /* \"TokenSGTX/contracts/LicensesTaxs.sol\":1322:1329  _symbol */\n  dup3\n    /* \"TokenSGTX/contracts/LicensesTaxs.sol\":1322:1339  _symbol = symbol_ */\n  tag_7\n  jump\t// in\ntag_8:\n  pop\n    /* \"TokenSGTX/contracts/LicensesTaxs.sol\":1149:1347  constructor(... */\n  pop\n  pop\n    /* \"TokenSGTX/contracts/LicensesTaxs.sol\":158:10099  contract LicenseTaxPayer is ISignature {... */\n  jump(tag_16)\n    /* \"#utility.yul\":14:141   */\ntag_10:\n    /* \"#utility.yul\":75:85   */\n  0x4e487b71\n    /* \"#utility.yul\":70:73   */\n  0xe0\n    /* \"#utility.yul\":66:86   */\n  shl\n    /* \"#utility.yul\":63:64   */\n  0x00\n    /* \"#utility.yul\":56:87   */\n  mstore\n    /* \"#utility.yul\":106:110   */\n  0x41\n    /* \"#utility.yul\":103:104   */\n  0x04\n    /* \"#utility.yul\":96:111   */\n  mstore\n    /* \"#utility.yul\":130:134   */\n  0x24\n    /* \"#utility.yul\":127:128   */\n  0x00\n    /* \"#utility.yul\":120:135   */\n  revert\n    /* \"#utility.yul\":146:986   */\ntag_11:\n    /* \"#utility.yul\":200:205   */\n  0x00\n    /* \"#utility.yul\":253:256   */\n  dup3\n    /* \"#utility.yul\":246:250   */\n  0x1f\n    /* \"#utility.yul\":238:244   */\n  dup4\n    /* \"#utility.yul\":234:251   */\n  add\n    /* \"#utility.yul\":230:257   */\n  slt\n    /* \"#utility.yul\":220:275   */\n  tag_19\n  jumpi\n    /* \"#utility.yul\":271:272   */\n  0x00\n    /* \"#utility.yul\":268:269   */\n  dup1\n    /* \"#utility.yul\":261:273   */\n  revert\n    /* \"#utility.yul\":220:275   */\ntag_19:\n    /* \"#utility.yul\":294:307   */\n  dup2\n  mload\n  sub(shl(0x40, 0x01), 0x01)\n    /* \"#utility.yul\":356:366   */\n  dup1\n  dup3\n  gt\n    /* \"#utility.yul\":353:389   */\n  iszero\n  tag_21\n  jumpi\n    /* \"#utility.yul\":369:387   */\n  tag_21\n  tag_10\n  jump\t// in\ntag_21:\n    /* \"#utility.yul\":444:446   */\n  0x40\n    /* \"#utility.yul\":438:447   */\n  mload\n    /* \"#utility.yul\":412:414   */\n  0x1f\n    /* \"#utility.yul\":498:511   */\n  dup4\n  add\n  not(0x1f)\n    /* \"#utility.yul\":494:516   */\n  swap1\n  dup2\n  and\n    /* \"#utility.yul\":518:520   */\n  0x3f\n    /* \"#utility.yul\":490:521   */\n  add\n    /* \"#utility.yul\":486:526   */\n  and\n    /* \"#utility.yul\":474:527   */\n  dup2\n  add\n  swap1\n    /* \"#utility.yul\":542:560   */\n  dup3\n  dup3\n  gt\n    /* \"#utility.yul\":562:584   */\n  dup2\n  dup4\n  lt\n    /* \"#utility.yul\":539:585   */\n  or\n    /* \"#utility.yul\":536:608   */\n  iszero\n  tag_23\n  jumpi\n    /* \"#utility.yul\":588:606   */\n  tag_23\n  tag_10\n  jump\t// in\ntag_23:\n    /* \"#utility.yul\":628:638   */\n  dup2\n    /* \"#utility.yul\":624:626   */\n  0x40\n    /* \"#utility.yul\":617:639   */\n  mstore\n    /* \"#utility.yul\":663:665   */\n  dup4\n    /* \"#utility.yul\":655:661   */\n  dup2\n    /* \"#utility.yul\":648:666   */\n  mstore\n    /* \"#utility.yul\":685:689   */\n  0x20\n    /* \"#utility.yul\":675:689   */\n  swap3\n  pop\n    /* \"#utility.yul\":730:733   */\n  dup7\n    /* \"#utility.yul\":725:727   */\n  dup4\n    /* \"#utility.yul\":720:722   */\n  dup6\n    /* \"#utility.yul\":712:718   */\n  dup9\n    /* \"#utility.yul\":708:723   */\n  add\n    /* \"#utility.yul\":704:728   */\n  add\n    /* \"#utility.yul\":701:734   */\n  gt\n    /* \"#utility.yul\":698:751   */\n  iszero\n  tag_24\n  jumpi\n    /* \"#utility.yul\":747:748   */\n  0x00\n    /* \"#utility.yul\":744:745   */\n  dup1\n    /* \"#utility.yul\":737:749   */\n  revert\n    /* \"#utility.yul\":698:751   */\ntag_24:\n    /* \"#utility.yul\":769:770   */\n  0x00\n    /* \"#utility.yul\":760:770   */\n  swap2\n  pop\n    /* \"#utility.yul\":779:912   */\ntag_25:\n    /* \"#utility.yul\":793:795   */\n  dup4\n    /* \"#utility.yul\":790:791   */\n  dup3\n    /* \"#utility.yul\":787:796   */\n  lt\n    /* \"#utility.yul\":779:912   */\n  iszero\n  tag_27\n  jumpi\n    /* \"#utility.yul\":881:895   */\n  dup6\n  dup3\n  add\n    /* \"#utility.yul\":877:900   */\n  dup4\n  add\n    /* \"#utility.yul\":871:901   */\n  mload\n    /* \"#utility.yul\":850:864   */\n  dup2\n  dup4\n  add\n    /* \"#utility.yul\":846:869   */\n  dup5\n  add\n    /* \"#utility.yul\":839:902   */\n  mstore\n    /* \"#utility.yul\":804:814   */\n  swap1\n  dup3\n  add\n  swap1\n    /* \"#utility.yul\":779:912   */\n  jump(tag_25)\ntag_27:\n    /* \"#utility.yul\":954:955   */\n  0x00\n    /* \"#utility.yul\":932:947   */\n  swap4\n  dup2\n  add\n    /* \"#utility.yul\":928:952   */\n  swap1\n  swap3\n  add\n    /* \"#utility.yul\":921:956   */\n  swap3\n  swap1\n  swap3\n  mstore\n    /* \"#utility.yul\":936:942   */\n  swap5\n    /* \"#utility.yul\":146:986   */\n  swap4\n  pop\n  pop\n  pop\n  pop\n  jump\t// out\n    /* \"#utility.yul\":991:1553   */\ntag_3:\n    /* \"#utility.yul\":1090:1096   */\n  0x00\n    /* \"#utility.yul\":1098:1104   */\n  dup1\n    /* \"#utility.yul\":1151:1153   */\n  0x40\n    /* \"#utility.yul\":1139:1148   */\n  dup4\n    /* \"#utility.yul\":1130:1137   */\n  dup6\n    /* \"#utility.yul\":1126:1149   */\n  sub\n    /* \"#utility.yul\":1122:1154   */\n  slt\n    /* \"#utility.yul\":1119:1171   */\n  iszero\n  tag_29\n  jumpi\n    /* \"#utility.yul\":1167:1168   */\n  0x00\n    /* \"#utility.yul\":1164:1165   */\n  dup1\n    /* \"#utility.yul\":1157:1169   */\n  revert\n    /* \"#utility.yul\":1119:1171   */\ntag_29:\n    /* \"#utility.yul\":1194:1210   */\n  dup3\n  mload\n  sub(shl(0x40, 0x01), 0x01)\n    /* \"#utility.yul\":1259:1273   */\n  dup1\n  dup3\n  gt\n    /* \"#utility.yul\":1256:1290   */\n  iszero\n  tag_30\n  jumpi\n    /* \"#utility.yul\":1286:1287   */\n  0x00\n    /* \"#utility.yul\":1283:1284   */\n  dup1\n    /* \"#utility.yul\":1276:1288   */\n  revert\n    /* \"#utility.yul\":1256:1290   */\ntag_30:\n    /* \"#utility.yul\":1309:1370   */\n  tag_31\n    /* \"#utility.yul\":1362:1369   */\n  dup7\n    /* \"#utility.yul\":1353:1359   */\n  dup4\n    /* \"#utility.yul\":1342:1351   */\n  dup8\n    /* \"#utility.yul\":1338:1360   */\n  add\n    /* \"#utility.yul\":1309:1370   */\n  tag_11\n  jump\t// in\ntag_31:\n    /* \"#utility.yul\":1299:1370   */\n  swap4\n  pop\n    /* \"#utility.yul\":1416:1418   */\n  0x20\n    /* \"#utility.yul\":1405:1414   */\n  dup6\n    /* \"#utility.yul\":1401:1419   */\n  add\n    /* \"#utility.yul\":1395:1420   */\n  mload\n    /* \"#utility.yul\":1379:1420   */\n  swap2\n  pop\n    /* \"#utility.yul\":1445:1447   */\n  dup1\n    /* \"#utility.yul\":1435:1443   */\n  dup3\n    /* \"#utility.yul\":1432:1448   */\n  gt\n    /* \"#utility.yul\":1429:1465   */\n  iszero\n  tag_32\n  jumpi\n    /* \"#utility.yul\":1461:1462   */\n  0x00\n    /* \"#utility.yul\":1458:1459   */\n  dup1\n    /* \"#utility.yul\":1451:1463   */\n  revert\n    /* \"#utility.yul\":1429:1465   */\ntag_32:\n  pop\n    /* \"#utility.yul\":1484:1547   */\n  tag_33\n    /* \"#utility.yul\":1539:1546   */\n  dup6\n    /* \"#utility.yul\":1528:1536   */\n  dup3\n    /* \"#utility.yul\":1517:1526   */\n  dup7\n    /* \"#utility.yul\":1513:1537   */\n  add\n    /* \"#utility.yul\":1484:1547   */\n  tag_11\n  jump\t// in\ntag_33:\n    /* \"#utility.yul\":1474:1547   */\n  swap2\n  pop\n  pop\n    /* \"#utility.yul\":991:1553   */\n  swap3\n  pop\n  swap3\n  swap1\n  pop\n  jump\t// out\n    /* \"#utility.yul\":1558:1938   */\ntag_12:\n    /* \"#utility.yul\":1637:1638   */\n  0x01\n    /* \"#utility.yul\":1633:1645   */\n  dup2\n  dup2\n  shr\n  swap1\n    /* \"#utility.yul\":1680:1692   */\n  dup3\n  and\n  dup1\n    /* \"#utility.yul\":1701:1762   */\n  tag_35\n  jumpi\n    /* \"#utility.yul\":1755:1759   */\n  0x7f\n    /* \"#utility.yul\":1747:1753   */\n  dup3\n    /* \"#utility.yul\":1743:1760   */\n  and\n    /* \"#utility.yul\":1733:1760   */\n  swap2\n  pop\n    /* \"#utility.yul\":1701:1762   */\ntag_35:\n    /* \"#utility.yul\":1808:1810   */\n  0x20\n    /* \"#utility.yul\":1800:1806   */\n  dup3\n    /* \"#utility.yul\":1797:1811   */\n  lt\n    /* \"#utility.yul\":1777:1795   */\n  dup2\n    /* \"#utility.yul\":1774:1812   */\n  sub\n    /* \"#utility.yul\":1771:1932   */\n  tag_36\n  jumpi\n    /* \"#utility.yul\":1854:1864   */\n  0x4e487b71\n    /* \"#utility.yul\":1849:1852   */\n  0xe0\n    /* \"#utility.yul\":1845:1865   */\n  shl\n    /* \"#utility.yul\":1842:1843   */\n  0x00\n    /* \"#utility.yul\":1835:1866   */\n  mstore\n    /* \"#utility.yul\":1889:1893   */\n  0x22\n    /* \"#utility.yul\":1886:1887   */\n  0x04\n    /* \"#utility.yul\":1879:1894   */\n  mstore\n    /* \"#utility.yul\":1917:1921   */\n  0x24\n    /* \"#utility.yul\":1914:1915   */\n  0x00\n    /* \"#utility.yul\":1907:1922   */\n  revert\n    /* \"#utility.yul\":1771:1932   */\ntag_36:\n  pop\n    /* \"#utility.yul\":1558:1938   */\n  swap2\n  swap1\n  pop\n  jump\t// out\n    /* \"#utility.yul\":2069:2614   */\ntag_14:\n    /* \"#utility.yul\":2171:2173   */\n  0x1f\n    /* \"#utility.yul\":2166:2169   */\n  dup3\n    /* \"#utility.yul\":2163:2174   */\n  gt\n    /* \"#utility.yul\":2160:2608   */\n  iszero\n  tag_39\n  jumpi\n    /* \"#utility.yul\":2207:2208   */\n  0x00\n    /* \"#utility.yul\":2232:2237   */\n  dup2\n    /* \"#utility.yul\":2228:2230   */\n  dup2\n    /* \"#utility.yul\":2221:2238   */\n  mstore\n    /* \"#utility.yul\":2277:2281   */\n  0x20\n    /* \"#utility.yul\":2273:2275   */\n  dup2\n    /* \"#utility.yul\":2263:2282   */\n  keccak256\n    /* \"#utility.yul\":2347:2349   */\n  0x1f\n    /* \"#utility.yul\":2335:2345   */\n  dup6\n    /* \"#utility.yul\":2331:2350   */\n  add\n    /* \"#utility.yul\":2328:2329   */\n  0x05\n    /* \"#utility.yul\":2324:2351   */\n  shr\n    /* \"#utility.yul\":2318:2322   */\n  dup2\n    /* \"#utility.yul\":2314:2352   */\n  add\n    /* \"#utility.yul\":2383:2387   */\n  0x20\n    /* \"#utility.yul\":2371:2381   */\n  dup7\n    /* \"#utility.yul\":2368:2388   */\n  lt\n    /* \"#utility.yul\":2365:2412   */\n  iszero\n  tag_40\n  jumpi\n  pop\n    /* \"#utility.yul\":2406:2410   */\n  dup1\n    /* \"#utility.yul\":2365:2412   */\ntag_40:\n    /* \"#utility.yul\":2461:2463   */\n  0x1f\n    /* \"#utility.yul\":2456:2459   */\n  dup6\n    /* \"#utility.yul\":2452:2464   */\n  add\n    /* \"#utility.yul\":2449:2450   */\n  0x05\n    /* \"#utility.yul\":2445:2465   */\n  shr\n    /* \"#utility.yul\":2439:2443   */\n  dup3\n    /* \"#utility.yul\":2435:2466   */\n  add\n    /* \"#utility.yul\":2425:2466   */\n  swap2\n  pop\n    /* \"#utility.yul\":2516:2598   */\ntag_41:\n    /* \"#utility.yul\":2534:2536   */\n  dup2\n    /* \"#utility.yul\":2527:2532   */\n  dup2\n    /* \"#utility.yul\":2524:2537   */\n  lt\n    /* \"#utility.yul\":2516:2598   */\n  iszero\n  tag_43\n  jumpi\n    /* \"#utility.yul\":2579:2596   */\n  dup3\n  dup2\n  sstore\n    /* \"#utility.yul\":2560:2561   */\n  0x01\n    /* \"#utility.yul\":2549:2562   */\n  add\n    /* \"#utility.yul\":2516:2598   */\n  jump(tag_41)\ntag_43:\n    /* \"#utility.yul\":2520:2523   */\n  pop\n  pop\n  pop\n    /* \"#utility.yul\":2160:2608   */\ntag_39:\n    /* \"#utility.yul\":2069:2614   */\n  pop\n  pop\n  pop\n  jump\t// out\n    /* \"#utility.yul\":2790:4142   */\ntag_7:\n    /* \"#utility.yul\":2910:2920   */\n  dup2\n  mload\n  sub(shl(0x40, 0x01), 0x01)\n    /* \"#utility.yul\":2932:2962   */\n  dup2\n  gt\n    /* \"#utility.yul\":2929:2985   */\n  iszero\n  tag_47\n  jumpi\n    /* \"#utility.yul\":2965:2983   */\n  tag_47\n  tag_10\n  jump\t// in\ntag_47:\n    /* \"#utility.yul\":2994:3091   */\n  tag_48\n    /* \"#utility.yul\":3084:3090   */\n  dup2\n    /* \"#utility.yul\":3044:3082   */\n  tag_49\n    /* \"#utility.yul\":3076:3080   */\n  dup5\n    /* \"#utility.yul\":3070:3081   */\n  sload\n    /* \"#utility.yul\":3044:3082   */\n  tag_12\n  jump\t// in\ntag_49:\n    /* \"#utility.yul\":3038:3042   */\n  dup5\n    /* \"#utility.yul\":2994:3091   */\n  tag_14\n  jump\t// in\ntag_48:\n    /* \"#utility.yul\":3146:3150   */\n  0x20\n  dup1\n    /* \"#utility.yul\":3210:3212   */\n  0x1f\n    /* \"#utility.yul\":3199:3213   */\n  dup4\n  gt\n    /* \"#utility.yul\":3227:3228   */\n  0x01\n    /* \"#utility.yul\":3222:3885   */\n  dup2\n  eq\n  tag_51\n  jumpi\n    /* \"#utility.yul\":3929:3930   */\n  0x00\n    /* \"#utility.yul\":3946:3952   */\n  dup5\n    /* \"#utility.yul\":3943:4032   */\n  iszero\n  tag_52\n  jumpi\n  pop\n    /* \"#utility.yul\":3998:4017   */\n  dup6\n  dup4\n  add\n    /* \"#utility.yul\":3992:4018   */\n  mload\n    /* \"#utility.yul\":3943:4032   */\ntag_52:\n  not(0x00)\n    /* \"#utility.yul\":2747:2748   */\n  0x03\n    /* \"#utility.yul\":2743:2754   */\n  dup7\n  swap1\n  shl\n    /* \"#utility.yul\":2739:2763   */\n  shr\n    /* \"#utility.yul\":2735:2764   */\n  not\n    /* \"#utility.yul\":2725:2765   */\n  and\n    /* \"#utility.yul\":2771:2772   */\n  0x01\n    /* \"#utility.yul\":2767:2778   */\n  dup6\n  swap1\n  shl\n    /* \"#utility.yul\":2722:2779   */\n  or\n    /* \"#utility.yul\":4045:4126   */\n  dup6\n  sstore\n    /* \"#utility.yul\":3192:4136   */\n  jump(tag_43)\n    /* \"#utility.yul\":3222:3885   */\ntag_51:\n    /* \"#utility.yul\":2016:2017   */\n  0x00\n    /* \"#utility.yul\":2009:2023   */\n  dup6\n  dup2\n  mstore\n    /* \"#utility.yul\":2053:2057   */\n  0x20\n    /* \"#utility.yul\":2040:2058   */\n  dup2\n  keccak256\n  not(0x1f)\n    /* \"#utility.yul\":3258:3278   */\n  dup7\n  and\n  swap2\n    /* \"#utility.yul\":3376:3612   */\ntag_55:\n    /* \"#utility.yul\":3390:3397   */\n  dup3\n    /* \"#utility.yul\":3387:3388   */\n  dup2\n    /* \"#utility.yul\":3384:3398   */\n  lt\n    /* \"#utility.yul\":3376:3612   */\n  iszero\n  tag_57\n  jumpi\n    /* \"#utility.yul\":3479:3498   */\n  dup9\n  dup7\n  add\n    /* \"#utility.yul\":3473:3499   */\n  mload\n    /* \"#utility.yul\":3458:3500   */\n  dup3\n  sstore\n    /* \"#utility.yul\":3571:3598   */\n  swap5\n  dup5\n  add\n  swap5\n    /* \"#utility.yul\":3539:3540   */\n  0x01\n    /* \"#utility.yul\":3527:3541   */\n  swap1\n  swap2\n  add\n  swap1\n    /* \"#utility.yul\":3406:3425   */\n  dup5\n  add\n    /* \"#utility.yul\":3376:3612   */\n  jump(tag_55)\ntag_57:\n    /* \"#utility.yul\":3380:3383   */\n  pop\n    /* \"#utility.yul\":3640:3646   */\n  dup6\n    /* \"#utility.yul\":3631:3638   */\n  dup3\n    /* \"#utility.yul\":3628:3647   */\n  lt\n    /* \"#utility.yul\":3625:3826   */\n  iszero\n  tag_58\n  jumpi\n    /* \"#utility.yul\":3701:3720   */\n  dup8\n  dup6\n  add\n    /* \"#utility.yul\":3695:3721   */\n  mload\n  not(0x00)\n    /* \"#utility.yul\":3784:3785   */\n  0x03\n    /* \"#utility.yul\":3780:3794   */\n  dup9\n  swap1\n  shl\n    /* \"#utility.yul\":3796:3799   */\n  0xf8\n    /* \"#utility.yul\":3776:3800   */\n  and\n    /* \"#utility.yul\":3772:3809   */\n  shr\n    /* \"#utility.yul\":3768:3810   */\n  not\n    /* \"#utility.yul\":3753:3811   */\n  and\n    /* \"#utility.yul\":3738:3812   */\n  dup2\n  sstore\n    /* \"#utility.yul\":3625:3826   */\ntag_58:\n  pop\n  pop\n  pop\n  pop\n  pop\n    /* \"#utility.yul\":3872:3873   */\n  0x01\n    /* \"#utility.yul\":3856:3870   */\n  swap1\n  dup2\n  shl\n    /* \"#utility.yul\":3852:3874   */\n  add\n    /* \"#utility.yul\":3839:3875   */\n  swap1\n  sstore\n  pop\n    /* \"#utility.yul\":2790:4142   */\n  jump\t// out\ntag_16:\n    /* \"TokenSGTX/contracts/LicensesTaxs.sol\":158:10099  contract LicenseTaxPayer is ISignature {... */\n  dataSize(sub_0)\n  dup1\n  dataOffset(sub_0)\n  0x00\n  codecopy\n  0x00\n  return\nstop\n\nsub_0: assembly {\n        /* \"TokenSGTX/contracts/LicensesTaxs.sol\":158:10099  contract LicenseTaxPayer is ISignature {... */\n      mstore(0x40, 0x80)\n      jumpi(tag_1, lt(calldatasize, 0x04))\n      shr(0xe0, calldataload(0x00))\n      dup1\n      0x95d89b41\n      gt\n      tag_25\n      jumpi\n      dup1\n      0xc4b14e0b\n      gt\n      tag_26\n      jumpi\n      dup1\n      0xc4b14e0b\n      eq\n      tag_19\n      jumpi\n      dup1\n      0xc8c2f4fe\n      eq\n      tag_20\n      jumpi\n      dup1\n      0xce7262a1\n      eq\n      tag_21\n      jumpi\n      dup1\n      0xd84ab181\n      eq\n      tag_22\n      jumpi\n      dup1\n      0xdc2aa909\n      eq\n      tag_23\n      jumpi\n      dup1\n      0xe516224e\n      eq\n      tag_24\n      jumpi\n      0x00\n      dup1\n      revert\n    tag_26:\n      dup1\n      0x95d89b41\n      eq\n      tag_13\n      jumpi\n      dup1\n      0x9dfb7831\n      eq\n      tag_14\n      jumpi\n      dup1\n      0xa2309ff8\n      eq\n      tag_15\n      jumpi\n      dup1\n      0xb69ef8a8\n      eq\n      tag_16\n      jumpi\n      dup1\n      0xbeb9716d\n      eq\n      tag_17\n      jumpi\n      dup1\n      0xbff2d536\n      eq\n      tag_18\n      jumpi\n      0x00\n      dup1\n      revert\n    tag_25:\n      dup1\n      0x3fde3309\n      gt\n      tag_27\n      jumpi\n      dup1\n      0x3fde3309\n      eq\n      tag_7\n      jumpi\n      dup1\n      0x6d73e669\n      eq\n      tag_8\n      jumpi\n      dup1\n      0x6ff968c3\n      eq\n      tag_9\n      jumpi\n      dup1\n      0x7ea5cc1a\n      eq\n      tag_10\n      jumpi\n      dup1\n      0x83fc58b4\n      eq\n      tag_11\n      jumpi\n      dup1\n      0x84e26b2c\n      eq\n      tag_12\n      jumpi\n      0x00\n      dup1\n      revert\n    tag_27:\n      dup1\n      0x06fdde03\n      eq\n      tag_2\n      jumpi\n      dup1\n      0x0c0bd76b\n      eq\n      tag_3\n      jumpi\n      dup1\n      0x10e5bff8\n      eq\n      tag_4\n      jumpi\n      dup1\n      0x147bf6c4\n      eq\n      tag_5\n      jumpi\n      dup1\n      0x369f6cd7\n      eq\n      tag_6\n      jumpi\n    tag_1:\n      0x00\n      dup1\n      revert\n        /* \"TokenSGTX/contracts/LicensesTaxs.sol\":9729:9820  function name() public view virtual returns (string memory) {... */\n    tag_2:\n      callvalue\n      dup1\n      iszero\n      tag_28\n      jumpi\n      0x00\n      dup1\n      revert\n    tag_28:\n      pop\n      tag_29\n      tag_30\n      jump\t// in\n    tag_29:\n      mload(0x40)\n      tag_31\n      swap2\n      swap1\n      tag_32\n      jump\t// in\n    tag_31:\n      mload(0x40)\n      dup1\n      swap2\n      sub\n      swap1\n      return\n        /* \"TokenSGTX/contracts/LicensesTaxs.sol\":3070:3406  function getOwnnerSignature(... */\n    tag_3:\n      callvalue\n      dup1\n      iszero\n      tag_33\n      jumpi\n      0x00\n      dup1\n      revert\n    tag_33:\n      pop\n      tag_34\n      tag_35\n      calldatasize\n      0x04\n      tag_36\n      jump\t// in\n    tag_35:\n      tag_37\n      jump\t// in\n    tag_34:\n      mload(0x40)\n      tag_31\n      swap2\n      swap1\n      tag_39\n      jump\t// in\n        /* \"TokenSGTX/contracts/LicensesTaxs.sol\":8949:9171  function setSuccessor(address _successor) public payable isOwner returns (address) {... */\n    tag_4:\n      tag_40\n      tag_41\n      calldatasize\n      0x04\n      tag_42\n      jump\t// in\n    tag_41:\n      tag_43\n      jump\t// in\n    tag_40:\n      mload(0x40)\n      sub(shl(0xa0, 0x01), 0x01)\n        /* \"#utility.yul\":2765:2797   */\n      swap1\n      swap2\n      and\n        /* \"#utility.yul\":2747:2798   */\n      dup2\n      mstore\n        /* \"#utility.yul\":2735:2737   */\n      0x20\n        /* \"#utility.yul\":2720:2738   */\n      add\n        /* \"TokenSGTX/contracts/LicensesTaxs.sol\":8949:9171  function setSuccessor(address _successor) public payable isOwner returns (address) {... */\n      tag_31\n        /* \"#utility.yul\":2601:2804   */\n      jump\n        /* \"TokenSGTX/contracts/LicensesTaxs.sol\":7555:7930  function proposeAdmin(... */\n    tag_5:\n      tag_46\n      tag_47\n      calldatasize\n      0x04\n      tag_42\n      jump\t// in\n    tag_47:\n      tag_48\n      jump\t// in\n    tag_46:\n      mload(0x40)\n        /* \"#utility.yul\":2974:2988   */\n      swap1\n      iszero\n        /* \"#utility.yul\":2967:2989   */\n      iszero\n        /* \"#utility.yul\":2949:2990   */\n      dup2\n      mstore\n        /* \"#utility.yul\":2937:2939   */\n      0x20\n        /* \"#utility.yul\":2922:2940   */\n      add\n        /* \"TokenSGTX/contracts/LicensesTaxs.sol\":7555:7930  function proposeAdmin(... */\n      tag_31\n        /* \"#utility.yul\":2809:2996   */\n      jump\n        /* \"TokenSGTX/contracts/LicensesTaxs.sol\":3414:3570  function getManyAddressSignature(... */\n    tag_6:\n      callvalue\n      dup1\n      iszero\n      tag_51\n      jumpi\n      0x00\n      dup1\n      revert\n    tag_51:\n      pop\n      tag_52\n      tag_53\n      calldatasize\n      0x04\n      tag_42\n      jump\t// in\n    tag_53:\n      tag_54\n      jump\t// in\n    tag_52:\n      mload(0x40)\n      tag_31\n      swap2\n      swap1\n      tag_56\n      jump\t// in\n        /* \"TokenSGTX/contracts/LicensesTaxs.sol\":3578:3703  function getOwnerAddressSignature() external view returns (bytes32[] memory) {... */\n    tag_7:\n      callvalue\n      dup1\n      iszero\n      tag_57\n      jumpi\n      0x00\n      dup1\n      revert\n    tag_57:\n      pop\n      tag_52\n      tag_59\n      jump\t// in\n        /* \"TokenSGTX/contracts/LicensesTaxs.sol\":7938:8361  function approveAdmin(... */\n    tag_8:\n      tag_46\n      tag_62\n      calldatasize\n      0x04\n      tag_42\n      jump\t// in\n    tag_62:\n      tag_63\n      jump\t// in\n        /* \"TokenSGTX/contracts/LicensesTaxs.sol\":1019:1043  address public successor */\n    tag_9:\n      callvalue\n      dup1\n      iszero\n      tag_65\n      jumpi\n      0x00\n      dup1\n      revert\n    tag_65:\n      pop\n      sload(0x09)\n      tag_40\n      swap1\n      sub(shl(0xa0, 0x01), 0x01)\n      and\n      dup2\n      jump\n        /* \"TokenSGTX/contracts/LicensesTaxs.sol\":5214:5699  function validateData(... */\n    tag_10:\n      callvalue\n      dup1\n      iszero\n      tag_69\n      jumpi\n      0x00\n      dup1\n      revert\n    tag_69:\n      pop\n      tag_46\n      tag_71\n      calldatasize\n      0x04\n      tag_72\n      jump\t// in\n    tag_71:\n      tag_73\n      jump\t// in\n        /* \"TokenSGTX/contracts/LicensesTaxs.sol\":8711:8941  function tranferOwnership(... */\n    tag_11:\n      tag_46\n      tag_76\n      calldatasize\n      0x04\n      tag_42\n      jump\t// in\n    tag_76:\n      tag_77\n      jump\t// in\n        /* \"TokenSGTX/contracts/LicensesTaxs.sol\":3711:3852  function taxpayerAddress(... */\n    tag_12:\n      callvalue\n      dup1\n      iszero\n      tag_79\n      jumpi\n      0x00\n      dup1\n      revert\n    tag_79:\n      pop\n      tag_40\n      tag_81\n      calldatasize\n      0x04\n      tag_82\n      jump\t// in\n    tag_81:\n      tag_83\n      jump\t// in\n        /* \"TokenSGTX/contracts/LicensesTaxs.sol\":9889:9984  function symbol() public view virtual returns (string memory) {... */\n    tag_13:\n      callvalue\n      dup1\n      iszero\n      tag_85\n      jumpi\n      0x00\n      dup1\n      revert\n    tag_85:\n      pop\n      tag_29\n      tag_87\n      jump\t// in\n        /* \"TokenSGTX/contracts/LicensesTaxs.sol\":7341:7547  function addTaxPayer(... */\n    tag_14:\n      tag_46\n      tag_90\n      calldatasize\n      0x04\n      tag_91\n      jump\t// in\n    tag_90:\n      tag_92\n      jump\t// in\n        /* \"TokenSGTX/contracts/LicensesTaxs.sol\":1052:1080  int32 public totalMinted = 0 */\n    tag_15:\n      callvalue\n      dup1\n      iszero\n      tag_94\n      jumpi\n      0x00\n      dup1\n      revert\n    tag_94:\n      pop\n      sload(0x09)\n      tag_95\n      swap1\n      shl(0xa0, 0x01)\n      swap1\n      div\n      0x03\n      signextend\n      dup2\n      jump\n    tag_95:\n      mload(0x40)\n        /* \"#utility.yul\":6543:6544   */\n      0x03\n        /* \"#utility.yul\":6532:6553   */\n      swap2\n      swap1\n      swap2\n      signextend\n        /* \"#utility.yul\":6514:6554   */\n      dup2\n      mstore\n        /* \"#utility.yul\":6502:6504   */\n      0x20\n        /* \"#utility.yul\":6487:6505   */\n      add\n        /* \"TokenSGTX/contracts/LicensesTaxs.sol\":1052:1080  int32 public totalMinted = 0 */\n      tag_31\n        /* \"#utility.yul\":6372:6560   */\n      jump\n        /* \"TokenSGTX/contracts/LicensesTaxs.sol\":9992:10096  function balance() public view virtual returns (uint256) {... */\n    tag_16:\n      callvalue\n      dup1\n      iszero\n      tag_99\n      jumpi\n      0x00\n      dup1\n      revert\n    tag_99:\n      pop\n        /* \"TokenSGTX/contracts/LicensesTaxs.sol\":10077:10087  msg.sender */\n      caller\n        /* \"TokenSGTX/contracts/LicensesTaxs.sol\":10040:10047  uint256 */\n      0x00\n        /* \"TokenSGTX/contracts/LicensesTaxs.sol\":10067:10088  _balances[msg.sender] */\n      swap1\n      dup2\n      mstore\n        /* \"TokenSGTX/contracts/LicensesTaxs.sol\":10067:10076  _balances */\n      0x07\n        /* \"TokenSGTX/contracts/LicensesTaxs.sol\":10067:10088  _balances[msg.sender] */\n      0x20\n      mstore\n      0x40\n      swap1\n      keccak256\n      sload\n        /* \"TokenSGTX/contracts/LicensesTaxs.sol\":9992:10096  function balance() public view virtual returns (uint256) {... */\n    tag_100:\n      mload(0x40)\n        /* \"#utility.yul\":6711:6736   */\n      swap1\n      dup2\n      mstore\n        /* \"#utility.yul\":6699:6701   */\n      0x20\n        /* \"#utility.yul\":6684:6702   */\n      add\n        /* \"TokenSGTX/contracts/LicensesTaxs.sol\":9992:10096  function balance() public view virtual returns (uint256) {... */\n      tag_31\n        /* \"#utility.yul\":6565:6742   */\n      jump\n        /* \"TokenSGTX/contracts/LicensesTaxs.sol\":9314:9399  function canMint() external view returns (bool) {... */\n    tag_17:\n      callvalue\n      dup1\n      iszero\n      tag_104\n      jumpi\n      0x00\n      dup1\n      revert\n    tag_104:\n      pop\n        /* \"TokenSGTX/contracts/LicensesTaxs.sol\":9380:9391  stopMinting */\n      sload(0x08)\n      shl(0xa0, 0x01)\n      swap1\n      div\n      0xff\n      and\n        /* \"TokenSGTX/contracts/LicensesTaxs.sol\":9314:9399  function canMint() external view returns (bool) {... */\n      jump(tag_46)\n        /* \"TokenSGTX/contracts/LicensesTaxs.sol\":2623:2886  function signatureValidate(... */\n    tag_18:\n      callvalue\n      dup1\n      iszero\n      tag_108\n      jumpi\n      0x00\n      dup1\n      revert\n    tag_108:\n      pop\n      tag_46\n      tag_110\n      calldatasize\n      0x04\n      tag_36\n      jump\t// in\n    tag_110:\n      tag_111\n      jump\t// in\n        /* \"TokenSGTX/contracts/LicensesTaxs.sol\":2894:3062  function getSignature(... */\n    tag_19:\n      callvalue\n      dup1\n      iszero\n      tag_113\n      jumpi\n      0x00\n      dup1\n      revert\n    tag_113:\n      pop\n      tag_34\n      tag_115\n      calldatasize\n      0x04\n      tag_36\n      jump\t// in\n    tag_115:\n      tag_116\n      jump\t// in\n        /* \"TokenSGTX/contracts/LicensesTaxs.sol\":8369:8703  function addApprover(... */\n    tag_20:\n      tag_46\n      tag_119\n      calldatasize\n      0x04\n      tag_91\n      jump\t// in\n    tag_119:\n      tag_120\n      jump\t// in\n        /* \"TokenSGTX/contracts/LicensesTaxs.sol\":1355:2615  function signatureMint(... */\n    tag_21:\n      tag_100\n      tag_123\n      calldatasize\n      0x04\n      tag_72\n      jump\t// in\n    tag_123:\n      tag_124\n      jump\t// in\n        /* \"TokenSGTX/contracts/LicensesTaxs.sol\":6248:6942  function expirationLicense(... */\n    tag_22:\n      tag_46\n      tag_128\n      calldatasize\n      0x04\n      tag_36\n      jump\t// in\n    tag_128:\n      tag_129\n      jump\t// in\n        /* \"TokenSGTX/contracts/LicensesTaxs.sol\":9179:9306  function mintingStop() public isOwner returns (bool) {... */\n    tag_23:\n      callvalue\n      dup1\n      iszero\n      tag_131\n      jumpi\n      0x00\n      dup1\n      revert\n    tag_131:\n      pop\n      tag_46\n      tag_133\n      jump\t// in\n        /* \"TokenSGTX/contracts/LicensesTaxs.sol\":6952:7333  function getExpiredLicense(address _owner , bytes32 sign) public payable isOwner returns (StructSignature memory) {... */\n    tag_24:\n      tag_34\n      tag_136\n      calldatasize\n      0x04\n      tag_137\n      jump\t// in\n    tag_136:\n      tag_138\n      jump\t// in\n        /* \"TokenSGTX/contracts/LicensesTaxs.sol\":9729:9820  function name() public view virtual returns (string memory) {... */\n    tag_30:\n        /* \"TokenSGTX/contracts/LicensesTaxs.sol\":9774:9787  string memory */\n      0x60\n        /* \"TokenSGTX/contracts/LicensesTaxs.sol\":9807:9812  _name */\n      0x0a\n        /* \"TokenSGTX/contracts/LicensesTaxs.sol\":9800:9812  return _name */\n      dup1\n      sload\n      tag_141\n      swap1\n      tag_142\n      jump\t// in\n    tag_141:\n      dup1\n      0x1f\n      add\n      0x20\n      dup1\n      swap2\n      div\n      mul\n      0x20\n      add\n      mload(0x40)\n      swap1\n      dup2\n      add\n      0x40\n      mstore\n      dup1\n      swap3\n      swap2\n      swap1\n      dup2\n      dup2\n      mstore\n      0x20\n      add\n      dup3\n      dup1\n      sload\n      tag_143\n      swap1\n      tag_142\n      jump\t// in\n    tag_143:\n      dup1\n      iszero\n      tag_144\n      jumpi\n      dup1\n      0x1f\n      lt\n      tag_145\n      jumpi\n      0x0100\n      dup1\n      dup4\n      sload\n      div\n      mul\n      dup4\n      mstore\n      swap2\n      0x20\n      add\n      swap2\n      jump(tag_144)\n    tag_145:\n      dup3\n      add\n      swap2\n      swap1\n      0x00\n      mstore\n      keccak256(0x00, 0x20)\n      swap1\n    tag_146:\n      dup2\n      sload\n      dup2\n      mstore\n      swap1\n      0x01\n      add\n      swap1\n      0x20\n      add\n      dup1\n      dup4\n      gt\n      tag_146\n      jumpi\n      dup3\n      swap1\n      sub\n      0x1f\n      and\n      dup3\n      add\n      swap2\n    tag_144:\n      pop\n      pop\n      pop\n      pop\n      pop\n      swap1\n      pop\n        /* \"TokenSGTX/contracts/LicensesTaxs.sol\":9729:9820  function name() public view virtual returns (string memory) {... */\n      swap1\n      jump\t// out\n        /* \"TokenSGTX/contracts/LicensesTaxs.sol\":3070:3406  function getOwnnerSignature(... */\n    tag_37:\n        /* \"TokenSGTX/contracts/LicensesTaxs.sol\":3157:3179  StructSignature memory */\n      tag_147\n      tag_148\n      jump\t// in\n    tag_147:\n        /* \"TokenSGTX/contracts/LicensesTaxs.sol\":3192:3218  StructSignature memory obj */\n      0x00\n        /* \"TokenSGTX/contracts/LicensesTaxs.sol\":3221:3250  _signatureEnabled[singnature] */\n      dup3\n      dup2\n      mstore\n      0x20\n      dup2\n      swap1\n      mstore\n      0x40\n      dup1\n      dup3\n      keccak256\n        /* \"TokenSGTX/contracts/LicensesTaxs.sol\":3192:3250  StructSignature memory obj = _signatureEnabled[singnature] */\n      dup2\n      mload\n      0xe0\n      dup2\n      add\n      swap1\n      swap3\n      mstore\n      dup1\n      sload\n      dup3\n      swap1\n        /* \"TokenSGTX/contracts/LicensesTaxs.sol\":3221:3250  _signatureEnabled[singnature] */\n      dup3\n      swap1\n        /* \"TokenSGTX/contracts/LicensesTaxs.sol\":3192:3250  StructSignature memory obj = _signatureEnabled[singnature] */\n      tag_150\n      swap1\n      tag_142\n      jump\t// in\n    tag_150:\n      dup1\n      0x1f\n      add\n      0x20\n      dup1\n      swap2\n      div\n      mul\n      0x20\n      add\n      mload(0x40)\n      swap1\n      dup2\n      add\n      0x40\n      mstore\n      dup1\n      swap3\n      swap2\n      swap1\n      dup2\n      dup2\n      mstore\n      0x20\n      add\n      dup3\n      dup1\n      sload\n      tag_151\n      swap1\n      tag_142\n      jump\t// in\n    tag_151:\n      dup1\n      iszero\n      tag_152\n      jumpi\n      dup1\n      0x1f\n      lt\n      tag_153\n      jumpi\n      0x0100\n      dup1\n      dup4\n      sload\n      div\n      mul\n      dup4\n      mstore\n      swap2\n      0x20\n      add\n      swap2\n      jump(tag_152)\n    tag_153:\n      dup3\n      add\n      swap2\n      swap1\n      0x00\n      mstore\n      keccak256(0x00, 0x20)\n      swap1\n    tag_154:\n      dup2\n      sload\n      dup2\n      mstore\n      swap1\n      0x01\n      add\n      swap1\n      0x20\n      add\n      dup1\n      dup4\n      gt\n      tag_154\n      jumpi\n      dup3\n      swap1\n      sub\n      0x1f\n      and\n      dup3\n      add\n      swap2\n    tag_152:\n      pop\n      pop\n      pop\n      pop\n      pop\n      dup2\n      mstore\n      0x20\n      add\n      0x01\n      dup3\n      add\n      dup1\n      sload\n      tag_155\n      swap1\n      tag_142\n      jump\t// in\n    tag_155:\n      dup1\n      0x1f\n      add\n      0x20\n      dup1\n      swap2\n      div\n      mul\n      0x20\n      add\n      mload(0x40)\n      swap1\n      dup2\n      add\n      0x40\n      mstore\n      dup1\n      swap3\n      swap2\n      swap1\n      dup2\n      dup2\n      mstore\n      0x20\n      add\n      dup3\n      dup1\n      sload\n      tag_156\n      swap1\n      tag_142\n      jump\t// in\n    tag_156:\n      dup1\n      iszero\n      tag_157\n      jumpi\n      dup1\n      0x1f\n      lt\n      tag_158\n      jumpi\n      0x0100\n      dup1\n      dup4\n      sload\n      div\n      mul\n      dup4\n      mstore\n      swap2\n      0x20\n      add\n      swap2\n      jump(tag_157)\n    tag_158:\n      dup3\n      add\n      swap2\n      swap1\n      0x00\n      mstore\n      keccak256(0x00, 0x20)\n      swap1\n    tag_159:\n      dup2\n      sload\n      dup2\n      mstore\n      swap1\n      0x01\n      add\n      swap1\n      0x20\n      add\n      dup1\n      dup4\n      gt\n      tag_159\n      jumpi\n      dup3\n      swap1\n      sub\n      0x1f\n      and\n      dup3\n      add\n      swap2\n    tag_157:\n      pop\n      pop\n      pop\n      swap2\n      dup4\n      mstore\n      pop\n      pop\n      0x02\n      dup3\n      add\n      sload\n      sub(shl(0xa0, 0x01), 0x01)\n      and\n      0x20\n      dup3\n      add\n      mstore\n      0x03\n      dup3\n      add\n      dup1\n      sload\n      0x40\n      swap1\n      swap3\n      add\n      swap2\n      tag_160\n      swap1\n      tag_142\n      jump\t// in\n    tag_160:\n      dup1\n      0x1f\n      add\n      0x20\n      dup1\n      swap2\n      div\n      mul\n      0x20\n      add\n      mload(0x40)\n      swap1\n      dup2\n      add\n      0x40\n      mstore\n      dup1\n      swap3\n      swap2\n      swap1\n      dup2\n      dup2\n      mstore\n      0x20\n      add\n      dup3\n      dup1\n      sload\n      tag_161\n      swap1\n      tag_142\n      jump\t// in\n    tag_161:\n      dup1\n      iszero\n      tag_162\n      jumpi\n      dup1\n      0x1f\n      lt\n      tag_163\n      jumpi\n      0x0100\n      dup1\n      dup4\n      sload\n      div\n      mul\n      dup4\n      mstore\n      swap2\n      0x20\n      add\n      swap2\n      jump(tag_162)\n    tag_163:\n      dup3\n      add\n      swap2\n      swap1\n      0x00\n      mstore\n      keccak256(0x00, 0x20)\n      swap1\n    tag_164:\n      dup2\n      sload\n      dup2\n      mstore\n      swap1\n      0x01\n      add\n      swap1\n      0x20\n      add\n      dup1\n      dup4\n      gt\n      tag_164\n      jumpi\n      dup3\n      swap1\n      sub\n      0x1f\n      and\n      dup3\n      add\n      swap2\n    tag_162:\n      pop\n      pop\n      pop\n      swap2\n      dup4\n      mstore\n      pop\n      pop\n      0x04\n      dup3\n      add\n      sload\n      sub(shl(0xa0, 0x01), 0x01)\n      swap1\n      dup2\n      and\n      0x20\n      dup4\n      add\n      mstore\n      0x05\n      dup4\n      add\n      sload\n      0x40\n      dup1\n      dup5\n      add\n      swap2\n      swap1\n      swap2\n      mstore\n      0x06\n      swap1\n      swap4\n      add\n      sload\n      0xff\n      and\n      iszero\n      iszero\n      0x60\n      swap1\n      swap3\n      add\n      swap2\n      swap1\n      swap2\n      mstore\n        /* \"TokenSGTX/contracts/LicensesTaxs.sol\":3283:3292  obj.owner */\n      swap1\n      dup3\n      add\n      mload\n        /* \"TokenSGTX/contracts/LicensesTaxs.sol\":3192:3250  StructSignature memory obj = _signatureEnabled[singnature] */\n      swap2\n      swap3\n      pop\n        /* \"TokenSGTX/contracts/LicensesTaxs.sol\":3283:3306  obj.owner == msg.sender */\n      and\n        /* \"TokenSGTX/contracts/LicensesTaxs.sol\":3296:3306  msg.sender */\n      caller\n        /* \"TokenSGTX/contracts/LicensesTaxs.sol\":3283:3306  obj.owner == msg.sender */\n      eq\n        /* \"TokenSGTX/contracts/LicensesTaxs.sol\":3261:3376  require(... */\n      tag_165\n      jumpi\n      mload(0x40)\n      shl(0xe5, 0x461bcd)\n      dup2\n      mstore\n        /* \"#utility.yul\":7775:7777   */\n      0x20\n        /* \"TokenSGTX/contracts/LicensesTaxs.sol\":3261:3376  require(... */\n      0x04\n      dup3\n      add\n        /* \"#utility.yul\":7757:7778   */\n      mstore\n        /* \"#utility.yul\":7814:7816   */\n      0x2a\n        /* \"#utility.yul\":7794:7812   */\n      0x24\n      dup3\n      add\n        /* \"#utility.yul\":7787:7817   */\n      mstore\n        /* \"#utility.yul\":7853:7887   */\n      0x596f75206d6f6e737420626520746865206f776e657220746f2073686f772064\n        /* \"#utility.yul\":7833:7851   */\n      0x44\n      dup3\n      add\n        /* \"#utility.yul\":7826:7888   */\n      mstore\n      shl(0xb2, 0x185d18481cda59db9959)\n        /* \"#utility.yul\":7904:7922   */\n      0x64\n      dup3\n      add\n        /* \"#utility.yul\":7897:7937   */\n      mstore\n        /* \"#utility.yul\":7954:7973   */\n      0x84\n      add\n        /* \"TokenSGTX/contracts/LicensesTaxs.sol\":3261:3376  require(... */\n    tag_166:\n      mload(0x40)\n      dup1\n      swap2\n      sub\n      swap1\n      revert\n    tag_165:\n        /* \"TokenSGTX/contracts/LicensesTaxs.sol\":3395:3398  obj */\n      swap3\n        /* \"TokenSGTX/contracts/LicensesTaxs.sol\":3070:3406  function getOwnnerSignature(... */\n      swap2\n      pop\n      pop\n      jump\t// out\n        /* \"TokenSGTX/contracts/LicensesTaxs.sol\":8949:9171  function setSuccessor(address _successor) public payable isOwner returns (address) {... */\n    tag_43:\n        /* \"TokenSGTX/contracts/LicensesTaxs.sol\":9459:9464  owner */\n      sload(0x08)\n        /* \"TokenSGTX/contracts/LicensesTaxs.sol\":9023:9030  address */\n      0x00\n      swap1\n      sub(shl(0xa0, 0x01), 0x01)\n        /* \"TokenSGTX/contracts/LicensesTaxs.sol\":9459:9464  owner */\n      and\n        /* \"TokenSGTX/contracts/LicensesTaxs.sol\":9445:9455  msg.sender */\n      caller\n        /* \"TokenSGTX/contracts/LicensesTaxs.sol\":9445:9464  msg.sender == owner */\n      eq\n        /* \"TokenSGTX/contracts/LicensesTaxs.sol\":9437:9492  require(msg.sender == owner, \"Only Owner can activate\") */\n      tag_169\n      jumpi\n      mload(0x40)\n      shl(0xe5, 0x461bcd)\n      dup2\n      mstore\n      0x04\n      add\n      tag_166\n      swap1\n      tag_171\n      jump\t// in\n    tag_169:\n      sub(shl(0xa0, 0x01), 0x01)\n        /* \"TokenSGTX/contracts/LicensesTaxs.sol\":9051:9075  _successor != address(0) */\n      dup3\n      and\n        /* \"TokenSGTX/contracts/LicensesTaxs.sol\":9043:9103  require(_successor != address(0), \"Must be a valid address\") */\n      tag_173\n      jumpi\n      mload(0x40)\n      shl(0xe5, 0x461bcd)\n      dup2\n      mstore\n        /* \"#utility.yul\":8538:8540   */\n      0x20\n        /* \"TokenSGTX/contracts/LicensesTaxs.sol\":9043:9103  require(_successor != address(0), \"Must be a valid address\") */\n      0x04\n      dup3\n      add\n        /* \"#utility.yul\":8520:8541   */\n      mstore\n        /* \"#utility.yul\":8577:8579   */\n      0x17\n        /* \"#utility.yul\":8557:8575   */\n      0x24\n      dup3\n      add\n        /* \"#utility.yul\":8550:8580   */\n      mstore\n        /* \"#utility.yul\":8616:8641   */\n      0x4d75737420626520612076616c69642061646472657373000000000000000000\n        /* \"#utility.yul\":8596:8614   */\n      0x44\n      dup3\n      add\n        /* \"#utility.yul\":8589:8642   */\n      mstore\n        /* \"#utility.yul\":8659:8677   */\n      0x64\n      add\n        /* \"TokenSGTX/contracts/LicensesTaxs.sol\":9043:9103  require(_successor != address(0), \"Must be a valid address\") */\n      tag_166\n        /* \"#utility.yul\":8336:8683   */\n      jump\n        /* \"TokenSGTX/contracts/LicensesTaxs.sol\":9043:9103  require(_successor != address(0), \"Must be a valid address\") */\n    tag_173:\n      pop\n        /* \"TokenSGTX/contracts/LicensesTaxs.sol\":9114:9123  successor */\n      0x09\n        /* \"TokenSGTX/contracts/LicensesTaxs.sol\":9114:9136  successor = _successor */\n      dup1\n      sload\n      not(sub(shl(0xa0, 0x01), 0x01))\n      and\n      sub(shl(0xa0, 0x01), 0x01)\n      dup4\n      and\n      swap1\n      dup2\n      or\n      swap1\n      swap2\n      sstore\n        /* \"TokenSGTX/contracts/LicensesTaxs.sol\":9503:9504  _ */\n    tag_172:\n        /* \"TokenSGTX/contracts/LicensesTaxs.sol\":8949:9171  function setSuccessor(address _successor) public payable isOwner returns (address) {... */\n      swap2\n      swap1\n      pop\n      jump\t// out\n        /* \"TokenSGTX/contracts/LicensesTaxs.sol\":7555:7930  function proposeAdmin(... */\n    tag_48:\n        /* \"TokenSGTX/contracts/LicensesTaxs.sol\":9566:9576  msg.sender */\n      caller\n        /* \"TokenSGTX/contracts/LicensesTaxs.sol\":7651:7655  bool */\n      0x00\n        /* \"TokenSGTX/contracts/LicensesTaxs.sol\":9558:9577  _admins[msg.sender] */\n      swap1\n      dup2\n      mstore\n        /* \"TokenSGTX/contracts/LicensesTaxs.sol\":9558:9565  _admins */\n      0x04\n        /* \"TokenSGTX/contracts/LicensesTaxs.sol\":9558:9577  _admins[msg.sender] */\n      0x20\n      mstore\n      0x40\n      dup2\n      keccak256\n      sload\n      0xff\n      and\n        /* \"TokenSGTX/contracts/LicensesTaxs.sol\":9550:9578  require(_admins[msg.sender]) */\n      tag_177\n      jumpi\n      0x00\n      dup1\n      revert\n    tag_177:\n      sub(shl(0xa0, 0x01), 0x01)\n        /* \"TokenSGTX/contracts/LicensesTaxs.sol\":7690:7722  _propoceAdmins[_relationAddress] */\n      dup3\n      and\n      0x00\n      swap1\n      dup2\n      mstore\n        /* \"TokenSGTX/contracts/LicensesTaxs.sol\":7690:7704  _propoceAdmins */\n      0x05\n        /* \"TokenSGTX/contracts/LicensesTaxs.sol\":7690:7722  _propoceAdmins[_relationAddress] */\n      0x20\n      mstore\n      0x40\n      swap1\n      keccak256\n      sload\n      0xff\n      and\n        /* \"TokenSGTX/contracts/LicensesTaxs.sol\":7690:7730  _propoceAdmins[_relationAddress] != true */\n      iszero\n      iszero\n        /* \"TokenSGTX/contracts/LicensesTaxs.sol\":7690:7722  _propoceAdmins[_relationAddress] */\n      0x01\n        /* \"TokenSGTX/contracts/LicensesTaxs.sol\":7690:7730  _propoceAdmins[_relationAddress] != true */\n      sub\n        /* \"TokenSGTX/contracts/LicensesTaxs.sol\":7668:7790  require(... */\n      tag_179\n      jumpi\n      mload(0x40)\n      shl(0xe5, 0x461bcd)\n      dup2\n      mstore\n        /* \"#utility.yul\":8890:8892   */\n      0x20\n        /* \"TokenSGTX/contracts/LicensesTaxs.sol\":7668:7790  require(... */\n      0x04\n      dup3\n      add\n        /* \"#utility.yul\":8872:8893   */\n      dup2\n      swap1\n      mstore\n        /* \"#utility.yul\":8909:8927   */\n      0x24\n      dup3\n      add\n        /* \"#utility.yul\":8902:8932   */\n      mstore\n        /* \"#utility.yul\":8968:9002   */\n      0x6164647265737320666f722061646d696e20616c726564792070726f706f7365\n        /* \"#utility.yul\":8948:8966   */\n      0x44\n      dup3\n      add\n        /* \"#utility.yul\":8941:9003   */\n      mstore\n        /* \"#utility.yul\":9020:9038   */\n      0x64\n      add\n        /* \"TokenSGTX/contracts/LicensesTaxs.sol\":7668:7790  require(... */\n      tag_166\n        /* \"#utility.yul\":8688:9044   */\n      jump\n        /* \"TokenSGTX/contracts/LicensesTaxs.sol\":7668:7790  require(... */\n    tag_179:\n      sub(shl(0xa0, 0x01), 0x01)\n        /* \"TokenSGTX/contracts/LicensesTaxs.sol\":7801:7833  _propoceAdmins[_relationAddress] */\n      dup3\n      and\n      0x00\n      dup2\n      dup2\n      mstore\n        /* \"TokenSGTX/contracts/LicensesTaxs.sol\":7801:7815  _propoceAdmins */\n      0x05\n        /* \"TokenSGTX/contracts/LicensesTaxs.sol\":7801:7833  _propoceAdmins[_relationAddress] */\n      0x20\n      swap1\n      dup2\n      mstore\n      0x40\n      swap2\n      dup3\n      swap1\n      keccak256\n        /* \"TokenSGTX/contracts/LicensesTaxs.sol\":7801:7840  _propoceAdmins[_relationAddress] = true */\n      dup1\n      sload\n      not(0xff)\n      and\n        /* \"TokenSGTX/contracts/LicensesTaxs.sol\":7836:7840  true */\n      0x01\n        /* \"TokenSGTX/contracts/LicensesTaxs.sol\":7801:7840  _propoceAdmins[_relationAddress] = true */\n      swap1\n      dup2\n      or\n      swap1\n      swap2\n      sstore\n        /* \"TokenSGTX/contracts/LicensesTaxs.sol\":7856:7900  eventNewAdminPropose(_relationAddress, true) */\n      swap2\n      mload\n        /* \"#utility.yul\":2949:2990   */\n      swap2\n      dup3\n      mstore\n        /* \"TokenSGTX/contracts/LicensesTaxs.sol\":7856:7900  eventNewAdminPropose(_relationAddress, true) */\n      0xfcd0029428c001bd11d12d6e8302dda11ac68335a836d75d43004bf4ca7292ef\n      swap2\n        /* \"#utility.yul\":2922:2940   */\n      add\n        /* \"TokenSGTX/contracts/LicensesTaxs.sol\":7856:7900  eventNewAdminPropose(_relationAddress, true) */\n    tag_182:\n      mload(0x40)\n      dup1\n      swap2\n      sub\n      swap1\n      log2\n      pop\n        /* \"TokenSGTX/contracts/LicensesTaxs.sol\":7918:7922  true */\n      0x01\n        /* \"TokenSGTX/contracts/LicensesTaxs.sol\":7555:7930  function proposeAdmin(... */\n      swap2\n      swap1\n      pop\n      jump\t// out\n        /* \"TokenSGTX/contracts/LicensesTaxs.sol\":3414:3570  function getManyAddressSignature(... */\n    tag_54:\n        /* \"TokenSGTX/contracts/LicensesTaxs.sol\":9566:9576  msg.sender */\n      caller\n        /* \"TokenSGTX/contracts/LicensesTaxs.sol\":9558:9577  _admins[msg.sender] */\n      0x00\n      swap1\n      dup2\n      mstore\n        /* \"TokenSGTX/contracts/LicensesTaxs.sol\":9558:9565  _admins */\n      0x04\n        /* \"TokenSGTX/contracts/LicensesTaxs.sol\":9558:9577  _admins[msg.sender] */\n      0x20\n      mstore\n      0x40\n      swap1\n      keccak256\n      sload\n        /* \"TokenSGTX/contracts/LicensesTaxs.sol\":3509:3525  bytes32[] memory */\n      0x60\n      swap1\n        /* \"TokenSGTX/contracts/LicensesTaxs.sol\":9558:9577  _admins[msg.sender] */\n      0xff\n      and\n        /* \"TokenSGTX/contracts/LicensesTaxs.sol\":9550:9578  require(_admins[msg.sender]) */\n      tag_184\n      jumpi\n      0x00\n      dup1\n      revert\n    tag_184:\n      sub(shl(0xa0, 0x01), 0x01)\n        /* \"TokenSGTX/contracts/LicensesTaxs.sol\":3545:3562  _userSings[owner] */\n      dup3\n      and\n      0x00\n      swap1\n      dup2\n      mstore\n        /* \"TokenSGTX/contracts/LicensesTaxs.sol\":3545:3555  _userSings */\n      0x01\n        /* \"TokenSGTX/contracts/LicensesTaxs.sol\":3545:3562  _userSings[owner] */\n      0x20\n      swap1\n      dup2\n      mstore\n      0x40\n      swap2\n      dup3\n      swap1\n      keccak256\n        /* \"TokenSGTX/contracts/LicensesTaxs.sol\":3538:3562  return _userSings[owner] */\n      dup1\n      sload\n      dup4\n      mload\n      dup2\n      dup5\n      mul\n      dup2\n      add\n      dup5\n      add\n      swap1\n      swap5\n      mstore\n      dup1\n      dup5\n      mstore\n        /* \"TokenSGTX/contracts/LicensesTaxs.sol\":3545:3562  _userSings[owner] */\n      swap1\n      swap2\n        /* \"TokenSGTX/contracts/LicensesTaxs.sol\":3538:3562  return _userSings[owner] */\n      dup4\n      add\n        /* \"TokenSGTX/contracts/LicensesTaxs.sol\":3545:3562  _userSings[owner] */\n      dup3\n        /* \"TokenSGTX/contracts/LicensesTaxs.sol\":3538:3562  return _userSings[owner] */\n      dup3\n      dup1\n      iszero\n      tag_186\n      jumpi\n      0x20\n      mul\n      dup3\n      add\n      swap2\n      swap1\n      0x00\n      mstore\n      keccak256(0x00, 0x20)\n      swap1\n    tag_187:\n      dup2\n      sload\n      dup2\n      mstore\n      0x20\n      add\n      swap1\n      0x01\n      add\n      swap1\n      dup1\n      dup4\n      gt\n      tag_187\n      jumpi\n    tag_186:\n      pop\n      pop\n      pop\n      pop\n      pop\n      swap1\n      pop\n        /* \"TokenSGTX/contracts/LicensesTaxs.sol\":3414:3570  function getManyAddressSignature(... */\n      swap2\n      swap1\n      pop\n      jump\t// out\n        /* \"TokenSGTX/contracts/LicensesTaxs.sol\":3578:3703  function getOwnerAddressSignature() external view returns (bytes32[] memory) {... */\n    tag_59:\n        /* \"TokenSGTX/contracts/LicensesTaxs.sol\":3684:3694  msg.sender */\n      caller\n        /* \"TokenSGTX/contracts/LicensesTaxs.sol\":3673:3695  _userSings[msg.sender] */\n      0x00\n      swap1\n      dup2\n      mstore\n        /* \"TokenSGTX/contracts/LicensesTaxs.sol\":3673:3683  _userSings */\n      0x01\n        /* \"TokenSGTX/contracts/LicensesTaxs.sol\":3673:3695  _userSings[msg.sender] */\n      0x20\n      swap1\n      dup2\n      mstore\n      0x40\n      swap2\n      dup3\n      swap1\n      keccak256\n        /* \"TokenSGTX/contracts/LicensesTaxs.sol\":3666:3695  return _userSings[msg.sender] */\n      dup1\n      sload\n      dup4\n      mload\n      dup2\n      dup5\n      mul\n      dup2\n      add\n      dup5\n      add\n      swap1\n      swap5\n      mstore\n      dup1\n      dup5\n      mstore\n        /* \"TokenSGTX/contracts/LicensesTaxs.sol\":3637:3653  bytes32[] memory */\n      0x60\n      swap4\n        /* \"TokenSGTX/contracts/LicensesTaxs.sol\":3666:3695  return _userSings[msg.sender] */\n      swap3\n      dup4\n      add\n        /* \"TokenSGTX/contracts/LicensesTaxs.sol\":3673:3695  _userSings[msg.sender] */\n      dup3\n        /* \"TokenSGTX/contracts/LicensesTaxs.sol\":3666:3695  return _userSings[msg.sender] */\n      dup3\n      dup1\n      iszero\n      tag_144\n      jumpi\n      0x20\n      mul\n      dup3\n      add\n      swap2\n      swap1\n      0x00\n      mstore\n      keccak256(0x00, 0x20)\n      swap1\n    tag_190:\n      dup2\n      sload\n      dup2\n      mstore\n      0x20\n      add\n      swap1\n      0x01\n      add\n      swap1\n      dup1\n      dup4\n      gt\n      tag_190\n      jumpi\n      pop\n      pop\n      pop\n      pop\n      pop\n      swap1\n      pop\n        /* \"TokenSGTX/contracts/LicensesTaxs.sol\":3578:3703  function getOwnerAddressSignature() external view returns (bytes32[] memory) {... */\n      swap1\n      jump\t// out\n        /* \"TokenSGTX/contracts/LicensesTaxs.sol\":7938:8361  function approveAdmin(... */\n    tag_63:\n        /* \"TokenSGTX/contracts/LicensesTaxs.sol\":9459:9464  owner */\n      sload(0x08)\n        /* \"TokenSGTX/contracts/LicensesTaxs.sol\":8034:8038  bool */\n      0x00\n      swap1\n      sub(shl(0xa0, 0x01), 0x01)\n        /* \"TokenSGTX/contracts/LicensesTaxs.sol\":9459:9464  owner */\n      and\n        /* \"TokenSGTX/contracts/LicensesTaxs.sol\":9445:9455  msg.sender */\n      caller\n        /* \"TokenSGTX/contracts/LicensesTaxs.sol\":9445:9464  msg.sender == owner */\n      eq\n        /* \"TokenSGTX/contracts/LicensesTaxs.sol\":9437:9492  require(msg.sender == owner, \"Only Owner can activate\") */\n      tag_192\n      jumpi\n      mload(0x40)\n      shl(0xe5, 0x461bcd)\n      dup2\n      mstore\n      0x04\n      add\n      tag_166\n      swap1\n      tag_171\n      jump\t// in\n    tag_192:\n      sub(shl(0xa0, 0x01), 0x01)\n        /* \"TokenSGTX/contracts/LicensesTaxs.sol\":8073:8105  _propoceAdmins[_relationAddress] */\n      dup3\n      and\n      0x00\n      swap1\n      dup2\n      mstore\n        /* \"TokenSGTX/contracts/LicensesTaxs.sol\":8073:8087  _propoceAdmins */\n      0x05\n        /* \"TokenSGTX/contracts/LicensesTaxs.sol\":8073:8105  _propoceAdmins[_relationAddress] */\n      0x20\n      mstore\n      0x40\n      swap1\n      keccak256\n      sload\n      0xff\n      and\n        /* \"TokenSGTX/contracts/LicensesTaxs.sol\":8073:8113  _propoceAdmins[_relationAddress] == true */\n      iszero\n      iszero\n        /* \"TokenSGTX/contracts/LicensesTaxs.sol\":8073:8105  _propoceAdmins[_relationAddress] */\n      0x01\n        /* \"TokenSGTX/contracts/LicensesTaxs.sol\":8073:8113  _propoceAdmins[_relationAddress] == true */\n      eq\n        /* \"TokenSGTX/contracts/LicensesTaxs.sol\":8051:8176  require(... */\n      tag_195\n      jumpi\n      mload(0x40)\n      shl(0xe5, 0x461bcd)\n      dup2\n      mstore\n        /* \"#utility.yul\":9251:9253   */\n      0x20\n        /* \"TokenSGTX/contracts/LicensesTaxs.sol\":8051:8176  require(... */\n      0x04\n      dup3\n      add\n        /* \"#utility.yul\":9233:9254   */\n      mstore\n        /* \"#utility.yul\":9290:9292   */\n      0x23\n        /* \"#utility.yul\":9270:9288   */\n      0x24\n      dup3\n      add\n        /* \"#utility.yul\":9263:9293   */\n      mstore\n        /* \"#utility.yul\":9329:9363   */\n      0x61646472657373206d757374206265207265676973747265642062792061646d\n        /* \"#utility.yul\":9309:9327   */\n      0x44\n      dup3\n      add\n        /* \"#utility.yul\":9302:9364   */\n      mstore\n      shl(0xe8, 0x696e73)\n        /* \"#utility.yul\":9380:9398   */\n      0x64\n      dup3\n      add\n        /* \"#utility.yul\":9373:9406   */\n      mstore\n        /* \"#utility.yul\":9423:9442   */\n      0x84\n      add\n        /* \"TokenSGTX/contracts/LicensesTaxs.sol\":8051:8176  require(... */\n      tag_166\n        /* \"#utility.yul\":9049:9448   */\n      jump\n        /* \"TokenSGTX/contracts/LicensesTaxs.sol\":8051:8176  require(... */\n    tag_195:\n      sub(shl(0xa0, 0x01), 0x01)\n        /* \"TokenSGTX/contracts/LicensesTaxs.sol\":8187:8212  _admins[_relationAddress] */\n      dup3\n      and\n      0x00\n      dup2\n      dup2\n      mstore\n        /* \"TokenSGTX/contracts/LicensesTaxs.sol\":8187:8194  _admins */\n      0x04\n        /* \"TokenSGTX/contracts/LicensesTaxs.sol\":8187:8212  _admins[_relationAddress] */\n      0x20\n      swap1\n      dup2\n      mstore\n      0x40\n      dup1\n      dup4\n      keccak256\n        /* \"TokenSGTX/contracts/LicensesTaxs.sol\":8187:8219  _admins[_relationAddress] = true */\n      dup1\n      sload\n        /* \"TokenSGTX/contracts/LicensesTaxs.sol\":8215:8219  true */\n      0x01\n      not(0xff)\n        /* \"TokenSGTX/contracts/LicensesTaxs.sol\":8187:8219  _admins[_relationAddress] = true */\n      swap2\n      dup3\n      and\n      dup2\n      or\n      swap1\n      swap3\n      sstore\n        /* \"TokenSGTX/contracts/LicensesTaxs.sol\":8237:8251  _propoceAdmins */\n      0x05\n        /* \"TokenSGTX/contracts/LicensesTaxs.sol\":8237:8269  _propoceAdmins[_relationAddress] */\n      dup5\n      mstore\n      swap4\n      dup3\n      swap1\n      keccak256\n        /* \"TokenSGTX/contracts/LicensesTaxs.sol\":8230:8269  delete _propoceAdmins[_relationAddress] */\n      dup1\n      sload\n      swap1\n      swap5\n      and\n      swap1\n      swap4\n      sstore\n        /* \"TokenSGTX/contracts/LicensesTaxs.sol\":8285:8331  eventNewAdminRegistred(_relationAddress, true) */\n      mload\n        /* \"#utility.yul\":2949:2990   */\n      swap2\n      dup3\n      mstore\n        /* \"TokenSGTX/contracts/LicensesTaxs.sol\":8285:8331  eventNewAdminRegistred(_relationAddress, true) */\n      0x9aab773cc5c7f377774352463d765fa3acae0bc1c83c44357f4405639ebab44a\n      swap2\n        /* \"#utility.yul\":2922:2940   */\n      add\n        /* \"TokenSGTX/contracts/LicensesTaxs.sol\":8285:8331  eventNewAdminRegistred(_relationAddress, true) */\n      tag_182\n        /* \"#utility.yul\":2809:2996   */\n      jump\n        /* \"TokenSGTX/contracts/LicensesTaxs.sol\":5214:5699  function validateData(... */\n    tag_73:\n        /* \"TokenSGTX/contracts/LicensesTaxs.sol\":9566:9576  msg.sender */\n      caller\n        /* \"TokenSGTX/contracts/LicensesTaxs.sol\":5433:5437  bool */\n      0x00\n        /* \"TokenSGTX/contracts/LicensesTaxs.sol\":9558:9577  _admins[msg.sender] */\n      swap1\n      dup2\n      mstore\n        /* \"TokenSGTX/contracts/LicensesTaxs.sol\":9558:9565  _admins */\n      0x04\n        /* \"TokenSGTX/contracts/LicensesTaxs.sol\":9558:9577  _admins[msg.sender] */\n      0x20\n      mstore\n      0x40\n      dup2\n      keccak256\n      sload\n      0xff\n      and\n        /* \"TokenSGTX/contracts/LicensesTaxs.sol\":9550:9578  require(_admins[msg.sender]) */\n      tag_200\n      jumpi\n      0x00\n      dup1\n      revert\n    tag_200:\n        /* \"TokenSGTX/contracts/LicensesTaxs.sol\":5450:5472  bytes32 singLicenseObj */\n      0x00\n        /* \"TokenSGTX/contracts/LicensesTaxs.sol\":5475:5638  singLicense(... */\n      tag_202\n        /* \"TokenSGTX/contracts/LicensesTaxs.sol\":5501:5509  _consept */\n      dup8\n        /* \"TokenSGTX/contracts/LicensesTaxs.sol\":5524:5534  identifier */\n      dup5\n        /* \"TokenSGTX/contracts/LicensesTaxs.sol\":5549:5572  taxpayerAddress(_owner) */\n      tag_203\n        /* \"TokenSGTX/contracts/LicensesTaxs.sol\":5565:5571  _owner */\n      dup10\n        /* \"TokenSGTX/contracts/LicensesTaxs.sol\":5549:5564  taxpayerAddress */\n      tag_83\n        /* \"TokenSGTX/contracts/LicensesTaxs.sol\":5549:5572  taxpayerAddress(_owner) */\n      jump\t// in\n    tag_203:\n        /* \"TokenSGTX/contracts/LicensesTaxs.sol\":5587:5591  data */\n      dup8\n        /* \"TokenSGTX/contracts/LicensesTaxs.sol\":5606:5616  _approvers */\n      0x06\n        /* \"TokenSGTX/contracts/LicensesTaxs.sol\":5617:5626  _approver */\n      dup11\n        /* \"TokenSGTX/contracts/LicensesTaxs.sol\":5606:5627  _approvers[_approver] */\n      mload(0x40)\n      tag_204\n      swap2\n      swap1\n      tag_205\n      jump\t// in\n    tag_204:\n      swap1\n      dup2\n      mstore\n      mload(0x40)\n      swap1\n      dup2\n      swap1\n      sub\n      0x20\n      add\n      swap1\n      keccak256\n      sload\n      sub(shl(0xa0, 0x01), 0x01)\n      and\n        /* \"TokenSGTX/contracts/LicensesTaxs.sol\":5475:5486  singLicense */\n      tag_206\n        /* \"TokenSGTX/contracts/LicensesTaxs.sol\":5475:5638  singLicense(... */\n      jump\t// in\n    tag_202:\n        /* \"TokenSGTX/contracts/LicensesTaxs.sol\":5450:5638  bytes32 singLicenseObj = singLicense(... */\n      swap1\n      pop\n        /* \"TokenSGTX/contracts/LicensesTaxs.sol\":5658:5691  signatureValidate(singLicenseObj) */\n      tag_207\n        /* \"TokenSGTX/contracts/LicensesTaxs.sol\":5676:5690  singLicenseObj */\n      dup2\n        /* \"TokenSGTX/contracts/LicensesTaxs.sol\":5658:5675  signatureValidate */\n      tag_111\n        /* \"TokenSGTX/contracts/LicensesTaxs.sol\":5658:5691  signatureValidate(singLicenseObj) */\n      jump\t// in\n    tag_207:\n        /* \"TokenSGTX/contracts/LicensesTaxs.sol\":5651:5691  return signatureValidate(singLicenseObj) */\n      swap8\n        /* \"TokenSGTX/contracts/LicensesTaxs.sol\":5214:5699  function validateData(... */\n      swap7\n      pop\n      pop\n      pop\n      pop\n      pop\n      pop\n      pop\n      jump\t// out\n        /* \"TokenSGTX/contracts/LicensesTaxs.sol\":8711:8941  function tranferOwnership(... */\n    tag_77:\n        /* \"TokenSGTX/contracts/LicensesTaxs.sol\":9459:9464  owner */\n      sload(0x08)\n        /* \"TokenSGTX/contracts/LicensesTaxs.sol\":8803:8807  bool */\n      0x00\n      swap1\n      sub(shl(0xa0, 0x01), 0x01)\n        /* \"TokenSGTX/contracts/LicensesTaxs.sol\":9459:9464  owner */\n      and\n        /* \"TokenSGTX/contracts/LicensesTaxs.sol\":9445:9455  msg.sender */\n      caller\n        /* \"TokenSGTX/contracts/LicensesTaxs.sol\":9445:9464  msg.sender == owner */\n      eq\n        /* \"TokenSGTX/contracts/LicensesTaxs.sol\":9437:9492  require(msg.sender == owner, \"Only Owner can activate\") */\n      tag_209\n      jumpi\n      mload(0x40)\n      shl(0xe5, 0x461bcd)\n      dup2\n      mstore\n      0x04\n      add\n      tag_166\n      swap1\n      tag_171\n      jump\t// in\n    tag_209:\n      sub(shl(0xa0, 0x01), 0x01)\n        /* \"TokenSGTX/contracts/LicensesTaxs.sol\":8828:8850  NewOwner != address(0) */\n      dup3\n      and\n        /* \"TokenSGTX/contracts/LicensesTaxs.sol\":8820:8884  require(NewOwner != address(0), \"Owner can't be a Zero address\") */\n      tag_212\n      jumpi\n      mload(0x40)\n      shl(0xe5, 0x461bcd)\n      dup2\n      mstore\n        /* \"#utility.yul\":9949:9951   */\n      0x20\n        /* \"TokenSGTX/contracts/LicensesTaxs.sol\":8820:8884  require(NewOwner != address(0), \"Owner can't be a Zero address\") */\n      0x04\n      dup3\n      add\n        /* \"#utility.yul\":9931:9952   */\n      mstore\n        /* \"#utility.yul\":9988:9990   */\n      0x1d\n        /* \"#utility.yul\":9968:9986   */\n      0x24\n      dup3\n      add\n        /* \"#utility.yul\":9961:9991   */\n      mstore\n        /* \"#utility.yul\":10027:10058   */\n      0x4f776e65722063616e27742062652061205a65726f2061646472657373000000\n        /* \"#utility.yul\":10007:10025   */\n      0x44\n      dup3\n      add\n        /* \"#utility.yul\":10000:10059   */\n      mstore\n        /* \"#utility.yul\":10076:10094   */\n      0x64\n      add\n        /* \"TokenSGTX/contracts/LicensesTaxs.sol\":8820:8884  require(NewOwner != address(0), \"Owner can't be a Zero address\") */\n      tag_166\n        /* \"#utility.yul\":9747:10100   */\n      jump\n        /* \"TokenSGTX/contracts/LicensesTaxs.sol\":8820:8884  require(NewOwner != address(0), \"Owner can't be a Zero address\") */\n    tag_212:\n      pop\n        /* \"TokenSGTX/contracts/LicensesTaxs.sol\":8895:8900  owner */\n      0x08\n        /* \"TokenSGTX/contracts/LicensesTaxs.sol\":8895:8911  owner = NewOwner */\n      dup1\n      sload\n      sub(shl(0xa0, 0x01), 0x01)\n      dup4\n      and\n      not(sub(shl(0xa0, 0x01), 0x01))\n      swap1\n      swap2\n      and\n      or\n      swap1\n      sstore\n      0x01\n        /* \"TokenSGTX/contracts/LicensesTaxs.sol\":8711:8941  function tranferOwnership(... */\n      swap2\n      swap1\n      pop\n      jump\t// out\n        /* \"TokenSGTX/contracts/LicensesTaxs.sol\":3711:3852  function taxpayerAddress(... */\n    tag_83:\n        /* \"TokenSGTX/contracts/LicensesTaxs.sol\":9566:9576  msg.sender */\n      caller\n        /* \"TokenSGTX/contracts/LicensesTaxs.sol\":3801:3808  address */\n      0x00\n        /* \"TokenSGTX/contracts/LicensesTaxs.sol\":9558:9577  _admins[msg.sender] */\n      swap1\n      dup2\n      mstore\n        /* \"TokenSGTX/contracts/LicensesTaxs.sol\":9558:9565  _admins */\n      0x04\n        /* \"TokenSGTX/contracts/LicensesTaxs.sol\":9558:9577  _admins[msg.sender] */\n      0x20\n      mstore\n      0x40\n      dup2\n      keccak256\n      sload\n      0xff\n      and\n        /* \"TokenSGTX/contracts/LicensesTaxs.sol\":9550:9578  require(_admins[msg.sender]) */\n      tag_216\n      jumpi\n      0x00\n      dup1\n      revert\n    tag_216:\n        /* \"TokenSGTX/contracts/LicensesTaxs.sol\":3828:3838  _taxpayers */\n      0x03\n        /* \"TokenSGTX/contracts/LicensesTaxs.sol\":3839:3843  _rif */\n      dup3\n        /* \"TokenSGTX/contracts/LicensesTaxs.sol\":3828:3844  _taxpayers[_rif] */\n      mload(0x40)\n      tag_218\n      swap2\n      swap1\n      tag_205\n      jump\t// in\n    tag_218:\n      swap1\n      dup2\n      mstore\n      mload(0x40)\n      swap1\n      dup2\n      swap1\n      sub\n      0x20\n      add\n      swap1\n      keccak256\n      sload\n      sub(shl(0xa0, 0x01), 0x01)\n      and\n      swap1\n      pop\n        /* \"TokenSGTX/contracts/LicensesTaxs.sol\":3711:3852  function taxpayerAddress(... */\n      swap2\n      swap1\n      pop\n      jump\t// out\n        /* \"TokenSGTX/contracts/LicensesTaxs.sol\":9889:9984  function symbol() public view virtual returns (string memory) {... */\n    tag_87:\n        /* \"TokenSGTX/contracts/LicensesTaxs.sol\":9936:9949  string memory */\n      0x60\n        /* \"TokenSGTX/contracts/LicensesTaxs.sol\":9969:9976  _symbol */\n      0x0b\n        /* \"TokenSGTX/contracts/LicensesTaxs.sol\":9962:9976  return _symbol */\n      dup1\n      sload\n      tag_141\n      swap1\n      tag_142\n      jump\t// in\n        /* \"TokenSGTX/contracts/LicensesTaxs.sol\":7341:7547  function addTaxPayer(... */\n    tag_92:\n        /* \"TokenSGTX/contracts/LicensesTaxs.sol\":9459:9464  owner */\n      sload(0x08)\n        /* \"TokenSGTX/contracts/LicensesTaxs.sol\":7465:7469  bool */\n      0x00\n      swap1\n      sub(shl(0xa0, 0x01), 0x01)\n        /* \"TokenSGTX/contracts/LicensesTaxs.sol\":9459:9464  owner */\n      and\n        /* \"TokenSGTX/contracts/LicensesTaxs.sol\":9445:9455  msg.sender */\n      caller\n        /* \"TokenSGTX/contracts/LicensesTaxs.sol\":9445:9464  msg.sender == owner */\n      eq\n        /* \"TokenSGTX/contracts/LicensesTaxs.sol\":9437:9492  require(msg.sender == owner, \"Only Owner can activate\") */\n      tag_226\n      jumpi\n      mload(0x40)\n      shl(0xe5, 0x461bcd)\n      dup2\n      mstore\n      0x04\n      add\n      tag_166\n      swap1\n      tag_171\n      jump\t// in\n    tag_226:\n        /* \"TokenSGTX/contracts/LicensesTaxs.sol\":7501:7517  _relationAddress */\n      dup2\n        /* \"TokenSGTX/contracts/LicensesTaxs.sol\":7482:7492  _taxpayers */\n      0x03\n        /* \"TokenSGTX/contracts/LicensesTaxs.sol\":7493:7497  _rif */\n      dup5\n        /* \"TokenSGTX/contracts/LicensesTaxs.sol\":7482:7498  _taxpayers[_rif] */\n      mload(0x40)\n      tag_229\n      swap2\n      swap1\n      tag_205\n      jump\t// in\n    tag_229:\n      swap1\n      dup2\n      mstore\n      mload(0x40)\n      swap1\n      dup2\n      swap1\n      sub\n      0x20\n      add\n      swap1\n      keccak256\n        /* \"TokenSGTX/contracts/LicensesTaxs.sol\":7482:7517  _taxpayers[_rif] = _relationAddress */\n      dup1\n      sload\n      sub(shl(0xa0, 0x01), 0x01)\n      swap3\n      swap1\n      swap3\n      and\n      not(sub(shl(0xa0, 0x01), 0x01))\n      swap1\n      swap3\n      and\n      swap2\n      swap1\n      swap2\n      or\n      swap1\n      sstore\n      pop\n      0x01\n        /* \"TokenSGTX/contracts/LicensesTaxs.sol\":7341:7547  function addTaxPayer(... */\n      swap3\n      swap2\n      pop\n      pop\n      jump\t// out\n        /* \"TokenSGTX/contracts/LicensesTaxs.sol\":2623:2886  function signatureValidate(... */\n    tag_111:\n        /* \"TokenSGTX/contracts/LicensesTaxs.sol\":2707:2711  bool */\n      0x00\n        /* \"TokenSGTX/contracts/LicensesTaxs.sol\":2724:2750  StructSignature memory obj */\n      dup1\n        /* \"TokenSGTX/contracts/LicensesTaxs.sol\":2753:2770  _signatureEnabled */\n      0x00\n        /* \"TokenSGTX/contracts/LicensesTaxs.sol\":2753:2782  _signatureEnabled[singnature] */\n      dup1\n        /* \"TokenSGTX/contracts/LicensesTaxs.sol\":2771:2781  singnature */\n      dup5\n        /* \"TokenSGTX/contracts/LicensesTaxs.sol\":2753:2782  _signatureEnabled[singnature] */\n      dup2\n      mstore\n      0x20\n      add\n      swap1\n      dup2\n      mstore\n      0x20\n      add\n      0x00\n      keccak256\n        /* \"TokenSGTX/contracts/LicensesTaxs.sol\":2724:2782  StructSignature memory obj = _signatureEnabled[singnature] */\n      mload(0x40)\n      dup1\n      0xe0\n      add\n      0x40\n      mstore\n      swap1\n      dup2\n      0x00\n      dup3\n      add\n      dup1\n      sload\n      tag_233\n      swap1\n      tag_142\n      jump\t// in\n    tag_233:\n      dup1\n      0x1f\n      add\n      0x20\n      dup1\n      swap2\n      div\n      mul\n      0x20\n      add\n      mload(0x40)\n      swap1\n      dup2\n      add\n      0x40\n      mstore\n      dup1\n      swap3\n      swap2\n      swap1\n      dup2\n      dup2\n      mstore\n      0x20\n      add\n      dup3\n      dup1\n      sload\n      tag_234\n      swap1\n      tag_142\n      jump\t// in\n    tag_234:\n      dup1\n      iszero\n      tag_235\n      jumpi\n      dup1\n      0x1f\n      lt\n      tag_236\n      jumpi\n      0x0100\n      dup1\n      dup4\n      sload\n      div\n      mul\n      dup4\n      mstore\n      swap2\n      0x20\n      add\n      swap2\n      jump(tag_235)\n    tag_236:\n      dup3\n      add\n      swap2\n      swap1\n      0x00\n      mstore\n      keccak256(0x00, 0x20)\n      swap1\n    tag_237:\n      dup2\n      sload\n      dup2\n      mstore\n      swap1\n      0x01\n      add\n      swap1\n      0x20\n      add\n      dup1\n      dup4\n      gt\n      tag_237\n      jumpi\n      dup3\n      swap1\n      sub\n      0x1f\n      and\n      dup3\n      add\n      swap2\n    tag_235:\n      pop\n      pop\n      pop\n      pop\n      pop\n      dup2\n      mstore\n      0x20\n      add\n      0x01\n      dup3\n      add\n      dup1\n      sload\n      tag_238\n      swap1\n      tag_142\n      jump\t// in\n    tag_238:\n      dup1\n      0x1f\n      add\n      0x20\n      dup1\n      swap2\n      div\n      mul\n      0x20\n      add\n      mload(0x40)\n      swap1\n      dup2\n      add\n      0x40\n      mstore\n      dup1\n      swap3\n      swap2\n      swap1\n      dup2\n      dup2\n      mstore\n      0x20\n      add\n      dup3\n      dup1\n      sload\n      tag_239\n      swap1\n      tag_142\n      jump\t// in\n    tag_239:\n      dup1\n      iszero\n      tag_240\n      jumpi\n      dup1\n      0x1f\n      lt\n      tag_241\n      jumpi\n      0x0100\n      dup1\n      dup4\n      sload\n      div\n      mul\n      dup4\n      mstore\n      swap2\n      0x20\n      add\n      swap2\n      jump(tag_240)\n    tag_241:\n      dup3\n      add\n      swap2\n      swap1\n      0x00\n      mstore\n      keccak256(0x00, 0x20)\n      swap1\n    tag_242:\n      dup2\n      sload\n      dup2\n      mstore\n      swap1\n      0x01\n      add\n      swap1\n      0x20\n      add\n      dup1\n      dup4\n      gt\n      tag_242\n      jumpi\n      dup3\n      swap1\n      sub\n      0x1f\n      and\n      dup3\n      add\n      swap2\n    tag_240:\n      pop\n      pop\n      pop\n      swap2\n      dup4\n      mstore\n      pop\n      pop\n      0x02\n      dup3\n      add\n      sload\n      sub(shl(0xa0, 0x01), 0x01)\n      and\n      0x20\n      dup3\n      add\n      mstore\n      0x03\n      dup3\n      add\n      dup1\n      sload\n      0x40\n      swap1\n      swap3\n      add\n      swap2\n      tag_243\n      swap1\n      tag_142\n      jump\t// in\n    tag_243:\n      dup1\n      0x1f\n      add\n      0x20\n      dup1\n      swap2\n      div\n      mul\n      0x20\n      add\n      mload(0x40)\n      swap1\n      dup2\n      add\n      0x40\n      mstore\n      dup1\n      swap3\n      swap2\n      swap1\n      dup2\n      dup2\n      mstore\n      0x20\n      add\n      dup3\n      dup1\n      sload\n      tag_244\n      swap1\n      tag_142\n      jump\t// in\n    tag_244:\n      dup1\n      iszero\n      tag_245\n      jumpi\n      dup1\n      0x1f\n      lt\n      tag_246\n      jumpi\n      0x0100\n      dup1\n      dup4\n      sload\n      div\n      mul\n      dup4\n      mstore\n      swap2\n      0x20\n      add\n      swap2\n      jump(tag_245)\n    tag_246:\n      dup3\n      add\n      swap2\n      swap1\n      0x00\n      mstore\n      keccak256(0x00, 0x20)\n      swap1\n    tag_247:\n      dup2\n      sload\n      dup2\n      mstore\n      swap1\n      0x01\n      add\n      swap1\n      0x20\n      add\n      dup1\n      dup4\n      gt\n      tag_247\n      jumpi\n      dup3\n      swap1\n      sub\n      0x1f\n      and\n      dup3\n      add\n      swap2\n    tag_245:\n      pop\n      pop\n      pop\n      swap2\n      dup4\n      mstore\n      pop\n      pop\n      0x04\n      dup3\n      add\n      sload\n      sub(shl(0xa0, 0x01), 0x01)\n      and\n      0x20\n      dup3\n      add\n      mstore\n      0x05\n      dup3\n      add\n      sload\n      0x40\n      dup3\n      add\n      mstore\n      0x06\n      swap1\n      swap2\n      add\n      sload\n      0xff\n      and\n      iszero\n      iszero\n      0x60\n      swap1\n      swap2\n      add\n      mstore\n        /* \"TokenSGTX/contracts/LicensesTaxs.sol\":2797:2810  obj.signature */\n      0xa0\n      dup2\n      add\n      mload\n        /* \"TokenSGTX/contracts/LicensesTaxs.sol\":2724:2782  StructSignature memory obj = _signatureEnabled[singnature] */\n      swap1\n      swap2\n      pop\n      0x00\n        /* \"TokenSGTX/contracts/LicensesTaxs.sol\":2797:2816  obj.signature == \"\" */\n      sub\n        /* \"TokenSGTX/contracts/LicensesTaxs.sol\":2793:2857  if (obj.signature == \"\") {... */\n      tag_248\n      jumpi\n      pop\n        /* \"TokenSGTX/contracts/LicensesTaxs.sol\":2840:2845  false */\n      0x00\n      swap3\n        /* \"TokenSGTX/contracts/LicensesTaxs.sol\":2623:2886  function signatureValidate(... */\n      swap2\n      pop\n      pop\n      jump\t// out\n        /* \"TokenSGTX/contracts/LicensesTaxs.sol\":2793:2857  if (obj.signature == \"\") {... */\n    tag_248:\n      pop\n        /* \"TokenSGTX/contracts/LicensesTaxs.sol\":2874:2878  true */\n      0x01\n      swap3\n        /* \"TokenSGTX/contracts/LicensesTaxs.sol\":2623:2886  function signatureValidate(... */\n      swap2\n      pop\n      pop\n      jump\t// out\n        /* \"TokenSGTX/contracts/LicensesTaxs.sol\":2894:3062  function getSignature(... */\n    tag_116:\n        /* \"TokenSGTX/contracts/LicensesTaxs.sol\":2983:3005  StructSignature memory */\n      tag_249\n      tag_148\n      jump\t// in\n    tag_249:\n        /* \"TokenSGTX/contracts/LicensesTaxs.sol\":9566:9576  msg.sender */\n      caller\n        /* \"TokenSGTX/contracts/LicensesTaxs.sol\":9558:9577  _admins[msg.sender] */\n      0x00\n      swap1\n      dup2\n      mstore\n        /* \"TokenSGTX/contracts/LicensesTaxs.sol\":9558:9565  _admins */\n      0x04\n        /* \"TokenSGTX/contracts/LicensesTaxs.sol\":9558:9577  _admins[msg.sender] */\n      0x20\n      mstore\n      0x40\n      swap1\n      keccak256\n      sload\n      0xff\n      and\n        /* \"TokenSGTX/contracts/LicensesTaxs.sol\":9550:9578  require(_admins[msg.sender]) */\n      tag_251\n      jumpi\n      0x00\n      dup1\n      revert\n    tag_251:\n        /* \"TokenSGTX/contracts/LicensesTaxs.sol\":3025:3042  _signatureEnabled */\n      0x00\n        /* \"TokenSGTX/contracts/LicensesTaxs.sol\":3025:3054  _signatureEnabled[singnature] */\n      dup3\n      dup2\n      mstore\n      0x20\n      dup2\n      swap1\n      mstore\n      0x40\n      swap1\n      dup2\n      swap1\n      keccak256\n        /* \"TokenSGTX/contracts/LicensesTaxs.sol\":3018:3054  return _signatureEnabled[singnature] */\n      dup2\n      mload\n      0xe0\n      dup2\n      add\n      swap1\n      swap3\n      mstore\n      dup1\n      sload\n      dup3\n      swap1\n        /* \"TokenSGTX/contracts/LicensesTaxs.sol\":3025:3054  _signatureEnabled[singnature] */\n      dup3\n      swap1\n        /* \"TokenSGTX/contracts/LicensesTaxs.sol\":3018:3054  return _signatureEnabled[singnature] */\n      tag_253\n      swap1\n      tag_142\n      jump\t// in\n    tag_253:\n      dup1\n      0x1f\n      add\n      0x20\n      dup1\n      swap2\n      div\n      mul\n      0x20\n      add\n      mload(0x40)\n      swap1\n      dup2\n      add\n      0x40\n      mstore\n      dup1\n      swap3\n      swap2\n      swap1\n      dup2\n      dup2\n      mstore\n      0x20\n      add\n      dup3\n      dup1\n      sload\n      tag_254\n      swap1\n      tag_142\n      jump\t// in\n    tag_254:\n      dup1\n      iszero\n      tag_255\n      jumpi\n      dup1\n      0x1f\n      lt\n      tag_256\n      jumpi\n      0x0100\n      dup1\n      dup4\n      sload\n      div\n      mul\n      dup4\n      mstore\n      swap2\n      0x20\n      add\n      swap2\n      jump(tag_255)\n    tag_256:\n      dup3\n      add\n      swap2\n      swap1\n      0x00\n      mstore\n      keccak256(0x00, 0x20)\n      swap1\n    tag_257:\n      dup2\n      sload\n      dup2\n      mstore\n      swap1\n      0x01\n      add\n      swap1\n      0x20\n      add\n      dup1\n      dup4\n      gt\n      tag_257\n      jumpi\n      dup3\n      swap1\n      sub\n      0x1f\n      and\n      dup3\n      add\n      swap2\n    tag_255:\n      pop\n      pop\n      pop\n      pop\n      pop\n      dup2\n      mstore\n      0x20\n      add\n      0x01\n      dup3\n      add\n      dup1\n      sload\n      tag_258\n      swap1\n      tag_142\n      jump\t// in\n    tag_258:\n      dup1\n      0x1f\n      add\n      0x20\n      dup1\n      swap2\n      div\n      mul\n      0x20\n      add\n      mload(0x40)\n      swap1\n      dup2\n      add\n      0x40\n      mstore\n      dup1\n      swap3\n      swap2\n      swap1\n      dup2\n      dup2\n      mstore\n      0x20\n      add\n      dup3\n      dup1\n      sload\n      tag_259\n      swap1\n      tag_142\n      jump\t// in\n    tag_259:\n      dup1\n      iszero\n      tag_260\n      jumpi\n      dup1\n      0x1f\n      lt\n      tag_261\n      jumpi\n      0x0100\n      dup1\n      dup4\n      sload\n      div\n      mul\n      dup4\n      mstore\n      swap2\n      0x20\n      add\n      swap2\n      jump(tag_260)\n    tag_261:\n      dup3\n      add\n      swap2\n      swap1\n      0x00\n      mstore\n      keccak256(0x00, 0x20)\n      swap1\n    tag_262:\n      dup2\n      sload\n      dup2\n      mstore\n      swap1\n      0x01\n      add\n      swap1\n      0x20\n      add\n      dup1\n      dup4\n      gt\n      tag_262\n      jumpi\n      dup3\n      swap1\n      sub\n      0x1f\n      and\n      dup3\n      add\n      swap2\n    tag_260:\n      pop\n      pop\n      pop\n      swap2\n      dup4\n      mstore\n      pop\n      pop\n      0x02\n      dup3\n      add\n      sload\n      sub(shl(0xa0, 0x01), 0x01)\n      and\n      0x20\n      dup3\n      add\n      mstore\n      0x03\n      dup3\n      add\n      dup1\n      sload\n      0x40\n      swap1\n      swap3\n      add\n      swap2\n      tag_263\n      swap1\n      tag_142\n      jump\t// in\n    tag_263:\n      dup1\n      0x1f\n      add\n      0x20\n      dup1\n      swap2\n      div\n      mul\n      0x20\n      add\n      mload(0x40)\n      swap1\n      dup2\n      add\n      0x40\n      mstore\n      dup1\n      swap3\n      swap2\n      swap1\n      dup2\n      dup2\n      mstore\n      0x20\n      add\n      dup3\n      dup1\n      sload\n      tag_264\n      swap1\n      tag_142\n      jump\t// in\n    tag_264:\n      dup1\n      iszero\n      tag_265\n      jumpi\n      dup1\n      0x1f\n      lt\n      tag_266\n      jumpi\n      0x0100\n      dup1\n      dup4\n      sload\n      div\n      mul\n      dup4\n      mstore\n      swap2\n      0x20\n      add\n      swap2\n      jump(tag_265)\n    tag_266:\n      dup3\n      add\n      swap2\n      swap1\n      0x00\n      mstore\n      keccak256(0x00, 0x20)\n      swap1\n    tag_267:\n      dup2\n      sload\n      dup2\n      mstore\n      swap1\n      0x01\n      add\n      swap1\n      0x20\n      add\n      dup1\n      dup4\n      gt\n      tag_267\n      jumpi\n      dup3\n      swap1\n      sub\n      0x1f\n      and\n      dup3\n      add\n      swap2\n    tag_265:\n      pop\n      pop\n      pop\n      swap2\n      dup4\n      mstore\n      pop\n      pop\n      0x04\n      dup3\n      add\n      sload\n      sub(shl(0xa0, 0x01), 0x01)\n      and\n      0x20\n      dup3\n      add\n      mstore\n      0x05\n      dup3\n      add\n      sload\n      0x40\n      dup3\n      add\n      mstore\n      0x06\n      swap1\n      swap2\n      add\n      sload\n      0xff\n      and\n      iszero\n      iszero\n      0x60\n      swap1\n      swap2\n      add\n      mstore\n      swap3\n        /* \"TokenSGTX/contracts/LicensesTaxs.sol\":2894:3062  function getSignature(... */\n      swap2\n      pop\n      pop\n      jump\t// out\n        /* \"TokenSGTX/contracts/LicensesTaxs.sol\":8369:8703  function addApprover(... */\n    tag_120:\n        /* \"TokenSGTX/contracts/LicensesTaxs.sol\":9459:9464  owner */\n      sload(0x08)\n        /* \"TokenSGTX/contracts/LicensesTaxs.sol\":8492:8496  bool */\n      0x00\n      swap1\n      sub(shl(0xa0, 0x01), 0x01)\n        /* \"TokenSGTX/contracts/LicensesTaxs.sol\":9459:9464  owner */\n      and\n        /* \"TokenSGTX/contracts/LicensesTaxs.sol\":9445:9455  msg.sender */\n      caller\n        /* \"TokenSGTX/contracts/LicensesTaxs.sol\":9445:9464  msg.sender == owner */\n      eq\n        /* \"TokenSGTX/contracts/LicensesTaxs.sol\":9437:9492  require(msg.sender == owner, \"Only Owner can activate\") */\n      tag_269\n      jumpi\n      mload(0x40)\n      shl(0xe5, 0x461bcd)\n      dup2\n      mstore\n      0x04\n      add\n      tag_166\n      swap1\n      tag_171\n      jump\t// in\n    tag_269:\n        /* \"TokenSGTX/contracts/LicensesTaxs.sol\":8544:8545  0 */\n      0x00\n      sub(shl(0xa0, 0x01), 0x01)\n        /* \"TokenSGTX/contracts/LicensesTaxs.sol\":8517:8546  _approvers[_Id] == address(0) */\n      and\n        /* \"TokenSGTX/contracts/LicensesTaxs.sol\":8517:8527  _approvers */\n      0x06\n        /* \"TokenSGTX/contracts/LicensesTaxs.sol\":8528:8531  _Id */\n      dup5\n        /* \"TokenSGTX/contracts/LicensesTaxs.sol\":8517:8532  _approvers[_Id] */\n      mload(0x40)\n      tag_272\n      swap2\n      swap1\n      tag_205\n      jump\t// in\n    tag_272:\n      swap1\n      dup2\n      mstore\n      mload(0x40)\n      swap1\n      dup2\n      swap1\n      sub\n      0x20\n      add\n      swap1\n      keccak256\n      sload\n      sub(shl(0xa0, 0x01), 0x01)\n      and\n        /* \"TokenSGTX/contracts/LicensesTaxs.sol\":8517:8546  _approvers[_Id] == address(0) */\n      eq\n        /* \"TokenSGTX/contracts/LicensesTaxs.sol\":8509:8572  require(_approvers[_Id] == address(0), \"Address already added\") */\n      tag_273\n      jumpi\n      mload(0x40)\n      shl(0xe5, 0x461bcd)\n      dup2\n      mstore\n        /* \"#utility.yul\":10307:10309   */\n      0x20\n        /* \"TokenSGTX/contracts/LicensesTaxs.sol\":8509:8572  require(_approvers[_Id] == address(0), \"Address already added\") */\n      0x04\n      dup3\n      add\n        /* \"#utility.yul\":10289:10310   */\n      mstore\n        /* \"#utility.yul\":10346:10348   */\n      0x15\n        /* \"#utility.yul\":10326:10344   */\n      0x24\n      dup3\n      add\n        /* \"#utility.yul\":10319:10349   */\n      mstore\n      shl(0x5a, 0x1059191c995cdcc8185b1c9958591e481859191959)\n        /* \"#utility.yul\":10365:10383   */\n      0x44\n      dup3\n      add\n        /* \"#utility.yul\":10358:10409   */\n      mstore\n        /* \"#utility.yul\":10426:10444   */\n      0x64\n      add\n        /* \"TokenSGTX/contracts/LicensesTaxs.sol\":8509:8572  require(_approvers[_Id] == address(0), \"Address already added\") */\n      tag_166\n        /* \"#utility.yul\":10105:10450   */\n      jump\n        /* \"TokenSGTX/contracts/LicensesTaxs.sol\":8509:8572  require(_approvers[_Id] == address(0), \"Address already added\") */\n    tag_273:\n        /* \"TokenSGTX/contracts/LicensesTaxs.sol\":8601:8617  _relationAddress */\n      dup2\n        /* \"TokenSGTX/contracts/LicensesTaxs.sol\":8583:8593  _approvers */\n      0x06\n        /* \"TokenSGTX/contracts/LicensesTaxs.sol\":8594:8597  _Id */\n      dup5\n        /* \"TokenSGTX/contracts/LicensesTaxs.sol\":8583:8598  _approvers[_Id] */\n      mload(0x40)\n      tag_276\n      swap2\n      swap1\n      tag_205\n      jump\t// in\n    tag_276:\n      swap1\n      dup2\n      mstore\n      mload(0x40)\n      0x20\n      swap2\n      dup2\n      swap1\n      sub\n      dup3\n      add\n      dup2\n      keccak256\n        /* \"TokenSGTX/contracts/LicensesTaxs.sol\":8583:8617  _approvers[_Id] = _relationAddress */\n      dup1\n      sload\n      not(sub(shl(0xa0, 0x01), 0x01))\n      and\n      sub(shl(0xa0, 0x01), 0x01)\n      swap5\n      dup6\n      and\n      or\n      swap1\n      sstore\n      0x01\n        /* \"#utility.yul\":2949:2990   */\n      dup2\n      mstore\n        /* \"TokenSGTX/contracts/LicensesTaxs.sol\":8633:8673  eventNewApprover(_relationAddress, true) */\n      swap2\n      dup5\n      and\n      swap2\n      0xa590b4fc649a56bfc2765312a8b4becaa85a972fd5403de3f9a0a4270c40e71e\n      swap2\n        /* \"#utility.yul\":2922:2940   */\n      add\n        /* \"TokenSGTX/contracts/LicensesTaxs.sol\":8633:8673  eventNewApprover(_relationAddress, true) */\n      mload(0x40)\n      dup1\n      swap2\n      sub\n      swap1\n      log2\n      pop\n        /* \"TokenSGTX/contracts/LicensesTaxs.sol\":8691:8695  true */\n      0x01\n        /* \"TokenSGTX/contracts/LicensesTaxs.sol\":8369:8703  function addApprover(... */\n      swap3\n      swap2\n      pop\n      pop\n      jump\t// out\n        /* \"TokenSGTX/contracts/LicensesTaxs.sol\":1355:2615  function signatureMint(... */\n    tag_124:\n        /* \"TokenSGTX/contracts/LicensesTaxs.sol\":9459:9464  owner */\n      sload(0x08)\n        /* \"TokenSGTX/contracts/LicensesTaxs.sol\":1589:1596  bytes32 */\n      0x00\n      swap1\n      sub(shl(0xa0, 0x01), 0x01)\n        /* \"TokenSGTX/contracts/LicensesTaxs.sol\":9459:9464  owner */\n      and\n        /* \"TokenSGTX/contracts/LicensesTaxs.sol\":9445:9455  msg.sender */\n      caller\n        /* \"TokenSGTX/contracts/LicensesTaxs.sol\":9445:9464  msg.sender == owner */\n      eq\n        /* \"TokenSGTX/contracts/LicensesTaxs.sol\":9437:9492  require(msg.sender == owner, \"Only Owner can activate\") */\n      tag_279\n      jumpi\n      mload(0x40)\n      shl(0xe5, 0x461bcd)\n      dup2\n      mstore\n      0x04\n      add\n      tag_166\n      swap1\n      tag_171\n      jump\t// in\n    tag_279:\n        /* \"TokenSGTX/contracts/LicensesTaxs.sol\":9646:9657  stopMinting */\n      sload(0x08)\n      shl(0xa0, 0x01)\n      swap1\n      div\n      0xff\n      and\n        /* \"TokenSGTX/contracts/LicensesTaxs.sol\":9646:9665  stopMinting == true */\n      iszero\n      iszero\n        /* \"TokenSGTX/contracts/LicensesTaxs.sol\":9661:9665  true */\n      0x01\n        /* \"TokenSGTX/contracts/LicensesTaxs.sol\":9646:9665  stopMinting == true */\n      eq\n        /* \"TokenSGTX/contracts/LicensesTaxs.sol\":9638:9701  require(stopMinting == true, \"Minting has stoped by the owner\") */\n      tag_282\n      jumpi\n      mload(0x40)\n      shl(0xe5, 0x461bcd)\n      dup2\n      mstore\n        /* \"#utility.yul\":10657:10659   */\n      0x20\n        /* \"TokenSGTX/contracts/LicensesTaxs.sol\":9638:9701  require(stopMinting == true, \"Minting has stoped by the owner\") */\n      0x04\n      dup3\n      add\n        /* \"#utility.yul\":10639:10660   */\n      mstore\n        /* \"#utility.yul\":10696:10698   */\n      0x1f\n        /* \"#utility.yul\":10676:10694   */\n      0x24\n      dup3\n      add\n        /* \"#utility.yul\":10669:10699   */\n      mstore\n        /* \"#utility.yul\":10735:10768   */\n      0x4d696e74696e67206861732073746f70656420627920746865206f776e657200\n        /* \"#utility.yul\":10715:10733   */\n      0x44\n      dup3\n      add\n        /* \"#utility.yul\":10708:10769   */\n      mstore\n        /* \"#utility.yul\":10786:10804   */\n      0x64\n      add\n        /* \"TokenSGTX/contracts/LicensesTaxs.sol\":9638:9701  require(stopMinting == true, \"Minting has stoped by the owner\") */\n      tag_166\n        /* \"#utility.yul\":10455:10810   */\n      jump\n        /* \"TokenSGTX/contracts/LicensesTaxs.sol\":9638:9701  require(stopMinting == true, \"Minting has stoped by the owner\") */\n    tag_282:\n        /* \"TokenSGTX/contracts/LicensesTaxs.sol\":1666:1667  0 */\n      0x00\n        /* \"TokenSGTX/contracts/LicensesTaxs.sol\":1631:1654  taxpayerAddress(_owner) */\n      tag_286\n        /* \"TokenSGTX/contracts/LicensesTaxs.sol\":1647:1653  _owner */\n      dup7\n        /* \"TokenSGTX/contracts/LicensesTaxs.sol\":1631:1646  taxpayerAddress */\n      tag_83\n        /* \"TokenSGTX/contracts/LicensesTaxs.sol\":1631:1654  taxpayerAddress(_owner) */\n      jump\t// in\n    tag_286:\n      sub(shl(0xa0, 0x01), 0x01)\n        /* \"TokenSGTX/contracts/LicensesTaxs.sol\":1631:1668  taxpayerAddress(_owner) != address(0) */\n      and\n      sub\n        /* \"TokenSGTX/contracts/LicensesTaxs.sol\":1609:1726  require(... */\n      tag_287\n      jumpi\n      mload(0x40)\n      shl(0xe5, 0x461bcd)\n      dup2\n      mstore\n        /* \"#utility.yul\":11017:11019   */\n      0x20\n        /* \"TokenSGTX/contracts/LicensesTaxs.sol\":1609:1726  require(... */\n      0x04\n      dup3\n      add\n        /* \"#utility.yul\":10999:11020   */\n      mstore\n        /* \"#utility.yul\":11056:11058   */\n      0x1e\n        /* \"#utility.yul\":11036:11054   */\n      0x24\n      dup3\n      add\n        /* \"#utility.yul\":11029:11059   */\n      mstore\n        /* \"#utility.yul\":11095:11127   */\n      0x526966204e6f7420526567697374726564206861732054617870617965720000\n        /* \"#utility.yul\":11075:11093   */\n      0x44\n      dup3\n      add\n        /* \"#utility.yul\":11068:11128   */\n      mstore\n        /* \"#utility.yul\":11145:11163   */\n      0x64\n      add\n        /* \"TokenSGTX/contracts/LicensesTaxs.sol\":1609:1726  require(... */\n      tag_166\n        /* \"#utility.yul\":10815:11169   */\n      jump\n        /* \"TokenSGTX/contracts/LicensesTaxs.sol\":1609:1726  require(... */\n    tag_287:\n        /* \"TokenSGTX/contracts/LicensesTaxs.sol\":1794:1795  0 */\n      0x00\n      sub(shl(0xa0, 0x01), 0x01)\n        /* \"TokenSGTX/contracts/LicensesTaxs.sol\":1761:1796  _approvers[_approver] != address(0) */\n      and\n        /* \"TokenSGTX/contracts/LicensesTaxs.sol\":1761:1771  _approvers */\n      0x06\n        /* \"TokenSGTX/contracts/LicensesTaxs.sol\":1772:1781  _approver */\n      dup6\n        /* \"TokenSGTX/contracts/LicensesTaxs.sol\":1761:1782  _approvers[_approver] */\n      mload(0x40)\n      tag_290\n      swap2\n      swap1\n      tag_205\n      jump\t// in\n    tag_290:\n      swap1\n      dup2\n      mstore\n      mload(0x40)\n      swap1\n      dup2\n      swap1\n      sub\n      0x20\n      add\n      swap1\n      keccak256\n      sload\n      sub(shl(0xa0, 0x01), 0x01)\n      and\n        /* \"TokenSGTX/contracts/LicensesTaxs.sol\":1761:1796  _approvers[_approver] != address(0) */\n      sub\n        /* \"TokenSGTX/contracts/LicensesTaxs.sol\":1739:1856  require(... */\n      tag_291\n      jumpi\n      mload(0x40)\n      shl(0xe5, 0x461bcd)\n      dup2\n      mstore\n        /* \"#utility.yul\":11376:11378   */\n      0x20\n        /* \"TokenSGTX/contracts/LicensesTaxs.sol\":1739:1856  require(... */\n      0x04\n      dup3\n      add\n        /* \"#utility.yul\":11358:11379   */\n      dup2\n      swap1\n      mstore\n        /* \"#utility.yul\":11395:11413   */\n      0x24\n      dup3\n      add\n        /* \"#utility.yul\":11388:11418   */\n      mstore\n        /* \"#utility.yul\":11454:11488   */\n      0x417070726f766572204e6f7420526567697374726564206861732056616c6964\n        /* \"#utility.yul\":11434:11452   */\n      0x44\n      dup3\n      add\n        /* \"#utility.yul\":11427:11489   */\n      mstore\n        /* \"#utility.yul\":11506:11524   */\n      0x64\n      add\n        /* \"TokenSGTX/contracts/LicensesTaxs.sol\":1739:1856  require(... */\n      tag_166\n        /* \"#utility.yul\":11174:11530   */\n      jump\n        /* \"TokenSGTX/contracts/LicensesTaxs.sol\":1739:1856  require(... */\n    tag_291:\n        /* \"TokenSGTX/contracts/LicensesTaxs.sol\":1917:1940  taxpayerAddress(_owner) */\n      tag_294\n        /* \"TokenSGTX/contracts/LicensesTaxs.sol\":1933:1939  _owner */\n      dup6\n        /* \"TokenSGTX/contracts/LicensesTaxs.sol\":1917:1932  taxpayerAddress */\n      tag_83\n        /* \"TokenSGTX/contracts/LicensesTaxs.sol\":1917:1940  taxpayerAddress(_owner) */\n      jump\t// in\n    tag_294:\n      sub(shl(0xa0, 0x01), 0x01)\n        /* \"TokenSGTX/contracts/LicensesTaxs.sol\":1891:1940  _approvers[_approver] !=  taxpayerAddress(_owner) */\n      and\n        /* \"TokenSGTX/contracts/LicensesTaxs.sol\":1891:1901  _approvers */\n      0x06\n        /* \"TokenSGTX/contracts/LicensesTaxs.sol\":1902:1911  _approver */\n      dup6\n        /* \"TokenSGTX/contracts/LicensesTaxs.sol\":1891:1912  _approvers[_approver] */\n      mload(0x40)\n      tag_295\n      swap2\n      swap1\n      tag_205\n      jump\t// in\n    tag_295:\n      swap1\n      dup2\n      mstore\n      mload(0x40)\n      swap1\n      dup2\n      swap1\n      sub\n      0x20\n      add\n      swap1\n      keccak256\n      sload\n      sub(shl(0xa0, 0x01), 0x01)\n      and\n        /* \"TokenSGTX/contracts/LicensesTaxs.sol\":1891:1940  _approvers[_approver] !=  taxpayerAddress(_owner) */\n      sub\n        /* \"TokenSGTX/contracts/LicensesTaxs.sol\":1869:1997  require(... */\n      tag_296\n      jumpi\n      mload(0x40)\n      shl(0xe5, 0x461bcd)\n      dup2\n      mstore\n        /* \"#utility.yul\":11737:11739   */\n      0x20\n        /* \"TokenSGTX/contracts/LicensesTaxs.sol\":1869:1997  require(... */\n      0x04\n      dup3\n      add\n        /* \"#utility.yul\":11719:11740   */\n      mstore\n        /* \"#utility.yul\":11776:11778   */\n      0x1d\n        /* \"#utility.yul\":11756:11774   */\n      0x24\n      dup3\n      add\n        /* \"#utility.yul\":11749:11779   */\n      mstore\n        /* \"#utility.yul\":11815:11846   */\n      0x417070726f7665722063616e6e6f742070726f76652068696d73656c66000000\n        /* \"#utility.yul\":11795:11813   */\n      0x44\n      dup3\n      add\n        /* \"#utility.yul\":11788:11847   */\n      mstore\n        /* \"#utility.yul\":11864:11882   */\n      0x64\n      add\n        /* \"TokenSGTX/contracts/LicensesTaxs.sol\":1869:1997  require(... */\n      tag_166\n        /* \"#utility.yul\":11535:11888   */\n      jump\n        /* \"TokenSGTX/contracts/LicensesTaxs.sol\":1869:1997  require(... */\n    tag_296:\n        /* \"TokenSGTX/contracts/LicensesTaxs.sol\":2010:2029  bytes32 singLicense */\n      0x00\n        /* \"TokenSGTX/contracts/LicensesTaxs.sol\":2032:2195  singLicense(... */\n      tag_299\n        /* \"TokenSGTX/contracts/LicensesTaxs.sol\":2058:2066  _consept */\n      dup8\n        /* \"TokenSGTX/contracts/LicensesTaxs.sol\":2081:2091  identifier */\n      dup5\n        /* \"TokenSGTX/contracts/LicensesTaxs.sol\":2106:2129  taxpayerAddress(_owner) */\n      tag_203\n        /* \"TokenSGTX/contracts/LicensesTaxs.sol\":2122:2128  _owner */\n      dup10\n        /* \"TokenSGTX/contracts/LicensesTaxs.sol\":2106:2121  taxpayerAddress */\n      tag_83\n        /* \"TokenSGTX/contracts/LicensesTaxs.sol\":2106:2129  taxpayerAddress(_owner) */\n      jump\t// in\n        /* \"TokenSGTX/contracts/LicensesTaxs.sol\":2032:2195  singLicense(... */\n    tag_299:\n        /* \"TokenSGTX/contracts/LicensesTaxs.sol\":2010:2195  bytes32 singLicense = singLicense(... */\n      swap1\n      pop\n        /* \"TokenSGTX/contracts/LicensesTaxs.sol\":2208:2241  StructSignature memory objlisense */\n      0x00\n        /* \"TokenSGTX/contracts/LicensesTaxs.sol\":2244:2456  StructSignature(... */\n      mload(0x40)\n      dup1\n      0xe0\n      add\n      0x40\n      mstore\n      dup1\n        /* \"TokenSGTX/contracts/LicensesTaxs.sol\":2274:2282  _consept */\n      dup10\n        /* \"TokenSGTX/contracts/LicensesTaxs.sol\":2244:2456  StructSignature(... */\n      dup2\n      mstore\n      0x20\n      add\n        /* \"TokenSGTX/contracts/LicensesTaxs.sol\":2297:2307  identifier */\n      dup6\n        /* \"TokenSGTX/contracts/LicensesTaxs.sol\":2244:2456  StructSignature(... */\n      dup2\n      mstore\n      0x20\n      add\n        /* \"TokenSGTX/contracts/LicensesTaxs.sol\":2322:2345  taxpayerAddress(_owner) */\n      tag_302\n        /* \"TokenSGTX/contracts/LicensesTaxs.sol\":2338:2344  _owner */\n      dup10\n        /* \"TokenSGTX/contracts/LicensesTaxs.sol\":2322:2337  taxpayerAddress */\n      tag_83\n        /* \"TokenSGTX/contracts/LicensesTaxs.sol\":2322:2345  taxpayerAddress(_owner) */\n      jump\t// in\n    tag_302:\n      sub(shl(0xa0, 0x01), 0x01)\n        /* \"TokenSGTX/contracts/LicensesTaxs.sol\":2244:2456  StructSignature(... */\n      and\n      dup2\n      mstore\n      0x20\n      add\n        /* \"TokenSGTX/contracts/LicensesTaxs.sol\":2360:2364  data */\n      dup7\n        /* \"TokenSGTX/contracts/LicensesTaxs.sol\":2244:2456  StructSignature(... */\n      dup2\n      mstore\n      0x20\n      add\n        /* \"TokenSGTX/contracts/LicensesTaxs.sol\":2379:2389  _approvers */\n      0x06\n        /* \"TokenSGTX/contracts/LicensesTaxs.sol\":2390:2399  _approver */\n      dup9\n        /* \"TokenSGTX/contracts/LicensesTaxs.sol\":2379:2400  _approvers[_approver] */\n      mload(0x40)\n      tag_303\n      swap2\n      swap1\n      tag_205\n      jump\t// in\n    tag_303:\n      swap1\n      dup2\n      mstore\n      0x40\n      dup1\n      mload\n      0x20\n      swap3\n      dup2\n      swap1\n      sub\n      dup4\n      add\n      swap1\n      keccak256\n      sload\n      sub(shl(0xa0, 0x01), 0x01)\n      and\n        /* \"TokenSGTX/contracts/LicensesTaxs.sol\":2244:2456  StructSignature(... */\n      dup4\n      mstore\n      swap1\n      dup3\n      add\n      dup6\n      swap1\n      mstore\n        /* \"TokenSGTX/contracts/LicensesTaxs.sol\":2379:2400  _approvers[_approver] */\n      0x01\n        /* \"TokenSGTX/contracts/LicensesTaxs.sol\":2244:2456  StructSignature(... */\n      swap2\n      add\n      mstore\n        /* \"TokenSGTX/contracts/LicensesTaxs.sol\":2208:2456  StructSignature memory objlisense = StructSignature(... */\n      swap1\n      pop\n        /* \"TokenSGTX/contracts/LicensesTaxs.sol\":2469:2494  _checkLicense(objlisense) */\n      tag_304\n        /* \"TokenSGTX/contracts/LicensesTaxs.sol\":2208:2456  StructSignature memory objlisense = StructSignature(... */\n      dup2\n        /* \"TokenSGTX/contracts/LicensesTaxs.sol\":2469:2482  _checkLicense */\n      tag_305\n        /* \"TokenSGTX/contracts/LicensesTaxs.sol\":2469:2494  _checkLicense(objlisense) */\n      jump\t// in\n    tag_304:\n      pop\n        /* \"TokenSGTX/contracts/LicensesTaxs.sol\":2505:2516  totalMinted */\n      0x09\n        /* \"TokenSGTX/contracts/LicensesTaxs.sol\":2505:2520  totalMinted +=1 */\n      dup1\n      sload\n        /* \"TokenSGTX/contracts/LicensesTaxs.sol\":2519:2520  1 */\n      0x01\n      swap2\n        /* \"TokenSGTX/contracts/LicensesTaxs.sol\":2505:2516  totalMinted */\n      swap1\n      0x14\n      swap1\n        /* \"TokenSGTX/contracts/LicensesTaxs.sol\":2505:2520  totalMinted +=1 */\n      tag_306\n      swap1\n        /* \"TokenSGTX/contracts/LicensesTaxs.sol\":2519:2520  1 */\n      dup5\n      swap1\n      shl(0xa0, 0x01)\n        /* \"TokenSGTX/contracts/LicensesTaxs.sol\":2505:2520  totalMinted +=1 */\n      swap1\n      div\n      0x03\n      signextend\n      tag_307\n      jump\t// in\n    tag_306:\n      swap3\n      pop\n      0x0100\n      exp\n      dup2\n      sload\n      dup2\n      0xffffffff\n      mul\n      not\n      and\n      swap1\n      dup4\n      0x03\n      signextend\n      0xffffffff\n      and\n      mul\n      or\n      swap1\n      sstore\n      pop\n        /* \"TokenSGTX/contracts/LicensesTaxs.sol\":2568:2569  1 */\n      0x01\n        /* \"TokenSGTX/contracts/LicensesTaxs.sol\":2531:2540  _balances */\n      0x07\n        /* \"TokenSGTX/contracts/LicensesTaxs.sol\":2531:2565  _balances[taxpayerAddress(_owner)] */\n      0x00\n        /* \"TokenSGTX/contracts/LicensesTaxs.sol\":2541:2564  taxpayerAddress(_owner) */\n      tag_308\n        /* \"TokenSGTX/contracts/LicensesTaxs.sol\":2557:2563  _owner */\n      dup11\n        /* \"TokenSGTX/contracts/LicensesTaxs.sol\":2541:2556  taxpayerAddress */\n      tag_83\n        /* \"TokenSGTX/contracts/LicensesTaxs.sol\":2541:2564  taxpayerAddress(_owner) */\n      jump\t// in\n    tag_308:\n      sub(shl(0xa0, 0x01), 0x01)\n        /* \"TokenSGTX/contracts/LicensesTaxs.sol\":2531:2565  _balances[taxpayerAddress(_owner)] */\n      and\n      sub(shl(0xa0, 0x01), 0x01)\n      and\n      dup2\n      mstore\n      0x20\n      add\n      swap1\n      dup2\n      mstore\n      0x20\n      add\n      0x00\n      keccak256\n      0x00\n        /* \"TokenSGTX/contracts/LicensesTaxs.sol\":2531:2569  _balances[taxpayerAddress(_owner)] +=1 */\n      dup3\n      dup3\n      sload\n      tag_309\n      swap2\n      swap1\n      tag_310\n      jump\t// in\n    tag_309:\n      swap1\n      swap2\n      sstore\n      pop\n      pop\n        /* \"TokenSGTX/contracts/LicensesTaxs.sol\":2587:2607  objlisense.signature */\n      0xa0\n      add\n      mload\n      swap8\n        /* \"TokenSGTX/contracts/LicensesTaxs.sol\":1355:2615  function signatureMint(... */\n      swap7\n      pop\n      pop\n      pop\n      pop\n      pop\n      pop\n      pop\n      jump\t// out\n        /* \"TokenSGTX/contracts/LicensesTaxs.sol\":6248:6942  function expirationLicense(... */\n    tag_129:\n        /* \"TokenSGTX/contracts/LicensesTaxs.sol\":9566:9576  msg.sender */\n      caller\n        /* \"TokenSGTX/contracts/LicensesTaxs.sol\":6343:6347  bool */\n      0x00\n        /* \"TokenSGTX/contracts/LicensesTaxs.sol\":9558:9577  _admins[msg.sender] */\n      swap1\n      dup2\n      mstore\n        /* \"TokenSGTX/contracts/LicensesTaxs.sol\":9558:9565  _admins */\n      0x04\n        /* \"TokenSGTX/contracts/LicensesTaxs.sol\":9558:9577  _admins[msg.sender] */\n      0x20\n      mstore\n      0x40\n      dup2\n      keccak256\n      sload\n      0xff\n      and\n        /* \"TokenSGTX/contracts/LicensesTaxs.sol\":9550:9578  require(_admins[msg.sender]) */\n      tag_312\n      jumpi\n      0x00\n      dup1\n      revert\n    tag_312:\n        /* \"TokenSGTX/contracts/LicensesTaxs.sol\":6360:6393  StructSignature memory objlisense */\n      0x00\n        /* \"TokenSGTX/contracts/LicensesTaxs.sol\":6396:6425  _signatureEnabled[singnature] */\n      dup3\n      dup2\n      mstore\n      0x20\n      dup2\n      swap1\n      mstore\n      0x40\n      dup1\n      dup3\n      keccak256\n        /* \"TokenSGTX/contracts/LicensesTaxs.sol\":6360:6425  StructSignature memory objlisense = _signatureEnabled[singnature] */\n      dup2\n      mload\n      0xe0\n      dup2\n      add\n      swap1\n      swap3\n      mstore\n      dup1\n      sload\n      dup3\n      swap1\n        /* \"TokenSGTX/contracts/LicensesTaxs.sol\":6396:6425  _signatureEnabled[singnature] */\n      dup3\n      swap1\n        /* \"TokenSGTX/contracts/LicensesTaxs.sol\":6360:6425  StructSignature memory objlisense = _signatureEnabled[singnature] */\n      tag_314\n      swap1\n      tag_142\n      jump\t// in\n    tag_314:\n      dup1\n      0x1f\n      add\n      0x20\n      dup1\n      swap2\n      div\n      mul\n      0x20\n      add\n      mload(0x40)\n      swap1\n      dup2\n      add\n      0x40\n      mstore\n      dup1\n      swap3\n      swap2\n      swap1\n      dup2\n      dup2\n      mstore\n      0x20\n      add\n      dup3\n      dup1\n      sload\n      tag_315\n      swap1\n      tag_142\n      jump\t// in\n    tag_315:\n      dup1\n      iszero\n      tag_316\n      jumpi\n      dup1\n      0x1f\n      lt\n      tag_317\n      jumpi\n      0x0100\n      dup1\n      dup4\n      sload\n      div\n      mul\n      dup4\n      mstore\n      swap2\n      0x20\n      add\n      swap2\n      jump(tag_316)\n    tag_317:\n      dup3\n      add\n      swap2\n      swap1\n      0x00\n      mstore\n      keccak256(0x00, 0x20)\n      swap1\n    tag_318:\n      dup2\n      sload\n      dup2\n      mstore\n      swap1\n      0x01\n      add\n      swap1\n      0x20\n      add\n      dup1\n      dup4\n      gt\n      tag_318\n      jumpi\n      dup3\n      swap1\n      sub\n      0x1f\n      and\n      dup3\n      add\n      swap2\n    tag_316:\n      pop\n      pop\n      pop\n      pop\n      pop\n      dup2\n      mstore\n      0x20\n      add\n      0x01\n      dup3\n      add\n      dup1\n      sload\n      tag_319\n      swap1\n      tag_142\n      jump\t// in\n    tag_319:\n      dup1\n      0x1f\n      add\n      0x20\n      dup1\n      swap2\n      div\n      mul\n      0x20\n      add\n      mload(0x40)\n      swap1\n      dup2\n      add\n      0x40\n      mstore\n      dup1\n      swap3\n      swap2\n      swap1\n      dup2\n      dup2\n      mstore\n      0x20\n      add\n      dup3\n      dup1\n      sload\n      tag_320\n      swap1\n      tag_142\n      jump\t// in\n    tag_320:\n      dup1\n      iszero\n      tag_321\n      jumpi\n      dup1\n      0x1f\n      lt\n      tag_322\n      jumpi\n      0x0100\n      dup1\n      dup4\n      sload\n      div\n      mul\n      dup4\n      mstore\n      swap2\n      0x20\n      add\n      swap2\n      jump(tag_321)\n    tag_322:\n      dup3\n      add\n      swap2\n      swap1\n      0x00\n      mstore\n      keccak256(0x00, 0x20)\n      swap1\n    tag_323:\n      dup2\n      sload\n      dup2\n      mstore\n      swap1\n      0x01\n      add\n      swap1\n      0x20\n      add\n      dup1\n      dup4\n      gt\n      tag_323\n      jumpi\n      dup3\n      swap1\n      sub\n      0x1f\n      and\n      dup3\n      add\n      swap2\n    tag_321:\n      pop\n      pop\n      pop\n      swap2\n      dup4\n      mstore\n      pop\n      pop\n      0x02\n      dup3\n      add\n      sload\n      sub(shl(0xa0, 0x01), 0x01)\n      and\n      0x20\n      dup3\n      add\n      mstore\n      0x03\n      dup3\n      add\n      dup1\n      sload\n      0x40\n      swap1\n      swap3\n      add\n      swap2\n      tag_324\n      swap1\n      tag_142\n      jump\t// in\n    tag_324:\n      dup1\n      0x1f\n      add\n      0x20\n      dup1\n      swap2\n      div\n      mul\n      0x20\n      add\n      mload(0x40)\n      swap1\n      dup2\n      add\n      0x40\n      mstore\n      dup1\n      swap3\n      swap2\n      swap1\n      dup2\n      dup2\n      mstore\n      0x20\n      add\n      dup3\n      dup1\n      sload\n      tag_325\n      swap1\n      tag_142\n      jump\t// in\n    tag_325:\n      dup1\n      iszero\n      tag_326\n      jumpi\n      dup1\n      0x1f\n      lt\n      tag_327\n      jumpi\n      0x0100\n      dup1\n      dup4\n      sload\n      div\n      mul\n      dup4\n      mstore\n      swap2\n      0x20\n      add\n      swap2\n      jump(tag_326)\n    tag_327:\n      dup3\n      add\n      swap2\n      swap1\n      0x00\n      mstore\n      keccak256(0x00, 0x20)\n      swap1\n    tag_328:\n      dup2\n      sload\n      dup2\n      mstore\n      swap1\n      0x01\n      add\n      swap1\n      0x20\n      add\n      dup1\n      dup4\n      gt\n      tag_328\n      jumpi\n      dup3\n      swap1\n      sub\n      0x1f\n      and\n      dup3\n      add\n      swap2\n    tag_326:\n      pop\n      pop\n      pop\n      swap2\n      dup4\n      mstore\n      pop\n      pop\n      0x04\n      dup3\n      add\n      sload\n      sub(shl(0xa0, 0x01), 0x01)\n      and\n      0x20\n      dup3\n      add\n      mstore\n      0x05\n      dup3\n      add\n      sload\n      0x40\n      dup1\n      dup4\n      add\n      swap2\n      swap1\n      swap2\n      mstore\n      0x06\n      swap1\n      swap3\n      add\n      sload\n      0xff\n      and\n      iszero\n      iszero\n      0x60\n      swap1\n      swap2\n      add\n      mstore\n        /* \"TokenSGTX/contracts/LicensesTaxs.sol\":6463:6479  objlisense.owner */\n      dup2\n      add\n      mload\n        /* \"TokenSGTX/contracts/LicensesTaxs.sol\":6360:6425  StructSignature memory objlisense = _signatureEnabled[singnature] */\n      swap1\n      swap2\n      pop\n        /* \"TokenSGTX/contracts/LicensesTaxs.sol\":6436:6480  _deleteLicense(singnature, objlisense.owner) */\n      tag_329\n      swap1\n        /* \"TokenSGTX/contracts/LicensesTaxs.sol\":6451:6461  singnature */\n      dup5\n      swap1\n        /* \"TokenSGTX/contracts/LicensesTaxs.sol\":6436:6450  _deleteLicense */\n      tag_330\n        /* \"TokenSGTX/contracts/LicensesTaxs.sol\":6436:6480  _deleteLicense(singnature, objlisense.owner) */\n      jump\t// in\n    tag_329:\n        /* \"TokenSGTX/contracts/LicensesTaxs.sol\":6501:6517  objlisense.owner */\n      0x40\n      dup1\n      dup3\n      add\n      mload\n      sub(shl(0xa0, 0x01), 0x01)\n        /* \"TokenSGTX/contracts/LicensesTaxs.sol\":6491:6518  _balances[objlisense.owner] */\n      and\n      0x00\n      swap1\n      dup2\n      mstore\n        /* \"TokenSGTX/contracts/LicensesTaxs.sol\":6491:6500  _balances */\n      0x07\n        /* \"TokenSGTX/contracts/LicensesTaxs.sol\":6491:6518  _balances[objlisense.owner] */\n      0x20\n      mstore\n      swap1\n      dup2\n      keccak256\n        /* \"TokenSGTX/contracts/LicensesTaxs.sol\":6491:6522  _balances[objlisense.owner] -=1 */\n      dup1\n      sload\n        /* \"TokenSGTX/contracts/LicensesTaxs.sol\":6521:6522  1 */\n      0x01\n      swap3\n        /* \"TokenSGTX/contracts/LicensesTaxs.sol\":6491:6518  _balances[objlisense.owner] */\n      swap1\n        /* \"TokenSGTX/contracts/LicensesTaxs.sol\":6491:6522  _balances[objlisense.owner] -=1 */\n      tag_331\n      swap1\n        /* \"TokenSGTX/contracts/LicensesTaxs.sol\":6521:6522  1 */\n      dup5\n      swap1\n        /* \"TokenSGTX/contracts/LicensesTaxs.sol\":6491:6522  _balances[objlisense.owner] -=1 */\n      tag_332\n      jump\t// in\n    tag_331:\n      swap1\n      swap2\n      sstore\n      pop\n      pop\n        /* \"TokenSGTX/contracts/LicensesTaxs.sol\":6584:6600  objlisense.owner */\n      0x40\n      dup1\n      dup3\n      add\n      mload\n      sub(shl(0xa0, 0x01), 0x01)\n        /* \"TokenSGTX/contracts/LicensesTaxs.sol\":6573:6601  _userSings[objlisense.owner] */\n      and\n        /* \"TokenSGTX/contracts/LicensesTaxs.sol\":6533:6570  bytes32[] memory ownersClientLicenses */\n      0x00\n        /* \"TokenSGTX/contracts/LicensesTaxs.sol\":6573:6601  _userSings[objlisense.owner] */\n      swap1\n      dup2\n      mstore\n        /* \"TokenSGTX/contracts/LicensesTaxs.sol\":6573:6583  _userSings */\n      0x01\n        /* \"TokenSGTX/contracts/LicensesTaxs.sol\":6573:6601  _userSings[objlisense.owner] */\n      0x20\n      swap1\n      dup2\n      mstore\n      dup3\n      dup3\n      keccak256\n        /* \"TokenSGTX/contracts/LicensesTaxs.sol\":6533:6601  bytes32[] memory ownersClientLicenses = _userSings[objlisense.owner] */\n      dup1\n      sload\n      dup5\n      mload\n      dup2\n      dup5\n      mul\n      dup2\n      add\n      dup5\n      add\n      swap1\n      swap6\n      mstore\n      dup1\n      dup6\n      mstore\n        /* \"TokenSGTX/contracts/LicensesTaxs.sol\":6533:6570  bytes32[] memory ownersClientLicenses */\n      swap3\n      swap4\n        /* \"TokenSGTX/contracts/LicensesTaxs.sol\":6533:6601  bytes32[] memory ownersClientLicenses = _userSings[objlisense.owner] */\n      swap3\n        /* \"TokenSGTX/contracts/LicensesTaxs.sol\":6573:6601  _userSings[objlisense.owner] */\n      swap1\n      swap2\n        /* \"TokenSGTX/contracts/LicensesTaxs.sol\":6533:6601  bytes32[] memory ownersClientLicenses = _userSings[objlisense.owner] */\n      dup4\n      add\n        /* \"TokenSGTX/contracts/LicensesTaxs.sol\":6573:6601  _userSings[objlisense.owner] */\n      dup3\n        /* \"TokenSGTX/contracts/LicensesTaxs.sol\":6533:6601  bytes32[] memory ownersClientLicenses = _userSings[objlisense.owner] */\n      dup3\n      dup1\n      iszero\n      tag_333\n      jumpi\n      0x20\n      mul\n      dup3\n      add\n      swap2\n      swap1\n      0x00\n      mstore\n      keccak256(0x00, 0x20)\n      swap1\n    tag_334:\n      dup2\n      sload\n      dup2\n      mstore\n      0x20\n      add\n      swap1\n      0x01\n      add\n      swap1\n      dup1\n      dup4\n      gt\n      tag_334\n      jumpi\n    tag_333:\n      pop\n      pop\n      pop\n      pop\n      pop\n      swap1\n      pop\n        /* \"TokenSGTX/contracts/LicensesTaxs.sol\":6617:6626  uint256 i */\n      0x00\n        /* \"TokenSGTX/contracts/LicensesTaxs.sol\":6612:6812  for (uint256 i = 0; i < ownersClientLicenses.length; i++) {... */\n    tag_335:\n        /* \"TokenSGTX/contracts/LicensesTaxs.sol\":6636:6656  ownersClientLicenses */\n      dup2\n        /* \"TokenSGTX/contracts/LicensesTaxs.sol\":6636:6663  ownersClientLicenses.length */\n      mload\n        /* \"TokenSGTX/contracts/LicensesTaxs.sol\":6632:6633  i */\n      dup2\n        /* \"TokenSGTX/contracts/LicensesTaxs.sol\":6632:6663  i < ownersClientLicenses.length */\n      lt\n        /* \"TokenSGTX/contracts/LicensesTaxs.sol\":6612:6812  for (uint256 i = 0; i < ownersClientLicenses.length; i++) {... */\n      iszero\n      tag_336\n      jumpi\n        /* \"TokenSGTX/contracts/LicensesTaxs.sol\":6716:6726  singnature */\n      dup5\n        /* \"TokenSGTX/contracts/LicensesTaxs.sol\":6689:6709  ownersClientLicenses */\n      dup3\n        /* \"TokenSGTX/contracts/LicensesTaxs.sol\":6710:6711  i */\n      dup3\n        /* \"TokenSGTX/contracts/LicensesTaxs.sol\":6689:6712  ownersClientLicenses[i] */\n      dup2\n      mload\n      dup2\n      lt\n      tag_339\n      jumpi\n      tag_339\n      tag_340\n      jump\t// in\n    tag_339:\n      0x20\n      mul\n      0x20\n      add\n      add\n      mload\n        /* \"TokenSGTX/contracts/LicensesTaxs.sol\":6689:6726  ownersClientLicenses[i] == singnature */\n      sub\n        /* \"TokenSGTX/contracts/LicensesTaxs.sol\":6685:6801  if (ownersClientLicenses[i] == singnature) {... */\n      tag_341\n      jumpi\n        /* \"TokenSGTX/contracts/LicensesTaxs.sol\":6765:6781  objlisense.owner */\n      0x40\n      dup1\n      dup5\n      add\n      mload\n      sub(shl(0xa0, 0x01), 0x01)\n        /* \"TokenSGTX/contracts/LicensesTaxs.sol\":6754:6782  _userSings[objlisense.owner] */\n      and\n      0x00\n      swap1\n      dup2\n      mstore\n        /* \"TokenSGTX/contracts/LicensesTaxs.sol\":6754:6764  _userSings */\n      0x01\n        /* \"TokenSGTX/contracts/LicensesTaxs.sol\":6754:6782  _userSings[objlisense.owner] */\n      0x20\n      mstore\n      keccak256\n        /* \"TokenSGTX/contracts/LicensesTaxs.sol\":6754:6785  _userSings[objlisense.owner][i] */\n      dup1\n      sload\n        /* \"TokenSGTX/contracts/LicensesTaxs.sol\":6783:6784  i */\n      dup3\n      swap1\n        /* \"TokenSGTX/contracts/LicensesTaxs.sol\":6754:6785  _userSings[objlisense.owner][i] */\n      dup2\n      lt\n      tag_343\n      jumpi\n      tag_343\n      tag_340\n      jump\t// in\n    tag_343:\n      0x00\n      swap2\n      dup3\n      mstore\n      0x20\n      dup3\n      keccak256\n      add\n        /* \"TokenSGTX/contracts/LicensesTaxs.sol\":6747:6785  delete _userSings[objlisense.owner][i] */\n      sstore\n        /* \"TokenSGTX/contracts/LicensesTaxs.sol\":6685:6801  if (ownersClientLicenses[i] == singnature) {... */\n    tag_341:\n        /* \"TokenSGTX/contracts/LicensesTaxs.sol\":6665:6668  i++ */\n      dup1\n      tag_345\n      dup2\n      tag_346\n      jump\t// in\n    tag_345:\n      swap2\n      pop\n      pop\n        /* \"TokenSGTX/contracts/LicensesTaxs.sol\":6612:6812  for (uint256 i = 0; i < ownersClientLicenses.length; i++) {... */\n      jump(tag_335)\n    tag_336:\n      pop\n        /* \"TokenSGTX/contracts/LicensesTaxs.sol\":6844:6849  false */\n      0x00\n        /* \"TokenSGTX/contracts/LicensesTaxs.sol\":6822:6841  objlisense.isEntity */\n      0xc0\n      dup4\n      add\n        /* \"TokenSGTX/contracts/LicensesTaxs.sol\":6822:6849  objlisense.isEntity = false */\n      dup2\n      swap1\n      mstore\n        /* \"TokenSGTX/contracts/LicensesTaxs.sol\":6878:6894  objlisense.owner */\n      0x40\n      dup1\n      dup5\n      add\n      mload\n      sub(shl(0xa0, 0x01), 0x01)\n        /* \"TokenSGTX/contracts/LicensesTaxs.sol\":6860:6895  _recordedLicenses[objlisense.owner] */\n      and\n      dup3\n      mstore\n        /* \"TokenSGTX/contracts/LicensesTaxs.sol\":6860:6877  _recordedLicenses */\n      0x02\n        /* \"TokenSGTX/contracts/LicensesTaxs.sol\":6860:6895  _recordedLicenses[objlisense.owner] */\n      0x20\n      swap1\n      dup2\n      mstore\n      swap1\n      dup3\n      keccak256\n        /* \"TokenSGTX/contracts/LicensesTaxs.sol\":6860:6912  _recordedLicenses[objlisense.owner].push(objlisense) */\n      dup1\n      sload\n        /* \"TokenSGTX/contracts/LicensesTaxs.sol\":6822:6849  objlisense.isEntity = false */\n      0x01\n        /* \"TokenSGTX/contracts/LicensesTaxs.sol\":6860:6912  _recordedLicenses[objlisense.owner].push(objlisense) */\n      dup2\n      add\n      dup3\n      sstore\n      swap1\n      dup4\n      mstore\n      swap2\n      keccak256\n      dup4\n      mload\n        /* \"TokenSGTX/contracts/LicensesTaxs.sol\":6822:6832  objlisense */\n      dup5\n      swap3\n        /* \"TokenSGTX/contracts/LicensesTaxs.sol\":6860:6912  _recordedLicenses[objlisense.owner].push(objlisense) */\n      0x07\n      mul\n      swap1\n      swap2\n      add\n      swap1\n      dup2\n      swap1\n      tag_348\n      swap1\n      dup3\n      tag_349\n      jump\t// in\n    tag_348:\n      pop\n      0x20\n      dup3\n      add\n      mload\n      0x01\n      dup3\n      add\n      swap1\n      tag_350\n      swap1\n      dup3\n      tag_349\n      jump\t// in\n    tag_350:\n      pop\n      0x40\n      dup3\n      add\n      mload\n      0x02\n      dup3\n      add\n      dup1\n      sload\n      not(sub(shl(0xa0, 0x01), 0x01))\n      and\n      sub(shl(0xa0, 0x01), 0x01)\n      swap1\n      swap3\n      and\n      swap2\n      swap1\n      swap2\n      or\n      swap1\n      sstore\n      0x60\n      dup3\n      add\n      mload\n      0x03\n      dup3\n      add\n      swap1\n      tag_351\n      swap1\n      dup3\n      tag_349\n      jump\t// in\n    tag_351:\n      pop\n      0x80\n      dup3\n      add\n      mload\n      0x04\n      dup3\n      add\n      dup1\n      sload\n      not(sub(shl(0xa0, 0x01), 0x01))\n      and\n      sub(shl(0xa0, 0x01), 0x01)\n      swap1\n      swap3\n      and\n      swap2\n      swap1\n      swap2\n      or\n      swap1\n      sstore\n      0xa0\n      dup3\n      add\n      mload\n      0x05\n      dup3\n      add\n      sstore\n      0xc0\n      swap1\n      swap2\n      add\n      mload\n      0x06\n      swap1\n      swap2\n      add\n      dup1\n      sload\n      not(0xff)\n      and\n      swap2\n      iszero\n      iszero\n      swap2\n      swap1\n      swap2\n      or\n      swap1\n      sstore\n      pop\n      0x01\n      swap4\n        /* \"TokenSGTX/contracts/LicensesTaxs.sol\":6248:6942  function expirationLicense(... */\n      swap3\n      pop\n      pop\n      pop\n      jump\t// out\n        /* \"TokenSGTX/contracts/LicensesTaxs.sol\":9179:9306  function mintingStop() public isOwner returns (bool) {... */\n    tag_133:\n        /* \"TokenSGTX/contracts/LicensesTaxs.sol\":9459:9464  owner */\n      sload(0x08)\n        /* \"TokenSGTX/contracts/LicensesTaxs.sol\":9226:9230  bool */\n      0x00\n      swap1\n      sub(shl(0xa0, 0x01), 0x01)\n        /* \"TokenSGTX/contracts/LicensesTaxs.sol\":9459:9464  owner */\n      and\n        /* \"TokenSGTX/contracts/LicensesTaxs.sol\":9445:9455  msg.sender */\n      caller\n        /* \"TokenSGTX/contracts/LicensesTaxs.sol\":9445:9464  msg.sender == owner */\n      eq\n        /* \"TokenSGTX/contracts/LicensesTaxs.sol\":9437:9492  require(msg.sender == owner, \"Only Owner can activate\") */\n      tag_353\n      jumpi\n      mload(0x40)\n      shl(0xe5, 0x461bcd)\n      dup2\n      mstore\n      0x04\n      add\n      tag_166\n      swap1\n      tag_171\n      jump\t// in\n    tag_353:\n      pop\n        /* \"TokenSGTX/contracts/LicensesTaxs.sol\":9258:9269  stopMinting */\n      0x08\n      dup1\n      sload\n      0xff\n      shl(0xa0, 0x01)\n      dup1\n      dup4\n      div\n      dup3\n      and\n        /* \"TokenSGTX/contracts/LicensesTaxs.sol\":9257:9269  !stopMinting */\n      iszero\n        /* \"TokenSGTX/contracts/LicensesTaxs.sol\":9243:9269  stopMinting = !stopMinting */\n      dup2\n      mul\n      not(shl(0xa0, 0xff))\n      swap1\n      swap4\n      and\n      swap3\n      swap1\n      swap3\n      or\n      swap3\n      dup4\n      swap1\n      sstore\n        /* \"TokenSGTX/contracts/LicensesTaxs.sol\":9287:9298  stopMinting */\n      swap2\n      div\n      and\n        /* \"TokenSGTX/contracts/LicensesTaxs.sol\":9179:9306  function mintingStop() public isOwner returns (bool) {... */\n      swap1\n      jump\t// out\n        /* \"TokenSGTX/contracts/LicensesTaxs.sol\":6952:7333  function getExpiredLicense(address _owner , bytes32 sign) public payable isOwner returns (StructSignature memory) {... */\n    tag_138:\n        /* \"TokenSGTX/contracts/LicensesTaxs.sol\":7042:7064  StructSignature memory */\n      tag_356\n      tag_148\n      jump\t// in\n    tag_356:\n        /* \"TokenSGTX/contracts/LicensesTaxs.sol\":9459:9464  owner */\n      and(sub(shl(0xa0, 0x01), 0x01), sload(0x08))\n        /* \"TokenSGTX/contracts/LicensesTaxs.sol\":9445:9455  msg.sender */\n      caller\n        /* \"TokenSGTX/contracts/LicensesTaxs.sol\":9445:9464  msg.sender == owner */\n      eq\n        /* \"TokenSGTX/contracts/LicensesTaxs.sol\":9437:9492  require(msg.sender == owner, \"Only Owner can activate\") */\n      tag_358\n      jumpi\n      mload(0x40)\n      shl(0xe5, 0x461bcd)\n      dup2\n      mstore\n      0x04\n      add\n      tag_166\n      swap1\n      tag_171\n      jump\t// in\n    tag_358:\n      sub(shl(0xa0, 0x01), 0x01)\n        /* \"TokenSGTX/contracts/LicensesTaxs.sol\":7117:7142  _recordedLicenses[_owner] */\n      dup4\n      and\n        /* \"TokenSGTX/contracts/LicensesTaxs.sol\":7077:7114  StructSignature[] memory objLincenses */\n      0x00\n        /* \"TokenSGTX/contracts/LicensesTaxs.sol\":7117:7142  _recordedLicenses[_owner] */\n      swap1\n      dup2\n      mstore\n        /* \"TokenSGTX/contracts/LicensesTaxs.sol\":7117:7134  _recordedLicenses */\n      0x02\n        /* \"TokenSGTX/contracts/LicensesTaxs.sol\":7117:7142  _recordedLicenses[_owner] */\n      0x20\n      swap1\n      dup2\n      mstore\n      0x40\n      dup1\n      dup4\n      keccak256\n        /* \"TokenSGTX/contracts/LicensesTaxs.sol\":7077:7142  StructSignature[] memory objLincenses = _recordedLicenses[_owner] */\n      dup1\n      sload\n      dup3\n      mload\n      dup2\n      dup6\n      mul\n      dup2\n      add\n      dup6\n      add\n      swap1\n      swap4\n      mstore\n      dup1\n      dup4\n      mstore\n      swap2\n      swap3\n        /* \"TokenSGTX/contracts/LicensesTaxs.sol\":7117:7142  _recordedLicenses[_owner] */\n      swap1\n      swap2\n        /* \"TokenSGTX/contracts/LicensesTaxs.sol\":7077:7142  StructSignature[] memory objLincenses = _recordedLicenses[_owner] */\n      swap1\n        /* \"TokenSGTX/contracts/LicensesTaxs.sol\":7077:7114  StructSignature[] memory objLincenses */\n      dup5\n      swap1\n        /* \"TokenSGTX/contracts/LicensesTaxs.sol\":7077:7142  StructSignature[] memory objLincenses = _recordedLicenses[_owner] */\n      dup5\n      add\n    tag_361:\n      dup3\n      dup3\n      lt\n      iszero\n      tag_362\n      jumpi\n      dup4\n      dup3\n      swap1\n      0x00\n      mstore\n      keccak256(0x00, 0x20)\n      swap1\n      0x07\n      mul\n      add\n      mload(0x40)\n      dup1\n      0xe0\n      add\n      0x40\n      mstore\n      swap1\n      dup2\n      0x00\n      dup3\n      add\n      dup1\n      sload\n      tag_364\n      swap1\n      tag_142\n      jump\t// in\n    tag_364:\n      dup1\n      0x1f\n      add\n      0x20\n      dup1\n      swap2\n      div\n      mul\n      0x20\n      add\n      mload(0x40)\n      swap1\n      dup2\n      add\n      0x40\n      mstore\n      dup1\n      swap3\n      swap2\n      swap1\n      dup2\n      dup2\n      mstore\n      0x20\n      add\n      dup3\n      dup1\n      sload\n      tag_365\n      swap1\n      tag_142\n      jump\t// in\n    tag_365:\n      dup1\n      iszero\n      tag_366\n      jumpi\n      dup1\n      0x1f\n      lt\n      tag_367\n      jumpi\n      0x0100\n      dup1\n      dup4\n      sload\n      div\n      mul\n      dup4\n      mstore\n      swap2\n      0x20\n      add\n      swap2\n      jump(tag_366)\n    tag_367:\n      dup3\n      add\n      swap2\n      swap1\n      0x00\n      mstore\n      keccak256(0x00, 0x20)\n      swap1\n    tag_368:\n      dup2\n      sload\n      dup2\n      mstore\n      swap1\n      0x01\n      add\n      swap1\n      0x20\n      add\n      dup1\n      dup4\n      gt\n      tag_368\n      jumpi\n      dup3\n      swap1\n      sub\n      0x1f\n      and\n      dup3\n      add\n      swap2\n    tag_366:\n      pop\n      pop\n      pop\n      pop\n      pop\n      dup2\n      mstore\n      0x20\n      add\n      0x01\n      dup3\n      add\n      dup1\n      sload\n      tag_369\n      swap1\n      tag_142\n      jump\t// in\n    tag_369:\n      dup1\n      0x1f\n      add\n      0x20\n      dup1\n      swap2\n      div\n      mul\n      0x20\n      add\n      mload(0x40)\n      swap1\n      dup2\n      add\n      0x40\n      mstore\n      dup1\n      swap3\n      swap2\n      swap1\n      dup2\n      dup2\n      mstore\n      0x20\n      add\n      dup3\n      dup1\n      sload\n      tag_370\n      swap1\n      tag_142\n      jump\t// in\n    tag_370:\n      dup1\n      iszero\n      tag_371\n      jumpi\n      dup1\n      0x1f\n      lt\n      tag_372\n      jumpi\n      0x0100\n      dup1\n      dup4\n      sload\n      div\n      mul\n      dup4\n      mstore\n      swap2\n      0x20\n      add\n      swap2\n      jump(tag_371)\n    tag_372:\n      dup3\n      add\n      swap2\n      swap1\n      0x00\n      mstore\n      keccak256(0x00, 0x20)\n      swap1\n    tag_373:\n      dup2\n      sload\n      dup2\n      mstore\n      swap1\n      0x01\n      add\n      swap1\n      0x20\n      add\n      dup1\n      dup4\n      gt\n      tag_373\n      jumpi\n      dup3\n      swap1\n      sub\n      0x1f\n      and\n      dup3\n      add\n      swap2\n    tag_371:\n      pop\n      pop\n      pop\n      swap2\n      dup4\n      mstore\n      pop\n      pop\n      0x02\n      dup3\n      add\n      sload\n      sub(shl(0xa0, 0x01), 0x01)\n      and\n      0x20\n      dup3\n      add\n      mstore\n      0x03\n      dup3\n      add\n      dup1\n      sload\n      0x40\n      swap1\n      swap3\n      add\n      swap2\n      tag_374\n      swap1\n      tag_142\n      jump\t// in\n    tag_374:\n      dup1\n      0x1f\n      add\n      0x20\n      dup1\n      swap2\n      div\n      mul\n      0x20\n      add\n      mload(0x40)\n      swap1\n      dup2\n      add\n      0x40\n      mstore\n      dup1\n      swap3\n      swap2\n      swap1\n      dup2\n      dup2\n      mstore\n      0x20\n      add\n      dup3\n      dup1\n      sload\n      tag_375\n      swap1\n      tag_142\n      jump\t// in\n    tag_375:\n      dup1\n      iszero\n      tag_376\n      jumpi\n      dup1\n      0x1f\n      lt\n      tag_377\n      jumpi\n      0x0100\n      dup1\n      dup4\n      sload\n      div\n      mul\n      dup4\n      mstore\n      swap2\n      0x20\n      add\n      swap2\n      jump(tag_376)\n    tag_377:\n      dup3\n      add\n      swap2\n      swap1\n      0x00\n      mstore\n      keccak256(0x00, 0x20)\n      swap1\n    tag_378:\n      dup2\n      sload\n      dup2\n      mstore\n      swap1\n      0x01\n      add\n      swap1\n      0x20\n      add\n      dup1\n      dup4\n      gt\n      tag_378\n      jumpi\n      dup3\n      swap1\n      sub\n      0x1f\n      and\n      dup3\n      add\n      swap2\n    tag_376:\n      pop\n      pop\n      pop\n      swap2\n      dup4\n      mstore\n      pop\n      pop\n      0x04\n      dup3\n      add\n      sload\n      sub(shl(0xa0, 0x01), 0x01)\n      and\n      0x20\n      dup1\n      dup4\n      add\n      swap2\n      swap1\n      swap2\n      mstore\n      0x05\n      dup4\n      add\n      sload\n      0x40\n      dup4\n      add\n      mstore\n      0x06\n      swap1\n      swap3\n      add\n      sload\n      0xff\n      and\n      iszero\n      iszero\n      0x60\n      swap1\n      swap2\n      add\n      mstore\n      swap1\n      dup3\n      mstore\n      0x01\n      swap3\n      swap1\n      swap3\n      add\n      swap2\n      add\n      jump(tag_361)\n    tag_362:\n      pop\n      pop\n      pop\n      pop\n      swap1\n      pop\n        /* \"TokenSGTX/contracts/LicensesTaxs.sol\":7159:7168  uint256 i */\n      0x00\n        /* \"TokenSGTX/contracts/LicensesTaxs.sol\":7154:7326  for (uint256 i = 0; i < objLincenses.length; i++) {... */\n    tag_379:\n        /* \"TokenSGTX/contracts/LicensesTaxs.sol\":7178:7190  objLincenses */\n      dup2\n        /* \"TokenSGTX/contracts/LicensesTaxs.sol\":7178:7197  objLincenses.length */\n      mload\n        /* \"TokenSGTX/contracts/LicensesTaxs.sol\":7174:7175  i */\n      dup2\n        /* \"TokenSGTX/contracts/LicensesTaxs.sol\":7174:7197  i < objLincenses.length */\n      lt\n        /* \"TokenSGTX/contracts/LicensesTaxs.sol\":7154:7326  for (uint256 i = 0; i < objLincenses.length; i++) {... */\n      iszero\n      tag_380\n      jumpi\n        /* \"TokenSGTX/contracts/LicensesTaxs.sol\":7252:7256  sign */\n      dup4\n        /* \"TokenSGTX/contracts/LicensesTaxs.sol\":7223:7235  objLincenses */\n      dup3\n        /* \"TokenSGTX/contracts/LicensesTaxs.sol\":7236:7237  i */\n      dup3\n        /* \"TokenSGTX/contracts/LicensesTaxs.sol\":7223:7238  objLincenses[i] */\n      dup2\n      mload\n      dup2\n      lt\n      tag_383\n      jumpi\n      tag_383\n      tag_340\n      jump\t// in\n    tag_383:\n      0x20\n      mul\n      0x20\n      add\n      add\n      mload\n        /* \"TokenSGTX/contracts/LicensesTaxs.sol\":7223:7248  objLincenses[i].signature */\n      0xa0\n      add\n      mload\n        /* \"TokenSGTX/contracts/LicensesTaxs.sol\":7223:7256  objLincenses[i].signature == sign */\n      sub\n        /* \"TokenSGTX/contracts/LicensesTaxs.sol\":7219:7315  if (objLincenses[i].signature == sign) {... */\n      tag_384\n      jumpi\n        /* \"TokenSGTX/contracts/LicensesTaxs.sol\":7284:7296  objLincenses */\n      dup2\n        /* \"TokenSGTX/contracts/LicensesTaxs.sol\":7297:7298  i */\n      dup2\n        /* \"TokenSGTX/contracts/LicensesTaxs.sol\":7284:7299  objLincenses[i] */\n      dup2\n      mload\n      dup2\n      lt\n      tag_386\n      jumpi\n      tag_386\n      tag_340\n      jump\t// in\n    tag_386:\n      0x20\n      mul\n      0x20\n      add\n      add\n      mload\n        /* \"TokenSGTX/contracts/LicensesTaxs.sol\":7277:7299  return objLincenses[i] */\n      swap3\n      pop\n      pop\n      pop\n      jump(tag_165)\n        /* \"TokenSGTX/contracts/LicensesTaxs.sol\":7219:7315  if (objLincenses[i].signature == sign) {... */\n    tag_384:\n        /* \"TokenSGTX/contracts/LicensesTaxs.sol\":7199:7202  i++ */\n      dup1\n      tag_387\n      dup2\n      tag_346\n      jump\t// in\n    tag_387:\n      swap2\n      pop\n      pop\n        /* \"TokenSGTX/contracts/LicensesTaxs.sol\":7154:7326  for (uint256 i = 0; i < objLincenses.length; i++) {... */\n      jump(tag_379)\n    tag_380:\n      pop\n        /* \"TokenSGTX/contracts/LicensesTaxs.sol\":7066:7333  {... */\n      pop\n        /* \"TokenSGTX/contracts/LicensesTaxs.sol\":6952:7333  function getExpiredLicense(address _owner , bytes32 sign) public payable isOwner returns (StructSignature memory) {... */\n      swap3\n      swap2\n      pop\n      pop\n      jump\t// out\n        /* \"TokenSGTX/contracts/LicensesTaxs.sol\":3860:4226  function singLicense(... */\n    tag_206:\n        /* \"TokenSGTX/contracts/LicensesTaxs.sol\":9459:9464  owner */\n      sload(0x08)\n        /* \"TokenSGTX/contracts/LicensesTaxs.sol\":4073:4080  bytes32 */\n      0x00\n      swap1\n      sub(shl(0xa0, 0x01), 0x01)\n        /* \"TokenSGTX/contracts/LicensesTaxs.sol\":9459:9464  owner */\n      and\n        /* \"TokenSGTX/contracts/LicensesTaxs.sol\":9445:9455  msg.sender */\n      caller\n        /* \"TokenSGTX/contracts/LicensesTaxs.sol\":9445:9464  msg.sender == owner */\n      eq\n        /* \"TokenSGTX/contracts/LicensesTaxs.sol\":9437:9492  require(msg.sender == owner, \"Only Owner can activate\") */\n      tag_389\n      jumpi\n      mload(0x40)\n      shl(0xe5, 0x461bcd)\n      dup2\n      mstore\n      0x04\n      add\n      tag_166\n      swap1\n      tag_171\n      jump\t// in\n    tag_389:\n        /* \"TokenSGTX/contracts/LicensesTaxs.sol\":4152:4160  _consept */\n      dup6\n        /* \"TokenSGTX/contracts/LicensesTaxs.sol\":4162:4173  _identifier */\n      dup6\n        /* \"TokenSGTX/contracts/LicensesTaxs.sol\":4175:4184  _taxPayer */\n      dup6\n        /* \"TokenSGTX/contracts/LicensesTaxs.sol\":4186:4191  _data */\n      dup6\n        /* \"TokenSGTX/contracts/LicensesTaxs.sol\":4193:4202  _aprrover */\n      dup6\n        /* \"TokenSGTX/contracts/LicensesTaxs.sol\":4141:4203  abi.encode(_consept, _identifier, _taxPayer, _data, _aprrover) */\n      add(0x20, mload(0x40))\n      tag_392\n      swap6\n      swap5\n      swap4\n      swap3\n      swap2\n      swap1\n      tag_393\n      jump\t// in\n    tag_392:\n      mload(0x40)\n      0x20\n      dup2\n      dup4\n      sub\n      sub\n      dup2\n      mstore\n      swap1\n      0x40\n      mstore\n        /* \"TokenSGTX/contracts/LicensesTaxs.sol\":4113:4218  keccak256(... */\n      dup1\n      mload\n      swap1\n      0x20\n      add\n      keccak256\n        /* \"TokenSGTX/contracts/LicensesTaxs.sol\":4093:4218  return... */\n      swap1\n      pop\n        /* \"TokenSGTX/contracts/LicensesTaxs.sol\":3860:4226  function singLicense(... */\n      swap6\n      swap5\n      pop\n      pop\n      pop\n      pop\n      pop\n      jump\t// out\n        /* \"TokenSGTX/contracts/LicensesTaxs.sol\":4234:5206  function _checkLicense(... */\n    tag_305:\n        /* \"TokenSGTX/contracts/LicensesTaxs.sol\":9459:9464  owner */\n      sload(0x08)\n        /* \"TokenSGTX/contracts/LicensesTaxs.sol\":4337:4341  bool */\n      0x00\n      swap1\n      sub(shl(0xa0, 0x01), 0x01)\n        /* \"TokenSGTX/contracts/LicensesTaxs.sol\":9459:9464  owner */\n      and\n        /* \"TokenSGTX/contracts/LicensesTaxs.sol\":9445:9455  msg.sender */\n      caller\n        /* \"TokenSGTX/contracts/LicensesTaxs.sol\":9445:9464  msg.sender == owner */\n      eq\n        /* \"TokenSGTX/contracts/LicensesTaxs.sol\":9437:9492  require(msg.sender == owner, \"Only Owner can activate\") */\n      tag_395\n      jumpi\n      mload(0x40)\n      shl(0xe5, 0x461bcd)\n      dup2\n      mstore\n      0x04\n      add\n      tag_166\n      swap1\n      tag_171\n      jump\t// in\n    tag_395:\n        /* \"TokenSGTX/contracts/LicensesTaxs.sol\":4422:4446  _objectLicense.signature */\n      0xa0\n      dup3\n      add\n      mload\n        /* \"TokenSGTX/contracts/LicensesTaxs.sol\":4354:4387  StructSignature memory objlisense */\n      0x00\n        /* \"TokenSGTX/contracts/LicensesTaxs.sol\":4390:4457  _signatureEnabled[... */\n      swap1\n      dup2\n      mstore\n      0x20\n      dup2\n      swap1\n      mstore\n      0x40\n      dup1\n      dup3\n      keccak256\n        /* \"TokenSGTX/contracts/LicensesTaxs.sol\":4354:4457  StructSignature memory objlisense = _signatureEnabled[... */\n      dup2\n      mload\n      0xe0\n      dup2\n      add\n      swap1\n      swap3\n      mstore\n      dup1\n      sload\n      dup3\n      swap1\n        /* \"TokenSGTX/contracts/LicensesTaxs.sol\":4390:4457  _signatureEnabled[... */\n      dup3\n      swap1\n        /* \"TokenSGTX/contracts/LicensesTaxs.sol\":4354:4457  StructSignature memory objlisense = _signatureEnabled[... */\n      tag_398\n      swap1\n      tag_142\n      jump\t// in\n    tag_398:\n      dup1\n      0x1f\n      add\n      0x20\n      dup1\n      swap2\n      div\n      mul\n      0x20\n      add\n      mload(0x40)\n      swap1\n      dup2\n      add\n      0x40\n      mstore\n      dup1\n      swap3\n      swap2\n      swap1\n      dup2\n      dup2\n      mstore\n      0x20\n      add\n      dup3\n      dup1\n      sload\n      tag_399\n      swap1\n      tag_142\n      jump\t// in\n    tag_399:\n      dup1\n      iszero\n      tag_400\n      jumpi\n      dup1\n      0x1f\n      lt\n      tag_401\n      jumpi\n      0x0100\n      dup1\n      dup4\n      sload\n      div\n      mul\n      dup4\n      mstore\n      swap2\n      0x20\n      add\n      swap2\n      jump(tag_400)\n    tag_401:\n      dup3\n      add\n      swap2\n      swap1\n      0x00\n      mstore\n      keccak256(0x00, 0x20)\n      swap1\n    tag_402:\n      dup2\n      sload\n      dup2\n      mstore\n      swap1\n      0x01\n      add\n      swap1\n      0x20\n      add\n      dup1\n      dup4\n      gt\n      tag_402\n      jumpi\n      dup3\n      swap1\n      sub\n      0x1f\n      and\n      dup3\n      add\n      swap2\n    tag_400:\n      pop\n      pop\n      pop\n      pop\n      pop\n      dup2\n      mstore\n      0x20\n      add\n      0x01\n      dup3\n      add\n      dup1\n      sload\n      tag_403\n      swap1\n      tag_142\n      jump\t// in\n    tag_403:\n      dup1\n      0x1f\n      add\n      0x20\n      dup1\n      swap2\n      div\n      mul\n      0x20\n      add\n      mload(0x40)\n      swap1\n      dup2\n      add\n      0x40\n      mstore\n      dup1\n      swap3\n      swap2\n      swap1\n      dup2\n      dup2\n      mstore\n      0x20\n      add\n      dup3\n      dup1\n      sload\n      tag_404\n      swap1\n      tag_142\n      jump\t// in\n    tag_404:\n      dup1\n      iszero\n      tag_405\n      jumpi\n      dup1\n      0x1f\n      lt\n      tag_406\n      jumpi\n      0x0100\n      dup1\n      dup4\n      sload\n      div\n      mul\n      dup4\n      mstore\n      swap2\n      0x20\n      add\n      swap2\n      jump(tag_405)\n    tag_406:\n      dup3\n      add\n      swap2\n      swap1\n      0x00\n      mstore\n      keccak256(0x00, 0x20)\n      swap1\n    tag_407:\n      dup2\n      sload\n      dup2\n      mstore\n      swap1\n      0x01\n      add\n      swap1\n      0x20\n      add\n      dup1\n      dup4\n      gt\n      tag_407\n      jumpi\n      dup3\n      swap1\n      sub\n      0x1f\n      and\n      dup3\n      add\n      swap2\n    tag_405:\n      pop\n      pop\n      pop\n      swap2\n      dup4\n      mstore\n      pop\n      pop\n      0x02\n      dup3\n      add\n      sload\n      sub(shl(0xa0, 0x01), 0x01)\n      and\n      0x20\n      dup3\n      add\n      mstore\n      0x03\n      dup3\n      add\n      dup1\n      sload\n      0x40\n      swap1\n      swap3\n      add\n      swap2\n      tag_408\n      swap1\n      tag_142\n      jump\t// in\n    tag_408:\n      dup1\n      0x1f\n      add\n      0x20\n      dup1\n      swap2\n      div\n      mul\n      0x20\n      add\n      mload(0x40)\n      swap1\n      dup2\n      add\n      0x40\n      mstore\n      dup1\n      swap3\n      swap2\n      swap1\n      dup2\n      dup2\n      mstore\n      0x20\n      add\n      dup3\n      dup1\n      sload\n      tag_409\n      swap1\n      tag_142\n      jump\t// in\n    tag_409:\n      dup1\n      iszero\n      tag_410\n      jumpi\n      dup1\n      0x1f\n      lt\n      tag_411\n      jumpi\n      0x0100\n      dup1\n      dup4\n      sload\n      div\n      mul\n      dup4\n      mstore\n      swap2\n      0x20\n      add\n      swap2\n      jump(tag_410)\n    tag_411:\n      dup3\n      add\n      swap2\n      swap1\n      0x00\n      mstore\n      keccak256(0x00, 0x20)\n      swap1\n    tag_412:\n      dup2\n      sload\n      dup2\n      mstore\n      swap1\n      0x01\n      add\n      swap1\n      0x20\n      add\n      dup1\n      dup4\n      gt\n      tag_412\n      jumpi\n      dup3\n      swap1\n      sub\n      0x1f\n      and\n      dup3\n      add\n      swap2\n    tag_410:\n      pop\n      pop\n      pop\n      swap2\n      dup4\n      mstore\n      pop\n      pop\n      0x04\n      dup3\n      add\n      sload\n      sub(shl(0xa0, 0x01), 0x01)\n      and\n      0x20\n      dup3\n      add\n      mstore\n      0x05\n      dup3\n      add\n      sload\n      0x40\n      dup3\n      add\n      mstore\n      0x06\n      swap1\n      swap2\n      add\n      sload\n      0xff\n      and\n      iszero\n      iszero\n      0x60\n      swap1\n      swap2\n      add\n      mstore\n        /* \"TokenSGTX/contracts/LicensesTaxs.sol\":4474:4493  objlisense.isEntity */\n      0xc0\n      dup2\n      add\n      mload\n        /* \"TokenSGTX/contracts/LicensesTaxs.sol\":4354:4457  StructSignature memory objlisense = _signatureEnabled[... */\n      swap1\n      swap2\n      pop\n        /* \"TokenSGTX/contracts/LicensesTaxs.sol\":4474:4501  objlisense.isEntity == true */\n      iszero\n      iszero\n        /* \"TokenSGTX/contracts/LicensesTaxs.sol\":4354:4457  StructSignature memory objlisense = _signatureEnabled[... */\n      0x01\n        /* \"TokenSGTX/contracts/LicensesTaxs.sol\":4474:4501  objlisense.isEntity == true */\n      sub\n        /* \"TokenSGTX/contracts/LicensesTaxs.sol\":4470:4561  if (objlisense.isEntity == true) {... */\n      tag_413\n      jumpi\n        /* \"TokenSGTX/contracts/LicensesTaxs.sol\":4518:4549  revert(\"License Alredy Exists\") */\n      mload(0x40)\n      shl(0xe5, 0x461bcd)\n      dup2\n      mstore\n        /* \"#utility.yul\":15917:15919   */\n      0x20\n        /* \"TokenSGTX/contracts/LicensesTaxs.sol\":4518:4549  revert(\"License Alredy Exists\") */\n      0x04\n      dup3\n      add\n        /* \"#utility.yul\":15899:15920   */\n      mstore\n        /* \"#utility.yul\":15956:15958   */\n      0x15\n        /* \"#utility.yul\":15936:15954   */\n      0x24\n      dup3\n      add\n        /* \"#utility.yul\":15929:15959   */\n      mstore\n      shl(0x58, 0x4c6963656e736520416c7265647920457869737473)\n        /* \"#utility.yul\":15975:15993   */\n      0x44\n      dup3\n      add\n        /* \"#utility.yul\":15968:16019   */\n      mstore\n        /* \"#utility.yul\":16036:16054   */\n      0x64\n      add\n        /* \"TokenSGTX/contracts/LicensesTaxs.sol\":4518:4549  revert(\"License Alredy Exists\") */\n      tag_166\n        /* \"#utility.yul\":15715:16060   */\n      jump\n        /* \"TokenSGTX/contracts/LicensesTaxs.sol\":4470:4561  if (objlisense.isEntity == true) {... */\n    tag_413:\n        /* \"TokenSGTX/contracts/LicensesTaxs.sol\":4638:4658  _objectLicense.owner */\n      0x40\n      dup1\n      dup5\n      add\n      mload\n      sub(shl(0xa0, 0x01), 0x01)\n        /* \"TokenSGTX/contracts/LicensesTaxs.sol\":4613:4669  _userSings[... */\n      and\n        /* \"TokenSGTX/contracts/LicensesTaxs.sol\":4573:4610  bytes32[] memory ownersClientLicenses */\n      0x00\n        /* \"TokenSGTX/contracts/LicensesTaxs.sol\":4613:4669  _userSings[... */\n      swap1\n      dup2\n      mstore\n        /* \"TokenSGTX/contracts/LicensesTaxs.sol\":4613:4623  _userSings */\n      0x01\n        /* \"TokenSGTX/contracts/LicensesTaxs.sol\":4613:4669  _userSings[... */\n      0x20\n      swap1\n      dup2\n      mstore\n      dup3\n      dup3\n      keccak256\n        /* \"TokenSGTX/contracts/LicensesTaxs.sol\":4573:4669  bytes32[] memory ownersClientLicenses = _userSings[... */\n      dup1\n      sload\n      dup5\n      mload\n      dup2\n      dup5\n      mul\n      dup2\n      add\n      dup5\n      add\n      swap1\n      swap6\n      mstore\n      dup1\n      dup6\n      mstore\n        /* \"TokenSGTX/contracts/LicensesTaxs.sol\":4573:4610  bytes32[] memory ownersClientLicenses */\n      swap3\n      swap4\n        /* \"TokenSGTX/contracts/LicensesTaxs.sol\":4573:4669  bytes32[] memory ownersClientLicenses = _userSings[... */\n      swap3\n        /* \"TokenSGTX/contracts/LicensesTaxs.sol\":4613:4669  _userSings[... */\n      swap1\n      swap2\n        /* \"TokenSGTX/contracts/LicensesTaxs.sol\":4573:4669  bytes32[] memory ownersClientLicenses = _userSings[... */\n      dup4\n      add\n        /* \"TokenSGTX/contracts/LicensesTaxs.sol\":4613:4669  _userSings[... */\n      dup3\n        /* \"TokenSGTX/contracts/LicensesTaxs.sol\":4573:4669  bytes32[] memory ownersClientLicenses = _userSings[... */\n      dup3\n      dup1\n      iszero\n      tag_416\n      jumpi\n      0x20\n      mul\n      dup3\n      add\n      swap2\n      swap1\n      0x00\n      mstore\n      keccak256(0x00, 0x20)\n      swap1\n    tag_417:\n      dup2\n      sload\n      dup2\n      mstore\n      0x20\n      add\n      swap1\n      0x01\n      add\n      swap1\n      dup1\n      dup4\n      gt\n      tag_417\n      jumpi\n    tag_416:\n      pop\n      pop\n      pop\n      pop\n      pop\n      swap1\n      pop\n        /* \"TokenSGTX/contracts/LicensesTaxs.sol\":4685:4694  uint256 i */\n      0x00\n        /* \"TokenSGTX/contracts/LicensesTaxs.sol\":4680:5132  for (uint256 i = 0; i < ownersClientLicenses.length; i++) {... */\n    tag_418:\n        /* \"TokenSGTX/contracts/LicensesTaxs.sol\":4704:4724  ownersClientLicenses */\n      dup2\n        /* \"TokenSGTX/contracts/LicensesTaxs.sol\":4704:4731  ownersClientLicenses.length */\n      mload\n        /* \"TokenSGTX/contracts/LicensesTaxs.sol\":4700:4701  i */\n      dup2\n        /* \"TokenSGTX/contracts/LicensesTaxs.sol\":4700:4731  i < ownersClientLicenses.length */\n      lt\n        /* \"TokenSGTX/contracts/LicensesTaxs.sol\":4680:5132  for (uint256 i = 0; i < ownersClientLicenses.length; i++) {... */\n      iszero\n      tag_419\n      jumpi\n        /* \"TokenSGTX/contracts/LicensesTaxs.sol\":4766:4783  _signatureEnabled */\n      0x00\n        /* \"TokenSGTX/contracts/LicensesTaxs.sol\":4766:4808  _signatureEnabled[ownersClientLicenses[i]] */\n      dup1\n        /* \"TokenSGTX/contracts/LicensesTaxs.sol\":4784:4804  ownersClientLicenses */\n      dup4\n        /* \"TokenSGTX/contracts/LicensesTaxs.sol\":4805:4806  i */\n      dup4\n        /* \"TokenSGTX/contracts/LicensesTaxs.sol\":4784:4807  ownersClientLicenses[i] */\n      dup2\n      mload\n      dup2\n      lt\n      tag_422\n      jumpi\n      tag_422\n      tag_340\n      jump\t// in\n    tag_422:\n      0x20\n      mul\n      0x20\n      add\n      add\n      mload\n        /* \"TokenSGTX/contracts/LicensesTaxs.sol\":4766:4808  _signatureEnabled[ownersClientLicenses[i]] */\n      dup2\n      mstore\n      0x20\n      add\n      swap1\n      dup2\n      mstore\n      0x20\n      add\n      0x00\n      keccak256\n        /* \"TokenSGTX/contracts/LicensesTaxs.sol\":4753:4808  objlisense = _signatureEnabled[ownersClientLicenses[i]] */\n      mload(0x40)\n      dup1\n      0xe0\n      add\n      0x40\n      mstore\n      swap1\n      dup2\n      0x00\n      dup3\n      add\n      dup1\n      sload\n      tag_423\n      swap1\n      tag_142\n      jump\t// in\n    tag_423:\n      dup1\n      0x1f\n      add\n      0x20\n      dup1\n      swap2\n      div\n      mul\n      0x20\n      add\n      mload(0x40)\n      swap1\n      dup2\n      add\n      0x40\n      mstore\n      dup1\n      swap3\n      swap2\n      swap1\n      dup2\n      dup2\n      mstore\n      0x20\n      add\n      dup3\n      dup1\n      sload\n      tag_424\n      swap1\n      tag_142\n      jump\t// in\n    tag_424:\n      dup1\n      iszero\n      tag_425\n      jumpi\n      dup1\n      0x1f\n      lt\n      tag_426\n      jumpi\n      0x0100\n      dup1\n      dup4\n      sload\n      div\n      mul\n      dup4\n      mstore\n      swap2\n      0x20\n      add\n      swap2\n      jump(tag_425)\n    tag_426:\n      dup3\n      add\n      swap2\n      swap1\n      0x00\n      mstore\n      keccak256(0x00, 0x20)\n      swap1\n    tag_427:\n      dup2\n      sload\n      dup2\n      mstore\n      swap1\n      0x01\n      add\n      swap1\n      0x20\n      add\n      dup1\n      dup4\n      gt\n      tag_427\n      jumpi\n      dup3\n      swap1\n      sub\n      0x1f\n      and\n      dup3\n      add\n      swap2\n    tag_425:\n      pop\n      pop\n      pop\n      pop\n      pop\n      dup2\n      mstore\n      0x20\n      add\n      0x01\n      dup3\n      add\n      dup1\n      sload\n      tag_428\n      swap1\n      tag_142\n      jump\t// in\n    tag_428:\n      dup1\n      0x1f\n      add\n      0x20\n      dup1\n      swap2\n      div\n      mul\n      0x20\n      add\n      mload(0x40)\n      swap1\n      dup2\n      add\n      0x40\n      mstore\n      dup1\n      swap3\n      swap2\n      swap1\n      dup2\n      dup2\n      mstore\n      0x20\n      add\n      dup3\n      dup1\n      sload\n      tag_429\n      swap1\n      tag_142\n      jump\t// in\n    tag_429:\n      dup1\n      iszero\n      tag_430\n      jumpi\n      dup1\n      0x1f\n      lt\n      tag_431\n      jumpi\n      0x0100\n      dup1\n      dup4\n      sload\n      div\n      mul\n      dup4\n      mstore\n      swap2\n      0x20\n      add\n      swap2\n      jump(tag_430)\n    tag_431:\n      dup3\n      add\n      swap2\n      swap1\n      0x00\n      mstore\n      keccak256(0x00, 0x20)\n      swap1\n    tag_432:\n      dup2\n      sload\n      dup2\n      mstore\n      swap1\n      0x01\n      add\n      swap1\n      0x20\n      add\n      dup1\n      dup4\n      gt\n      tag_432\n      jumpi\n      dup3\n      swap1\n      sub\n      0x1f\n      and\n      dup3\n      add\n      swap2\n    tag_430:\n      pop\n      pop\n      pop\n      swap2\n      dup4\n      mstore\n      pop\n      pop\n      0x02\n      dup3\n      add\n      sload\n      sub(shl(0xa0, 0x01), 0x01)\n      and\n      0x20\n      dup3\n      add\n      mstore\n      0x03\n      dup3\n      add\n      dup1\n      sload\n      0x40\n      swap1\n      swap3\n      add\n      swap2\n      tag_433\n      swap1\n      tag_142\n      jump\t// in\n    tag_433:\n      dup1\n      0x1f\n      add\n      0x20\n      dup1\n      swap2\n      div\n      mul\n      0x20\n      add\n      mload(0x40)\n      swap1\n      dup2\n      add\n      0x40\n      mstore\n      dup1\n      swap3\n      swap2\n      swap1\n      dup2\n      dup2\n      mstore\n      0x20\n      add\n      dup3\n      dup1\n      sload\n      tag_434\n      swap1\n      tag_142\n      jump\t// in\n    tag_434:\n      dup1\n      iszero\n      tag_435\n      jumpi\n      dup1\n      0x1f\n      lt\n      tag_436\n      jumpi\n      0x0100\n      dup1\n      dup4\n      sload\n      div\n      mul\n      dup4\n      mstore\n      swap2\n      0x20\n      add\n      swap2\n      jump(tag_435)\n    tag_436:\n      dup3\n      add\n      swap2\n      swap1\n      0x00\n      mstore\n      keccak256(0x00, 0x20)\n      swap1\n    tag_437:\n      dup2\n      sload\n      dup2\n      mstore\n      swap1\n      0x01\n      add\n      swap1\n      0x20\n      add\n      dup1\n      dup4\n      gt\n      tag_437\n      jumpi\n      dup3\n      swap1\n      sub\n      0x1f\n      and\n      dup3\n      add\n      swap2\n    tag_435:\n      pop\n      pop\n      pop\n      swap2\n      dup4\n      mstore\n      pop\n      pop\n      0x04\n      dup3\n      add\n      sload\n      sub(shl(0xa0, 0x01), 0x01)\n      and\n      0x20\n      dup1\n      dup4\n      add\n      swap2\n      swap1\n      swap2\n      mstore\n      0x05\n      dup4\n      add\n      sload\n      0x40\n      dup4\n      add\n      mstore\n      0x06\n      swap1\n      swap3\n      add\n      sload\n      0xff\n      and\n      iszero\n      iszero\n      0x60\n      swap1\n      swap2\n      add\n      mstore\n        /* \"TokenSGTX/contracts/LicensesTaxs.sol\":4921:4946  _objectLicense.identifier */\n      dup7\n      dup2\n      add\n      mload\n        /* \"TokenSGTX/contracts/LicensesTaxs.sol\":4905:4948  keccak256(bytes(_objectLicense.identifier)) */\n      dup1\n      mload\n      swap1\n      dup3\n      add\n      keccak256\n        /* \"TokenSGTX/contracts/LicensesTaxs.sol\":4861:4882  objlisense.identifier */\n      dup3\n      dup3\n      add\n      mload\n        /* \"TokenSGTX/contracts/LicensesTaxs.sol\":4845:4884  keccak256(bytes(objlisense.identifier)) */\n      dup1\n      mload\n      swap3\n      add\n      swap2\n      swap1\n      swap2\n      keccak256\n        /* \"TokenSGTX/contracts/LicensesTaxs.sol\":4753:4808  objlisense = _signatureEnabled[ownersClientLicenses[i]] */\n      swap2\n      swap5\n      pop\n        /* \"TokenSGTX/contracts/LicensesTaxs.sol\":4845:4948  keccak256(bytes(objlisense.identifier)) ==... */\n      swap1\n      sub\n        /* \"TokenSGTX/contracts/LicensesTaxs.sol\":4823:5121  if (... */\n      tag_438\n      jumpi\n        /* \"TokenSGTX/contracts/LicensesTaxs.sol\":4983:5044  _deleteLicense(ownersClientLicenses[i], _objectLicense.owner) */\n      tag_439\n        /* \"TokenSGTX/contracts/LicensesTaxs.sol\":4998:5018  ownersClientLicenses */\n      dup3\n        /* \"TokenSGTX/contracts/LicensesTaxs.sol\":5019:5020  i */\n      dup3\n        /* \"TokenSGTX/contracts/LicensesTaxs.sol\":4998:5021  ownersClientLicenses[i] */\n      dup2\n      mload\n      dup2\n      lt\n      tag_441\n      jumpi\n      tag_441\n      tag_340\n      jump\t// in\n    tag_441:\n      0x20\n      mul\n      0x20\n      add\n      add\n      mload\n        /* \"TokenSGTX/contracts/LicensesTaxs.sol\":5023:5037  _objectLicense */\n      dup7\n        /* \"TokenSGTX/contracts/LicensesTaxs.sol\":5023:5043  _objectLicense.owner */\n      0x40\n      add\n      mload\n        /* \"TokenSGTX/contracts/LicensesTaxs.sol\":4983:4997  _deleteLicense */\n      tag_330\n        /* \"TokenSGTX/contracts/LicensesTaxs.sol\":4983:5044  _deleteLicense(ownersClientLicenses[i], _objectLicense.owner) */\n      jump\t// in\n    tag_439:\n        /* \"TokenSGTX/contracts/LicensesTaxs.sol\":5081:5101  _objectLicense.owner */\n      0x40\n      dup1\n      dup7\n      add\n      mload\n      sub(shl(0xa0, 0x01), 0x01)\n        /* \"TokenSGTX/contracts/LicensesTaxs.sol\":5070:5102  _userSings[_objectLicense.owner] */\n      and\n      0x00\n      swap1\n      dup2\n      mstore\n        /* \"TokenSGTX/contracts/LicensesTaxs.sol\":5070:5080  _userSings */\n      0x01\n        /* \"TokenSGTX/contracts/LicensesTaxs.sol\":5070:5102  _userSings[_objectLicense.owner] */\n      0x20\n      mstore\n      keccak256\n        /* \"TokenSGTX/contracts/LicensesTaxs.sol\":5070:5105  _userSings[_objectLicense.owner][i] */\n      dup1\n      sload\n        /* \"TokenSGTX/contracts/LicensesTaxs.sol\":5103:5104  i */\n      dup3\n      swap1\n        /* \"TokenSGTX/contracts/LicensesTaxs.sol\":5070:5105  _userSings[_objectLicense.owner][i] */\n      dup2\n      lt\n      tag_443\n      jumpi\n      tag_443\n      tag_340\n      jump\t// in\n    tag_443:\n      0x00\n      swap2\n      dup3\n      mstore\n      0x20\n      dup3\n      keccak256\n      add\n        /* \"TokenSGTX/contracts/LicensesTaxs.sol\":5063:5105  delete _userSings[_objectLicense.owner][i] */\n      sstore\n        /* \"TokenSGTX/contracts/LicensesTaxs.sol\":4823:5121  if (... */\n    tag_438:\n        /* \"TokenSGTX/contracts/LicensesTaxs.sol\":4733:4736  i++ */\n      dup1\n      tag_445\n      dup2\n      tag_346\n      jump\t// in\n    tag_445:\n      swap2\n      pop\n      pop\n        /* \"TokenSGTX/contracts/LicensesTaxs.sol\":4680:5132  for (uint256 i = 0; i < ownersClientLicenses.length; i++) {... */\n      jump(tag_418)\n    tag_419:\n      pop\n        /* \"TokenSGTX/contracts/LicensesTaxs.sol\":5144:5174  _createLicense(_objectLicense) */\n      tag_446\n        /* \"TokenSGTX/contracts/LicensesTaxs.sol\":5159:5173  _objectLicense */\n      dup5\n        /* \"TokenSGTX/contracts/LicensesTaxs.sol\":5144:5158  _createLicense */\n      tag_447\n        /* \"TokenSGTX/contracts/LicensesTaxs.sol\":5144:5174  _createLicense(_objectLicense) */\n      jump\t// in\n    tag_446:\n      pop\n        /* \"TokenSGTX/contracts/LicensesTaxs.sol\":5194:5198  true */\n      0x01\n      swap4\n        /* \"TokenSGTX/contracts/LicensesTaxs.sol\":4234:5206  function _checkLicense(... */\n      swap3\n      pop\n      pop\n      pop\n      jump\t// out\n        /* \"TokenSGTX/contracts/LicensesTaxs.sol\":6068:6240  function _deleteLicense(bytes32 sing, address _owner) private isAdmin() {... */\n    tag_330:\n        /* \"TokenSGTX/contracts/LicensesTaxs.sol\":9566:9576  msg.sender */\n      caller\n        /* \"TokenSGTX/contracts/LicensesTaxs.sol\":9558:9577  _admins[msg.sender] */\n      0x00\n      swap1\n      dup2\n      mstore\n        /* \"TokenSGTX/contracts/LicensesTaxs.sol\":9558:9565  _admins */\n      0x04\n        /* \"TokenSGTX/contracts/LicensesTaxs.sol\":9558:9577  _admins[msg.sender] */\n      0x20\n      mstore\n      0x40\n      swap1\n      keccak256\n      sload\n      0xff\n      and\n        /* \"TokenSGTX/contracts/LicensesTaxs.sol\":9550:9578  require(_admins[msg.sender]) */\n      tag_449\n      jumpi\n      0x00\n      dup1\n      revert\n    tag_449:\n        /* \"TokenSGTX/contracts/LicensesTaxs.sol\":6158:6175  _signatureEnabled */\n      0x00\n        /* \"TokenSGTX/contracts/LicensesTaxs.sol\":6158:6181  _signatureEnabled[sing] */\n      dup3\n      dup2\n      mstore\n      0x20\n      dup2\n      swap1\n      mstore\n      0x40\n      dup2\n      keccak256\n      swap1\n        /* \"TokenSGTX/contracts/LicensesTaxs.sol\":6151:6181  delete _signatureEnabled[sing] */\n      tag_451\n        /* \"TokenSGTX/contracts/LicensesTaxs.sol\":6158:6181  _signatureEnabled[sing] */\n      dup3\n        /* \"TokenSGTX/contracts/LicensesTaxs.sol\":6158:6175  _signatureEnabled */\n      dup3\n        /* \"TokenSGTX/contracts/LicensesTaxs.sol\":6151:6181  delete _signatureEnabled[sing] */\n      tag_452\n      jump\t// in\n    tag_451:\n      tag_453\n      0x01\n      dup4\n      add\n      0x00\n      tag_452\n      jump\t// in\n    tag_453:\n      0x02\n      dup3\n      add\n      dup1\n      sload\n      not(sub(shl(0xa0, 0x01), 0x01))\n      and\n      swap1\n      sstore\n      tag_454\n      0x03\n      dup4\n      add\n      0x00\n      tag_452\n      jump\t// in\n    tag_454:\n      pop\n      0x04\n      dup2\n      add\n      dup1\n      sload\n      not(sub(shl(0xa0, 0x01), 0x01))\n      and\n      swap1\n      sstore\n      0x00\n      0x05\n      dup3\n      add\n      sstore\n      0x06\n      add\n      dup1\n      sload\n      not(0xff)\n      and\n      swap1\n      sstore\n        /* \"TokenSGTX/contracts/LicensesTaxs.sol\":6197:6232  eventSignatureExpired(_owner, sing) */\n      mload(0x40)\n        /* \"#utility.yul\":6711:6736   */\n      dup3\n      dup2\n      mstore\n      sub(shl(0xa0, 0x01), 0x01)\n        /* \"TokenSGTX/contracts/LicensesTaxs.sol\":6197:6232  eventSignatureExpired(_owner, sing) */\n      dup3\n      and\n      swap1\n      0xfba9aeb04fd7e91a1cb29583e8d8bb97d3874361cc1f0b29f6e33f6d3047d8cf\n      swap1\n        /* \"#utility.yul\":6699:6701   */\n      0x20\n        /* \"#utility.yul\":6684:6702   */\n      add\n        /* \"TokenSGTX/contracts/LicensesTaxs.sol\":6197:6232  eventSignatureExpired(_owner, sing) */\n      mload(0x40)\n      dup1\n      swap2\n      sub\n      swap1\n      log2\n        /* \"TokenSGTX/contracts/LicensesTaxs.sol\":6068:6240  function _deleteLicense(bytes32 sing, address _owner) private isAdmin() {... */\n      pop\n      pop\n      jump\t// out\n        /* \"TokenSGTX/contracts/LicensesTaxs.sol\":5707:6060  function _createLicense(StructSignature memory _objectLicense) private isOwner {... */\n    tag_447:\n        /* \"TokenSGTX/contracts/LicensesTaxs.sol\":9459:9464  owner */\n      and(sub(shl(0xa0, 0x01), 0x01), sload(0x08))\n        /* \"TokenSGTX/contracts/LicensesTaxs.sol\":9445:9455  msg.sender */\n      caller\n        /* \"TokenSGTX/contracts/LicensesTaxs.sol\":9445:9464  msg.sender == owner */\n      eq\n        /* \"TokenSGTX/contracts/LicensesTaxs.sol\":9437:9492  require(msg.sender == owner, \"Only Owner can activate\") */\n      tag_457\n      jumpi\n      mload(0x40)\n      shl(0xe5, 0x461bcd)\n      dup2\n      mstore\n      0x04\n      add\n      tag_166\n      swap1\n      tag_171\n      jump\t// in\n    tag_457:\n        /* \"TokenSGTX/contracts/LicensesTaxs.sol\":5815:5839  _objectLicense.signature */\n      0xa0\n      dup2\n      add\n      mload\n        /* \"TokenSGTX/contracts/LicensesTaxs.sol\":5797:5814  _signatureEnabled */\n      0x00\n        /* \"TokenSGTX/contracts/LicensesTaxs.sol\":5797:5840  _signatureEnabled[_objectLicense.signature] */\n      swap1\n      dup2\n      mstore\n      0x20\n      dup2\n      swap1\n      mstore\n      0x40\n      swap1\n      keccak256\n        /* \"TokenSGTX/contracts/LicensesTaxs.sol\":5797:5857  _signatureEnabled[_objectLicense.signature] = _objectLicense */\n      dup2\n      mload\n        /* \"TokenSGTX/contracts/LicensesTaxs.sol\":5843:5857  _objectLicense */\n      dup3\n      swap2\n        /* \"TokenSGTX/contracts/LicensesTaxs.sol\":5797:5840  _signatureEnabled[_objectLicense.signature] */\n      swap1\n      dup2\n      swap1\n        /* \"TokenSGTX/contracts/LicensesTaxs.sol\":5797:5857  _signatureEnabled[_objectLicense.signature] = _objectLicense */\n      tag_460\n      swap1\n        /* \"TokenSGTX/contracts/LicensesTaxs.sol\":5797:5840  _signatureEnabled[_objectLicense.signature] */\n      dup3\n        /* \"TokenSGTX/contracts/LicensesTaxs.sol\":5797:5857  _signatureEnabled[_objectLicense.signature] = _objectLicense */\n      tag_349\n      jump\t// in\n    tag_460:\n      pop\n      0x20\n      dup3\n      add\n      mload\n      0x01\n      dup3\n      add\n      swap1\n      tag_461\n      swap1\n      dup3\n      tag_349\n      jump\t// in\n    tag_461:\n      pop\n      0x40\n      dup3\n      add\n      mload\n      0x02\n      dup3\n      add\n      dup1\n      sload\n      not(sub(shl(0xa0, 0x01), 0x01))\n      and\n      sub(shl(0xa0, 0x01), 0x01)\n      swap1\n      swap3\n      and\n      swap2\n      swap1\n      swap2\n      or\n      swap1\n      sstore\n      0x60\n      dup3\n      add\n      mload\n      0x03\n      dup3\n      add\n      swap1\n      tag_462\n      swap1\n      dup3\n      tag_349\n      jump\t// in\n    tag_462:\n      pop\n      0x80\n      dup3\n      add\n      mload\n      0x04\n      dup3\n      add\n      dup1\n      sload\n      not(sub(shl(0xa0, 0x01), 0x01))\n      and\n      sub(shl(0xa0, 0x01), 0x01)\n      swap3\n      dup4\n      and\n      or\n      swap1\n      sstore\n      0xa0\n      dup1\n      dup5\n      add\n      mload\n      0x05\n      dup5\n      add\n      sstore\n      0xc0\n      swap1\n      swap4\n      add\n      mload\n      0x06\n      swap1\n      swap3\n      add\n      dup1\n      sload\n      not(0xff)\n      and\n      swap3\n      iszero\n      iszero\n      swap3\n      swap1\n      swap3\n      or\n      swap1\n      swap2\n      sstore\n        /* \"TokenSGTX/contracts/LicensesTaxs.sol\":5879:5899  _objectLicense.owner */\n      0x40\n      dup4\n      dup2\n      add\n      dup1\n      mload\n        /* \"TokenSGTX/contracts/LicensesTaxs.sol\":5868:5900  _userSings[_objectLicense.owner] */\n      dup4\n      and\n      0x00\n      swap1\n      dup2\n      mstore\n      0x01\n      0x20\n      dup2\n      dup2\n      mstore\n      dup5\n      dup4\n      keccak256\n        /* \"TokenSGTX/contracts/LicensesTaxs.sol\":5906:5930  _objectLicense.signature */\n      swap7\n      dup9\n      add\n      dup1\n      mload\n        /* \"TokenSGTX/contracts/LicensesTaxs.sol\":5868:5931  _userSings[_objectLicense.owner].push(_objectLicense.signature) */\n      dup9\n      sload\n      swap4\n      dup5\n      add\n      dup10\n      sstore\n      swap8\n      dup5\n      mstore\n      swap3\n      dup2\n      swap1\n      keccak256\n      swap1\n      swap2\n      add\n      swap6\n      swap1\n      swap6\n      sstore\n        /* \"TokenSGTX/contracts/LicensesTaxs.sol\":5982:6002  _objectLicense.owner */\n      swap1\n      mload\n        /* \"TokenSGTX/contracts/LicensesTaxs.sol\":6017:6041  _objectLicense.signature */\n      swap1\n      mload\n        /* \"TokenSGTX/contracts/LicensesTaxs.sol\":5947:6052  eventSignatureCreate(... */\n      swap2\n      mload\n        /* \"#utility.yul\":6711:6736   */\n      swap2\n      dup3\n      mstore\n        /* \"TokenSGTX/contracts/LicensesTaxs.sol\":5947:6052  eventSignatureCreate(... */\n      swap1\n      swap2\n      and\n      swap2\n      0x88b059e42378123793b6b50c667570312662bfbe8c07098828e5639754fa1e5b\n      swap2\n        /* \"#utility.yul\":6684:6702   */\n      add\n        /* \"TokenSGTX/contracts/LicensesTaxs.sol\":5947:6052  eventSignatureCreate(... */\n      mload(0x40)\n      dup1\n      swap2\n      sub\n      swap1\n      log2\n        /* \"TokenSGTX/contracts/LicensesTaxs.sol\":5707:6060  function _createLicense(StructSignature memory _objectLicense) private isOwner {... */\n      pop\n      jump\t// out\n    tag_148:\n      0x40\n      dup1\n      mload\n      0xe0\n      dup2\n      add\n      dup3\n      mstore\n      0x60\n      dup1\n      dup3\n      mstore\n      0x20\n      dup3\n      add\n      dup2\n      swap1\n      mstore\n      0x00\n      swap3\n      dup3\n      add\n      dup4\n      swap1\n      mstore\n      dup1\n      dup3\n      add\n      mstore\n      0x80\n      dup2\n      add\n      dup3\n      swap1\n      mstore\n      0xa0\n      dup2\n      add\n      dup3\n      swap1\n      mstore\n      0xc0\n      dup2\n      add\n      swap2\n      swap1\n      swap2\n      mstore\n      swap1\n      jump\t// out\n    tag_452:\n      pop\n      dup1\n      sload\n      tag_465\n      swap1\n      tag_142\n      jump\t// in\n    tag_465:\n      0x00\n      dup3\n      sstore\n      dup1\n      0x1f\n      lt\n      tag_467\n      jumpi\n      pop\n      pop\n      jump\t// out\n    tag_467:\n      0x1f\n      add\n      0x20\n      swap1\n      div\n      swap1\n      0x00\n      mstore\n      keccak256(0x00, 0x20)\n      swap1\n      dup2\n      add\n      swap1\n      tag_468\n      swap2\n      swap1\n      tag_469\n      jump\t// in\n    tag_468:\n      pop\n      jump\t// out\n    tag_469:\n    tag_470:\n      dup1\n      dup3\n      gt\n      iszero\n      tag_471\n      jumpi\n      0x00\n      dup2\n      sstore\n      0x01\n      add\n      jump(tag_470)\n    tag_471:\n      pop\n      swap1\n      jump\t// out\n        /* \"#utility.yul\":14:264   */\n    tag_472:\n        /* \"#utility.yul\":99:100   */\n      0x00\n        /* \"#utility.yul\":109:222   */\n    tag_484:\n        /* \"#utility.yul\":123:129   */\n      dup4\n        /* \"#utility.yul\":120:121   */\n      dup2\n        /* \"#utility.yul\":117:130   */\n      lt\n        /* \"#utility.yul\":109:222   */\n      iszero\n      tag_486\n      jumpi\n        /* \"#utility.yul\":199:210   */\n      dup2\n      dup2\n      add\n        /* \"#utility.yul\":193:211   */\n      mload\n        /* \"#utility.yul\":180:191   */\n      dup4\n      dup3\n      add\n        /* \"#utility.yul\":173:212   */\n      mstore\n        /* \"#utility.yul\":145:147   */\n      0x20\n        /* \"#utility.yul\":138:148   */\n      add\n        /* \"#utility.yul\":109:222   */\n      jump(tag_484)\n    tag_486:\n      pop\n      pop\n        /* \"#utility.yul\":256:257   */\n      0x00\n        /* \"#utility.yul\":238:254   */\n      swap2\n      add\n        /* \"#utility.yul\":231:258   */\n      mstore\n        /* \"#utility.yul\":14:264   */\n      jump\t// out\n        /* \"#utility.yul\":269:540   */\n    tag_473:\n        /* \"#utility.yul\":311:314   */\n      0x00\n        /* \"#utility.yul\":349:354   */\n      dup2\n        /* \"#utility.yul\":343:355   */\n      mload\n        /* \"#utility.yul\":376:382   */\n      dup1\n        /* \"#utility.yul\":371:374   */\n      dup5\n        /* \"#utility.yul\":364:383   */\n      mstore\n        /* \"#utility.yul\":392:468   */\n      tag_488\n        /* \"#utility.yul\":461:467   */\n      dup2\n        /* \"#utility.yul\":454:458   */\n      0x20\n        /* \"#utility.yul\":449:452   */\n      dup7\n        /* \"#utility.yul\":445:459   */\n      add\n        /* \"#utility.yul\":438:442   */\n      0x20\n        /* \"#utility.yul\":431:436   */\n      dup7\n        /* \"#utility.yul\":427:443   */\n      add\n        /* \"#utility.yul\":392:468   */\n      tag_472\n      jump\t// in\n    tag_488:\n        /* \"#utility.yul\":522:524   */\n      0x1f\n        /* \"#utility.yul\":501:516   */\n      add\n      not(0x1f)\n        /* \"#utility.yul\":497:526   */\n      and\n        /* \"#utility.yul\":488:527   */\n      swap3\n      swap1\n      swap3\n      add\n        /* \"#utility.yul\":529:533   */\n      0x20\n        /* \"#utility.yul\":484:534   */\n      add\n      swap3\n        /* \"#utility.yul\":269:540   */\n      swap2\n      pop\n      pop\n      jump\t// out\n        /* \"#utility.yul\":545:765   */\n    tag_32:\n        /* \"#utility.yul\":694:696   */\n      0x20\n        /* \"#utility.yul\":683:692   */\n      dup2\n        /* \"#utility.yul\":676:697   */\n      mstore\n        /* \"#utility.yul\":657:661   */\n      0x00\n        /* \"#utility.yul\":714:759   */\n      tag_490\n        /* \"#utility.yul\":755:757   */\n      0x20\n        /* \"#utility.yul\":744:753   */\n      dup4\n        /* \"#utility.yul\":740:758   */\n      add\n        /* \"#utility.yul\":732:738   */\n      dup5\n        /* \"#utility.yul\":714:759   */\n      tag_473\n      jump\t// in\n    tag_490:\n        /* \"#utility.yul\":706:759   */\n      swap4\n        /* \"#utility.yul\":545:765   */\n      swap3\n      pop\n      pop\n      pop\n      jump\t// out\n        /* \"#utility.yul\":770:950   */\n    tag_36:\n        /* \"#utility.yul\":829:835   */\n      0x00\n        /* \"#utility.yul\":882:884   */\n      0x20\n        /* \"#utility.yul\":870:879   */\n      dup3\n        /* \"#utility.yul\":861:868   */\n      dup5\n        /* \"#utility.yul\":857:880   */\n      sub\n        /* \"#utility.yul\":853:885   */\n      slt\n        /* \"#utility.yul\":850:902   */\n      iszero\n      tag_492\n      jumpi\n        /* \"#utility.yul\":898:899   */\n      0x00\n        /* \"#utility.yul\":895:896   */\n      dup1\n        /* \"#utility.yul\":888:900   */\n      revert\n        /* \"#utility.yul\":850:902   */\n    tag_492:\n      pop\n        /* \"#utility.yul\":921:944   */\n      calldataload\n      swap2\n        /* \"#utility.yul\":770:950   */\n      swap1\n      pop\n      jump\t// out\n        /* \"#utility.yul\":1051:2227   */\n    tag_39:\n        /* \"#utility.yul\":1242:1244   */\n      0x20\n        /* \"#utility.yul\":1231:1240   */\n      dup2\n        /* \"#utility.yul\":1224:1245   */\n      mstore\n        /* \"#utility.yul\":1205:1209   */\n      0x00\n        /* \"#utility.yul\":1280:1286   */\n      dup3\n        /* \"#utility.yul\":1274:1287   */\n      mload\n        /* \"#utility.yul\":1323:1327   */\n      0xe0\n        /* \"#utility.yul\":1318:1320   */\n      0x20\n        /* \"#utility.yul\":1307:1316   */\n      dup5\n        /* \"#utility.yul\":1303:1321   */\n      add\n        /* \"#utility.yul\":1296:1328   */\n      mstore\n        /* \"#utility.yul\":1351:1403   */\n      tag_495\n        /* \"#utility.yul\":1398:1401   */\n      0x0100\n        /* \"#utility.yul\":1387:1396   */\n      dup5\n        /* \"#utility.yul\":1383:1402   */\n      add\n        /* \"#utility.yul\":1369:1381   */\n      dup3\n        /* \"#utility.yul\":1351:1403   */\n      tag_473\n      jump\t// in\n    tag_495:\n        /* \"#utility.yul\":1337:1403   */\n      swap1\n      pop\n        /* \"#utility.yul\":1452:1454   */\n      0x20\n        /* \"#utility.yul\":1444:1450   */\n      dup5\n        /* \"#utility.yul\":1440:1455   */\n      add\n        /* \"#utility.yul\":1434:1456   */\n      mload\n        /* \"#utility.yul\":1479:1481   */\n      0x1f\n        /* \"#utility.yul\":1475:1482   */\n      not\n        /* \"#utility.yul\":1546:1548   */\n      dup1\n        /* \"#utility.yul\":1534:1543   */\n      dup6\n        /* \"#utility.yul\":1526:1532   */\n      dup5\n        /* \"#utility.yul\":1522:1544   */\n      sub\n        /* \"#utility.yul\":1518:1549   */\n      add\n        /* \"#utility.yul\":1513:1515   */\n      0x40\n        /* \"#utility.yul\":1502:1511   */\n      dup7\n        /* \"#utility.yul\":1498:1516   */\n      add\n        /* \"#utility.yul\":1491:1550   */\n      mstore\n        /* \"#utility.yul\":1573:1614   */\n      tag_496\n        /* \"#utility.yul\":1607:1613   */\n      dup4\n        /* \"#utility.yul\":1591:1605   */\n      dup4\n        /* \"#utility.yul\":1573:1614   */\n      tag_473\n      jump\t// in\n    tag_496:\n        /* \"#utility.yul\":1663:1665   */\n      0x40\n        /* \"#utility.yul\":1651:1666   */\n      dup8\n      add\n        /* \"#utility.yul\":1645:1667   */\n      mload\n      sub(shl(0xa0, 0x01), 0x01)\n        /* \"#utility.yul\":1741:1764   */\n      swap1\n      dup2\n      and\n        /* \"#utility.yul\":1736:1738   */\n      0x60\n        /* \"#utility.yul\":1721:1739   */\n      dup9\n      dup2\n      add\n        /* \"#utility.yul\":1714:1765   */\n      swap2\n      swap1\n      swap2\n      mstore\n        /* \"#utility.yul\":1802:1817   */\n      dup9\n      add\n        /* \"#utility.yul\":1796:1818   */\n      mload\n        /* \"#utility.yul\":1859:1881   */\n      dup8\n      dup4\n      sub\n        /* \"#utility.yul\":1855:1886   */\n      dup5\n      add\n        /* \"#utility.yul\":1849:1852   */\n      0x80\n        /* \"#utility.yul\":1834:1853   */\n      dup10\n      add\n        /* \"#utility.yul\":1827:1887   */\n      mstore\n        /* \"#utility.yul\":1559:1614   */\n      swap2\n      swap5\n      pop\n        /* \"#utility.yul\":1796:1818   */\n      swap1\n      swap3\n      pop\n        /* \"#utility.yul\":1910:1951   */\n      tag_497\n        /* \"#utility.yul\":1559:1614   */\n      dup5\n        /* \"#utility.yul\":1796:1818   */\n      dup5\n        /* \"#utility.yul\":1910:1951   */\n      tag_473\n      jump\t// in\n    tag_497:\n        /* \"#utility.yul\":1896:1951   */\n      swap4\n      pop\n        /* \"#utility.yul\":2017:2019   */\n      dup1\n        /* \"#utility.yul\":2010:2013   */\n      0x80\n        /* \"#utility.yul\":2002:2008   */\n      dup9\n        /* \"#utility.yul\":1998:2014   */\n      add\n        /* \"#utility.yul\":1992:2015   */\n      mload\n        /* \"#utility.yul\":1988:2020   */\n      and\n        /* \"#utility.yul\":1982:1985   */\n      0xa0\n        /* \"#utility.yul\":1971:1980   */\n      dup8\n        /* \"#utility.yul\":1967:1986   */\n      add\n        /* \"#utility.yul\":1960:2021   */\n      mstore\n      pop\n      pop\n      pop\n        /* \"#utility.yul\":2076:2079   */\n      0xa0\n        /* \"#utility.yul\":2068:2074   */\n      dup5\n        /* \"#utility.yul\":2064:2080   */\n      add\n        /* \"#utility.yul\":2058:2081   */\n      mload\n        /* \"#utility.yul\":2052:2055   */\n      0xc0\n        /* \"#utility.yul\":2041:2050   */\n      dup5\n        /* \"#utility.yul\":2037:2056   */\n      add\n        /* \"#utility.yul\":2030:2082   */\n      mstore\n        /* \"#utility.yul\":2131:2134   */\n      0xc0\n        /* \"#utility.yul\":2123:2129   */\n      dup5\n        /* \"#utility.yul\":2119:2135   */\n      add\n        /* \"#utility.yul\":2113:2136   */\n      mload\n        /* \"#utility.yul\":2145:2198   */\n      tag_498\n        /* \"#utility.yul\":2192:2196   */\n      0xe0\n        /* \"#utility.yul\":2181:2190   */\n      dup6\n        /* \"#utility.yul\":2177:2197   */\n      add\n        /* \"#utility.yul\":2161:2175   */\n      dup3\n        /* \"#utility.yul\":1025:1038   */\n      iszero\n        /* \"#utility.yul\":1018:1039   */\n      iszero\n        /* \"#utility.yul\":1006:1040   */\n      swap1\n      mstore\n        /* \"#utility.yul\":955:1046   */\n      jump\n        /* \"#utility.yul\":2145:2198   */\n    tag_498:\n      pop\n        /* \"#utility.yul\":2215:2221   */\n      swap4\n        /* \"#utility.yul\":1051:2227   */\n      swap3\n      pop\n      pop\n      pop\n      jump\t// out\n        /* \"#utility.yul\":2232:2405   */\n    tag_475:\n        /* \"#utility.yul\":2300:2320   */\n      dup1\n      calldataload\n      sub(shl(0xa0, 0x01), 0x01)\n        /* \"#utility.yul\":2349:2380   */\n      dup2\n      and\n        /* \"#utility.yul\":2339:2381   */\n      dup2\n      eq\n        /* \"#utility.yul\":2329:2399   */\n      tag_172\n      jumpi\n        /* \"#utility.yul\":2395:2396   */\n      0x00\n        /* \"#utility.yul\":2392:2393   */\n      dup1\n        /* \"#utility.yul\":2385:2397   */\n      revert\n        /* \"#utility.yul\":2410:2596   */\n    tag_42:\n        /* \"#utility.yul\":2469:2475   */\n      0x00\n        /* \"#utility.yul\":2522:2524   */\n      0x20\n        /* \"#utility.yul\":2510:2519   */\n      dup3\n        /* \"#utility.yul\":2501:2508   */\n      dup5\n        /* \"#utility.yul\":2497:2520   */\n      sub\n        /* \"#utility.yul\":2493:2525   */\n      slt\n        /* \"#utility.yul\":2490:2542   */\n      iszero\n      tag_502\n      jumpi\n        /* \"#utility.yul\":2538:2539   */\n      0x00\n        /* \"#utility.yul\":2535:2536   */\n      dup1\n        /* \"#utility.yul\":2528:2540   */\n      revert\n        /* \"#utility.yul\":2490:2542   */\n    tag_502:\n        /* \"#utility.yul\":2561:2590   */\n      tag_490\n        /* \"#utility.yul\":2580:2589   */\n      dup3\n        /* \"#utility.yul\":2561:2590   */\n      tag_475\n      jump\t// in\n        /* \"#utility.yul\":3001:3633   */\n    tag_56:\n        /* \"#utility.yul\":3172:3174   */\n      0x20\n        /* \"#utility.yul\":3224:3245   */\n      dup1\n      dup3\n      mstore\n        /* \"#utility.yul\":3294:3307   */\n      dup3\n      mload\n        /* \"#utility.yul\":3197:3215   */\n      dup3\n      dup3\n      add\n        /* \"#utility.yul\":3316:3338   */\n      dup2\n      swap1\n      mstore\n        /* \"#utility.yul\":3143:3147   */\n      0x00\n      swap2\n        /* \"#utility.yul\":3172:3174   */\n      swap1\n        /* \"#utility.yul\":3395:3410   */\n      dup5\n      dup3\n      add\n      swap1\n        /* \"#utility.yul\":3369:3371   */\n      0x40\n        /* \"#utility.yul\":3354:3372   */\n      dup6\n      add\n      swap1\n        /* \"#utility.yul\":3143:3147   */\n      dup5\n        /* \"#utility.yul\":3438:3607   */\n    tag_507:\n        /* \"#utility.yul\":3452:3458   */\n      dup2\n        /* \"#utility.yul\":3449:3450   */\n      dup2\n        /* \"#utility.yul\":3446:3459   */\n      lt\n        /* \"#utility.yul\":3438:3607   */\n      iszero\n      tag_509\n      jumpi\n        /* \"#utility.yul\":3513:3526   */\n      dup4\n      mload\n        /* \"#utility.yul\":3501:3527   */\n      dup4\n      mstore\n        /* \"#utility.yul\":3582:3597   */\n      swap3\n      dup5\n      add\n      swap3\n        /* \"#utility.yul\":3547:3559   */\n      swap2\n      dup5\n      add\n      swap2\n        /* \"#utility.yul\":3474:3475   */\n      0x01\n        /* \"#utility.yul\":3467:3476   */\n      add\n        /* \"#utility.yul\":3438:3607   */\n      jump(tag_507)\n    tag_509:\n      pop\n        /* \"#utility.yul\":3624:3627   */\n      swap1\n      swap7\n        /* \"#utility.yul\":3001:3633   */\n      swap6\n      pop\n      pop\n      pop\n      pop\n      pop\n      pop\n      jump\t// out\n        /* \"#utility.yul\":3638:3765   */\n    tag_476:\n        /* \"#utility.yul\":3699:3709   */\n      0x4e487b71\n        /* \"#utility.yul\":3694:3697   */\n      0xe0\n        /* \"#utility.yul\":3690:3710   */\n      shl\n        /* \"#utility.yul\":3687:3688   */\n      0x00\n        /* \"#utility.yul\":3680:3711   */\n      mstore\n        /* \"#utility.yul\":3730:3734   */\n      0x41\n        /* \"#utility.yul\":3727:3728   */\n      0x04\n        /* \"#utility.yul\":3720:3735   */\n      mstore\n        /* \"#utility.yul\":3754:3758   */\n      0x24\n        /* \"#utility.yul\":3751:3752   */\n      0x00\n        /* \"#utility.yul\":3744:3759   */\n      revert\n        /* \"#utility.yul\":3770:4489   */\n    tag_477:\n        /* \"#utility.yul\":3813:3818   */\n      0x00\n        /* \"#utility.yul\":3866:3869   */\n      dup3\n        /* \"#utility.yul\":3859:3863   */\n      0x1f\n        /* \"#utility.yul\":3851:3857   */\n      dup4\n        /* \"#utility.yul\":3847:3864   */\n      add\n        /* \"#utility.yul\":3843:3870   */\n      slt\n        /* \"#utility.yul\":3833:3888   */\n      tag_512\n      jumpi\n        /* \"#utility.yul\":3884:3885   */\n      0x00\n        /* \"#utility.yul\":3881:3882   */\n      dup1\n        /* \"#utility.yul\":3874:3886   */\n      revert\n        /* \"#utility.yul\":3833:3888   */\n    tag_512:\n        /* \"#utility.yul\":3920:3926   */\n      dup2\n        /* \"#utility.yul\":3907:3927   */\n      calldataload\n        /* \"#utility.yul\":3946:3964   */\n      0xffffffffffffffff\n        /* \"#utility.yul\":3983:3985   */\n      dup1\n        /* \"#utility.yul\":3979:3981   */\n      dup3\n        /* \"#utility.yul\":3976:3986   */\n      gt\n        /* \"#utility.yul\":3973:4009   */\n      iszero\n      tag_514\n      jumpi\n        /* \"#utility.yul\":3989:4007   */\n      tag_514\n      tag_476\n      jump\t// in\n    tag_514:\n        /* \"#utility.yul\":4064:4066   */\n      0x40\n        /* \"#utility.yul\":4058:4067   */\n      mload\n        /* \"#utility.yul\":4032:4034   */\n      0x1f\n        /* \"#utility.yul\":4118:4131   */\n      dup4\n      add\n      not(0x1f)\n        /* \"#utility.yul\":4114:4136   */\n      swap1\n      dup2\n      and\n        /* \"#utility.yul\":4138:4140   */\n      0x3f\n        /* \"#utility.yul\":4110:4141   */\n      add\n        /* \"#utility.yul\":4106:4146   */\n      and\n        /* \"#utility.yul\":4094:4147   */\n      dup2\n      add\n      swap1\n        /* \"#utility.yul\":4162:4180   */\n      dup3\n      dup3\n      gt\n        /* \"#utility.yul\":4182:4204   */\n      dup2\n      dup4\n      lt\n        /* \"#utility.yul\":4159:4205   */\n      or\n        /* \"#utility.yul\":4156:4228   */\n      iszero\n      tag_516\n      jumpi\n        /* \"#utility.yul\":4208:4226   */\n      tag_516\n      tag_476\n      jump\t// in\n    tag_516:\n        /* \"#utility.yul\":4248:4258   */\n      dup2\n        /* \"#utility.yul\":4244:4246   */\n      0x40\n        /* \"#utility.yul\":4237:4259   */\n      mstore\n        /* \"#utility.yul\":4283:4285   */\n      dup4\n        /* \"#utility.yul\":4275:4281   */\n      dup2\n        /* \"#utility.yul\":4268:4286   */\n      mstore\n        /* \"#utility.yul\":4329:4332   */\n      dup7\n        /* \"#utility.yul\":4322:4326   */\n      0x20\n        /* \"#utility.yul\":4317:4319   */\n      dup6\n        /* \"#utility.yul\":4309:4315   */\n      dup9\n        /* \"#utility.yul\":4305:4320   */\n      add\n        /* \"#utility.yul\":4301:4327   */\n      add\n        /* \"#utility.yul\":4298:4333   */\n      gt\n        /* \"#utility.yul\":4295:4350   */\n      iszero\n      tag_517\n      jumpi\n        /* \"#utility.yul\":4346:4347   */\n      0x00\n        /* \"#utility.yul\":4343:4344   */\n      dup1\n        /* \"#utility.yul\":4336:4348   */\n      revert\n        /* \"#utility.yul\":4295:4350   */\n    tag_517:\n        /* \"#utility.yul\":4410:4412   */\n      dup4\n        /* \"#utility.yul\":4403:4407   */\n      0x20\n        /* \"#utility.yul\":4395:4401   */\n      dup8\n        /* \"#utility.yul\":4391:4408   */\n      add\n        /* \"#utility.yul\":4384:4388   */\n      0x20\n        /* \"#utility.yul\":4376:4382   */\n      dup4\n        /* \"#utility.yul\":4372:4389   */\n      add\n        /* \"#utility.yul\":4359:4413   */\n      calldatacopy\n        /* \"#utility.yul\":4457:4458   */\n      0x00\n        /* \"#utility.yul\":4450:4454   */\n      0x20\n        /* \"#utility.yul\":4445:4447   */\n      dup6\n        /* \"#utility.yul\":4437:4443   */\n      dup4\n        /* \"#utility.yul\":4433:4448   */\n      add\n        /* \"#utility.yul\":4429:4455   */\n      add\n        /* \"#utility.yul\":4422:4459   */\n      mstore\n        /* \"#utility.yul\":4477:4483   */\n      dup1\n        /* \"#utility.yul\":4468:4483   */\n      swap5\n      pop\n      pop\n      pop\n      pop\n      pop\n        /* \"#utility.yul\":3770:4489   */\n      swap3\n      swap2\n      pop\n      pop\n      jump\t// out\n        /* \"#utility.yul\":4494:5639   */\n    tag_72:\n        /* \"#utility.yul\":4639:4645   */\n      0x00\n        /* \"#utility.yul\":4647:4653   */\n      dup1\n        /* \"#utility.yul\":4655:4661   */\n      0x00\n        /* \"#utility.yul\":4663:4669   */\n      dup1\n        /* \"#utility.yul\":4671:4677   */\n      0x00\n        /* \"#utility.yul\":4724:4727   */\n      0xa0\n        /* \"#utility.yul\":4712:4721   */\n      dup7\n        /* \"#utility.yul\":4703:4710   */\n      dup9\n        /* \"#utility.yul\":4699:4722   */\n      sub\n        /* \"#utility.yul\":4695:4728   */\n      slt\n        /* \"#utility.yul\":4692:4745   */\n      iszero\n      tag_519\n      jumpi\n        /* \"#utility.yul\":4741:4742   */\n      0x00\n        /* \"#utility.yul\":4738:4739   */\n      dup1\n        /* \"#utility.yul\":4731:4743   */\n      revert\n        /* \"#utility.yul\":4692:4745   */\n    tag_519:\n        /* \"#utility.yul\":4781:4790   */\n      dup6\n        /* \"#utility.yul\":4768:4791   */\n      calldataload\n        /* \"#utility.yul\":4810:4828   */\n      0xffffffffffffffff\n        /* \"#utility.yul\":4851:4853   */\n      dup1\n        /* \"#utility.yul\":4843:4849   */\n      dup3\n        /* \"#utility.yul\":4840:4854   */\n      gt\n        /* \"#utility.yul\":4837:4871   */\n      iszero\n      tag_520\n      jumpi\n        /* \"#utility.yul\":4867:4868   */\n      0x00\n        /* \"#utility.yul\":4864:4865   */\n      dup1\n        /* \"#utility.yul\":4857:4869   */\n      revert\n        /* \"#utility.yul\":4837:4871   */\n    tag_520:\n        /* \"#utility.yul\":4890:4940   */\n      tag_521\n        /* \"#utility.yul\":4932:4939   */\n      dup10\n        /* \"#utility.yul\":4923:4929   */\n      dup4\n        /* \"#utility.yul\":4912:4921   */\n      dup11\n        /* \"#utility.yul\":4908:4930   */\n      add\n        /* \"#utility.yul\":4890:4940   */\n      tag_477\n      jump\t// in\n    tag_521:\n        /* \"#utility.yul\":4880:4940   */\n      swap7\n      pop\n        /* \"#utility.yul\":4993:4995   */\n      0x20\n        /* \"#utility.yul\":4982:4991   */\n      dup9\n        /* \"#utility.yul\":4978:4996   */\n      add\n        /* \"#utility.yul\":4965:4997   */\n      calldataload\n        /* \"#utility.yul\":4949:4997   */\n      swap2\n      pop\n        /* \"#utility.yul\":5022:5024   */\n      dup1\n        /* \"#utility.yul\":5012:5020   */\n      dup3\n        /* \"#utility.yul\":5009:5025   */\n      gt\n        /* \"#utility.yul\":5006:5042   */\n      iszero\n      tag_522\n      jumpi\n        /* \"#utility.yul\":5038:5039   */\n      0x00\n        /* \"#utility.yul\":5035:5036   */\n      dup1\n        /* \"#utility.yul\":5028:5040   */\n      revert\n        /* \"#utility.yul\":5006:5042   */\n    tag_522:\n        /* \"#utility.yul\":5061:5113   */\n      tag_523\n        /* \"#utility.yul\":5105:5112   */\n      dup10\n        /* \"#utility.yul\":5094:5102   */\n      dup4\n        /* \"#utility.yul\":5083:5092   */\n      dup11\n        /* \"#utility.yul\":5079:5103   */\n      add\n        /* \"#utility.yul\":5061:5113   */\n      tag_477\n      jump\t// in\n    tag_523:\n        /* \"#utility.yul\":5051:5113   */\n      swap6\n      pop\n        /* \"#utility.yul\":5166:5168   */\n      0x40\n        /* \"#utility.yul\":5155:5164   */\n      dup9\n        /* \"#utility.yul\":5151:5169   */\n      add\n        /* \"#utility.yul\":5138:5170   */\n      calldataload\n        /* \"#utility.yul\":5122:5170   */\n      swap2\n      pop\n        /* \"#utility.yul\":5195:5197   */\n      dup1\n        /* \"#utility.yul\":5185:5193   */\n      dup3\n        /* \"#utility.yul\":5182:5198   */\n      gt\n        /* \"#utility.yul\":5179:5215   */\n      iszero\n      tag_524\n      jumpi\n        /* \"#utility.yul\":5211:5212   */\n      0x00\n        /* \"#utility.yul\":5208:5209   */\n      dup1\n        /* \"#utility.yul\":5201:5213   */\n      revert\n        /* \"#utility.yul\":5179:5215   */\n    tag_524:\n        /* \"#utility.yul\":5234:5286   */\n      tag_525\n        /* \"#utility.yul\":5278:5285   */\n      dup10\n        /* \"#utility.yul\":5267:5275   */\n      dup4\n        /* \"#utility.yul\":5256:5265   */\n      dup11\n        /* \"#utility.yul\":5252:5276   */\n      add\n        /* \"#utility.yul\":5234:5286   */\n      tag_477\n      jump\t// in\n    tag_525:\n        /* \"#utility.yul\":5224:5286   */\n      swap5\n      pop\n        /* \"#utility.yul\":5339:5341   */\n      0x60\n        /* \"#utility.yul\":5328:5337   */\n      dup9\n        /* \"#utility.yul\":5324:5342   */\n      add\n        /* \"#utility.yul\":5311:5343   */\n      calldataload\n        /* \"#utility.yul\":5295:5343   */\n      swap2\n      pop\n        /* \"#utility.yul\":5368:5370   */\n      dup1\n        /* \"#utility.yul\":5358:5366   */\n      dup3\n        /* \"#utility.yul\":5355:5371   */\n      gt\n        /* \"#utility.yul\":5352:5388   */\n      iszero\n      tag_526\n      jumpi\n        /* \"#utility.yul\":5384:5385   */\n      0x00\n        /* \"#utility.yul\":5381:5382   */\n      dup1\n        /* \"#utility.yul\":5374:5386   */\n      revert\n        /* \"#utility.yul\":5352:5388   */\n    tag_526:\n        /* \"#utility.yul\":5407:5459   */\n      tag_527\n        /* \"#utility.yul\":5451:5458   */\n      dup10\n        /* \"#utility.yul\":5440:5448   */\n      dup4\n        /* \"#utility.yul\":5429:5438   */\n      dup11\n        /* \"#utility.yul\":5425:5449   */\n      add\n        /* \"#utility.yul\":5407:5459   */\n      tag_477\n      jump\t// in\n    tag_527:\n        /* \"#utility.yul\":5397:5459   */\n      swap4\n      pop\n        /* \"#utility.yul\":5512:5515   */\n      0x80\n        /* \"#utility.yul\":5501:5510   */\n      dup9\n        /* \"#utility.yul\":5497:5516   */\n      add\n        /* \"#utility.yul\":5484:5517   */\n      calldataload\n        /* \"#utility.yul\":5468:5517   */\n      swap2\n      pop\n        /* \"#utility.yul\":5542:5544   */\n      dup1\n        /* \"#utility.yul\":5532:5540   */\n      dup3\n        /* \"#utility.yul\":5529:5545   */\n      gt\n        /* \"#utility.yul\":5526:5562   */\n      iszero\n      tag_528\n      jumpi\n        /* \"#utility.yul\":5558:5559   */\n      0x00\n        /* \"#utility.yul\":5555:5556   */\n      dup1\n        /* \"#utility.yul\":5548:5560   */\n      revert\n        /* \"#utility.yul\":5526:5562   */\n    tag_528:\n      pop\n        /* \"#utility.yul\":5581:5633   */\n      tag_529\n        /* \"#utility.yul\":5625:5632   */\n      dup9\n        /* \"#utility.yul\":5614:5622   */\n      dup3\n        /* \"#utility.yul\":5603:5612   */\n      dup10\n        /* \"#utility.yul\":5599:5623   */\n      add\n        /* \"#utility.yul\":5581:5633   */\n      tag_477\n      jump\t// in\n    tag_529:\n        /* \"#utility.yul\":5571:5633   */\n      swap2\n      pop\n      pop\n        /* \"#utility.yul\":4494:5639   */\n      swap3\n      swap6\n      pop\n      swap3\n      swap6\n      swap1\n      swap4\n      pop\n      jump\t// out\n        /* \"#utility.yul\":5644:5966   */\n    tag_82:\n        /* \"#utility.yul\":5713:5719   */\n      0x00\n        /* \"#utility.yul\":5766:5768   */\n      0x20\n        /* \"#utility.yul\":5754:5763   */\n      dup3\n        /* \"#utility.yul\":5745:5752   */\n      dup5\n        /* \"#utility.yul\":5741:5764   */\n      sub\n        /* \"#utility.yul\":5737:5769   */\n      slt\n        /* \"#utility.yul\":5734:5786   */\n      iszero\n      tag_531\n      jumpi\n        /* \"#utility.yul\":5782:5783   */\n      0x00\n        /* \"#utility.yul\":5779:5780   */\n      dup1\n        /* \"#utility.yul\":5772:5784   */\n      revert\n        /* \"#utility.yul\":5734:5786   */\n    tag_531:\n        /* \"#utility.yul\":5822:5831   */\n      dup2\n        /* \"#utility.yul\":5809:5832   */\n      calldataload\n        /* \"#utility.yul\":5855:5873   */\n      0xffffffffffffffff\n        /* \"#utility.yul\":5847:5853   */\n      dup2\n        /* \"#utility.yul\":5844:5874   */\n      gt\n        /* \"#utility.yul\":5841:5891   */\n      iszero\n      tag_532\n      jumpi\n        /* \"#utility.yul\":5887:5888   */\n      0x00\n        /* \"#utility.yul\":5884:5885   */\n      dup1\n        /* \"#utility.yul\":5877:5889   */\n      revert\n        /* \"#utility.yul\":5841:5891   */\n    tag_532:\n        /* \"#utility.yul\":5910:5960   */\n      tag_533\n        /* \"#utility.yul\":5952:5959   */\n      dup5\n        /* \"#utility.yul\":5943:5949   */\n      dup3\n        /* \"#utility.yul\":5932:5941   */\n      dup6\n        /* \"#utility.yul\":5928:5950   */\n      add\n        /* \"#utility.yul\":5910:5960   */\n      tag_477\n      jump\t// in\n    tag_533:\n        /* \"#utility.yul\":5900:5960   */\n      swap5\n        /* \"#utility.yul\":5644:5966   */\n      swap4\n      pop\n      pop\n      pop\n      pop\n      jump\t// out\n        /* \"#utility.yul\":5971:6367   */\n    tag_91:\n        /* \"#utility.yul\":6049:6055   */\n      0x00\n        /* \"#utility.yul\":6057:6063   */\n      dup1\n        /* \"#utility.yul\":6110:6112   */\n      0x40\n        /* \"#utility.yul\":6098:6107   */\n      dup4\n        /* \"#utility.yul\":6089:6096   */\n      dup6\n        /* \"#utility.yul\":6085:6108   */\n      sub\n        /* \"#utility.yul\":6081:6113   */\n      slt\n        /* \"#utility.yul\":6078:6130   */\n      iszero\n      tag_535\n      jumpi\n        /* \"#utility.yul\":6126:6127   */\n      0x00\n        /* \"#utility.yul\":6123:6124   */\n      dup1\n        /* \"#utility.yul\":6116:6128   */\n      revert\n        /* \"#utility.yul\":6078:6130   */\n    tag_535:\n        /* \"#utility.yul\":6166:6175   */\n      dup3\n        /* \"#utility.yul\":6153:6176   */\n      calldataload\n        /* \"#utility.yul\":6199:6217   */\n      0xffffffffffffffff\n        /* \"#utility.yul\":6191:6197   */\n      dup2\n        /* \"#utility.yul\":6188:6218   */\n      gt\n        /* \"#utility.yul\":6185:6235   */\n      iszero\n      tag_536\n      jumpi\n        /* \"#utility.yul\":6231:6232   */\n      0x00\n        /* \"#utility.yul\":6228:6229   */\n      dup1\n        /* \"#utility.yul\":6221:6233   */\n      revert\n        /* \"#utility.yul\":6185:6235   */\n    tag_536:\n        /* \"#utility.yul\":6254:6304   */\n      tag_537\n        /* \"#utility.yul\":6296:6303   */\n      dup6\n        /* \"#utility.yul\":6287:6293   */\n      dup3\n        /* \"#utility.yul\":6276:6285   */\n      dup7\n        /* \"#utility.yul\":6272:6294   */\n      add\n        /* \"#utility.yul\":6254:6304   */\n      tag_477\n      jump\t// in\n    tag_537:\n        /* \"#utility.yul\":6244:6304   */\n      swap3\n      pop\n      pop\n        /* \"#utility.yul\":6323:6361   */\n      tag_538\n        /* \"#utility.yul\":6357:6359   */\n      0x20\n        /* \"#utility.yul\":6346:6355   */\n      dup5\n        /* \"#utility.yul\":6342:6360   */\n      add\n        /* \"#utility.yul\":6323:6361   */\n      tag_475\n      jump\t// in\n    tag_538:\n        /* \"#utility.yul\":6313:6361   */\n      swap1\n      pop\n        /* \"#utility.yul\":5971:6367   */\n      swap3\n      pop\n      swap3\n      swap1\n      pop\n      jump\t// out\n        /* \"#utility.yul\":6929:7183   */\n    tag_137:\n        /* \"#utility.yul\":6997:7003   */\n      0x00\n        /* \"#utility.yul\":7005:7011   */\n      dup1\n        /* \"#utility.yul\":7058:7060   */\n      0x40\n        /* \"#utility.yul\":7046:7055   */\n      dup4\n        /* \"#utility.yul\":7037:7044   */\n      dup6\n        /* \"#utility.yul\":7033:7056   */\n      sub\n        /* \"#utility.yul\":7029:7061   */\n      slt\n        /* \"#utility.yul\":7026:7078   */\n      iszero\n      tag_543\n      jumpi\n        /* \"#utility.yul\":7074:7075   */\n      0x00\n        /* \"#utility.yul\":7071:7072   */\n      dup1\n        /* \"#utility.yul\":7064:7076   */\n      revert\n        /* \"#utility.yul\":7026:7078   */\n    tag_543:\n        /* \"#utility.yul\":7097:7126   */\n      tag_544\n        /* \"#utility.yul\":7116:7125   */\n      dup4\n        /* \"#utility.yul\":7097:7126   */\n      tag_475\n      jump\t// in\n    tag_544:\n        /* \"#utility.yul\":7087:7126   */\n      swap5\n        /* \"#utility.yul\":7173:7175   */\n      0x20\n        /* \"#utility.yul\":7158:7176   */\n      swap4\n      swap1\n      swap4\n      add\n        /* \"#utility.yul\":7145:7177   */\n      calldataload\n      swap4\n      pop\n      pop\n      pop\n        /* \"#utility.yul\":6929:7183   */\n      jump\t// out\n        /* \"#utility.yul\":7188:7568   */\n    tag_142:\n        /* \"#utility.yul\":7267:7268   */\n      0x01\n        /* \"#utility.yul\":7263:7275   */\n      dup2\n      dup2\n      shr\n      swap1\n        /* \"#utility.yul\":7310:7322   */\n      dup3\n      and\n      dup1\n        /* \"#utility.yul\":7331:7392   */\n      tag_546\n      jumpi\n        /* \"#utility.yul\":7385:7389   */\n      0x7f\n        /* \"#utility.yul\":7377:7383   */\n      dup3\n        /* \"#utility.yul\":7373:7390   */\n      and\n        /* \"#utility.yul\":7363:7390   */\n      swap2\n      pop\n        /* \"#utility.yul\":7331:7392   */\n    tag_546:\n        /* \"#utility.yul\":7438:7440   */\n      0x20\n        /* \"#utility.yul\":7430:7436   */\n      dup3\n        /* \"#utility.yul\":7427:7441   */\n      lt\n        /* \"#utility.yul\":7407:7425   */\n      dup2\n        /* \"#utility.yul\":7404:7442   */\n      sub\n        /* \"#utility.yul\":7401:7562   */\n      tag_547\n      jumpi\n        /* \"#utility.yul\":7484:7494   */\n      0x4e487b71\n        /* \"#utility.yul\":7479:7482   */\n      0xe0\n        /* \"#utility.yul\":7475:7495   */\n      shl\n        /* \"#utility.yul\":7472:7473   */\n      0x00\n        /* \"#utility.yul\":7465:7496   */\n      mstore\n        /* \"#utility.yul\":7519:7523   */\n      0x22\n        /* \"#utility.yul\":7516:7517   */\n      0x04\n        /* \"#utility.yul\":7509:7524   */\n      mstore\n        /* \"#utility.yul\":7547:7551   */\n      0x24\n        /* \"#utility.yul\":7544:7545   */\n      0x00\n        /* \"#utility.yul\":7537:7552   */\n      revert\n        /* \"#utility.yul\":7401:7562   */\n    tag_547:\n      pop\n        /* \"#utility.yul\":7188:7568   */\n      swap2\n      swap1\n      pop\n      jump\t// out\n        /* \"#utility.yul\":7984:8331   */\n    tag_171:\n        /* \"#utility.yul\":8186:8188   */\n      0x20\n        /* \"#utility.yul\":8168:8189   */\n      dup1\n      dup3\n      mstore\n        /* \"#utility.yul\":8225:8227   */\n      0x17\n        /* \"#utility.yul\":8205:8223   */\n      swap1\n      dup3\n      add\n        /* \"#utility.yul\":8198:8228   */\n      mstore\n        /* \"#utility.yul\":8264:8289   */\n      0x4f6e6c79204f776e65722063616e206163746976617465000000000000000000\n        /* \"#utility.yul\":8259:8261   */\n      0x40\n        /* \"#utility.yul\":8244:8262   */\n      dup3\n      add\n        /* \"#utility.yul\":8237:8290   */\n      mstore\n        /* \"#utility.yul\":8322:8324   */\n      0x60\n        /* \"#utility.yul\":8307:8325   */\n      add\n      swap1\n        /* \"#utility.yul\":7984:8331   */\n      jump\t// out\n        /* \"#utility.yul\":9453:9742   */\n    tag_205:\n        /* \"#utility.yul\":9584:9587   */\n      0x00\n        /* \"#utility.yul\":9622:9628   */\n      dup3\n        /* \"#utility.yul\":9616:9629   */\n      mload\n        /* \"#utility.yul\":9638:9704   */\n      tag_554\n        /* \"#utility.yul\":9697:9703   */\n      dup2\n        /* \"#utility.yul\":9692:9695   */\n      dup5\n        /* \"#utility.yul\":9685:9689   */\n      0x20\n        /* \"#utility.yul\":9677:9683   */\n      dup8\n        /* \"#utility.yul\":9673:9690   */\n      add\n        /* \"#utility.yul\":9638:9704   */\n      tag_472\n      jump\t// in\n    tag_554:\n        /* \"#utility.yul\":9720:9736   */\n      swap2\n      swap1\n      swap2\n      add\n      swap3\n        /* \"#utility.yul\":9453:9742   */\n      swap2\n      pop\n      pop\n      jump\t// out\n        /* \"#utility.yul\":11893:12020   */\n    tag_478:\n        /* \"#utility.yul\":11954:11964   */\n      0x4e487b71\n        /* \"#utility.yul\":11949:11952   */\n      0xe0\n        /* \"#utility.yul\":11945:11965   */\n      shl\n        /* \"#utility.yul\":11942:11943   */\n      0x00\n        /* \"#utility.yul\":11935:11966   */\n      mstore\n        /* \"#utility.yul\":11985:11989   */\n      0x11\n        /* \"#utility.yul\":11982:11983   */\n      0x04\n        /* \"#utility.yul\":11975:11990   */\n      mstore\n        /* \"#utility.yul\":12009:12013   */\n      0x24\n        /* \"#utility.yul\":12006:12007   */\n      0x00\n        /* \"#utility.yul\":11999:12014   */\n      revert\n        /* \"#utility.yul\":12025:12219   */\n    tag_307:\n        /* \"#utility.yul\":12121:12122   */\n      0x03\n        /* \"#utility.yul\":12092:12108   */\n      dup2\n      dup2\n      signextend\n        /* \"#utility.yul\":12110:12126   */\n      swap1\n      dup4\n      swap1\n      signextend\n        /* \"#utility.yul\":12088:12127   */\n      add\n        /* \"#utility.yul\":12177:12187   */\n      0x7fffffff\n        /* \"#utility.yul\":12142:12162   */\n      dup2\n      sgt\n      not(0x7fffffff)\n        /* \"#utility.yul\":12164:12189   */\n      dup3\n      slt\n        /* \"#utility.yul\":12139:12190   */\n      or\n        /* \"#utility.yul\":12136:12213   */\n      iszero\n      tag_165\n      jumpi\n        /* \"#utility.yul\":12193:12211   */\n      tag_165\n      tag_478\n      jump\t// in\n        /* \"#utility.yul\":12224:12349   */\n    tag_310:\n        /* \"#utility.yul\":12289:12298   */\n      dup1\n      dup3\n      add\n        /* \"#utility.yul\":12310:12320   */\n      dup1\n      dup3\n      gt\n        /* \"#utility.yul\":12307:12343   */\n      iszero\n      tag_165\n      jumpi\n        /* \"#utility.yul\":12323:12341   */\n      tag_165\n      tag_478\n      jump\t// in\n        /* \"#utility.yul\":12354:12482   */\n    tag_332:\n        /* \"#utility.yul\":12421:12430   */\n      dup2\n      dup2\n      sub\n        /* \"#utility.yul\":12442:12453   */\n      dup2\n      dup2\n      gt\n        /* \"#utility.yul\":12439:12476   */\n      iszero\n      tag_165\n      jumpi\n        /* \"#utility.yul\":12456:12474   */\n      tag_165\n      tag_478\n      jump\t// in\n        /* \"#utility.yul\":12487:12614   */\n    tag_340:\n        /* \"#utility.yul\":12548:12558   */\n      0x4e487b71\n        /* \"#utility.yul\":12543:12546   */\n      0xe0\n        /* \"#utility.yul\":12539:12559   */\n      shl\n        /* \"#utility.yul\":12536:12537   */\n      0x00\n        /* \"#utility.yul\":12529:12560   */\n      mstore\n        /* \"#utility.yul\":12579:12583   */\n      0x32\n        /* \"#utility.yul\":12576:12577   */\n      0x04\n        /* \"#utility.yul\":12569:12584   */\n      mstore\n        /* \"#utility.yul\":12603:12607   */\n      0x24\n        /* \"#utility.yul\":12600:12601   */\n      0x00\n        /* \"#utility.yul\":12593:12608   */\n      revert\n        /* \"#utility.yul\":12619:12754   */\n    tag_346:\n        /* \"#utility.yul\":12658:12661   */\n      0x00\n        /* \"#utility.yul\":12679:12696   */\n      0x01\n      dup3\n      add\n        /* \"#utility.yul\":12676:12719   */\n      tag_574\n      jumpi\n        /* \"#utility.yul\":12699:12717   */\n      tag_574\n      tag_478\n      jump\t// in\n    tag_574:\n      pop\n        /* \"#utility.yul\":12746:12747   */\n      0x01\n        /* \"#utility.yul\":12735:12748   */\n      add\n      swap1\n        /* \"#utility.yul\":12619:12754   */\n      jump\t// out\n        /* \"#utility.yul\":12885:13430   */\n    tag_480:\n        /* \"#utility.yul\":12987:12989   */\n      0x1f\n        /* \"#utility.yul\":12982:12985   */\n      dup3\n        /* \"#utility.yul\":12979:12990   */\n      gt\n        /* \"#utility.yul\":12976:13424   */\n      iszero\n      tag_577\n      jumpi\n        /* \"#utility.yul\":13023:13024   */\n      0x00\n        /* \"#utility.yul\":13048:13053   */\n      dup2\n        /* \"#utility.yul\":13044:13046   */\n      dup2\n        /* \"#utility.yul\":13037:13054   */\n      mstore\n        /* \"#utility.yul\":13093:13097   */\n      0x20\n        /* \"#utility.yul\":13089:13091   */\n      dup2\n        /* \"#utility.yul\":13079:13098   */\n      keccak256\n        /* \"#utility.yul\":13163:13165   */\n      0x1f\n        /* \"#utility.yul\":13151:13161   */\n      dup6\n        /* \"#utility.yul\":13147:13166   */\n      add\n        /* \"#utility.yul\":13144:13145   */\n      0x05\n        /* \"#utility.yul\":13140:13167   */\n      shr\n        /* \"#utility.yul\":13134:13138   */\n      dup2\n        /* \"#utility.yul\":13130:13168   */\n      add\n        /* \"#utility.yul\":13199:13203   */\n      0x20\n        /* \"#utility.yul\":13187:13197   */\n      dup7\n        /* \"#utility.yul\":13184:13204   */\n      lt\n        /* \"#utility.yul\":13181:13228   */\n      iszero\n      tag_578\n      jumpi\n      pop\n        /* \"#utility.yul\":13222:13226   */\n      dup1\n        /* \"#utility.yul\":13181:13228   */\n    tag_578:\n        /* \"#utility.yul\":13277:13279   */\n      0x1f\n        /* \"#utility.yul\":13272:13275   */\n      dup6\n        /* \"#utility.yul\":13268:13280   */\n      add\n        /* \"#utility.yul\":13265:13266   */\n      0x05\n        /* \"#utility.yul\":13261:13281   */\n      shr\n        /* \"#utility.yul\":13255:13259   */\n      dup3\n        /* \"#utility.yul\":13251:13282   */\n      add\n        /* \"#utility.yul\":13241:13282   */\n      swap2\n      pop\n        /* \"#utility.yul\":13332:13414   */\n    tag_579:\n        /* \"#utility.yul\":13350:13352   */\n      dup2\n        /* \"#utility.yul\":13343:13348   */\n      dup2\n        /* \"#utility.yul\":13340:13353   */\n      lt\n        /* \"#utility.yul\":13332:13414   */\n      iszero\n      tag_581\n      jumpi\n        /* \"#utility.yul\":13395:13412   */\n      dup3\n      dup2\n      sstore\n        /* \"#utility.yul\":13376:13377   */\n      0x01\n        /* \"#utility.yul\":13365:13378   */\n      add\n        /* \"#utility.yul\":13332:13414   */\n      jump(tag_579)\n    tag_581:\n        /* \"#utility.yul\":13336:13339   */\n      pop\n      pop\n      pop\n        /* \"#utility.yul\":12976:13424   */\n    tag_577:\n        /* \"#utility.yul\":12885:13430   */\n      pop\n      pop\n      pop\n      jump\t// out\n        /* \"#utility.yul\":13606:14958   */\n    tag_349:\n        /* \"#utility.yul\":13732:13735   */\n      dup2\n        /* \"#utility.yul\":13726:13736   */\n      mload\n        /* \"#utility.yul\":13759:13777   */\n      0xffffffffffffffff\n        /* \"#utility.yul\":13751:13757   */\n      dup2\n        /* \"#utility.yul\":13748:13778   */\n      gt\n        /* \"#utility.yul\":13745:13801   */\n      iszero\n      tag_585\n      jumpi\n        /* \"#utility.yul\":13781:13799   */\n      tag_585\n      tag_476\n      jump\t// in\n    tag_585:\n        /* \"#utility.yul\":13810:13907   */\n      tag_586\n        /* \"#utility.yul\":13900:13906   */\n      dup2\n        /* \"#utility.yul\":13860:13898   */\n      tag_587\n        /* \"#utility.yul\":13892:13896   */\n      dup5\n        /* \"#utility.yul\":13886:13897   */\n      sload\n        /* \"#utility.yul\":13860:13898   */\n      tag_142\n      jump\t// in\n    tag_587:\n        /* \"#utility.yul\":13854:13858   */\n      dup5\n        /* \"#utility.yul\":13810:13907   */\n      tag_480\n      jump\t// in\n    tag_586:\n        /* \"#utility.yul\":13962:13966   */\n      0x20\n      dup1\n        /* \"#utility.yul\":14026:14028   */\n      0x1f\n        /* \"#utility.yul\":14015:14029   */\n      dup4\n      gt\n        /* \"#utility.yul\":14043:14044   */\n      0x01\n        /* \"#utility.yul\":14038:14701   */\n      dup2\n      eq\n      tag_589\n      jumpi\n        /* \"#utility.yul\":14745:14746   */\n      0x00\n        /* \"#utility.yul\":14762:14768   */\n      dup5\n        /* \"#utility.yul\":14759:14848   */\n      iszero\n      tag_590\n      jumpi\n      pop\n        /* \"#utility.yul\":14814:14833   */\n      dup6\n      dup4\n      add\n        /* \"#utility.yul\":14808:14834   */\n      mload\n        /* \"#utility.yul\":14759:14848   */\n    tag_590:\n      not(0x00)\n        /* \"#utility.yul\":13563:13564   */\n      0x03\n        /* \"#utility.yul\":13559:13570   */\n      dup7\n      swap1\n      shl\n        /* \"#utility.yul\":13555:13579   */\n      shr\n        /* \"#utility.yul\":13551:13580   */\n      not\n        /* \"#utility.yul\":13541:13581   */\n      and\n        /* \"#utility.yul\":13587:13588   */\n      0x01\n        /* \"#utility.yul\":13583:13594   */\n      dup6\n      swap1\n      shl\n        /* \"#utility.yul\":13538:13595   */\n      or\n        /* \"#utility.yul\":14861:14942   */\n      dup6\n      sstore\n        /* \"#utility.yul\":14008:14952   */\n      jump(tag_581)\n        /* \"#utility.yul\":14038:14701   */\n    tag_589:\n        /* \"#utility.yul\":12832:12833   */\n      0x00\n        /* \"#utility.yul\":12825:12839   */\n      dup6\n      dup2\n      mstore\n        /* \"#utility.yul\":12869:12873   */\n      0x20\n        /* \"#utility.yul\":12856:12874   */\n      dup2\n      keccak256\n      not(0x1f)\n        /* \"#utility.yul\":14074:14094   */\n      dup7\n      and\n      swap2\n        /* \"#utility.yul\":14192:14428   */\n    tag_593:\n        /* \"#utility.yul\":14206:14213   */\n      dup3\n        /* \"#utility.yul\":14203:14204   */\n      dup2\n        /* \"#utility.yul\":14200:14214   */\n      lt\n        /* \"#utility.yul\":14192:14428   */\n      iszero\n      tag_595\n      jumpi\n        /* \"#utility.yul\":14295:14314   */\n      dup9\n      dup7\n      add\n        /* \"#utility.yul\":14289:14315   */\n      mload\n        /* \"#utility.yul\":14274:14316   */\n      dup3\n      sstore\n        /* \"#utility.yul\":14387:14414   */\n      swap5\n      dup5\n      add\n      swap5\n        /* \"#utility.yul\":14355:14356   */\n      0x01\n        /* \"#utility.yul\":14343:14357   */\n      swap1\n      swap2\n      add\n      swap1\n        /* \"#utility.yul\":14222:14241   */\n      dup5\n      add\n        /* \"#utility.yul\":14192:14428   */\n      jump(tag_593)\n    tag_595:\n        /* \"#utility.yul\":14196:14199   */\n      pop\n        /* \"#utility.yul\":14456:14462   */\n      dup6\n        /* \"#utility.yul\":14447:14454   */\n      dup3\n        /* \"#utility.yul\":14444:14463   */\n      lt\n        /* \"#utility.yul\":14441:14642   */\n      iszero\n      tag_596\n      jumpi\n        /* \"#utility.yul\":14517:14536   */\n      dup8\n      dup6\n      add\n        /* \"#utility.yul\":14511:14537   */\n      mload\n      not(0x00)\n        /* \"#utility.yul\":14600:14601   */\n      0x03\n        /* \"#utility.yul\":14596:14610   */\n      dup9\n      swap1\n      shl\n        /* \"#utility.yul\":14612:14615   */\n      0xf8\n        /* \"#utility.yul\":14592:14616   */\n      and\n        /* \"#utility.yul\":14588:14625   */\n      shr\n        /* \"#utility.yul\":14584:14626   */\n      not\n        /* \"#utility.yul\":14569:14627   */\n      and\n        /* \"#utility.yul\":14554:14628   */\n      dup2\n      sstore\n        /* \"#utility.yul\":14441:14642   */\n    tag_596:\n      pop\n      pop\n      pop\n      pop\n      pop\n        /* \"#utility.yul\":14688:14689   */\n      0x01\n        /* \"#utility.yul\":14672:14686   */\n      swap1\n      dup2\n      shl\n        /* \"#utility.yul\":14668:14690   */\n      add\n        /* \"#utility.yul\":14655:14691   */\n      swap1\n      sstore\n      pop\n        /* \"#utility.yul\":13606:14958   */\n      jump\t// out\n        /* \"#utility.yul\":14963:15710   */\n    tag_393:\n        /* \"#utility.yul\":15264:15267   */\n      0xa0\n        /* \"#utility.yul\":15253:15262   */\n      dup2\n        /* \"#utility.yul\":15246:15268   */\n      mstore\n        /* \"#utility.yul\":15227:15231   */\n      0x00\n        /* \"#utility.yul\":15291:15337   */\n      tag_598\n        /* \"#utility.yul\":15332:15335   */\n      0xa0\n        /* \"#utility.yul\":15321:15330   */\n      dup4\n        /* \"#utility.yul\":15317:15336   */\n      add\n        /* \"#utility.yul\":15309:15315   */\n      dup9\n        /* \"#utility.yul\":15291:15337   */\n      tag_473\n      jump\t// in\n    tag_598:\n        /* \"#utility.yul\":15385:15394   */\n      dup3\n        /* \"#utility.yul\":15377:15383   */\n      dup2\n        /* \"#utility.yul\":15373:15395   */\n      sub\n        /* \"#utility.yul\":15368:15370   */\n      0x20\n        /* \"#utility.yul\":15357:15366   */\n      dup5\n        /* \"#utility.yul\":15353:15371   */\n      add\n        /* \"#utility.yul\":15346:15396   */\n      mstore\n        /* \"#utility.yul\":15419:15452   */\n      tag_599\n        /* \"#utility.yul\":15445:15451   */\n      dup2\n        /* \"#utility.yul\":15437:15443   */\n      dup9\n        /* \"#utility.yul\":15419:15452   */\n      tag_473\n      jump\t// in\n    tag_599:\n      sub(shl(0xa0, 0x01), 0x01)\n        /* \"#utility.yul\":15526:15541   */\n      dup8\n      dup2\n      and\n        /* \"#utility.yul\":15521:15523   */\n      0x40\n        /* \"#utility.yul\":15506:15524   */\n      dup7\n      add\n        /* \"#utility.yul\":15499:15542   */\n      mstore\n        /* \"#utility.yul\":15578:15600   */\n      dup5\n      dup3\n      sub\n        /* \"#utility.yul\":15573:15575   */\n      0x60\n        /* \"#utility.yul\":15558:15576   */\n      dup7\n      add\n        /* \"#utility.yul\":15551:15601   */\n      mstore\n        /* \"#utility.yul\":15405:15452   */\n      swap1\n      swap2\n      pop\n        /* \"#utility.yul\":15618:15651   */\n      tag_600\n        /* \"#utility.yul\":15405:15452   */\n      dup3\n        /* \"#utility.yul\":15636:15642   */\n      dup8\n        /* \"#utility.yul\":15618:15651   */\n      tag_473\n      jump\t// in\n    tag_600:\n        /* \"#utility.yul\":15610:15651   */\n      swap3\n      pop\n        /* \"#utility.yul\":15700:15702   */\n      dup1\n        /* \"#utility.yul\":15692:15698   */\n      dup6\n        /* \"#utility.yul\":15688:15703   */\n      and\n        /* \"#utility.yul\":15682:15685   */\n      0x80\n        /* \"#utility.yul\":15671:15680   */\n      dup6\n        /* \"#utility.yul\":15667:15686   */\n      add\n        /* \"#utility.yul\":15660:15704   */\n      mstore\n      pop\n      pop\n        /* \"#utility.yul\":14963:15710   */\n      swap7\n      swap6\n      pop\n      pop\n      pop\n      pop\n      pop\n      pop\n      jump\t// out\n\n    auxdata: 0xa26469706673582212207319e344e1352e202ffdf8b359c04d180cce8e8cdb61d7cbb001bef68f364d5164736f6c63430008150033\n}\n",
				"bytecode": {
					"linkReferences": {},
					"object": "60806040526008805460ff60a01b1916600160a01b1790556009805463ffffffff60a01b1916905534801562000033575f80fd5b5060405162002ed438038062002ed4833981016040819052620000569162000166565b335f818152600460205260409020805460ff19166001179055600880546001600160a01b0319169091179055600a62000090838262000258565b50600b6200009f828262000258565b50505062000320565b634e487b7160e01b5f52604160045260245ffd5b5f82601f830112620000cc575f80fd5b81516001600160401b0380821115620000e957620000e9620000a8565b604051601f8301601f19908116603f01168101908282118183101715620001145762000114620000a8565b8160405283815260209250868385880101111562000130575f80fd5b5f91505b8382101562000153578582018301518183018401529082019062000134565b5f93810190920192909252949350505050565b5f806040838503121562000178575f80fd5b82516001600160401b03808211156200018f575f80fd5b6200019d86838701620000bc565b93506020850151915080821115620001b3575f80fd5b50620001c285828601620000bc565b9150509250929050565b600181811c90821680620001e157607f821691505b6020821081036200020057634e487b7160e01b5f52602260045260245ffd5b50919050565b601f82111562000253575f81815260208120601f850160051c810160208610156200022e5750805b601f850160051c820191505b818110156200024f578281556001016200023a565b5050505b505050565b81516001600160401b03811115620002745762000274620000a8565b6200028c81620002858454620001cc565b8462000206565b602080601f831160018114620002c2575f8415620002aa5750858301515b5f19600386901b1c1916600185901b1785556200024f565b5f85815260208120601f198616915b82811015620002f257888601518255948401946001909101908401620002d1565b50858210156200031057878501515f19600388901b60f8161c191681555b5050505050600190811b01905550565b612ba6806200032e5f395ff3fe60806040526004361061013c575f3560e01c806395d89b41116100b3578063c4b14e0b1161006d578063c4b14e0b14610368578063c8c2f4fe14610387578063ce7262a11461039a578063d84ab181146103ad578063dc2aa909146103c0578063e516224e146103d4575f80fd5b806395d89b41146102a75780639dfb7831146102bb578063a2309ff8146102ce578063b69ef8a814610301578063beb9716d1461032b578063bff2d53614610349575f80fd5b80633fde3309116101045780633fde3309146102105780636d73e669146102245780636ff968c3146102375780637ea5cc1a1461025657806383fc58b41461027557806384e26b2c14610288575f80fd5b806306fdde03146101405780630c0bd76b1461016a57806310e5bff814610196578063147bf6c4146101c1578063369f6cd7146101e4575b5f80fd5b34801561014b575f80fd5b506101546103e7565b6040516101619190612595565b60405180910390f35b348015610175575f80fd5b506101896101843660046125ae565b610477565b60405161016191906125c5565b6101a96101a4366004612681565b610706565b6040516001600160a01b039091168152602001610161565b6101d46101cf366004612681565b6107ad565b6040519015158152602001610161565b3480156101ef575f80fd5b506102036101fe366004612681565b610895565b604051610161919061269a565b34801561021b575f80fd5b50610203610919565b6101d4610232366004612681565b610976565b348015610242575f80fd5b506009546101a9906001600160a01b031681565b348015610261575f80fd5b506101d461027036600461277a565b610a7f565b6101d4610283366004612681565b610aed565b348015610293575f80fd5b506101a96102a2366004612843565b610b94565b3480156102b2575f80fd5b50610154610bde565b6101d46102c936600461287d565b610bed565b3480156102d9575f80fd5b506009546102ee90600160a01b900460030b81565b60405160039190910b8152602001610161565b34801561030c575f80fd5b50335f908152600760205260409020545b604051908152602001610161565b348015610336575f80fd5b50600854600160a01b900460ff166101d4565b348015610354575f80fd5b506101d46103633660046125ae565b610c62565b348015610373575f80fd5b506101896103823660046125ae565b610e91565b6101d461039536600461287d565b6110c4565b61031d6103a836600461277a565b6111df565b6101d46103bb3660046125ae565b6114eb565b3480156103cb575f80fd5b506101d461191c565b6101896103e23660046128c8565b611973565b6060600a80546103f6906128f0565b80601f0160208091040260200160405190810160405280929190818152602001828054610422906128f0565b801561046d5780601f106104445761010080835404028352916020019161046d565b820191905f5260205f20905b81548152906001019060200180831161045057829003601f168201915b5050505050905090565b61047f6124bc565b5f82815260208190526040808220815160e081019092528054829082906104a5906128f0565b80601f01602080910402602001604051908101604052809291908181526020018280546104d1906128f0565b801561051c5780601f106104f35761010080835404028352916020019161051c565b820191905f5260205f20905b8154815290600101906020018083116104ff57829003601f168201915b50505050508152602001600182018054610535906128f0565b80601f0160208091040260200160405190810160405280929190818152602001828054610561906128f0565b80156105ac5780601f10610583576101008083540402835291602001916105ac565b820191905f5260205f20905b81548152906001019060200180831161058f57829003601f168201915b505050918352505060028201546001600160a01b031660208201526003820180546040909201916105dc906128f0565b80601f0160208091040260200160405190810160405280929190818152602001828054610608906128f0565b80156106535780601f1061062a57610100808354040283529160200191610653565b820191905f5260205f20905b81548152906001019060200180831161063657829003601f168201915b505050918352505060048201546001600160a01b039081166020830152600583015460408084019190915260069093015460ff161515606090920191909152908201519192501633146107005760405162461bcd60e51b815260206004820152602a60248201527f596f75206d6f6e737420626520746865206f776e657220746f2073686f772064604482015269185d18481cda59db995960b21b60648201526084015b60405180910390fd5b92915050565b6008545f906001600160a01b031633146107325760405162461bcd60e51b81526004016106f790612928565b6001600160a01b0382166107885760405162461bcd60e51b815260206004820152601760248201527f4d75737420626520612076616c6964206164647265737300000000000000000060448201526064016106f7565b50600980546001600160a01b0319166001600160a01b0383169081179091555b919050565b335f9081526004602052604081205460ff166107c7575f80fd5b6001600160a01b0382165f9081526005602052604090205460ff1615156001036108335760405162461bcd60e51b815260206004820181905260248201527f6164647265737320666f722061646d696e20616c726564792070726f706f736560448201526064016106f7565b6001600160a01b0382165f81815260056020908152604091829020805460ff1916600190811790915591519182527ffcd0029428c001bd11d12d6e8302dda11ac68335a836d75d43004bf4ca7292ef91015b60405180910390a2506001919050565b335f9081526004602052604090205460609060ff166108b2575f80fd5b6001600160a01b0382165f908152600160209081526040918290208054835181840281018401909452808452909183018282801561090d57602002820191905f5260205f20905b8154815260200190600101908083116108f9575b50505050509050919050565b335f9081526001602090815260409182902080548351818402810184019094528084526060939283018282801561046d57602002820191905f5260205f20905b815481526020019060010190808311610959575050505050905090565b6008545f906001600160a01b031633146109a25760405162461bcd60e51b81526004016106f790612928565b6001600160a01b0382165f9081526005602052604090205460ff161515600114610a1a5760405162461bcd60e51b815260206004820152602360248201527f61646472657373206d757374206265207265676973747265642062792061646d604482015262696e7360e81b60648201526084016106f7565b6001600160a01b0382165f8181526004602090815260408083208054600160ff19918216811790925560058452938290208054909416909355519182527f9aab773cc5c7f377774352463d765fa3acae0bc1c83c44357f4405639ebab44a9101610885565b335f9081526004602052604081205460ff16610a99575f80fd5b5f610ad78784610aa889610b94565b8760068a604051610ab9919061295f565b908152604051908190036020019020546001600160a01b0316611c74565b9050610ae281610c62565b979650505050505050565b6008545f906001600160a01b03163314610b195760405162461bcd60e51b81526004016106f790612928565b6001600160a01b038216610b6f5760405162461bcd60e51b815260206004820152601d60248201527f4f776e65722063616e27742062652061205a65726f206164647265737300000060448201526064016106f7565b50600880546001600160a01b0383166001600160a01b03199091161790556001919050565b335f9081526004602052604081205460ff16610bae575f80fd5b600382604051610bbe919061295f565b908152604051908190036020019020546001600160a01b03169050919050565b6060600b80546103f6906128f0565b6008545f906001600160a01b03163314610c195760405162461bcd60e51b81526004016106f790612928565b81600384604051610c2a919061295f565b90815260405190819003602001902080546001600160a01b03929092166001600160a01b031990921691909117905550600192915050565b5f805f808481526020019081526020015f206040518060e00160405290815f82018054610c8e906128f0565b80601f0160208091040260200160405190810160405280929190818152602001828054610cba906128f0565b8015610d055780601f10610cdc57610100808354040283529160200191610d05565b820191905f5260205f20905b815481529060010190602001808311610ce857829003601f168201915b50505050508152602001600182018054610d1e906128f0565b80601f0160208091040260200160405190810160405280929190818152602001828054610d4a906128f0565b8015610d955780601f10610d6c57610100808354040283529160200191610d95565b820191905f5260205f20905b815481529060010190602001808311610d7857829003601f168201915b505050918352505060028201546001600160a01b03166020820152600382018054604090920191610dc5906128f0565b80601f0160208091040260200160405190810160405280929190818152602001828054610df1906128f0565b8015610e3c5780601f10610e1357610100808354040283529160200191610e3c565b820191905f5260205f20905b815481529060010190602001808311610e1f57829003601f168201915b505050918352505060048201546001600160a01b031660208201526005820154604082015260069091015460ff16151560609091015260a08101519091505f03610e8857505f92915050565b50600192915050565b610e996124bc565b335f9081526004602052604090205460ff16610eb3575f80fd5b5f8281526020819052604090819020815160e08101909252805482908290610eda906128f0565b80601f0160208091040260200160405190810160405280929190818152602001828054610f06906128f0565b8015610f515780601f10610f2857610100808354040283529160200191610f51565b820191905f5260205f20905b815481529060010190602001808311610f3457829003601f168201915b50505050508152602001600182018054610f6a906128f0565b80601f0160208091040260200160405190810160405280929190818152602001828054610f96906128f0565b8015610fe15780601f10610fb857610100808354040283529160200191610fe1565b820191905f5260205f20905b815481529060010190602001808311610fc457829003601f168201915b505050918352505060028201546001600160a01b03166020820152600382018054604090920191611011906128f0565b80601f016020809104026020016040519081016040528092919081815260200182805461103d906128f0565b80156110885780601f1061105f57610100808354040283529160200191611088565b820191905f5260205f20905b81548152906001019060200180831161106b57829003601f168201915b505050918352505060048201546001600160a01b031660208201526005820154604082015260069091015460ff16151560609091015292915050565b6008545f906001600160a01b031633146110f05760405162461bcd60e51b81526004016106f790612928565b5f6001600160a01b031660068460405161110a919061295f565b908152604051908190036020019020546001600160a01b0316146111685760405162461bcd60e51b81526020600482015260156024820152741059191c995cdcc8185b1c9958591e481859191959605a1b60448201526064016106f7565b81600684604051611179919061295f565b9081526040516020918190038201812080546001600160a01b0319166001600160a01b0394851617905560018152918416917fa590b4fc649a56bfc2765312a8b4becaa85a972fd5403de3f9a0a4270c40e71e910160405180910390a250600192915050565b6008545f906001600160a01b0316331461120b5760405162461bcd60e51b81526004016106f790612928565b600854600160a01b900460ff1615156001146112695760405162461bcd60e51b815260206004820152601f60248201527f4d696e74696e67206861732073746f70656420627920746865206f776e65720060448201526064016106f7565b5f61127386610b94565b6001600160a01b0316036112c95760405162461bcd60e51b815260206004820152601e60248201527f526966204e6f742052656769737472656420686173205461787061796572000060448201526064016106f7565b5f6001600160a01b03166006856040516112e3919061295f565b908152604051908190036020019020546001600160a01b0316036113495760405162461bcd60e51b815260206004820181905260248201527f417070726f766572204e6f7420526567697374726564206861732056616c696460448201526064016106f7565b61135285610b94565b6001600160a01b031660068560405161136b919061295f565b908152604051908190036020019020546001600160a01b0316036113d15760405162461bcd60e51b815260206004820152601d60248201527f417070726f7665722063616e6e6f742070726f76652068696d73656c6600000060448201526064016106f7565b5f6113e08784610aa889610b94565b90505f6040518060e0016040528089815260200185815260200161140389610b94565b6001600160a01b03168152602001868152602001600688604051611427919061295f565b9081526040805160209281900383019020546001600160a01b031683529082018590526001910152905061145a81611cda565b50600980546001919060149061147b908490600160a01b900460030b61298e565b92506101000a81548163ffffffff021916908360030b63ffffffff160217905550600160075f6114aa8a610b94565b6001600160a01b03166001600160a01b031681526020019081526020015f205f8282546114d791906129b5565b909155505060a00151979650505050505050565b335f9081526004602052604081205460ff16611505575f80fd5b5f82815260208190526040808220815160e0810190925280548290829061152b906128f0565b80601f0160208091040260200160405190810160405280929190818152602001828054611557906128f0565b80156115a25780601f10611579576101008083540402835291602001916115a2565b820191905f5260205f20905b81548152906001019060200180831161158557829003601f168201915b505050505081526020016001820180546115bb906128f0565b80601f01602080910402602001604051908101604052809291908181526020018280546115e7906128f0565b80156116325780601f1061160957610100808354040283529160200191611632565b820191905f5260205f20905b81548152906001019060200180831161161557829003601f168201915b505050918352505060028201546001600160a01b03166020820152600382018054604090920191611662906128f0565b80601f016020809104026020016040519081016040528092919081815260200182805461168e906128f0565b80156116d95780601f106116b0576101008083540402835291602001916116d9565b820191905f5260205f20905b8154815290600101906020018083116116bc57829003601f168201915b505050918352505060048201546001600160a01b03166020820152600582015460408083019190915260069092015460ff1615156060909101528101519091506117249084906122a5565b6040808201516001600160a01b03165f90815260076020529081208054600192906117509084906129c8565b90915550506040808201516001600160a01b03165f90815260016020908152828220805484518184028101840190955280855292939290918301828280156117b557602002820191905f5260205f20905b8154815260200190600101908083116117a1575b505050505090505f5b815181101561182f57848282815181106117da576117da6129db565b60200260200101510361181d576040808401516001600160a01b03165f908152600160205220805482908110611812576118126129db565b5f9182526020822001555b80611827816129ef565b9150506117be565b505f60c083018190526040808401516001600160a01b031682526002602090815290822080546001810182559083529120835184926007029091019081906118779082612a55565b506020820151600182019061188c9082612a55565b5060408201516002820180546001600160a01b0319166001600160a01b03909216919091179055606082015160038201906118c79082612a55565b5060808201516004820180546001600160a01b0319166001600160a01b0390921691909117905560a0820151600582015560c0909101516006909101805460ff19169115159190911790555060019392505050565b6008545f906001600160a01b031633146119485760405162461bcd60e51b81526004016106f790612928565b506008805460ff600160a01b808304821615810260ff60a01b19909316929092179283905591041690565b61197b6124bc565b6008546001600160a01b031633146119a55760405162461bcd60e51b81526004016106f790612928565b6001600160a01b0383165f90815260026020908152604080832080548251818502810185019093528083529192909190849084015b82821015611c02578382905f5260205f2090600702016040518060e00160405290815f82018054611a0a906128f0565b80601f0160208091040260200160405190810160405280929190818152602001828054611a36906128f0565b8015611a815780601f10611a5857610100808354040283529160200191611a81565b820191905f5260205f20905b815481529060010190602001808311611a6457829003601f168201915b50505050508152602001600182018054611a9a906128f0565b80601f0160208091040260200160405190810160405280929190818152602001828054611ac6906128f0565b8015611b115780601f10611ae857610100808354040283529160200191611b11565b820191905f5260205f20905b815481529060010190602001808311611af457829003601f168201915b505050918352505060028201546001600160a01b03166020820152600382018054604090920191611b41906128f0565b80601f0160208091040260200160405190810160405280929190818152602001828054611b6d906128f0565b8015611bb85780601f10611b8f57610100808354040283529160200191611bb8565b820191905f5260205f20905b815481529060010190602001808311611b9b57829003601f168201915b505050918352505060048201546001600160a01b03166020808301919091526005830154604083015260069092015460ff16151560609091015290825260019290920191016119da565b5050505090505f5b8151811015611c6c5783828281518110611c2657611c266129db565b602002602001015160a0015103611c5a57818181518110611c4957611c496129db565b602002602001015192505050610700565b80611c64816129ef565b915050611c0a565b505092915050565b6008545f906001600160a01b03163314611ca05760405162461bcd60e51b81526004016106f790612928565b8585858585604051602001611cb9959493929190612b11565b60405160208183030381529060405280519060200120905095945050505050565b6008545f906001600160a01b03163314611d065760405162461bcd60e51b81526004016106f790612928565b60a08201515f90815260208190526040808220815160e08101909252805482908290611d31906128f0565b80601f0160208091040260200160405190810160405280929190818152602001828054611d5d906128f0565b8015611da85780601f10611d7f57610100808354040283529160200191611da8565b820191905f5260205f20905b815481529060010190602001808311611d8b57829003601f168201915b50505050508152602001600182018054611dc1906128f0565b80601f0160208091040260200160405190810160405280929190818152602001828054611ded906128f0565b8015611e385780601f10611e0f57610100808354040283529160200191611e38565b820191905f5260205f20905b815481529060010190602001808311611e1b57829003601f168201915b505050918352505060028201546001600160a01b03166020820152600382018054604090920191611e68906128f0565b80601f0160208091040260200160405190810160405280929190818152602001828054611e94906128f0565b8015611edf5780601f10611eb657610100808354040283529160200191611edf565b820191905f5260205f20905b815481529060010190602001808311611ec257829003601f168201915b505050918352505060048201546001600160a01b031660208201526005820154604082015260069091015460ff16151560609091015260c08101519091501515600103611f665760405162461bcd60e51b81526020600482015260156024820152744c6963656e736520416c726564792045786973747360581b60448201526064016106f7565b6040808401516001600160a01b03165f9081526001602090815282822080548451818402810184019095528085529293929091830182828015611fc657602002820191905f5260205f20905b815481526020019060010190808311611fb2575b505050505090505f5b8151811015612291575f80838381518110611fec57611fec6129db565b602002602001015181526020019081526020015f206040518060e00160405290815f8201805461201b906128f0565b80601f0160208091040260200160405190810160405280929190818152602001828054612047906128f0565b80156120925780601f1061206957610100808354040283529160200191612092565b820191905f5260205f20905b81548152906001019060200180831161207557829003601f168201915b505050505081526020016001820180546120ab906128f0565b80601f01602080910402602001604051908101604052809291908181526020018280546120d7906128f0565b80156121225780601f106120f957610100808354040283529160200191612122565b820191905f5260205f20905b81548152906001019060200180831161210557829003601f168201915b505050918352505060028201546001600160a01b03166020820152600382018054604090920191612152906128f0565b80601f016020809104026020016040519081016040528092919081815260200182805461217e906128f0565b80156121c95780601f106121a0576101008083540402835291602001916121c9565b820191905f5260205f20905b8154815290600101906020018083116121ac57829003601f168201915b505050918352505060048201546001600160a01b03166020808301919091526005830154604083015260069092015460ff16151560609091015286810151805190820120828201518051920191909120919450900361227f57612249828281518110612237576122376129db565b602002602001015186604001516122a5565b6040808601516001600160a01b03165f908152600160205220805482908110612274576122746129db565b5f9182526020822001555b80612289816129ef565b915050611fcf565b5061229b84612369565b5060019392505050565b335f9081526004602052604090205460ff166122bf575f80fd5b5f828152602081905260408120906122d782826124f6565b6122e4600183015f6124f6565b6002820180546001600160a01b0319169055612303600383015f6124f6565b506004810180546001600160a01b03191690555f6005820155600601805460ff191690556040518281526001600160a01b038216907ffba9aeb04fd7e91a1cb29583e8d8bb97d3874361cc1f0b29f6e33f6d3047d8cf9060200160405180910390a25050565b6008546001600160a01b031633146123935760405162461bcd60e51b81526004016106f790612928565b60a08101515f908152602081905260409020815182919081906123b69082612a55565b50602082015160018201906123cb9082612a55565b5060408201516002820180546001600160a01b0319166001600160a01b03909216919091179055606082015160038201906124069082612a55565b5060808201516004820180546001600160a01b0319166001600160a01b0392831617905560a080840151600584015560c0909301516006909201805460ff1916921515929092179091556040838101805183165f908152600160208181528483209688018051885493840189559784529281902090910195909555905190519151918252909116917f88b059e42378123793b6b50c667570312662bfbe8c07098828e5639754fa1e5b910160405180910390a250565b6040805160e0810182526060808252602082018190525f928201839052808201526080810182905260a0810182905260c081019190915290565b508054612502906128f0565b5f825580601f10612511575050565b601f0160209004905f5260205f209081019061252d9190612530565b50565b5b80821115612544575f8155600101612531565b5090565b5f5b8381101561256257818101518382015260200161254a565b50505f910152565b5f8151808452612581816020860160208601612548565b601f01601f19169290920160200192915050565b602081525f6125a7602083018461256a565b9392505050565b5f602082840312156125be575f80fd5b5035919050565b602081525f825160e060208401526125e161010084018261256a565b90506020840151601f19808584030160408601526125ff838361256a565b60408701516001600160a01b0390811660608881019190915288015187830384016080890152919450909250612635848461256a565b93508060808801511660a087015250505060a084015160c084015260c084015161266360e085018215159052565b509392505050565b80356001600160a01b03811681146107a8575f80fd5b5f60208284031215612691575f80fd5b6125a78261266b565b602080825282518282018190525f9190848201906040850190845b818110156126d1578351835292840192918401916001016126b5565b50909695505050505050565b634e487b7160e01b5f52604160045260245ffd5b5f82601f830112612700575f80fd5b813567ffffffffffffffff8082111561271b5761271b6126dd565b604051601f8301601f19908116603f01168101908282118183101715612743576127436126dd565b8160405283815286602085880101111561275b575f80fd5b836020870160208301375f602085830101528094505050505092915050565b5f805f805f60a0868803121561278e575f80fd5b853567ffffffffffffffff808211156127a5575f80fd5b6127b189838a016126f1565b965060208801359150808211156127c6575f80fd5b6127d289838a016126f1565b955060408801359150808211156127e7575f80fd5b6127f389838a016126f1565b94506060880135915080821115612808575f80fd5b61281489838a016126f1565b93506080880135915080821115612829575f80fd5b50612836888289016126f1565b9150509295509295909350565b5f60208284031215612853575f80fd5b813567ffffffffffffffff811115612869575f80fd5b612875848285016126f1565b949350505050565b5f806040838503121561288e575f80fd5b823567ffffffffffffffff8111156128a4575f80fd5b6128b0858286016126f1565b9250506128bf6020840161266b565b90509250929050565b5f80604083850312156128d9575f80fd5b6128e28361266b565b946020939093013593505050565b600181811c9082168061290457607f821691505b60208210810361292257634e487b7160e01b5f52602260045260245ffd5b50919050565b60208082526017908201527f4f6e6c79204f776e65722063616e206163746976617465000000000000000000604082015260600190565b5f8251612970818460208701612548565b9190910192915050565b634e487b7160e01b5f52601160045260245ffd5b600381810b9083900b01637fffffff8113637fffffff19821217156107005761070061297a565b808201808211156107005761070061297a565b818103818111156107005761070061297a565b634e487b7160e01b5f52603260045260245ffd5b5f60018201612a0057612a0061297a565b5060010190565b601f821115612a50575f81815260208120601f850160051c81016020861015612a2d5750805b601f850160051c820191505b81811015612a4c57828155600101612a39565b5050505b505050565b815167ffffffffffffffff811115612a6f57612a6f6126dd565b612a8381612a7d84546128f0565b84612a07565b602080601f831160018114612ab6575f8415612a9f5750858301515b5f19600386901b1c1916600185901b178555612a4c565b5f85815260208120601f198616915b82811015612ae457888601518255948401946001909101908401612ac5565b5085821015612b0157878501515f19600388901b60f8161c191681555b5050505050600190811b01905550565b60a081525f612b2360a083018861256a565b8281036020840152612b35818861256a565b6001600160a01b0387811660408601528482036060860152909150612b5a828761256a565b925080851660808501525050969550505050505056fea26469706673582212207319e344e1352e202ffdf8b359c04d180cce8e8cdb61d7cbb001bef68f364d5164736f6c63430008150033",
					"opcodes": "PUSH1 0x80 PUSH1 0x40 MSTORE PUSH1 0x8 DUP1 SLOAD PUSH1 0xFF PUSH1 0xA0 SHL NOT AND PUSH1 0x1 PUSH1 0xA0 SHL OR SWAP1 SSTORE PUSH1 0x9 DUP1 SLOAD PUSH4 0xFFFFFFFF PUSH1 0xA0 SHL NOT AND SWAP1 SSTORE CALLVALUE DUP1 ISZERO PUSH3 0x33 JUMPI PUSH0 DUP1 REVERT JUMPDEST POP PUSH1 0x40 MLOAD PUSH3 0x2ED4 CODESIZE SUB DUP1 PUSH3 0x2ED4 DUP4 CODECOPY DUP2 ADD PUSH1 0x40 DUP2 SWAP1 MSTORE PUSH3 0x56 SWAP2 PUSH3 0x166 JUMP JUMPDEST CALLER PUSH0 DUP2 DUP2 MSTORE PUSH1 0x4 PUSH1 0x20 MSTORE PUSH1 0x40 SWAP1 KECCAK256 DUP1 SLOAD PUSH1 0xFF NOT AND PUSH1 0x1 OR SWAP1 SSTORE PUSH1 0x8 DUP1 SLOAD PUSH1 0x1 PUSH1 0x1 PUSH1 0xA0 SHL SUB NOT AND SWAP1 SWAP2 OR SWAP1 SSTORE PUSH1 0xA PUSH3 0x90 DUP4 DUP3 PUSH3 0x258 JUMP JUMPDEST POP PUSH1 0xB PUSH3 0x9F DUP3 DUP3 PUSH3 0x258 JUMP JUMPDEST POP POP POP PUSH3 0x320 JUMP JUMPDEST PUSH4 0x4E487B71 PUSH1 0xE0 SHL PUSH0 MSTORE PUSH1 0x41 PUSH1 0x4 MSTORE PUSH1 0x24 PUSH0 REVERT JUMPDEST PUSH0 DUP3 PUSH1 0x1F DUP4 ADD SLT PUSH3 0xCC JUMPI PUSH0 DUP1 REVERT JUMPDEST DUP2 MLOAD PUSH1 0x1 PUSH1 0x1 PUSH1 0x40 SHL SUB DUP1 DUP3 GT ISZERO PUSH3 0xE9 JUMPI PUSH3 0xE9 PUSH3 0xA8 JUMP JUMPDEST PUSH1 0x40 MLOAD PUSH1 0x1F DUP4 ADD PUSH1 0x1F NOT SWAP1 DUP2 AND PUSH1 0x3F ADD AND DUP2 ADD SWAP1 DUP3 DUP3 GT DUP2 DUP4 LT OR ISZERO PUSH3 0x114 JUMPI PUSH3 0x114 PUSH3 0xA8 JUMP JUMPDEST DUP2 PUSH1 0x40 MSTORE DUP4 DUP2 MSTORE PUSH1 0x20 SWAP3 POP DUP7 DUP4 DUP6 DUP9 ADD ADD GT ISZERO PUSH3 0x130 JUMPI PUSH0 DUP1 REVERT JUMPDEST PUSH0 SWAP2 POP JUMPDEST DUP4 DUP3 LT ISZERO PUSH3 0x153 JUMPI DUP6 DUP3 ADD DUP4 ADD MLOAD DUP2 DUP4 ADD DUP5 ADD MSTORE SWAP1 DUP3 ADD SWAP1 PUSH3 0x134 JUMP JUMPDEST PUSH0 SWAP4 DUP2 ADD SWAP1 SWAP3 ADD SWAP3 SWAP1 SWAP3 MSTORE SWAP5 SWAP4 POP POP POP POP JUMP JUMPDEST PUSH0 DUP1 PUSH1 0x40 DUP4 DUP6 SUB SLT ISZERO PUSH3 0x178 JUMPI PUSH0 DUP1 REVERT JUMPDEST DUP3 MLOAD PUSH1 0x1 PUSH1 0x1 PUSH1 0x40 SHL SUB DUP1 DUP3 GT ISZERO PUSH3 0x18F JUMPI PUSH0 DUP1 REVERT JUMPDEST PUSH3 0x19D DUP7 DUP4 DUP8 ADD PUSH3 0xBC JUMP JUMPDEST SWAP4 POP PUSH1 0x20 DUP6 ADD MLOAD SWAP2 POP DUP1 DUP3 GT ISZERO PUSH3 0x1B3 JUMPI PUSH0 DUP1 REVERT JUMPDEST POP PUSH3 0x1C2 DUP6 DUP3 DUP7 ADD PUSH3 0xBC JUMP JUMPDEST SWAP2 POP POP SWAP3 POP SWAP3 SWAP1 POP JUMP JUMPDEST PUSH1 0x1 DUP2 DUP2 SHR SWAP1 DUP3 AND DUP1 PUSH3 0x1E1 JUMPI PUSH1 0x7F DUP3 AND SWAP2 POP JUMPDEST PUSH1 0x20 DUP3 LT DUP2 SUB PUSH3 0x200 JUMPI PUSH4 0x4E487B71 PUSH1 0xE0 SHL PUSH0 MSTORE PUSH1 0x22 PUSH1 0x4 MSTORE PUSH1 0x24 PUSH0 REVERT JUMPDEST POP SWAP2 SWAP1 POP JUMP JUMPDEST PUSH1 0x1F DUP3 GT ISZERO PUSH3 0x253 JUMPI PUSH0 DUP2 DUP2 MSTORE PUSH1 0x20 DUP2 KECCAK256 PUSH1 0x1F DUP6 ADD PUSH1 0x5 SHR DUP2 ADD PUSH1 0x20 DUP7 LT ISZERO PUSH3 0x22E JUMPI POP DUP1 JUMPDEST PUSH1 0x1F DUP6 ADD PUSH1 0x5 SHR DUP3 ADD SWAP2 POP JUMPDEST DUP2 DUP2 LT ISZERO PUSH3 0x24F JUMPI DUP3 DUP2 SSTORE PUSH1 0x1 ADD PUSH3 0x23A JUMP JUMPDEST POP POP POP JUMPDEST POP POP POP JUMP JUMPDEST DUP2 MLOAD PUSH1 0x1 PUSH1 0x1 PUSH1 0x40 SHL SUB DUP2 GT ISZERO PUSH3 0x274 JUMPI PUSH3 0x274 PUSH3 0xA8 JUMP JUMPDEST PUSH3 0x28C DUP2 PUSH3 0x285 DUP5 SLOAD PUSH3 0x1CC JUMP JUMPDEST DUP5 PUSH3 0x206 JUMP JUMPDEST PUSH1 0x20 DUP1 PUSH1 0x1F DUP4 GT PUSH1 0x1 DUP2 EQ PUSH3 0x2C2 JUMPI PUSH0 DUP5 ISZERO PUSH3 0x2AA JUMPI POP DUP6 DUP4 ADD MLOAD JUMPDEST PUSH0 NOT PUSH1 0x3 DUP7 SWAP1 SHL SHR NOT AND PUSH1 0x1 DUP6 SWAP1 SHL OR DUP6 SSTORE PUSH3 0x24F JUMP JUMPDEST PUSH0 DUP6 DUP2 MSTORE PUSH1 0x20 DUP2 KECCAK256 PUSH1 0x1F NOT DUP7 AND SWAP2 JUMPDEST DUP3 DUP2 LT ISZERO PUSH3 0x2F2 JUMPI DUP9 DUP7 ADD MLOAD DUP3 SSTORE SWAP5 DUP5 ADD SWAP5 PUSH1 0x1 SWAP1 SWAP2 ADD SWAP1 DUP5 ADD PUSH3 0x2D1 JUMP JUMPDEST POP DUP6 DUP3 LT ISZERO PUSH3 0x310 JUMPI DUP8 DUP6 ADD MLOAD PUSH0 NOT PUSH1 0x3 DUP9 SWAP1 SHL PUSH1 0xF8 AND SHR NOT AND DUP2 SSTORE JUMPDEST POP POP POP POP POP PUSH1 0x1 SWAP1 DUP2 SHL ADD SWAP1 SSTORE POP JUMP JUMPDEST PUSH2 0x2BA6 DUP1 PUSH3 0x32E PUSH0 CODECOPY PUSH0 RETURN INVALID PUSH1 0x80 PUSH1 0x40 MSTORE PUSH1 0x4 CALLDATASIZE LT PUSH2 0x13C JUMPI PUSH0 CALLDATALOAD PUSH1 0xE0 SHR DUP1 PUSH4 0x95D89B41 GT PUSH2 0xB3 JUMPI DUP1 PUSH4 0xC4B14E0B GT PUSH2 0x6D JUMPI DUP1 PUSH4 0xC4B14E0B EQ PUSH2 0x368 JUMPI DUP1 PUSH4 0xC8C2F4FE EQ PUSH2 0x387 JUMPI DUP1 PUSH4 0xCE7262A1 EQ PUSH2 0x39A JUMPI DUP1 PUSH4 0xD84AB181 EQ PUSH2 0x3AD JUMPI DUP1 PUSH4 0xDC2AA909 EQ PUSH2 0x3C0 JUMPI DUP1 PUSH4 0xE516224E EQ PUSH2 0x3D4 JUMPI PUSH0 DUP1 REVERT JUMPDEST DUP1 PUSH4 0x95D89B41 EQ PUSH2 0x2A7 JUMPI DUP1 PUSH4 0x9DFB7831 EQ PUSH2 0x2BB JUMPI DUP1 PUSH4 0xA2309FF8 EQ PUSH2 0x2CE JUMPI DUP1 PUSH4 0xB69EF8A8 EQ PUSH2 0x301 JUMPI DUP1 PUSH4 0xBEB9716D EQ PUSH2 0x32B JUMPI DUP1 PUSH4 0xBFF2D536 EQ PUSH2 0x349 JUMPI PUSH0 DUP1 REVERT JUMPDEST DUP1 PUSH4 0x3FDE3309 GT PUSH2 0x104 JUMPI DUP1 PUSH4 0x3FDE3309 EQ PUSH2 0x210 JUMPI DUP1 PUSH4 0x6D73E669 EQ PUSH2 0x224 JUMPI DUP1 PUSH4 0x6FF968C3 EQ PUSH2 0x237 JUMPI DUP1 PUSH4 0x7EA5CC1A EQ PUSH2 0x256 JUMPI DUP1 PUSH4 0x83FC58B4 EQ PUSH2 0x275 JUMPI DUP1 PUSH4 0x84E26B2C EQ PUSH2 0x288 JUMPI PUSH0 DUP1 REVERT JUMPDEST DUP1 PUSH4 0x6FDDE03 EQ PUSH2 0x140 JUMPI DUP1 PUSH4 0xC0BD76B EQ PUSH2 0x16A JUMPI DUP1 PUSH4 0x10E5BFF8 EQ PUSH2 0x196 JUMPI DUP1 PUSH4 0x147BF6C4 EQ PUSH2 0x1C1 JUMPI DUP1 PUSH4 0x369F6CD7 EQ PUSH2 0x1E4 JUMPI JUMPDEST PUSH0 DUP1 REVERT JUMPDEST CALLVALUE DUP1 ISZERO PUSH2 0x14B JUMPI PUSH0 DUP1 REVERT JUMPDEST POP PUSH2 0x154 PUSH2 0x3E7 JUMP JUMPDEST PUSH1 0x40 MLOAD PUSH2 0x161 SWAP2 SWAP1 PUSH2 0x2595 JUMP JUMPDEST PUSH1 0x40 MLOAD DUP1 SWAP2 SUB SWAP1 RETURN JUMPDEST CALLVALUE DUP1 ISZERO PUSH2 0x175 JUMPI PUSH0 DUP1 REVERT JUMPDEST POP PUSH2 0x189 PUSH2 0x184 CALLDATASIZE PUSH1 0x4 PUSH2 0x25AE JUMP JUMPDEST PUSH2 0x477 JUMP JUMPDEST PUSH1 0x40 MLOAD PUSH2 0x161 SWAP2 SWAP1 PUSH2 0x25C5 JUMP JUMPDEST PUSH2 0x1A9 PUSH2 0x1A4 CALLDATASIZE PUSH1 0x4 PUSH2 0x2681 JUMP JUMPDEST PUSH2 0x706 JUMP JUMPDEST PUSH1 0x40 MLOAD PUSH1 0x1 PUSH1 0x1 PUSH1 0xA0 SHL SUB SWAP1 SWAP2 AND DUP2 MSTORE PUSH1 0x20 ADD PUSH2 0x161 JUMP JUMPDEST PUSH2 0x1D4 PUSH2 0x1CF CALLDATASIZE PUSH1 0x4 PUSH2 0x2681 JUMP JUMPDEST PUSH2 0x7AD JUMP JUMPDEST PUSH1 0x40 MLOAD SWAP1 ISZERO ISZERO DUP2 MSTORE PUSH1 0x20 ADD PUSH2 0x161 JUMP JUMPDEST CALLVALUE DUP1 ISZERO PUSH2 0x1EF JUMPI PUSH0 DUP1 REVERT JUMPDEST POP PUSH2 0x203 PUSH2 0x1FE CALLDATASIZE PUSH1 0x4 PUSH2 0x2681 JUMP JUMPDEST PUSH2 0x895 JUMP JUMPDEST PUSH1 0x40 MLOAD PUSH2 0x161 SWAP2 SWAP1 PUSH2 0x269A JUMP JUMPDEST CALLVALUE DUP1 ISZERO PUSH2 0x21B JUMPI PUSH0 DUP1 REVERT JUMPDEST POP PUSH2 0x203 PUSH2 0x919 JUMP JUMPDEST PUSH2 0x1D4 PUSH2 0x232 CALLDATASIZE PUSH1 0x4 PUSH2 0x2681 JUMP JUMPDEST PUSH2 0x976 JUMP JUMPDEST CALLVALUE DUP1 ISZERO PUSH2 0x242 JUMPI PUSH0 DUP1 REVERT JUMPDEST POP PUSH1 0x9 SLOAD PUSH2 0x1A9 SWAP1 PUSH1 0x1 PUSH1 0x1 PUSH1 0xA0 SHL SUB AND DUP2 JUMP JUMPDEST CALLVALUE DUP1 ISZERO PUSH2 0x261 JUMPI PUSH0 DUP1 REVERT JUMPDEST POP PUSH2 0x1D4 PUSH2 0x270 CALLDATASIZE PUSH1 0x4 PUSH2 0x277A JUMP JUMPDEST PUSH2 0xA7F JUMP JUMPDEST PUSH2 0x1D4 PUSH2 0x283 CALLDATASIZE PUSH1 0x4 PUSH2 0x2681 JUMP JUMPDEST PUSH2 0xAED JUMP JUMPDEST CALLVALUE DUP1 ISZERO PUSH2 0x293 JUMPI PUSH0 DUP1 REVERT JUMPDEST POP PUSH2 0x1A9 PUSH2 0x2A2 CALLDATASIZE PUSH1 0x4 PUSH2 0x2843 JUMP JUMPDEST PUSH2 0xB94 JUMP JUMPDEST CALLVALUE DUP1 ISZERO PUSH2 0x2B2 JUMPI PUSH0 DUP1 REVERT JUMPDEST POP PUSH2 0x154 PUSH2 0xBDE JUMP JUMPDEST PUSH2 0x1D4 PUSH2 0x2C9 CALLDATASIZE PUSH1 0x4 PUSH2 0x287D JUMP JUMPDEST PUSH2 0xBED JUMP JUMPDEST CALLVALUE DUP1 ISZERO PUSH2 0x2D9 JUMPI PUSH0 DUP1 REVERT JUMPDEST POP PUSH1 0x9 SLOAD PUSH2 0x2EE SWAP1 PUSH1 0x1 PUSH1 0xA0 SHL SWAP1 DIV PUSH1 0x3 SIGNEXTEND DUP2 JUMP JUMPDEST PUSH1 0x40 MLOAD PUSH1 0x3 SWAP2 SWAP1 SWAP2 SIGNEXTEND DUP2 MSTORE PUSH1 0x20 ADD PUSH2 0x161 JUMP JUMPDEST CALLVALUE DUP1 ISZERO PUSH2 0x30C JUMPI PUSH0 DUP1 REVERT JUMPDEST POP CALLER PUSH0 SWAP1 DUP2 MSTORE PUSH1 0x7 PUSH1 0x20 MSTORE PUSH1 0x40 SWAP1 KECCAK256 SLOAD JUMPDEST PUSH1 0x40 MLOAD SWAP1 DUP2 MSTORE PUSH1 0x20 ADD PUSH2 0x161 JUMP JUMPDEST CALLVALUE DUP1 ISZERO PUSH2 0x336 JUMPI PUSH0 DUP1 REVERT JUMPDEST POP PUSH1 0x8 SLOAD PUSH1 0x1 PUSH1 0xA0 SHL SWAP1 DIV PUSH1 0xFF AND PUSH2 0x1D4 JUMP JUMPDEST CALLVALUE DUP1 ISZERO PUSH2 0x354 JUMPI PUSH0 DUP1 REVERT JUMPDEST POP PUSH2 0x1D4 PUSH2 0x363 CALLDATASIZE PUSH1 0x4 PUSH2 0x25AE JUMP JUMPDEST PUSH2 0xC62 JUMP JUMPDEST CALLVALUE DUP1 ISZERO PUSH2 0x373 JUMPI PUSH0 DUP1 REVERT JUMPDEST POP PUSH2 0x189 PUSH2 0x382 CALLDATASIZE PUSH1 0x4 PUSH2 0x25AE JUMP JUMPDEST PUSH2 0xE91 JUMP JUMPDEST PUSH2 0x1D4 PUSH2 0x395 CALLDATASIZE PUSH1 0x4 PUSH2 0x287D JUMP JUMPDEST PUSH2 0x10C4 JUMP JUMPDEST PUSH2 0x31D PUSH2 0x3A8 CALLDATASIZE PUSH1 0x4 PUSH2 0x277A JUMP JUMPDEST PUSH2 0x11DF JUMP JUMPDEST PUSH2 0x1D4 PUSH2 0x3BB CALLDATASIZE PUSH1 0x4 PUSH2 0x25AE JUMP JUMPDEST PUSH2 0x14EB JUMP JUMPDEST CALLVALUE DUP1 ISZERO PUSH2 0x3CB JUMPI PUSH0 DUP1 REVERT JUMPDEST POP PUSH2 0x1D4 PUSH2 0x191C JUMP JUMPDEST PUSH2 0x189 PUSH2 0x3E2 CALLDATASIZE PUSH1 0x4 PUSH2 0x28C8 JUMP JUMPDEST PUSH2 0x1973 JUMP JUMPDEST PUSH1 0x60 PUSH1 0xA DUP1 SLOAD PUSH2 0x3F6 SWAP1 PUSH2 0x28F0 JUMP JUMPDEST DUP1 PUSH1 0x1F ADD PUSH1 0x20 DUP1 SWAP2 DIV MUL PUSH1 0x20 ADD PUSH1 0x40 MLOAD SWAP1 DUP2 ADD PUSH1 0x40 MSTORE DUP1 SWAP3 SWAP2 SWAP1 DUP2 DUP2 MSTORE PUSH1 0x20 ADD DUP3 DUP1 SLOAD PUSH2 0x422 SWAP1 PUSH2 0x28F0 JUMP JUMPDEST DUP1 ISZERO PUSH2 0x46D JUMPI DUP1 PUSH1 0x1F LT PUSH2 0x444 JUMPI PUSH2 0x100 DUP1 DUP4 SLOAD DIV MUL DUP4 MSTORE SWAP2 PUSH1 0x20 ADD SWAP2 PUSH2 0x46D JUMP JUMPDEST DUP3 ADD SWAP2 SWAP1 PUSH0 MSTORE PUSH1 0x20 PUSH0 KECCAK256 SWAP1 JUMPDEST DUP2 SLOAD DUP2 MSTORE SWAP1 PUSH1 0x1 ADD SWAP1 PUSH1 0x20 ADD DUP1 DUP4 GT PUSH2 0x450 JUMPI DUP3 SWAP1 SUB PUSH1 0x1F AND DUP3 ADD SWAP2 JUMPDEST POP POP POP POP POP SWAP1 POP SWAP1 JUMP JUMPDEST PUSH2 0x47F PUSH2 0x24BC JUMP JUMPDEST PUSH0 DUP3 DUP2 MSTORE PUSH1 0x20 DUP2 SWAP1 MSTORE PUSH1 0x40 DUP1 DUP3 KECCAK256 DUP2 MLOAD PUSH1 0xE0 DUP2 ADD SWAP1 SWAP3 MSTORE DUP1 SLOAD DUP3 SWAP1 DUP3 SWAP1 PUSH2 0x4A5 SWAP1 PUSH2 0x28F0 JUMP JUMPDEST DUP1 PUSH1 0x1F ADD PUSH1 0x20 DUP1 SWAP2 DIV MUL PUSH1 0x20 ADD PUSH1 0x40 MLOAD SWAP1 DUP2 ADD PUSH1 0x40 MSTORE DUP1 SWAP3 SWAP2 SWAP1 DUP2 DUP2 MSTORE PUSH1 0x20 ADD DUP3 DUP1 SLOAD PUSH2 0x4D1 SWAP1 PUSH2 0x28F0 JUMP JUMPDEST DUP1 ISZERO PUSH2 0x51C JUMPI DUP1 PUSH1 0x1F LT PUSH2 0x4F3 JUMPI PUSH2 0x100 DUP1 DUP4 SLOAD DIV MUL DUP4 MSTORE SWAP2 PUSH1 0x20 ADD SWAP2 PUSH2 0x51C JUMP JUMPDEST DUP3 ADD SWAP2 SWAP1 PUSH0 MSTORE PUSH1 0x20 PUSH0 KECCAK256 SWAP1 JUMPDEST DUP2 SLOAD DUP2 MSTORE SWAP1 PUSH1 0x1 ADD SWAP1 PUSH1 0x20 ADD DUP1 DUP4 GT PUSH2 0x4FF JUMPI DUP3 SWAP1 SUB PUSH1 0x1F AND DUP3 ADD SWAP2 JUMPDEST POP POP POP POP POP DUP2 MSTORE PUSH1 0x20 ADD PUSH1 0x1 DUP3 ADD DUP1 SLOAD PUSH2 0x535 SWAP1 PUSH2 0x28F0 JUMP JUMPDEST DUP1 PUSH1 0x1F ADD PUSH1 0x20 DUP1 SWAP2 DIV MUL PUSH1 0x20 ADD PUSH1 0x40 MLOAD SWAP1 DUP2 ADD PUSH1 0x40 MSTORE DUP1 SWAP3 SWAP2 SWAP1 DUP2 DUP2 MSTORE PUSH1 0x20 ADD DUP3 DUP1 SLOAD PUSH2 0x561 SWAP1 PUSH2 0x28F0 JUMP JUMPDEST DUP1 ISZERO PUSH2 0x5AC JUMPI DUP1 PUSH1 0x1F LT PUSH2 0x583 JUMPI PUSH2 0x100 DUP1 DUP4 SLOAD DIV MUL DUP4 MSTORE SWAP2 PUSH1 0x20 ADD SWAP2 PUSH2 0x5AC JUMP JUMPDEST DUP3 ADD SWAP2 SWAP1 PUSH0 MSTORE PUSH1 0x20 PUSH0 KECCAK256 SWAP1 JUMPDEST DUP2 SLOAD DUP2 MSTORE SWAP1 PUSH1 0x1 ADD SWAP1 PUSH1 0x20 ADD DUP1 DUP4 GT PUSH2 0x58F JUMPI DUP3 SWAP1 SUB PUSH1 0x1F AND DUP3 ADD SWAP2 JUMPDEST POP POP POP SWAP2 DUP4 MSTORE POP POP PUSH1 0x2 DUP3 ADD SLOAD PUSH1 0x1 PUSH1 0x1 PUSH1 0xA0 SHL SUB AND PUSH1 0x20 DUP3 ADD MSTORE PUSH1 0x3 DUP3 ADD DUP1 SLOAD PUSH1 0x40 SWAP1 SWAP3 ADD SWAP2 PUSH2 0x5DC SWAP1 PUSH2 0x28F0 JUMP JUMPDEST DUP1 PUSH1 0x1F ADD PUSH1 0x20 DUP1 SWAP2 DIV MUL PUSH1 0x20 ADD PUSH1 0x40 MLOAD SWAP1 DUP2 ADD PUSH1 0x40 MSTORE DUP1 SWAP3 SWAP2 SWAP1 DUP2 DUP2 MSTORE PUSH1 0x20 ADD DUP3 DUP1 SLOAD PUSH2 0x608 SWAP1 PUSH2 0x28F0 JUMP JUMPDEST DUP1 ISZERO PUSH2 0x653 JUMPI DUP1 PUSH1 0x1F LT PUSH2 0x62A JUMPI PUSH2 0x100 DUP1 DUP4 SLOAD DIV MUL DUP4 MSTORE SWAP2 PUSH1 0x20 ADD SWAP2 PUSH2 0x653 JUMP JUMPDEST DUP3 ADD SWAP2 SWAP1 PUSH0 MSTORE PUSH1 0x20 PUSH0 KECCAK256 SWAP1 JUMPDEST DUP2 SLOAD DUP2 MSTORE SWAP1 PUSH1 0x1 ADD SWAP1 PUSH1 0x20 ADD DUP1 DUP4 GT PUSH2 0x636 JUMPI DUP3 SWAP1 SUB PUSH1 0x1F AND DUP3 ADD SWAP2 JUMPDEST POP POP POP SWAP2 DUP4 MSTORE POP POP PUSH1 0x4 DUP3 ADD SLOAD PUSH1 0x1 PUSH1 0x1 PUSH1 0xA0 SHL SUB SWAP1 DUP2 AND PUSH1 0x20 DUP4 ADD MSTORE PUSH1 0x5 DUP4 ADD SLOAD PUSH1 0x40 DUP1 DUP5 ADD SWAP2 SWAP1 SWAP2 MSTORE PUSH1 0x6 SWAP1 SWAP4 ADD SLOAD PUSH1 0xFF AND ISZERO ISZERO PUSH1 0x60 SWAP1 SWAP3 ADD SWAP2 SWAP1 SWAP2 MSTORE SWAP1 DUP3 ADD MLOAD SWAP2 SWAP3 POP AND CALLER EQ PUSH2 0x700 JUMPI PUSH1 0x40 MLOAD PUSH3 0x461BCD PUSH1 0xE5 SHL DUP2 MSTORE PUSH1 0x20 PUSH1 0x4 DUP3 ADD MSTORE PUSH1 0x2A PUSH1 0x24 DUP3 ADD MSTORE PUSH32 0x596F75206D6F6E737420626520746865206F776E657220746F2073686F772064 PUSH1 0x44 DUP3 ADD MSTORE PUSH10 0x185D18481CDA59DB9959 PUSH1 0xB2 SHL PUSH1 0x64 DUP3 ADD MSTORE PUSH1 0x84 ADD JUMPDEST PUSH1 0x40 MLOAD DUP1 SWAP2 SUB SWAP1 REVERT JUMPDEST SWAP3 SWAP2 POP POP JUMP JUMPDEST PUSH1 0x8 SLOAD PUSH0 SWAP1 PUSH1 0x1 PUSH1 0x1 PUSH1 0xA0 SHL SUB AND CALLER EQ PUSH2 0x732 JUMPI PUSH1 0x40 MLOAD PUSH3 0x461BCD PUSH1 0xE5 SHL DUP2 MSTORE PUSH1 0x4 ADD PUSH2 0x6F7 SWAP1 PUSH2 0x2928 JUMP JUMPDEST PUSH1 0x1 PUSH1 0x1 PUSH1 0xA0 SHL SUB DUP3 AND PUSH2 0x788 JUMPI PUSH1 0x40 MLOAD PUSH3 0x461BCD PUSH1 0xE5 SHL DUP2 MSTORE PUSH1 0x20 PUSH1 0x4 DUP3 ADD MSTORE PUSH1 0x17 PUSH1 0x24 DUP3 ADD MSTORE PUSH32 0x4D75737420626520612076616C69642061646472657373000000000000000000 PUSH1 0x44 DUP3 ADD MSTORE PUSH1 0x64 ADD PUSH2 0x6F7 JUMP JUMPDEST POP PUSH1 0x9 DUP1 SLOAD PUSH1 0x1 PUSH1 0x1 PUSH1 0xA0 SHL SUB NOT AND PUSH1 0x1 PUSH1 0x1 PUSH1 0xA0 SHL SUB DUP4 AND SWAP1 DUP2 OR SWAP1 SWAP2 SSTORE JUMPDEST SWAP2 SWAP1 POP JUMP JUMPDEST CALLER PUSH0 SWAP1 DUP2 MSTORE PUSH1 0x4 PUSH1 0x20 MSTORE PUSH1 0x40 DUP2 KECCAK256 SLOAD PUSH1 0xFF AND PUSH2 0x7C7 JUMPI PUSH0 DUP1 REVERT JUMPDEST PUSH1 0x1 PUSH1 0x1 PUSH1 0xA0 SHL SUB DUP3 AND PUSH0 SWAP1 DUP2 MSTORE PUSH1 0x5 PUSH1 0x20 MSTORE PUSH1 0x40 SWAP1 KECCAK256 SLOAD PUSH1 0xFF AND ISZERO ISZERO PUSH1 0x1 SUB PUSH2 0x833 JUMPI PUSH1 0x40 MLOAD PUSH3 0x461BCD PUSH1 0xE5 SHL DUP2 MSTORE PUSH1 0x20 PUSH1 0x4 DUP3 ADD DUP2 SWAP1 MSTORE PUSH1 0x24 DUP3 ADD MSTORE PUSH32 0x6164647265737320666F722061646D696E20616C726564792070726F706F7365 PUSH1 0x44 DUP3 ADD MSTORE PUSH1 0x64 ADD PUSH2 0x6F7 JUMP JUMPDEST PUSH1 0x1 PUSH1 0x1 PUSH1 0xA0 SHL SUB DUP3 AND PUSH0 DUP2 DUP2 MSTORE PUSH1 0x5 PUSH1 0x20 SWAP1 DUP2 MSTORE PUSH1 0x40 SWAP2 DUP3 SWAP1 KECCAK256 DUP1 SLOAD PUSH1 0xFF NOT AND PUSH1 0x1 SWAP1 DUP2 OR SWAP1 SWAP2 SSTORE SWAP2 MLOAD SWAP2 DUP3 MSTORE PUSH32 0xFCD0029428C001BD11D12D6E8302DDA11AC68335A836D75D43004BF4CA7292EF SWAP2 ADD JUMPDEST PUSH1 0x40 MLOAD DUP1 SWAP2 SUB SWAP1 LOG2 POP PUSH1 0x1 SWAP2 SWAP1 POP JUMP JUMPDEST CALLER PUSH0 SWAP1 DUP2 MSTORE PUSH1 0x4 PUSH1 0x20 MSTORE PUSH1 0x40 SWAP1 KECCAK256 SLOAD PUSH1 0x60 SWAP1 PUSH1 0xFF AND PUSH2 0x8B2 JUMPI PUSH0 DUP1 REVERT JUMPDEST PUSH1 0x1 PUSH1 0x1 PUSH1 0xA0 SHL SUB DUP3 AND PUSH0 SWAP1 DUP2 MSTORE PUSH1 0x1 PUSH1 0x20 SWAP1 DUP2 MSTORE PUSH1 0x40 SWAP2 DUP3 SWAP1 KECCAK256 DUP1 SLOAD DUP4 MLOAD DUP2 DUP5 MUL DUP2 ADD DUP5 ADD SWAP1 SWAP5 MSTORE DUP1 DUP5 MSTORE SWAP1 SWAP2 DUP4 ADD DUP3 DUP3 DUP1 ISZERO PUSH2 0x90D JUMPI PUSH1 0x20 MUL DUP3 ADD SWAP2 SWAP1 PUSH0 MSTORE PUSH1 0x20 PUSH0 KECCAK256 SWAP1 JUMPDEST DUP2 SLOAD DUP2 MSTORE PUSH1 0x20 ADD SWAP1 PUSH1 0x1 ADD SWAP1 DUP1 DUP4 GT PUSH2 0x8F9 JUMPI JUMPDEST POP POP POP POP POP SWAP1 POP SWAP2 SWAP1 POP JUMP JUMPDEST CALLER PUSH0 SWAP1 DUP2 MSTORE PUSH1 0x1 PUSH1 0x20 SWAP1 DUP2 MSTORE PUSH1 0x40 SWAP2 DUP3 SWAP1 KECCAK256 DUP1 SLOAD DUP4 MLOAD DUP2 DUP5 MUL DUP2 ADD DUP5 ADD SWAP1 SWAP5 MSTORE DUP1 DUP5 MSTORE PUSH1 0x60 SWAP4 SWAP3 DUP4 ADD DUP3 DUP3 DUP1 ISZERO PUSH2 0x46D JUMPI PUSH1 0x20 MUL DUP3 ADD SWAP2 SWAP1 PUSH0 MSTORE PUSH1 0x20 PUSH0 KECCAK256 SWAP1 JUMPDEST DUP2 SLOAD DUP2 MSTORE PUSH1 0x20 ADD SWAP1 PUSH1 0x1 ADD SWAP1 DUP1 DUP4 GT PUSH2 0x959 JUMPI POP POP POP POP POP SWAP1 POP SWAP1 JUMP JUMPDEST PUSH1 0x8 SLOAD PUSH0 SWAP1 PUSH1 0x1 PUSH1 0x1 PUSH1 0xA0 SHL SUB AND CALLER EQ PUSH2 0x9A2 JUMPI PUSH1 0x40 MLOAD PUSH3 0x461BCD PUSH1 0xE5 SHL DUP2 MSTORE PUSH1 0x4 ADD PUSH2 0x6F7 SWAP1 PUSH2 0x2928 JUMP JUMPDEST PUSH1 0x1 PUSH1 0x1 PUSH1 0xA0 SHL SUB DUP3 AND PUSH0 SWAP1 DUP2 MSTORE PUSH1 0x5 PUSH1 0x20 MSTORE PUSH1 0x40 SWAP1 KECCAK256 SLOAD PUSH1 0xFF AND ISZERO ISZERO PUSH1 0x1 EQ PUSH2 0xA1A JUMPI PUSH1 0x40 MLOAD PUSH3 0x461BCD PUSH1 0xE5 SHL DUP2 MSTORE PUSH1 0x20 PUSH1 0x4 DUP3 ADD MSTORE PUSH1 0x23 PUSH1 0x24 DUP3 ADD MSTORE PUSH32 0x61646472657373206D757374206265207265676973747265642062792061646D PUSH1 0x44 DUP3 ADD MSTORE PUSH3 0x696E73 PUSH1 0xE8 SHL PUSH1 0x64 DUP3 ADD MSTORE PUSH1 0x84 ADD PUSH2 0x6F7 JUMP JUMPDEST PUSH1 0x1 PUSH1 0x1 PUSH1 0xA0 SHL SUB DUP3 AND PUSH0 DUP2 DUP2 MSTORE PUSH1 0x4 PUSH1 0x20 SWAP1 DUP2 MSTORE PUSH1 0x40 DUP1 DUP4 KECCAK256 DUP1 SLOAD PUSH1 0x1 PUSH1 0xFF NOT SWAP2 DUP3 AND DUP2 OR SWAP1 SWAP3 SSTORE PUSH1 0x5 DUP5 MSTORE SWAP4 DUP3 SWAP1 KECCAK256 DUP1 SLOAD SWAP1 SWAP5 AND SWAP1 SWAP4 SSTORE MLOAD SWAP2 DUP3 MSTORE PUSH32 0x9AAB773CC5C7F377774352463D765FA3ACAE0BC1C83C44357F4405639EBAB44A SWAP2 ADD PUSH2 0x885 JUMP JUMPDEST CALLER PUSH0 SWAP1 DUP2 MSTORE PUSH1 0x4 PUSH1 0x20 MSTORE PUSH1 0x40 DUP2 KECCAK256 SLOAD PUSH1 0xFF AND PUSH2 0xA99 JUMPI PUSH0 DUP1 REVERT JUMPDEST PUSH0 PUSH2 0xAD7 DUP8 DUP5 PUSH2 0xAA8 DUP10 PUSH2 0xB94 JUMP JUMPDEST DUP8 PUSH1 0x6 DUP11 PUSH1 0x40 MLOAD PUSH2 0xAB9 SWAP2 SWAP1 PUSH2 0x295F JUMP JUMPDEST SWAP1 DUP2 MSTORE PUSH1 0x40 MLOAD SWAP1 DUP2 SWAP1 SUB PUSH1 0x20 ADD SWAP1 KECCAK256 SLOAD PUSH1 0x1 PUSH1 0x1 PUSH1 0xA0 SHL SUB AND PUSH2 0x1C74 JUMP JUMPDEST SWAP1 POP PUSH2 0xAE2 DUP2 PUSH2 0xC62 JUMP JUMPDEST SWAP8 SWAP7 POP POP POP POP POP POP POP JUMP JUMPDEST PUSH1 0x8 SLOAD PUSH0 SWAP1 PUSH1 0x1 PUSH1 0x1 PUSH1 0xA0 SHL SUB AND CALLER EQ PUSH2 0xB19 JUMPI PUSH1 0x40 MLOAD PUSH3 0x461BCD PUSH1 0xE5 SHL DUP2 MSTORE PUSH1 0x4 ADD PUSH2 0x6F7 SWAP1 PUSH2 0x2928 JUMP JUMPDEST PUSH1 0x1 PUSH1 0x1 PUSH1 0xA0 SHL SUB DUP3 AND PUSH2 0xB6F JUMPI PUSH1 0x40 MLOAD PUSH3 0x461BCD PUSH1 0xE5 SHL DUP2 MSTORE PUSH1 0x20 PUSH1 0x4 DUP3 ADD MSTORE PUSH1 0x1D PUSH1 0x24 DUP3 ADD MSTORE PUSH32 0x4F776E65722063616E27742062652061205A65726F2061646472657373000000 PUSH1 0x44 DUP3 ADD MSTORE PUSH1 0x64 ADD PUSH2 0x6F7 JUMP JUMPDEST POP PUSH1 0x8 DUP1 SLOAD PUSH1 0x1 PUSH1 0x1 PUSH1 0xA0 SHL SUB DUP4 AND PUSH1 0x1 PUSH1 0x1 PUSH1 0xA0 SHL SUB NOT SWAP1 SWAP2 AND OR SWAP1 SSTORE PUSH1 0x1 SWAP2 SWAP1 POP JUMP JUMPDEST CALLER PUSH0 SWAP1 DUP2 MSTORE PUSH1 0x4 PUSH1 0x20 MSTORE PUSH1 0x40 DUP2 KECCAK256 SLOAD PUSH1 0xFF AND PUSH2 0xBAE JUMPI PUSH0 DUP1 REVERT JUMPDEST PUSH1 0x3 DUP3 PUSH1 0x40 MLOAD PUSH2 0xBBE SWAP2 SWAP1 PUSH2 0x295F JUMP JUMPDEST SWAP1 DUP2 MSTORE PUSH1 0x40 MLOAD SWAP1 DUP2 SWAP1 SUB PUSH1 0x20 ADD SWAP1 KECCAK256 SLOAD PUSH1 0x1 PUSH1 0x1 PUSH1 0xA0 SHL SUB AND SWAP1 POP SWAP2 SWAP1 POP JUMP JUMPDEST PUSH1 0x60 PUSH1 0xB DUP1 SLOAD PUSH2 0x3F6 SWAP1 PUSH2 0x28F0 JUMP JUMPDEST PUSH1 0x8 SLOAD PUSH0 SWAP1 PUSH1 0x1 PUSH1 0x1 PUSH1 0xA0 SHL SUB AND CALLER EQ PUSH2 0xC19 JUMPI PUSH1 0x40 MLOAD PUSH3 0x461BCD PUSH1 0xE5 SHL DUP2 MSTORE PUSH1 0x4 ADD PUSH2 0x6F7 SWAP1 PUSH2 0x2928 JUMP JUMPDEST DUP2 PUSH1 0x3 DUP5 PUSH1 0x40 MLOAD PUSH2 0xC2A SWAP2 SWAP1 PUSH2 0x295F JUMP JUMPDEST SWAP1 DUP2 MSTORE PUSH1 0x40 MLOAD SWAP1 DUP2 SWAP1 SUB PUSH1 0x20 ADD SWAP1 KECCAK256 DUP1 SLOAD PUSH1 0x1 PUSH1 0x1 PUSH1 0xA0 SHL SUB SWAP3 SWAP1 SWAP3 AND PUSH1 0x1 PUSH1 0x1 PUSH1 0xA0 SHL SUB NOT SWAP1 SWAP3 AND SWAP2 SWAP1 SWAP2 OR SWAP1 SSTORE POP PUSH1 0x1 SWAP3 SWAP2 POP POP JUMP JUMPDEST PUSH0 DUP1 PUSH0 DUP1 DUP5 DUP2 MSTORE PUSH1 0x20 ADD SWAP1 DUP2 MSTORE PUSH1 0x20 ADD PUSH0 KECCAK256 PUSH1 0x40 MLOAD DUP1 PUSH1 0xE0 ADD PUSH1 0x40 MSTORE SWAP1 DUP2 PUSH0 DUP3 ADD DUP1 SLOAD PUSH2 0xC8E SWAP1 PUSH2 0x28F0 JUMP JUMPDEST DUP1 PUSH1 0x1F ADD PUSH1 0x20 DUP1 SWAP2 DIV MUL PUSH1 0x20 ADD PUSH1 0x40 MLOAD SWAP1 DUP2 ADD PUSH1 0x40 MSTORE DUP1 SWAP3 SWAP2 SWAP1 DUP2 DUP2 MSTORE PUSH1 0x20 ADD DUP3 DUP1 SLOAD PUSH2 0xCBA SWAP1 PUSH2 0x28F0 JUMP JUMPDEST DUP1 ISZERO PUSH2 0xD05 JUMPI DUP1 PUSH1 0x1F LT PUSH2 0xCDC JUMPI PUSH2 0x100 DUP1 DUP4 SLOAD DIV MUL DUP4 MSTORE SWAP2 PUSH1 0x20 ADD SWAP2 PUSH2 0xD05 JUMP JUMPDEST DUP3 ADD SWAP2 SWAP1 PUSH0 MSTORE PUSH1 0x20 PUSH0 KECCAK256 SWAP1 JUMPDEST DUP2 SLOAD DUP2 MSTORE SWAP1 PUSH1 0x1 ADD SWAP1 PUSH1 0x20 ADD DUP1 DUP4 GT PUSH2 0xCE8 JUMPI DUP3 SWAP1 SUB PUSH1 0x1F AND DUP3 ADD SWAP2 JUMPDEST POP POP POP POP POP DUP2 MSTORE PUSH1 0x20 ADD PUSH1 0x1 DUP3 ADD DUP1 SLOAD PUSH2 0xD1E SWAP1 PUSH2 0x28F0 JUMP JUMPDEST DUP1 PUSH1 0x1F ADD PUSH1 0x20 DUP1 SWAP2 DIV MUL PUSH1 0x20 ADD PUSH1 0x40 MLOAD SWAP1 DUP2 ADD PUSH1 0x40 MSTORE DUP1 SWAP3 SWAP2 SWAP1 DUP2 DUP2 MSTORE PUSH1 0x20 ADD DUP3 DUP1 SLOAD PUSH2 0xD4A SWAP1 PUSH2 0x28F0 JUMP JUMPDEST DUP1 ISZERO PUSH2 0xD95 JUMPI DUP1 PUSH1 0x1F LT PUSH2 0xD6C JUMPI PUSH2 0x100 DUP1 DUP4 SLOAD DIV MUL DUP4 MSTORE SWAP2 PUSH1 0x20 ADD SWAP2 PUSH2 0xD95 JUMP JUMPDEST DUP3 ADD SWAP2 SWAP1 PUSH0 MSTORE PUSH1 0x20 PUSH0 KECCAK256 SWAP1 JUMPDEST DUP2 SLOAD DUP2 MSTORE SWAP1 PUSH1 0x1 ADD SWAP1 PUSH1 0x20 ADD DUP1 DUP4 GT PUSH2 0xD78 JUMPI DUP3 SWAP1 SUB PUSH1 0x1F AND DUP3 ADD SWAP2 JUMPDEST POP POP POP SWAP2 DUP4 MSTORE POP POP PUSH1 0x2 DUP3 ADD SLOAD PUSH1 0x1 PUSH1 0x1 PUSH1 0xA0 SHL SUB AND PUSH1 0x20 DUP3 ADD MSTORE PUSH1 0x3 DUP3 ADD DUP1 SLOAD PUSH1 0x40 SWAP1 SWAP3 ADD SWAP2 PUSH2 0xDC5 SWAP1 PUSH2 0x28F0 JUMP JUMPDEST DUP1 PUSH1 0x1F ADD PUSH1 0x20 DUP1 SWAP2 DIV MUL PUSH1 0x20 ADD PUSH1 0x40 MLOAD SWAP1 DUP2 ADD PUSH1 0x40 MSTORE DUP1 SWAP3 SWAP2 SWAP1 DUP2 DUP2 MSTORE PUSH1 0x20 ADD DUP3 DUP1 SLOAD PUSH2 0xDF1 SWAP1 PUSH2 0x28F0 JUMP JUMPDEST DUP1 ISZERO PUSH2 0xE3C JUMPI DUP1 PUSH1 0x1F LT PUSH2 0xE13 JUMPI PUSH2 0x100 DUP1 DUP4 SLOAD DIV MUL DUP4 MSTORE SWAP2 PUSH1 0x20 ADD SWAP2 PUSH2 0xE3C JUMP JUMPDEST DUP3 ADD SWAP2 SWAP1 PUSH0 MSTORE PUSH1 0x20 PUSH0 KECCAK256 SWAP1 JUMPDEST DUP2 SLOAD DUP2 MSTORE SWAP1 PUSH1 0x1 ADD SWAP1 PUSH1 0x20 ADD DUP1 DUP4 GT PUSH2 0xE1F JUMPI DUP3 SWAP1 SUB PUSH1 0x1F AND DUP3 ADD SWAP2 JUMPDEST POP POP POP SWAP2 DUP4 MSTORE POP POP PUSH1 0x4 DUP3 ADD SLOAD PUSH1 0x1 PUSH1 0x1 PUSH1 0xA0 SHL SUB AND PUSH1 0x20 DUP3 ADD MSTORE PUSH1 0x5 DUP3 ADD SLOAD PUSH1 0x40 DUP3 ADD MSTORE PUSH1 0x6 SWAP1 SWAP2 ADD SLOAD PUSH1 0xFF AND ISZERO ISZERO PUSH1 0x60 SWAP1 SWAP2 ADD MSTORE PUSH1 0xA0 DUP2 ADD MLOAD SWAP1 SWAP2 POP PUSH0 SUB PUSH2 0xE88 JUMPI POP PUSH0 SWAP3 SWAP2 POP POP JUMP JUMPDEST POP PUSH1 0x1 SWAP3 SWAP2 POP POP JUMP JUMPDEST PUSH2 0xE99 PUSH2 0x24BC JUMP JUMPDEST CALLER PUSH0 SWAP1 DUP2 MSTORE PUSH1 0x4 PUSH1 0x20 MSTORE PUSH1 0x40 SWAP1 KECCAK256 SLOAD PUSH1 0xFF AND PUSH2 0xEB3 JUMPI PUSH0 DUP1 REVERT JUMPDEST PUSH0 DUP3 DUP2 MSTORE PUSH1 0x20 DUP2 SWAP1 MSTORE PUSH1 0x40 SWAP1 DUP2 SWAP1 KECCAK256 DUP2 MLOAD PUSH1 0xE0 DUP2 ADD SWAP1 SWAP3 MSTORE DUP1 SLOAD DUP3 SWAP1 DUP3 SWAP1 PUSH2 0xEDA SWAP1 PUSH2 0x28F0 JUMP JUMPDEST DUP1 PUSH1 0x1F ADD PUSH1 0x20 DUP1 SWAP2 DIV MUL PUSH1 0x20 ADD PUSH1 0x40 MLOAD SWAP1 DUP2 ADD PUSH1 0x40 MSTORE DUP1 SWAP3 SWAP2 SWAP1 DUP2 DUP2 MSTORE PUSH1 0x20 ADD DUP3 DUP1 SLOAD PUSH2 0xF06 SWAP1 PUSH2 0x28F0 JUMP JUMPDEST DUP1 ISZERO PUSH2 0xF51 JUMPI DUP1 PUSH1 0x1F LT PUSH2 0xF28 JUMPI PUSH2 0x100 DUP1 DUP4 SLOAD DIV MUL DUP4 MSTORE SWAP2 PUSH1 0x20 ADD SWAP2 PUSH2 0xF51 JUMP JUMPDEST DUP3 ADD SWAP2 SWAP1 PUSH0 MSTORE PUSH1 0x20 PUSH0 KECCAK256 SWAP1 JUMPDEST DUP2 SLOAD DUP2 MSTORE SWAP1 PUSH1 0x1 ADD SWAP1 PUSH1 0x20 ADD DUP1 DUP4 GT PUSH2 0xF34 JUMPI DUP3 SWAP1 SUB PUSH1 0x1F AND DUP3 ADD SWAP2 JUMPDEST POP POP POP POP POP DUP2 MSTORE PUSH1 0x20 ADD PUSH1 0x1 DUP3 ADD DUP1 SLOAD PUSH2 0xF6A SWAP1 PUSH2 0x28F0 JUMP JUMPDEST DUP1 PUSH1 0x1F ADD PUSH1 0x20 DUP1 SWAP2 DIV MUL PUSH1 0x20 ADD PUSH1 0x40 MLOAD SWAP1 DUP2 ADD PUSH1 0x40 MSTORE DUP1 SWAP3 SWAP2 SWAP1 DUP2 DUP2 MSTORE PUSH1 0x20 ADD DUP3 DUP1 SLOAD PUSH2 0xF96 SWAP1 PUSH2 0x28F0 JUMP JUMPDEST DUP1 ISZERO PUSH2 0xFE1 JUMPI DUP1 PUSH1 0x1F LT PUSH2 0xFB8 JUMPI PUSH2 0x100 DUP1 DUP4 SLOAD DIV MUL DUP4 MSTORE SWAP2 PUSH1 0x20 ADD SWAP2 PUSH2 0xFE1 JUMP JUMPDEST DUP3 ADD SWAP2 SWAP1 PUSH0 MSTORE PUSH1 0x20 PUSH0 KECCAK256 SWAP1 JUMPDEST DUP2 SLOAD DUP2 MSTORE SWAP1 PUSH1 0x1 ADD SWAP1 PUSH1 0x20 ADD DUP1 DUP4 GT PUSH2 0xFC4 JUMPI DUP3 SWAP1 SUB PUSH1 0x1F AND DUP3 ADD SWAP2 JUMPDEST POP POP POP SWAP2 DUP4 MSTORE POP POP PUSH1 0x2 DUP3 ADD SLOAD PUSH1 0x1 PUSH1 0x1 PUSH1 0xA0 SHL SUB AND PUSH1 0x20 DUP3 ADD MSTORE PUSH1 0x3 DUP3 ADD DUP1 SLOAD PUSH1 0x40 SWAP1 SWAP3 ADD SWAP2 PUSH2 0x1011 SWAP1 PUSH2 0x28F0 JUMP JUMPDEST DUP1 PUSH1 0x1F ADD PUSH1 0x20 DUP1 SWAP2 DIV MUL PUSH1 0x20 ADD PUSH1 0x40 MLOAD SWAP1 DUP2 ADD PUSH1 0x40 MSTORE DUP1 SWAP3 SWAP2 SWAP1 DUP2 DUP2 MSTORE PUSH1 0x20 ADD DUP3 DUP1 SLOAD PUSH2 0x103D SWAP1 PUSH2 0x28F0 JUMP JUMPDEST DUP1 ISZERO PUSH2 0x1088 JUMPI DUP1 PUSH1 0x1F LT PUSH2 0x105F JUMPI PUSH2 0x100 DUP1 DUP4 SLOAD DIV MUL DUP4 MSTORE SWAP2 PUSH1 0x20 ADD SWAP2 PUSH2 0x1088 JUMP JUMPDEST DUP3 ADD SWAP2 SWAP1 PUSH0 MSTORE PUSH1 0x20 PUSH0 KECCAK256 SWAP1 JUMPDEST DUP2 SLOAD DUP2 MSTORE SWAP1 PUSH1 0x1 ADD SWAP1 PUSH1 0x20 ADD DUP1 DUP4 GT PUSH2 0x106B JUMPI DUP3 SWAP1 SUB PUSH1 0x1F AND DUP3 ADD SWAP2 JUMPDEST POP POP POP SWAP2 DUP4 MSTORE POP POP PUSH1 0x4 DUP3 ADD SLOAD PUSH1 0x1 PUSH1 0x1 PUSH1 0xA0 SHL SUB AND PUSH1 0x20 DUP3 ADD MSTORE PUSH1 0x5 DUP3 ADD SLOAD PUSH1 0x40 DUP3 ADD MSTORE PUSH1 0x6 SWAP1 SWAP2 ADD SLOAD PUSH1 0xFF AND ISZERO ISZERO PUSH1 0x60 SWAP1 SWAP2 ADD MSTORE SWAP3 SWAP2 POP POP JUMP JUMPDEST PUSH1 0x8 SLOAD PUSH0 SWAP1 PUSH1 0x1 PUSH1 0x1 PUSH1 0xA0 SHL SUB AND CALLER EQ PUSH2 0x10F0 JUMPI PUSH1 0x40 MLOAD PUSH3 0x461BCD PUSH1 0xE5 SHL DUP2 MSTORE PUSH1 0x4 ADD PUSH2 0x6F7 SWAP1 PUSH2 0x2928 JUMP JUMPDEST PUSH0 PUSH1 0x1 PUSH1 0x1 PUSH1 0xA0 SHL SUB AND PUSH1 0x6 DUP5 PUSH1 0x40 MLOAD PUSH2 0x110A SWAP2 SWAP1 PUSH2 0x295F JUMP JUMPDEST SWAP1 DUP2 MSTORE PUSH1 0x40 MLOAD SWAP1 DUP2 SWAP1 SUB PUSH1 0x20 ADD SWAP1 KECCAK256 SLOAD PUSH1 0x1 PUSH1 0x1 PUSH1 0xA0 SHL SUB AND EQ PUSH2 0x1168 JUMPI PUSH1 0x40 MLOAD PUSH3 0x461BCD PUSH1 0xE5 SHL DUP2 MSTORE PUSH1 0x20 PUSH1 0x4 DUP3 ADD MSTORE PUSH1 0x15 PUSH1 0x24 DUP3 ADD MSTORE PUSH21 0x1059191C995CDCC8185B1C9958591E481859191959 PUSH1 0x5A SHL PUSH1 0x44 DUP3 ADD MSTORE PUSH1 0x64 ADD PUSH2 0x6F7 JUMP JUMPDEST DUP2 PUSH1 0x6 DUP5 PUSH1 0x40 MLOAD PUSH2 0x1179 SWAP2 SWAP1 PUSH2 0x295F JUMP JUMPDEST SWAP1 DUP2 MSTORE PUSH1 0x40 MLOAD PUSH1 0x20 SWAP2 DUP2 SWAP1 SUB DUP3 ADD DUP2 KECCAK256 DUP1 SLOAD PUSH1 0x1 PUSH1 0x1 PUSH1 0xA0 SHL SUB NOT AND PUSH1 0x1 PUSH1 0x1 PUSH1 0xA0 SHL SUB SWAP5 DUP6 AND OR SWAP1 SSTORE PUSH1 0x1 DUP2 MSTORE SWAP2 DUP5 AND SWAP2 PUSH32 0xA590B4FC649A56BFC2765312A8B4BECAA85A972FD5403DE3F9A0A4270C40E71E SWAP2 ADD PUSH1 0x40 MLOAD DUP1 SWAP2 SUB SWAP1 LOG2 POP PUSH1 0x1 SWAP3 SWAP2 POP POP JUMP JUMPDEST PUSH1 0x8 SLOAD PUSH0 SWAP1 PUSH1 0x1 PUSH1 0x1 PUSH1 0xA0 SHL SUB AND CALLER EQ PUSH2 0x120B JUMPI PUSH1 0x40 MLOAD PUSH3 0x461BCD PUSH1 0xE5 SHL DUP2 MSTORE PUSH1 0x4 ADD PUSH2 0x6F7 SWAP1 PUSH2 0x2928 JUMP JUMPDEST PUSH1 0x8 SLOAD PUSH1 0x1 PUSH1 0xA0 SHL SWAP1 DIV PUSH1 0xFF AND ISZERO ISZERO PUSH1 0x1 EQ PUSH2 0x1269 JUMPI PUSH1 0x40 MLOAD PUSH3 0x461BCD PUSH1 0xE5 SHL DUP2 MSTORE PUSH1 0x20 PUSH1 0x4 DUP3 ADD MSTORE PUSH1 0x1F PUSH1 0x24 DUP3 ADD MSTORE PUSH32 0x4D696E74696E67206861732073746F70656420627920746865206F776E657200 PUSH1 0x44 DUP3 ADD MSTORE PUSH1 0x64 ADD PUSH2 0x6F7 JUMP JUMPDEST PUSH0 PUSH2 0x1273 DUP7 PUSH2 0xB94 JUMP JUMPDEST PUSH1 0x1 PUSH1 0x1 PUSH1 0xA0 SHL SUB AND SUB PUSH2 0x12C9 JUMPI PUSH1 0x40 MLOAD PUSH3 0x461BCD PUSH1 0xE5 SHL DUP2 MSTORE PUSH1 0x20 PUSH1 0x4 DUP3 ADD MSTORE PUSH1 0x1E PUSH1 0x24 DUP3 ADD MSTORE PUSH32 0x526966204E6F7420526567697374726564206861732054617870617965720000 PUSH1 0x44 DUP3 ADD MSTORE PUSH1 0x64 ADD PUSH2 0x6F7 JUMP JUMPDEST PUSH0 PUSH1 0x1 PUSH1 0x1 PUSH1 0xA0 SHL SUB AND PUSH1 0x6 DUP6 PUSH1 0x40 MLOAD PUSH2 0x12E3 SWAP2 SWAP1 PUSH2 0x295F JUMP JUMPDEST SWAP1 DUP2 MSTORE PUSH1 0x40 MLOAD SWAP1 DUP2 SWAP1 SUB PUSH1 0x20 ADD SWAP1 KECCAK256 SLOAD PUSH1 0x1 PUSH1 0x1 PUSH1 0xA0 SHL SUB AND SUB PUSH2 0x1349 JUMPI PUSH1 0x40 MLOAD PUSH3 0x461BCD PUSH1 0xE5 SHL DUP2 MSTORE PUSH1 0x20 PUSH1 0x4 DUP3 ADD DUP2 SWAP1 MSTORE PUSH1 0x24 DUP3 ADD MSTORE PUSH32 0x417070726F766572204E6F7420526567697374726564206861732056616C6964 PUSH1 0x44 DUP3 ADD MSTORE PUSH1 0x64 ADD PUSH2 0x6F7 JUMP JUMPDEST PUSH2 0x1352 DUP6 PUSH2 0xB94 JUMP JUMPDEST PUSH1 0x1 PUSH1 0x1 PUSH1 0xA0 SHL SUB AND PUSH1 0x6 DUP6 PUSH1 0x40 MLOAD PUSH2 0x136B SWAP2 SWAP1 PUSH2 0x295F JUMP JUMPDEST SWAP1 DUP2 MSTORE PUSH1 0x40 MLOAD SWAP1 DUP2 SWAP1 SUB PUSH1 0x20 ADD SWAP1 KECCAK256 SLOAD PUSH1 0x1 PUSH1 0x1 PUSH1 0xA0 SHL SUB AND SUB PUSH2 0x13D1 JUMPI PUSH1 0x40 MLOAD PUSH3 0x461BCD PUSH1 0xE5 SHL DUP2 MSTORE PUSH1 0x20 PUSH1 0x4 DUP3 ADD MSTORE PUSH1 0x1D PUSH1 0x24 DUP3 ADD MSTORE PUSH32 0x417070726F7665722063616E6E6F742070726F76652068696D73656C66000000 PUSH1 0x44 DUP3 ADD MSTORE PUSH1 0x64 ADD PUSH2 0x6F7 JUMP JUMPDEST PUSH0 PUSH2 0x13E0 DUP8 DUP5 PUSH2 0xAA8 DUP10 PUSH2 0xB94 JUMP JUMPDEST SWAP1 POP PUSH0 PUSH1 0x40 MLOAD DUP1 PUSH1 0xE0 ADD PUSH1 0x40 MSTORE DUP1 DUP10 DUP2 MSTORE PUSH1 0x20 ADD DUP6 DUP2 MSTORE PUSH1 0x20 ADD PUSH2 0x1403 DUP10 PUSH2 0xB94 JUMP JUMPDEST PUSH1 0x1 PUSH1 0x1 PUSH1 0xA0 SHL SUB AND DUP2 MSTORE PUSH1 0x20 ADD DUP7 DUP2 MSTORE PUSH1 0x20 ADD PUSH1 0x6 DUP9 PUSH1 0x40 MLOAD PUSH2 0x1427 SWAP2 SWAP1 PUSH2 0x295F JUMP JUMPDEST SWAP1 DUP2 MSTORE PUSH1 0x40 DUP1 MLOAD PUSH1 0x20 SWAP3 DUP2 SWAP1 SUB DUP4 ADD SWAP1 KECCAK256 SLOAD PUSH1 0x1 PUSH1 0x1 PUSH1 0xA0 SHL SUB AND DUP4 MSTORE SWAP1 DUP3 ADD DUP6 SWAP1 MSTORE PUSH1 0x1 SWAP2 ADD MSTORE SWAP1 POP PUSH2 0x145A DUP2 PUSH2 0x1CDA JUMP JUMPDEST POP PUSH1 0x9 DUP1 SLOAD PUSH1 0x1 SWAP2 SWAP1 PUSH1 0x14 SWAP1 PUSH2 0x147B SWAP1 DUP5 SWAP1 PUSH1 0x1 PUSH1 0xA0 SHL SWAP1 DIV PUSH1 0x3 SIGNEXTEND PUSH2 0x298E JUMP JUMPDEST SWAP3 POP PUSH2 0x100 EXP DUP2 SLOAD DUP2 PUSH4 0xFFFFFFFF MUL NOT AND SWAP1 DUP4 PUSH1 0x3 SIGNEXTEND PUSH4 0xFFFFFFFF AND MUL OR SWAP1 SSTORE POP PUSH1 0x1 PUSH1 0x7 PUSH0 PUSH2 0x14AA DUP11 PUSH2 0xB94 JUMP JUMPDEST PUSH1 0x1 PUSH1 0x1 PUSH1 0xA0 SHL SUB AND PUSH1 0x1 PUSH1 0x1 PUSH1 0xA0 SHL SUB AND DUP2 MSTORE PUSH1 0x20 ADD SWAP1 DUP2 MSTORE PUSH1 0x20 ADD PUSH0 KECCAK256 PUSH0 DUP3 DUP3 SLOAD PUSH2 0x14D7 SWAP2 SWAP1 PUSH2 0x29B5 JUMP JUMPDEST SWAP1 SWAP2 SSTORE POP POP PUSH1 0xA0 ADD MLOAD SWAP8 SWAP7 POP POP POP POP POP POP POP JUMP JUMPDEST CALLER PUSH0 SWAP1 DUP2 MSTORE PUSH1 0x4 PUSH1 0x20 MSTORE PUSH1 0x40 DUP2 KECCAK256 SLOAD PUSH1 0xFF AND PUSH2 0x1505 JUMPI PUSH0 DUP1 REVERT JUMPDEST PUSH0 DUP3 DUP2 MSTORE PUSH1 0x20 DUP2 SWAP1 MSTORE PUSH1 0x40 DUP1 DUP3 KECCAK256 DUP2 MLOAD PUSH1 0xE0 DUP2 ADD SWAP1 SWAP3 MSTORE DUP1 SLOAD DUP3 SWAP1 DUP3 SWAP1 PUSH2 0x152B SWAP1 PUSH2 0x28F0 JUMP JUMPDEST DUP1 PUSH1 0x1F ADD PUSH1 0x20 DUP1 SWAP2 DIV MUL PUSH1 0x20 ADD PUSH1 0x40 MLOAD SWAP1 DUP2 ADD PUSH1 0x40 MSTORE DUP1 SWAP3 SWAP2 SWAP1 DUP2 DUP2 MSTORE PUSH1 0x20 ADD DUP3 DUP1 SLOAD PUSH2 0x1557 SWAP1 PUSH2 0x28F0 JUMP JUMPDEST DUP1 ISZERO PUSH2 0x15A2 JUMPI DUP1 PUSH1 0x1F LT PUSH2 0x1579 JUMPI PUSH2 0x100 DUP1 DUP4 SLOAD DIV MUL DUP4 MSTORE SWAP2 PUSH1 0x20 ADD SWAP2 PUSH2 0x15A2 JUMP JUMPDEST DUP3 ADD SWAP2 SWAP1 PUSH0 MSTORE PUSH1 0x20 PUSH0 KECCAK256 SWAP1 JUMPDEST DUP2 SLOAD DUP2 MSTORE SWAP1 PUSH1 0x1 ADD SWAP1 PUSH1 0x20 ADD DUP1 DUP4 GT PUSH2 0x1585 JUMPI DUP3 SWAP1 SUB PUSH1 0x1F AND DUP3 ADD SWAP2 JUMPDEST POP POP POP POP POP DUP2 MSTORE PUSH1 0x20 ADD PUSH1 0x1 DUP3 ADD DUP1 SLOAD PUSH2 0x15BB SWAP1 PUSH2 0x28F0 JUMP JUMPDEST DUP1 PUSH1 0x1F ADD PUSH1 0x20 DUP1 SWAP2 DIV MUL PUSH1 0x20 ADD PUSH1 0x40 MLOAD SWAP1 DUP2 ADD PUSH1 0x40 MSTORE DUP1 SWAP3 SWAP2 SWAP1 DUP2 DUP2 MSTORE PUSH1 0x20 ADD DUP3 DUP1 SLOAD PUSH2 0x15E7 SWAP1 PUSH2 0x28F0 JUMP JUMPDEST DUP1 ISZERO PUSH2 0x1632 JUMPI DUP1 PUSH1 0x1F LT PUSH2 0x1609 JUMPI PUSH2 0x100 DUP1 DUP4 SLOAD DIV MUL DUP4 MSTORE SWAP2 PUSH1 0x20 ADD SWAP2 PUSH2 0x1632 JUMP JUMPDEST DUP3 ADD SWAP2 SWAP1 PUSH0 MSTORE PUSH1 0x20 PUSH0 KECCAK256 SWAP1 JUMPDEST DUP2 SLOAD DUP2 MSTORE SWAP1 PUSH1 0x1 ADD SWAP1 PUSH1 0x20 ADD DUP1 DUP4 GT PUSH2 0x1615 JUMPI DUP3 SWAP1 SUB PUSH1 0x1F AND DUP3 ADD SWAP2 JUMPDEST POP POP POP SWAP2 DUP4 MSTORE POP POP PUSH1 0x2 DUP3 ADD SLOAD PUSH1 0x1 PUSH1 0x1 PUSH1 0xA0 SHL SUB AND PUSH1 0x20 DUP3 ADD MSTORE PUSH1 0x3 DUP3 ADD DUP1 SLOAD PUSH1 0x40 SWAP1 SWAP3 ADD SWAP2 PUSH2 0x1662 SWAP1 PUSH2 0x28F0 JUMP JUMPDEST DUP1 PUSH1 0x1F ADD PUSH1 0x20 DUP1 SWAP2 DIV MUL PUSH1 0x20 ADD PUSH1 0x40 MLOAD SWAP1 DUP2 ADD PUSH1 0x40 MSTORE DUP1 SWAP3 SWAP2 SWAP1 DUP2 DUP2 MSTORE PUSH1 0x20 ADD DUP3 DUP1 SLOAD PUSH2 0x168E SWAP1 PUSH2 0x28F0 JUMP JUMPDEST DUP1 ISZERO PUSH2 0x16D9 JUMPI DUP1 PUSH1 0x1F LT PUSH2 0x16B0 JUMPI PUSH2 0x100 DUP1 DUP4 SLOAD DIV MUL DUP4 MSTORE SWAP2 PUSH1 0x20 ADD SWAP2 PUSH2 0x16D9 JUMP JUMPDEST DUP3 ADD SWAP2 SWAP1 PUSH0 MSTORE PUSH1 0x20 PUSH0 KECCAK256 SWAP1 JUMPDEST DUP2 SLOAD DUP2 MSTORE SWAP1 PUSH1 0x1 ADD SWAP1 PUSH1 0x20 ADD DUP1 DUP4 GT PUSH2 0x16BC JUMPI DUP3 SWAP1 SUB PUSH1 0x1F AND DUP3 ADD SWAP2 JUMPDEST POP POP POP SWAP2 DUP4 MSTORE POP POP PUSH1 0x4 DUP3 ADD SLOAD PUSH1 0x1 PUSH1 0x1 PUSH1 0xA0 SHL SUB AND PUSH1 0x20 DUP3 ADD MSTORE PUSH1 0x5 DUP3 ADD SLOAD PUSH1 0x40 DUP1 DUP4 ADD SWAP2 SWAP1 SWAP2 MSTORE PUSH1 0x6 SWAP1 SWAP3 ADD SLOAD PUSH1 0xFF AND ISZERO ISZERO PUSH1 0x60 SWAP1 SWAP2 ADD MSTORE DUP2 ADD MLOAD SWAP1 SWAP2 POP PUSH2 0x1724 SWAP1 DUP5 SWAP1 PUSH2 0x22A5 JUMP JUMPDEST PUSH1 0x40 DUP1 DUP3 ADD MLOAD PUSH1 0x1 PUSH1 0x1 PUSH1 0xA0 SHL SUB AND PUSH0 SWAP1 DUP2 MSTORE PUSH1 0x7 PUSH1 0x20 MSTORE SWAP1 DUP2 KECCAK256 DUP1 SLOAD PUSH1 0x1 SWAP3 SWAP1 PUSH2 0x1750 SWAP1 DUP5 SWAP1 PUSH2 0x29C8 JUMP JUMPDEST SWAP1 SWAP2 SSTORE POP POP PUSH1 0x40 DUP1 DUP3 ADD MLOAD PUSH1 0x1 PUSH1 0x1 PUSH1 0xA0 SHL SUB AND PUSH0 SWAP1 DUP2 MSTORE PUSH1 0x1 PUSH1 0x20 SWAP1 DUP2 MSTORE DUP3 DUP3 KECCAK256 DUP1 SLOAD DUP5 MLOAD DUP2 DUP5 MUL DUP2 ADD DUP5 ADD SWAP1 SWAP6 MSTORE DUP1 DUP6 MSTORE SWAP3 SWAP4 SWAP3 SWAP1 SWAP2 DUP4 ADD DUP3 DUP3 DUP1 ISZERO PUSH2 0x17B5 JUMPI PUSH1 0x20 MUL DUP3 ADD SWAP2 SWAP1 PUSH0 MSTORE PUSH1 0x20 PUSH0 KECCAK256 SWAP1 JUMPDEST DUP2 SLOAD DUP2 MSTORE PUSH1 0x20 ADD SWAP1 PUSH1 0x1 ADD SWAP1 DUP1 DUP4 GT PUSH2 0x17A1 JUMPI JUMPDEST POP POP POP POP POP SWAP1 POP PUSH0 JUMPDEST DUP2 MLOAD DUP2 LT ISZERO PUSH2 0x182F JUMPI DUP5 DUP3 DUP3 DUP2 MLOAD DUP2 LT PUSH2 0x17DA JUMPI PUSH2 0x17DA PUSH2 0x29DB JUMP JUMPDEST PUSH1 0x20 MUL PUSH1 0x20 ADD ADD MLOAD SUB PUSH2 0x181D JUMPI PUSH1 0x40 DUP1 DUP5 ADD MLOAD PUSH1 0x1 PUSH1 0x1 PUSH1 0xA0 SHL SUB AND PUSH0 SWAP1 DUP2 MSTORE PUSH1 0x1 PUSH1 0x20 MSTORE KECCAK256 DUP1 SLOAD DUP3 SWAP1 DUP2 LT PUSH2 0x1812 JUMPI PUSH2 0x1812 PUSH2 0x29DB JUMP JUMPDEST PUSH0 SWAP2 DUP3 MSTORE PUSH1 0x20 DUP3 KECCAK256 ADD SSTORE JUMPDEST DUP1 PUSH2 0x1827 DUP2 PUSH2 0x29EF JUMP JUMPDEST SWAP2 POP POP PUSH2 0x17BE JUMP JUMPDEST POP PUSH0 PUSH1 0xC0 DUP4 ADD DUP2 SWAP1 MSTORE PUSH1 0x40 DUP1 DUP5 ADD MLOAD PUSH1 0x1 PUSH1 0x1 PUSH1 0xA0 SHL SUB AND DUP3 MSTORE PUSH1 0x2 PUSH1 0x20 SWAP1 DUP2 MSTORE SWAP1 DUP3 KECCAK256 DUP1 SLOAD PUSH1 0x1 DUP2 ADD DUP3 SSTORE SWAP1 DUP4 MSTORE SWAP2 KECCAK256 DUP4 MLOAD DUP5 SWAP3 PUSH1 0x7 MUL SWAP1 SWAP2 ADD SWAP1 DUP2 SWAP1 PUSH2 0x1877 SWAP1 DUP3 PUSH2 0x2A55 JUMP JUMPDEST POP PUSH1 0x20 DUP3 ADD MLOAD PUSH1 0x1 DUP3 ADD SWAP1 PUSH2 0x188C SWAP1 DUP3 PUSH2 0x2A55 JUMP JUMPDEST POP PUSH1 0x40 DUP3 ADD MLOAD PUSH1 0x2 DUP3 ADD DUP1 SLOAD PUSH1 0x1 PUSH1 0x1 PUSH1 0xA0 SHL SUB NOT AND PUSH1 0x1 PUSH1 0x1 PUSH1 0xA0 SHL SUB SWAP1 SWAP3 AND SWAP2 SWAP1 SWAP2 OR SWAP1 SSTORE PUSH1 0x60 DUP3 ADD MLOAD PUSH1 0x3 DUP3 ADD SWAP1 PUSH2 0x18C7 SWAP1 DUP3 PUSH2 0x2A55 JUMP JUMPDEST POP PUSH1 0x80 DUP3 ADD MLOAD PUSH1 0x4 DUP3 ADD DUP1 SLOAD PUSH1 0x1 PUSH1 0x1 PUSH1 0xA0 SHL SUB NOT AND PUSH1 0x1 PUSH1 0x1 PUSH1 0xA0 SHL SUB SWAP1 SWAP3 AND SWAP2 SWAP1 SWAP2 OR SWAP1 SSTORE PUSH1 0xA0 DUP3 ADD MLOAD PUSH1 0x5 DUP3 ADD SSTORE PUSH1 0xC0 SWAP1 SWAP2 ADD MLOAD PUSH1 0x6 SWAP1 SWAP2 ADD DUP1 SLOAD PUSH1 0xFF NOT AND SWAP2 ISZERO ISZERO SWAP2 SWAP1 SWAP2 OR SWAP1 SSTORE POP PUSH1 0x1 SWAP4 SWAP3 POP POP POP JUMP JUMPDEST PUSH1 0x8 SLOAD PUSH0 SWAP1 PUSH1 0x1 PUSH1 0x1 PUSH1 0xA0 SHL SUB AND CALLER EQ PUSH2 0x1948 JUMPI PUSH1 0x40 MLOAD PUSH3 0x461BCD PUSH1 0xE5 SHL DUP2 MSTORE PUSH1 0x4 ADD PUSH2 0x6F7 SWAP1 PUSH2 0x2928 JUMP JUMPDEST POP PUSH1 0x8 DUP1 SLOAD PUSH1 0xFF PUSH1 0x1 PUSH1 0xA0 SHL DUP1 DUP4 DIV DUP3 AND ISZERO DUP2 MUL PUSH1 0xFF PUSH1 0xA0 SHL NOT SWAP1 SWAP4 AND SWAP3 SWAP1 SWAP3 OR SWAP3 DUP4 SWAP1 SSTORE SWAP2 DIV AND SWAP1 JUMP JUMPDEST PUSH2 0x197B PUSH2 0x24BC JUMP JUMPDEST PUSH1 0x8 SLOAD PUSH1 0x1 PUSH1 0x1 PUSH1 0xA0 SHL SUB AND CALLER EQ PUSH2 0x19A5 JUMPI PUSH1 0x40 MLOAD PUSH3 0x461BCD PUSH1 0xE5 SHL DUP2 MSTORE PUSH1 0x4 ADD PUSH2 0x6F7 SWAP1 PUSH2 0x2928 JUMP JUMPDEST PUSH1 0x1 PUSH1 0x1 PUSH1 0xA0 SHL SUB DUP4 AND PUSH0 SWAP1 DUP2 MSTORE PUSH1 0x2 PUSH1 0x20 SWAP1 DUP2 MSTORE PUSH1 0x40 DUP1 DUP4 KECCAK256 DUP1 SLOAD DUP3 MLOAD DUP2 DUP6 MUL DUP2 ADD DUP6 ADD SWAP1 SWAP4 MSTORE DUP1 DUP4 MSTORE SWAP2 SWAP3 SWAP1 SWAP2 SWAP1 DUP5 SWAP1 DUP5 ADD JUMPDEST DUP3 DUP3 LT ISZERO PUSH2 0x1C02 JUMPI DUP4 DUP3 SWAP1 PUSH0 MSTORE PUSH1 0x20 PUSH0 KECCAK256 SWAP1 PUSH1 0x7 MUL ADD PUSH1 0x40 MLOAD DUP1 PUSH1 0xE0 ADD PUSH1 0x40 MSTORE SWAP1 DUP2 PUSH0 DUP3 ADD DUP1 SLOAD PUSH2 0x1A0A SWAP1 PUSH2 0x28F0 JUMP JUMPDEST DUP1 PUSH1 0x1F ADD PUSH1 0x20 DUP1 SWAP2 DIV MUL PUSH1 0x20 ADD PUSH1 0x40 MLOAD SWAP1 DUP2 ADD PUSH1 0x40 MSTORE DUP1 SWAP3 SWAP2 SWAP1 DUP2 DUP2 MSTORE PUSH1 0x20 ADD DUP3 DUP1 SLOAD PUSH2 0x1A36 SWAP1 PUSH2 0x28F0 JUMP JUMPDEST DUP1 ISZERO PUSH2 0x1A81 JUMPI DUP1 PUSH1 0x1F LT PUSH2 0x1A58 JUMPI PUSH2 0x100 DUP1 DUP4 SLOAD DIV MUL DUP4 MSTORE SWAP2 PUSH1 0x20 ADD SWAP2 PUSH2 0x1A81 JUMP JUMPDEST DUP3 ADD SWAP2 SWAP1 PUSH0 MSTORE PUSH1 0x20 PUSH0 KECCAK256 SWAP1 JUMPDEST DUP2 SLOAD DUP2 MSTORE SWAP1 PUSH1 0x1 ADD SWAP1 PUSH1 0x20 ADD DUP1 DUP4 GT PUSH2 0x1A64 JUMPI DUP3 SWAP1 SUB PUSH1 0x1F AND DUP3 ADD SWAP2 JUMPDEST POP POP POP POP POP DUP2 MSTORE PUSH1 0x20 ADD PUSH1 0x1 DUP3 ADD DUP1 SLOAD PUSH2 0x1A9A SWAP1 PUSH2 0x28F0 JUMP JUMPDEST DUP1 PUSH1 0x1F ADD PUSH1 0x20 DUP1 SWAP2 DIV MUL PUSH1 0x20 ADD PUSH1 0x40 MLOAD SWAP1 DUP2 ADD PUSH1 0x40 MSTORE DUP1 SWAP3 SWAP2 SWAP1 DUP2 DUP2 MSTORE PUSH1 0x20 ADD DUP3 DUP1 SLOAD PUSH2 0x1AC6 SWAP1 PUSH2 0x28F0 JUMP JUMPDEST DUP1 ISZERO PUSH2 0x1B11 JUMPI DUP1 PUSH1 0x1F LT PUSH2 0x1AE8 JUMPI PUSH2 0x100 DUP1 DUP4 SLOAD DIV MUL DUP4 MSTORE SWAP2 PUSH1 0x20 ADD SWAP2 PUSH2 0x1B11 JUMP JUMPDEST DUP3 ADD SWAP2 SWAP1 PUSH0 MSTORE PUSH1 0x20 PUSH0 KECCAK256 SWAP1 JUMPDEST DUP2 SLOAD DUP2 MSTORE SWAP1 PUSH1 0x1 ADD SWAP1 PUSH1 0x20 ADD DUP1 DUP4 GT PUSH2 0x1AF4 JUMPI DUP3 SWAP1 SUB PUSH1 0x1F AND DUP3 ADD SWAP2 JUMPDEST POP POP POP SWAP2 DUP4 MSTORE POP POP PUSH1 0x2 DUP3 ADD SLOAD PUSH1 0x1 PUSH1 0x1 PUSH1 0xA0 SHL SUB AND PUSH1 0x20 DUP3 ADD MSTORE PUSH1 0x3 DUP3 ADD DUP1 SLOAD PUSH1 0x40 SWAP1 SWAP3 ADD SWAP2 PUSH2 0x1B41 SWAP1 PUSH2 0x28F0 JUMP JUMPDEST DUP1 PUSH1 0x1F ADD PUSH1 0x20 DUP1 SWAP2 DIV MUL PUSH1 0x20 ADD PUSH1 0x40 MLOAD SWAP1 DUP2 ADD PUSH1 0x40 MSTORE DUP1 SWAP3 SWAP2 SWAP1 DUP2 DUP2 MSTORE PUSH1 0x20 ADD DUP3 DUP1 SLOAD PUSH2 0x1B6D SWAP1 PUSH2 0x28F0 JUMP JUMPDEST DUP1 ISZERO PUSH2 0x1BB8 JUMPI DUP1 PUSH1 0x1F LT PUSH2 0x1B8F JUMPI PUSH2 0x100 DUP1 DUP4 SLOAD DIV MUL DUP4 MSTORE SWAP2 PUSH1 0x20 ADD SWAP2 PUSH2 0x1BB8 JUMP JUMPDEST DUP3 ADD SWAP2 SWAP1 PUSH0 MSTORE PUSH1 0x20 PUSH0 KECCAK256 SWAP1 JUMPDEST DUP2 SLOAD DUP2 MSTORE SWAP1 PUSH1 0x1 ADD SWAP1 PUSH1 0x20 ADD DUP1 DUP4 GT PUSH2 0x1B9B JUMPI DUP3 SWAP1 SUB PUSH1 0x1F AND DUP3 ADD SWAP2 JUMPDEST POP POP POP SWAP2 DUP4 MSTORE POP POP PUSH1 0x4 DUP3 ADD SLOAD PUSH1 0x1 PUSH1 0x1 PUSH1 0xA0 SHL SUB AND PUSH1 0x20 DUP1 DUP4 ADD SWAP2 SWAP1 SWAP2 MSTORE PUSH1 0x5 DUP4 ADD SLOAD PUSH1 0x40 DUP4 ADD MSTORE PUSH1 0x6 SWAP1 SWAP3 ADD SLOAD PUSH1 0xFF AND ISZERO ISZERO PUSH1 0x60 SWAP1 SWAP2 ADD MSTORE SWAP1 DUP3 MSTORE PUSH1 0x1 SWAP3 SWAP1 SWAP3 ADD SWAP2 ADD PUSH2 0x19DA JUMP JUMPDEST POP POP POP POP SWAP1 POP PUSH0 JUMPDEST DUP2 MLOAD DUP2 LT ISZERO PUSH2 0x1C6C JUMPI DUP4 DUP3 DUP3 DUP2 MLOAD DUP2 LT PUSH2 0x1C26 JUMPI PUSH2 0x1C26 PUSH2 0x29DB JUMP JUMPDEST PUSH1 0x20 MUL PUSH1 0x20 ADD ADD MLOAD PUSH1 0xA0 ADD MLOAD SUB PUSH2 0x1C5A JUMPI DUP2 DUP2 DUP2 MLOAD DUP2 LT PUSH2 0x1C49 JUMPI PUSH2 0x1C49 PUSH2 0x29DB JUMP JUMPDEST PUSH1 0x20 MUL PUSH1 0x20 ADD ADD MLOAD SWAP3 POP POP POP PUSH2 0x700 JUMP JUMPDEST DUP1 PUSH2 0x1C64 DUP2 PUSH2 0x29EF JUMP JUMPDEST SWAP2 POP POP PUSH2 0x1C0A JUMP JUMPDEST POP POP SWAP3 SWAP2 POP POP JUMP JUMPDEST PUSH1 0x8 SLOAD PUSH0 SWAP1 PUSH1 0x1 PUSH1 0x1 PUSH1 0xA0 SHL SUB AND CALLER EQ PUSH2 0x1CA0 JUMPI PUSH1 0x40 MLOAD PUSH3 0x461BCD PUSH1 0xE5 SHL DUP2 MSTORE PUSH1 0x4 ADD PUSH2 0x6F7 SWAP1 PUSH2 0x2928 JUMP JUMPDEST DUP6 DUP6 DUP6 DUP6 DUP6 PUSH1 0x40 MLOAD PUSH1 0x20 ADD PUSH2 0x1CB9 SWAP6 SWAP5 SWAP4 SWAP3 SWAP2 SWAP1 PUSH2 0x2B11 JUMP JUMPDEST PUSH1 0x40 MLOAD PUSH1 0x20 DUP2 DUP4 SUB SUB DUP2 MSTORE SWAP1 PUSH1 0x40 MSTORE DUP1 MLOAD SWAP1 PUSH1 0x20 ADD KECCAK256 SWAP1 POP SWAP6 SWAP5 POP POP POP POP POP JUMP JUMPDEST PUSH1 0x8 SLOAD PUSH0 SWAP1 PUSH1 0x1 PUSH1 0x1 PUSH1 0xA0 SHL SUB AND CALLER EQ PUSH2 0x1D06 JUMPI PUSH1 0x40 MLOAD PUSH3 0x461BCD PUSH1 0xE5 SHL DUP2 MSTORE PUSH1 0x4 ADD PUSH2 0x6F7 SWAP1 PUSH2 0x2928 JUMP JUMPDEST PUSH1 0xA0 DUP3 ADD MLOAD PUSH0 SWAP1 DUP2 MSTORE PUSH1 0x20 DUP2 SWAP1 MSTORE PUSH1 0x40 DUP1 DUP3 KECCAK256 DUP2 MLOAD PUSH1 0xE0 DUP2 ADD SWAP1 SWAP3 MSTORE DUP1 SLOAD DUP3 SWAP1 DUP3 SWAP1 PUSH2 0x1D31 SWAP1 PUSH2 0x28F0 JUMP JUMPDEST DUP1 PUSH1 0x1F ADD PUSH1 0x20 DUP1 SWAP2 DIV MUL PUSH1 0x20 ADD PUSH1 0x40 MLOAD SWAP1 DUP2 ADD PUSH1 0x40 MSTORE DUP1 SWAP3 SWAP2 SWAP1 DUP2 DUP2 MSTORE PUSH1 0x20 ADD DUP3 DUP1 SLOAD PUSH2 0x1D5D SWAP1 PUSH2 0x28F0 JUMP JUMPDEST DUP1 ISZERO PUSH2 0x1DA8 JUMPI DUP1 PUSH1 0x1F LT PUSH2 0x1D7F JUMPI PUSH2 0x100 DUP1 DUP4 SLOAD DIV MUL DUP4 MSTORE SWAP2 PUSH1 0x20 ADD SWAP2 PUSH2 0x1DA8 JUMP JUMPDEST DUP3 ADD SWAP2 SWAP1 PUSH0 MSTORE PUSH1 0x20 PUSH0 KECCAK256 SWAP1 JUMPDEST DUP2 SLOAD DUP2 MSTORE SWAP1 PUSH1 0x1 ADD SWAP1 PUSH1 0x20 ADD DUP1 DUP4 GT PUSH2 0x1D8B JUMPI DUP3 SWAP1 SUB PUSH1 0x1F AND DUP3 ADD SWAP2 JUMPDEST POP POP POP POP POP DUP2 MSTORE PUSH1 0x20 ADD PUSH1 0x1 DUP3 ADD DUP1 SLOAD PUSH2 0x1DC1 SWAP1 PUSH2 0x28F0 JUMP JUMPDEST DUP1 PUSH1 0x1F ADD PUSH1 0x20 DUP1 SWAP2 DIV MUL PUSH1 0x20 ADD PUSH1 0x40 MLOAD SWAP1 DUP2 ADD PUSH1 0x40 MSTORE DUP1 SWAP3 SWAP2 SWAP1 DUP2 DUP2 MSTORE PUSH1 0x20 ADD DUP3 DUP1 SLOAD PUSH2 0x1DED SWAP1 PUSH2 0x28F0 JUMP JUMPDEST DUP1 ISZERO PUSH2 0x1E38 JUMPI DUP1 PUSH1 0x1F LT PUSH2 0x1E0F JUMPI PUSH2 0x100 DUP1 DUP4 SLOAD DIV MUL DUP4 MSTORE SWAP2 PUSH1 0x20 ADD SWAP2 PUSH2 0x1E38 JUMP JUMPDEST DUP3 ADD SWAP2 SWAP1 PUSH0 MSTORE PUSH1 0x20 PUSH0 KECCAK256 SWAP1 JUMPDEST DUP2 SLOAD DUP2 MSTORE SWAP1 PUSH1 0x1 ADD SWAP1 PUSH1 0x20 ADD DUP1 DUP4 GT PUSH2 0x1E1B JUMPI DUP3 SWAP1 SUB PUSH1 0x1F AND DUP3 ADD SWAP2 JUMPDEST POP POP POP SWAP2 DUP4 MSTORE POP POP PUSH1 0x2 DUP3 ADD SLOAD PUSH1 0x1 PUSH1 0x1 PUSH1 0xA0 SHL SUB AND PUSH1 0x20 DUP3 ADD MSTORE PUSH1 0x3 DUP3 ADD DUP1 SLOAD PUSH1 0x40 SWAP1 SWAP3 ADD SWAP2 PUSH2 0x1E68 SWAP1 PUSH2 0x28F0 JUMP JUMPDEST DUP1 PUSH1 0x1F ADD PUSH1 0x20 DUP1 SWAP2 DIV MUL PUSH1 0x20 ADD PUSH1 0x40 MLOAD SWAP1 DUP2 ADD PUSH1 0x40 MSTORE DUP1 SWAP3 SWAP2 SWAP1 DUP2 DUP2 MSTORE PUSH1 0x20 ADD DUP3 DUP1 SLOAD PUSH2 0x1E94 SWAP1 PUSH2 0x28F0 JUMP JUMPDEST DUP1 ISZERO PUSH2 0x1EDF JUMPI DUP1 PUSH1 0x1F LT PUSH2 0x1EB6 JUMPI PUSH2 0x100 DUP1 DUP4 SLOAD DIV MUL DUP4 MSTORE SWAP2 PUSH1 0x20 ADD SWAP2 PUSH2 0x1EDF JUMP JUMPDEST DUP3 ADD SWAP2 SWAP1 PUSH0 MSTORE PUSH1 0x20 PUSH0 KECCAK256 SWAP1 JUMPDEST DUP2 SLOAD DUP2 MSTORE SWAP1 PUSH1 0x1 ADD SWAP1 PUSH1 0x20 ADD DUP1 DUP4 GT PUSH2 0x1EC2 JUMPI DUP3 SWAP1 SUB PUSH1 0x1F AND DUP3 ADD SWAP2 JUMPDEST POP POP POP SWAP2 DUP4 MSTORE POP POP PUSH1 0x4 DUP3 ADD SLOAD PUSH1 0x1 PUSH1 0x1 PUSH1 0xA0 SHL SUB AND PUSH1 0x20 DUP3 ADD MSTORE PUSH1 0x5 DUP3 ADD SLOAD PUSH1 0x40 DUP3 ADD MSTORE PUSH1 0x6 SWAP1 SWAP2 ADD SLOAD PUSH1 0xFF AND ISZERO ISZERO PUSH1 0x60 SWAP1 SWAP2 ADD MSTORE PUSH1 0xC0 DUP2 ADD MLOAD SWAP1 SWAP2 POP ISZERO ISZERO PUSH1 0x1 SUB PUSH2 0x1F66 JUMPI PUSH1 0x40 MLOAD PUSH3 0x461BCD PUSH1 0xE5 SHL DUP2 MSTORE PUSH1 0x20 PUSH1 0x4 DUP3 ADD MSTORE PUSH1 0x15 PUSH1 0x24 DUP3 ADD MSTORE PUSH21 0x4C6963656E736520416C7265647920457869737473 PUSH1 0x58 SHL PUSH1 0x44 DUP3 ADD MSTORE PUSH1 0x64 ADD PUSH2 0x6F7 JUMP JUMPDEST PUSH1 0x40 DUP1 DUP5 ADD MLOAD PUSH1 0x1 PUSH1 0x1 PUSH1 0xA0 SHL SUB AND PUSH0 SWAP1 DUP2 MSTORE PUSH1 0x1 PUSH1 0x20 SWAP1 DUP2 MSTORE DUP3 DUP3 KECCAK256 DUP1 SLOAD DUP5 MLOAD DUP2 DUP5 MUL DUP2 ADD DUP5 ADD SWAP1 SWAP6 MSTORE DUP1 DUP6 MSTORE SWAP3 SWAP4 SWAP3 SWAP1 SWAP2 DUP4 ADD DUP3 DUP3 DUP1 ISZERO PUSH2 0x1FC6 JUMPI PUSH1 0x20 MUL DUP3 ADD SWAP2 SWAP1 PUSH0 MSTORE PUSH1 0x20 PUSH0 KECCAK256 SWAP1 JUMPDEST DUP2 SLOAD DUP2 MSTORE PUSH1 0x20 ADD SWAP1 PUSH1 0x1 ADD SWAP1 DUP1 DUP4 GT PUSH2 0x1FB2 JUMPI JUMPDEST POP POP POP POP POP SWAP1 POP PUSH0 JUMPDEST DUP2 MLOAD DUP2 LT ISZERO PUSH2 0x2291 JUMPI PUSH0 DUP1 DUP4 DUP4 DUP2 MLOAD DUP2 LT PUSH2 0x1FEC JUMPI PUSH2 0x1FEC PUSH2 0x29DB JUMP JUMPDEST PUSH1 0x20 MUL PUSH1 0x20 ADD ADD MLOAD DUP2 MSTORE PUSH1 0x20 ADD SWAP1 DUP2 MSTORE PUSH1 0x20 ADD PUSH0 KECCAK256 PUSH1 0x40 MLOAD DUP1 PUSH1 0xE0 ADD PUSH1 0x40 MSTORE SWAP1 DUP2 PUSH0 DUP3 ADD DUP1 SLOAD PUSH2 0x201B SWAP1 PUSH2 0x28F0 JUMP JUMPDEST DUP1 PUSH1 0x1F ADD PUSH1 0x20 DUP1 SWAP2 DIV MUL PUSH1 0x20 ADD PUSH1 0x40 MLOAD SWAP1 DUP2 ADD PUSH1 0x40 MSTORE DUP1 SWAP3 SWAP2 SWAP1 DUP2 DUP2 MSTORE PUSH1 0x20 ADD DUP3 DUP1 SLOAD PUSH2 0x2047 SWAP1 PUSH2 0x28F0 JUMP JUMPDEST DUP1 ISZERO PUSH2 0x2092 JUMPI DUP1 PUSH1 0x1F LT PUSH2 0x2069 JUMPI PUSH2 0x100 DUP1 DUP4 SLOAD DIV MUL DUP4 MSTORE SWAP2 PUSH1 0x20 ADD SWAP2 PUSH2 0x2092 JUMP JUMPDEST DUP3 ADD SWAP2 SWAP1 PUSH0 MSTORE PUSH1 0x20 PUSH0 KECCAK256 SWAP1 JUMPDEST DUP2 SLOAD DUP2 MSTORE SWAP1 PUSH1 0x1 ADD SWAP1 PUSH1 0x20 ADD DUP1 DUP4 GT PUSH2 0x2075 JUMPI DUP3 SWAP1 SUB PUSH1 0x1F AND DUP3 ADD SWAP2 JUMPDEST POP POP POP POP POP DUP2 MSTORE PUSH1 0x20 ADD PUSH1 0x1 DUP3 ADD DUP1 SLOAD PUSH2 0x20AB SWAP1 PUSH2 0x28F0 JUMP JUMPDEST DUP1 PUSH1 0x1F ADD PUSH1 0x20 DUP1 SWAP2 DIV MUL PUSH1 0x20 ADD PUSH1 0x40 MLOAD SWAP1 DUP2 ADD PUSH1 0x40 MSTORE DUP1 SWAP3 SWAP2 SWAP1 DUP2 DUP2 MSTORE PUSH1 0x20 ADD DUP3 DUP1 SLOAD PUSH2 0x20D7 SWAP1 PUSH2 0x28F0 JUMP JUMPDEST DUP1 ISZERO PUSH2 0x2122 JUMPI DUP1 PUSH1 0x1F LT PUSH2 0x20F9 JUMPI PUSH2 0x100 DUP1 DUP4 SLOAD DIV MUL DUP4 MSTORE SWAP2 PUSH1 0x20 ADD SWAP2 PUSH2 0x2122 JUMP JUMPDEST DUP3 ADD SWAP2 SWAP1 PUSH0 MSTORE PUSH1 0x20 PUSH0 KECCAK256 SWAP1 JUMPDEST DUP2 SLOAD DUP2 MSTORE SWAP1 PUSH1 0x1 ADD SWAP1 PUSH1 0x20 ADD DUP1 DUP4 GT PUSH2 0x2105 JUMPI DUP3 SWAP1 SUB PUSH1 0x1F AND DUP3 ADD SWAP2 JUMPDEST POP POP POP SWAP2 DUP4 MSTORE POP POP PUSH1 0x2 DUP3 ADD SLOAD PUSH1 0x1 PUSH1 0x1 PUSH1 0xA0 SHL SUB AND PUSH1 0x20 DUP3 ADD MSTORE PUSH1 0x3 DUP3 ADD DUP1 SLOAD PUSH1 0x40 SWAP1 SWAP3 ADD SWAP2 PUSH2 0x2152 SWAP1 PUSH2 0x28F0 JUMP JUMPDEST DUP1 PUSH1 0x1F ADD PUSH1 0x20 DUP1 SWAP2 DIV MUL PUSH1 0x20 ADD PUSH1 0x40 MLOAD SWAP1 DUP2 ADD PUSH1 0x40 MSTORE DUP1 SWAP3 SWAP2 SWAP1 DUP2 DUP2 MSTORE PUSH1 0x20 ADD DUP3 DUP1 SLOAD PUSH2 0x217E SWAP1 PUSH2 0x28F0 JUMP JUMPDEST DUP1 ISZERO PUSH2 0x21C9 JUMPI DUP1 PUSH1 0x1F LT PUSH2 0x21A0 JUMPI PUSH2 0x100 DUP1 DUP4 SLOAD DIV MUL DUP4 MSTORE SWAP2 PUSH1 0x20 ADD SWAP2 PUSH2 0x21C9 JUMP JUMPDEST DUP3 ADD SWAP2 SWAP1 PUSH0 MSTORE PUSH1 0x20 PUSH0 KECCAK256 SWAP1 JUMPDEST DUP2 SLOAD DUP2 MSTORE SWAP1 PUSH1 0x1 ADD SWAP1 PUSH1 0x20 ADD DUP1 DUP4 GT PUSH2 0x21AC JUMPI DUP3 SWAP1 SUB PUSH1 0x1F AND DUP3 ADD SWAP2 JUMPDEST POP POP POP SWAP2 DUP4 MSTORE POP POP PUSH1 0x4 DUP3 ADD SLOAD PUSH1 0x1 PUSH1 0x1 PUSH1 0xA0 SHL SUB AND PUSH1 0x20 DUP1 DUP4 ADD SWAP2 SWAP1 SWAP2 MSTORE PUSH1 0x5 DUP4 ADD SLOAD PUSH1 0x40 DUP4 ADD MSTORE PUSH1 0x6 SWAP1 SWAP3 ADD SLOAD PUSH1 0xFF AND ISZERO ISZERO PUSH1 0x60 SWAP1 SWAP2 ADD MSTORE DUP7 DUP2 ADD MLOAD DUP1 MLOAD SWAP1 DUP3 ADD KECCAK256 DUP3 DUP3 ADD MLOAD DUP1 MLOAD SWAP3 ADD SWAP2 SWAP1 SWAP2 KECCAK256 SWAP2 SWAP5 POP SWAP1 SUB PUSH2 0x227F JUMPI PUSH2 0x2249 DUP3 DUP3 DUP2 MLOAD DUP2 LT PUSH2 0x2237 JUMPI PUSH2 0x2237 PUSH2 0x29DB JUMP JUMPDEST PUSH1 0x20 MUL PUSH1 0x20 ADD ADD MLOAD DUP7 PUSH1 0x40 ADD MLOAD PUSH2 0x22A5 JUMP JUMPDEST PUSH1 0x40 DUP1 DUP7 ADD MLOAD PUSH1 0x1 PUSH1 0x1 PUSH1 0xA0 SHL SUB AND PUSH0 SWAP1 DUP2 MSTORE PUSH1 0x1 PUSH1 0x20 MSTORE KECCAK256 DUP1 SLOAD DUP3 SWAP1 DUP2 LT PUSH2 0x2274 JUMPI PUSH2 0x2274 PUSH2 0x29DB JUMP JUMPDEST PUSH0 SWAP2 DUP3 MSTORE PUSH1 0x20 DUP3 KECCAK256 ADD SSTORE JUMPDEST DUP1 PUSH2 0x2289 DUP2 PUSH2 0x29EF JUMP JUMPDEST SWAP2 POP POP PUSH2 0x1FCF JUMP JUMPDEST POP PUSH2 0x229B DUP5 PUSH2 0x2369 JUMP JUMPDEST POP PUSH1 0x1 SWAP4 SWAP3 POP POP POP JUMP JUMPDEST CALLER PUSH0 SWAP1 DUP2 MSTORE PUSH1 0x4 PUSH1 0x20 MSTORE PUSH1 0x40 SWAP1 KECCAK256 SLOAD PUSH1 0xFF AND PUSH2 0x22BF JUMPI PUSH0 DUP1 REVERT JUMPDEST PUSH0 DUP3 DUP2 MSTORE PUSH1 0x20 DUP2 SWAP1 MSTORE PUSH1 0x40 DUP2 KECCAK256 SWAP1 PUSH2 0x22D7 DUP3 DUP3 PUSH2 0x24F6 JUMP JUMPDEST PUSH2 0x22E4 PUSH1 0x1 DUP4 ADD PUSH0 PUSH2 0x24F6 JUMP JUMPDEST PUSH1 0x2 DUP3 ADD DUP1 SLOAD PUSH1 0x1 PUSH1 0x1 PUSH1 0xA0 SHL SUB NOT AND SWAP1 SSTORE PUSH2 0x2303 PUSH1 0x3 DUP4 ADD PUSH0 PUSH2 0x24F6 JUMP JUMPDEST POP PUSH1 0x4 DUP2 ADD DUP1 SLOAD PUSH1 0x1 PUSH1 0x1 PUSH1 0xA0 SHL SUB NOT AND SWAP1 SSTORE PUSH0 PUSH1 0x5 DUP3 ADD SSTORE PUSH1 0x6 ADD DUP1 SLOAD PUSH1 0xFF NOT AND SWAP1 SSTORE PUSH1 0x40 MLOAD DUP3 DUP2 MSTORE PUSH1 0x1 PUSH1 0x1 PUSH1 0xA0 SHL SUB DUP3 AND SWAP1 PUSH32 0xFBA9AEB04FD7E91A1CB29583E8D8BB97D3874361CC1F0B29F6E33F6D3047D8CF SWAP1 PUSH1 0x20 ADD PUSH1 0x40 MLOAD DUP1 SWAP2 SUB SWAP1 LOG2 POP POP JUMP JUMPDEST PUSH1 0x8 SLOAD PUSH1 0x1 PUSH1 0x1 PUSH1 0xA0 SHL SUB AND CALLER EQ PUSH2 0x2393 JUMPI PUSH1 0x40 MLOAD PUSH3 0x461BCD PUSH1 0xE5 SHL DUP2 MSTORE PUSH1 0x4 ADD PUSH2 0x6F7 SWAP1 PUSH2 0x2928 JUMP JUMPDEST PUSH1 0xA0 DUP2 ADD MLOAD PUSH0 SWAP1 DUP2 MSTORE PUSH1 0x20 DUP2 SWAP1 MSTORE PUSH1 0x40 SWAP1 KECCAK256 DUP2 MLOAD DUP3 SWAP2 SWAP1 DUP2 SWAP1 PUSH2 0x23B6 SWAP1 DUP3 PUSH2 0x2A55 JUMP JUMPDEST POP PUSH1 0x20 DUP3 ADD MLOAD PUSH1 0x1 DUP3 ADD SWAP1 PUSH2 0x23CB SWAP1 DUP3 PUSH2 0x2A55 JUMP JUMPDEST POP PUSH1 0x40 DUP3 ADD MLOAD PUSH1 0x2 DUP3 ADD DUP1 SLOAD PUSH1 0x1 PUSH1 0x1 PUSH1 0xA0 SHL SUB NOT AND PUSH1 0x1 PUSH1 0x1 PUSH1 0xA0 SHL SUB SWAP1 SWAP3 AND SWAP2 SWAP1 SWAP2 OR SWAP1 SSTORE PUSH1 0x60 DUP3 ADD MLOAD PUSH1 0x3 DUP3 ADD SWAP1 PUSH2 0x2406 SWAP1 DUP3 PUSH2 0x2A55 JUMP JUMPDEST POP PUSH1 0x80 DUP3 ADD MLOAD PUSH1 0x4 DUP3 ADD DUP1 SLOAD PUSH1 0x1 PUSH1 0x1 PUSH1 0xA0 SHL SUB NOT AND PUSH1 0x1 PUSH1 0x1 PUSH1 0xA0 SHL SUB SWAP3 DUP4 AND OR SWAP1 SSTORE PUSH1 0xA0 DUP1 DUP5 ADD MLOAD PUSH1 0x5 DUP5 ADD SSTORE PUSH1 0xC0 SWAP1 SWAP4 ADD MLOAD PUSH1 0x6 SWAP1 SWAP3 ADD DUP1 SLOAD PUSH1 0xFF NOT AND SWAP3 ISZERO ISZERO SWAP3 SWAP1 SWAP3 OR SWAP1 SWAP2 SSTORE PUSH1 0x40 DUP4 DUP2 ADD DUP1 MLOAD DUP4 AND PUSH0 SWAP1 DUP2 MSTORE PUSH1 0x1 PUSH1 0x20 DUP2 DUP2 MSTORE DUP5 DUP4 KECCAK256 SWAP7 DUP9 ADD DUP1 MLOAD DUP9 SLOAD SWAP4 DUP5 ADD DUP10 SSTORE SWAP8 DUP5 MSTORE SWAP3 DUP2 SWAP1 KECCAK256 SWAP1 SWAP2 ADD SWAP6 SWAP1 SWAP6 SSTORE SWAP1 MLOAD SWAP1 MLOAD SWAP2 MLOAD SWAP2 DUP3 MSTORE SWAP1 SWAP2 AND SWAP2 PUSH32 0x88B059E42378123793B6B50C667570312662BFBE8C07098828E5639754FA1E5B SWAP2 ADD PUSH1 0x40 MLOAD DUP1 SWAP2 SUB SWAP1 LOG2 POP JUMP JUMPDEST PUSH1 0x40 DUP1 MLOAD PUSH1 0xE0 DUP2 ADD DUP3 MSTORE PUSH1 0x60 DUP1 DUP3 MSTORE PUSH1 0x20 DUP3 ADD DUP2 SWAP1 MSTORE PUSH0 SWAP3 DUP3 ADD DUP4 SWAP1 MSTORE DUP1 DUP3 ADD MSTORE PUSH1 0x80 DUP2 ADD DUP3 SWAP1 MSTORE PUSH1 0xA0 DUP2 ADD DUP3 SWAP1 MSTORE PUSH1 0xC0 DUP2 ADD SWAP2 SWAP1 SWAP2 MSTORE SWAP1 JUMP JUMPDEST POP DUP1 SLOAD PUSH2 0x2502 SWAP1 PUSH2 0x28F0 JUMP JUMPDEST PUSH0 DUP3 SSTORE DUP1 PUSH1 0x1F LT PUSH2 0x2511 JUMPI POP POP JUMP JUMPDEST PUSH1 0x1F ADD PUSH1 0x20 SWAP1 DIV SWAP1 PUSH0 MSTORE PUSH1 0x20 PUSH0 KECCAK256 SWAP1 DUP2 ADD SWAP1 PUSH2 0x252D SWAP2 SWAP1 PUSH2 0x2530 JUMP JUMPDEST POP JUMP JUMPDEST JUMPDEST DUP1 DUP3 GT ISZERO PUSH2 0x2544 JUMPI PUSH0 DUP2 SSTORE PUSH1 0x1 ADD PUSH2 0x2531 JUMP JUMPDEST POP SWAP1 JUMP JUMPDEST PUSH0 JUMPDEST DUP4 DUP2 LT ISZERO PUSH2 0x2562 JUMPI DUP2 DUP2 ADD MLOAD DUP4 DUP3 ADD MSTORE PUSH1 0x20 ADD PUSH2 0x254A JUMP JUMPDEST POP POP PUSH0 SWAP2 ADD MSTORE JUMP JUMPDEST PUSH0 DUP2 MLOAD DUP1 DUP5 MSTORE PUSH2 0x2581 DUP2 PUSH1 0x20 DUP7 ADD PUSH1 0x20 DUP7 ADD PUSH2 0x2548 JUMP JUMPDEST PUSH1 0x1F ADD PUSH1 0x1F NOT AND SWAP3 SWAP1 SWAP3 ADD PUSH1 0x20 ADD SWAP3 SWAP2 POP POP JUMP JUMPDEST PUSH1 0x20 DUP2 MSTORE PUSH0 PUSH2 0x25A7 PUSH1 0x20 DUP4 ADD DUP5 PUSH2 0x256A JUMP JUMPDEST SWAP4 SWAP3 POP POP POP JUMP JUMPDEST PUSH0 PUSH1 0x20 DUP3 DUP5 SUB SLT ISZERO PUSH2 0x25BE JUMPI PUSH0 DUP1 REVERT JUMPDEST POP CALLDATALOAD SWAP2 SWAP1 POP JUMP JUMPDEST PUSH1 0x20 DUP2 MSTORE PUSH0 DUP3 MLOAD PUSH1 0xE0 PUSH1 0x20 DUP5 ADD MSTORE PUSH2 0x25E1 PUSH2 0x100 DUP5 ADD DUP3 PUSH2 0x256A JUMP JUMPDEST SWAP1 POP PUSH1 0x20 DUP5 ADD MLOAD PUSH1 0x1F NOT DUP1 DUP6 DUP5 SUB ADD PUSH1 0x40 DUP7 ADD MSTORE PUSH2 0x25FF DUP4 DUP4 PUSH2 0x256A JUMP JUMPDEST PUSH1 0x40 DUP8 ADD MLOAD PUSH1 0x1 PUSH1 0x1 PUSH1 0xA0 SHL SUB SWAP1 DUP2 AND PUSH1 0x60 DUP9 DUP2 ADD SWAP2 SWAP1 SWAP2 MSTORE DUP9 ADD MLOAD DUP8 DUP4 SUB DUP5 ADD PUSH1 0x80 DUP10 ADD MSTORE SWAP2 SWAP5 POP SWAP1 SWAP3 POP PUSH2 0x2635 DUP5 DUP5 PUSH2 0x256A JUMP JUMPDEST SWAP4 POP DUP1 PUSH1 0x80 DUP9 ADD MLOAD AND PUSH1 0xA0 DUP8 ADD MSTORE POP POP POP PUSH1 0xA0 DUP5 ADD MLOAD PUSH1 0xC0 DUP5 ADD MSTORE PUSH1 0xC0 DUP5 ADD MLOAD PUSH2 0x2663 PUSH1 0xE0 DUP6 ADD DUP3 ISZERO ISZERO SWAP1 MSTORE JUMP JUMPDEST POP SWAP4 SWAP3 POP POP POP JUMP JUMPDEST DUP1 CALLDATALOAD PUSH1 0x1 PUSH1 0x1 PUSH1 0xA0 SHL SUB DUP2 AND DUP2 EQ PUSH2 0x7A8 JUMPI PUSH0 DUP1 REVERT JUMPDEST PUSH0 PUSH1 0x20 DUP3 DUP5 SUB SLT ISZERO PUSH2 0x2691 JUMPI PUSH0 DUP1 REVERT JUMPDEST PUSH2 0x25A7 DUP3 PUSH2 0x266B JUMP JUMPDEST PUSH1 0x20 DUP1 DUP3 MSTORE DUP3 MLOAD DUP3 DUP3 ADD DUP2 SWAP1 MSTORE PUSH0 SWAP2 SWAP1 DUP5 DUP3 ADD SWAP1 PUSH1 0x40 DUP6 ADD SWAP1 DUP5 JUMPDEST DUP2 DUP2 LT ISZERO PUSH2 0x26D1 JUMPI DUP4 MLOAD DUP4 MSTORE SWAP3 DUP5 ADD SWAP3 SWAP2 DUP5 ADD SWAP2 PUSH1 0x1 ADD PUSH2 0x26B5 JUMP JUMPDEST POP SWAP1 SWAP7 SWAP6 POP POP POP POP POP POP JUMP JUMPDEST PUSH4 0x4E487B71 PUSH1 0xE0 SHL PUSH0 MSTORE PUSH1 0x41 PUSH1 0x4 MSTORE PUSH1 0x24 PUSH0 REVERT JUMPDEST PUSH0 DUP3 PUSH1 0x1F DUP4 ADD SLT PUSH2 0x2700 JUMPI PUSH0 DUP1 REVERT JUMPDEST DUP2 CALLDATALOAD PUSH8 0xFFFFFFFFFFFFFFFF DUP1 DUP3 GT ISZERO PUSH2 0x271B JUMPI PUSH2 0x271B PUSH2 0x26DD JUMP JUMPDEST PUSH1 0x40 MLOAD PUSH1 0x1F DUP4 ADD PUSH1 0x1F NOT SWAP1 DUP2 AND PUSH1 0x3F ADD AND DUP2 ADD SWAP1 DUP3 DUP3 GT DUP2 DUP4 LT OR ISZERO PUSH2 0x2743 JUMPI PUSH2 0x2743 PUSH2 0x26DD JUMP JUMPDEST DUP2 PUSH1 0x40 MSTORE DUP4 DUP2 MSTORE DUP7 PUSH1 0x20 DUP6 DUP9 ADD ADD GT ISZERO PUSH2 0x275B JUMPI PUSH0 DUP1 REVERT JUMPDEST DUP4 PUSH1 0x20 DUP8 ADD PUSH1 0x20 DUP4 ADD CALLDATACOPY PUSH0 PUSH1 0x20 DUP6 DUP4 ADD ADD MSTORE DUP1 SWAP5 POP POP POP POP POP SWAP3 SWAP2 POP POP JUMP JUMPDEST PUSH0 DUP1 PUSH0 DUP1 PUSH0 PUSH1 0xA0 DUP7 DUP9 SUB SLT ISZERO PUSH2 0x278E JUMPI PUSH0 DUP1 REVERT JUMPDEST DUP6 CALLDATALOAD PUSH8 0xFFFFFFFFFFFFFFFF DUP1 DUP3 GT ISZERO PUSH2 0x27A5 JUMPI PUSH0 DUP1 REVERT JUMPDEST PUSH2 0x27B1 DUP10 DUP4 DUP11 ADD PUSH2 0x26F1 JUMP JUMPDEST SWAP7 POP PUSH1 0x20 DUP9 ADD CALLDATALOAD SWAP2 POP DUP1 DUP3 GT ISZERO PUSH2 0x27C6 JUMPI PUSH0 DUP1 REVERT JUMPDEST PUSH2 0x27D2 DUP10 DUP4 DUP11 ADD PUSH2 0x26F1 JUMP JUMPDEST SWAP6 POP PUSH1 0x40 DUP9 ADD CALLDATALOAD SWAP2 POP DUP1 DUP3 GT ISZERO PUSH2 0x27E7 JUMPI PUSH0 DUP1 REVERT JUMPDEST PUSH2 0x27F3 DUP10 DUP4 DUP11 ADD PUSH2 0x26F1 JUMP JUMPDEST SWAP5 POP PUSH1 0x60 DUP9 ADD CALLDATALOAD SWAP2 POP DUP1 DUP3 GT ISZERO PUSH2 0x2808 JUMPI PUSH0 DUP1 REVERT JUMPDEST PUSH2 0x2814 DUP10 DUP4 DUP11 ADD PUSH2 0x26F1 JUMP JUMPDEST SWAP4 POP PUSH1 0x80 DUP9 ADD CALLDATALOAD SWAP2 POP DUP1 DUP3 GT ISZERO PUSH2 0x2829 JUMPI PUSH0 DUP1 REVERT JUMPDEST POP PUSH2 0x2836 DUP9 DUP3 DUP10 ADD PUSH2 0x26F1 JUMP JUMPDEST SWAP2 POP POP SWAP3 SWAP6 POP SWAP3 SWAP6 SWAP1 SWAP4 POP JUMP JUMPDEST PUSH0 PUSH1 0x20 DUP3 DUP5 SUB SLT ISZERO PUSH2 0x2853 JUMPI PUSH0 DUP1 REVERT JUMPDEST DUP2 CALLDATALOAD PUSH8 0xFFFFFFFFFFFFFFFF DUP2 GT ISZERO PUSH2 0x2869 JUMPI PUSH0 DUP1 REVERT JUMPDEST PUSH2 0x2875 DUP5 DUP3 DUP6 ADD PUSH2 0x26F1 JUMP JUMPDEST SWAP5 SWAP4 POP POP POP POP JUMP JUMPDEST PUSH0 DUP1 PUSH1 0x40 DUP4 DUP6 SUB SLT ISZERO PUSH2 0x288E JUMPI PUSH0 DUP1 REVERT JUMPDEST DUP3 CALLDATALOAD PUSH8 0xFFFFFFFFFFFFFFFF DUP2 GT ISZERO PUSH2 0x28A4 JUMPI PUSH0 DUP1 REVERT JUMPDEST PUSH2 0x28B0 DUP6 DUP3 DUP7 ADD PUSH2 0x26F1 JUMP JUMPDEST SWAP3 POP POP PUSH2 0x28BF PUSH1 0x20 DUP5 ADD PUSH2 0x266B JUMP JUMPDEST SWAP1 POP SWAP3 POP SWAP3 SWAP1 POP JUMP JUMPDEST PUSH0 DUP1 PUSH1 0x40 DUP4 DUP6 SUB SLT ISZERO PUSH2 0x28D9 JUMPI PUSH0 DUP1 REVERT JUMPDEST PUSH2 0x28E2 DUP4 PUSH2 0x266B JUMP JUMPDEST SWAP5 PUSH1 0x20 SWAP4 SWAP1 SWAP4 ADD CALLDATALOAD SWAP4 POP POP POP JUMP JUMPDEST PUSH1 0x1 DUP2 DUP2 SHR SWAP1 DUP3 AND DUP1 PUSH2 0x2904 JUMPI PUSH1 0x7F DUP3 AND SWAP2 POP JUMPDEST PUSH1 0x20 DUP3 LT DUP2 SUB PUSH2 0x2922 JUMPI PUSH4 0x4E487B71 PUSH1 0xE0 SHL PUSH0 MSTORE PUSH1 0x22 PUSH1 0x4 MSTORE PUSH1 0x24 PUSH0 REVERT JUMPDEST POP SWAP2 SWAP1 POP JUMP JUMPDEST PUSH1 0x20 DUP1 DUP3 MSTORE PUSH1 0x17 SWAP1 DUP3 ADD MSTORE PUSH32 0x4F6E6C79204F776E65722063616E206163746976617465000000000000000000 PUSH1 0x40 DUP3 ADD MSTORE PUSH1 0x60 ADD SWAP1 JUMP JUMPDEST PUSH0 DUP3 MLOAD PUSH2 0x2970 DUP2 DUP5 PUSH1 0x20 DUP8 ADD PUSH2 0x2548 JUMP JUMPDEST SWAP2 SWAP1 SWAP2 ADD SWAP3 SWAP2 POP POP JUMP JUMPDEST PUSH4 0x4E487B71 PUSH1 0xE0 SHL PUSH0 MSTORE PUSH1 0x11 PUSH1 0x4 MSTORE PUSH1 0x24 PUSH0 REVERT JUMPDEST PUSH1 0x3 DUP2 DUP2 SIGNEXTEND SWAP1 DUP4 SWAP1 SIGNEXTEND ADD PUSH4 0x7FFFFFFF DUP2 SGT PUSH4 0x7FFFFFFF NOT DUP3 SLT OR ISZERO PUSH2 0x700 JUMPI PUSH2 0x700 PUSH2 0x297A JUMP JUMPDEST DUP1 DUP3 ADD DUP1 DUP3 GT ISZERO PUSH2 0x700 JUMPI PUSH2 0x700 PUSH2 0x297A JUMP JUMPDEST DUP2 DUP2 SUB DUP2 DUP2 GT ISZERO PUSH2 0x700 JUMPI PUSH2 0x700 PUSH2 0x297A JUMP JUMPDEST PUSH4 0x4E487B71 PUSH1 0xE0 SHL PUSH0 MSTORE PUSH1 0x32 PUSH1 0x4 MSTORE PUSH1 0x24 PUSH0 REVERT JUMPDEST PUSH0 PUSH1 0x1 DUP3 ADD PUSH2 0x2A00 JUMPI PUSH2 0x2A00 PUSH2 0x297A JUMP JUMPDEST POP PUSH1 0x1 ADD SWAP1 JUMP JUMPDEST PUSH1 0x1F DUP3 GT ISZERO PUSH2 0x2A50 JUMPI PUSH0 DUP2 DUP2 MSTORE PUSH1 0x20 DUP2 KECCAK256 PUSH1 0x1F DUP6 ADD PUSH1 0x5 SHR DUP2 ADD PUSH1 0x20 DUP7 LT ISZERO PUSH2 0x2A2D JUMPI POP DUP1 JUMPDEST PUSH1 0x1F DUP6 ADD PUSH1 0x5 SHR DUP3 ADD SWAP2 POP JUMPDEST DUP2 DUP2 LT ISZERO PUSH2 0x2A4C JUMPI DUP3 DUP2 SSTORE PUSH1 0x1 ADD PUSH2 0x2A39 JUMP JUMPDEST POP POP POP JUMPDEST POP POP POP JUMP JUMPDEST DUP2 MLOAD PUSH8 0xFFFFFFFFFFFFFFFF DUP2 GT ISZERO PUSH2 0x2A6F JUMPI PUSH2 0x2A6F PUSH2 0x26DD JUMP JUMPDEST PUSH2 0x2A83 DUP2 PUSH2 0x2A7D DUP5 SLOAD PUSH2 0x28F0 JUMP JUMPDEST DUP5 PUSH2 0x2A07 JUMP JUMPDEST PUSH1 0x20 DUP1 PUSH1 0x1F DUP4 GT PUSH1 0x1 DUP2 EQ PUSH2 0x2AB6 JUMPI PUSH0 DUP5 ISZERO PUSH2 0x2A9F JUMPI POP DUP6 DUP4 ADD MLOAD JUMPDEST PUSH0 NOT PUSH1 0x3 DUP7 SWAP1 SHL SHR NOT AND PUSH1 0x1 DUP6 SWAP1 SHL OR DUP6 SSTORE PUSH2 0x2A4C JUMP JUMPDEST PUSH0 DUP6 DUP2 MSTORE PUSH1 0x20 DUP2 KECCAK256 PUSH1 0x1F NOT DUP7 AND SWAP2 JUMPDEST DUP3 DUP2 LT ISZERO PUSH2 0x2AE4 JUMPI DUP9 DUP7 ADD MLOAD DUP3 SSTORE SWAP5 DUP5 ADD SWAP5 PUSH1 0x1 SWAP1 SWAP2 ADD SWAP1 DUP5 ADD PUSH2 0x2AC5 JUMP JUMPDEST POP DUP6 DUP3 LT ISZERO PUSH2 0x2B01 JUMPI DUP8 DUP6 ADD MLOAD PUSH0 NOT PUSH1 0x3 DUP9 SWAP1 SHL PUSH1 0xF8 AND SHR NOT AND DUP2 SSTORE JUMPDEST POP POP POP POP POP PUSH1 0x1 SWAP1 DUP2 SHL ADD SWAP1 SSTORE POP JUMP JUMPDEST PUSH1 0xA0 DUP2 MSTORE PUSH0 PUSH2 0x2B23 PUSH1 0xA0 DUP4 ADD DUP9 PUSH2 0x256A JUMP JUMPDEST DUP3 DUP2 SUB PUSH1 0x20 DUP5 ADD MSTORE PUSH2 0x2B35 DUP2 DUP9 PUSH2 0x256A JUMP JUMPDEST PUSH1 0x1 PUSH1 0x1 PUSH1 0xA0 SHL SUB DUP8 DUP2 AND PUSH1 0x40 DUP7 ADD MSTORE DUP5 DUP3 SUB PUSH1 0x60 DUP7 ADD MSTORE SWAP1 SWAP2 POP PUSH2 0x2B5A DUP3 DUP8 PUSH2 0x256A JUMP JUMPDEST SWAP3 POP DUP1 DUP6 AND PUSH1 0x80 DUP6 ADD MSTORE POP POP SWAP7 SWAP6 POP POP POP POP POP POP JUMP INVALID LOG2 PUSH5 0x6970667358 0x22 SLT KECCAK256 PUSH20 0x19E344E1352E202FFDF8B359C04D180CCE8E8CDB PUSH2 0xD7CB 0xB0 ADD 0xBE 0xF6 DUP16 CALLDATASIZE 0x4D MLOAD PUSH5 0x736F6C6343 STOP ADDMOD ISZERO STOP CALLER "
				},
				"gasEstimates": {
					"creation": {
						"codeDepositCost": "2234800",
						"executionCost": "infinite",
						"totalCost": "infinite"
					},
					"external": {
						"addApprover(string,address)": "infinite",
						"addTaxPayer(string,address)": "infinite",
						"approveAdmin(address)": "54804",
						"balance()": "2436",
						"canMint()": "2431",
						"expirationLicense(bytes32)": "infinite",
						"getExpiredLicense(address,bytes32)": "infinite",
						"getManyAddressSignature(address)": "infinite",
						"getOwnerAddressSignature()": "infinite",
						"getOwnnerSignature(bytes32)": "infinite",
						"getSignature(bytes32)": "infinite",
						"mintingStop()": "26765",
						"name()": "infinite",
						"proposeAdmin(address)": "30608",
						"setSuccessor(address)": "infinite",
						"signatureMint(string,string,string,string,string)": "infinite",
						"signatureValidate(bytes32)": "infinite",
						"successor()": "2403",
						"symbol()": "infinite",
						"taxpayerAddress(string)": "infinite",
						"totalMinted()": "2403",
						"tranferOwnership(address)": "26903",
						"validateData(string,string,string,string,string)": "infinite"
					},
					"internal": {
						"_checkLicense(struct ISignature.StructSignature memory)": "infinite",
						"_createLicense(struct ISignature.StructSignature memory)": "infinite",
						"_deleteLicense(bytes32,address)": "infinite",
						"singLicense(string memory,string memory,address,string memory,address)": "infinite"
					}
				},
				"methodIdentifiers": {
					"addApprover(string,address)": "c8c2f4fe",
					"addTaxPayer(string,address)": "9dfb7831",
					"approveAdmin(address)": "6d73e669",
					"balance()": "b69ef8a8",
					"canMint()": "beb9716d",
					"expirationLicense(bytes32)": "d84ab181",
					"getExpiredLicense(address,bytes32)": "e516224e",
					"getManyAddressSignature(address)": "369f6cd7",
					"getOwnerAddressSignature()": "3fde3309",
					"getOwnnerSignature(bytes32)": "0c0bd76b",
					"getSignature(bytes32)": "c4b14e0b",
					"mintingStop()": "dc2aa909",
					"name()": "06fdde03",
					"proposeAdmin(address)": "147bf6c4",
					"setSuccessor(address)": "10e5bff8",
					"signatureMint(string,string,string,string,string)": "ce7262a1",
					"signatureValidate(bytes32)": "bff2d536",
					"successor()": "6ff968c3",
					"symbol()": "95d89b41",
					"taxpayerAddress(string)": "84e26b2c",
					"totalMinted()": "a2309ff8",
					"tranferOwnership(address)": "83fc58b4",
					"validateData(string,string,string,string,string)": "7ea5cc1a"
				}
			},
			"storageLayout": {
				"storage": [
					{
						"astId": 67,
						"contract": "TokenSGTX/contracts/LicensesTaxs.sol:LicenseTaxPayer",
						"label": "_signatureEnabled",
						"offset": 0,
						"slot": "0",
						"type": "t_mapping(t_bytes32,t_struct(StructSignature)16_storage)"
					},
					{
						"astId": 72,
						"contract": "TokenSGTX/contracts/LicensesTaxs.sol:LicenseTaxPayer",
						"label": "_userSings",
						"offset": 0,
						"slot": "1",
						"type": "t_mapping(t_address,t_array(t_bytes32)dyn_storage)"
					},
					{
						"astId": 78,
						"contract": "TokenSGTX/contracts/LicensesTaxs.sol:LicenseTaxPayer",
						"label": "_recordedLicenses",
						"offset": 0,
						"slot": "2",
						"type": "t_mapping(t_address,t_array(t_struct(StructSignature)16_storage)dyn_storage)"
					},
					{
						"astId": 82,
						"contract": "TokenSGTX/contracts/LicensesTaxs.sol:LicenseTaxPayer",
						"label": "_taxpayers",
						"offset": 0,
						"slot": "3",
						"type": "t_mapping(t_string_memory_ptr,t_address)"
					},
					{
						"astId": 86,
						"contract": "TokenSGTX/contracts/LicensesTaxs.sol:LicenseTaxPayer",
						"label": "_admins",
						"offset": 0,
						"slot": "4",
						"type": "t_mapping(t_address,t_bool)"
					},
					{
						"astId": 90,
						"contract": "TokenSGTX/contracts/LicensesTaxs.sol:LicenseTaxPayer",
						"label": "_propoceAdmins",
						"offset": 0,
						"slot": "5",
						"type": "t_mapping(t_address,t_bool)"
					},
					{
						"astId": 94,
						"contract": "TokenSGTX/contracts/LicensesTaxs.sol:LicenseTaxPayer",
						"label": "_approvers",
						"offset": 0,
						"slot": "6",
						"type": "t_mapping(t_string_memory_ptr,t_address)"
					},
					{
						"astId": 98,
						"contract": "TokenSGTX/contracts/LicensesTaxs.sol:LicenseTaxPayer",
						"label": "_balances",
						"offset": 0,
						"slot": "7",
						"type": "t_mapping(t_address,t_uint256)"
					},
					{
						"astId": 130,
						"contract": "TokenSGTX/contracts/LicensesTaxs.sol:LicenseTaxPayer",
						"label": "owner",
						"offset": 0,
						"slot": "8",
						"type": "t_address"
					},
					{
						"astId": 133,
						"contract": "TokenSGTX/contracts/LicensesTaxs.sol:LicenseTaxPayer",
						"label": "stopMinting",
						"offset": 20,
						"slot": "8",
						"type": "t_bool"
					},
					{
						"astId": 135,
						"contract": "TokenSGTX/contracts/LicensesTaxs.sol:LicenseTaxPayer",
						"label": "successor",
						"offset": 0,
						"slot": "9",
						"type": "t_address"
					},
					{
						"astId": 138,
						"contract": "TokenSGTX/contracts/LicensesTaxs.sol:LicenseTaxPayer",
						"label": "totalMinted",
						"offset": 20,
						"slot": "9",
						"type": "t_int32"
					},
					{
						"astId": 140,
						"contract": "TokenSGTX/contracts/LicensesTaxs.sol:LicenseTaxPayer",
						"label": "_name",
						"offset": 0,
						"slot": "10",
						"type": "t_string_storage"
					},
					{
						"astId": 142,
						"contract": "TokenSGTX/contracts/LicensesTaxs.sol:LicenseTaxPayer",
						"label": "_symbol",
						"offset": 0,
						"slot": "11",
						"type": "t_string_storage"
					}
				],
				"types": {
					"t_address": {
						"encoding": "inplace",
						"label": "address",
						"numberOfBytes": "20"
					},
					"t_array(t_bytes32)dyn_storage": {
						"base": "t_bytes32",
						"encoding": "dynamic_array",
						"label": "bytes32[]",
						"numberOfBytes": "32"
					},
					"t_array(t_struct(StructSignature)16_storage)dyn_storage": {
						"base": "t_struct(StructSignature)16_storage",
						"encoding": "dynamic_array",
						"label": "struct ISignature.StructSignature[]",
						"numberOfBytes": "32"
					},
					"t_bool": {
						"encoding": "inplace",
						"label": "bool",
						"numberOfBytes": "1"
					},
					"t_bytes32": {
						"encoding": "inplace",
						"label": "bytes32",
						"numberOfBytes": "32"
					},
					"t_int32": {
						"encoding": "inplace",
						"label": "int32",
						"numberOfBytes": "4"
					},
					"t_mapping(t_address,t_array(t_bytes32)dyn_storage)": {
						"encoding": "mapping",
						"key": "t_address",
						"label": "mapping(address => bytes32[])",
						"numberOfBytes": "32",
						"value": "t_array(t_bytes32)dyn_storage"
					},
					"t_mapping(t_address,t_array(t_struct(StructSignature)16_storage)dyn_storage)": {
						"encoding": "mapping",
						"key": "t_address",
						"label": "mapping(address => struct ISignature.StructSignature[])",
						"numberOfBytes": "32",
						"value": "t_array(t_struct(StructSignature)16_storage)dyn_storage"
					},
					"t_mapping(t_address,t_bool)": {
						"encoding": "mapping",
						"key": "t_address",
						"label": "mapping(address => bool)",
						"numberOfBytes": "32",
						"value": "t_bool"
					},
					"t_mapping(t_address,t_uint256)": {
						"encoding": "mapping",
						"key": "t_address",
						"label": "mapping(address => uint256)",
						"numberOfBytes": "32",
						"value": "t_uint256"
					},
					"t_mapping(t_bytes32,t_struct(StructSignature)16_storage)": {
						"encoding": "mapping",
						"key": "t_bytes32",
						"label": "mapping(bytes32 => struct ISignature.StructSignature)",
						"numberOfBytes": "32",
						"value": "t_struct(StructSignature)16_storage"
					},
					"t_mapping(t_string_memory_ptr,t_address)": {
						"encoding": "mapping",
						"key": "t_string_memory_ptr",
						"label": "mapping(string => address)",
						"numberOfBytes": "32",
						"value": "t_address"
					},
					"t_string_memory_ptr": {
						"encoding": "bytes",
						"label": "string",
						"numberOfBytes": "32"
					},
					"t_string_storage": {
						"encoding": "bytes",
						"label": "string",
						"numberOfBytes": "32"
					},
					"t_struct(StructSignature)16_storage": {
						"encoding": "inplace",
						"label": "struct ISignature.StructSignature",
						"members": [
							{
								"astId": 3,
								"contract": "TokenSGTX/contracts/LicensesTaxs.sol:LicenseTaxPayer",
								"label": "concept",
								"offset": 0,
								"slot": "0",
								"type": "t_string_storage"
							},
							{
								"astId": 5,
								"contract": "TokenSGTX/contracts/LicensesTaxs.sol:LicenseTaxPayer",
								"label": "identifier",
								"offset": 0,
								"slot": "1",
								"type": "t_string_storage"
							},
							{
								"astId": 7,
								"contract": "TokenSGTX/contracts/LicensesTaxs.sol:LicenseTaxPayer",
								"label": "owner",
								"offset": 0,
								"slot": "2",
								"type": "t_address"
							},
							{
								"astId": 9,
								"contract": "TokenSGTX/contracts/LicensesTaxs.sol:LicenseTaxPayer",
								"label": "data",
								"offset": 0,
								"slot": "3",
								"type": "t_string_storage"
							},
							{
								"astId": 11,
								"contract": "TokenSGTX/contracts/LicensesTaxs.sol:LicenseTaxPayer",
								"label": "aprrover",
								"offset": 0,
								"slot": "4",
								"type": "t_address"
							},
							{
								"astId": 13,
								"contract": "TokenSGTX/contracts/LicensesTaxs.sol:LicenseTaxPayer",
								"label": "signature",
								"offset": 0,
								"slot": "5",
								"type": "t_bytes32"
							},
							{
								"astId": 15,
								"contract": "TokenSGTX/contracts/LicensesTaxs.sol:LicenseTaxPayer",
								"label": "isEntity",
								"offset": 0,
								"slot": "6",
								"type": "t_bool"
							}
						],
						"numberOfBytes": "224"
					},
					"t_uint256": {
						"encoding": "inplace",
						"label": "uint256",
						"numberOfBytes": "32"
					}
				}
			},
			"userdoc": {
				"kind": "user",
				"methods": {},
				"version": 1
			}
		}
	}
}