{
	"TokenSGTX/contracts/LicenciasTaxsClone.sol": {
		"LicenseTaxPayer": {
			"abi": [
				{
					"inputs": [],
					"stateMutability": "nonpayable",
					"type": "constructor"
				},
				{
					"anonymous": false,
					"inputs": [
						{
							"indexed": true,
							"internalType": "address",
							"name": "",
							"type": "address"
						},
						{
							"indexed": false,
							"internalType": "bool",
							"name": "",
							"type": "bool"
						}
					],
					"name": "eventNewAdminPropose",
					"type": "event"
				},
				{
					"anonymous": false,
					"inputs": [
						{
							"indexed": true,
							"internalType": "address",
							"name": "",
							"type": "address"
						},
						{
							"indexed": false,
							"internalType": "bool",
							"name": "",
							"type": "bool"
						}
					],
					"name": "eventNewAdminRegistred",
					"type": "event"
				},
				{
					"anonymous": false,
					"inputs": [
						{
							"indexed": true,
							"internalType": "address",
							"name": "",
							"type": "address"
						},
						{
							"indexed": false,
							"internalType": "bool",
							"name": "",
							"type": "bool"
						}
					],
					"name": "eventNewApprover",
					"type": "event"
				},
				{
					"anonymous": false,
					"inputs": [
						{
							"indexed": true,
							"internalType": "address",
							"name": "_addressHolder",
							"type": "address"
						},
						{
							"indexed": false,
							"internalType": "bytes32",
							"name": "sing",
							"type": "bytes32"
						}
					],
					"name": "eventSignatureCreate",
					"type": "event"
				},
				{
					"anonymous": false,
					"inputs": [
						{
							"indexed": true,
							"internalType": "address",
							"name": "_addressHolder",
							"type": "address"
						},
						{
							"indexed": false,
							"internalType": "bytes32",
							"name": "sing",
							"type": "bytes32"
						}
					],
					"name": "eventSignatureExpired",
					"type": "event"
				},
				{
					"inputs": [
						{
							"internalType": "string",
							"name": "_Id",
							"type": "string"
						},
						{
							"internalType": "address",
							"name": "_relationAddress",
							"type": "address"
						}
					],
					"name": "addApprover",
					"outputs": [
						{
							"internalType": "bool",
							"name": "",
							"type": "bool"
						}
					],
					"stateMutability": "payable",
					"type": "function"
				},
				{
					"inputs": [
						{
							"internalType": "string",
							"name": "_rif",
							"type": "string"
						},
						{
							"internalType": "address",
							"name": "_relationAddress",
							"type": "address"
						}
					],
					"name": "addTaxPayer",
					"outputs": [
						{
							"internalType": "bool",
							"name": "",
							"type": "bool"
						}
					],
					"stateMutability": "payable",
					"type": "function"
				},
				{
					"inputs": [
						{
							"internalType": "address",
							"name": "_relationAddress",
							"type": "address"
						}
					],
					"name": "approveAdmin",
					"outputs": [
						{
							"internalType": "bool",
							"name": "",
							"type": "bool"
						}
					],
					"stateMutability": "payable",
					"type": "function"
				},
				{
					"inputs": [],
					"name": "canMint",
					"outputs": [
						{
							"internalType": "bool",
							"name": "",
							"type": "bool"
						}
					],
					"stateMutability": "view",
					"type": "function"
				},
				{
					"inputs": [
						{
							"internalType": "bytes32",
							"name": "singnature",
							"type": "bytes32"
						}
					],
					"name": "expirationLicense",
					"outputs": [
						{
							"internalType": "bool",
							"name": "",
							"type": "bool"
						}
					],
					"stateMutability": "nonpayable",
					"type": "function"
				},
				{
					"inputs": [
						{
							"internalType": "bytes32",
							"name": "singnature",
							"type": "bytes32"
						}
					],
					"name": "getAddressSignature",
					"outputs": [
						{
							"components": [
								{
									"internalType": "string",
									"name": "concept",
									"type": "string"
								},
								{
									"internalType": "string",
									"name": "identifier",
									"type": "string"
								},
								{
									"internalType": "address",
									"name": "owner",
									"type": "address"
								},
								{
									"internalType": "string",
									"name": "data",
									"type": "string"
								},
								{
									"internalType": "address",
									"name": "aprrover",
									"type": "address"
								},
								{
									"internalType": "bytes32",
									"name": "signature",
									"type": "bytes32"
								},
								{
									"internalType": "bool",
									"name": "isEntity",
									"type": "bool"
								}
							],
							"internalType": "struct ISignature.StructSignature",
							"name": "",
							"type": "tuple"
						}
					],
					"stateMutability": "view",
					"type": "function"
				},
				{
					"inputs": [
						{
							"internalType": "address",
							"name": "taxpayer",
							"type": "address"
						}
					],
					"name": "getManyAddressSignature",
					"outputs": [
						{
							"internalType": "bytes32[]",
							"name": "",
							"type": "bytes32[]"
						}
					],
					"stateMutability": "view",
					"type": "function"
				},
				{
					"inputs": [],
					"name": "getOwnerAddressSignature",
					"outputs": [
						{
							"internalType": "bytes32[]",
							"name": "",
							"type": "bytes32[]"
						}
					],
					"stateMutability": "view",
					"type": "function"
				},
				{
					"inputs": [
						{
							"internalType": "bytes32",
							"name": "singnature",
							"type": "bytes32"
						}
					],
					"name": "getOwnnerSignature",
					"outputs": [
						{
							"components": [
								{
									"internalType": "string",
									"name": "concept",
									"type": "string"
								},
								{
									"internalType": "string",
									"name": "identifier",
									"type": "string"
								},
								{
									"internalType": "address",
									"name": "owner",
									"type": "address"
								},
								{
									"internalType": "string",
									"name": "data",
									"type": "string"
								},
								{
									"internalType": "address",
									"name": "aprrover",
									"type": "address"
								},
								{
									"internalType": "bytes32",
									"name": "signature",
									"type": "bytes32"
								},
								{
									"internalType": "bool",
									"name": "isEntity",
									"type": "bool"
								}
							],
							"internalType": "struct ISignature.StructSignature",
							"name": "",
							"type": "tuple"
						}
					],
					"stateMutability": "view",
					"type": "function"
				},
				{
					"inputs": [],
					"name": "mintingStop",
					"outputs": [
						{
							"internalType": "bool",
							"name": "",
							"type": "bool"
						}
					],
					"stateMutability": "nonpayable",
					"type": "function"
				},
				{
					"inputs": [
						{
							"internalType": "address",
							"name": "_relationAddress",
							"type": "address"
						}
					],
					"name": "proposeAdmin",
					"outputs": [
						{
							"internalType": "bool",
							"name": "",
							"type": "bool"
						}
					],
					"stateMutability": "payable",
					"type": "function"
				},
				{
					"inputs": [
						{
							"internalType": "string",
							"name": "_consept",
							"type": "string"
						},
						{
							"internalType": "string",
							"name": "_owner",
							"type": "string"
						},
						{
							"internalType": "string",
							"name": "_approver",
							"type": "string"
						},
						{
							"internalType": "string",
							"name": "data",
							"type": "string"
						},
						{
							"internalType": "string",
							"name": "identifier",
							"type": "string"
						}
					],
					"name": "signatureMint",
					"outputs": [
						{
							"internalType": "bytes32",
							"name": "",
							"type": "bytes32"
						}
					],
					"stateMutability": "payable",
					"type": "function"
				},
				{
					"inputs": [
						{
							"internalType": "bytes32",
							"name": "singnature",
							"type": "bytes32"
						}
					],
					"name": "signatureValidate",
					"outputs": [
						{
							"internalType": "bool",
							"name": "",
							"type": "bool"
						}
					],
					"stateMutability": "view",
					"type": "function"
				},
				{
					"inputs": [
						{
							"internalType": "string",
							"name": "_rif",
							"type": "string"
						}
					],
					"name": "taxpayerAddress",
					"outputs": [
						{
							"internalType": "address",
							"name": "",
							"type": "address"
						}
					],
					"stateMutability": "view",
					"type": "function"
				},
				{
					"inputs": [
						{
							"internalType": "address",
							"name": "NewOwner",
							"type": "address"
						}
					],
					"name": "tranferOwnership",
					"outputs": [
						{
							"internalType": "bool",
							"name": "",
							"type": "bool"
						}
					],
					"stateMutability": "payable",
					"type": "function"
				},
				{
					"inputs": [
						{
							"internalType": "string",
							"name": "_consept",
							"type": "string"
						},
						{
							"internalType": "string",
							"name": "_owner",
							"type": "string"
						},
						{
							"internalType": "string",
							"name": "_approver",
							"type": "string"
						},
						{
							"internalType": "string",
							"name": "data",
							"type": "string"
						},
						{
							"internalType": "string",
							"name": "identifier",
							"type": "string"
						}
					],
					"name": "validateData",
					"outputs": [
						{
							"internalType": "bool",
							"name": "",
							"type": "bool"
						}
					],
					"stateMutability": "view",
					"type": "function"
				}
			],
			"devdoc": {
				"kind": "dev",
				"methods": {},
				"version": 1
			},
			"evm": {
				"assembly": "    /* \"TokenSGTX/contracts/LicenciasTaxsClone.sol\":158:8592  contract LicenseTaxPayer is ISignature {... */\n  mstore(0x40, 0x80)\n    /* \"TokenSGTX/contracts/LicenciasTaxsClone.sol\":917:948  bool private stopMinting = true */\n  0x07\n  dup1\n  sload\n  not(shl(0xa0, 0xff))\n  and\n  shl(0xa0, 0x01)\n  or\n  swap1\n  sstore\n    /* \"TokenSGTX/contracts/LicenciasTaxsClone.sol\":957:1045  constructor() {... */\n  callvalue\n  dup1\n  iszero\n  tag_1\n  jumpi\n  0x00\n  dup1\n  revert\ntag_1:\n  pop\n    /* \"TokenSGTX/contracts/LicenciasTaxsClone.sol\":990:1000  msg.sender */\n  caller\n    /* \"TokenSGTX/contracts/LicenciasTaxsClone.sol\":982:1001  _admins[msg.sender] */\n  0x00\n  dup2\n  dup2\n  mstore\n    /* \"TokenSGTX/contracts/LicenciasTaxsClone.sol\":982:989  _admins */\n  0x04\n    /* \"TokenSGTX/contracts/LicenciasTaxsClone.sol\":982:1001  _admins[msg.sender] */\n  0x20\n  mstore\n  0x40\n  swap1\n  keccak256\n    /* \"TokenSGTX/contracts/LicenciasTaxsClone.sol\":982:1008  _admins[msg.sender] = true */\n  dup1\n  sload\n  not(0xff)\n  and\n    /* \"TokenSGTX/contracts/LicenciasTaxsClone.sol\":1004:1008  true */\n  0x01\n    /* \"TokenSGTX/contracts/LicenciasTaxsClone.sol\":982:1008  _admins[msg.sender] = true */\n  or\n  swap1\n  sstore\n    /* \"TokenSGTX/contracts/LicenciasTaxsClone.sol\":1019:1024  owner */\n  0x07\n    /* \"TokenSGTX/contracts/LicenciasTaxsClone.sol\":1019:1037  owner = msg.sender */\n  dup1\n  sload\n  not(sub(shl(0xa0, 0x01), 0x01))\n  and\n  swap1\n  swap2\n  or\n  swap1\n  sstore\n    /* \"TokenSGTX/contracts/LicenciasTaxsClone.sol\":158:8592  contract LicenseTaxPayer is ISignature {... */\n  dataSize(sub_0)\n  dup1\n  dataOffset(sub_0)\n  0x00\n  codecopy\n  0x00\n  return\nstop\n\nsub_0: assembly {\n        /* \"TokenSGTX/contracts/LicenciasTaxsClone.sol\":158:8592  contract LicenseTaxPayer is ISignature {... */\n      mstore(0x40, 0x80)\n      jumpi(tag_1, lt(calldatasize, 0x04))\n      shr(0xe0, calldataload(0x00))\n      dup1\n      0x84e26b2c\n      gt\n      tag_18\n      jumpi\n      dup1\n      0xc8c2f4fe\n      gt\n      tag_19\n      jumpi\n      dup1\n      0xc8c2f4fe\n      eq\n      tag_14\n      jumpi\n      dup1\n      0xce7262a1\n      eq\n      tag_15\n      jumpi\n      dup1\n      0xd84ab181\n      eq\n      tag_16\n      jumpi\n      dup1\n      0xdc2aa909\n      eq\n      tag_17\n      jumpi\n      0x00\n      dup1\n      revert\n    tag_19:\n      dup1\n      0x84e26b2c\n      eq\n      tag_10\n      jumpi\n      dup1\n      0x9dfb7831\n      eq\n      tag_11\n      jumpi\n      dup1\n      0xbeb9716d\n      eq\n      tag_12\n      jumpi\n      dup1\n      0xbff2d536\n      eq\n      tag_13\n      jumpi\n      0x00\n      dup1\n      revert\n    tag_18:\n      dup1\n      0x62610492\n      gt\n      tag_20\n      jumpi\n      dup1\n      0x62610492\n      eq\n      tag_6\n      jumpi\n      dup1\n      0x6d73e669\n      eq\n      tag_7\n      jumpi\n      dup1\n      0x7ea5cc1a\n      eq\n      tag_8\n      jumpi\n      dup1\n      0x83fc58b4\n      eq\n      tag_9\n      jumpi\n      0x00\n      dup1\n      revert\n    tag_20:\n      dup1\n      0x0c0bd76b\n      eq\n      tag_2\n      jumpi\n      dup1\n      0x147bf6c4\n      eq\n      tag_3\n      jumpi\n      dup1\n      0x369f6cd7\n      eq\n      tag_4\n      jumpi\n      dup1\n      0x3fde3309\n      eq\n      tag_5\n      jumpi\n    tag_1:\n      0x00\n      dup1\n      revert\n        /* \"TokenSGTX/contracts/LicenciasTaxsClone.sol\":2703:3040  function getOwnnerSignature(... */\n    tag_2:\n      callvalue\n      dup1\n      iszero\n      tag_21\n      jumpi\n      0x00\n      dup1\n      revert\n    tag_21:\n      pop\n      tag_22\n      tag_23\n      calldatasize\n      0x04\n      tag_24\n      jump\t// in\n    tag_23:\n      tag_25\n      jump\t// in\n    tag_22:\n      mload(0x40)\n      tag_26\n      swap2\n      swap1\n      tag_27\n      jump\t// in\n    tag_26:\n      mload(0x40)\n      dup1\n      swap2\n      sub\n      swap1\n      return\n        /* \"TokenSGTX/contracts/LicenciasTaxsClone.sol\":6653:7028  function proposeAdmin(... */\n    tag_3:\n      tag_28\n      tag_29\n      calldatasize\n      0x04\n      tag_30\n      jump\t// in\n    tag_29:\n      tag_31\n      jump\t// in\n    tag_28:\n      mload(0x40)\n        /* \"#utility.yul\":2541:2555   */\n      swap1\n      iszero\n        /* \"#utility.yul\":2534:2556   */\n      iszero\n        /* \"#utility.yul\":2516:2557   */\n      dup2\n      mstore\n        /* \"#utility.yul\":2504:2506   */\n      0x20\n        /* \"#utility.yul\":2489:2507   */\n      add\n        /* \"TokenSGTX/contracts/LicenciasTaxsClone.sol\":6653:7028  function proposeAdmin(... */\n      tag_26\n        /* \"#utility.yul\":2376:2563   */\n      jump\n        /* \"TokenSGTX/contracts/LicenciasTaxsClone.sol\":3048:3210  function getManyAddressSignature(... */\n    tag_4:\n      callvalue\n      dup1\n      iszero\n      tag_34\n      jumpi\n      0x00\n      dup1\n      revert\n    tag_34:\n      pop\n      tag_35\n      tag_36\n      calldatasize\n      0x04\n      tag_30\n      jump\t// in\n    tag_36:\n      tag_37\n      jump\t// in\n    tag_35:\n      mload(0x40)\n      tag_26\n      swap2\n      swap1\n      tag_39\n      jump\t// in\n        /* \"TokenSGTX/contracts/LicenciasTaxsClone.sol\":3218:3343  function getOwnerAddressSignature() external view returns (bytes32[] memory) {... */\n    tag_5:\n      callvalue\n      dup1\n      iszero\n      tag_40\n      jumpi\n      0x00\n      dup1\n      revert\n    tag_40:\n      pop\n      tag_35\n      tag_42\n      jump\t// in\n        /* \"TokenSGTX/contracts/LicenciasTaxsClone.sol\":2520:2695  function getAddressSignature(... */\n    tag_6:\n      callvalue\n      dup1\n      iszero\n      tag_44\n      jumpi\n      0x00\n      dup1\n      revert\n    tag_44:\n      pop\n      tag_22\n      tag_46\n      calldatasize\n      0x04\n      tag_24\n      jump\t// in\n    tag_46:\n      tag_47\n      jump\t// in\n        /* \"TokenSGTX/contracts/LicenciasTaxsClone.sol\":7036:7459  function approveAdmin(... */\n    tag_7:\n      tag_28\n      tag_50\n      calldatasize\n      0x04\n      tag_30\n      jump\t// in\n    tag_50:\n      tag_51\n      jump\t// in\n        /* \"TokenSGTX/contracts/LicenciasTaxsClone.sol\":4854:5339  function validateData(... */\n    tag_8:\n      callvalue\n      dup1\n      iszero\n      tag_53\n      jumpi\n      0x00\n      dup1\n      revert\n    tag_53:\n      pop\n      tag_28\n      tag_55\n      calldatasize\n      0x04\n      tag_56\n      jump\t// in\n    tag_55:\n      tag_57\n      jump\t// in\n        /* \"TokenSGTX/contracts/LicenciasTaxsClone.sol\":7809:8039  function tranferOwnership(... */\n    tag_9:\n      tag_28\n      tag_60\n      calldatasize\n      0x04\n      tag_30\n      jump\t// in\n    tag_60:\n      tag_61\n      jump\t// in\n        /* \"TokenSGTX/contracts/LicenciasTaxsClone.sol\":3351:3492  function taxpayerAddress(... */\n    tag_10:\n      callvalue\n      dup1\n      iszero\n      tag_63\n      jumpi\n      0x00\n      dup1\n      revert\n    tag_63:\n      pop\n      tag_64\n      tag_65\n      calldatasize\n      0x04\n      tag_66\n      jump\t// in\n    tag_65:\n      tag_67\n      jump\t// in\n    tag_64:\n      mload(0x40)\n      sub(shl(0xa0, 0x01), 0x01)\n        /* \"#utility.yul\":5702:5734   */\n      swap1\n      swap2\n      and\n        /* \"#utility.yul\":5684:5735   */\n      dup2\n      mstore\n        /* \"#utility.yul\":5672:5674   */\n      0x20\n        /* \"#utility.yul\":5657:5675   */\n      add\n        /* \"TokenSGTX/contracts/LicenciasTaxsClone.sol\":3351:3492  function taxpayerAddress(... */\n      tag_26\n        /* \"#utility.yul\":5538:5741   */\n      jump\n        /* \"TokenSGTX/contracts/LicenciasTaxsClone.sol\":6439:6645  function addTaxPayer(... */\n    tag_11:\n      tag_28\n      tag_71\n      calldatasize\n      0x04\n      tag_72\n      jump\t// in\n    tag_71:\n      tag_73\n      jump\t// in\n        /* \"TokenSGTX/contracts/LicenciasTaxsClone.sol\":8182:8267  function canMint() external view returns (bool) {... */\n    tag_12:\n      callvalue\n      dup1\n      iszero\n      tag_75\n      jumpi\n      0x00\n      dup1\n      revert\n    tag_75:\n      pop\n        /* \"TokenSGTX/contracts/LicenciasTaxsClone.sol\":8248:8259  stopMinting */\n      sload(0x07)\n      shl(0xa0, 0x01)\n      swap1\n      div\n      0xff\n      and\n        /* \"TokenSGTX/contracts/LicenciasTaxsClone.sol\":8182:8267  function canMint() external view returns (bool) {... */\n      jump(tag_28)\n        /* \"TokenSGTX/contracts/LicenciasTaxsClone.sol\":2249:2512  function signatureValidate(... */\n    tag_13:\n      callvalue\n      dup1\n      iszero\n      tag_79\n      jumpi\n      0x00\n      dup1\n      revert\n    tag_79:\n      pop\n      tag_28\n      tag_81\n      calldatasize\n      0x04\n      tag_24\n      jump\t// in\n    tag_81:\n      tag_82\n      jump\t// in\n        /* \"TokenSGTX/contracts/LicenciasTaxsClone.sol\":7467:7801  function addApprover(... */\n    tag_14:\n      tag_28\n      tag_85\n      calldatasize\n      0x04\n      tag_72\n      jump\t// in\n    tag_85:\n      tag_86\n      jump\t// in\n        /* \"TokenSGTX/contracts/LicenciasTaxsClone.sol\":1053:2241  function signatureMint(... */\n    tag_15:\n      tag_88\n      tag_89\n      calldatasize\n      0x04\n      tag_56\n      jump\t// in\n    tag_89:\n      tag_90\n      jump\t// in\n    tag_88:\n      mload(0x40)\n        /* \"#utility.yul\":6293:6318   */\n      swap1\n      dup2\n      mstore\n        /* \"#utility.yul\":6281:6283   */\n      0x20\n        /* \"#utility.yul\":6266:6284   */\n      add\n        /* \"TokenSGTX/contracts/LicenciasTaxsClone.sol\":1053:2241  function signatureMint(... */\n      tag_26\n        /* \"#utility.yul\":6147:6324   */\n      jump\n        /* \"TokenSGTX/contracts/LicenciasTaxsClone.sol\":5888:6431  function expirationLicense(... */\n    tag_16:\n      callvalue\n      dup1\n      iszero\n      tag_93\n      jumpi\n      0x00\n      dup1\n      revert\n    tag_93:\n      pop\n      tag_28\n      tag_95\n      calldatasize\n      0x04\n      tag_24\n      jump\t// in\n    tag_95:\n      tag_96\n      jump\t// in\n        /* \"TokenSGTX/contracts/LicenciasTaxsClone.sol\":8047:8174  function mintingStop() public isOwner returns (bool) {... */\n    tag_17:\n      callvalue\n      dup1\n      iszero\n      tag_98\n      jumpi\n      0x00\n      dup1\n      revert\n    tag_98:\n      pop\n      tag_28\n      tag_100\n      jump\t// in\n        /* \"TokenSGTX/contracts/LicenciasTaxsClone.sol\":2703:3040  function getOwnnerSignature(... */\n    tag_25:\n      0x40\n      dup1\n      mload\n      0xe0\n      dup2\n      add\n      dup3\n      mstore\n      0x60\n      dup1\n      dup3\n      mstore\n      0x20\n      dup3\n      add\n      dup2\n      swap1\n      mstore\n      0x00\n      swap3\n      dup3\n      add\n      dup4\n      swap1\n      mstore\n      dup1\n      dup3\n      add\n      mstore\n      0x80\n      dup2\n      add\n      dup3\n      swap1\n      mstore\n      0xa0\n      dup2\n      add\n      dup3\n      swap1\n      mstore\n      0xc0\n      dup2\n      add\n      swap2\n      swap1\n      swap2\n      mstore\n        /* \"TokenSGTX/contracts/LicenciasTaxsClone.sol\":2825:2851  StructSignature memory obj */\n      0x00\n        /* \"TokenSGTX/contracts/LicenciasTaxsClone.sol\":2854:2883  _signatureEnabled[singnature] */\n      dup3\n      dup2\n      mstore\n      0x20\n      dup2\n      swap1\n      mstore\n      0x40\n      dup1\n      dup3\n      keccak256\n        /* \"TokenSGTX/contracts/LicenciasTaxsClone.sol\":2825:2883  StructSignature memory obj = _signatureEnabled[singnature] */\n      dup2\n      mload\n      0xe0\n      dup2\n      add\n      swap1\n      swap3\n      mstore\n      dup1\n      sload\n      dup3\n      swap1\n        /* \"TokenSGTX/contracts/LicenciasTaxsClone.sol\":2854:2883  _signatureEnabled[singnature] */\n      dup3\n      swap1\n        /* \"TokenSGTX/contracts/LicenciasTaxsClone.sol\":2825:2883  StructSignature memory obj = _signatureEnabled[singnature] */\n      tag_105\n      swap1\n      tag_106\n      jump\t// in\n    tag_105:\n      dup1\n      0x1f\n      add\n      0x20\n      dup1\n      swap2\n      div\n      mul\n      0x20\n      add\n      mload(0x40)\n      swap1\n      dup2\n      add\n      0x40\n      mstore\n      dup1\n      swap3\n      swap2\n      swap1\n      dup2\n      dup2\n      mstore\n      0x20\n      add\n      dup3\n      dup1\n      sload\n      tag_107\n      swap1\n      tag_106\n      jump\t// in\n    tag_107:\n      dup1\n      iszero\n      tag_108\n      jumpi\n      dup1\n      0x1f\n      lt\n      tag_109\n      jumpi\n      0x0100\n      dup1\n      dup4\n      sload\n      div\n      mul\n      dup4\n      mstore\n      swap2\n      0x20\n      add\n      swap2\n      jump(tag_108)\n    tag_109:\n      dup3\n      add\n      swap2\n      swap1\n      0x00\n      mstore\n      keccak256(0x00, 0x20)\n      swap1\n    tag_110:\n      dup2\n      sload\n      dup2\n      mstore\n      swap1\n      0x01\n      add\n      swap1\n      0x20\n      add\n      dup1\n      dup4\n      gt\n      tag_110\n      jumpi\n      dup3\n      swap1\n      sub\n      0x1f\n      and\n      dup3\n      add\n      swap2\n    tag_108:\n      pop\n      pop\n      pop\n      pop\n      pop\n      dup2\n      mstore\n      0x20\n      add\n      0x01\n      dup3\n      add\n      dup1\n      sload\n      tag_111\n      swap1\n      tag_106\n      jump\t// in\n    tag_111:\n      dup1\n      0x1f\n      add\n      0x20\n      dup1\n      swap2\n      div\n      mul\n      0x20\n      add\n      mload(0x40)\n      swap1\n      dup2\n      add\n      0x40\n      mstore\n      dup1\n      swap3\n      swap2\n      swap1\n      dup2\n      dup2\n      mstore\n      0x20\n      add\n      dup3\n      dup1\n      sload\n      tag_112\n      swap1\n      tag_106\n      jump\t// in\n    tag_112:\n      dup1\n      iszero\n      tag_113\n      jumpi\n      dup1\n      0x1f\n      lt\n      tag_114\n      jumpi\n      0x0100\n      dup1\n      dup4\n      sload\n      div\n      mul\n      dup4\n      mstore\n      swap2\n      0x20\n      add\n      swap2\n      jump(tag_113)\n    tag_114:\n      dup3\n      add\n      swap2\n      swap1\n      0x00\n      mstore\n      keccak256(0x00, 0x20)\n      swap1\n    tag_115:\n      dup2\n      sload\n      dup2\n      mstore\n      swap1\n      0x01\n      add\n      swap1\n      0x20\n      add\n      dup1\n      dup4\n      gt\n      tag_115\n      jumpi\n      dup3\n      swap1\n      sub\n      0x1f\n      and\n      dup3\n      add\n      swap2\n    tag_113:\n      pop\n      pop\n      pop\n      swap2\n      dup4\n      mstore\n      pop\n      pop\n      0x02\n      dup3\n      add\n      sload\n      sub(shl(0xa0, 0x01), 0x01)\n      and\n      0x20\n      dup3\n      add\n      mstore\n      0x03\n      dup3\n      add\n      dup1\n      sload\n      0x40\n      swap1\n      swap3\n      add\n      swap2\n      tag_116\n      swap1\n      tag_106\n      jump\t// in\n    tag_116:\n      dup1\n      0x1f\n      add\n      0x20\n      dup1\n      swap2\n      div\n      mul\n      0x20\n      add\n      mload(0x40)\n      swap1\n      dup2\n      add\n      0x40\n      mstore\n      dup1\n      swap3\n      swap2\n      swap1\n      dup2\n      dup2\n      mstore\n      0x20\n      add\n      dup3\n      dup1\n      sload\n      tag_117\n      swap1\n      tag_106\n      jump\t// in\n    tag_117:\n      dup1\n      iszero\n      tag_118\n      jumpi\n      dup1\n      0x1f\n      lt\n      tag_119\n      jumpi\n      0x0100\n      dup1\n      dup4\n      sload\n      div\n      mul\n      dup4\n      mstore\n      swap2\n      0x20\n      add\n      swap2\n      jump(tag_118)\n    tag_119:\n      dup3\n      add\n      swap2\n      swap1\n      0x00\n      mstore\n      keccak256(0x00, 0x20)\n      swap1\n    tag_120:\n      dup2\n      sload\n      dup2\n      mstore\n      swap1\n      0x01\n      add\n      swap1\n      0x20\n      add\n      dup1\n      dup4\n      gt\n      tag_120\n      jumpi\n      dup3\n      swap1\n      sub\n      0x1f\n      and\n      dup3\n      add\n      swap2\n    tag_118:\n      pop\n      pop\n      pop\n      swap2\n      dup4\n      mstore\n      pop\n      pop\n      0x04\n      dup3\n      add\n      sload\n      sub(shl(0xa0, 0x01), 0x01)\n      swap1\n      dup2\n      and\n      0x20\n      dup4\n      add\n      mstore\n      0x05\n      dup4\n      add\n      sload\n      0x40\n      dup1\n      dup5\n      add\n      swap2\n      swap1\n      swap2\n      mstore\n      0x06\n      swap1\n      swap4\n      add\n      sload\n      0xff\n      and\n      iszero\n      iszero\n      0x60\n      swap1\n      swap3\n      add\n      swap2\n      swap1\n      swap2\n      mstore\n        /* \"TokenSGTX/contracts/LicenciasTaxsClone.sol\":2916:2925  obj.owner */\n      swap1\n      dup3\n      add\n      mload\n        /* \"TokenSGTX/contracts/LicenciasTaxsClone.sol\":2825:2883  StructSignature memory obj = _signatureEnabled[singnature] */\n      swap2\n      swap3\n      pop\n        /* \"TokenSGTX/contracts/LicenciasTaxsClone.sol\":2916:2939  obj.owner == msg.sender */\n      and\n        /* \"TokenSGTX/contracts/LicenciasTaxsClone.sol\":2929:2939  msg.sender */\n      caller\n        /* \"TokenSGTX/contracts/LicenciasTaxsClone.sol\":2916:2939  obj.owner == msg.sender */\n      eq\n        /* \"TokenSGTX/contracts/LicenciasTaxsClone.sol\":2894:3010  require(... */\n      tag_121\n      jumpi\n      mload(0x40)\n      shl(0xe5, 0x461bcd)\n      dup2\n      mstore\n        /* \"#utility.yul\":6916:6918   */\n      0x20\n        /* \"TokenSGTX/contracts/LicenciasTaxsClone.sol\":2894:3010  require(... */\n      0x04\n      dup3\n      add\n        /* \"#utility.yul\":6898:6919   */\n      mstore\n        /* \"#utility.yul\":6955:6957   */\n      0x2a\n        /* \"#utility.yul\":6935:6953   */\n      0x24\n      dup3\n      add\n        /* \"#utility.yul\":6928:6958   */\n      mstore\n        /* \"#utility.yul\":6994:7028   */\n      0x596f75206d6f6e737420626520746865206f776e657220746f2073686f772064\n        /* \"#utility.yul\":6974:6992   */\n      0x44\n      dup3\n      add\n        /* \"#utility.yul\":6967:7029   */\n      mstore\n      shl(0xb2, 0x185d18481cda59db9959)\n        /* \"#utility.yul\":7045:7063   */\n      0x64\n      dup3\n      add\n        /* \"#utility.yul\":7038:7078   */\n      mstore\n        /* \"#utility.yul\":7095:7114   */\n      0x84\n      add\n        /* \"TokenSGTX/contracts/LicenciasTaxsClone.sol\":2894:3010  require(... */\n    tag_122:\n      mload(0x40)\n      dup1\n      swap2\n      sub\n      swap1\n      revert\n    tag_121:\n        /* \"TokenSGTX/contracts/LicenciasTaxsClone.sol\":3029:3032  obj */\n      swap3\n        /* \"TokenSGTX/contracts/LicenciasTaxsClone.sol\":2703:3040  function getOwnnerSignature(... */\n      swap2\n      pop\n      pop\n      jump\t// out\n        /* \"TokenSGTX/contracts/LicenciasTaxsClone.sol\":6653:7028  function proposeAdmin(... */\n    tag_31:\n        /* \"TokenSGTX/contracts/LicenciasTaxsClone.sol\":8434:8444  msg.sender */\n      caller\n        /* \"TokenSGTX/contracts/LicenciasTaxsClone.sol\":6749:6753  bool */\n      0x00\n        /* \"TokenSGTX/contracts/LicenciasTaxsClone.sol\":8426:8445  _admins[msg.sender] */\n      swap1\n      dup2\n      mstore\n        /* \"TokenSGTX/contracts/LicenciasTaxsClone.sol\":8426:8433  _admins */\n      0x04\n        /* \"TokenSGTX/contracts/LicenciasTaxsClone.sol\":8426:8445  _admins[msg.sender] */\n      0x20\n      mstore\n      0x40\n      dup2\n      keccak256\n      sload\n      0xff\n      and\n        /* \"TokenSGTX/contracts/LicenciasTaxsClone.sol\":8418:8446  require(_admins[msg.sender]) */\n      tag_125\n      jumpi\n      0x00\n      dup1\n      revert\n    tag_125:\n      sub(shl(0xa0, 0x01), 0x01)\n        /* \"TokenSGTX/contracts/LicenciasTaxsClone.sol\":6788:6820  _propoceAdmins[_relationAddress] */\n      dup3\n      and\n      0x00\n      swap1\n      dup2\n      mstore\n        /* \"TokenSGTX/contracts/LicenciasTaxsClone.sol\":6788:6802  _propoceAdmins */\n      0x05\n        /* \"TokenSGTX/contracts/LicenciasTaxsClone.sol\":6788:6820  _propoceAdmins[_relationAddress] */\n      0x20\n      mstore\n      0x40\n      swap1\n      keccak256\n      sload\n      0xff\n      and\n        /* \"TokenSGTX/contracts/LicenciasTaxsClone.sol\":6788:6828  _propoceAdmins[_relationAddress] != true */\n      iszero\n      iszero\n        /* \"TokenSGTX/contracts/LicenciasTaxsClone.sol\":6788:6820  _propoceAdmins[_relationAddress] */\n      0x01\n        /* \"TokenSGTX/contracts/LicenciasTaxsClone.sol\":6788:6828  _propoceAdmins[_relationAddress] != true */\n      sub\n        /* \"TokenSGTX/contracts/LicenciasTaxsClone.sol\":6766:6888  require(... */\n      tag_127\n      jumpi\n      mload(0x40)\n      shl(0xe5, 0x461bcd)\n      dup2\n      mstore\n        /* \"#utility.yul\":7327:7329   */\n      0x20\n        /* \"TokenSGTX/contracts/LicenciasTaxsClone.sol\":6766:6888  require(... */\n      0x04\n      dup3\n      add\n        /* \"#utility.yul\":7309:7330   */\n      dup2\n      swap1\n      mstore\n        /* \"#utility.yul\":7346:7364   */\n      0x24\n      dup3\n      add\n        /* \"#utility.yul\":7339:7369   */\n      mstore\n        /* \"#utility.yul\":7405:7439   */\n      0x6164647265737320666f722061646d696e20616c726564792070726f706f7365\n        /* \"#utility.yul\":7385:7403   */\n      0x44\n      dup3\n      add\n        /* \"#utility.yul\":7378:7440   */\n      mstore\n        /* \"#utility.yul\":7457:7475   */\n      0x64\n      add\n        /* \"TokenSGTX/contracts/LicenciasTaxsClone.sol\":6766:6888  require(... */\n      tag_122\n        /* \"#utility.yul\":7125:7481   */\n      jump\n        /* \"TokenSGTX/contracts/LicenciasTaxsClone.sol\":6766:6888  require(... */\n    tag_127:\n      sub(shl(0xa0, 0x01), 0x01)\n        /* \"TokenSGTX/contracts/LicenciasTaxsClone.sol\":6899:6931  _propoceAdmins[_relationAddress] */\n      dup3\n      and\n      0x00\n      dup2\n      dup2\n      mstore\n        /* \"TokenSGTX/contracts/LicenciasTaxsClone.sol\":6899:6913  _propoceAdmins */\n      0x05\n        /* \"TokenSGTX/contracts/LicenciasTaxsClone.sol\":6899:6931  _propoceAdmins[_relationAddress] */\n      0x20\n      swap1\n      dup2\n      mstore\n      0x40\n      swap2\n      dup3\n      swap1\n      keccak256\n        /* \"TokenSGTX/contracts/LicenciasTaxsClone.sol\":6899:6938  _propoceAdmins[_relationAddress] = true */\n      dup1\n      sload\n      not(0xff)\n      and\n        /* \"TokenSGTX/contracts/LicenciasTaxsClone.sol\":6934:6938  true */\n      0x01\n        /* \"TokenSGTX/contracts/LicenciasTaxsClone.sol\":6899:6938  _propoceAdmins[_relationAddress] = true */\n      swap1\n      dup2\n      or\n      swap1\n      swap2\n      sstore\n        /* \"TokenSGTX/contracts/LicenciasTaxsClone.sol\":6954:6998  eventNewAdminPropose(_relationAddress, true) */\n      swap2\n      mload\n        /* \"#utility.yul\":2516:2557   */\n      swap2\n      dup3\n      mstore\n        /* \"TokenSGTX/contracts/LicenciasTaxsClone.sol\":6954:6998  eventNewAdminPropose(_relationAddress, true) */\n      0xfcd0029428c001bd11d12d6e8302dda11ac68335a836d75d43004bf4ca7292ef\n      swap2\n        /* \"#utility.yul\":2489:2507   */\n      add\n        /* \"TokenSGTX/contracts/LicenciasTaxsClone.sol\":6954:6998  eventNewAdminPropose(_relationAddress, true) */\n    tag_130:\n      mload(0x40)\n      dup1\n      swap2\n      sub\n      swap1\n      log2\n      pop\n        /* \"TokenSGTX/contracts/LicenciasTaxsClone.sol\":7016:7020  true */\n      0x01\n        /* \"TokenSGTX/contracts/LicenciasTaxsClone.sol\":8457:8458  _ */\n    tag_126:\n        /* \"TokenSGTX/contracts/LicenciasTaxsClone.sol\":6653:7028  function proposeAdmin(... */\n      swap2\n      swap1\n      pop\n      jump\t// out\n        /* \"TokenSGTX/contracts/LicenciasTaxsClone.sol\":3048:3210  function getManyAddressSignature(... */\n    tag_37:\n        /* \"TokenSGTX/contracts/LicenciasTaxsClone.sol\":8434:8444  msg.sender */\n      caller\n        /* \"TokenSGTX/contracts/LicenciasTaxsClone.sol\":8426:8445  _admins[msg.sender] */\n      0x00\n      swap1\n      dup2\n      mstore\n        /* \"TokenSGTX/contracts/LicenciasTaxsClone.sol\":8426:8433  _admins */\n      0x04\n        /* \"TokenSGTX/contracts/LicenciasTaxsClone.sol\":8426:8445  _admins[msg.sender] */\n      0x20\n      mstore\n      0x40\n      swap1\n      keccak256\n      sload\n        /* \"TokenSGTX/contracts/LicenciasTaxsClone.sol\":3146:3162  bytes32[] memory */\n      0x60\n      swap1\n        /* \"TokenSGTX/contracts/LicenciasTaxsClone.sol\":8426:8445  _admins[msg.sender] */\n      0xff\n      and\n        /* \"TokenSGTX/contracts/LicenciasTaxsClone.sol\":8418:8446  require(_admins[msg.sender]) */\n      tag_132\n      jumpi\n      0x00\n      dup1\n      revert\n    tag_132:\n      sub(shl(0xa0, 0x01), 0x01)\n        /* \"TokenSGTX/contracts/LicenciasTaxsClone.sol\":3182:3202  _userSings[taxpayer] */\n      dup3\n      and\n      0x00\n      swap1\n      dup2\n      mstore\n        /* \"TokenSGTX/contracts/LicenciasTaxsClone.sol\":3182:3192  _userSings */\n      0x01\n        /* \"TokenSGTX/contracts/LicenciasTaxsClone.sol\":3182:3202  _userSings[taxpayer] */\n      0x20\n      swap1\n      dup2\n      mstore\n      0x40\n      swap2\n      dup3\n      swap1\n      keccak256\n        /* \"TokenSGTX/contracts/LicenciasTaxsClone.sol\":3175:3202  return _userSings[taxpayer] */\n      dup1\n      sload\n      dup4\n      mload\n      dup2\n      dup5\n      mul\n      dup2\n      add\n      dup5\n      add\n      swap1\n      swap5\n      mstore\n      dup1\n      dup5\n      mstore\n        /* \"TokenSGTX/contracts/LicenciasTaxsClone.sol\":3182:3202  _userSings[taxpayer] */\n      swap1\n      swap2\n        /* \"TokenSGTX/contracts/LicenciasTaxsClone.sol\":3175:3202  return _userSings[taxpayer] */\n      dup4\n      add\n        /* \"TokenSGTX/contracts/LicenciasTaxsClone.sol\":3182:3202  _userSings[taxpayer] */\n      dup3\n        /* \"TokenSGTX/contracts/LicenciasTaxsClone.sol\":3175:3202  return _userSings[taxpayer] */\n      dup3\n      dup1\n      iszero\n      tag_134\n      jumpi\n      0x20\n      mul\n      dup3\n      add\n      swap2\n      swap1\n      0x00\n      mstore\n      keccak256(0x00, 0x20)\n      swap1\n    tag_135:\n      dup2\n      sload\n      dup2\n      mstore\n      0x20\n      add\n      swap1\n      0x01\n      add\n      swap1\n      dup1\n      dup4\n      gt\n      tag_135\n      jumpi\n    tag_134:\n      pop\n      pop\n      pop\n      pop\n      pop\n      swap1\n      pop\n        /* \"TokenSGTX/contracts/LicenciasTaxsClone.sol\":3048:3210  function getManyAddressSignature(... */\n      swap2\n      swap1\n      pop\n      jump\t// out\n        /* \"TokenSGTX/contracts/LicenciasTaxsClone.sol\":3218:3343  function getOwnerAddressSignature() external view returns (bytes32[] memory) {... */\n    tag_42:\n        /* \"TokenSGTX/contracts/LicenciasTaxsClone.sol\":3324:3334  msg.sender */\n      caller\n        /* \"TokenSGTX/contracts/LicenciasTaxsClone.sol\":3313:3335  _userSings[msg.sender] */\n      0x00\n      swap1\n      dup2\n      mstore\n        /* \"TokenSGTX/contracts/LicenciasTaxsClone.sol\":3313:3323  _userSings */\n      0x01\n        /* \"TokenSGTX/contracts/LicenciasTaxsClone.sol\":3313:3335  _userSings[msg.sender] */\n      0x20\n      swap1\n      dup2\n      mstore\n      0x40\n      swap2\n      dup3\n      swap1\n      keccak256\n        /* \"TokenSGTX/contracts/LicenciasTaxsClone.sol\":3306:3335  return _userSings[msg.sender] */\n      dup1\n      sload\n      dup4\n      mload\n      dup2\n      dup5\n      mul\n      dup2\n      add\n      dup5\n      add\n      swap1\n      swap5\n      mstore\n      dup1\n      dup5\n      mstore\n        /* \"TokenSGTX/contracts/LicenciasTaxsClone.sol\":3277:3293  bytes32[] memory */\n      0x60\n      swap4\n        /* \"TokenSGTX/contracts/LicenciasTaxsClone.sol\":3306:3335  return _userSings[msg.sender] */\n      swap3\n      dup4\n      add\n        /* \"TokenSGTX/contracts/LicenciasTaxsClone.sol\":3313:3335  _userSings[msg.sender] */\n      dup3\n        /* \"TokenSGTX/contracts/LicenciasTaxsClone.sol\":3306:3335  return _userSings[msg.sender] */\n      dup3\n      dup1\n      iszero\n      tag_137\n      jumpi\n      0x20\n      mul\n      dup3\n      add\n      swap2\n      swap1\n      0x00\n      mstore\n      keccak256(0x00, 0x20)\n      swap1\n    tag_138:\n      dup2\n      sload\n      dup2\n      mstore\n      0x20\n      add\n      swap1\n      0x01\n      add\n      swap1\n      dup1\n      dup4\n      gt\n      tag_138\n      jumpi\n    tag_137:\n      pop\n      pop\n      pop\n      pop\n      pop\n      swap1\n      pop\n        /* \"TokenSGTX/contracts/LicenciasTaxsClone.sol\":3218:3343  function getOwnerAddressSignature() external view returns (bytes32[] memory) {... */\n      swap1\n      jump\t// out\n        /* \"TokenSGTX/contracts/LicenciasTaxsClone.sol\":2520:2695  function getAddressSignature(... */\n    tag_47:\n      0x40\n      dup1\n      mload\n      0xe0\n      dup2\n      add\n      dup3\n      mstore\n      0x60\n      dup1\n      dup3\n      mstore\n      0x20\n      dup3\n      add\n      dup2\n      swap1\n      mstore\n      0x00\n      swap3\n      dup3\n      add\n      dup4\n      swap1\n      mstore\n      dup1\n      dup3\n      add\n      mstore\n      0x80\n      dup2\n      add\n      dup3\n      swap1\n      mstore\n      0xa0\n      dup2\n      add\n      dup3\n      swap1\n      mstore\n      0xc0\n      dup2\n      add\n      swap2\n      swap1\n      swap2\n      mstore\n        /* \"TokenSGTX/contracts/LicenciasTaxsClone.sol\":8434:8444  msg.sender */\n      caller\n        /* \"TokenSGTX/contracts/LicenciasTaxsClone.sol\":8426:8445  _admins[msg.sender] */\n      0x00\n      swap1\n      dup2\n      mstore\n        /* \"TokenSGTX/contracts/LicenciasTaxsClone.sol\":8426:8433  _admins */\n      0x04\n        /* \"TokenSGTX/contracts/LicenciasTaxsClone.sol\":8426:8445  _admins[msg.sender] */\n      0x20\n      mstore\n      0x40\n      swap1\n      keccak256\n      sload\n      0xff\n      and\n        /* \"TokenSGTX/contracts/LicenciasTaxsClone.sol\":8418:8446  require(_admins[msg.sender]) */\n      tag_141\n      jumpi\n      0x00\n      dup1\n      revert\n    tag_141:\n        /* \"TokenSGTX/contracts/LicenciasTaxsClone.sol\":2658:2675  _signatureEnabled */\n      0x00\n        /* \"TokenSGTX/contracts/LicenciasTaxsClone.sol\":2658:2687  _signatureEnabled[singnature] */\n      dup3\n      dup2\n      mstore\n      0x20\n      dup2\n      swap1\n      mstore\n      0x40\n      swap1\n      dup2\n      swap1\n      keccak256\n        /* \"TokenSGTX/contracts/LicenciasTaxsClone.sol\":2651:2687  return _signatureEnabled[singnature] */\n      dup2\n      mload\n      0xe0\n      dup2\n      add\n      swap1\n      swap3\n      mstore\n      dup1\n      sload\n      dup3\n      swap1\n        /* \"TokenSGTX/contracts/LicenciasTaxsClone.sol\":2658:2687  _signatureEnabled[singnature] */\n      dup3\n      swap1\n        /* \"TokenSGTX/contracts/LicenciasTaxsClone.sol\":2651:2687  return _signatureEnabled[singnature] */\n      tag_143\n      swap1\n      tag_106\n      jump\t// in\n    tag_143:\n      dup1\n      0x1f\n      add\n      0x20\n      dup1\n      swap2\n      div\n      mul\n      0x20\n      add\n      mload(0x40)\n      swap1\n      dup2\n      add\n      0x40\n      mstore\n      dup1\n      swap3\n      swap2\n      swap1\n      dup2\n      dup2\n      mstore\n      0x20\n      add\n      dup3\n      dup1\n      sload\n      tag_144\n      swap1\n      tag_106\n      jump\t// in\n    tag_144:\n      dup1\n      iszero\n      tag_145\n      jumpi\n      dup1\n      0x1f\n      lt\n      tag_146\n      jumpi\n      0x0100\n      dup1\n      dup4\n      sload\n      div\n      mul\n      dup4\n      mstore\n      swap2\n      0x20\n      add\n      swap2\n      jump(tag_145)\n    tag_146:\n      dup3\n      add\n      swap2\n      swap1\n      0x00\n      mstore\n      keccak256(0x00, 0x20)\n      swap1\n    tag_147:\n      dup2\n      sload\n      dup2\n      mstore\n      swap1\n      0x01\n      add\n      swap1\n      0x20\n      add\n      dup1\n      dup4\n      gt\n      tag_147\n      jumpi\n      dup3\n      swap1\n      sub\n      0x1f\n      and\n      dup3\n      add\n      swap2\n    tag_145:\n      pop\n      pop\n      pop\n      pop\n      pop\n      dup2\n      mstore\n      0x20\n      add\n      0x01\n      dup3\n      add\n      dup1\n      sload\n      tag_148\n      swap1\n      tag_106\n      jump\t// in\n    tag_148:\n      dup1\n      0x1f\n      add\n      0x20\n      dup1\n      swap2\n      div\n      mul\n      0x20\n      add\n      mload(0x40)\n      swap1\n      dup2\n      add\n      0x40\n      mstore\n      dup1\n      swap3\n      swap2\n      swap1\n      dup2\n      dup2\n      mstore\n      0x20\n      add\n      dup3\n      dup1\n      sload\n      tag_149\n      swap1\n      tag_106\n      jump\t// in\n    tag_149:\n      dup1\n      iszero\n      tag_150\n      jumpi\n      dup1\n      0x1f\n      lt\n      tag_151\n      jumpi\n      0x0100\n      dup1\n      dup4\n      sload\n      div\n      mul\n      dup4\n      mstore\n      swap2\n      0x20\n      add\n      swap2\n      jump(tag_150)\n    tag_151:\n      dup3\n      add\n      swap2\n      swap1\n      0x00\n      mstore\n      keccak256(0x00, 0x20)\n      swap1\n    tag_152:\n      dup2\n      sload\n      dup2\n      mstore\n      swap1\n      0x01\n      add\n      swap1\n      0x20\n      add\n      dup1\n      dup4\n      gt\n      tag_152\n      jumpi\n      dup3\n      swap1\n      sub\n      0x1f\n      and\n      dup3\n      add\n      swap2\n    tag_150:\n      pop\n      pop\n      pop\n      swap2\n      dup4\n      mstore\n      pop\n      pop\n      0x02\n      dup3\n      add\n      sload\n      sub(shl(0xa0, 0x01), 0x01)\n      and\n      0x20\n      dup3\n      add\n      mstore\n      0x03\n      dup3\n      add\n      dup1\n      sload\n      0x40\n      swap1\n      swap3\n      add\n      swap2\n      tag_153\n      swap1\n      tag_106\n      jump\t// in\n    tag_153:\n      dup1\n      0x1f\n      add\n      0x20\n      dup1\n      swap2\n      div\n      mul\n      0x20\n      add\n      mload(0x40)\n      swap1\n      dup2\n      add\n      0x40\n      mstore\n      dup1\n      swap3\n      swap2\n      swap1\n      dup2\n      dup2\n      mstore\n      0x20\n      add\n      dup3\n      dup1\n      sload\n      tag_154\n      swap1\n      tag_106\n      jump\t// in\n    tag_154:\n      dup1\n      iszero\n      tag_155\n      jumpi\n      dup1\n      0x1f\n      lt\n      tag_156\n      jumpi\n      0x0100\n      dup1\n      dup4\n      sload\n      div\n      mul\n      dup4\n      mstore\n      swap2\n      0x20\n      add\n      swap2\n      jump(tag_155)\n    tag_156:\n      dup3\n      add\n      swap2\n      swap1\n      0x00\n      mstore\n      keccak256(0x00, 0x20)\n      swap1\n    tag_157:\n      dup2\n      sload\n      dup2\n      mstore\n      swap1\n      0x01\n      add\n      swap1\n      0x20\n      add\n      dup1\n      dup4\n      gt\n      tag_157\n      jumpi\n      dup3\n      swap1\n      sub\n      0x1f\n      and\n      dup3\n      add\n      swap2\n    tag_155:\n      pop\n      pop\n      pop\n      swap2\n      dup4\n      mstore\n      pop\n      pop\n      0x04\n      dup3\n      add\n      sload\n      sub(shl(0xa0, 0x01), 0x01)\n      and\n      0x20\n      dup3\n      add\n      mstore\n      0x05\n      dup3\n      add\n      sload\n      0x40\n      dup3\n      add\n      mstore\n      0x06\n      swap1\n      swap2\n      add\n      sload\n      0xff\n      and\n      iszero\n      iszero\n      0x60\n      swap1\n      swap2\n      add\n      mstore\n      swap3\n        /* \"TokenSGTX/contracts/LicenciasTaxsClone.sol\":2520:2695  function getAddressSignature(... */\n      swap2\n      pop\n      pop\n      jump\t// out\n        /* \"TokenSGTX/contracts/LicenciasTaxsClone.sol\":7036:7459  function approveAdmin(... */\n    tag_51:\n        /* \"TokenSGTX/contracts/LicenciasTaxsClone.sol\":8327:8332  owner */\n      sload(0x07)\n        /* \"TokenSGTX/contracts/LicenciasTaxsClone.sol\":7132:7136  bool */\n      0x00\n      swap1\n      sub(shl(0xa0, 0x01), 0x01)\n        /* \"TokenSGTX/contracts/LicenciasTaxsClone.sol\":8327:8332  owner */\n      and\n        /* \"TokenSGTX/contracts/LicenciasTaxsClone.sol\":8313:8323  msg.sender */\n      caller\n        /* \"TokenSGTX/contracts/LicenciasTaxsClone.sol\":8313:8332  msg.sender == owner */\n      eq\n        /* \"TokenSGTX/contracts/LicenciasTaxsClone.sol\":8305:8360  require(msg.sender == owner, \"Only Owner can activate\") */\n      tag_159\n      jumpi\n      mload(0x40)\n      shl(0xe5, 0x461bcd)\n      dup2\n      mstore\n      0x04\n      add\n      tag_122\n      swap1\n      tag_161\n      jump\t// in\n    tag_159:\n      sub(shl(0xa0, 0x01), 0x01)\n        /* \"TokenSGTX/contracts/LicenciasTaxsClone.sol\":7171:7203  _propoceAdmins[_relationAddress] */\n      dup3\n      and\n      0x00\n      swap1\n      dup2\n      mstore\n        /* \"TokenSGTX/contracts/LicenciasTaxsClone.sol\":7171:7185  _propoceAdmins */\n      0x05\n        /* \"TokenSGTX/contracts/LicenciasTaxsClone.sol\":7171:7203  _propoceAdmins[_relationAddress] */\n      0x20\n      mstore\n      0x40\n      swap1\n      keccak256\n      sload\n      0xff\n      and\n        /* \"TokenSGTX/contracts/LicenciasTaxsClone.sol\":7171:7211  _propoceAdmins[_relationAddress] == true */\n      iszero\n      iszero\n        /* \"TokenSGTX/contracts/LicenciasTaxsClone.sol\":7171:7203  _propoceAdmins[_relationAddress] */\n      0x01\n        /* \"TokenSGTX/contracts/LicenciasTaxsClone.sol\":7171:7211  _propoceAdmins[_relationAddress] == true */\n      eq\n        /* \"TokenSGTX/contracts/LicenciasTaxsClone.sol\":7149:7274  require(... */\n      tag_163\n      jumpi\n      mload(0x40)\n      shl(0xe5, 0x461bcd)\n      dup2\n      mstore\n        /* \"#utility.yul\":8040:8042   */\n      0x20\n        /* \"TokenSGTX/contracts/LicenciasTaxsClone.sol\":7149:7274  require(... */\n      0x04\n      dup3\n      add\n        /* \"#utility.yul\":8022:8043   */\n      mstore\n        /* \"#utility.yul\":8079:8081   */\n      0x23\n        /* \"#utility.yul\":8059:8077   */\n      0x24\n      dup3\n      add\n        /* \"#utility.yul\":8052:8082   */\n      mstore\n        /* \"#utility.yul\":8118:8152   */\n      0x61646472657373206d757374206265207265676973747265642062792061646d\n        /* \"#utility.yul\":8098:8116   */\n      0x44\n      dup3\n      add\n        /* \"#utility.yul\":8091:8153   */\n      mstore\n      shl(0xe8, 0x696e73)\n        /* \"#utility.yul\":8169:8187   */\n      0x64\n      dup3\n      add\n        /* \"#utility.yul\":8162:8195   */\n      mstore\n        /* \"#utility.yul\":8212:8231   */\n      0x84\n      add\n        /* \"TokenSGTX/contracts/LicenciasTaxsClone.sol\":7149:7274  require(... */\n      tag_122\n        /* \"#utility.yul\":7838:8237   */\n      jump\n        /* \"TokenSGTX/contracts/LicenciasTaxsClone.sol\":7149:7274  require(... */\n    tag_163:\n      sub(shl(0xa0, 0x01), 0x01)\n        /* \"TokenSGTX/contracts/LicenciasTaxsClone.sol\":7285:7310  _admins[_relationAddress] */\n      dup3\n      and\n      0x00\n      dup2\n      dup2\n      mstore\n        /* \"TokenSGTX/contracts/LicenciasTaxsClone.sol\":7285:7292  _admins */\n      0x04\n        /* \"TokenSGTX/contracts/LicenciasTaxsClone.sol\":7285:7310  _admins[_relationAddress] */\n      0x20\n      swap1\n      dup2\n      mstore\n      0x40\n      dup1\n      dup4\n      keccak256\n        /* \"TokenSGTX/contracts/LicenciasTaxsClone.sol\":7285:7317  _admins[_relationAddress] = true */\n      dup1\n      sload\n        /* \"TokenSGTX/contracts/LicenciasTaxsClone.sol\":7313:7317  true */\n      0x01\n      not(0xff)\n        /* \"TokenSGTX/contracts/LicenciasTaxsClone.sol\":7285:7317  _admins[_relationAddress] = true */\n      swap2\n      dup3\n      and\n      dup2\n      or\n      swap1\n      swap3\n      sstore\n        /* \"TokenSGTX/contracts/LicenciasTaxsClone.sol\":7335:7349  _propoceAdmins */\n      0x05\n        /* \"TokenSGTX/contracts/LicenciasTaxsClone.sol\":7335:7367  _propoceAdmins[_relationAddress] */\n      dup5\n      mstore\n      swap4\n      dup3\n      swap1\n      keccak256\n        /* \"TokenSGTX/contracts/LicenciasTaxsClone.sol\":7328:7367  delete _propoceAdmins[_relationAddress] */\n      dup1\n      sload\n      swap1\n      swap5\n      and\n      swap1\n      swap4\n      sstore\n        /* \"TokenSGTX/contracts/LicenciasTaxsClone.sol\":7383:7429  eventNewAdminRegistred(_relationAddress, true) */\n      mload\n        /* \"#utility.yul\":2516:2557   */\n      swap2\n      dup3\n      mstore\n        /* \"TokenSGTX/contracts/LicenciasTaxsClone.sol\":7383:7429  eventNewAdminRegistred(_relationAddress, true) */\n      0x9aab773cc5c7f377774352463d765fa3acae0bc1c83c44357f4405639ebab44a\n      swap2\n        /* \"#utility.yul\":2489:2507   */\n      add\n        /* \"TokenSGTX/contracts/LicenciasTaxsClone.sol\":7383:7429  eventNewAdminRegistred(_relationAddress, true) */\n      tag_130\n        /* \"#utility.yul\":2376:2563   */\n      jump\n        /* \"TokenSGTX/contracts/LicenciasTaxsClone.sol\":4854:5339  function validateData(... */\n    tag_57:\n        /* \"TokenSGTX/contracts/LicenciasTaxsClone.sol\":8434:8444  msg.sender */\n      caller\n        /* \"TokenSGTX/contracts/LicenciasTaxsClone.sol\":5073:5077  bool */\n      0x00\n        /* \"TokenSGTX/contracts/LicenciasTaxsClone.sol\":8426:8445  _admins[msg.sender] */\n      swap1\n      dup2\n      mstore\n        /* \"TokenSGTX/contracts/LicenciasTaxsClone.sol\":8426:8433  _admins */\n      0x04\n        /* \"TokenSGTX/contracts/LicenciasTaxsClone.sol\":8426:8445  _admins[msg.sender] */\n      0x20\n      mstore\n      0x40\n      dup2\n      keccak256\n      sload\n      0xff\n      and\n        /* \"TokenSGTX/contracts/LicenciasTaxsClone.sol\":8418:8446  require(_admins[msg.sender]) */\n      tag_168\n      jumpi\n      0x00\n      dup1\n      revert\n    tag_168:\n        /* \"TokenSGTX/contracts/LicenciasTaxsClone.sol\":5090:5112  bytes32 singLicenseObj */\n      0x00\n        /* \"TokenSGTX/contracts/LicenciasTaxsClone.sol\":5115:5278  singLicense(... */\n      tag_170\n        /* \"TokenSGTX/contracts/LicenciasTaxsClone.sol\":5141:5149  _consept */\n      dup8\n        /* \"TokenSGTX/contracts/LicenciasTaxsClone.sol\":5164:5174  identifier */\n      dup5\n        /* \"TokenSGTX/contracts/LicenciasTaxsClone.sol\":5189:5212  taxpayerAddress(_owner) */\n      tag_171\n        /* \"TokenSGTX/contracts/LicenciasTaxsClone.sol\":5205:5211  _owner */\n      dup10\n        /* \"TokenSGTX/contracts/LicenciasTaxsClone.sol\":5189:5204  taxpayerAddress */\n      tag_67\n        /* \"TokenSGTX/contracts/LicenciasTaxsClone.sol\":5189:5212  taxpayerAddress(_owner) */\n      jump\t// in\n    tag_171:\n        /* \"TokenSGTX/contracts/LicenciasTaxsClone.sol\":5227:5231  data */\n      dup8\n        /* \"TokenSGTX/contracts/LicenciasTaxsClone.sol\":5246:5256  _approvers */\n      0x06\n        /* \"TokenSGTX/contracts/LicenciasTaxsClone.sol\":5257:5266  _approver */\n      dup11\n        /* \"TokenSGTX/contracts/LicenciasTaxsClone.sol\":5246:5267  _approvers[_approver] */\n      mload(0x40)\n      tag_172\n      swap2\n      swap1\n      tag_173\n      jump\t// in\n    tag_172:\n      swap1\n      dup2\n      mstore\n      mload(0x40)\n      swap1\n      dup2\n      swap1\n      sub\n      0x20\n      add\n      swap1\n      keccak256\n      sload\n      sub(shl(0xa0, 0x01), 0x01)\n      and\n        /* \"TokenSGTX/contracts/LicenciasTaxsClone.sol\":5115:5126  singLicense */\n      tag_174\n        /* \"TokenSGTX/contracts/LicenciasTaxsClone.sol\":5115:5278  singLicense(... */\n      jump\t// in\n    tag_170:\n        /* \"TokenSGTX/contracts/LicenciasTaxsClone.sol\":5090:5278  bytes32 singLicenseObj = singLicense(... */\n      swap1\n      pop\n        /* \"TokenSGTX/contracts/LicenciasTaxsClone.sol\":5298:5331  signatureValidate(singLicenseObj) */\n      tag_175\n        /* \"TokenSGTX/contracts/LicenciasTaxsClone.sol\":5316:5330  singLicenseObj */\n      dup2\n        /* \"TokenSGTX/contracts/LicenciasTaxsClone.sol\":5298:5315  signatureValidate */\n      tag_82\n        /* \"TokenSGTX/contracts/LicenciasTaxsClone.sol\":5298:5331  signatureValidate(singLicenseObj) */\n      jump\t// in\n    tag_175:\n        /* \"TokenSGTX/contracts/LicenciasTaxsClone.sol\":5291:5331  return signatureValidate(singLicenseObj) */\n      swap8\n        /* \"TokenSGTX/contracts/LicenciasTaxsClone.sol\":4854:5339  function validateData(... */\n      swap7\n      pop\n      pop\n      pop\n      pop\n      pop\n      pop\n      pop\n      jump\t// out\n        /* \"TokenSGTX/contracts/LicenciasTaxsClone.sol\":7809:8039  function tranferOwnership(... */\n    tag_61:\n        /* \"TokenSGTX/contracts/LicenciasTaxsClone.sol\":8327:8332  owner */\n      sload(0x07)\n        /* \"TokenSGTX/contracts/LicenciasTaxsClone.sol\":7901:7905  bool */\n      0x00\n      swap1\n      sub(shl(0xa0, 0x01), 0x01)\n        /* \"TokenSGTX/contracts/LicenciasTaxsClone.sol\":8327:8332  owner */\n      and\n        /* \"TokenSGTX/contracts/LicenciasTaxsClone.sol\":8313:8323  msg.sender */\n      caller\n        /* \"TokenSGTX/contracts/LicenciasTaxsClone.sol\":8313:8332  msg.sender == owner */\n      eq\n        /* \"TokenSGTX/contracts/LicenciasTaxsClone.sol\":8305:8360  require(msg.sender == owner, \"Only Owner can activate\") */\n      tag_177\n      jumpi\n      mload(0x40)\n      shl(0xe5, 0x461bcd)\n      dup2\n      mstore\n      0x04\n      add\n      tag_122\n      swap1\n      tag_161\n      jump\t// in\n    tag_177:\n      sub(shl(0xa0, 0x01), 0x01)\n        /* \"TokenSGTX/contracts/LicenciasTaxsClone.sol\":7926:7948  NewOwner != address(0) */\n      dup3\n      and\n        /* \"TokenSGTX/contracts/LicenciasTaxsClone.sol\":7918:7982  require(NewOwner != address(0), \"Owner can't be a Zero address\") */\n      tag_180\n      jumpi\n      mload(0x40)\n      shl(0xe5, 0x461bcd)\n      dup2\n      mstore\n        /* \"#utility.yul\":8738:8740   */\n      0x20\n        /* \"TokenSGTX/contracts/LicenciasTaxsClone.sol\":7918:7982  require(NewOwner != address(0), \"Owner can't be a Zero address\") */\n      0x04\n      dup3\n      add\n        /* \"#utility.yul\":8720:8741   */\n      mstore\n        /* \"#utility.yul\":8777:8779   */\n      0x1d\n        /* \"#utility.yul\":8757:8775   */\n      0x24\n      dup3\n      add\n        /* \"#utility.yul\":8750:8780   */\n      mstore\n        /* \"#utility.yul\":8816:8847   */\n      0x4f776e65722063616e27742062652061205a65726f2061646472657373000000\n        /* \"#utility.yul\":8796:8814   */\n      0x44\n      dup3\n      add\n        /* \"#utility.yul\":8789:8848   */\n      mstore\n        /* \"#utility.yul\":8865:8883   */\n      0x64\n      add\n        /* \"TokenSGTX/contracts/LicenciasTaxsClone.sol\":7918:7982  require(NewOwner != address(0), \"Owner can't be a Zero address\") */\n      tag_122\n        /* \"#utility.yul\":8536:8889   */\n      jump\n        /* \"TokenSGTX/contracts/LicenciasTaxsClone.sol\":7918:7982  require(NewOwner != address(0), \"Owner can't be a Zero address\") */\n    tag_180:\n      pop\n        /* \"TokenSGTX/contracts/LicenciasTaxsClone.sol\":7993:7998  owner */\n      0x07\n        /* \"TokenSGTX/contracts/LicenciasTaxsClone.sol\":7993:8009  owner = NewOwner */\n      dup1\n      sload\n      sub(shl(0xa0, 0x01), 0x01)\n      dup4\n      and\n      not(sub(shl(0xa0, 0x01), 0x01))\n      swap1\n      swap2\n      and\n      or\n      swap1\n      sstore\n      0x01\n        /* \"TokenSGTX/contracts/LicenciasTaxsClone.sol\":7809:8039  function tranferOwnership(... */\n      swap2\n      swap1\n      pop\n      jump\t// out\n        /* \"TokenSGTX/contracts/LicenciasTaxsClone.sol\":3351:3492  function taxpayerAddress(... */\n    tag_67:\n        /* \"TokenSGTX/contracts/LicenciasTaxsClone.sol\":8434:8444  msg.sender */\n      caller\n        /* \"TokenSGTX/contracts/LicenciasTaxsClone.sol\":3441:3448  address */\n      0x00\n        /* \"TokenSGTX/contracts/LicenciasTaxsClone.sol\":8426:8445  _admins[msg.sender] */\n      swap1\n      dup2\n      mstore\n        /* \"TokenSGTX/contracts/LicenciasTaxsClone.sol\":8426:8433  _admins */\n      0x04\n        /* \"TokenSGTX/contracts/LicenciasTaxsClone.sol\":8426:8445  _admins[msg.sender] */\n      0x20\n      mstore\n      0x40\n      dup2\n      keccak256\n      sload\n      0xff\n      and\n        /* \"TokenSGTX/contracts/LicenciasTaxsClone.sol\":8418:8446  require(_admins[msg.sender]) */\n      tag_184\n      jumpi\n      0x00\n      dup1\n      revert\n    tag_184:\n        /* \"TokenSGTX/contracts/LicenciasTaxsClone.sol\":3468:3478  _taxpayers */\n      0x03\n        /* \"TokenSGTX/contracts/LicenciasTaxsClone.sol\":3479:3483  _rif */\n      dup3\n        /* \"TokenSGTX/contracts/LicenciasTaxsClone.sol\":3468:3484  _taxpayers[_rif] */\n      mload(0x40)\n      tag_186\n      swap2\n      swap1\n      tag_173\n      jump\t// in\n    tag_186:\n      swap1\n      dup2\n      mstore\n      mload(0x40)\n      swap1\n      dup2\n      swap1\n      sub\n      0x20\n      add\n      swap1\n      keccak256\n      sload\n      sub(shl(0xa0, 0x01), 0x01)\n      and\n      swap1\n      pop\n        /* \"TokenSGTX/contracts/LicenciasTaxsClone.sol\":3351:3492  function taxpayerAddress(... */\n      swap2\n      swap1\n      pop\n      jump\t// out\n        /* \"TokenSGTX/contracts/LicenciasTaxsClone.sol\":6439:6645  function addTaxPayer(... */\n    tag_73:\n        /* \"TokenSGTX/contracts/LicenciasTaxsClone.sol\":8327:8332  owner */\n      sload(0x07)\n        /* \"TokenSGTX/contracts/LicenciasTaxsClone.sol\":6563:6567  bool */\n      0x00\n      swap1\n      sub(shl(0xa0, 0x01), 0x01)\n        /* \"TokenSGTX/contracts/LicenciasTaxsClone.sol\":8327:8332  owner */\n      and\n        /* \"TokenSGTX/contracts/LicenciasTaxsClone.sol\":8313:8323  msg.sender */\n      caller\n        /* \"TokenSGTX/contracts/LicenciasTaxsClone.sol\":8313:8332  msg.sender == owner */\n      eq\n        /* \"TokenSGTX/contracts/LicenciasTaxsClone.sol\":8305:8360  require(msg.sender == owner, \"Only Owner can activate\") */\n      tag_188\n      jumpi\n      mload(0x40)\n      shl(0xe5, 0x461bcd)\n      dup2\n      mstore\n      0x04\n      add\n      tag_122\n      swap1\n      tag_161\n      jump\t// in\n    tag_188:\n        /* \"TokenSGTX/contracts/LicenciasTaxsClone.sol\":6599:6615  _relationAddress */\n      dup2\n        /* \"TokenSGTX/contracts/LicenciasTaxsClone.sol\":6580:6590  _taxpayers */\n      0x03\n        /* \"TokenSGTX/contracts/LicenciasTaxsClone.sol\":6591:6595  _rif */\n      dup5\n        /* \"TokenSGTX/contracts/LicenciasTaxsClone.sol\":6580:6596  _taxpayers[_rif] */\n      mload(0x40)\n      tag_191\n      swap2\n      swap1\n      tag_173\n      jump\t// in\n    tag_191:\n      swap1\n      dup2\n      mstore\n      mload(0x40)\n      swap1\n      dup2\n      swap1\n      sub\n      0x20\n      add\n      swap1\n      keccak256\n        /* \"TokenSGTX/contracts/LicenciasTaxsClone.sol\":6580:6615  _taxpayers[_rif] = _relationAddress */\n      dup1\n      sload\n      sub(shl(0xa0, 0x01), 0x01)\n      swap3\n      swap1\n      swap3\n      and\n      not(sub(shl(0xa0, 0x01), 0x01))\n      swap1\n      swap3\n      and\n      swap2\n      swap1\n      swap2\n      or\n      swap1\n      sstore\n      pop\n      0x01\n        /* \"TokenSGTX/contracts/LicenciasTaxsClone.sol\":6439:6645  function addTaxPayer(... */\n      swap3\n      swap2\n      pop\n      pop\n      jump\t// out\n        /* \"TokenSGTX/contracts/LicenciasTaxsClone.sol\":2249:2512  function signatureValidate(... */\n    tag_82:\n        /* \"TokenSGTX/contracts/LicenciasTaxsClone.sol\":2333:2337  bool */\n      0x00\n        /* \"TokenSGTX/contracts/LicenciasTaxsClone.sol\":2350:2376  StructSignature memory obj */\n      dup1\n        /* \"TokenSGTX/contracts/LicenciasTaxsClone.sol\":2379:2396  _signatureEnabled */\n      0x00\n        /* \"TokenSGTX/contracts/LicenciasTaxsClone.sol\":2379:2408  _signatureEnabled[singnature] */\n      dup1\n        /* \"TokenSGTX/contracts/LicenciasTaxsClone.sol\":2397:2407  singnature */\n      dup5\n        /* \"TokenSGTX/contracts/LicenciasTaxsClone.sol\":2379:2408  _signatureEnabled[singnature] */\n      dup2\n      mstore\n      0x20\n      add\n      swap1\n      dup2\n      mstore\n      0x20\n      add\n      0x00\n      keccak256\n        /* \"TokenSGTX/contracts/LicenciasTaxsClone.sol\":2350:2408  StructSignature memory obj = _signatureEnabled[singnature] */\n      mload(0x40)\n      dup1\n      0xe0\n      add\n      0x40\n      mstore\n      swap1\n      dup2\n      0x00\n      dup3\n      add\n      dup1\n      sload\n      tag_194\n      swap1\n      tag_106\n      jump\t// in\n    tag_194:\n      dup1\n      0x1f\n      add\n      0x20\n      dup1\n      swap2\n      div\n      mul\n      0x20\n      add\n      mload(0x40)\n      swap1\n      dup2\n      add\n      0x40\n      mstore\n      dup1\n      swap3\n      swap2\n      swap1\n      dup2\n      dup2\n      mstore\n      0x20\n      add\n      dup3\n      dup1\n      sload\n      tag_195\n      swap1\n      tag_106\n      jump\t// in\n    tag_195:\n      dup1\n      iszero\n      tag_196\n      jumpi\n      dup1\n      0x1f\n      lt\n      tag_197\n      jumpi\n      0x0100\n      dup1\n      dup4\n      sload\n      div\n      mul\n      dup4\n      mstore\n      swap2\n      0x20\n      add\n      swap2\n      jump(tag_196)\n    tag_197:\n      dup3\n      add\n      swap2\n      swap1\n      0x00\n      mstore\n      keccak256(0x00, 0x20)\n      swap1\n    tag_198:\n      dup2\n      sload\n      dup2\n      mstore\n      swap1\n      0x01\n      add\n      swap1\n      0x20\n      add\n      dup1\n      dup4\n      gt\n      tag_198\n      jumpi\n      dup3\n      swap1\n      sub\n      0x1f\n      and\n      dup3\n      add\n      swap2\n    tag_196:\n      pop\n      pop\n      pop\n      pop\n      pop\n      dup2\n      mstore\n      0x20\n      add\n      0x01\n      dup3\n      add\n      dup1\n      sload\n      tag_199\n      swap1\n      tag_106\n      jump\t// in\n    tag_199:\n      dup1\n      0x1f\n      add\n      0x20\n      dup1\n      swap2\n      div\n      mul\n      0x20\n      add\n      mload(0x40)\n      swap1\n      dup2\n      add\n      0x40\n      mstore\n      dup1\n      swap3\n      swap2\n      swap1\n      dup2\n      dup2\n      mstore\n      0x20\n      add\n      dup3\n      dup1\n      sload\n      tag_200\n      swap1\n      tag_106\n      jump\t// in\n    tag_200:\n      dup1\n      iszero\n      tag_201\n      jumpi\n      dup1\n      0x1f\n      lt\n      tag_202\n      jumpi\n      0x0100\n      dup1\n      dup4\n      sload\n      div\n      mul\n      dup4\n      mstore\n      swap2\n      0x20\n      add\n      swap2\n      jump(tag_201)\n    tag_202:\n      dup3\n      add\n      swap2\n      swap1\n      0x00\n      mstore\n      keccak256(0x00, 0x20)\n      swap1\n    tag_203:\n      dup2\n      sload\n      dup2\n      mstore\n      swap1\n      0x01\n      add\n      swap1\n      0x20\n      add\n      dup1\n      dup4\n      gt\n      tag_203\n      jumpi\n      dup3\n      swap1\n      sub\n      0x1f\n      and\n      dup3\n      add\n      swap2\n    tag_201:\n      pop\n      pop\n      pop\n      swap2\n      dup4\n      mstore\n      pop\n      pop\n      0x02\n      dup3\n      add\n      sload\n      sub(shl(0xa0, 0x01), 0x01)\n      and\n      0x20\n      dup3\n      add\n      mstore\n      0x03\n      dup3\n      add\n      dup1\n      sload\n      0x40\n      swap1\n      swap3\n      add\n      swap2\n      tag_204\n      swap1\n      tag_106\n      jump\t// in\n    tag_204:\n      dup1\n      0x1f\n      add\n      0x20\n      dup1\n      swap2\n      div\n      mul\n      0x20\n      add\n      mload(0x40)\n      swap1\n      dup2\n      add\n      0x40\n      mstore\n      dup1\n      swap3\n      swap2\n      swap1\n      dup2\n      dup2\n      mstore\n      0x20\n      add\n      dup3\n      dup1\n      sload\n      tag_205\n      swap1\n      tag_106\n      jump\t// in\n    tag_205:\n      dup1\n      iszero\n      tag_206\n      jumpi\n      dup1\n      0x1f\n      lt\n      tag_207\n      jumpi\n      0x0100\n      dup1\n      dup4\n      sload\n      div\n      mul\n      dup4\n      mstore\n      swap2\n      0x20\n      add\n      swap2\n      jump(tag_206)\n    tag_207:\n      dup3\n      add\n      swap2\n      swap1\n      0x00\n      mstore\n      keccak256(0x00, 0x20)\n      swap1\n    tag_208:\n      dup2\n      sload\n      dup2\n      mstore\n      swap1\n      0x01\n      add\n      swap1\n      0x20\n      add\n      dup1\n      dup4\n      gt\n      tag_208\n      jumpi\n      dup3\n      swap1\n      sub\n      0x1f\n      and\n      dup3\n      add\n      swap2\n    tag_206:\n      pop\n      pop\n      pop\n      swap2\n      dup4\n      mstore\n      pop\n      pop\n      0x04\n      dup3\n      add\n      sload\n      sub(shl(0xa0, 0x01), 0x01)\n      and\n      0x20\n      dup3\n      add\n      mstore\n      0x05\n      dup3\n      add\n      sload\n      0x40\n      dup3\n      add\n      mstore\n      0x06\n      swap1\n      swap2\n      add\n      sload\n      0xff\n      and\n      iszero\n      iszero\n      0x60\n      swap1\n      swap2\n      add\n      mstore\n        /* \"TokenSGTX/contracts/LicenciasTaxsClone.sol\":2423:2436  obj.signature */\n      0xa0\n      dup2\n      add\n      mload\n        /* \"TokenSGTX/contracts/LicenciasTaxsClone.sol\":2350:2408  StructSignature memory obj = _signatureEnabled[singnature] */\n      swap1\n      swap2\n      pop\n      0x00\n        /* \"TokenSGTX/contracts/LicenciasTaxsClone.sol\":2423:2442  obj.signature == \"\" */\n      sub\n        /* \"TokenSGTX/contracts/LicenciasTaxsClone.sol\":2419:2483  if (obj.signature == \"\") {... */\n      tag_209\n      jumpi\n      pop\n        /* \"TokenSGTX/contracts/LicenciasTaxsClone.sol\":2466:2471  false */\n      0x00\n      swap3\n        /* \"TokenSGTX/contracts/LicenciasTaxsClone.sol\":2249:2512  function signatureValidate(... */\n      swap2\n      pop\n      pop\n      jump\t// out\n        /* \"TokenSGTX/contracts/LicenciasTaxsClone.sol\":2419:2483  if (obj.signature == \"\") {... */\n    tag_209:\n      pop\n        /* \"TokenSGTX/contracts/LicenciasTaxsClone.sol\":2500:2504  true */\n      0x01\n      swap3\n        /* \"TokenSGTX/contracts/LicenciasTaxsClone.sol\":2249:2512  function signatureValidate(... */\n      swap2\n      pop\n      pop\n      jump\t// out\n        /* \"TokenSGTX/contracts/LicenciasTaxsClone.sol\":7467:7801  function addApprover(... */\n    tag_86:\n        /* \"TokenSGTX/contracts/LicenciasTaxsClone.sol\":8327:8332  owner */\n      sload(0x07)\n        /* \"TokenSGTX/contracts/LicenciasTaxsClone.sol\":7590:7594  bool */\n      0x00\n      swap1\n      sub(shl(0xa0, 0x01), 0x01)\n        /* \"TokenSGTX/contracts/LicenciasTaxsClone.sol\":8327:8332  owner */\n      and\n        /* \"TokenSGTX/contracts/LicenciasTaxsClone.sol\":8313:8323  msg.sender */\n      caller\n        /* \"TokenSGTX/contracts/LicenciasTaxsClone.sol\":8313:8332  msg.sender == owner */\n      eq\n        /* \"TokenSGTX/contracts/LicenciasTaxsClone.sol\":8305:8360  require(msg.sender == owner, \"Only Owner can activate\") */\n      tag_211\n      jumpi\n      mload(0x40)\n      shl(0xe5, 0x461bcd)\n      dup2\n      mstore\n      0x04\n      add\n      tag_122\n      swap1\n      tag_161\n      jump\t// in\n    tag_211:\n        /* \"TokenSGTX/contracts/LicenciasTaxsClone.sol\":7642:7643  0 */\n      0x00\n      sub(shl(0xa0, 0x01), 0x01)\n        /* \"TokenSGTX/contracts/LicenciasTaxsClone.sol\":7615:7644  _approvers[_Id] == address(0) */\n      and\n        /* \"TokenSGTX/contracts/LicenciasTaxsClone.sol\":7615:7625  _approvers */\n      0x06\n        /* \"TokenSGTX/contracts/LicenciasTaxsClone.sol\":7626:7629  _Id */\n      dup5\n        /* \"TokenSGTX/contracts/LicenciasTaxsClone.sol\":7615:7630  _approvers[_Id] */\n      mload(0x40)\n      tag_214\n      swap2\n      swap1\n      tag_173\n      jump\t// in\n    tag_214:\n      swap1\n      dup2\n      mstore\n      mload(0x40)\n      swap1\n      dup2\n      swap1\n      sub\n      0x20\n      add\n      swap1\n      keccak256\n      sload\n      sub(shl(0xa0, 0x01), 0x01)\n      and\n        /* \"TokenSGTX/contracts/LicenciasTaxsClone.sol\":7615:7644  _approvers[_Id] == address(0) */\n      eq\n        /* \"TokenSGTX/contracts/LicenciasTaxsClone.sol\":7607:7670  require(_approvers[_Id] == address(0), \"Address already added\") */\n      tag_215\n      jumpi\n      mload(0x40)\n      shl(0xe5, 0x461bcd)\n      dup2\n      mstore\n        /* \"#utility.yul\":9096:9098   */\n      0x20\n        /* \"TokenSGTX/contracts/LicenciasTaxsClone.sol\":7607:7670  require(_approvers[_Id] == address(0), \"Address already added\") */\n      0x04\n      dup3\n      add\n        /* \"#utility.yul\":9078:9099   */\n      mstore\n        /* \"#utility.yul\":9135:9137   */\n      0x15\n        /* \"#utility.yul\":9115:9133   */\n      0x24\n      dup3\n      add\n        /* \"#utility.yul\":9108:9138   */\n      mstore\n      shl(0x5a, 0x1059191c995cdcc8185b1c9958591e481859191959)\n        /* \"#utility.yul\":9154:9172   */\n      0x44\n      dup3\n      add\n        /* \"#utility.yul\":9147:9198   */\n      mstore\n        /* \"#utility.yul\":9215:9233   */\n      0x64\n      add\n        /* \"TokenSGTX/contracts/LicenciasTaxsClone.sol\":7607:7670  require(_approvers[_Id] == address(0), \"Address already added\") */\n      tag_122\n        /* \"#utility.yul\":8894:9239   */\n      jump\n        /* \"TokenSGTX/contracts/LicenciasTaxsClone.sol\":7607:7670  require(_approvers[_Id] == address(0), \"Address already added\") */\n    tag_215:\n        /* \"TokenSGTX/contracts/LicenciasTaxsClone.sol\":7699:7715  _relationAddress */\n      dup2\n        /* \"TokenSGTX/contracts/LicenciasTaxsClone.sol\":7681:7691  _approvers */\n      0x06\n        /* \"TokenSGTX/contracts/LicenciasTaxsClone.sol\":7692:7695  _Id */\n      dup5\n        /* \"TokenSGTX/contracts/LicenciasTaxsClone.sol\":7681:7696  _approvers[_Id] */\n      mload(0x40)\n      tag_218\n      swap2\n      swap1\n      tag_173\n      jump\t// in\n    tag_218:\n      swap1\n      dup2\n      mstore\n      mload(0x40)\n      0x20\n      swap2\n      dup2\n      swap1\n      sub\n      dup3\n      add\n      dup2\n      keccak256\n        /* \"TokenSGTX/contracts/LicenciasTaxsClone.sol\":7681:7715  _approvers[_Id] = _relationAddress */\n      dup1\n      sload\n      not(sub(shl(0xa0, 0x01), 0x01))\n      and\n      sub(shl(0xa0, 0x01), 0x01)\n      swap5\n      dup6\n      and\n      or\n      swap1\n      sstore\n      0x01\n        /* \"#utility.yul\":2516:2557   */\n      dup2\n      mstore\n        /* \"TokenSGTX/contracts/LicenciasTaxsClone.sol\":7731:7771  eventNewApprover(_relationAddress, true) */\n      swap2\n      dup5\n      and\n      swap2\n      0xa590b4fc649a56bfc2765312a8b4becaa85a972fd5403de3f9a0a4270c40e71e\n      swap2\n        /* \"#utility.yul\":2489:2507   */\n      add\n        /* \"TokenSGTX/contracts/LicenciasTaxsClone.sol\":7731:7771  eventNewApprover(_relationAddress, true) */\n      mload(0x40)\n      dup1\n      swap2\n      sub\n      swap1\n      log2\n      pop\n        /* \"TokenSGTX/contracts/LicenciasTaxsClone.sol\":7789:7793  true */\n      0x01\n        /* \"TokenSGTX/contracts/LicenciasTaxsClone.sol\":7467:7801  function addApprover(... */\n      swap3\n      swap2\n      pop\n      pop\n      jump\t// out\n        /* \"TokenSGTX/contracts/LicenciasTaxsClone.sol\":1053:2241  function signatureMint(... */\n    tag_90:\n        /* \"TokenSGTX/contracts/LicenciasTaxsClone.sol\":8327:8332  owner */\n      sload(0x07)\n        /* \"TokenSGTX/contracts/LicenciasTaxsClone.sol\":1287:1294  bytes32 */\n      0x00\n      swap1\n      sub(shl(0xa0, 0x01), 0x01)\n        /* \"TokenSGTX/contracts/LicenciasTaxsClone.sol\":8327:8332  owner */\n      and\n        /* \"TokenSGTX/contracts/LicenciasTaxsClone.sol\":8313:8323  msg.sender */\n      caller\n        /* \"TokenSGTX/contracts/LicenciasTaxsClone.sol\":8313:8332  msg.sender == owner */\n      eq\n        /* \"TokenSGTX/contracts/LicenciasTaxsClone.sol\":8305:8360  require(msg.sender == owner, \"Only Owner can activate\") */\n      tag_221\n      jumpi\n      mload(0x40)\n      shl(0xe5, 0x461bcd)\n      dup2\n      mstore\n      0x04\n      add\n      tag_122\n      swap1\n      tag_161\n      jump\t// in\n    tag_221:\n        /* \"TokenSGTX/contracts/LicenciasTaxsClone.sol\":8514:8525  stopMinting */\n      sload(0x07)\n      shl(0xa0, 0x01)\n      swap1\n      div\n      0xff\n      and\n        /* \"TokenSGTX/contracts/LicenciasTaxsClone.sol\":8514:8533  stopMinting == true */\n      iszero\n      iszero\n        /* \"TokenSGTX/contracts/LicenciasTaxsClone.sol\":8529:8533  true */\n      0x01\n        /* \"TokenSGTX/contracts/LicenciasTaxsClone.sol\":8514:8533  stopMinting == true */\n      eq\n        /* \"TokenSGTX/contracts/LicenciasTaxsClone.sol\":8506:8569  require(stopMinting == true, \"Minting has stoped by the owner\") */\n      tag_224\n      jumpi\n      mload(0x40)\n      shl(0xe5, 0x461bcd)\n      dup2\n      mstore\n        /* \"#utility.yul\":9446:9448   */\n      0x20\n        /* \"TokenSGTX/contracts/LicenciasTaxsClone.sol\":8506:8569  require(stopMinting == true, \"Minting has stoped by the owner\") */\n      0x04\n      dup3\n      add\n        /* \"#utility.yul\":9428:9449   */\n      mstore\n        /* \"#utility.yul\":9485:9487   */\n      0x1f\n        /* \"#utility.yul\":9465:9483   */\n      0x24\n      dup3\n      add\n        /* \"#utility.yul\":9458:9488   */\n      mstore\n        /* \"#utility.yul\":9524:9557   */\n      0x4d696e74696e67206861732073746f70656420627920746865206f776e657200\n        /* \"#utility.yul\":9504:9522   */\n      0x44\n      dup3\n      add\n        /* \"#utility.yul\":9497:9558   */\n      mstore\n        /* \"#utility.yul\":9575:9593   */\n      0x64\n      add\n        /* \"TokenSGTX/contracts/LicenciasTaxsClone.sol\":8506:8569  require(stopMinting == true, \"Minting has stoped by the owner\") */\n      tag_122\n        /* \"#utility.yul\":9244:9599   */\n      jump\n        /* \"TokenSGTX/contracts/LicenciasTaxsClone.sol\":8506:8569  require(stopMinting == true, \"Minting has stoped by the owner\") */\n    tag_224:\n        /* \"TokenSGTX/contracts/LicenciasTaxsClone.sol\":1364:1365  0 */\n      0x00\n        /* \"TokenSGTX/contracts/LicenciasTaxsClone.sol\":1329:1352  taxpayerAddress(_owner) */\n      tag_228\n        /* \"TokenSGTX/contracts/LicenciasTaxsClone.sol\":1345:1351  _owner */\n      dup7\n        /* \"TokenSGTX/contracts/LicenciasTaxsClone.sol\":1329:1344  taxpayerAddress */\n      tag_67\n        /* \"TokenSGTX/contracts/LicenciasTaxsClone.sol\":1329:1352  taxpayerAddress(_owner) */\n      jump\t// in\n    tag_228:\n      sub(shl(0xa0, 0x01), 0x01)\n        /* \"TokenSGTX/contracts/LicenciasTaxsClone.sol\":1329:1366  taxpayerAddress(_owner) != address(0) */\n      and\n      sub\n        /* \"TokenSGTX/contracts/LicenciasTaxsClone.sol\":1307:1424  require(... */\n      tag_229\n      jumpi\n      mload(0x40)\n      shl(0xe5, 0x461bcd)\n      dup2\n      mstore\n        /* \"#utility.yul\":9806:9808   */\n      0x20\n        /* \"TokenSGTX/contracts/LicenciasTaxsClone.sol\":1307:1424  require(... */\n      0x04\n      dup3\n      add\n        /* \"#utility.yul\":9788:9809   */\n      mstore\n        /* \"#utility.yul\":9845:9847   */\n      0x1e\n        /* \"#utility.yul\":9825:9843   */\n      0x24\n      dup3\n      add\n        /* \"#utility.yul\":9818:9848   */\n      mstore\n        /* \"#utility.yul\":9884:9916   */\n      0x526966204e6f7420526567697374726564206861732054617870617965720000\n        /* \"#utility.yul\":9864:9882   */\n      0x44\n      dup3\n      add\n        /* \"#utility.yul\":9857:9917   */\n      mstore\n        /* \"#utility.yul\":9934:9952   */\n      0x64\n      add\n        /* \"TokenSGTX/contracts/LicenciasTaxsClone.sol\":1307:1424  require(... */\n      tag_122\n        /* \"#utility.yul\":9604:9958   */\n      jump\n        /* \"TokenSGTX/contracts/LicenciasTaxsClone.sol\":1307:1424  require(... */\n    tag_229:\n        /* \"TokenSGTX/contracts/LicenciasTaxsClone.sol\":1492:1493  0 */\n      0x00\n      sub(shl(0xa0, 0x01), 0x01)\n        /* \"TokenSGTX/contracts/LicenciasTaxsClone.sol\":1459:1494  _approvers[_approver] != address(0) */\n      and\n        /* \"TokenSGTX/contracts/LicenciasTaxsClone.sol\":1459:1469  _approvers */\n      0x06\n        /* \"TokenSGTX/contracts/LicenciasTaxsClone.sol\":1470:1479  _approver */\n      dup6\n        /* \"TokenSGTX/contracts/LicenciasTaxsClone.sol\":1459:1480  _approvers[_approver] */\n      mload(0x40)\n      tag_232\n      swap2\n      swap1\n      tag_173\n      jump\t// in\n    tag_232:\n      swap1\n      dup2\n      mstore\n      mload(0x40)\n      swap1\n      dup2\n      swap1\n      sub\n      0x20\n      add\n      swap1\n      keccak256\n      sload\n      sub(shl(0xa0, 0x01), 0x01)\n      and\n        /* \"TokenSGTX/contracts/LicenciasTaxsClone.sol\":1459:1494  _approvers[_approver] != address(0) */\n      sub\n        /* \"TokenSGTX/contracts/LicenciasTaxsClone.sol\":1437:1554  require(... */\n      tag_233\n      jumpi\n      mload(0x40)\n      shl(0xe5, 0x461bcd)\n      dup2\n      mstore\n        /* \"#utility.yul\":10165:10167   */\n      0x20\n        /* \"TokenSGTX/contracts/LicenciasTaxsClone.sol\":1437:1554  require(... */\n      0x04\n      dup3\n      add\n        /* \"#utility.yul\":10147:10168   */\n      dup2\n      swap1\n      mstore\n        /* \"#utility.yul\":10184:10202   */\n      0x24\n      dup3\n      add\n        /* \"#utility.yul\":10177:10207   */\n      mstore\n        /* \"#utility.yul\":10243:10277   */\n      0x417070726f766572204e6f7420526567697374726564206861732056616c6964\n        /* \"#utility.yul\":10223:10241   */\n      0x44\n      dup3\n      add\n        /* \"#utility.yul\":10216:10278   */\n      mstore\n        /* \"#utility.yul\":10295:10313   */\n      0x64\n      add\n        /* \"TokenSGTX/contracts/LicenciasTaxsClone.sol\":1437:1554  require(... */\n      tag_122\n        /* \"#utility.yul\":9963:10319   */\n      jump\n        /* \"TokenSGTX/contracts/LicenciasTaxsClone.sol\":1437:1554  require(... */\n    tag_233:\n        /* \"TokenSGTX/contracts/LicenciasTaxsClone.sol\":1615:1638  taxpayerAddress(_owner) */\n      tag_236\n        /* \"TokenSGTX/contracts/LicenciasTaxsClone.sol\":1631:1637  _owner */\n      dup6\n        /* \"TokenSGTX/contracts/LicenciasTaxsClone.sol\":1615:1630  taxpayerAddress */\n      tag_67\n        /* \"TokenSGTX/contracts/LicenciasTaxsClone.sol\":1615:1638  taxpayerAddress(_owner) */\n      jump\t// in\n    tag_236:\n      sub(shl(0xa0, 0x01), 0x01)\n        /* \"TokenSGTX/contracts/LicenciasTaxsClone.sol\":1589:1638  _approvers[_approver] !=  taxpayerAddress(_owner) */\n      and\n        /* \"TokenSGTX/contracts/LicenciasTaxsClone.sol\":1589:1599  _approvers */\n      0x06\n        /* \"TokenSGTX/contracts/LicenciasTaxsClone.sol\":1600:1609  _approver */\n      dup6\n        /* \"TokenSGTX/contracts/LicenciasTaxsClone.sol\":1589:1610  _approvers[_approver] */\n      mload(0x40)\n      tag_237\n      swap2\n      swap1\n      tag_173\n      jump\t// in\n    tag_237:\n      swap1\n      dup2\n      mstore\n      mload(0x40)\n      swap1\n      dup2\n      swap1\n      sub\n      0x20\n      add\n      swap1\n      keccak256\n      sload\n      sub(shl(0xa0, 0x01), 0x01)\n      and\n        /* \"TokenSGTX/contracts/LicenciasTaxsClone.sol\":1589:1638  _approvers[_approver] !=  taxpayerAddress(_owner) */\n      sub\n        /* \"TokenSGTX/contracts/LicenciasTaxsClone.sol\":1567:1696  require(... */\n      tag_238\n      jumpi\n      mload(0x40)\n      shl(0xe5, 0x461bcd)\n      dup2\n      mstore\n        /* \"#utility.yul\":10526:10528   */\n      0x20\n        /* \"TokenSGTX/contracts/LicenciasTaxsClone.sol\":1567:1696  require(... */\n      0x04\n      dup3\n      add\n        /* \"#utility.yul\":10508:10529   */\n      mstore\n        /* \"#utility.yul\":10565:10567   */\n      0x1d\n        /* \"#utility.yul\":10545:10563   */\n      0x24\n      dup3\n      add\n        /* \"#utility.yul\":10538:10568   */\n      mstore\n        /* \"#utility.yul\":10604:10635   */\n      0x417070726f7665722063616e6e6f742070726f76652068696d73656c66000000\n        /* \"#utility.yul\":10584:10602   */\n      0x44\n      dup3\n      add\n        /* \"#utility.yul\":10577:10636   */\n      mstore\n        /* \"#utility.yul\":10653:10671   */\n      0x64\n      add\n        /* \"TokenSGTX/contracts/LicenciasTaxsClone.sol\":1567:1696  require(... */\n      tag_122\n        /* \"#utility.yul\":10324:10677   */\n      jump\n        /* \"TokenSGTX/contracts/LicenciasTaxsClone.sol\":1567:1696  require(... */\n    tag_238:\n        /* \"TokenSGTX/contracts/LicenciasTaxsClone.sol\":1709:1728  bytes32 singLicense */\n      0x00\n        /* \"TokenSGTX/contracts/LicenciasTaxsClone.sol\":1731:1894  singLicense(... */\n      tag_241\n        /* \"TokenSGTX/contracts/LicenciasTaxsClone.sol\":1757:1765  _consept */\n      dup8\n        /* \"TokenSGTX/contracts/LicenciasTaxsClone.sol\":1780:1790  identifier */\n      dup5\n        /* \"TokenSGTX/contracts/LicenciasTaxsClone.sol\":1805:1828  taxpayerAddress(_owner) */\n      tag_171\n        /* \"TokenSGTX/contracts/LicenciasTaxsClone.sol\":1821:1827  _owner */\n      dup10\n        /* \"TokenSGTX/contracts/LicenciasTaxsClone.sol\":1805:1820  taxpayerAddress */\n      tag_67\n        /* \"TokenSGTX/contracts/LicenciasTaxsClone.sol\":1805:1828  taxpayerAddress(_owner) */\n      jump\t// in\n        /* \"TokenSGTX/contracts/LicenciasTaxsClone.sol\":1731:1894  singLicense(... */\n    tag_241:\n        /* \"TokenSGTX/contracts/LicenciasTaxsClone.sol\":1709:1894  bytes32 singLicense = singLicense(... */\n      swap1\n      pop\n        /* \"TokenSGTX/contracts/LicenciasTaxsClone.sol\":1907:1940  StructSignature memory objlisense */\n      0x00\n        /* \"TokenSGTX/contracts/LicenciasTaxsClone.sol\":1943:2155  StructSignature(... */\n      mload(0x40)\n      dup1\n      0xe0\n      add\n      0x40\n      mstore\n      dup1\n        /* \"TokenSGTX/contracts/LicenciasTaxsClone.sol\":1973:1981  _consept */\n      dup10\n        /* \"TokenSGTX/contracts/LicenciasTaxsClone.sol\":1943:2155  StructSignature(... */\n      dup2\n      mstore\n      0x20\n      add\n        /* \"TokenSGTX/contracts/LicenciasTaxsClone.sol\":1996:2006  identifier */\n      dup6\n        /* \"TokenSGTX/contracts/LicenciasTaxsClone.sol\":1943:2155  StructSignature(... */\n      dup2\n      mstore\n      0x20\n      add\n        /* \"TokenSGTX/contracts/LicenciasTaxsClone.sol\":2021:2044  taxpayerAddress(_owner) */\n      tag_244\n        /* \"TokenSGTX/contracts/LicenciasTaxsClone.sol\":2037:2043  _owner */\n      dup10\n        /* \"TokenSGTX/contracts/LicenciasTaxsClone.sol\":2021:2036  taxpayerAddress */\n      tag_67\n        /* \"TokenSGTX/contracts/LicenciasTaxsClone.sol\":2021:2044  taxpayerAddress(_owner) */\n      jump\t// in\n    tag_244:\n      sub(shl(0xa0, 0x01), 0x01)\n        /* \"TokenSGTX/contracts/LicenciasTaxsClone.sol\":1943:2155  StructSignature(... */\n      and\n      dup2\n      mstore\n      0x20\n      add\n        /* \"TokenSGTX/contracts/LicenciasTaxsClone.sol\":2059:2063  data */\n      dup7\n        /* \"TokenSGTX/contracts/LicenciasTaxsClone.sol\":1943:2155  StructSignature(... */\n      dup2\n      mstore\n      0x20\n      add\n        /* \"TokenSGTX/contracts/LicenciasTaxsClone.sol\":2078:2088  _approvers */\n      0x06\n        /* \"TokenSGTX/contracts/LicenciasTaxsClone.sol\":2089:2098  _approver */\n      dup9\n        /* \"TokenSGTX/contracts/LicenciasTaxsClone.sol\":2078:2099  _approvers[_approver] */\n      mload(0x40)\n      tag_245\n      swap2\n      swap1\n      tag_173\n      jump\t// in\n    tag_245:\n      swap1\n      dup2\n      mstore\n      0x40\n      dup1\n      mload\n      0x20\n      swap3\n      dup2\n      swap1\n      sub\n      dup4\n      add\n      swap1\n      keccak256\n      sload\n      sub(shl(0xa0, 0x01), 0x01)\n      and\n        /* \"TokenSGTX/contracts/LicenciasTaxsClone.sol\":1943:2155  StructSignature(... */\n      dup4\n      mstore\n      swap1\n      dup3\n      add\n      dup6\n      swap1\n      mstore\n        /* \"TokenSGTX/contracts/LicenciasTaxsClone.sol\":2078:2099  _approvers[_approver] */\n      0x01\n        /* \"TokenSGTX/contracts/LicenciasTaxsClone.sol\":1943:2155  StructSignature(... */\n      swap2\n      add\n      mstore\n        /* \"TokenSGTX/contracts/LicenciasTaxsClone.sol\":1907:2155  StructSignature memory objlisense = StructSignature(... */\n      swap1\n      pop\n        /* \"TokenSGTX/contracts/LicenciasTaxsClone.sol\":2168:2193  _checkLicense(objlisense) */\n      tag_246\n        /* \"TokenSGTX/contracts/LicenciasTaxsClone.sol\":1907:2155  StructSignature memory objlisense = StructSignature(... */\n      dup2\n        /* \"TokenSGTX/contracts/LicenciasTaxsClone.sol\":2168:2181  _checkLicense */\n      tag_247\n        /* \"TokenSGTX/contracts/LicenciasTaxsClone.sol\":2168:2193  _checkLicense(objlisense) */\n      jump\t// in\n    tag_246:\n      pop\n        /* \"TokenSGTX/contracts/LicenciasTaxsClone.sol\":2213:2233  objlisense.signature */\n      0xa0\n      add\n      mload\n      swap8\n        /* \"TokenSGTX/contracts/LicenciasTaxsClone.sol\":1053:2241  function signatureMint(... */\n      swap7\n      pop\n      pop\n      pop\n      pop\n      pop\n      pop\n      pop\n      jump\t// out\n        /* \"TokenSGTX/contracts/LicenciasTaxsClone.sol\":5888:6431  function expirationLicense(... */\n    tag_96:\n        /* \"TokenSGTX/contracts/LicenciasTaxsClone.sol\":8434:8444  msg.sender */\n      caller\n        /* \"TokenSGTX/contracts/LicenciasTaxsClone.sol\":5975:5979  bool */\n      0x00\n        /* \"TokenSGTX/contracts/LicenciasTaxsClone.sol\":8426:8445  _admins[msg.sender] */\n      swap1\n      dup2\n      mstore\n        /* \"TokenSGTX/contracts/LicenciasTaxsClone.sol\":8426:8433  _admins */\n      0x04\n        /* \"TokenSGTX/contracts/LicenciasTaxsClone.sol\":8426:8445  _admins[msg.sender] */\n      0x20\n      mstore\n      0x40\n      dup2\n      keccak256\n      sload\n      0xff\n      and\n        /* \"TokenSGTX/contracts/LicenciasTaxsClone.sol\":8418:8446  require(_admins[msg.sender]) */\n      tag_249\n      jumpi\n      0x00\n      dup1\n      revert\n    tag_249:\n        /* \"TokenSGTX/contracts/LicenciasTaxsClone.sol\":5992:6025  StructSignature memory objlisense */\n      0x00\n        /* \"TokenSGTX/contracts/LicenciasTaxsClone.sol\":6028:6057  _signatureEnabled[singnature] */\n      dup3\n      dup2\n      mstore\n      0x20\n      dup2\n      swap1\n      mstore\n      0x40\n      dup1\n      dup3\n      keccak256\n        /* \"TokenSGTX/contracts/LicenciasTaxsClone.sol\":5992:6057  StructSignature memory objlisense = _signatureEnabled[singnature] */\n      dup2\n      mload\n      0xe0\n      dup2\n      add\n      swap1\n      swap3\n      mstore\n      dup1\n      sload\n      dup3\n      swap1\n        /* \"TokenSGTX/contracts/LicenciasTaxsClone.sol\":6028:6057  _signatureEnabled[singnature] */\n      dup3\n      swap1\n        /* \"TokenSGTX/contracts/LicenciasTaxsClone.sol\":5992:6057  StructSignature memory objlisense = _signatureEnabled[singnature] */\n      tag_251\n      swap1\n      tag_106\n      jump\t// in\n    tag_251:\n      dup1\n      0x1f\n      add\n      0x20\n      dup1\n      swap2\n      div\n      mul\n      0x20\n      add\n      mload(0x40)\n      swap1\n      dup2\n      add\n      0x40\n      mstore\n      dup1\n      swap3\n      swap2\n      swap1\n      dup2\n      dup2\n      mstore\n      0x20\n      add\n      dup3\n      dup1\n      sload\n      tag_252\n      swap1\n      tag_106\n      jump\t// in\n    tag_252:\n      dup1\n      iszero\n      tag_253\n      jumpi\n      dup1\n      0x1f\n      lt\n      tag_254\n      jumpi\n      0x0100\n      dup1\n      dup4\n      sload\n      div\n      mul\n      dup4\n      mstore\n      swap2\n      0x20\n      add\n      swap2\n      jump(tag_253)\n    tag_254:\n      dup3\n      add\n      swap2\n      swap1\n      0x00\n      mstore\n      keccak256(0x00, 0x20)\n      swap1\n    tag_255:\n      dup2\n      sload\n      dup2\n      mstore\n      swap1\n      0x01\n      add\n      swap1\n      0x20\n      add\n      dup1\n      dup4\n      gt\n      tag_255\n      jumpi\n      dup3\n      swap1\n      sub\n      0x1f\n      and\n      dup3\n      add\n      swap2\n    tag_253:\n      pop\n      pop\n      pop\n      pop\n      pop\n      dup2\n      mstore\n      0x20\n      add\n      0x01\n      dup3\n      add\n      dup1\n      sload\n      tag_256\n      swap1\n      tag_106\n      jump\t// in\n    tag_256:\n      dup1\n      0x1f\n      add\n      0x20\n      dup1\n      swap2\n      div\n      mul\n      0x20\n      add\n      mload(0x40)\n      swap1\n      dup2\n      add\n      0x40\n      mstore\n      dup1\n      swap3\n      swap2\n      swap1\n      dup2\n      dup2\n      mstore\n      0x20\n      add\n      dup3\n      dup1\n      sload\n      tag_257\n      swap1\n      tag_106\n      jump\t// in\n    tag_257:\n      dup1\n      iszero\n      tag_258\n      jumpi\n      dup1\n      0x1f\n      lt\n      tag_259\n      jumpi\n      0x0100\n      dup1\n      dup4\n      sload\n      div\n      mul\n      dup4\n      mstore\n      swap2\n      0x20\n      add\n      swap2\n      jump(tag_258)\n    tag_259:\n      dup3\n      add\n      swap2\n      swap1\n      0x00\n      mstore\n      keccak256(0x00, 0x20)\n      swap1\n    tag_260:\n      dup2\n      sload\n      dup2\n      mstore\n      swap1\n      0x01\n      add\n      swap1\n      0x20\n      add\n      dup1\n      dup4\n      gt\n      tag_260\n      jumpi\n      dup3\n      swap1\n      sub\n      0x1f\n      and\n      dup3\n      add\n      swap2\n    tag_258:\n      pop\n      pop\n      pop\n      swap2\n      dup4\n      mstore\n      pop\n      pop\n      0x02\n      dup3\n      add\n      sload\n      sub(shl(0xa0, 0x01), 0x01)\n      and\n      0x20\n      dup3\n      add\n      mstore\n      0x03\n      dup3\n      add\n      dup1\n      sload\n      0x40\n      swap1\n      swap3\n      add\n      swap2\n      tag_261\n      swap1\n      tag_106\n      jump\t// in\n    tag_261:\n      dup1\n      0x1f\n      add\n      0x20\n      dup1\n      swap2\n      div\n      mul\n      0x20\n      add\n      mload(0x40)\n      swap1\n      dup2\n      add\n      0x40\n      mstore\n      dup1\n      swap3\n      swap2\n      swap1\n      dup2\n      dup2\n      mstore\n      0x20\n      add\n      dup3\n      dup1\n      sload\n      tag_262\n      swap1\n      tag_106\n      jump\t// in\n    tag_262:\n      dup1\n      iszero\n      tag_263\n      jumpi\n      dup1\n      0x1f\n      lt\n      tag_264\n      jumpi\n      0x0100\n      dup1\n      dup4\n      sload\n      div\n      mul\n      dup4\n      mstore\n      swap2\n      0x20\n      add\n      swap2\n      jump(tag_263)\n    tag_264:\n      dup3\n      add\n      swap2\n      swap1\n      0x00\n      mstore\n      keccak256(0x00, 0x20)\n      swap1\n    tag_265:\n      dup2\n      sload\n      dup2\n      mstore\n      swap1\n      0x01\n      add\n      swap1\n      0x20\n      add\n      dup1\n      dup4\n      gt\n      tag_265\n      jumpi\n      dup3\n      swap1\n      sub\n      0x1f\n      and\n      dup3\n      add\n      swap2\n    tag_263:\n      pop\n      pop\n      pop\n      swap2\n      dup4\n      mstore\n      pop\n      pop\n      0x04\n      dup3\n      add\n      sload\n      sub(shl(0xa0, 0x01), 0x01)\n      and\n      0x20\n      dup3\n      add\n      mstore\n      0x05\n      dup3\n      add\n      sload\n      0x40\n      dup1\n      dup4\n      add\n      swap2\n      swap1\n      swap2\n      mstore\n      0x06\n      swap1\n      swap3\n      add\n      sload\n      0xff\n      and\n      iszero\n      iszero\n      0x60\n      swap1\n      swap2\n      add\n      mstore\n        /* \"TokenSGTX/contracts/LicenciasTaxsClone.sol\":6095:6111  objlisense.owner */\n      dup2\n      add\n      mload\n        /* \"TokenSGTX/contracts/LicenciasTaxsClone.sol\":5992:6057  StructSignature memory objlisense = _signatureEnabled[singnature] */\n      swap1\n      swap2\n      pop\n        /* \"TokenSGTX/contracts/LicenciasTaxsClone.sol\":6068:6112  _deleteLicense(singnature, objlisense.owner) */\n      tag_266\n      swap1\n        /* \"TokenSGTX/contracts/LicenciasTaxsClone.sol\":6083:6093  singnature */\n      dup5\n      swap1\n        /* \"TokenSGTX/contracts/LicenciasTaxsClone.sol\":6068:6082  _deleteLicense */\n      tag_267\n        /* \"TokenSGTX/contracts/LicenciasTaxsClone.sol\":6068:6112  _deleteLicense(singnature, objlisense.owner) */\n      jump\t// in\n    tag_266:\n        /* \"TokenSGTX/contracts/LicenciasTaxsClone.sol\":6174:6190  objlisense.owner */\n      0x40\n      dup1\n      dup3\n      add\n      mload\n      sub(shl(0xa0, 0x01), 0x01)\n        /* \"TokenSGTX/contracts/LicenciasTaxsClone.sol\":6163:6191  _userSings[objlisense.owner] */\n      and\n        /* \"TokenSGTX/contracts/LicenciasTaxsClone.sol\":6123:6160  bytes32[] memory ownersClientLicenses */\n      0x00\n        /* \"TokenSGTX/contracts/LicenciasTaxsClone.sol\":6163:6191  _userSings[objlisense.owner] */\n      swap1\n      dup2\n      mstore\n        /* \"TokenSGTX/contracts/LicenciasTaxsClone.sol\":6163:6173  _userSings */\n      0x01\n        /* \"TokenSGTX/contracts/LicenciasTaxsClone.sol\":6163:6191  _userSings[objlisense.owner] */\n      0x20\n      swap1\n      dup2\n      mstore\n      dup3\n      dup3\n      keccak256\n        /* \"TokenSGTX/contracts/LicenciasTaxsClone.sol\":6123:6191  bytes32[] memory ownersClientLicenses = _userSings[objlisense.owner] */\n      dup1\n      sload\n      dup5\n      mload\n      dup2\n      dup5\n      mul\n      dup2\n      add\n      dup5\n      add\n      swap1\n      swap6\n      mstore\n      dup1\n      dup6\n      mstore\n        /* \"TokenSGTX/contracts/LicenciasTaxsClone.sol\":6123:6160  bytes32[] memory ownersClientLicenses */\n      swap3\n      swap4\n        /* \"TokenSGTX/contracts/LicenciasTaxsClone.sol\":6123:6191  bytes32[] memory ownersClientLicenses = _userSings[objlisense.owner] */\n      swap3\n        /* \"TokenSGTX/contracts/LicenciasTaxsClone.sol\":6163:6191  _userSings[objlisense.owner] */\n      swap1\n      swap2\n        /* \"TokenSGTX/contracts/LicenciasTaxsClone.sol\":6123:6191  bytes32[] memory ownersClientLicenses = _userSings[objlisense.owner] */\n      dup4\n      add\n        /* \"TokenSGTX/contracts/LicenciasTaxsClone.sol\":6163:6191  _userSings[objlisense.owner] */\n      dup3\n        /* \"TokenSGTX/contracts/LicenciasTaxsClone.sol\":6123:6191  bytes32[] memory ownersClientLicenses = _userSings[objlisense.owner] */\n      dup3\n      dup1\n      iszero\n      tag_268\n      jumpi\n      0x20\n      mul\n      dup3\n      add\n      swap2\n      swap1\n      0x00\n      mstore\n      keccak256(0x00, 0x20)\n      swap1\n    tag_269:\n      dup2\n      sload\n      dup2\n      mstore\n      0x20\n      add\n      swap1\n      0x01\n      add\n      swap1\n      dup1\n      dup4\n      gt\n      tag_269\n      jumpi\n    tag_268:\n      pop\n      pop\n      pop\n      pop\n      pop\n      swap1\n      pop\n        /* \"TokenSGTX/contracts/LicenciasTaxsClone.sol\":6207:6216  uint256 i */\n      0x00\n        /* \"TokenSGTX/contracts/LicenciasTaxsClone.sol\":6202:6402  for (uint256 i = 0; i < ownersClientLicenses.length; i++) {... */\n    tag_270:\n        /* \"TokenSGTX/contracts/LicenciasTaxsClone.sol\":6226:6246  ownersClientLicenses */\n      dup2\n        /* \"TokenSGTX/contracts/LicenciasTaxsClone.sol\":6226:6253  ownersClientLicenses.length */\n      mload\n        /* \"TokenSGTX/contracts/LicenciasTaxsClone.sol\":6222:6223  i */\n      dup2\n        /* \"TokenSGTX/contracts/LicenciasTaxsClone.sol\":6222:6253  i < ownersClientLicenses.length */\n      lt\n        /* \"TokenSGTX/contracts/LicenciasTaxsClone.sol\":6202:6402  for (uint256 i = 0; i < ownersClientLicenses.length; i++) {... */\n      iszero\n      tag_271\n      jumpi\n        /* \"TokenSGTX/contracts/LicenciasTaxsClone.sol\":6306:6316  singnature */\n      dup5\n        /* \"TokenSGTX/contracts/LicenciasTaxsClone.sol\":6279:6299  ownersClientLicenses */\n      dup3\n        /* \"TokenSGTX/contracts/LicenciasTaxsClone.sol\":6300:6301  i */\n      dup3\n        /* \"TokenSGTX/contracts/LicenciasTaxsClone.sol\":6279:6302  ownersClientLicenses[i] */\n      dup2\n      mload\n      dup2\n      lt\n      tag_274\n      jumpi\n      tag_274\n      tag_275\n      jump\t// in\n    tag_274:\n      0x20\n      mul\n      0x20\n      add\n      add\n      mload\n        /* \"TokenSGTX/contracts/LicenciasTaxsClone.sol\":6279:6316  ownersClientLicenses[i] == singnature */\n      sub\n        /* \"TokenSGTX/contracts/LicenciasTaxsClone.sol\":6275:6391  if (ownersClientLicenses[i] == singnature) {... */\n      tag_276\n      jumpi\n        /* \"TokenSGTX/contracts/LicenciasTaxsClone.sol\":6355:6371  objlisense.owner */\n      0x40\n      dup1\n      dup5\n      add\n      mload\n      sub(shl(0xa0, 0x01), 0x01)\n        /* \"TokenSGTX/contracts/LicenciasTaxsClone.sol\":6344:6372  _userSings[objlisense.owner] */\n      and\n      0x00\n      swap1\n      dup2\n      mstore\n        /* \"TokenSGTX/contracts/LicenciasTaxsClone.sol\":6344:6354  _userSings */\n      0x01\n        /* \"TokenSGTX/contracts/LicenciasTaxsClone.sol\":6344:6372  _userSings[objlisense.owner] */\n      0x20\n      mstore\n      keccak256\n        /* \"TokenSGTX/contracts/LicenciasTaxsClone.sol\":6344:6375  _userSings[objlisense.owner][i] */\n      dup1\n      sload\n        /* \"TokenSGTX/contracts/LicenciasTaxsClone.sol\":6373:6374  i */\n      dup3\n      swap1\n        /* \"TokenSGTX/contracts/LicenciasTaxsClone.sol\":6344:6375  _userSings[objlisense.owner][i] */\n      dup2\n      lt\n      tag_278\n      jumpi\n      tag_278\n      tag_275\n      jump\t// in\n    tag_278:\n      0x00\n      swap2\n      dup3\n      mstore\n      0x20\n      dup3\n      keccak256\n      add\n        /* \"TokenSGTX/contracts/LicenciasTaxsClone.sol\":6337:6375  delete _userSings[objlisense.owner][i] */\n      sstore\n        /* \"TokenSGTX/contracts/LicenciasTaxsClone.sol\":6275:6391  if (ownersClientLicenses[i] == singnature) {... */\n    tag_276:\n        /* \"TokenSGTX/contracts/LicenciasTaxsClone.sol\":6255:6258  i++ */\n      dup1\n      tag_280\n      dup2\n      tag_281\n      jump\t// in\n    tag_280:\n      swap2\n      pop\n      pop\n        /* \"TokenSGTX/contracts/LicenciasTaxsClone.sol\":6202:6402  for (uint256 i = 0; i < ownersClientLicenses.length; i++) {... */\n      jump(tag_270)\n    tag_271:\n      pop\n        /* \"TokenSGTX/contracts/LicenciasTaxsClone.sol\":6419:6423  true */\n      0x01\n      swap5\n        /* \"TokenSGTX/contracts/LicenciasTaxsClone.sol\":5888:6431  function expirationLicense(... */\n      swap4\n      pop\n      pop\n      pop\n      pop\n      jump\t// out\n        /* \"TokenSGTX/contracts/LicenciasTaxsClone.sol\":8047:8174  function mintingStop() public isOwner returns (bool) {... */\n    tag_100:\n        /* \"TokenSGTX/contracts/LicenciasTaxsClone.sol\":8327:8332  owner */\n      sload(0x07)\n        /* \"TokenSGTX/contracts/LicenciasTaxsClone.sol\":8094:8098  bool */\n      0x00\n      swap1\n      sub(shl(0xa0, 0x01), 0x01)\n        /* \"TokenSGTX/contracts/LicenciasTaxsClone.sol\":8327:8332  owner */\n      and\n        /* \"TokenSGTX/contracts/LicenciasTaxsClone.sol\":8313:8323  msg.sender */\n      caller\n        /* \"TokenSGTX/contracts/LicenciasTaxsClone.sol\":8313:8332  msg.sender == owner */\n      eq\n        /* \"TokenSGTX/contracts/LicenciasTaxsClone.sol\":8305:8360  require(msg.sender == owner, \"Only Owner can activate\") */\n      tag_283\n      jumpi\n      mload(0x40)\n      shl(0xe5, 0x461bcd)\n      dup2\n      mstore\n      0x04\n      add\n      tag_122\n      swap1\n      tag_161\n      jump\t// in\n    tag_283:\n      pop\n        /* \"TokenSGTX/contracts/LicenciasTaxsClone.sol\":8126:8137  stopMinting */\n      0x07\n      dup1\n      sload\n      0xff\n      shl(0xa0, 0x01)\n      dup1\n      dup4\n      div\n      dup3\n      and\n        /* \"TokenSGTX/contracts/LicenciasTaxsClone.sol\":8125:8137  !stopMinting */\n      iszero\n        /* \"TokenSGTX/contracts/LicenciasTaxsClone.sol\":8111:8137  stopMinting = !stopMinting */\n      dup2\n      mul\n      not(shl(0xa0, 0xff))\n      swap1\n      swap4\n      and\n      swap3\n      swap1\n      swap3\n      or\n      swap3\n      dup4\n      swap1\n      sstore\n        /* \"TokenSGTX/contracts/LicenciasTaxsClone.sol\":8155:8166  stopMinting */\n      swap2\n      div\n      and\n        /* \"TokenSGTX/contracts/LicenciasTaxsClone.sol\":8047:8174  function mintingStop() public isOwner returns (bool) {... */\n      swap1\n      jump\t// out\n        /* \"TokenSGTX/contracts/LicenciasTaxsClone.sol\":3500:3866  function singLicense(... */\n    tag_174:\n        /* \"TokenSGTX/contracts/LicenciasTaxsClone.sol\":8327:8332  owner */\n      sload(0x07)\n        /* \"TokenSGTX/contracts/LicenciasTaxsClone.sol\":3713:3720  bytes32 */\n      0x00\n      swap1\n      sub(shl(0xa0, 0x01), 0x01)\n        /* \"TokenSGTX/contracts/LicenciasTaxsClone.sol\":8327:8332  owner */\n      and\n        /* \"TokenSGTX/contracts/LicenciasTaxsClone.sol\":8313:8323  msg.sender */\n      caller\n        /* \"TokenSGTX/contracts/LicenciasTaxsClone.sol\":8313:8332  msg.sender == owner */\n      eq\n        /* \"TokenSGTX/contracts/LicenciasTaxsClone.sol\":8305:8360  require(msg.sender == owner, \"Only Owner can activate\") */\n      tag_287\n      jumpi\n      mload(0x40)\n      shl(0xe5, 0x461bcd)\n      dup2\n      mstore\n      0x04\n      add\n      tag_122\n      swap1\n      tag_161\n      jump\t// in\n    tag_287:\n        /* \"TokenSGTX/contracts/LicenciasTaxsClone.sol\":3792:3800  _consept */\n      dup6\n        /* \"TokenSGTX/contracts/LicenciasTaxsClone.sol\":3802:3813  _identifier */\n      dup6\n        /* \"TokenSGTX/contracts/LicenciasTaxsClone.sol\":3815:3824  _taxPayer */\n      dup6\n        /* \"TokenSGTX/contracts/LicenciasTaxsClone.sol\":3826:3831  _data */\n      dup6\n        /* \"TokenSGTX/contracts/LicenciasTaxsClone.sol\":3833:3842  _aprrover */\n      dup6\n        /* \"TokenSGTX/contracts/LicenciasTaxsClone.sol\":3781:3843  abi.encode(_consept, _identifier, _taxPayer, _data, _aprrover) */\n      add(0x20, mload(0x40))\n      tag_290\n      swap6\n      swap5\n      swap4\n      swap3\n      swap2\n      swap1\n      tag_291\n      jump\t// in\n    tag_290:\n      mload(0x40)\n      0x20\n      dup2\n      dup4\n      sub\n      sub\n      dup2\n      mstore\n      swap1\n      0x40\n      mstore\n        /* \"TokenSGTX/contracts/LicenciasTaxsClone.sol\":3753:3858  keccak256(... */\n      dup1\n      mload\n      swap1\n      0x20\n      add\n      keccak256\n        /* \"TokenSGTX/contracts/LicenciasTaxsClone.sol\":3733:3858  return... */\n      swap1\n      pop\n        /* \"TokenSGTX/contracts/LicenciasTaxsClone.sol\":3500:3866  function singLicense(... */\n      swap6\n      swap5\n      pop\n      pop\n      pop\n      pop\n      pop\n      jump\t// out\n        /* \"TokenSGTX/contracts/LicenciasTaxsClone.sol\":3874:4846  function _checkLicense(... */\n    tag_247:\n        /* \"TokenSGTX/contracts/LicenciasTaxsClone.sol\":8327:8332  owner */\n      sload(0x07)\n        /* \"TokenSGTX/contracts/LicenciasTaxsClone.sol\":3977:3981  bool */\n      0x00\n      swap1\n      sub(shl(0xa0, 0x01), 0x01)\n        /* \"TokenSGTX/contracts/LicenciasTaxsClone.sol\":8327:8332  owner */\n      and\n        /* \"TokenSGTX/contracts/LicenciasTaxsClone.sol\":8313:8323  msg.sender */\n      caller\n        /* \"TokenSGTX/contracts/LicenciasTaxsClone.sol\":8313:8332  msg.sender == owner */\n      eq\n        /* \"TokenSGTX/contracts/LicenciasTaxsClone.sol\":8305:8360  require(msg.sender == owner, \"Only Owner can activate\") */\n      tag_293\n      jumpi\n      mload(0x40)\n      shl(0xe5, 0x461bcd)\n      dup2\n      mstore\n      0x04\n      add\n      tag_122\n      swap1\n      tag_161\n      jump\t// in\n    tag_293:\n        /* \"TokenSGTX/contracts/LicenciasTaxsClone.sol\":4062:4086  _objectLicense.signature */\n      0xa0\n      dup3\n      add\n      mload\n        /* \"TokenSGTX/contracts/LicenciasTaxsClone.sol\":3994:4027  StructSignature memory objlisense */\n      0x00\n        /* \"TokenSGTX/contracts/LicenciasTaxsClone.sol\":4030:4097  _signatureEnabled[... */\n      swap1\n      dup2\n      mstore\n      0x20\n      dup2\n      swap1\n      mstore\n      0x40\n      dup1\n      dup3\n      keccak256\n        /* \"TokenSGTX/contracts/LicenciasTaxsClone.sol\":3994:4097  StructSignature memory objlisense = _signatureEnabled[... */\n      dup2\n      mload\n      0xe0\n      dup2\n      add\n      swap1\n      swap3\n      mstore\n      dup1\n      sload\n      dup3\n      swap1\n        /* \"TokenSGTX/contracts/LicenciasTaxsClone.sol\":4030:4097  _signatureEnabled[... */\n      dup3\n      swap1\n        /* \"TokenSGTX/contracts/LicenciasTaxsClone.sol\":3994:4097  StructSignature memory objlisense = _signatureEnabled[... */\n      tag_296\n      swap1\n      tag_106\n      jump\t// in\n    tag_296:\n      dup1\n      0x1f\n      add\n      0x20\n      dup1\n      swap2\n      div\n      mul\n      0x20\n      add\n      mload(0x40)\n      swap1\n      dup2\n      add\n      0x40\n      mstore\n      dup1\n      swap3\n      swap2\n      swap1\n      dup2\n      dup2\n      mstore\n      0x20\n      add\n      dup3\n      dup1\n      sload\n      tag_297\n      swap1\n      tag_106\n      jump\t// in\n    tag_297:\n      dup1\n      iszero\n      tag_298\n      jumpi\n      dup1\n      0x1f\n      lt\n      tag_299\n      jumpi\n      0x0100\n      dup1\n      dup4\n      sload\n      div\n      mul\n      dup4\n      mstore\n      swap2\n      0x20\n      add\n      swap2\n      jump(tag_298)\n    tag_299:\n      dup3\n      add\n      swap2\n      swap1\n      0x00\n      mstore\n      keccak256(0x00, 0x20)\n      swap1\n    tag_300:\n      dup2\n      sload\n      dup2\n      mstore\n      swap1\n      0x01\n      add\n      swap1\n      0x20\n      add\n      dup1\n      dup4\n      gt\n      tag_300\n      jumpi\n      dup3\n      swap1\n      sub\n      0x1f\n      and\n      dup3\n      add\n      swap2\n    tag_298:\n      pop\n      pop\n      pop\n      pop\n      pop\n      dup2\n      mstore\n      0x20\n      add\n      0x01\n      dup3\n      add\n      dup1\n      sload\n      tag_301\n      swap1\n      tag_106\n      jump\t// in\n    tag_301:\n      dup1\n      0x1f\n      add\n      0x20\n      dup1\n      swap2\n      div\n      mul\n      0x20\n      add\n      mload(0x40)\n      swap1\n      dup2\n      add\n      0x40\n      mstore\n      dup1\n      swap3\n      swap2\n      swap1\n      dup2\n      dup2\n      mstore\n      0x20\n      add\n      dup3\n      dup1\n      sload\n      tag_302\n      swap1\n      tag_106\n      jump\t// in\n    tag_302:\n      dup1\n      iszero\n      tag_303\n      jumpi\n      dup1\n      0x1f\n      lt\n      tag_304\n      jumpi\n      0x0100\n      dup1\n      dup4\n      sload\n      div\n      mul\n      dup4\n      mstore\n      swap2\n      0x20\n      add\n      swap2\n      jump(tag_303)\n    tag_304:\n      dup3\n      add\n      swap2\n      swap1\n      0x00\n      mstore\n      keccak256(0x00, 0x20)\n      swap1\n    tag_305:\n      dup2\n      sload\n      dup2\n      mstore\n      swap1\n      0x01\n      add\n      swap1\n      0x20\n      add\n      dup1\n      dup4\n      gt\n      tag_305\n      jumpi\n      dup3\n      swap1\n      sub\n      0x1f\n      and\n      dup3\n      add\n      swap2\n    tag_303:\n      pop\n      pop\n      pop\n      swap2\n      dup4\n      mstore\n      pop\n      pop\n      0x02\n      dup3\n      add\n      sload\n      sub(shl(0xa0, 0x01), 0x01)\n      and\n      0x20\n      dup3\n      add\n      mstore\n      0x03\n      dup3\n      add\n      dup1\n      sload\n      0x40\n      swap1\n      swap3\n      add\n      swap2\n      tag_306\n      swap1\n      tag_106\n      jump\t// in\n    tag_306:\n      dup1\n      0x1f\n      add\n      0x20\n      dup1\n      swap2\n      div\n      mul\n      0x20\n      add\n      mload(0x40)\n      swap1\n      dup2\n      add\n      0x40\n      mstore\n      dup1\n      swap3\n      swap2\n      swap1\n      dup2\n      dup2\n      mstore\n      0x20\n      add\n      dup3\n      dup1\n      sload\n      tag_307\n      swap1\n      tag_106\n      jump\t// in\n    tag_307:\n      dup1\n      iszero\n      tag_308\n      jumpi\n      dup1\n      0x1f\n      lt\n      tag_309\n      jumpi\n      0x0100\n      dup1\n      dup4\n      sload\n      div\n      mul\n      dup4\n      mstore\n      swap2\n      0x20\n      add\n      swap2\n      jump(tag_308)\n    tag_309:\n      dup3\n      add\n      swap2\n      swap1\n      0x00\n      mstore\n      keccak256(0x00, 0x20)\n      swap1\n    tag_310:\n      dup2\n      sload\n      dup2\n      mstore\n      swap1\n      0x01\n      add\n      swap1\n      0x20\n      add\n      dup1\n      dup4\n      gt\n      tag_310\n      jumpi\n      dup3\n      swap1\n      sub\n      0x1f\n      and\n      dup3\n      add\n      swap2\n    tag_308:\n      pop\n      pop\n      pop\n      swap2\n      dup4\n      mstore\n      pop\n      pop\n      0x04\n      dup3\n      add\n      sload\n      sub(shl(0xa0, 0x01), 0x01)\n      and\n      0x20\n      dup3\n      add\n      mstore\n      0x05\n      dup3\n      add\n      sload\n      0x40\n      dup3\n      add\n      mstore\n      0x06\n      swap1\n      swap2\n      add\n      sload\n      0xff\n      and\n      iszero\n      iszero\n      0x60\n      swap1\n      swap2\n      add\n      mstore\n        /* \"TokenSGTX/contracts/LicenciasTaxsClone.sol\":4114:4133  objlisense.isEntity */\n      0xc0\n      dup2\n      add\n      mload\n        /* \"TokenSGTX/contracts/LicenciasTaxsClone.sol\":3994:4097  StructSignature memory objlisense = _signatureEnabled[... */\n      swap1\n      swap2\n      pop\n        /* \"TokenSGTX/contracts/LicenciasTaxsClone.sol\":4114:4141  objlisense.isEntity == true */\n      iszero\n      iszero\n        /* \"TokenSGTX/contracts/LicenciasTaxsClone.sol\":3994:4097  StructSignature memory objlisense = _signatureEnabled[... */\n      0x01\n        /* \"TokenSGTX/contracts/LicenciasTaxsClone.sol\":4114:4141  objlisense.isEntity == true */\n      sub\n        /* \"TokenSGTX/contracts/LicenciasTaxsClone.sol\":4110:4201  if (objlisense.isEntity == true) {... */\n      tag_311\n      jumpi\n        /* \"TokenSGTX/contracts/LicenciasTaxsClone.sol\":4158:4189  revert(\"License Alredy Exists\") */\n      mload(0x40)\n      shl(0xe5, 0x461bcd)\n      dup2\n      mstore\n        /* \"#utility.yul\":12005:12007   */\n      0x20\n        /* \"TokenSGTX/contracts/LicenciasTaxsClone.sol\":4158:4189  revert(\"License Alredy Exists\") */\n      0x04\n      dup3\n      add\n        /* \"#utility.yul\":11987:12008   */\n      mstore\n        /* \"#utility.yul\":12044:12046   */\n      0x15\n        /* \"#utility.yul\":12024:12042   */\n      0x24\n      dup3\n      add\n        /* \"#utility.yul\":12017:12047   */\n      mstore\n      shl(0x58, 0x4c6963656e736520416c7265647920457869737473)\n        /* \"#utility.yul\":12063:12081   */\n      0x44\n      dup3\n      add\n        /* \"#utility.yul\":12056:12107   */\n      mstore\n        /* \"#utility.yul\":12124:12142   */\n      0x64\n      add\n        /* \"TokenSGTX/contracts/LicenciasTaxsClone.sol\":4158:4189  revert(\"License Alredy Exists\") */\n      tag_122\n        /* \"#utility.yul\":11803:12148   */\n      jump\n        /* \"TokenSGTX/contracts/LicenciasTaxsClone.sol\":4110:4201  if (objlisense.isEntity == true) {... */\n    tag_311:\n        /* \"TokenSGTX/contracts/LicenciasTaxsClone.sol\":4278:4298  _objectLicense.owner */\n      0x40\n      dup1\n      dup5\n      add\n      mload\n      sub(shl(0xa0, 0x01), 0x01)\n        /* \"TokenSGTX/contracts/LicenciasTaxsClone.sol\":4253:4309  _userSings[... */\n      and\n        /* \"TokenSGTX/contracts/LicenciasTaxsClone.sol\":4213:4250  bytes32[] memory ownersClientLicenses */\n      0x00\n        /* \"TokenSGTX/contracts/LicenciasTaxsClone.sol\":4253:4309  _userSings[... */\n      swap1\n      dup2\n      mstore\n        /* \"TokenSGTX/contracts/LicenciasTaxsClone.sol\":4253:4263  _userSings */\n      0x01\n        /* \"TokenSGTX/contracts/LicenciasTaxsClone.sol\":4253:4309  _userSings[... */\n      0x20\n      swap1\n      dup2\n      mstore\n      dup3\n      dup3\n      keccak256\n        /* \"TokenSGTX/contracts/LicenciasTaxsClone.sol\":4213:4309  bytes32[] memory ownersClientLicenses = _userSings[... */\n      dup1\n      sload\n      dup5\n      mload\n      dup2\n      dup5\n      mul\n      dup2\n      add\n      dup5\n      add\n      swap1\n      swap6\n      mstore\n      dup1\n      dup6\n      mstore\n        /* \"TokenSGTX/contracts/LicenciasTaxsClone.sol\":4213:4250  bytes32[] memory ownersClientLicenses */\n      swap3\n      swap4\n        /* \"TokenSGTX/contracts/LicenciasTaxsClone.sol\":4213:4309  bytes32[] memory ownersClientLicenses = _userSings[... */\n      swap3\n        /* \"TokenSGTX/contracts/LicenciasTaxsClone.sol\":4253:4309  _userSings[... */\n      swap1\n      swap2\n        /* \"TokenSGTX/contracts/LicenciasTaxsClone.sol\":4213:4309  bytes32[] memory ownersClientLicenses = _userSings[... */\n      dup4\n      add\n        /* \"TokenSGTX/contracts/LicenciasTaxsClone.sol\":4253:4309  _userSings[... */\n      dup3\n        /* \"TokenSGTX/contracts/LicenciasTaxsClone.sol\":4213:4309  bytes32[] memory ownersClientLicenses = _userSings[... */\n      dup3\n      dup1\n      iszero\n      tag_314\n      jumpi\n      0x20\n      mul\n      dup3\n      add\n      swap2\n      swap1\n      0x00\n      mstore\n      keccak256(0x00, 0x20)\n      swap1\n    tag_315:\n      dup2\n      sload\n      dup2\n      mstore\n      0x20\n      add\n      swap1\n      0x01\n      add\n      swap1\n      dup1\n      dup4\n      gt\n      tag_315\n      jumpi\n    tag_314:\n      pop\n      pop\n      pop\n      pop\n      pop\n      swap1\n      pop\n        /* \"TokenSGTX/contracts/LicenciasTaxsClone.sol\":4325:4334  uint256 i */\n      0x00\n        /* \"TokenSGTX/contracts/LicenciasTaxsClone.sol\":4320:4772  for (uint256 i = 0; i < ownersClientLicenses.length; i++) {... */\n    tag_316:\n        /* \"TokenSGTX/contracts/LicenciasTaxsClone.sol\":4344:4364  ownersClientLicenses */\n      dup2\n        /* \"TokenSGTX/contracts/LicenciasTaxsClone.sol\":4344:4371  ownersClientLicenses.length */\n      mload\n        /* \"TokenSGTX/contracts/LicenciasTaxsClone.sol\":4340:4341  i */\n      dup2\n        /* \"TokenSGTX/contracts/LicenciasTaxsClone.sol\":4340:4371  i < ownersClientLicenses.length */\n      lt\n        /* \"TokenSGTX/contracts/LicenciasTaxsClone.sol\":4320:4772  for (uint256 i = 0; i < ownersClientLicenses.length; i++) {... */\n      iszero\n      tag_317\n      jumpi\n        /* \"TokenSGTX/contracts/LicenciasTaxsClone.sol\":4406:4423  _signatureEnabled */\n      0x00\n        /* \"TokenSGTX/contracts/LicenciasTaxsClone.sol\":4406:4448  _signatureEnabled[ownersClientLicenses[i]] */\n      dup1\n        /* \"TokenSGTX/contracts/LicenciasTaxsClone.sol\":4424:4444  ownersClientLicenses */\n      dup4\n        /* \"TokenSGTX/contracts/LicenciasTaxsClone.sol\":4445:4446  i */\n      dup4\n        /* \"TokenSGTX/contracts/LicenciasTaxsClone.sol\":4424:4447  ownersClientLicenses[i] */\n      dup2\n      mload\n      dup2\n      lt\n      tag_320\n      jumpi\n      tag_320\n      tag_275\n      jump\t// in\n    tag_320:\n      0x20\n      mul\n      0x20\n      add\n      add\n      mload\n        /* \"TokenSGTX/contracts/LicenciasTaxsClone.sol\":4406:4448  _signatureEnabled[ownersClientLicenses[i]] */\n      dup2\n      mstore\n      0x20\n      add\n      swap1\n      dup2\n      mstore\n      0x20\n      add\n      0x00\n      keccak256\n        /* \"TokenSGTX/contracts/LicenciasTaxsClone.sol\":4393:4448  objlisense = _signatureEnabled[ownersClientLicenses[i]] */\n      mload(0x40)\n      dup1\n      0xe0\n      add\n      0x40\n      mstore\n      swap1\n      dup2\n      0x00\n      dup3\n      add\n      dup1\n      sload\n      tag_321\n      swap1\n      tag_106\n      jump\t// in\n    tag_321:\n      dup1\n      0x1f\n      add\n      0x20\n      dup1\n      swap2\n      div\n      mul\n      0x20\n      add\n      mload(0x40)\n      swap1\n      dup2\n      add\n      0x40\n      mstore\n      dup1\n      swap3\n      swap2\n      swap1\n      dup2\n      dup2\n      mstore\n      0x20\n      add\n      dup3\n      dup1\n      sload\n      tag_322\n      swap1\n      tag_106\n      jump\t// in\n    tag_322:\n      dup1\n      iszero\n      tag_323\n      jumpi\n      dup1\n      0x1f\n      lt\n      tag_324\n      jumpi\n      0x0100\n      dup1\n      dup4\n      sload\n      div\n      mul\n      dup4\n      mstore\n      swap2\n      0x20\n      add\n      swap2\n      jump(tag_323)\n    tag_324:\n      dup3\n      add\n      swap2\n      swap1\n      0x00\n      mstore\n      keccak256(0x00, 0x20)\n      swap1\n    tag_325:\n      dup2\n      sload\n      dup2\n      mstore\n      swap1\n      0x01\n      add\n      swap1\n      0x20\n      add\n      dup1\n      dup4\n      gt\n      tag_325\n      jumpi\n      dup3\n      swap1\n      sub\n      0x1f\n      and\n      dup3\n      add\n      swap2\n    tag_323:\n      pop\n      pop\n      pop\n      pop\n      pop\n      dup2\n      mstore\n      0x20\n      add\n      0x01\n      dup3\n      add\n      dup1\n      sload\n      tag_326\n      swap1\n      tag_106\n      jump\t// in\n    tag_326:\n      dup1\n      0x1f\n      add\n      0x20\n      dup1\n      swap2\n      div\n      mul\n      0x20\n      add\n      mload(0x40)\n      swap1\n      dup2\n      add\n      0x40\n      mstore\n      dup1\n      swap3\n      swap2\n      swap1\n      dup2\n      dup2\n      mstore\n      0x20\n      add\n      dup3\n      dup1\n      sload\n      tag_327\n      swap1\n      tag_106\n      jump\t// in\n    tag_327:\n      dup1\n      iszero\n      tag_328\n      jumpi\n      dup1\n      0x1f\n      lt\n      tag_329\n      jumpi\n      0x0100\n      dup1\n      dup4\n      sload\n      div\n      mul\n      dup4\n      mstore\n      swap2\n      0x20\n      add\n      swap2\n      jump(tag_328)\n    tag_329:\n      dup3\n      add\n      swap2\n      swap1\n      0x00\n      mstore\n      keccak256(0x00, 0x20)\n      swap1\n    tag_330:\n      dup2\n      sload\n      dup2\n      mstore\n      swap1\n      0x01\n      add\n      swap1\n      0x20\n      add\n      dup1\n      dup4\n      gt\n      tag_330\n      jumpi\n      dup3\n      swap1\n      sub\n      0x1f\n      and\n      dup3\n      add\n      swap2\n    tag_328:\n      pop\n      pop\n      pop\n      swap2\n      dup4\n      mstore\n      pop\n      pop\n      0x02\n      dup3\n      add\n      sload\n      sub(shl(0xa0, 0x01), 0x01)\n      and\n      0x20\n      dup3\n      add\n      mstore\n      0x03\n      dup3\n      add\n      dup1\n      sload\n      0x40\n      swap1\n      swap3\n      add\n      swap2\n      tag_331\n      swap1\n      tag_106\n      jump\t// in\n    tag_331:\n      dup1\n      0x1f\n      add\n      0x20\n      dup1\n      swap2\n      div\n      mul\n      0x20\n      add\n      mload(0x40)\n      swap1\n      dup2\n      add\n      0x40\n      mstore\n      dup1\n      swap3\n      swap2\n      swap1\n      dup2\n      dup2\n      mstore\n      0x20\n      add\n      dup3\n      dup1\n      sload\n      tag_332\n      swap1\n      tag_106\n      jump\t// in\n    tag_332:\n      dup1\n      iszero\n      tag_333\n      jumpi\n      dup1\n      0x1f\n      lt\n      tag_334\n      jumpi\n      0x0100\n      dup1\n      dup4\n      sload\n      div\n      mul\n      dup4\n      mstore\n      swap2\n      0x20\n      add\n      swap2\n      jump(tag_333)\n    tag_334:\n      dup3\n      add\n      swap2\n      swap1\n      0x00\n      mstore\n      keccak256(0x00, 0x20)\n      swap1\n    tag_335:\n      dup2\n      sload\n      dup2\n      mstore\n      swap1\n      0x01\n      add\n      swap1\n      0x20\n      add\n      dup1\n      dup4\n      gt\n      tag_335\n      jumpi\n      dup3\n      swap1\n      sub\n      0x1f\n      and\n      dup3\n      add\n      swap2\n    tag_333:\n      pop\n      pop\n      pop\n      swap2\n      dup4\n      mstore\n      pop\n      pop\n      0x04\n      dup3\n      add\n      sload\n      sub(shl(0xa0, 0x01), 0x01)\n      and\n      0x20\n      dup1\n      dup4\n      add\n      swap2\n      swap1\n      swap2\n      mstore\n      0x05\n      dup4\n      add\n      sload\n      0x40\n      dup4\n      add\n      mstore\n      0x06\n      swap1\n      swap3\n      add\n      sload\n      0xff\n      and\n      iszero\n      iszero\n      0x60\n      swap1\n      swap2\n      add\n      mstore\n        /* \"TokenSGTX/contracts/LicenciasTaxsClone.sol\":4561:4586  _objectLicense.identifier */\n      dup7\n      dup2\n      add\n      mload\n        /* \"TokenSGTX/contracts/LicenciasTaxsClone.sol\":4545:4588  keccak256(bytes(_objectLicense.identifier)) */\n      dup1\n      mload\n      swap1\n      dup3\n      add\n      keccak256\n        /* \"TokenSGTX/contracts/LicenciasTaxsClone.sol\":4501:4522  objlisense.identifier */\n      dup3\n      dup3\n      add\n      mload\n        /* \"TokenSGTX/contracts/LicenciasTaxsClone.sol\":4485:4524  keccak256(bytes(objlisense.identifier)) */\n      dup1\n      mload\n      swap3\n      add\n      swap2\n      swap1\n      swap2\n      keccak256\n        /* \"TokenSGTX/contracts/LicenciasTaxsClone.sol\":4393:4448  objlisense = _signatureEnabled[ownersClientLicenses[i]] */\n      swap2\n      swap5\n      pop\n        /* \"TokenSGTX/contracts/LicenciasTaxsClone.sol\":4485:4588  keccak256(bytes(objlisense.identifier)) ==... */\n      swap1\n      sub\n        /* \"TokenSGTX/contracts/LicenciasTaxsClone.sol\":4463:4761  if (... */\n      tag_336\n      jumpi\n        /* \"TokenSGTX/contracts/LicenciasTaxsClone.sol\":4623:4684  _deleteLicense(ownersClientLicenses[i], _objectLicense.owner) */\n      tag_337\n        /* \"TokenSGTX/contracts/LicenciasTaxsClone.sol\":4638:4658  ownersClientLicenses */\n      dup3\n        /* \"TokenSGTX/contracts/LicenciasTaxsClone.sol\":4659:4660  i */\n      dup3\n        /* \"TokenSGTX/contracts/LicenciasTaxsClone.sol\":4638:4661  ownersClientLicenses[i] */\n      dup2\n      mload\n      dup2\n      lt\n      tag_339\n      jumpi\n      tag_339\n      tag_275\n      jump\t// in\n    tag_339:\n      0x20\n      mul\n      0x20\n      add\n      add\n      mload\n        /* \"TokenSGTX/contracts/LicenciasTaxsClone.sol\":4663:4677  _objectLicense */\n      dup7\n        /* \"TokenSGTX/contracts/LicenciasTaxsClone.sol\":4663:4683  _objectLicense.owner */\n      0x40\n      add\n      mload\n        /* \"TokenSGTX/contracts/LicenciasTaxsClone.sol\":4623:4637  _deleteLicense */\n      tag_267\n        /* \"TokenSGTX/contracts/LicenciasTaxsClone.sol\":4623:4684  _deleteLicense(ownersClientLicenses[i], _objectLicense.owner) */\n      jump\t// in\n    tag_337:\n        /* \"TokenSGTX/contracts/LicenciasTaxsClone.sol\":4721:4741  _objectLicense.owner */\n      0x40\n      dup1\n      dup7\n      add\n      mload\n      sub(shl(0xa0, 0x01), 0x01)\n        /* \"TokenSGTX/contracts/LicenciasTaxsClone.sol\":4710:4742  _userSings[_objectLicense.owner] */\n      and\n      0x00\n      swap1\n      dup2\n      mstore\n        /* \"TokenSGTX/contracts/LicenciasTaxsClone.sol\":4710:4720  _userSings */\n      0x01\n        /* \"TokenSGTX/contracts/LicenciasTaxsClone.sol\":4710:4742  _userSings[_objectLicense.owner] */\n      0x20\n      mstore\n      keccak256\n        /* \"TokenSGTX/contracts/LicenciasTaxsClone.sol\":4710:4745  _userSings[_objectLicense.owner][i] */\n      dup1\n      sload\n        /* \"TokenSGTX/contracts/LicenciasTaxsClone.sol\":4743:4744  i */\n      dup3\n      swap1\n        /* \"TokenSGTX/contracts/LicenciasTaxsClone.sol\":4710:4745  _userSings[_objectLicense.owner][i] */\n      dup2\n      lt\n      tag_341\n      jumpi\n      tag_341\n      tag_275\n      jump\t// in\n    tag_341:\n      0x00\n      swap2\n      dup3\n      mstore\n      0x20\n      dup3\n      keccak256\n      add\n        /* \"TokenSGTX/contracts/LicenciasTaxsClone.sol\":4703:4745  delete _userSings[_objectLicense.owner][i] */\n      sstore\n        /* \"TokenSGTX/contracts/LicenciasTaxsClone.sol\":4463:4761  if (... */\n    tag_336:\n        /* \"TokenSGTX/contracts/LicenciasTaxsClone.sol\":4373:4376  i++ */\n      dup1\n      tag_343\n      dup2\n      tag_281\n      jump\t// in\n    tag_343:\n      swap2\n      pop\n      pop\n        /* \"TokenSGTX/contracts/LicenciasTaxsClone.sol\":4320:4772  for (uint256 i = 0; i < ownersClientLicenses.length; i++) {... */\n      jump(tag_316)\n    tag_317:\n      pop\n        /* \"TokenSGTX/contracts/LicenciasTaxsClone.sol\":4784:4814  _createLicense(_objectLicense) */\n      tag_344\n        /* \"TokenSGTX/contracts/LicenciasTaxsClone.sol\":4799:4813  _objectLicense */\n      dup5\n        /* \"TokenSGTX/contracts/LicenciasTaxsClone.sol\":4784:4798  _createLicense */\n      tag_345\n        /* \"TokenSGTX/contracts/LicenciasTaxsClone.sol\":4784:4814  _createLicense(_objectLicense) */\n      jump\t// in\n    tag_344:\n      pop\n        /* \"TokenSGTX/contracts/LicenciasTaxsClone.sol\":4834:4838  true */\n      0x01\n      swap4\n        /* \"TokenSGTX/contracts/LicenciasTaxsClone.sol\":3874:4846  function _checkLicense(... */\n      swap3\n      pop\n      pop\n      pop\n      jump\t// out\n        /* \"TokenSGTX/contracts/LicenciasTaxsClone.sol\":5708:5880  function _deleteLicense(bytes32 sing, address _owner) private isAdmin() {... */\n    tag_267:\n        /* \"TokenSGTX/contracts/LicenciasTaxsClone.sol\":8434:8444  msg.sender */\n      caller\n        /* \"TokenSGTX/contracts/LicenciasTaxsClone.sol\":8426:8445  _admins[msg.sender] */\n      0x00\n      swap1\n      dup2\n      mstore\n        /* \"TokenSGTX/contracts/LicenciasTaxsClone.sol\":8426:8433  _admins */\n      0x04\n        /* \"TokenSGTX/contracts/LicenciasTaxsClone.sol\":8426:8445  _admins[msg.sender] */\n      0x20\n      mstore\n      0x40\n      swap1\n      keccak256\n      sload\n      0xff\n      and\n        /* \"TokenSGTX/contracts/LicenciasTaxsClone.sol\":8418:8446  require(_admins[msg.sender]) */\n      tag_347\n      jumpi\n      0x00\n      dup1\n      revert\n    tag_347:\n        /* \"TokenSGTX/contracts/LicenciasTaxsClone.sol\":5798:5815  _signatureEnabled */\n      0x00\n        /* \"TokenSGTX/contracts/LicenciasTaxsClone.sol\":5798:5821  _signatureEnabled[sing] */\n      dup3\n      dup2\n      mstore\n      0x20\n      dup2\n      swap1\n      mstore\n      0x40\n      dup2\n      keccak256\n      swap1\n        /* \"TokenSGTX/contracts/LicenciasTaxsClone.sol\":5791:5821  delete _signatureEnabled[sing] */\n      tag_349\n        /* \"TokenSGTX/contracts/LicenciasTaxsClone.sol\":5798:5821  _signatureEnabled[sing] */\n      dup3\n        /* \"TokenSGTX/contracts/LicenciasTaxsClone.sol\":5798:5815  _signatureEnabled */\n      dup3\n        /* \"TokenSGTX/contracts/LicenciasTaxsClone.sol\":5791:5821  delete _signatureEnabled[sing] */\n      tag_350\n      jump\t// in\n    tag_349:\n      tag_351\n      0x01\n      dup4\n      add\n      0x00\n      tag_350\n      jump\t// in\n    tag_351:\n      0x02\n      dup3\n      add\n      dup1\n      sload\n      not(sub(shl(0xa0, 0x01), 0x01))\n      and\n      swap1\n      sstore\n      tag_352\n      0x03\n      dup4\n      add\n      0x00\n      tag_350\n      jump\t// in\n    tag_352:\n      pop\n      0x04\n      dup2\n      add\n      dup1\n      sload\n      not(sub(shl(0xa0, 0x01), 0x01))\n      and\n      swap1\n      sstore\n      0x00\n      0x05\n      dup3\n      add\n      sstore\n      0x06\n      add\n      dup1\n      sload\n      not(0xff)\n      and\n      swap1\n      sstore\n        /* \"TokenSGTX/contracts/LicenciasTaxsClone.sol\":5837:5872  eventSignatureExpired(_owner, sing) */\n      mload(0x40)\n        /* \"#utility.yul\":6293:6318   */\n      dup3\n      dup2\n      mstore\n      sub(shl(0xa0, 0x01), 0x01)\n        /* \"TokenSGTX/contracts/LicenciasTaxsClone.sol\":5837:5872  eventSignatureExpired(_owner, sing) */\n      dup3\n      and\n      swap1\n      0xfba9aeb04fd7e91a1cb29583e8d8bb97d3874361cc1f0b29f6e33f6d3047d8cf\n      swap1\n        /* \"#utility.yul\":6281:6283   */\n      0x20\n        /* \"#utility.yul\":6266:6284   */\n      add\n        /* \"TokenSGTX/contracts/LicenciasTaxsClone.sol\":5837:5872  eventSignatureExpired(_owner, sing) */\n      mload(0x40)\n      dup1\n      swap2\n      sub\n      swap1\n      log2\n        /* \"TokenSGTX/contracts/LicenciasTaxsClone.sol\":5708:5880  function _deleteLicense(bytes32 sing, address _owner) private isAdmin() {... */\n      pop\n      pop\n      jump\t// out\n        /* \"TokenSGTX/contracts/LicenciasTaxsClone.sol\":5347:5700  function _createLicense(StructSignature memory _objectLicense) private isOwner {... */\n    tag_345:\n        /* \"TokenSGTX/contracts/LicenciasTaxsClone.sol\":8327:8332  owner */\n      and(sub(shl(0xa0, 0x01), 0x01), sload(0x07))\n        /* \"TokenSGTX/contracts/LicenciasTaxsClone.sol\":8313:8323  msg.sender */\n      caller\n        /* \"TokenSGTX/contracts/LicenciasTaxsClone.sol\":8313:8332  msg.sender == owner */\n      eq\n        /* \"TokenSGTX/contracts/LicenciasTaxsClone.sol\":8305:8360  require(msg.sender == owner, \"Only Owner can activate\") */\n      tag_355\n      jumpi\n      mload(0x40)\n      shl(0xe5, 0x461bcd)\n      dup2\n      mstore\n      0x04\n      add\n      tag_122\n      swap1\n      tag_161\n      jump\t// in\n    tag_355:\n        /* \"TokenSGTX/contracts/LicenciasTaxsClone.sol\":5455:5479  _objectLicense.signature */\n      0xa0\n      dup2\n      add\n      mload\n        /* \"TokenSGTX/contracts/LicenciasTaxsClone.sol\":5437:5454  _signatureEnabled */\n      0x00\n        /* \"TokenSGTX/contracts/LicenciasTaxsClone.sol\":5437:5480  _signatureEnabled[_objectLicense.signature] */\n      swap1\n      dup2\n      mstore\n      0x20\n      dup2\n      swap1\n      mstore\n      0x40\n      swap1\n      keccak256\n        /* \"TokenSGTX/contracts/LicenciasTaxsClone.sol\":5437:5497  _signatureEnabled[_objectLicense.signature] = _objectLicense */\n      dup2\n      mload\n        /* \"TokenSGTX/contracts/LicenciasTaxsClone.sol\":5483:5497  _objectLicense */\n      dup3\n      swap2\n        /* \"TokenSGTX/contracts/LicenciasTaxsClone.sol\":5437:5480  _signatureEnabled[_objectLicense.signature] */\n      swap1\n      dup2\n      swap1\n        /* \"TokenSGTX/contracts/LicenciasTaxsClone.sol\":5437:5497  _signatureEnabled[_objectLicense.signature] = _objectLicense */\n      tag_358\n      swap1\n        /* \"TokenSGTX/contracts/LicenciasTaxsClone.sol\":5437:5480  _signatureEnabled[_objectLicense.signature] */\n      dup3\n        /* \"TokenSGTX/contracts/LicenciasTaxsClone.sol\":5437:5497  _signatureEnabled[_objectLicense.signature] = _objectLicense */\n      tag_359\n      jump\t// in\n    tag_358:\n      pop\n      0x20\n      dup3\n      add\n      mload\n      0x01\n      dup3\n      add\n      swap1\n      tag_360\n      swap1\n      dup3\n      tag_359\n      jump\t// in\n    tag_360:\n      pop\n      0x40\n      dup3\n      add\n      mload\n      0x02\n      dup3\n      add\n      dup1\n      sload\n      not(sub(shl(0xa0, 0x01), 0x01))\n      and\n      sub(shl(0xa0, 0x01), 0x01)\n      swap1\n      swap3\n      and\n      swap2\n      swap1\n      swap2\n      or\n      swap1\n      sstore\n      0x60\n      dup3\n      add\n      mload\n      0x03\n      dup3\n      add\n      swap1\n      tag_361\n      swap1\n      dup3\n      tag_359\n      jump\t// in\n    tag_361:\n      pop\n      0x80\n      dup3\n      add\n      mload\n      0x04\n      dup3\n      add\n      dup1\n      sload\n      not(sub(shl(0xa0, 0x01), 0x01))\n      and\n      sub(shl(0xa0, 0x01), 0x01)\n      swap3\n      dup4\n      and\n      or\n      swap1\n      sstore\n      0xa0\n      dup1\n      dup5\n      add\n      mload\n      0x05\n      dup5\n      add\n      sstore\n      0xc0\n      swap1\n      swap4\n      add\n      mload\n      0x06\n      swap1\n      swap3\n      add\n      dup1\n      sload\n      not(0xff)\n      and\n      swap3\n      iszero\n      iszero\n      swap3\n      swap1\n      swap3\n      or\n      swap1\n      swap2\n      sstore\n        /* \"TokenSGTX/contracts/LicenciasTaxsClone.sol\":5519:5539  _objectLicense.owner */\n      0x40\n      dup4\n      dup2\n      add\n      dup1\n      mload\n        /* \"TokenSGTX/contracts/LicenciasTaxsClone.sol\":5508:5540  _userSings[_objectLicense.owner] */\n      dup4\n      and\n      0x00\n      swap1\n      dup2\n      mstore\n      0x01\n      0x20\n      dup2\n      dup2\n      mstore\n      dup5\n      dup4\n      keccak256\n        /* \"TokenSGTX/contracts/LicenciasTaxsClone.sol\":5546:5570  _objectLicense.signature */\n      swap7\n      dup9\n      add\n      dup1\n      mload\n        /* \"TokenSGTX/contracts/LicenciasTaxsClone.sol\":5508:5571  _userSings[_objectLicense.owner].push(_objectLicense.signature) */\n      dup9\n      sload\n      swap4\n      dup5\n      add\n      dup10\n      sstore\n      swap8\n      dup5\n      mstore\n      swap3\n      dup2\n      swap1\n      keccak256\n      swap1\n      swap2\n      add\n      swap6\n      swap1\n      swap6\n      sstore\n        /* \"TokenSGTX/contracts/LicenciasTaxsClone.sol\":5622:5642  _objectLicense.owner */\n      swap1\n      mload\n        /* \"TokenSGTX/contracts/LicenciasTaxsClone.sol\":5657:5681  _objectLicense.signature */\n      swap1\n      mload\n        /* \"TokenSGTX/contracts/LicenciasTaxsClone.sol\":5587:5692  eventSignatureCreate(... */\n      swap2\n      mload\n        /* \"#utility.yul\":6293:6318   */\n      swap2\n      dup3\n      mstore\n        /* \"TokenSGTX/contracts/LicenciasTaxsClone.sol\":5587:5692  eventSignatureCreate(... */\n      swap1\n      swap2\n      and\n      swap2\n      0x88b059e42378123793b6b50c667570312662bfbe8c07098828e5639754fa1e5b\n      swap2\n        /* \"#utility.yul\":6266:6284   */\n      add\n        /* \"TokenSGTX/contracts/LicenciasTaxsClone.sol\":5587:5692  eventSignatureCreate(... */\n      mload(0x40)\n      dup1\n      swap2\n      sub\n      swap1\n      log2\n        /* \"TokenSGTX/contracts/LicenciasTaxsClone.sol\":5347:5700  function _createLicense(StructSignature memory _objectLicense) private isOwner {... */\n      pop\n      jump\t// out\n    tag_350:\n      pop\n      dup1\n      sload\n      tag_364\n      swap1\n      tag_106\n      jump\t// in\n    tag_364:\n      0x00\n      dup3\n      sstore\n      dup1\n      0x1f\n      lt\n      tag_366\n      jumpi\n      pop\n      pop\n      jump\t// out\n    tag_366:\n      0x1f\n      add\n      0x20\n      swap1\n      div\n      swap1\n      0x00\n      mstore\n      keccak256(0x00, 0x20)\n      swap1\n      dup2\n      add\n      swap1\n      tag_367\n      swap2\n      swap1\n      tag_368\n      jump\t// in\n    tag_367:\n      pop\n      jump\t// out\n    tag_368:\n    tag_369:\n      dup1\n      dup3\n      gt\n      iszero\n      tag_370\n      jumpi\n      0x00\n      dup2\n      sstore\n      0x01\n      add\n      jump(tag_369)\n    tag_370:\n      pop\n      swap1\n      jump\t// out\n        /* \"#utility.yul\":14:194   */\n    tag_24:\n        /* \"#utility.yul\":73:79   */\n      0x00\n        /* \"#utility.yul\":126:128   */\n      0x20\n        /* \"#utility.yul\":114:123   */\n      dup3\n        /* \"#utility.yul\":105:112   */\n      dup5\n        /* \"#utility.yul\":101:124   */\n      sub\n        /* \"#utility.yul\":97:129   */\n      slt\n        /* \"#utility.yul\":94:146   */\n      iszero\n      tag_382\n      jumpi\n        /* \"#utility.yul\":142:143   */\n      0x00\n        /* \"#utility.yul\":139:140   */\n      dup1\n        /* \"#utility.yul\":132:144   */\n      revert\n        /* \"#utility.yul\":94:146   */\n    tag_382:\n      pop\n        /* \"#utility.yul\":165:188   */\n      calldataload\n      swap2\n        /* \"#utility.yul\":14:194   */\n      swap1\n      pop\n      jump\t// out\n        /* \"#utility.yul\":199:449   */\n    tag_371:\n        /* \"#utility.yul\":284:285   */\n      0x00\n        /* \"#utility.yul\":294:407   */\n    tag_384:\n        /* \"#utility.yul\":308:314   */\n      dup4\n        /* \"#utility.yul\":305:306   */\n      dup2\n        /* \"#utility.yul\":302:315   */\n      lt\n        /* \"#utility.yul\":294:407   */\n      iszero\n      tag_386\n      jumpi\n        /* \"#utility.yul\":384:395   */\n      dup2\n      dup2\n      add\n        /* \"#utility.yul\":378:396   */\n      mload\n        /* \"#utility.yul\":365:376   */\n      dup4\n      dup3\n      add\n        /* \"#utility.yul\":358:397   */\n      mstore\n        /* \"#utility.yul\":330:332   */\n      0x20\n        /* \"#utility.yul\":323:333   */\n      add\n        /* \"#utility.yul\":294:407   */\n      jump(tag_384)\n    tag_386:\n      pop\n      pop\n        /* \"#utility.yul\":441:442   */\n      0x00\n        /* \"#utility.yul\":423:439   */\n      swap2\n      add\n        /* \"#utility.yul\":416:443   */\n      mstore\n        /* \"#utility.yul\":199:449   */\n      jump\t// out\n        /* \"#utility.yul\":454:725   */\n    tag_372:\n        /* \"#utility.yul\":496:499   */\n      0x00\n        /* \"#utility.yul\":534:539   */\n      dup2\n        /* \"#utility.yul\":528:540   */\n      mload\n        /* \"#utility.yul\":561:567   */\n      dup1\n        /* \"#utility.yul\":556:559   */\n      dup5\n        /* \"#utility.yul\":549:568   */\n      mstore\n        /* \"#utility.yul\":577:653   */\n      tag_388\n        /* \"#utility.yul\":646:652   */\n      dup2\n        /* \"#utility.yul\":639:643   */\n      0x20\n        /* \"#utility.yul\":634:637   */\n      dup7\n        /* \"#utility.yul\":630:644   */\n      add\n        /* \"#utility.yul\":623:627   */\n      0x20\n        /* \"#utility.yul\":616:621   */\n      dup7\n        /* \"#utility.yul\":612:628   */\n      add\n        /* \"#utility.yul\":577:653   */\n      tag_371\n      jump\t// in\n    tag_388:\n        /* \"#utility.yul\":707:709   */\n      0x1f\n        /* \"#utility.yul\":686:701   */\n      add\n      not(0x1f)\n        /* \"#utility.yul\":682:711   */\n      and\n        /* \"#utility.yul\":673:712   */\n      swap3\n      swap1\n      swap3\n      add\n        /* \"#utility.yul\":714:718   */\n      0x20\n        /* \"#utility.yul\":669:719   */\n      add\n      swap3\n        /* \"#utility.yul\":454:725   */\n      swap2\n      pop\n      pop\n      jump\t// out\n        /* \"#utility.yul\":826:2002   */\n    tag_27:\n        /* \"#utility.yul\":1017:1019   */\n      0x20\n        /* \"#utility.yul\":1006:1015   */\n      dup2\n        /* \"#utility.yul\":999:1020   */\n      mstore\n        /* \"#utility.yul\":980:984   */\n      0x00\n        /* \"#utility.yul\":1055:1061   */\n      dup3\n        /* \"#utility.yul\":1049:1062   */\n      mload\n        /* \"#utility.yul\":1098:1102   */\n      0xe0\n        /* \"#utility.yul\":1093:1095   */\n      0x20\n        /* \"#utility.yul\":1082:1091   */\n      dup5\n        /* \"#utility.yul\":1078:1096   */\n      add\n        /* \"#utility.yul\":1071:1103   */\n      mstore\n        /* \"#utility.yul\":1126:1178   */\n      tag_391\n        /* \"#utility.yul\":1173:1176   */\n      0x0100\n        /* \"#utility.yul\":1162:1171   */\n      dup5\n        /* \"#utility.yul\":1158:1177   */\n      add\n        /* \"#utility.yul\":1144:1156   */\n      dup3\n        /* \"#utility.yul\":1126:1178   */\n      tag_372\n      jump\t// in\n    tag_391:\n        /* \"#utility.yul\":1112:1178   */\n      swap1\n      pop\n        /* \"#utility.yul\":1227:1229   */\n      0x20\n        /* \"#utility.yul\":1219:1225   */\n      dup5\n        /* \"#utility.yul\":1215:1230   */\n      add\n        /* \"#utility.yul\":1209:1231   */\n      mload\n        /* \"#utility.yul\":1254:1256   */\n      0x1f\n        /* \"#utility.yul\":1250:1257   */\n      not\n        /* \"#utility.yul\":1321:1323   */\n      dup1\n        /* \"#utility.yul\":1309:1318   */\n      dup6\n        /* \"#utility.yul\":1301:1307   */\n      dup5\n        /* \"#utility.yul\":1297:1319   */\n      sub\n        /* \"#utility.yul\":1293:1324   */\n      add\n        /* \"#utility.yul\":1288:1290   */\n      0x40\n        /* \"#utility.yul\":1277:1286   */\n      dup7\n        /* \"#utility.yul\":1273:1291   */\n      add\n        /* \"#utility.yul\":1266:1325   */\n      mstore\n        /* \"#utility.yul\":1348:1389   */\n      tag_392\n        /* \"#utility.yul\":1382:1388   */\n      dup4\n        /* \"#utility.yul\":1366:1380   */\n      dup4\n        /* \"#utility.yul\":1348:1389   */\n      tag_372\n      jump\t// in\n    tag_392:\n        /* \"#utility.yul\":1438:1440   */\n      0x40\n        /* \"#utility.yul\":1426:1441   */\n      dup8\n      add\n        /* \"#utility.yul\":1420:1442   */\n      mload\n      sub(shl(0xa0, 0x01), 0x01)\n        /* \"#utility.yul\":1516:1539   */\n      swap1\n      dup2\n      and\n        /* \"#utility.yul\":1511:1513   */\n      0x60\n        /* \"#utility.yul\":1496:1514   */\n      dup9\n      dup2\n      add\n        /* \"#utility.yul\":1489:1540   */\n      swap2\n      swap1\n      swap2\n      mstore\n        /* \"#utility.yul\":1577:1592   */\n      dup9\n      add\n        /* \"#utility.yul\":1571:1593   */\n      mload\n        /* \"#utility.yul\":1634:1656   */\n      dup8\n      dup4\n      sub\n        /* \"#utility.yul\":1630:1661   */\n      dup5\n      add\n        /* \"#utility.yul\":1624:1627   */\n      0x80\n        /* \"#utility.yul\":1609:1628   */\n      dup10\n      add\n        /* \"#utility.yul\":1602:1662   */\n      mstore\n        /* \"#utility.yul\":1334:1389   */\n      swap2\n      swap5\n      pop\n        /* \"#utility.yul\":1571:1593   */\n      swap1\n      swap3\n      pop\n        /* \"#utility.yul\":1685:1726   */\n      tag_393\n        /* \"#utility.yul\":1334:1389   */\n      dup5\n        /* \"#utility.yul\":1571:1593   */\n      dup5\n        /* \"#utility.yul\":1685:1726   */\n      tag_372\n      jump\t// in\n    tag_393:\n        /* \"#utility.yul\":1671:1726   */\n      swap4\n      pop\n        /* \"#utility.yul\":1792:1794   */\n      dup1\n        /* \"#utility.yul\":1785:1788   */\n      0x80\n        /* \"#utility.yul\":1777:1783   */\n      dup9\n        /* \"#utility.yul\":1773:1789   */\n      add\n        /* \"#utility.yul\":1767:1790   */\n      mload\n        /* \"#utility.yul\":1763:1795   */\n      and\n        /* \"#utility.yul\":1757:1760   */\n      0xa0\n        /* \"#utility.yul\":1746:1755   */\n      dup8\n        /* \"#utility.yul\":1742:1761   */\n      add\n        /* \"#utility.yul\":1735:1796   */\n      mstore\n      pop\n      pop\n      pop\n        /* \"#utility.yul\":1851:1854   */\n      0xa0\n        /* \"#utility.yul\":1843:1849   */\n      dup5\n        /* \"#utility.yul\":1839:1855   */\n      add\n        /* \"#utility.yul\":1833:1856   */\n      mload\n        /* \"#utility.yul\":1827:1830   */\n      0xc0\n        /* \"#utility.yul\":1816:1825   */\n      dup5\n        /* \"#utility.yul\":1812:1831   */\n      add\n        /* \"#utility.yul\":1805:1857   */\n      mstore\n        /* \"#utility.yul\":1906:1909   */\n      0xc0\n        /* \"#utility.yul\":1898:1904   */\n      dup5\n        /* \"#utility.yul\":1894:1910   */\n      add\n        /* \"#utility.yul\":1888:1911   */\n      mload\n        /* \"#utility.yul\":1920:1973   */\n      tag_394\n        /* \"#utility.yul\":1967:1971   */\n      0xe0\n        /* \"#utility.yul\":1956:1965   */\n      dup6\n        /* \"#utility.yul\":1952:1972   */\n      add\n        /* \"#utility.yul\":1936:1950   */\n      dup3\n        /* \"#utility.yul\":800:813   */\n      iszero\n        /* \"#utility.yul\":793:814   */\n      iszero\n        /* \"#utility.yul\":781:815   */\n      swap1\n      mstore\n        /* \"#utility.yul\":730:821   */\n      jump\n        /* \"#utility.yul\":1920:1973   */\n    tag_394:\n      pop\n        /* \"#utility.yul\":1990:1996   */\n      swap4\n        /* \"#utility.yul\":826:2002   */\n      swap3\n      pop\n      pop\n      pop\n      jump\t// out\n        /* \"#utility.yul\":2007:2180   */\n    tag_374:\n        /* \"#utility.yul\":2075:2095   */\n      dup1\n      calldataload\n      sub(shl(0xa0, 0x01), 0x01)\n        /* \"#utility.yul\":2124:2155   */\n      dup2\n      and\n        /* \"#utility.yul\":2114:2156   */\n      dup2\n      eq\n        /* \"#utility.yul\":2104:2174   */\n      tag_126\n      jumpi\n        /* \"#utility.yul\":2170:2171   */\n      0x00\n        /* \"#utility.yul\":2167:2168   */\n      dup1\n        /* \"#utility.yul\":2160:2172   */\n      revert\n        /* \"#utility.yul\":2185:2371   */\n    tag_30:\n        /* \"#utility.yul\":2244:2250   */\n      0x00\n        /* \"#utility.yul\":2297:2299   */\n      0x20\n        /* \"#utility.yul\":2285:2294   */\n      dup3\n        /* \"#utility.yul\":2276:2283   */\n      dup5\n        /* \"#utility.yul\":2272:2295   */\n      sub\n        /* \"#utility.yul\":2268:2300   */\n      slt\n        /* \"#utility.yul\":2265:2317   */\n      iszero\n      tag_398\n      jumpi\n        /* \"#utility.yul\":2313:2314   */\n      0x00\n        /* \"#utility.yul\":2310:2311   */\n      dup1\n        /* \"#utility.yul\":2303:2315   */\n      revert\n        /* \"#utility.yul\":2265:2317   */\n    tag_398:\n        /* \"#utility.yul\":2336:2365   */\n      tag_399\n        /* \"#utility.yul\":2355:2364   */\n      dup3\n        /* \"#utility.yul\":2336:2365   */\n      tag_374\n      jump\t// in\n    tag_399:\n        /* \"#utility.yul\":2326:2365   */\n      swap4\n        /* \"#utility.yul\":2185:2371   */\n      swap3\n      pop\n      pop\n      pop\n      jump\t// out\n        /* \"#utility.yul\":2568:3200   */\n    tag_39:\n        /* \"#utility.yul\":2739:2741   */\n      0x20\n        /* \"#utility.yul\":2791:2812   */\n      dup1\n      dup3\n      mstore\n        /* \"#utility.yul\":2861:2874   */\n      dup3\n      mload\n        /* \"#utility.yul\":2764:2782   */\n      dup3\n      dup3\n      add\n        /* \"#utility.yul\":2883:2905   */\n      dup2\n      swap1\n      mstore\n        /* \"#utility.yul\":2710:2714   */\n      0x00\n      swap2\n        /* \"#utility.yul\":2739:2741   */\n      swap1\n        /* \"#utility.yul\":2962:2977   */\n      dup5\n      dup3\n      add\n      swap1\n        /* \"#utility.yul\":2936:2938   */\n      0x40\n        /* \"#utility.yul\":2921:2939   */\n      dup6\n      add\n      swap1\n        /* \"#utility.yul\":2710:2714   */\n      dup5\n        /* \"#utility.yul\":3005:3174   */\n    tag_402:\n        /* \"#utility.yul\":3019:3025   */\n      dup2\n        /* \"#utility.yul\":3016:3017   */\n      dup2\n        /* \"#utility.yul\":3013:3026   */\n      lt\n        /* \"#utility.yul\":3005:3174   */\n      iszero\n      tag_404\n      jumpi\n        /* \"#utility.yul\":3080:3093   */\n      dup4\n      mload\n        /* \"#utility.yul\":3068:3094   */\n      dup4\n      mstore\n        /* \"#utility.yul\":3149:3164   */\n      swap3\n      dup5\n      add\n      swap3\n        /* \"#utility.yul\":3114:3126   */\n      swap2\n      dup5\n      add\n      swap2\n        /* \"#utility.yul\":3041:3042   */\n      0x01\n        /* \"#utility.yul\":3034:3043   */\n      add\n        /* \"#utility.yul\":3005:3174   */\n      jump(tag_402)\n    tag_404:\n      pop\n        /* \"#utility.yul\":3191:3194   */\n      swap1\n      swap7\n        /* \"#utility.yul\":2568:3200   */\n      swap6\n      pop\n      pop\n      pop\n      pop\n      pop\n      pop\n      jump\t// out\n        /* \"#utility.yul\":3205:3332   */\n    tag_375:\n        /* \"#utility.yul\":3266:3276   */\n      0x4e487b71\n        /* \"#utility.yul\":3261:3264   */\n      0xe0\n        /* \"#utility.yul\":3257:3277   */\n      shl\n        /* \"#utility.yul\":3254:3255   */\n      0x00\n        /* \"#utility.yul\":3247:3278   */\n      mstore\n        /* \"#utility.yul\":3297:3301   */\n      0x41\n        /* \"#utility.yul\":3294:3295   */\n      0x04\n        /* \"#utility.yul\":3287:3302   */\n      mstore\n        /* \"#utility.yul\":3321:3325   */\n      0x24\n        /* \"#utility.yul\":3318:3319   */\n      0x00\n        /* \"#utility.yul\":3311:3326   */\n      revert\n        /* \"#utility.yul\":3337:4056   */\n    tag_376:\n        /* \"#utility.yul\":3380:3385   */\n      0x00\n        /* \"#utility.yul\":3433:3436   */\n      dup3\n        /* \"#utility.yul\":3426:3430   */\n      0x1f\n        /* \"#utility.yul\":3418:3424   */\n      dup4\n        /* \"#utility.yul\":3414:3431   */\n      add\n        /* \"#utility.yul\":3410:3437   */\n      slt\n        /* \"#utility.yul\":3400:3455   */\n      tag_407\n      jumpi\n        /* \"#utility.yul\":3451:3452   */\n      0x00\n        /* \"#utility.yul\":3448:3449   */\n      dup1\n        /* \"#utility.yul\":3441:3453   */\n      revert\n        /* \"#utility.yul\":3400:3455   */\n    tag_407:\n        /* \"#utility.yul\":3487:3493   */\n      dup2\n        /* \"#utility.yul\":3474:3494   */\n      calldataload\n        /* \"#utility.yul\":3513:3531   */\n      0xffffffffffffffff\n        /* \"#utility.yul\":3550:3552   */\n      dup1\n        /* \"#utility.yul\":3546:3548   */\n      dup3\n        /* \"#utility.yul\":3543:3553   */\n      gt\n        /* \"#utility.yul\":3540:3576   */\n      iszero\n      tag_409\n      jumpi\n        /* \"#utility.yul\":3556:3574   */\n      tag_409\n      tag_375\n      jump\t// in\n    tag_409:\n        /* \"#utility.yul\":3631:3633   */\n      0x40\n        /* \"#utility.yul\":3625:3634   */\n      mload\n        /* \"#utility.yul\":3599:3601   */\n      0x1f\n        /* \"#utility.yul\":3685:3698   */\n      dup4\n      add\n      not(0x1f)\n        /* \"#utility.yul\":3681:3703   */\n      swap1\n      dup2\n      and\n        /* \"#utility.yul\":3705:3707   */\n      0x3f\n        /* \"#utility.yul\":3677:3708   */\n      add\n        /* \"#utility.yul\":3673:3713   */\n      and\n        /* \"#utility.yul\":3661:3714   */\n      dup2\n      add\n      swap1\n        /* \"#utility.yul\":3729:3747   */\n      dup3\n      dup3\n      gt\n        /* \"#utility.yul\":3749:3771   */\n      dup2\n      dup4\n      lt\n        /* \"#utility.yul\":3726:3772   */\n      or\n        /* \"#utility.yul\":3723:3795   */\n      iszero\n      tag_411\n      jumpi\n        /* \"#utility.yul\":3775:3793   */\n      tag_411\n      tag_375\n      jump\t// in\n    tag_411:\n        /* \"#utility.yul\":3815:3825   */\n      dup2\n        /* \"#utility.yul\":3811:3813   */\n      0x40\n        /* \"#utility.yul\":3804:3826   */\n      mstore\n        /* \"#utility.yul\":3850:3852   */\n      dup4\n        /* \"#utility.yul\":3842:3848   */\n      dup2\n        /* \"#utility.yul\":3835:3853   */\n      mstore\n        /* \"#utility.yul\":3896:3899   */\n      dup7\n        /* \"#utility.yul\":3889:3893   */\n      0x20\n        /* \"#utility.yul\":3884:3886   */\n      dup6\n        /* \"#utility.yul\":3876:3882   */\n      dup9\n        /* \"#utility.yul\":3872:3887   */\n      add\n        /* \"#utility.yul\":3868:3894   */\n      add\n        /* \"#utility.yul\":3865:3900   */\n      gt\n        /* \"#utility.yul\":3862:3917   */\n      iszero\n      tag_412\n      jumpi\n        /* \"#utility.yul\":3913:3914   */\n      0x00\n        /* \"#utility.yul\":3910:3911   */\n      dup1\n        /* \"#utility.yul\":3903:3915   */\n      revert\n        /* \"#utility.yul\":3862:3917   */\n    tag_412:\n        /* \"#utility.yul\":3977:3979   */\n      dup4\n        /* \"#utility.yul\":3970:3974   */\n      0x20\n        /* \"#utility.yul\":3962:3968   */\n      dup8\n        /* \"#utility.yul\":3958:3975   */\n      add\n        /* \"#utility.yul\":3951:3955   */\n      0x20\n        /* \"#utility.yul\":3943:3949   */\n      dup4\n        /* \"#utility.yul\":3939:3956   */\n      add\n        /* \"#utility.yul\":3926:3980   */\n      calldatacopy\n        /* \"#utility.yul\":4024:4025   */\n      0x00\n        /* \"#utility.yul\":4017:4021   */\n      0x20\n        /* \"#utility.yul\":4012:4014   */\n      dup6\n        /* \"#utility.yul\":4004:4010   */\n      dup4\n        /* \"#utility.yul\":4000:4015   */\n      add\n        /* \"#utility.yul\":3996:4022   */\n      add\n        /* \"#utility.yul\":3989:4026   */\n      mstore\n        /* \"#utility.yul\":4044:4050   */\n      dup1\n        /* \"#utility.yul\":4035:4050   */\n      swap5\n      pop\n      pop\n      pop\n      pop\n      pop\n        /* \"#utility.yul\":3337:4056   */\n      swap3\n      swap2\n      pop\n      pop\n      jump\t// out\n        /* \"#utility.yul\":4061:5206   */\n    tag_56:\n        /* \"#utility.yul\":4206:4212   */\n      0x00\n        /* \"#utility.yul\":4214:4220   */\n      dup1\n        /* \"#utility.yul\":4222:4228   */\n      0x00\n        /* \"#utility.yul\":4230:4236   */\n      dup1\n        /* \"#utility.yul\":4238:4244   */\n      0x00\n        /* \"#utility.yul\":4291:4294   */\n      0xa0\n        /* \"#utility.yul\":4279:4288   */\n      dup7\n        /* \"#utility.yul\":4270:4277   */\n      dup9\n        /* \"#utility.yul\":4266:4289   */\n      sub\n        /* \"#utility.yul\":4262:4295   */\n      slt\n        /* \"#utility.yul\":4259:4312   */\n      iszero\n      tag_414\n      jumpi\n        /* \"#utility.yul\":4308:4309   */\n      0x00\n        /* \"#utility.yul\":4305:4306   */\n      dup1\n        /* \"#utility.yul\":4298:4310   */\n      revert\n        /* \"#utility.yul\":4259:4312   */\n    tag_414:\n        /* \"#utility.yul\":4348:4357   */\n      dup6\n        /* \"#utility.yul\":4335:4358   */\n      calldataload\n        /* \"#utility.yul\":4377:4395   */\n      0xffffffffffffffff\n        /* \"#utility.yul\":4418:4420   */\n      dup1\n        /* \"#utility.yul\":4410:4416   */\n      dup3\n        /* \"#utility.yul\":4407:4421   */\n      gt\n        /* \"#utility.yul\":4404:4438   */\n      iszero\n      tag_415\n      jumpi\n        /* \"#utility.yul\":4434:4435   */\n      0x00\n        /* \"#utility.yul\":4431:4432   */\n      dup1\n        /* \"#utility.yul\":4424:4436   */\n      revert\n        /* \"#utility.yul\":4404:4438   */\n    tag_415:\n        /* \"#utility.yul\":4457:4507   */\n      tag_416\n        /* \"#utility.yul\":4499:4506   */\n      dup10\n        /* \"#utility.yul\":4490:4496   */\n      dup4\n        /* \"#utility.yul\":4479:4488   */\n      dup11\n        /* \"#utility.yul\":4475:4497   */\n      add\n        /* \"#utility.yul\":4457:4507   */\n      tag_376\n      jump\t// in\n    tag_416:\n        /* \"#utility.yul\":4447:4507   */\n      swap7\n      pop\n        /* \"#utility.yul\":4560:4562   */\n      0x20\n        /* \"#utility.yul\":4549:4558   */\n      dup9\n        /* \"#utility.yul\":4545:4563   */\n      add\n        /* \"#utility.yul\":4532:4564   */\n      calldataload\n        /* \"#utility.yul\":4516:4564   */\n      swap2\n      pop\n        /* \"#utility.yul\":4589:4591   */\n      dup1\n        /* \"#utility.yul\":4579:4587   */\n      dup3\n        /* \"#utility.yul\":4576:4592   */\n      gt\n        /* \"#utility.yul\":4573:4609   */\n      iszero\n      tag_417\n      jumpi\n        /* \"#utility.yul\":4605:4606   */\n      0x00\n        /* \"#utility.yul\":4602:4603   */\n      dup1\n        /* \"#utility.yul\":4595:4607   */\n      revert\n        /* \"#utility.yul\":4573:4609   */\n    tag_417:\n        /* \"#utility.yul\":4628:4680   */\n      tag_418\n        /* \"#utility.yul\":4672:4679   */\n      dup10\n        /* \"#utility.yul\":4661:4669   */\n      dup4\n        /* \"#utility.yul\":4650:4659   */\n      dup11\n        /* \"#utility.yul\":4646:4670   */\n      add\n        /* \"#utility.yul\":4628:4680   */\n      tag_376\n      jump\t// in\n    tag_418:\n        /* \"#utility.yul\":4618:4680   */\n      swap6\n      pop\n        /* \"#utility.yul\":4733:4735   */\n      0x40\n        /* \"#utility.yul\":4722:4731   */\n      dup9\n        /* \"#utility.yul\":4718:4736   */\n      add\n        /* \"#utility.yul\":4705:4737   */\n      calldataload\n        /* \"#utility.yul\":4689:4737   */\n      swap2\n      pop\n        /* \"#utility.yul\":4762:4764   */\n      dup1\n        /* \"#utility.yul\":4752:4760   */\n      dup3\n        /* \"#utility.yul\":4749:4765   */\n      gt\n        /* \"#utility.yul\":4746:4782   */\n      iszero\n      tag_419\n      jumpi\n        /* \"#utility.yul\":4778:4779   */\n      0x00\n        /* \"#utility.yul\":4775:4776   */\n      dup1\n        /* \"#utility.yul\":4768:4780   */\n      revert\n        /* \"#utility.yul\":4746:4782   */\n    tag_419:\n        /* \"#utility.yul\":4801:4853   */\n      tag_420\n        /* \"#utility.yul\":4845:4852   */\n      dup10\n        /* \"#utility.yul\":4834:4842   */\n      dup4\n        /* \"#utility.yul\":4823:4832   */\n      dup11\n        /* \"#utility.yul\":4819:4843   */\n      add\n        /* \"#utility.yul\":4801:4853   */\n      tag_376\n      jump\t// in\n    tag_420:\n        /* \"#utility.yul\":4791:4853   */\n      swap5\n      pop\n        /* \"#utility.yul\":4906:4908   */\n      0x60\n        /* \"#utility.yul\":4895:4904   */\n      dup9\n        /* \"#utility.yul\":4891:4909   */\n      add\n        /* \"#utility.yul\":4878:4910   */\n      calldataload\n        /* \"#utility.yul\":4862:4910   */\n      swap2\n      pop\n        /* \"#utility.yul\":4935:4937   */\n      dup1\n        /* \"#utility.yul\":4925:4933   */\n      dup3\n        /* \"#utility.yul\":4922:4938   */\n      gt\n        /* \"#utility.yul\":4919:4955   */\n      iszero\n      tag_421\n      jumpi\n        /* \"#utility.yul\":4951:4952   */\n      0x00\n        /* \"#utility.yul\":4948:4949   */\n      dup1\n        /* \"#utility.yul\":4941:4953   */\n      revert\n        /* \"#utility.yul\":4919:4955   */\n    tag_421:\n        /* \"#utility.yul\":4974:5026   */\n      tag_422\n        /* \"#utility.yul\":5018:5025   */\n      dup10\n        /* \"#utility.yul\":5007:5015   */\n      dup4\n        /* \"#utility.yul\":4996:5005   */\n      dup11\n        /* \"#utility.yul\":4992:5016   */\n      add\n        /* \"#utility.yul\":4974:5026   */\n      tag_376\n      jump\t// in\n    tag_422:\n        /* \"#utility.yul\":4964:5026   */\n      swap4\n      pop\n        /* \"#utility.yul\":5079:5082   */\n      0x80\n        /* \"#utility.yul\":5068:5077   */\n      dup9\n        /* \"#utility.yul\":5064:5083   */\n      add\n        /* \"#utility.yul\":5051:5084   */\n      calldataload\n        /* \"#utility.yul\":5035:5084   */\n      swap2\n      pop\n        /* \"#utility.yul\":5109:5111   */\n      dup1\n        /* \"#utility.yul\":5099:5107   */\n      dup3\n        /* \"#utility.yul\":5096:5112   */\n      gt\n        /* \"#utility.yul\":5093:5129   */\n      iszero\n      tag_423\n      jumpi\n        /* \"#utility.yul\":5125:5126   */\n      0x00\n        /* \"#utility.yul\":5122:5123   */\n      dup1\n        /* \"#utility.yul\":5115:5127   */\n      revert\n        /* \"#utility.yul\":5093:5129   */\n    tag_423:\n      pop\n        /* \"#utility.yul\":5148:5200   */\n      tag_424\n        /* \"#utility.yul\":5192:5199   */\n      dup9\n        /* \"#utility.yul\":5181:5189   */\n      dup3\n        /* \"#utility.yul\":5170:5179   */\n      dup10\n        /* \"#utility.yul\":5166:5190   */\n      add\n        /* \"#utility.yul\":5148:5200   */\n      tag_376\n      jump\t// in\n    tag_424:\n        /* \"#utility.yul\":5138:5200   */\n      swap2\n      pop\n      pop\n        /* \"#utility.yul\":4061:5206   */\n      swap3\n      swap6\n      pop\n      swap3\n      swap6\n      swap1\n      swap4\n      pop\n      jump\t// out\n        /* \"#utility.yul\":5211:5533   */\n    tag_66:\n        /* \"#utility.yul\":5280:5286   */\n      0x00\n        /* \"#utility.yul\":5333:5335   */\n      0x20\n        /* \"#utility.yul\":5321:5330   */\n      dup3\n        /* \"#utility.yul\":5312:5319   */\n      dup5\n        /* \"#utility.yul\":5308:5331   */\n      sub\n        /* \"#utility.yul\":5304:5336   */\n      slt\n        /* \"#utility.yul\":5301:5353   */\n      iszero\n      tag_426\n      jumpi\n        /* \"#utility.yul\":5349:5350   */\n      0x00\n        /* \"#utility.yul\":5346:5347   */\n      dup1\n        /* \"#utility.yul\":5339:5351   */\n      revert\n        /* \"#utility.yul\":5301:5353   */\n    tag_426:\n        /* \"#utility.yul\":5389:5398   */\n      dup2\n        /* \"#utility.yul\":5376:5399   */\n      calldataload\n        /* \"#utility.yul\":5422:5440   */\n      0xffffffffffffffff\n        /* \"#utility.yul\":5414:5420   */\n      dup2\n        /* \"#utility.yul\":5411:5441   */\n      gt\n        /* \"#utility.yul\":5408:5458   */\n      iszero\n      tag_427\n      jumpi\n        /* \"#utility.yul\":5454:5455   */\n      0x00\n        /* \"#utility.yul\":5451:5452   */\n      dup1\n        /* \"#utility.yul\":5444:5456   */\n      revert\n        /* \"#utility.yul\":5408:5458   */\n    tag_427:\n        /* \"#utility.yul\":5477:5527   */\n      tag_428\n        /* \"#utility.yul\":5519:5526   */\n      dup5\n        /* \"#utility.yul\":5510:5516   */\n      dup3\n        /* \"#utility.yul\":5499:5508   */\n      dup6\n        /* \"#utility.yul\":5495:5517   */\n      add\n        /* \"#utility.yul\":5477:5527   */\n      tag_376\n      jump\t// in\n    tag_428:\n        /* \"#utility.yul\":5467:5527   */\n      swap5\n        /* \"#utility.yul\":5211:5533   */\n      swap4\n      pop\n      pop\n      pop\n      pop\n      jump\t// out\n        /* \"#utility.yul\":5746:6142   */\n    tag_72:\n        /* \"#utility.yul\":5824:5830   */\n      0x00\n        /* \"#utility.yul\":5832:5838   */\n      dup1\n        /* \"#utility.yul\":5885:5887   */\n      0x40\n        /* \"#utility.yul\":5873:5882   */\n      dup4\n        /* \"#utility.yul\":5864:5871   */\n      dup6\n        /* \"#utility.yul\":5860:5883   */\n      sub\n        /* \"#utility.yul\":5856:5888   */\n      slt\n        /* \"#utility.yul\":5853:5905   */\n      iszero\n      tag_431\n      jumpi\n        /* \"#utility.yul\":5901:5902   */\n      0x00\n        /* \"#utility.yul\":5898:5899   */\n      dup1\n        /* \"#utility.yul\":5891:5903   */\n      revert\n        /* \"#utility.yul\":5853:5905   */\n    tag_431:\n        /* \"#utility.yul\":5941:5950   */\n      dup3\n        /* \"#utility.yul\":5928:5951   */\n      calldataload\n        /* \"#utility.yul\":5974:5992   */\n      0xffffffffffffffff\n        /* \"#utility.yul\":5966:5972   */\n      dup2\n        /* \"#utility.yul\":5963:5993   */\n      gt\n        /* \"#utility.yul\":5960:6010   */\n      iszero\n      tag_432\n      jumpi\n        /* \"#utility.yul\":6006:6007   */\n      0x00\n        /* \"#utility.yul\":6003:6004   */\n      dup1\n        /* \"#utility.yul\":5996:6008   */\n      revert\n        /* \"#utility.yul\":5960:6010   */\n    tag_432:\n        /* \"#utility.yul\":6029:6079   */\n      tag_433\n        /* \"#utility.yul\":6071:6078   */\n      dup6\n        /* \"#utility.yul\":6062:6068   */\n      dup3\n        /* \"#utility.yul\":6051:6060   */\n      dup7\n        /* \"#utility.yul\":6047:6069   */\n      add\n        /* \"#utility.yul\":6029:6079   */\n      tag_376\n      jump\t// in\n    tag_433:\n        /* \"#utility.yul\":6019:6079   */\n      swap3\n      pop\n      pop\n        /* \"#utility.yul\":6098:6136   */\n      tag_434\n        /* \"#utility.yul\":6132:6134   */\n      0x20\n        /* \"#utility.yul\":6121:6130   */\n      dup5\n        /* \"#utility.yul\":6117:6135   */\n      add\n        /* \"#utility.yul\":6098:6136   */\n      tag_374\n      jump\t// in\n    tag_434:\n        /* \"#utility.yul\":6088:6136   */\n      swap1\n      pop\n        /* \"#utility.yul\":5746:6142   */\n      swap3\n      pop\n      swap3\n      swap1\n      pop\n      jump\t// out\n        /* \"#utility.yul\":6329:6709   */\n    tag_106:\n        /* \"#utility.yul\":6408:6409   */\n      0x01\n        /* \"#utility.yul\":6404:6416   */\n      dup2\n      dup2\n      shr\n      swap1\n        /* \"#utility.yul\":6451:6463   */\n      dup3\n      and\n      dup1\n        /* \"#utility.yul\":6472:6533   */\n      tag_437\n      jumpi\n        /* \"#utility.yul\":6526:6530   */\n      0x7f\n        /* \"#utility.yul\":6518:6524   */\n      dup3\n        /* \"#utility.yul\":6514:6531   */\n      and\n        /* \"#utility.yul\":6504:6531   */\n      swap2\n      pop\n        /* \"#utility.yul\":6472:6533   */\n    tag_437:\n        /* \"#utility.yul\":6579:6581   */\n      0x20\n        /* \"#utility.yul\":6571:6577   */\n      dup3\n        /* \"#utility.yul\":6568:6582   */\n      lt\n        /* \"#utility.yul\":6548:6566   */\n      dup2\n        /* \"#utility.yul\":6545:6583   */\n      sub\n        /* \"#utility.yul\":6542:6703   */\n      tag_438\n      jumpi\n        /* \"#utility.yul\":6625:6635   */\n      0x4e487b71\n        /* \"#utility.yul\":6620:6623   */\n      0xe0\n        /* \"#utility.yul\":6616:6636   */\n      shl\n        /* \"#utility.yul\":6613:6614   */\n      0x00\n        /* \"#utility.yul\":6606:6637   */\n      mstore\n        /* \"#utility.yul\":6660:6664   */\n      0x22\n        /* \"#utility.yul\":6657:6658   */\n      0x04\n        /* \"#utility.yul\":6650:6665   */\n      mstore\n        /* \"#utility.yul\":6688:6692   */\n      0x24\n        /* \"#utility.yul\":6685:6686   */\n      0x00\n        /* \"#utility.yul\":6678:6693   */\n      revert\n        /* \"#utility.yul\":6542:6703   */\n    tag_438:\n      pop\n        /* \"#utility.yul\":6329:6709   */\n      swap2\n      swap1\n      pop\n      jump\t// out\n        /* \"#utility.yul\":7486:7833   */\n    tag_161:\n        /* \"#utility.yul\":7688:7690   */\n      0x20\n        /* \"#utility.yul\":7670:7691   */\n      dup1\n      dup3\n      mstore\n        /* \"#utility.yul\":7727:7729   */\n      0x17\n        /* \"#utility.yul\":7707:7725   */\n      swap1\n      dup3\n      add\n        /* \"#utility.yul\":7700:7730   */\n      mstore\n        /* \"#utility.yul\":7766:7791   */\n      0x4f6e6c79204f776e65722063616e206163746976617465000000000000000000\n        /* \"#utility.yul\":7761:7763   */\n      0x40\n        /* \"#utility.yul\":7746:7764   */\n      dup3\n      add\n        /* \"#utility.yul\":7739:7792   */\n      mstore\n        /* \"#utility.yul\":7824:7826   */\n      0x60\n        /* \"#utility.yul\":7809:7827   */\n      add\n      swap1\n        /* \"#utility.yul\":7486:7833   */\n      jump\t// out\n        /* \"#utility.yul\":8242:8531   */\n    tag_173:\n        /* \"#utility.yul\":8373:8376   */\n      0x00\n        /* \"#utility.yul\":8411:8417   */\n      dup3\n        /* \"#utility.yul\":8405:8418   */\n      mload\n        /* \"#utility.yul\":8427:8493   */\n      tag_444\n        /* \"#utility.yul\":8486:8492   */\n      dup2\n        /* \"#utility.yul\":8481:8484   */\n      dup5\n        /* \"#utility.yul\":8474:8478   */\n      0x20\n        /* \"#utility.yul\":8466:8472   */\n      dup8\n        /* \"#utility.yul\":8462:8479   */\n      add\n        /* \"#utility.yul\":8427:8493   */\n      tag_371\n      jump\t// in\n    tag_444:\n        /* \"#utility.yul\":8509:8525   */\n      swap2\n      swap1\n      swap2\n      add\n      swap3\n        /* \"#utility.yul\":8242:8531   */\n      swap2\n      pop\n      pop\n      jump\t// out\n        /* \"#utility.yul\":10682:10809   */\n    tag_275:\n        /* \"#utility.yul\":10743:10753   */\n      0x4e487b71\n        /* \"#utility.yul\":10738:10741   */\n      0xe0\n        /* \"#utility.yul\":10734:10754   */\n      shl\n        /* \"#utility.yul\":10731:10732   */\n      0x00\n        /* \"#utility.yul\":10724:10755   */\n      mstore\n        /* \"#utility.yul\":10774:10778   */\n      0x32\n        /* \"#utility.yul\":10771:10772   */\n      0x04\n        /* \"#utility.yul\":10764:10779   */\n      mstore\n        /* \"#utility.yul\":10798:10802   */\n      0x24\n        /* \"#utility.yul\":10795:10796   */\n      0x00\n        /* \"#utility.yul\":10788:10803   */\n      revert\n        /* \"#utility.yul\":10814:11046   */\n    tag_281:\n        /* \"#utility.yul\":10853:10856   */\n      0x00\n        /* \"#utility.yul\":10874:10891   */\n      0x01\n      dup3\n      add\n        /* \"#utility.yul\":10871:11011   */\n      tag_453\n      jumpi\n        /* \"#utility.yul\":10933:10943   */\n      0x4e487b71\n        /* \"#utility.yul\":10928:10931   */\n      0xe0\n        /* \"#utility.yul\":10924:10944   */\n      shl\n        /* \"#utility.yul\":10921:10922   */\n      0x00\n        /* \"#utility.yul\":10914:10945   */\n      mstore\n        /* \"#utility.yul\":10968:10972   */\n      0x11\n        /* \"#utility.yul\":10965:10966   */\n      0x04\n        /* \"#utility.yul\":10958:10973   */\n      mstore\n        /* \"#utility.yul\":10996:11000   */\n      0x24\n        /* \"#utility.yul\":10993:10994   */\n      0x00\n        /* \"#utility.yul\":10986:11001   */\n      revert\n        /* \"#utility.yul\":10871:11011   */\n    tag_453:\n      pop\n        /* \"#utility.yul\":11038:11039   */\n      0x01\n        /* \"#utility.yul\":11027:11040   */\n      add\n      swap1\n        /* \"#utility.yul\":10814:11046   */\n      jump\t// out\n        /* \"#utility.yul\":11051:11798   */\n    tag_291:\n        /* \"#utility.yul\":11352:11355   */\n      0xa0\n        /* \"#utility.yul\":11341:11350   */\n      dup2\n        /* \"#utility.yul\":11334:11356   */\n      mstore\n        /* \"#utility.yul\":11315:11319   */\n      0x00\n        /* \"#utility.yul\":11379:11425   */\n      tag_455\n        /* \"#utility.yul\":11420:11423   */\n      0xa0\n        /* \"#utility.yul\":11409:11418   */\n      dup4\n        /* \"#utility.yul\":11405:11424   */\n      add\n        /* \"#utility.yul\":11397:11403   */\n      dup9\n        /* \"#utility.yul\":11379:11425   */\n      tag_372\n      jump\t// in\n    tag_455:\n        /* \"#utility.yul\":11473:11482   */\n      dup3\n        /* \"#utility.yul\":11465:11471   */\n      dup2\n        /* \"#utility.yul\":11461:11483   */\n      sub\n        /* \"#utility.yul\":11456:11458   */\n      0x20\n        /* \"#utility.yul\":11445:11454   */\n      dup5\n        /* \"#utility.yul\":11441:11459   */\n      add\n        /* \"#utility.yul\":11434:11484   */\n      mstore\n        /* \"#utility.yul\":11507:11540   */\n      tag_456\n        /* \"#utility.yul\":11533:11539   */\n      dup2\n        /* \"#utility.yul\":11525:11531   */\n      dup9\n        /* \"#utility.yul\":11507:11540   */\n      tag_372\n      jump\t// in\n    tag_456:\n      sub(shl(0xa0, 0x01), 0x01)\n        /* \"#utility.yul\":11614:11629   */\n      dup8\n      dup2\n      and\n        /* \"#utility.yul\":11609:11611   */\n      0x40\n        /* \"#utility.yul\":11594:11612   */\n      dup7\n      add\n        /* \"#utility.yul\":11587:11630   */\n      mstore\n        /* \"#utility.yul\":11666:11688   */\n      dup5\n      dup3\n      sub\n        /* \"#utility.yul\":11661:11663   */\n      0x60\n        /* \"#utility.yul\":11646:11664   */\n      dup7\n      add\n        /* \"#utility.yul\":11639:11689   */\n      mstore\n        /* \"#utility.yul\":11493:11540   */\n      swap1\n      swap2\n      pop\n        /* \"#utility.yul\":11706:11739   */\n      tag_457\n        /* \"#utility.yul\":11493:11540   */\n      dup3\n        /* \"#utility.yul\":11724:11730   */\n      dup8\n        /* \"#utility.yul\":11706:11739   */\n      tag_372\n      jump\t// in\n    tag_457:\n        /* \"#utility.yul\":11698:11739   */\n      swap3\n      pop\n        /* \"#utility.yul\":11788:11790   */\n      dup1\n        /* \"#utility.yul\":11780:11786   */\n      dup6\n        /* \"#utility.yul\":11776:11791   */\n      and\n        /* \"#utility.yul\":11770:11773   */\n      0x80\n        /* \"#utility.yul\":11759:11768   */\n      dup6\n        /* \"#utility.yul\":11755:11774   */\n      add\n        /* \"#utility.yul\":11748:11792   */\n      mstore\n      pop\n      pop\n        /* \"#utility.yul\":11051:11798   */\n      swap7\n      swap6\n      pop\n      pop\n      pop\n      pop\n      pop\n      pop\n      jump\t// out\n        /* \"#utility.yul\":12279:12824   */\n    tag_378:\n        /* \"#utility.yul\":12381:12383   */\n      0x1f\n        /* \"#utility.yul\":12376:12379   */\n      dup3\n        /* \"#utility.yul\":12373:12384   */\n      gt\n        /* \"#utility.yul\":12370:12818   */\n      iszero\n      tag_461\n      jumpi\n        /* \"#utility.yul\":12417:12418   */\n      0x00\n        /* \"#utility.yul\":12442:12447   */\n      dup2\n        /* \"#utility.yul\":12438:12440   */\n      dup2\n        /* \"#utility.yul\":12431:12448   */\n      mstore\n        /* \"#utility.yul\":12487:12491   */\n      0x20\n        /* \"#utility.yul\":12483:12485   */\n      dup2\n        /* \"#utility.yul\":12473:12492   */\n      keccak256\n        /* \"#utility.yul\":12557:12559   */\n      0x1f\n        /* \"#utility.yul\":12545:12555   */\n      dup6\n        /* \"#utility.yul\":12541:12560   */\n      add\n        /* \"#utility.yul\":12538:12539   */\n      0x05\n        /* \"#utility.yul\":12534:12561   */\n      shr\n        /* \"#utility.yul\":12528:12532   */\n      dup2\n        /* \"#utility.yul\":12524:12562   */\n      add\n        /* \"#utility.yul\":12593:12597   */\n      0x20\n        /* \"#utility.yul\":12581:12591   */\n      dup7\n        /* \"#utility.yul\":12578:12598   */\n      lt\n        /* \"#utility.yul\":12575:12622   */\n      iszero\n      tag_462\n      jumpi\n      pop\n        /* \"#utility.yul\":12616:12620   */\n      dup1\n        /* \"#utility.yul\":12575:12622   */\n    tag_462:\n        /* \"#utility.yul\":12671:12673   */\n      0x1f\n        /* \"#utility.yul\":12666:12669   */\n      dup6\n        /* \"#utility.yul\":12662:12674   */\n      add\n        /* \"#utility.yul\":12659:12660   */\n      0x05\n        /* \"#utility.yul\":12655:12675   */\n      shr\n        /* \"#utility.yul\":12649:12653   */\n      dup3\n        /* \"#utility.yul\":12645:12676   */\n      add\n        /* \"#utility.yul\":12635:12676   */\n      swap2\n      pop\n        /* \"#utility.yul\":12726:12808   */\n    tag_463:\n        /* \"#utility.yul\":12744:12746   */\n      dup2\n        /* \"#utility.yul\":12737:12742   */\n      dup2\n        /* \"#utility.yul\":12734:12747   */\n      lt\n        /* \"#utility.yul\":12726:12808   */\n      iszero\n      tag_465\n      jumpi\n        /* \"#utility.yul\":12789:12806   */\n      dup3\n      dup2\n      sstore\n        /* \"#utility.yul\":12770:12771   */\n      0x01\n        /* \"#utility.yul\":12759:12772   */\n      add\n        /* \"#utility.yul\":12726:12808   */\n      jump(tag_463)\n    tag_465:\n        /* \"#utility.yul\":12730:12733   */\n      pop\n      pop\n      pop\n        /* \"#utility.yul\":12370:12818   */\n    tag_461:\n        /* \"#utility.yul\":12279:12824   */\n      pop\n      pop\n      pop\n      jump\t// out\n        /* \"#utility.yul\":13000:14352   */\n    tag_359:\n        /* \"#utility.yul\":13126:13129   */\n      dup2\n        /* \"#utility.yul\":13120:13130   */\n      mload\n        /* \"#utility.yul\":13153:13171   */\n      0xffffffffffffffff\n        /* \"#utility.yul\":13145:13151   */\n      dup2\n        /* \"#utility.yul\":13142:13172   */\n      gt\n        /* \"#utility.yul\":13139:13195   */\n      iszero\n      tag_469\n      jumpi\n        /* \"#utility.yul\":13175:13193   */\n      tag_469\n      tag_375\n      jump\t// in\n    tag_469:\n        /* \"#utility.yul\":13204:13301   */\n      tag_470\n        /* \"#utility.yul\":13294:13300   */\n      dup2\n        /* \"#utility.yul\":13254:13292   */\n      tag_471\n        /* \"#utility.yul\":13286:13290   */\n      dup5\n        /* \"#utility.yul\":13280:13291   */\n      sload\n        /* \"#utility.yul\":13254:13292   */\n      tag_106\n      jump\t// in\n    tag_471:\n        /* \"#utility.yul\":13248:13252   */\n      dup5\n        /* \"#utility.yul\":13204:13301   */\n      tag_378\n      jump\t// in\n    tag_470:\n        /* \"#utility.yul\":13356:13360   */\n      0x20\n      dup1\n        /* \"#utility.yul\":13420:13422   */\n      0x1f\n        /* \"#utility.yul\":13409:13423   */\n      dup4\n      gt\n        /* \"#utility.yul\":13437:13438   */\n      0x01\n        /* \"#utility.yul\":13432:14095   */\n      dup2\n      eq\n      tag_473\n      jumpi\n        /* \"#utility.yul\":14139:14140   */\n      0x00\n        /* \"#utility.yul\":14156:14162   */\n      dup5\n        /* \"#utility.yul\":14153:14242   */\n      iszero\n      tag_474\n      jumpi\n      pop\n        /* \"#utility.yul\":14208:14227   */\n      dup6\n      dup4\n      add\n        /* \"#utility.yul\":14202:14228   */\n      mload\n        /* \"#utility.yul\":14153:14242   */\n    tag_474:\n      not(0x00)\n        /* \"#utility.yul\":12957:12958   */\n      0x03\n        /* \"#utility.yul\":12953:12964   */\n      dup7\n      swap1\n      shl\n        /* \"#utility.yul\":12949:12973   */\n      shr\n        /* \"#utility.yul\":12945:12974   */\n      not\n        /* \"#utility.yul\":12935:12975   */\n      and\n        /* \"#utility.yul\":12981:12982   */\n      0x01\n        /* \"#utility.yul\":12977:12988   */\n      dup6\n      swap1\n      shl\n        /* \"#utility.yul\":12932:12989   */\n      or\n        /* \"#utility.yul\":14255:14336   */\n      dup6\n      sstore\n        /* \"#utility.yul\":13402:14346   */\n      jump(tag_465)\n        /* \"#utility.yul\":13432:14095   */\n    tag_473:\n        /* \"#utility.yul\":12226:12227   */\n      0x00\n        /* \"#utility.yul\":12219:12233   */\n      dup6\n      dup2\n      mstore\n        /* \"#utility.yul\":12263:12267   */\n      0x20\n        /* \"#utility.yul\":12250:12268   */\n      dup2\n      keccak256\n      not(0x1f)\n        /* \"#utility.yul\":13468:13488   */\n      dup7\n      and\n      swap2\n        /* \"#utility.yul\":13586:13822   */\n    tag_477:\n        /* \"#utility.yul\":13600:13607   */\n      dup3\n        /* \"#utility.yul\":13597:13598   */\n      dup2\n        /* \"#utility.yul\":13594:13608   */\n      lt\n        /* \"#utility.yul\":13586:13822   */\n      iszero\n      tag_479\n      jumpi\n        /* \"#utility.yul\":13689:13708   */\n      dup9\n      dup7\n      add\n        /* \"#utility.yul\":13683:13709   */\n      mload\n        /* \"#utility.yul\":13668:13710   */\n      dup3\n      sstore\n        /* \"#utility.yul\":13781:13808   */\n      swap5\n      dup5\n      add\n      swap5\n        /* \"#utility.yul\":13749:13750   */\n      0x01\n        /* \"#utility.yul\":13737:13751   */\n      swap1\n      swap2\n      add\n      swap1\n        /* \"#utility.yul\":13616:13635   */\n      dup5\n      add\n        /* \"#utility.yul\":13586:13822   */\n      jump(tag_477)\n    tag_479:\n        /* \"#utility.yul\":13590:13593   */\n      pop\n        /* \"#utility.yul\":13850:13856   */\n      dup6\n        /* \"#utility.yul\":13841:13848   */\n      dup3\n        /* \"#utility.yul\":13838:13857   */\n      lt\n        /* \"#utility.yul\":13835:14036   */\n      iszero\n      tag_480\n      jumpi\n        /* \"#utility.yul\":13911:13930   */\n      dup8\n      dup6\n      add\n        /* \"#utility.yul\":13905:13931   */\n      mload\n      not(0x00)\n        /* \"#utility.yul\":13994:13995   */\n      0x03\n        /* \"#utility.yul\":13990:14004   */\n      dup9\n      swap1\n      shl\n        /* \"#utility.yul\":14006:14009   */\n      0xf8\n        /* \"#utility.yul\":13986:14010   */\n      and\n        /* \"#utility.yul\":13982:14019   */\n      shr\n        /* \"#utility.yul\":13978:14020   */\n      not\n        /* \"#utility.yul\":13963:14021   */\n      and\n        /* \"#utility.yul\":13948:14022   */\n      dup2\n      sstore\n        /* \"#utility.yul\":13835:14036   */\n    tag_480:\n      pop\n      pop\n      pop\n      pop\n      pop\n        /* \"#utility.yul\":14082:14083   */\n      0x01\n        /* \"#utility.yul\":14066:14080   */\n      swap1\n      dup2\n      shl\n        /* \"#utility.yul\":14062:14084   */\n      add\n        /* \"#utility.yul\":14049:14085   */\n      swap1\n      sstore\n      pop\n        /* \"#utility.yul\":13000:14352   */\n      jump\t// out\n\n    auxdata: 0xa2646970667358221220a68aef0490d24f83820e76b8a7635720dd243aa342a52e085e691d7374c2f41664736f6c63430008150033\n}\n",
				"bytecode": {
					"linkReferences": {},
					"object": "60806040526007805460ff60a01b1916600160a01b179055348015610022575f80fd5b50335f818152600460205260409020805460ff19166001179055600780546001600160a01b03191690911790556124588061005c5f395ff3fe6080604052600436106100ef575f3560e01c806384e26b2c11610087578063c8c2f4fe11610057578063c8c2f4fe14610276578063ce7262a114610289578063d84ab181146102aa578063dc2aa909146102c9575f80fd5b806384e26b2c146101ef5780639dfb783114610226578063beb9716d14610239578063bff2d53614610257575f80fd5b806362610492116100c2578063626104921461018b5780636d73e669146101aa5780637ea5cc1a146101bd57806383fc58b4146101dc575f80fd5b80630c0bd76b146100f3578063147bf6c414610128578063369f6cd71461014b5780633fde330914610177575b5f80fd5b3480156100fe575f80fd5b5061011261010d366004611e89565b6102dd565b60405161011f9190611eed565b60405180910390f35b61013b610136366004611fa9565b61059b565b604051901515815260200161011f565b348015610156575f80fd5b5061016a610165366004611fa9565b610684565b60405161011f9190611fc9565b348015610182575f80fd5b5061016a610708565b348015610196575f80fd5b506101126101a5366004611e89565b610766565b61013b6101b8366004611fa9565b6109c8565b3480156101c8575f80fd5b5061013b6101d73660046120a9565b610ad1565b61013b6101ea366004611fa9565b610b3f565b3480156101fa575f80fd5b5061020e610209366004612172565b610be6565b6040516001600160a01b03909116815260200161011f565b61013b6102343660046121ac565b610c30565b348015610244575f80fd5b50600754600160a01b900460ff1661013b565b348015610262575f80fd5b5061013b610271366004611e89565b610ca5565b61013b6102843660046121ac565b610ed4565b61029c6102973660046120a9565b610fef565b60405190815260200161011f565b3480156102b5575f80fd5b5061013b6102c4366004611e89565b61127a565b3480156102d4575f80fd5b5061013b611598565b6040805160e0810182526060808252602082018190525f928201839052808201526080810182905260a0810182905260c08101919091525f82815260208190526040808220815160e0810190925280548290829061033a906121f7565b80601f0160208091040260200160405190810160405280929190818152602001828054610366906121f7565b80156103b15780601f10610388576101008083540402835291602001916103b1565b820191905f5260205f20905b81548152906001019060200180831161039457829003601f168201915b505050505081526020016001820180546103ca906121f7565b80601f01602080910402602001604051908101604052809291908181526020018280546103f6906121f7565b80156104415780601f1061041857610100808354040283529160200191610441565b820191905f5260205f20905b81548152906001019060200180831161042457829003601f168201915b505050918352505060028201546001600160a01b03166020820152600382018054604090920191610471906121f7565b80601f016020809104026020016040519081016040528092919081815260200182805461049d906121f7565b80156104e85780601f106104bf576101008083540402835291602001916104e8565b820191905f5260205f20905b8154815290600101906020018083116104cb57829003601f168201915b505050918352505060048201546001600160a01b039081166020830152600583015460408084019190915260069093015460ff161515606090920191909152908201519192501633146105955760405162461bcd60e51b815260206004820152602a60248201527f596f75206d6f6e737420626520746865206f776e657220746f2073686f772064604482015269185d18481cda59db995960b21b60648201526084015b60405180910390fd5b92915050565b335f9081526004602052604081205460ff166105b5575f80fd5b6001600160a01b0382165f9081526005602052604090205460ff1615156001036106215760405162461bcd60e51b815260206004820181905260248201527f6164647265737320666f722061646d696e20616c726564792070726f706f7365604482015260640161058c565b6001600160a01b0382165f81815260056020908152604091829020805460ff1916600190811790915591519182527ffcd0029428c001bd11d12d6e8302dda11ac68335a836d75d43004bf4ca7292ef91015b60405180910390a25060015b919050565b335f9081526004602052604090205460609060ff166106a1575f80fd5b6001600160a01b0382165f90815260016020908152604091829020805483518184028101840190945280845290918301828280156106fc57602002820191905f5260205f20905b8154815260200190600101908083116106e8575b50505050509050919050565b335f9081526001602090815260409182902080548351818402810184019094528084526060939283018282801561075c57602002820191905f5260205f20905b815481526020019060010190808311610748575b5050505050905090565b6040805160e0810182526060808252602082018190525f928201839052808201526080810182905260a0810182905260c0810191909152335f9081526004602052604090205460ff166107b7575f80fd5b5f8281526020819052604090819020815160e081019092528054829082906107de906121f7565b80601f016020809104026020016040519081016040528092919081815260200182805461080a906121f7565b80156108555780601f1061082c57610100808354040283529160200191610855565b820191905f5260205f20905b81548152906001019060200180831161083857829003601f168201915b5050505050815260200160018201805461086e906121f7565b80601f016020809104026020016040519081016040528092919081815260200182805461089a906121f7565b80156108e55780601f106108bc576101008083540402835291602001916108e5565b820191905f5260205f20905b8154815290600101906020018083116108c857829003601f168201915b505050918352505060028201546001600160a01b03166020820152600382018054604090920191610915906121f7565b80601f0160208091040260200160405190810160405280929190818152602001828054610941906121f7565b801561098c5780601f106109635761010080835404028352916020019161098c565b820191905f5260205f20905b81548152906001019060200180831161096f57829003601f168201915b505050918352505060048201546001600160a01b031660208201526005820154604082015260069091015460ff16151560609091015292915050565b6007545f906001600160a01b031633146109f45760405162461bcd60e51b815260040161058c9061222f565b6001600160a01b0382165f9081526005602052604090205460ff161515600114610a6c5760405162461bcd60e51b815260206004820152602360248201527f61646472657373206d757374206265207265676973747265642062792061646d604482015262696e7360e81b606482015260840161058c565b6001600160a01b0382165f8181526004602090815260408083208054600160ff19918216811790925560058452938290208054909416909355519182527f9aab773cc5c7f377774352463d765fa3acae0bc1c83c44357f4405639ebab44a9101610673565b335f9081526004602052604081205460ff16610aeb575f80fd5b5f610b298784610afa89610be6565b8760068a604051610b0b9190612266565b908152604051908190036020019020546001600160a01b03166115ef565b9050610b3481610ca5565b979650505050505050565b6007545f906001600160a01b03163314610b6b5760405162461bcd60e51b815260040161058c9061222f565b6001600160a01b038216610bc15760405162461bcd60e51b815260206004820152601d60248201527f4f776e65722063616e27742062652061205a65726f2061646472657373000000604482015260640161058c565b50600780546001600160a01b0383166001600160a01b03199091161790556001919050565b335f9081526004602052604081205460ff16610c00575f80fd5b600382604051610c109190612266565b908152604051908190036020019020546001600160a01b03169050919050565b6007545f906001600160a01b03163314610c5c5760405162461bcd60e51b815260040161058c9061222f565b81600384604051610c6d9190612266565b90815260405190819003602001902080546001600160a01b03929092166001600160a01b031990921691909117905550600192915050565b5f805f808481526020019081526020015f206040518060e00160405290815f82018054610cd1906121f7565b80601f0160208091040260200160405190810160405280929190818152602001828054610cfd906121f7565b8015610d485780601f10610d1f57610100808354040283529160200191610d48565b820191905f5260205f20905b815481529060010190602001808311610d2b57829003601f168201915b50505050508152602001600182018054610d61906121f7565b80601f0160208091040260200160405190810160405280929190818152602001828054610d8d906121f7565b8015610dd85780601f10610daf57610100808354040283529160200191610dd8565b820191905f5260205f20905b815481529060010190602001808311610dbb57829003601f168201915b505050918352505060028201546001600160a01b03166020820152600382018054604090920191610e08906121f7565b80601f0160208091040260200160405190810160405280929190818152602001828054610e34906121f7565b8015610e7f5780601f10610e5657610100808354040283529160200191610e7f565b820191905f5260205f20905b815481529060010190602001808311610e6257829003601f168201915b505050918352505060048201546001600160a01b031660208201526005820154604082015260069091015460ff16151560609091015260a08101519091505f03610ecb57505f92915050565b50600192915050565b6007545f906001600160a01b03163314610f005760405162461bcd60e51b815260040161058c9061222f565b5f6001600160a01b0316600684604051610f1a9190612266565b908152604051908190036020019020546001600160a01b031614610f785760405162461bcd60e51b81526020600482015260156024820152741059191c995cdcc8185b1c9958591e481859191959605a1b604482015260640161058c565b81600684604051610f899190612266565b9081526040516020918190038201812080546001600160a01b0319166001600160a01b0394851617905560018152918416917fa590b4fc649a56bfc2765312a8b4becaa85a972fd5403de3f9a0a4270c40e71e910160405180910390a250600192915050565b6007545f906001600160a01b0316331461101b5760405162461bcd60e51b815260040161058c9061222f565b600754600160a01b900460ff1615156001146110795760405162461bcd60e51b815260206004820152601f60248201527f4d696e74696e67206861732073746f70656420627920746865206f776e657200604482015260640161058c565b5f61108386610be6565b6001600160a01b0316036110d95760405162461bcd60e51b815260206004820152601e60248201527f526966204e6f7420526567697374726564206861732054617870617965720000604482015260640161058c565b5f6001600160a01b03166006856040516110f39190612266565b908152604051908190036020019020546001600160a01b0316036111595760405162461bcd60e51b815260206004820181905260248201527f417070726f766572204e6f7420526567697374726564206861732056616c6964604482015260640161058c565b61116285610be6565b6001600160a01b031660068560405161117b9190612266565b908152604051908190036020019020546001600160a01b0316036111e15760405162461bcd60e51b815260206004820152601d60248201527f417070726f7665722063616e6e6f742070726f76652068696d73656c66000000604482015260640161058c565b5f6111f08784610afa89610be6565b90505f6040518060e0016040528089815260200185815260200161121389610be6565b6001600160a01b031681526020018681526020016006886040516112379190612266565b9081526040805160209281900383019020546001600160a01b031683529082018590526001910152905061126a81611655565b5060a00151979650505050505050565b335f9081526004602052604081205460ff16611294575f80fd5b5f82815260208190526040808220815160e081019092528054829082906112ba906121f7565b80601f01602080910402602001604051908101604052809291908181526020018280546112e6906121f7565b80156113315780601f1061130857610100808354040283529160200191611331565b820191905f5260205f20905b81548152906001019060200180831161131457829003601f168201915b5050505050815260200160018201805461134a906121f7565b80601f0160208091040260200160405190810160405280929190818152602001828054611376906121f7565b80156113c15780601f10611398576101008083540402835291602001916113c1565b820191905f5260205f20905b8154815290600101906020018083116113a457829003601f168201915b505050918352505060028201546001600160a01b031660208201526003820180546040909201916113f1906121f7565b80601f016020809104026020016040519081016040528092919081815260200182805461141d906121f7565b80156114685780601f1061143f57610100808354040283529160200191611468565b820191905f5260205f20905b81548152906001019060200180831161144b57829003601f168201915b505050918352505060048201546001600160a01b03166020820152600582015460408083019190915260069092015460ff1615156060909101528101519091506114b3908490611c20565b6040808201516001600160a01b03165f908152600160209081528282208054845181840281018401909552808552929392909183018282801561151357602002820191905f5260205f20905b8154815260200190600101908083116114ff575b505050505090505f5b815181101561158d578482828151811061153857611538612281565b60200260200101510361157b576040808401516001600160a01b03165f90815260016020522080548290811061157057611570612281565b5f9182526020822001555b8061158581612295565b91505061151c565b506001949350505050565b6007545f906001600160a01b031633146115c45760405162461bcd60e51b815260040161058c9061222f565b506007805460ff600160a01b808304821615810260ff60a01b19909316929092179283905591041690565b6007545f906001600160a01b0316331461161b5760405162461bcd60e51b815260040161058c9061222f565b85858585856040516020016116349594939291906122b9565b60405160208183030381529060405280519060200120905095945050505050565b6007545f906001600160a01b031633146116815760405162461bcd60e51b815260040161058c9061222f565b60a08201515f90815260208190526040808220815160e081019092528054829082906116ac906121f7565b80601f01602080910402602001604051908101604052809291908181526020018280546116d8906121f7565b80156117235780601f106116fa57610100808354040283529160200191611723565b820191905f5260205f20905b81548152906001019060200180831161170657829003601f168201915b5050505050815260200160018201805461173c906121f7565b80601f0160208091040260200160405190810160405280929190818152602001828054611768906121f7565b80156117b35780601f1061178a576101008083540402835291602001916117b3565b820191905f5260205f20905b81548152906001019060200180831161179657829003601f168201915b505050918352505060028201546001600160a01b031660208201526003820180546040909201916117e3906121f7565b80601f016020809104026020016040519081016040528092919081815260200182805461180f906121f7565b801561185a5780601f106118315761010080835404028352916020019161185a565b820191905f5260205f20905b81548152906001019060200180831161183d57829003601f168201915b505050918352505060048201546001600160a01b031660208201526005820154604082015260069091015460ff16151560609091015260c081015190915015156001036118e15760405162461bcd60e51b81526020600482015260156024820152744c6963656e736520416c726564792045786973747360581b604482015260640161058c565b6040808401516001600160a01b03165f908152600160209081528282208054845181840281018401909552808552929392909183018282801561194157602002820191905f5260205f20905b81548152602001906001019080831161192d575b505050505090505f5b8151811015611c0c575f8083838151811061196757611967612281565b602002602001015181526020019081526020015f206040518060e00160405290815f82018054611996906121f7565b80601f01602080910402602001604051908101604052809291908181526020018280546119c2906121f7565b8015611a0d5780601f106119e457610100808354040283529160200191611a0d565b820191905f5260205f20905b8154815290600101906020018083116119f057829003601f168201915b50505050508152602001600182018054611a26906121f7565b80601f0160208091040260200160405190810160405280929190818152602001828054611a52906121f7565b8015611a9d5780601f10611a7457610100808354040283529160200191611a9d565b820191905f5260205f20905b815481529060010190602001808311611a8057829003601f168201915b505050918352505060028201546001600160a01b03166020820152600382018054604090920191611acd906121f7565b80601f0160208091040260200160405190810160405280929190818152602001828054611af9906121f7565b8015611b445780601f10611b1b57610100808354040283529160200191611b44565b820191905f5260205f20905b815481529060010190602001808311611b2757829003601f168201915b505050918352505060048201546001600160a01b03166020808301919091526005830154604083015260069092015460ff161515606090910152868101518051908201208282015180519201919091209194509003611bfa57611bc4828281518110611bb257611bb2612281565b60200260200101518660400151611c20565b6040808601516001600160a01b03165f908152600160205220805482908110611bef57611bef612281565b5f9182526020822001555b80611c0481612295565b91505061194a565b50611c1684611ce4565b5060019392505050565b335f9081526004602052604090205460ff16611c3a575f80fd5b5f82815260208190526040812090611c528282611e37565b611c5f600183015f611e37565b6002820180546001600160a01b0319169055611c7e600383015f611e37565b506004810180546001600160a01b03191690555f6005820155600601805460ff191690556040518281526001600160a01b038216907ffba9aeb04fd7e91a1cb29583e8d8bb97d3874361cc1f0b29f6e33f6d3047d8cf9060200160405180910390a25050565b6007546001600160a01b03163314611d0e5760405162461bcd60e51b815260040161058c9061222f565b60a08101515f90815260208190526040902081518291908190611d319082612366565b5060208201516001820190611d469082612366565b5060408201516002820180546001600160a01b0319166001600160a01b0390921691909117905560608201516003820190611d819082612366565b5060808201516004820180546001600160a01b0319166001600160a01b0392831617905560a080840151600584015560c0909301516006909201805460ff1916921515929092179091556040838101805183165f908152600160208181528483209688018051885493840189559784529281902090910195909555905190519151918252909116917f88b059e42378123793b6b50c667570312662bfbe8c07098828e5639754fa1e5b910160405180910390a250565b508054611e43906121f7565b5f825580601f10611e52575050565b601f0160209004905f5260205f2090810190611e6e9190611e71565b50565b5b80821115611e85575f8155600101611e72565b5090565b5f60208284031215611e99575f80fd5b5035919050565b5f5b83811015611eba578181015183820152602001611ea2565b50505f910152565b5f8151808452611ed9816020860160208601611ea0565b601f01601f19169290920160200192915050565b602081525f825160e06020840152611f09610100840182611ec2565b90506020840151601f1980858403016040860152611f278383611ec2565b60408701516001600160a01b0390811660608881019190915288015187830384016080890152919450909250611f5d8484611ec2565b93508060808801511660a087015250505060a084015160c084015260c0840151611f8b60e085018215159052565b509392505050565b80356001600160a01b038116811461067f575f80fd5b5f60208284031215611fb9575f80fd5b611fc282611f93565b9392505050565b602080825282518282018190525f9190848201906040850190845b8181101561200057835183529284019291840191600101611fe4565b50909695505050505050565b634e487b7160e01b5f52604160045260245ffd5b5f82601f83011261202f575f80fd5b813567ffffffffffffffff8082111561204a5761204a61200c565b604051601f8301601f19908116603f011681019082821181831017156120725761207261200c565b8160405283815286602085880101111561208a575f80fd5b836020870160208301375f602085830101528094505050505092915050565b5f805f805f60a086880312156120bd575f80fd5b853567ffffffffffffffff808211156120d4575f80fd5b6120e089838a01612020565b965060208801359150808211156120f5575f80fd5b61210189838a01612020565b95506040880135915080821115612116575f80fd5b61212289838a01612020565b94506060880135915080821115612137575f80fd5b61214389838a01612020565b93506080880135915080821115612158575f80fd5b5061216588828901612020565b9150509295509295909350565b5f60208284031215612182575f80fd5b813567ffffffffffffffff811115612198575f80fd5b6121a484828501612020565b949350505050565b5f80604083850312156121bd575f80fd5b823567ffffffffffffffff8111156121d3575f80fd5b6121df85828601612020565b9250506121ee60208401611f93565b90509250929050565b600181811c9082168061220b57607f821691505b60208210810361222957634e487b7160e01b5f52602260045260245ffd5b50919050565b60208082526017908201527f4f6e6c79204f776e65722063616e206163746976617465000000000000000000604082015260600190565b5f8251612277818460208701611ea0565b9190910192915050565b634e487b7160e01b5f52603260045260245ffd5b5f600182016122b257634e487b7160e01b5f52601160045260245ffd5b5060010190565b60a081525f6122cb60a0830188611ec2565b82810360208401526122dd8188611ec2565b6001600160a01b03878116604086015284820360608601529091506123028287611ec2565b9250808516608085015250509695505050505050565b601f821115612361575f81815260208120601f850160051c8101602086101561233e5750805b601f850160051c820191505b8181101561235d5782815560010161234a565b5050505b505050565b815167ffffffffffffffff8111156123805761238061200c565b6123948161238e84546121f7565b84612318565b602080601f8311600181146123c7575f84156123b05750858301515b5f19600386901b1c1916600185901b17855561235d565b5f85815260208120601f198616915b828110156123f5578886015182559484019460019091019084016123d6565b508582101561241257878501515f19600388901b60f8161c191681555b5050505050600190811b0190555056fea2646970667358221220a68aef0490d24f83820e76b8a7635720dd243aa342a52e085e691d7374c2f41664736f6c63430008150033",
					"opcodes": "PUSH1 0x80 PUSH1 0x40 MSTORE PUSH1 0x7 DUP1 SLOAD PUSH1 0xFF PUSH1 0xA0 SHL NOT AND PUSH1 0x1 PUSH1 0xA0 SHL OR SWAP1 SSTORE CALLVALUE DUP1 ISZERO PUSH2 0x22 JUMPI PUSH0 DUP1 REVERT JUMPDEST POP CALLER PUSH0 DUP2 DUP2 MSTORE PUSH1 0x4 PUSH1 0x20 MSTORE PUSH1 0x40 SWAP1 KECCAK256 DUP1 SLOAD PUSH1 0xFF NOT AND PUSH1 0x1 OR SWAP1 SSTORE PUSH1 0x7 DUP1 SLOAD PUSH1 0x1 PUSH1 0x1 PUSH1 0xA0 SHL SUB NOT AND SWAP1 SWAP2 OR SWAP1 SSTORE PUSH2 0x2458 DUP1 PUSH2 0x5C PUSH0 CODECOPY PUSH0 RETURN INVALID PUSH1 0x80 PUSH1 0x40 MSTORE PUSH1 0x4 CALLDATASIZE LT PUSH2 0xEF JUMPI PUSH0 CALLDATALOAD PUSH1 0xE0 SHR DUP1 PUSH4 0x84E26B2C GT PUSH2 0x87 JUMPI DUP1 PUSH4 0xC8C2F4FE GT PUSH2 0x57 JUMPI DUP1 PUSH4 0xC8C2F4FE EQ PUSH2 0x276 JUMPI DUP1 PUSH4 0xCE7262A1 EQ PUSH2 0x289 JUMPI DUP1 PUSH4 0xD84AB181 EQ PUSH2 0x2AA JUMPI DUP1 PUSH4 0xDC2AA909 EQ PUSH2 0x2C9 JUMPI PUSH0 DUP1 REVERT JUMPDEST DUP1 PUSH4 0x84E26B2C EQ PUSH2 0x1EF JUMPI DUP1 PUSH4 0x9DFB7831 EQ PUSH2 0x226 JUMPI DUP1 PUSH4 0xBEB9716D EQ PUSH2 0x239 JUMPI DUP1 PUSH4 0xBFF2D536 EQ PUSH2 0x257 JUMPI PUSH0 DUP1 REVERT JUMPDEST DUP1 PUSH4 0x62610492 GT PUSH2 0xC2 JUMPI DUP1 PUSH4 0x62610492 EQ PUSH2 0x18B JUMPI DUP1 PUSH4 0x6D73E669 EQ PUSH2 0x1AA JUMPI DUP1 PUSH4 0x7EA5CC1A EQ PUSH2 0x1BD JUMPI DUP1 PUSH4 0x83FC58B4 EQ PUSH2 0x1DC JUMPI PUSH0 DUP1 REVERT JUMPDEST DUP1 PUSH4 0xC0BD76B EQ PUSH2 0xF3 JUMPI DUP1 PUSH4 0x147BF6C4 EQ PUSH2 0x128 JUMPI DUP1 PUSH4 0x369F6CD7 EQ PUSH2 0x14B JUMPI DUP1 PUSH4 0x3FDE3309 EQ PUSH2 0x177 JUMPI JUMPDEST PUSH0 DUP1 REVERT JUMPDEST CALLVALUE DUP1 ISZERO PUSH2 0xFE JUMPI PUSH0 DUP1 REVERT JUMPDEST POP PUSH2 0x112 PUSH2 0x10D CALLDATASIZE PUSH1 0x4 PUSH2 0x1E89 JUMP JUMPDEST PUSH2 0x2DD JUMP JUMPDEST PUSH1 0x40 MLOAD PUSH2 0x11F SWAP2 SWAP1 PUSH2 0x1EED JUMP JUMPDEST PUSH1 0x40 MLOAD DUP1 SWAP2 SUB SWAP1 RETURN JUMPDEST PUSH2 0x13B PUSH2 0x136 CALLDATASIZE PUSH1 0x4 PUSH2 0x1FA9 JUMP JUMPDEST PUSH2 0x59B JUMP JUMPDEST PUSH1 0x40 MLOAD SWAP1 ISZERO ISZERO DUP2 MSTORE PUSH1 0x20 ADD PUSH2 0x11F JUMP JUMPDEST CALLVALUE DUP1 ISZERO PUSH2 0x156 JUMPI PUSH0 DUP1 REVERT JUMPDEST POP PUSH2 0x16A PUSH2 0x165 CALLDATASIZE PUSH1 0x4 PUSH2 0x1FA9 JUMP JUMPDEST PUSH2 0x684 JUMP JUMPDEST PUSH1 0x40 MLOAD PUSH2 0x11F SWAP2 SWAP1 PUSH2 0x1FC9 JUMP JUMPDEST CALLVALUE DUP1 ISZERO PUSH2 0x182 JUMPI PUSH0 DUP1 REVERT JUMPDEST POP PUSH2 0x16A PUSH2 0x708 JUMP JUMPDEST CALLVALUE DUP1 ISZERO PUSH2 0x196 JUMPI PUSH0 DUP1 REVERT JUMPDEST POP PUSH2 0x112 PUSH2 0x1A5 CALLDATASIZE PUSH1 0x4 PUSH2 0x1E89 JUMP JUMPDEST PUSH2 0x766 JUMP JUMPDEST PUSH2 0x13B PUSH2 0x1B8 CALLDATASIZE PUSH1 0x4 PUSH2 0x1FA9 JUMP JUMPDEST PUSH2 0x9C8 JUMP JUMPDEST CALLVALUE DUP1 ISZERO PUSH2 0x1C8 JUMPI PUSH0 DUP1 REVERT JUMPDEST POP PUSH2 0x13B PUSH2 0x1D7 CALLDATASIZE PUSH1 0x4 PUSH2 0x20A9 JUMP JUMPDEST PUSH2 0xAD1 JUMP JUMPDEST PUSH2 0x13B PUSH2 0x1EA CALLDATASIZE PUSH1 0x4 PUSH2 0x1FA9 JUMP JUMPDEST PUSH2 0xB3F JUMP JUMPDEST CALLVALUE DUP1 ISZERO PUSH2 0x1FA JUMPI PUSH0 DUP1 REVERT JUMPDEST POP PUSH2 0x20E PUSH2 0x209 CALLDATASIZE PUSH1 0x4 PUSH2 0x2172 JUMP JUMPDEST PUSH2 0xBE6 JUMP JUMPDEST PUSH1 0x40 MLOAD PUSH1 0x1 PUSH1 0x1 PUSH1 0xA0 SHL SUB SWAP1 SWAP2 AND DUP2 MSTORE PUSH1 0x20 ADD PUSH2 0x11F JUMP JUMPDEST PUSH2 0x13B PUSH2 0x234 CALLDATASIZE PUSH1 0x4 PUSH2 0x21AC JUMP JUMPDEST PUSH2 0xC30 JUMP JUMPDEST CALLVALUE DUP1 ISZERO PUSH2 0x244 JUMPI PUSH0 DUP1 REVERT JUMPDEST POP PUSH1 0x7 SLOAD PUSH1 0x1 PUSH1 0xA0 SHL SWAP1 DIV PUSH1 0xFF AND PUSH2 0x13B JUMP JUMPDEST CALLVALUE DUP1 ISZERO PUSH2 0x262 JUMPI PUSH0 DUP1 REVERT JUMPDEST POP PUSH2 0x13B PUSH2 0x271 CALLDATASIZE PUSH1 0x4 PUSH2 0x1E89 JUMP JUMPDEST PUSH2 0xCA5 JUMP JUMPDEST PUSH2 0x13B PUSH2 0x284 CALLDATASIZE PUSH1 0x4 PUSH2 0x21AC JUMP JUMPDEST PUSH2 0xED4 JUMP JUMPDEST PUSH2 0x29C PUSH2 0x297 CALLDATASIZE PUSH1 0x4 PUSH2 0x20A9 JUMP JUMPDEST PUSH2 0xFEF JUMP JUMPDEST PUSH1 0x40 MLOAD SWAP1 DUP2 MSTORE PUSH1 0x20 ADD PUSH2 0x11F JUMP JUMPDEST CALLVALUE DUP1 ISZERO PUSH2 0x2B5 JUMPI PUSH0 DUP1 REVERT JUMPDEST POP PUSH2 0x13B PUSH2 0x2C4 CALLDATASIZE PUSH1 0x4 PUSH2 0x1E89 JUMP JUMPDEST PUSH2 0x127A JUMP JUMPDEST CALLVALUE DUP1 ISZERO PUSH2 0x2D4 JUMPI PUSH0 DUP1 REVERT JUMPDEST POP PUSH2 0x13B PUSH2 0x1598 JUMP JUMPDEST PUSH1 0x40 DUP1 MLOAD PUSH1 0xE0 DUP2 ADD DUP3 MSTORE PUSH1 0x60 DUP1 DUP3 MSTORE PUSH1 0x20 DUP3 ADD DUP2 SWAP1 MSTORE PUSH0 SWAP3 DUP3 ADD DUP4 SWAP1 MSTORE DUP1 DUP3 ADD MSTORE PUSH1 0x80 DUP2 ADD DUP3 SWAP1 MSTORE PUSH1 0xA0 DUP2 ADD DUP3 SWAP1 MSTORE PUSH1 0xC0 DUP2 ADD SWAP2 SWAP1 SWAP2 MSTORE PUSH0 DUP3 DUP2 MSTORE PUSH1 0x20 DUP2 SWAP1 MSTORE PUSH1 0x40 DUP1 DUP3 KECCAK256 DUP2 MLOAD PUSH1 0xE0 DUP2 ADD SWAP1 SWAP3 MSTORE DUP1 SLOAD DUP3 SWAP1 DUP3 SWAP1 PUSH2 0x33A SWAP1 PUSH2 0x21F7 JUMP JUMPDEST DUP1 PUSH1 0x1F ADD PUSH1 0x20 DUP1 SWAP2 DIV MUL PUSH1 0x20 ADD PUSH1 0x40 MLOAD SWAP1 DUP2 ADD PUSH1 0x40 MSTORE DUP1 SWAP3 SWAP2 SWAP1 DUP2 DUP2 MSTORE PUSH1 0x20 ADD DUP3 DUP1 SLOAD PUSH2 0x366 SWAP1 PUSH2 0x21F7 JUMP JUMPDEST DUP1 ISZERO PUSH2 0x3B1 JUMPI DUP1 PUSH1 0x1F LT PUSH2 0x388 JUMPI PUSH2 0x100 DUP1 DUP4 SLOAD DIV MUL DUP4 MSTORE SWAP2 PUSH1 0x20 ADD SWAP2 PUSH2 0x3B1 JUMP JUMPDEST DUP3 ADD SWAP2 SWAP1 PUSH0 MSTORE PUSH1 0x20 PUSH0 KECCAK256 SWAP1 JUMPDEST DUP2 SLOAD DUP2 MSTORE SWAP1 PUSH1 0x1 ADD SWAP1 PUSH1 0x20 ADD DUP1 DUP4 GT PUSH2 0x394 JUMPI DUP3 SWAP1 SUB PUSH1 0x1F AND DUP3 ADD SWAP2 JUMPDEST POP POP POP POP POP DUP2 MSTORE PUSH1 0x20 ADD PUSH1 0x1 DUP3 ADD DUP1 SLOAD PUSH2 0x3CA SWAP1 PUSH2 0x21F7 JUMP JUMPDEST DUP1 PUSH1 0x1F ADD PUSH1 0x20 DUP1 SWAP2 DIV MUL PUSH1 0x20 ADD PUSH1 0x40 MLOAD SWAP1 DUP2 ADD PUSH1 0x40 MSTORE DUP1 SWAP3 SWAP2 SWAP1 DUP2 DUP2 MSTORE PUSH1 0x20 ADD DUP3 DUP1 SLOAD PUSH2 0x3F6 SWAP1 PUSH2 0x21F7 JUMP JUMPDEST DUP1 ISZERO PUSH2 0x441 JUMPI DUP1 PUSH1 0x1F LT PUSH2 0x418 JUMPI PUSH2 0x100 DUP1 DUP4 SLOAD DIV MUL DUP4 MSTORE SWAP2 PUSH1 0x20 ADD SWAP2 PUSH2 0x441 JUMP JUMPDEST DUP3 ADD SWAP2 SWAP1 PUSH0 MSTORE PUSH1 0x20 PUSH0 KECCAK256 SWAP1 JUMPDEST DUP2 SLOAD DUP2 MSTORE SWAP1 PUSH1 0x1 ADD SWAP1 PUSH1 0x20 ADD DUP1 DUP4 GT PUSH2 0x424 JUMPI DUP3 SWAP1 SUB PUSH1 0x1F AND DUP3 ADD SWAP2 JUMPDEST POP POP POP SWAP2 DUP4 MSTORE POP POP PUSH1 0x2 DUP3 ADD SLOAD PUSH1 0x1 PUSH1 0x1 PUSH1 0xA0 SHL SUB AND PUSH1 0x20 DUP3 ADD MSTORE PUSH1 0x3 DUP3 ADD DUP1 SLOAD PUSH1 0x40 SWAP1 SWAP3 ADD SWAP2 PUSH2 0x471 SWAP1 PUSH2 0x21F7 JUMP JUMPDEST DUP1 PUSH1 0x1F ADD PUSH1 0x20 DUP1 SWAP2 DIV MUL PUSH1 0x20 ADD PUSH1 0x40 MLOAD SWAP1 DUP2 ADD PUSH1 0x40 MSTORE DUP1 SWAP3 SWAP2 SWAP1 DUP2 DUP2 MSTORE PUSH1 0x20 ADD DUP3 DUP1 SLOAD PUSH2 0x49D SWAP1 PUSH2 0x21F7 JUMP JUMPDEST DUP1 ISZERO PUSH2 0x4E8 JUMPI DUP1 PUSH1 0x1F LT PUSH2 0x4BF JUMPI PUSH2 0x100 DUP1 DUP4 SLOAD DIV MUL DUP4 MSTORE SWAP2 PUSH1 0x20 ADD SWAP2 PUSH2 0x4E8 JUMP JUMPDEST DUP3 ADD SWAP2 SWAP1 PUSH0 MSTORE PUSH1 0x20 PUSH0 KECCAK256 SWAP1 JUMPDEST DUP2 SLOAD DUP2 MSTORE SWAP1 PUSH1 0x1 ADD SWAP1 PUSH1 0x20 ADD DUP1 DUP4 GT PUSH2 0x4CB JUMPI DUP3 SWAP1 SUB PUSH1 0x1F AND DUP3 ADD SWAP2 JUMPDEST POP POP POP SWAP2 DUP4 MSTORE POP POP PUSH1 0x4 DUP3 ADD SLOAD PUSH1 0x1 PUSH1 0x1 PUSH1 0xA0 SHL SUB SWAP1 DUP2 AND PUSH1 0x20 DUP4 ADD MSTORE PUSH1 0x5 DUP4 ADD SLOAD PUSH1 0x40 DUP1 DUP5 ADD SWAP2 SWAP1 SWAP2 MSTORE PUSH1 0x6 SWAP1 SWAP4 ADD SLOAD PUSH1 0xFF AND ISZERO ISZERO PUSH1 0x60 SWAP1 SWAP3 ADD SWAP2 SWAP1 SWAP2 MSTORE SWAP1 DUP3 ADD MLOAD SWAP2 SWAP3 POP AND CALLER EQ PUSH2 0x595 JUMPI PUSH1 0x40 MLOAD PUSH3 0x461BCD PUSH1 0xE5 SHL DUP2 MSTORE PUSH1 0x20 PUSH1 0x4 DUP3 ADD MSTORE PUSH1 0x2A PUSH1 0x24 DUP3 ADD MSTORE PUSH32 0x596F75206D6F6E737420626520746865206F776E657220746F2073686F772064 PUSH1 0x44 DUP3 ADD MSTORE PUSH10 0x185D18481CDA59DB9959 PUSH1 0xB2 SHL PUSH1 0x64 DUP3 ADD MSTORE PUSH1 0x84 ADD JUMPDEST PUSH1 0x40 MLOAD DUP1 SWAP2 SUB SWAP1 REVERT JUMPDEST SWAP3 SWAP2 POP POP JUMP JUMPDEST CALLER PUSH0 SWAP1 DUP2 MSTORE PUSH1 0x4 PUSH1 0x20 MSTORE PUSH1 0x40 DUP2 KECCAK256 SLOAD PUSH1 0xFF AND PUSH2 0x5B5 JUMPI PUSH0 DUP1 REVERT JUMPDEST PUSH1 0x1 PUSH1 0x1 PUSH1 0xA0 SHL SUB DUP3 AND PUSH0 SWAP1 DUP2 MSTORE PUSH1 0x5 PUSH1 0x20 MSTORE PUSH1 0x40 SWAP1 KECCAK256 SLOAD PUSH1 0xFF AND ISZERO ISZERO PUSH1 0x1 SUB PUSH2 0x621 JUMPI PUSH1 0x40 MLOAD PUSH3 0x461BCD PUSH1 0xE5 SHL DUP2 MSTORE PUSH1 0x20 PUSH1 0x4 DUP3 ADD DUP2 SWAP1 MSTORE PUSH1 0x24 DUP3 ADD MSTORE PUSH32 0x6164647265737320666F722061646D696E20616C726564792070726F706F7365 PUSH1 0x44 DUP3 ADD MSTORE PUSH1 0x64 ADD PUSH2 0x58C JUMP JUMPDEST PUSH1 0x1 PUSH1 0x1 PUSH1 0xA0 SHL SUB DUP3 AND PUSH0 DUP2 DUP2 MSTORE PUSH1 0x5 PUSH1 0x20 SWAP1 DUP2 MSTORE PUSH1 0x40 SWAP2 DUP3 SWAP1 KECCAK256 DUP1 SLOAD PUSH1 0xFF NOT AND PUSH1 0x1 SWAP1 DUP2 OR SWAP1 SWAP2 SSTORE SWAP2 MLOAD SWAP2 DUP3 MSTORE PUSH32 0xFCD0029428C001BD11D12D6E8302DDA11AC68335A836D75D43004BF4CA7292EF SWAP2 ADD JUMPDEST PUSH1 0x40 MLOAD DUP1 SWAP2 SUB SWAP1 LOG2 POP PUSH1 0x1 JUMPDEST SWAP2 SWAP1 POP JUMP JUMPDEST CALLER PUSH0 SWAP1 DUP2 MSTORE PUSH1 0x4 PUSH1 0x20 MSTORE PUSH1 0x40 SWAP1 KECCAK256 SLOAD PUSH1 0x60 SWAP1 PUSH1 0xFF AND PUSH2 0x6A1 JUMPI PUSH0 DUP1 REVERT JUMPDEST PUSH1 0x1 PUSH1 0x1 PUSH1 0xA0 SHL SUB DUP3 AND PUSH0 SWAP1 DUP2 MSTORE PUSH1 0x1 PUSH1 0x20 SWAP1 DUP2 MSTORE PUSH1 0x40 SWAP2 DUP3 SWAP1 KECCAK256 DUP1 SLOAD DUP4 MLOAD DUP2 DUP5 MUL DUP2 ADD DUP5 ADD SWAP1 SWAP5 MSTORE DUP1 DUP5 MSTORE SWAP1 SWAP2 DUP4 ADD DUP3 DUP3 DUP1 ISZERO PUSH2 0x6FC JUMPI PUSH1 0x20 MUL DUP3 ADD SWAP2 SWAP1 PUSH0 MSTORE PUSH1 0x20 PUSH0 KECCAK256 SWAP1 JUMPDEST DUP2 SLOAD DUP2 MSTORE PUSH1 0x20 ADD SWAP1 PUSH1 0x1 ADD SWAP1 DUP1 DUP4 GT PUSH2 0x6E8 JUMPI JUMPDEST POP POP POP POP POP SWAP1 POP SWAP2 SWAP1 POP JUMP JUMPDEST CALLER PUSH0 SWAP1 DUP2 MSTORE PUSH1 0x1 PUSH1 0x20 SWAP1 DUP2 MSTORE PUSH1 0x40 SWAP2 DUP3 SWAP1 KECCAK256 DUP1 SLOAD DUP4 MLOAD DUP2 DUP5 MUL DUP2 ADD DUP5 ADD SWAP1 SWAP5 MSTORE DUP1 DUP5 MSTORE PUSH1 0x60 SWAP4 SWAP3 DUP4 ADD DUP3 DUP3 DUP1 ISZERO PUSH2 0x75C JUMPI PUSH1 0x20 MUL DUP3 ADD SWAP2 SWAP1 PUSH0 MSTORE PUSH1 0x20 PUSH0 KECCAK256 SWAP1 JUMPDEST DUP2 SLOAD DUP2 MSTORE PUSH1 0x20 ADD SWAP1 PUSH1 0x1 ADD SWAP1 DUP1 DUP4 GT PUSH2 0x748 JUMPI JUMPDEST POP POP POP POP POP SWAP1 POP SWAP1 JUMP JUMPDEST PUSH1 0x40 DUP1 MLOAD PUSH1 0xE0 DUP2 ADD DUP3 MSTORE PUSH1 0x60 DUP1 DUP3 MSTORE PUSH1 0x20 DUP3 ADD DUP2 SWAP1 MSTORE PUSH0 SWAP3 DUP3 ADD DUP4 SWAP1 MSTORE DUP1 DUP3 ADD MSTORE PUSH1 0x80 DUP2 ADD DUP3 SWAP1 MSTORE PUSH1 0xA0 DUP2 ADD DUP3 SWAP1 MSTORE PUSH1 0xC0 DUP2 ADD SWAP2 SWAP1 SWAP2 MSTORE CALLER PUSH0 SWAP1 DUP2 MSTORE PUSH1 0x4 PUSH1 0x20 MSTORE PUSH1 0x40 SWAP1 KECCAK256 SLOAD PUSH1 0xFF AND PUSH2 0x7B7 JUMPI PUSH0 DUP1 REVERT JUMPDEST PUSH0 DUP3 DUP2 MSTORE PUSH1 0x20 DUP2 SWAP1 MSTORE PUSH1 0x40 SWAP1 DUP2 SWAP1 KECCAK256 DUP2 MLOAD PUSH1 0xE0 DUP2 ADD SWAP1 SWAP3 MSTORE DUP1 SLOAD DUP3 SWAP1 DUP3 SWAP1 PUSH2 0x7DE SWAP1 PUSH2 0x21F7 JUMP JUMPDEST DUP1 PUSH1 0x1F ADD PUSH1 0x20 DUP1 SWAP2 DIV MUL PUSH1 0x20 ADD PUSH1 0x40 MLOAD SWAP1 DUP2 ADD PUSH1 0x40 MSTORE DUP1 SWAP3 SWAP2 SWAP1 DUP2 DUP2 MSTORE PUSH1 0x20 ADD DUP3 DUP1 SLOAD PUSH2 0x80A SWAP1 PUSH2 0x21F7 JUMP JUMPDEST DUP1 ISZERO PUSH2 0x855 JUMPI DUP1 PUSH1 0x1F LT PUSH2 0x82C JUMPI PUSH2 0x100 DUP1 DUP4 SLOAD DIV MUL DUP4 MSTORE SWAP2 PUSH1 0x20 ADD SWAP2 PUSH2 0x855 JUMP JUMPDEST DUP3 ADD SWAP2 SWAP1 PUSH0 MSTORE PUSH1 0x20 PUSH0 KECCAK256 SWAP1 JUMPDEST DUP2 SLOAD DUP2 MSTORE SWAP1 PUSH1 0x1 ADD SWAP1 PUSH1 0x20 ADD DUP1 DUP4 GT PUSH2 0x838 JUMPI DUP3 SWAP1 SUB PUSH1 0x1F AND DUP3 ADD SWAP2 JUMPDEST POP POP POP POP POP DUP2 MSTORE PUSH1 0x20 ADD PUSH1 0x1 DUP3 ADD DUP1 SLOAD PUSH2 0x86E SWAP1 PUSH2 0x21F7 JUMP JUMPDEST DUP1 PUSH1 0x1F ADD PUSH1 0x20 DUP1 SWAP2 DIV MUL PUSH1 0x20 ADD PUSH1 0x40 MLOAD SWAP1 DUP2 ADD PUSH1 0x40 MSTORE DUP1 SWAP3 SWAP2 SWAP1 DUP2 DUP2 MSTORE PUSH1 0x20 ADD DUP3 DUP1 SLOAD PUSH2 0x89A SWAP1 PUSH2 0x21F7 JUMP JUMPDEST DUP1 ISZERO PUSH2 0x8E5 JUMPI DUP1 PUSH1 0x1F LT PUSH2 0x8BC JUMPI PUSH2 0x100 DUP1 DUP4 SLOAD DIV MUL DUP4 MSTORE SWAP2 PUSH1 0x20 ADD SWAP2 PUSH2 0x8E5 JUMP JUMPDEST DUP3 ADD SWAP2 SWAP1 PUSH0 MSTORE PUSH1 0x20 PUSH0 KECCAK256 SWAP1 JUMPDEST DUP2 SLOAD DUP2 MSTORE SWAP1 PUSH1 0x1 ADD SWAP1 PUSH1 0x20 ADD DUP1 DUP4 GT PUSH2 0x8C8 JUMPI DUP3 SWAP1 SUB PUSH1 0x1F AND DUP3 ADD SWAP2 JUMPDEST POP POP POP SWAP2 DUP4 MSTORE POP POP PUSH1 0x2 DUP3 ADD SLOAD PUSH1 0x1 PUSH1 0x1 PUSH1 0xA0 SHL SUB AND PUSH1 0x20 DUP3 ADD MSTORE PUSH1 0x3 DUP3 ADD DUP1 SLOAD PUSH1 0x40 SWAP1 SWAP3 ADD SWAP2 PUSH2 0x915 SWAP1 PUSH2 0x21F7 JUMP JUMPDEST DUP1 PUSH1 0x1F ADD PUSH1 0x20 DUP1 SWAP2 DIV MUL PUSH1 0x20 ADD PUSH1 0x40 MLOAD SWAP1 DUP2 ADD PUSH1 0x40 MSTORE DUP1 SWAP3 SWAP2 SWAP1 DUP2 DUP2 MSTORE PUSH1 0x20 ADD DUP3 DUP1 SLOAD PUSH2 0x941 SWAP1 PUSH2 0x21F7 JUMP JUMPDEST DUP1 ISZERO PUSH2 0x98C JUMPI DUP1 PUSH1 0x1F LT PUSH2 0x963 JUMPI PUSH2 0x100 DUP1 DUP4 SLOAD DIV MUL DUP4 MSTORE SWAP2 PUSH1 0x20 ADD SWAP2 PUSH2 0x98C JUMP JUMPDEST DUP3 ADD SWAP2 SWAP1 PUSH0 MSTORE PUSH1 0x20 PUSH0 KECCAK256 SWAP1 JUMPDEST DUP2 SLOAD DUP2 MSTORE SWAP1 PUSH1 0x1 ADD SWAP1 PUSH1 0x20 ADD DUP1 DUP4 GT PUSH2 0x96F JUMPI DUP3 SWAP1 SUB PUSH1 0x1F AND DUP3 ADD SWAP2 JUMPDEST POP POP POP SWAP2 DUP4 MSTORE POP POP PUSH1 0x4 DUP3 ADD SLOAD PUSH1 0x1 PUSH1 0x1 PUSH1 0xA0 SHL SUB AND PUSH1 0x20 DUP3 ADD MSTORE PUSH1 0x5 DUP3 ADD SLOAD PUSH1 0x40 DUP3 ADD MSTORE PUSH1 0x6 SWAP1 SWAP2 ADD SLOAD PUSH1 0xFF AND ISZERO ISZERO PUSH1 0x60 SWAP1 SWAP2 ADD MSTORE SWAP3 SWAP2 POP POP JUMP JUMPDEST PUSH1 0x7 SLOAD PUSH0 SWAP1 PUSH1 0x1 PUSH1 0x1 PUSH1 0xA0 SHL SUB AND CALLER EQ PUSH2 0x9F4 JUMPI PUSH1 0x40 MLOAD PUSH3 0x461BCD PUSH1 0xE5 SHL DUP2 MSTORE PUSH1 0x4 ADD PUSH2 0x58C SWAP1 PUSH2 0x222F JUMP JUMPDEST PUSH1 0x1 PUSH1 0x1 PUSH1 0xA0 SHL SUB DUP3 AND PUSH0 SWAP1 DUP2 MSTORE PUSH1 0x5 PUSH1 0x20 MSTORE PUSH1 0x40 SWAP1 KECCAK256 SLOAD PUSH1 0xFF AND ISZERO ISZERO PUSH1 0x1 EQ PUSH2 0xA6C JUMPI PUSH1 0x40 MLOAD PUSH3 0x461BCD PUSH1 0xE5 SHL DUP2 MSTORE PUSH1 0x20 PUSH1 0x4 DUP3 ADD MSTORE PUSH1 0x23 PUSH1 0x24 DUP3 ADD MSTORE PUSH32 0x61646472657373206D757374206265207265676973747265642062792061646D PUSH1 0x44 DUP3 ADD MSTORE PUSH3 0x696E73 PUSH1 0xE8 SHL PUSH1 0x64 DUP3 ADD MSTORE PUSH1 0x84 ADD PUSH2 0x58C JUMP JUMPDEST PUSH1 0x1 PUSH1 0x1 PUSH1 0xA0 SHL SUB DUP3 AND PUSH0 DUP2 DUP2 MSTORE PUSH1 0x4 PUSH1 0x20 SWAP1 DUP2 MSTORE PUSH1 0x40 DUP1 DUP4 KECCAK256 DUP1 SLOAD PUSH1 0x1 PUSH1 0xFF NOT SWAP2 DUP3 AND DUP2 OR SWAP1 SWAP3 SSTORE PUSH1 0x5 DUP5 MSTORE SWAP4 DUP3 SWAP1 KECCAK256 DUP1 SLOAD SWAP1 SWAP5 AND SWAP1 SWAP4 SSTORE MLOAD SWAP2 DUP3 MSTORE PUSH32 0x9AAB773CC5C7F377774352463D765FA3ACAE0BC1C83C44357F4405639EBAB44A SWAP2 ADD PUSH2 0x673 JUMP JUMPDEST CALLER PUSH0 SWAP1 DUP2 MSTORE PUSH1 0x4 PUSH1 0x20 MSTORE PUSH1 0x40 DUP2 KECCAK256 SLOAD PUSH1 0xFF AND PUSH2 0xAEB JUMPI PUSH0 DUP1 REVERT JUMPDEST PUSH0 PUSH2 0xB29 DUP8 DUP5 PUSH2 0xAFA DUP10 PUSH2 0xBE6 JUMP JUMPDEST DUP8 PUSH1 0x6 DUP11 PUSH1 0x40 MLOAD PUSH2 0xB0B SWAP2 SWAP1 PUSH2 0x2266 JUMP JUMPDEST SWAP1 DUP2 MSTORE PUSH1 0x40 MLOAD SWAP1 DUP2 SWAP1 SUB PUSH1 0x20 ADD SWAP1 KECCAK256 SLOAD PUSH1 0x1 PUSH1 0x1 PUSH1 0xA0 SHL SUB AND PUSH2 0x15EF JUMP JUMPDEST SWAP1 POP PUSH2 0xB34 DUP2 PUSH2 0xCA5 JUMP JUMPDEST SWAP8 SWAP7 POP POP POP POP POP POP POP JUMP JUMPDEST PUSH1 0x7 SLOAD PUSH0 SWAP1 PUSH1 0x1 PUSH1 0x1 PUSH1 0xA0 SHL SUB AND CALLER EQ PUSH2 0xB6B JUMPI PUSH1 0x40 MLOAD PUSH3 0x461BCD PUSH1 0xE5 SHL DUP2 MSTORE PUSH1 0x4 ADD PUSH2 0x58C SWAP1 PUSH2 0x222F JUMP JUMPDEST PUSH1 0x1 PUSH1 0x1 PUSH1 0xA0 SHL SUB DUP3 AND PUSH2 0xBC1 JUMPI PUSH1 0x40 MLOAD PUSH3 0x461BCD PUSH1 0xE5 SHL DUP2 MSTORE PUSH1 0x20 PUSH1 0x4 DUP3 ADD MSTORE PUSH1 0x1D PUSH1 0x24 DUP3 ADD MSTORE PUSH32 0x4F776E65722063616E27742062652061205A65726F2061646472657373000000 PUSH1 0x44 DUP3 ADD MSTORE PUSH1 0x64 ADD PUSH2 0x58C JUMP JUMPDEST POP PUSH1 0x7 DUP1 SLOAD PUSH1 0x1 PUSH1 0x1 PUSH1 0xA0 SHL SUB DUP4 AND PUSH1 0x1 PUSH1 0x1 PUSH1 0xA0 SHL SUB NOT SWAP1 SWAP2 AND OR SWAP1 SSTORE PUSH1 0x1 SWAP2 SWAP1 POP JUMP JUMPDEST CALLER PUSH0 SWAP1 DUP2 MSTORE PUSH1 0x4 PUSH1 0x20 MSTORE PUSH1 0x40 DUP2 KECCAK256 SLOAD PUSH1 0xFF AND PUSH2 0xC00 JUMPI PUSH0 DUP1 REVERT JUMPDEST PUSH1 0x3 DUP3 PUSH1 0x40 MLOAD PUSH2 0xC10 SWAP2 SWAP1 PUSH2 0x2266 JUMP JUMPDEST SWAP1 DUP2 MSTORE PUSH1 0x40 MLOAD SWAP1 DUP2 SWAP1 SUB PUSH1 0x20 ADD SWAP1 KECCAK256 SLOAD PUSH1 0x1 PUSH1 0x1 PUSH1 0xA0 SHL SUB AND SWAP1 POP SWAP2 SWAP1 POP JUMP JUMPDEST PUSH1 0x7 SLOAD PUSH0 SWAP1 PUSH1 0x1 PUSH1 0x1 PUSH1 0xA0 SHL SUB AND CALLER EQ PUSH2 0xC5C JUMPI PUSH1 0x40 MLOAD PUSH3 0x461BCD PUSH1 0xE5 SHL DUP2 MSTORE PUSH1 0x4 ADD PUSH2 0x58C SWAP1 PUSH2 0x222F JUMP JUMPDEST DUP2 PUSH1 0x3 DUP5 PUSH1 0x40 MLOAD PUSH2 0xC6D SWAP2 SWAP1 PUSH2 0x2266 JUMP JUMPDEST SWAP1 DUP2 MSTORE PUSH1 0x40 MLOAD SWAP1 DUP2 SWAP1 SUB PUSH1 0x20 ADD SWAP1 KECCAK256 DUP1 SLOAD PUSH1 0x1 PUSH1 0x1 PUSH1 0xA0 SHL SUB SWAP3 SWAP1 SWAP3 AND PUSH1 0x1 PUSH1 0x1 PUSH1 0xA0 SHL SUB NOT SWAP1 SWAP3 AND SWAP2 SWAP1 SWAP2 OR SWAP1 SSTORE POP PUSH1 0x1 SWAP3 SWAP2 POP POP JUMP JUMPDEST PUSH0 DUP1 PUSH0 DUP1 DUP5 DUP2 MSTORE PUSH1 0x20 ADD SWAP1 DUP2 MSTORE PUSH1 0x20 ADD PUSH0 KECCAK256 PUSH1 0x40 MLOAD DUP1 PUSH1 0xE0 ADD PUSH1 0x40 MSTORE SWAP1 DUP2 PUSH0 DUP3 ADD DUP1 SLOAD PUSH2 0xCD1 SWAP1 PUSH2 0x21F7 JUMP JUMPDEST DUP1 PUSH1 0x1F ADD PUSH1 0x20 DUP1 SWAP2 DIV MUL PUSH1 0x20 ADD PUSH1 0x40 MLOAD SWAP1 DUP2 ADD PUSH1 0x40 MSTORE DUP1 SWAP3 SWAP2 SWAP1 DUP2 DUP2 MSTORE PUSH1 0x20 ADD DUP3 DUP1 SLOAD PUSH2 0xCFD SWAP1 PUSH2 0x21F7 JUMP JUMPDEST DUP1 ISZERO PUSH2 0xD48 JUMPI DUP1 PUSH1 0x1F LT PUSH2 0xD1F JUMPI PUSH2 0x100 DUP1 DUP4 SLOAD DIV MUL DUP4 MSTORE SWAP2 PUSH1 0x20 ADD SWAP2 PUSH2 0xD48 JUMP JUMPDEST DUP3 ADD SWAP2 SWAP1 PUSH0 MSTORE PUSH1 0x20 PUSH0 KECCAK256 SWAP1 JUMPDEST DUP2 SLOAD DUP2 MSTORE SWAP1 PUSH1 0x1 ADD SWAP1 PUSH1 0x20 ADD DUP1 DUP4 GT PUSH2 0xD2B JUMPI DUP3 SWAP1 SUB PUSH1 0x1F AND DUP3 ADD SWAP2 JUMPDEST POP POP POP POP POP DUP2 MSTORE PUSH1 0x20 ADD PUSH1 0x1 DUP3 ADD DUP1 SLOAD PUSH2 0xD61 SWAP1 PUSH2 0x21F7 JUMP JUMPDEST DUP1 PUSH1 0x1F ADD PUSH1 0x20 DUP1 SWAP2 DIV MUL PUSH1 0x20 ADD PUSH1 0x40 MLOAD SWAP1 DUP2 ADD PUSH1 0x40 MSTORE DUP1 SWAP3 SWAP2 SWAP1 DUP2 DUP2 MSTORE PUSH1 0x20 ADD DUP3 DUP1 SLOAD PUSH2 0xD8D SWAP1 PUSH2 0x21F7 JUMP JUMPDEST DUP1 ISZERO PUSH2 0xDD8 JUMPI DUP1 PUSH1 0x1F LT PUSH2 0xDAF JUMPI PUSH2 0x100 DUP1 DUP4 SLOAD DIV MUL DUP4 MSTORE SWAP2 PUSH1 0x20 ADD SWAP2 PUSH2 0xDD8 JUMP JUMPDEST DUP3 ADD SWAP2 SWAP1 PUSH0 MSTORE PUSH1 0x20 PUSH0 KECCAK256 SWAP1 JUMPDEST DUP2 SLOAD DUP2 MSTORE SWAP1 PUSH1 0x1 ADD SWAP1 PUSH1 0x20 ADD DUP1 DUP4 GT PUSH2 0xDBB JUMPI DUP3 SWAP1 SUB PUSH1 0x1F AND DUP3 ADD SWAP2 JUMPDEST POP POP POP SWAP2 DUP4 MSTORE POP POP PUSH1 0x2 DUP3 ADD SLOAD PUSH1 0x1 PUSH1 0x1 PUSH1 0xA0 SHL SUB AND PUSH1 0x20 DUP3 ADD MSTORE PUSH1 0x3 DUP3 ADD DUP1 SLOAD PUSH1 0x40 SWAP1 SWAP3 ADD SWAP2 PUSH2 0xE08 SWAP1 PUSH2 0x21F7 JUMP JUMPDEST DUP1 PUSH1 0x1F ADD PUSH1 0x20 DUP1 SWAP2 DIV MUL PUSH1 0x20 ADD PUSH1 0x40 MLOAD SWAP1 DUP2 ADD PUSH1 0x40 MSTORE DUP1 SWAP3 SWAP2 SWAP1 DUP2 DUP2 MSTORE PUSH1 0x20 ADD DUP3 DUP1 SLOAD PUSH2 0xE34 SWAP1 PUSH2 0x21F7 JUMP JUMPDEST DUP1 ISZERO PUSH2 0xE7F JUMPI DUP1 PUSH1 0x1F LT PUSH2 0xE56 JUMPI PUSH2 0x100 DUP1 DUP4 SLOAD DIV MUL DUP4 MSTORE SWAP2 PUSH1 0x20 ADD SWAP2 PUSH2 0xE7F JUMP JUMPDEST DUP3 ADD SWAP2 SWAP1 PUSH0 MSTORE PUSH1 0x20 PUSH0 KECCAK256 SWAP1 JUMPDEST DUP2 SLOAD DUP2 MSTORE SWAP1 PUSH1 0x1 ADD SWAP1 PUSH1 0x20 ADD DUP1 DUP4 GT PUSH2 0xE62 JUMPI DUP3 SWAP1 SUB PUSH1 0x1F AND DUP3 ADD SWAP2 JUMPDEST POP POP POP SWAP2 DUP4 MSTORE POP POP PUSH1 0x4 DUP3 ADD SLOAD PUSH1 0x1 PUSH1 0x1 PUSH1 0xA0 SHL SUB AND PUSH1 0x20 DUP3 ADD MSTORE PUSH1 0x5 DUP3 ADD SLOAD PUSH1 0x40 DUP3 ADD MSTORE PUSH1 0x6 SWAP1 SWAP2 ADD SLOAD PUSH1 0xFF AND ISZERO ISZERO PUSH1 0x60 SWAP1 SWAP2 ADD MSTORE PUSH1 0xA0 DUP2 ADD MLOAD SWAP1 SWAP2 POP PUSH0 SUB PUSH2 0xECB JUMPI POP PUSH0 SWAP3 SWAP2 POP POP JUMP JUMPDEST POP PUSH1 0x1 SWAP3 SWAP2 POP POP JUMP JUMPDEST PUSH1 0x7 SLOAD PUSH0 SWAP1 PUSH1 0x1 PUSH1 0x1 PUSH1 0xA0 SHL SUB AND CALLER EQ PUSH2 0xF00 JUMPI PUSH1 0x40 MLOAD PUSH3 0x461BCD PUSH1 0xE5 SHL DUP2 MSTORE PUSH1 0x4 ADD PUSH2 0x58C SWAP1 PUSH2 0x222F JUMP JUMPDEST PUSH0 PUSH1 0x1 PUSH1 0x1 PUSH1 0xA0 SHL SUB AND PUSH1 0x6 DUP5 PUSH1 0x40 MLOAD PUSH2 0xF1A SWAP2 SWAP1 PUSH2 0x2266 JUMP JUMPDEST SWAP1 DUP2 MSTORE PUSH1 0x40 MLOAD SWAP1 DUP2 SWAP1 SUB PUSH1 0x20 ADD SWAP1 KECCAK256 SLOAD PUSH1 0x1 PUSH1 0x1 PUSH1 0xA0 SHL SUB AND EQ PUSH2 0xF78 JUMPI PUSH1 0x40 MLOAD PUSH3 0x461BCD PUSH1 0xE5 SHL DUP2 MSTORE PUSH1 0x20 PUSH1 0x4 DUP3 ADD MSTORE PUSH1 0x15 PUSH1 0x24 DUP3 ADD MSTORE PUSH21 0x1059191C995CDCC8185B1C9958591E481859191959 PUSH1 0x5A SHL PUSH1 0x44 DUP3 ADD MSTORE PUSH1 0x64 ADD PUSH2 0x58C JUMP JUMPDEST DUP2 PUSH1 0x6 DUP5 PUSH1 0x40 MLOAD PUSH2 0xF89 SWAP2 SWAP1 PUSH2 0x2266 JUMP JUMPDEST SWAP1 DUP2 MSTORE PUSH1 0x40 MLOAD PUSH1 0x20 SWAP2 DUP2 SWAP1 SUB DUP3 ADD DUP2 KECCAK256 DUP1 SLOAD PUSH1 0x1 PUSH1 0x1 PUSH1 0xA0 SHL SUB NOT AND PUSH1 0x1 PUSH1 0x1 PUSH1 0xA0 SHL SUB SWAP5 DUP6 AND OR SWAP1 SSTORE PUSH1 0x1 DUP2 MSTORE SWAP2 DUP5 AND SWAP2 PUSH32 0xA590B4FC649A56BFC2765312A8B4BECAA85A972FD5403DE3F9A0A4270C40E71E SWAP2 ADD PUSH1 0x40 MLOAD DUP1 SWAP2 SUB SWAP1 LOG2 POP PUSH1 0x1 SWAP3 SWAP2 POP POP JUMP JUMPDEST PUSH1 0x7 SLOAD PUSH0 SWAP1 PUSH1 0x1 PUSH1 0x1 PUSH1 0xA0 SHL SUB AND CALLER EQ PUSH2 0x101B JUMPI PUSH1 0x40 MLOAD PUSH3 0x461BCD PUSH1 0xE5 SHL DUP2 MSTORE PUSH1 0x4 ADD PUSH2 0x58C SWAP1 PUSH2 0x222F JUMP JUMPDEST PUSH1 0x7 SLOAD PUSH1 0x1 PUSH1 0xA0 SHL SWAP1 DIV PUSH1 0xFF AND ISZERO ISZERO PUSH1 0x1 EQ PUSH2 0x1079 JUMPI PUSH1 0x40 MLOAD PUSH3 0x461BCD PUSH1 0xE5 SHL DUP2 MSTORE PUSH1 0x20 PUSH1 0x4 DUP3 ADD MSTORE PUSH1 0x1F PUSH1 0x24 DUP3 ADD MSTORE PUSH32 0x4D696E74696E67206861732073746F70656420627920746865206F776E657200 PUSH1 0x44 DUP3 ADD MSTORE PUSH1 0x64 ADD PUSH2 0x58C JUMP JUMPDEST PUSH0 PUSH2 0x1083 DUP7 PUSH2 0xBE6 JUMP JUMPDEST PUSH1 0x1 PUSH1 0x1 PUSH1 0xA0 SHL SUB AND SUB PUSH2 0x10D9 JUMPI PUSH1 0x40 MLOAD PUSH3 0x461BCD PUSH1 0xE5 SHL DUP2 MSTORE PUSH1 0x20 PUSH1 0x4 DUP3 ADD MSTORE PUSH1 0x1E PUSH1 0x24 DUP3 ADD MSTORE PUSH32 0x526966204E6F7420526567697374726564206861732054617870617965720000 PUSH1 0x44 DUP3 ADD MSTORE PUSH1 0x64 ADD PUSH2 0x58C JUMP JUMPDEST PUSH0 PUSH1 0x1 PUSH1 0x1 PUSH1 0xA0 SHL SUB AND PUSH1 0x6 DUP6 PUSH1 0x40 MLOAD PUSH2 0x10F3 SWAP2 SWAP1 PUSH2 0x2266 JUMP JUMPDEST SWAP1 DUP2 MSTORE PUSH1 0x40 MLOAD SWAP1 DUP2 SWAP1 SUB PUSH1 0x20 ADD SWAP1 KECCAK256 SLOAD PUSH1 0x1 PUSH1 0x1 PUSH1 0xA0 SHL SUB AND SUB PUSH2 0x1159 JUMPI PUSH1 0x40 MLOAD PUSH3 0x461BCD PUSH1 0xE5 SHL DUP2 MSTORE PUSH1 0x20 PUSH1 0x4 DUP3 ADD DUP2 SWAP1 MSTORE PUSH1 0x24 DUP3 ADD MSTORE PUSH32 0x417070726F766572204E6F7420526567697374726564206861732056616C6964 PUSH1 0x44 DUP3 ADD MSTORE PUSH1 0x64 ADD PUSH2 0x58C JUMP JUMPDEST PUSH2 0x1162 DUP6 PUSH2 0xBE6 JUMP JUMPDEST PUSH1 0x1 PUSH1 0x1 PUSH1 0xA0 SHL SUB AND PUSH1 0x6 DUP6 PUSH1 0x40 MLOAD PUSH2 0x117B SWAP2 SWAP1 PUSH2 0x2266 JUMP JUMPDEST SWAP1 DUP2 MSTORE PUSH1 0x40 MLOAD SWAP1 DUP2 SWAP1 SUB PUSH1 0x20 ADD SWAP1 KECCAK256 SLOAD PUSH1 0x1 PUSH1 0x1 PUSH1 0xA0 SHL SUB AND SUB PUSH2 0x11E1 JUMPI PUSH1 0x40 MLOAD PUSH3 0x461BCD PUSH1 0xE5 SHL DUP2 MSTORE PUSH1 0x20 PUSH1 0x4 DUP3 ADD MSTORE PUSH1 0x1D PUSH1 0x24 DUP3 ADD MSTORE PUSH32 0x417070726F7665722063616E6E6F742070726F76652068696D73656C66000000 PUSH1 0x44 DUP3 ADD MSTORE PUSH1 0x64 ADD PUSH2 0x58C JUMP JUMPDEST PUSH0 PUSH2 0x11F0 DUP8 DUP5 PUSH2 0xAFA DUP10 PUSH2 0xBE6 JUMP JUMPDEST SWAP1 POP PUSH0 PUSH1 0x40 MLOAD DUP1 PUSH1 0xE0 ADD PUSH1 0x40 MSTORE DUP1 DUP10 DUP2 MSTORE PUSH1 0x20 ADD DUP6 DUP2 MSTORE PUSH1 0x20 ADD PUSH2 0x1213 DUP10 PUSH2 0xBE6 JUMP JUMPDEST PUSH1 0x1 PUSH1 0x1 PUSH1 0xA0 SHL SUB AND DUP2 MSTORE PUSH1 0x20 ADD DUP7 DUP2 MSTORE PUSH1 0x20 ADD PUSH1 0x6 DUP9 PUSH1 0x40 MLOAD PUSH2 0x1237 SWAP2 SWAP1 PUSH2 0x2266 JUMP JUMPDEST SWAP1 DUP2 MSTORE PUSH1 0x40 DUP1 MLOAD PUSH1 0x20 SWAP3 DUP2 SWAP1 SUB DUP4 ADD SWAP1 KECCAK256 SLOAD PUSH1 0x1 PUSH1 0x1 PUSH1 0xA0 SHL SUB AND DUP4 MSTORE SWAP1 DUP3 ADD DUP6 SWAP1 MSTORE PUSH1 0x1 SWAP2 ADD MSTORE SWAP1 POP PUSH2 0x126A DUP2 PUSH2 0x1655 JUMP JUMPDEST POP PUSH1 0xA0 ADD MLOAD SWAP8 SWAP7 POP POP POP POP POP POP POP JUMP JUMPDEST CALLER PUSH0 SWAP1 DUP2 MSTORE PUSH1 0x4 PUSH1 0x20 MSTORE PUSH1 0x40 DUP2 KECCAK256 SLOAD PUSH1 0xFF AND PUSH2 0x1294 JUMPI PUSH0 DUP1 REVERT JUMPDEST PUSH0 DUP3 DUP2 MSTORE PUSH1 0x20 DUP2 SWAP1 MSTORE PUSH1 0x40 DUP1 DUP3 KECCAK256 DUP2 MLOAD PUSH1 0xE0 DUP2 ADD SWAP1 SWAP3 MSTORE DUP1 SLOAD DUP3 SWAP1 DUP3 SWAP1 PUSH2 0x12BA SWAP1 PUSH2 0x21F7 JUMP JUMPDEST DUP1 PUSH1 0x1F ADD PUSH1 0x20 DUP1 SWAP2 DIV MUL PUSH1 0x20 ADD PUSH1 0x40 MLOAD SWAP1 DUP2 ADD PUSH1 0x40 MSTORE DUP1 SWAP3 SWAP2 SWAP1 DUP2 DUP2 MSTORE PUSH1 0x20 ADD DUP3 DUP1 SLOAD PUSH2 0x12E6 SWAP1 PUSH2 0x21F7 JUMP JUMPDEST DUP1 ISZERO PUSH2 0x1331 JUMPI DUP1 PUSH1 0x1F LT PUSH2 0x1308 JUMPI PUSH2 0x100 DUP1 DUP4 SLOAD DIV MUL DUP4 MSTORE SWAP2 PUSH1 0x20 ADD SWAP2 PUSH2 0x1331 JUMP JUMPDEST DUP3 ADD SWAP2 SWAP1 PUSH0 MSTORE PUSH1 0x20 PUSH0 KECCAK256 SWAP1 JUMPDEST DUP2 SLOAD DUP2 MSTORE SWAP1 PUSH1 0x1 ADD SWAP1 PUSH1 0x20 ADD DUP1 DUP4 GT PUSH2 0x1314 JUMPI DUP3 SWAP1 SUB PUSH1 0x1F AND DUP3 ADD SWAP2 JUMPDEST POP POP POP POP POP DUP2 MSTORE PUSH1 0x20 ADD PUSH1 0x1 DUP3 ADD DUP1 SLOAD PUSH2 0x134A SWAP1 PUSH2 0x21F7 JUMP JUMPDEST DUP1 PUSH1 0x1F ADD PUSH1 0x20 DUP1 SWAP2 DIV MUL PUSH1 0x20 ADD PUSH1 0x40 MLOAD SWAP1 DUP2 ADD PUSH1 0x40 MSTORE DUP1 SWAP3 SWAP2 SWAP1 DUP2 DUP2 MSTORE PUSH1 0x20 ADD DUP3 DUP1 SLOAD PUSH2 0x1376 SWAP1 PUSH2 0x21F7 JUMP JUMPDEST DUP1 ISZERO PUSH2 0x13C1 JUMPI DUP1 PUSH1 0x1F LT PUSH2 0x1398 JUMPI PUSH2 0x100 DUP1 DUP4 SLOAD DIV MUL DUP4 MSTORE SWAP2 PUSH1 0x20 ADD SWAP2 PUSH2 0x13C1 JUMP JUMPDEST DUP3 ADD SWAP2 SWAP1 PUSH0 MSTORE PUSH1 0x20 PUSH0 KECCAK256 SWAP1 JUMPDEST DUP2 SLOAD DUP2 MSTORE SWAP1 PUSH1 0x1 ADD SWAP1 PUSH1 0x20 ADD DUP1 DUP4 GT PUSH2 0x13A4 JUMPI DUP3 SWAP1 SUB PUSH1 0x1F AND DUP3 ADD SWAP2 JUMPDEST POP POP POP SWAP2 DUP4 MSTORE POP POP PUSH1 0x2 DUP3 ADD SLOAD PUSH1 0x1 PUSH1 0x1 PUSH1 0xA0 SHL SUB AND PUSH1 0x20 DUP3 ADD MSTORE PUSH1 0x3 DUP3 ADD DUP1 SLOAD PUSH1 0x40 SWAP1 SWAP3 ADD SWAP2 PUSH2 0x13F1 SWAP1 PUSH2 0x21F7 JUMP JUMPDEST DUP1 PUSH1 0x1F ADD PUSH1 0x20 DUP1 SWAP2 DIV MUL PUSH1 0x20 ADD PUSH1 0x40 MLOAD SWAP1 DUP2 ADD PUSH1 0x40 MSTORE DUP1 SWAP3 SWAP2 SWAP1 DUP2 DUP2 MSTORE PUSH1 0x20 ADD DUP3 DUP1 SLOAD PUSH2 0x141D SWAP1 PUSH2 0x21F7 JUMP JUMPDEST DUP1 ISZERO PUSH2 0x1468 JUMPI DUP1 PUSH1 0x1F LT PUSH2 0x143F JUMPI PUSH2 0x100 DUP1 DUP4 SLOAD DIV MUL DUP4 MSTORE SWAP2 PUSH1 0x20 ADD SWAP2 PUSH2 0x1468 JUMP JUMPDEST DUP3 ADD SWAP2 SWAP1 PUSH0 MSTORE PUSH1 0x20 PUSH0 KECCAK256 SWAP1 JUMPDEST DUP2 SLOAD DUP2 MSTORE SWAP1 PUSH1 0x1 ADD SWAP1 PUSH1 0x20 ADD DUP1 DUP4 GT PUSH2 0x144B JUMPI DUP3 SWAP1 SUB PUSH1 0x1F AND DUP3 ADD SWAP2 JUMPDEST POP POP POP SWAP2 DUP4 MSTORE POP POP PUSH1 0x4 DUP3 ADD SLOAD PUSH1 0x1 PUSH1 0x1 PUSH1 0xA0 SHL SUB AND PUSH1 0x20 DUP3 ADD MSTORE PUSH1 0x5 DUP3 ADD SLOAD PUSH1 0x40 DUP1 DUP4 ADD SWAP2 SWAP1 SWAP2 MSTORE PUSH1 0x6 SWAP1 SWAP3 ADD SLOAD PUSH1 0xFF AND ISZERO ISZERO PUSH1 0x60 SWAP1 SWAP2 ADD MSTORE DUP2 ADD MLOAD SWAP1 SWAP2 POP PUSH2 0x14B3 SWAP1 DUP5 SWAP1 PUSH2 0x1C20 JUMP JUMPDEST PUSH1 0x40 DUP1 DUP3 ADD MLOAD PUSH1 0x1 PUSH1 0x1 PUSH1 0xA0 SHL SUB AND PUSH0 SWAP1 DUP2 MSTORE PUSH1 0x1 PUSH1 0x20 SWAP1 DUP2 MSTORE DUP3 DUP3 KECCAK256 DUP1 SLOAD DUP5 MLOAD DUP2 DUP5 MUL DUP2 ADD DUP5 ADD SWAP1 SWAP6 MSTORE DUP1 DUP6 MSTORE SWAP3 SWAP4 SWAP3 SWAP1 SWAP2 DUP4 ADD DUP3 DUP3 DUP1 ISZERO PUSH2 0x1513 JUMPI PUSH1 0x20 MUL DUP3 ADD SWAP2 SWAP1 PUSH0 MSTORE PUSH1 0x20 PUSH0 KECCAK256 SWAP1 JUMPDEST DUP2 SLOAD DUP2 MSTORE PUSH1 0x20 ADD SWAP1 PUSH1 0x1 ADD SWAP1 DUP1 DUP4 GT PUSH2 0x14FF JUMPI JUMPDEST POP POP POP POP POP SWAP1 POP PUSH0 JUMPDEST DUP2 MLOAD DUP2 LT ISZERO PUSH2 0x158D JUMPI DUP5 DUP3 DUP3 DUP2 MLOAD DUP2 LT PUSH2 0x1538 JUMPI PUSH2 0x1538 PUSH2 0x2281 JUMP JUMPDEST PUSH1 0x20 MUL PUSH1 0x20 ADD ADD MLOAD SUB PUSH2 0x157B JUMPI PUSH1 0x40 DUP1 DUP5 ADD MLOAD PUSH1 0x1 PUSH1 0x1 PUSH1 0xA0 SHL SUB AND PUSH0 SWAP1 DUP2 MSTORE PUSH1 0x1 PUSH1 0x20 MSTORE KECCAK256 DUP1 SLOAD DUP3 SWAP1 DUP2 LT PUSH2 0x1570 JUMPI PUSH2 0x1570 PUSH2 0x2281 JUMP JUMPDEST PUSH0 SWAP2 DUP3 MSTORE PUSH1 0x20 DUP3 KECCAK256 ADD SSTORE JUMPDEST DUP1 PUSH2 0x1585 DUP2 PUSH2 0x2295 JUMP JUMPDEST SWAP2 POP POP PUSH2 0x151C JUMP JUMPDEST POP PUSH1 0x1 SWAP5 SWAP4 POP POP POP POP JUMP JUMPDEST PUSH1 0x7 SLOAD PUSH0 SWAP1 PUSH1 0x1 PUSH1 0x1 PUSH1 0xA0 SHL SUB AND CALLER EQ PUSH2 0x15C4 JUMPI PUSH1 0x40 MLOAD PUSH3 0x461BCD PUSH1 0xE5 SHL DUP2 MSTORE PUSH1 0x4 ADD PUSH2 0x58C SWAP1 PUSH2 0x222F JUMP JUMPDEST POP PUSH1 0x7 DUP1 SLOAD PUSH1 0xFF PUSH1 0x1 PUSH1 0xA0 SHL DUP1 DUP4 DIV DUP3 AND ISZERO DUP2 MUL PUSH1 0xFF PUSH1 0xA0 SHL NOT SWAP1 SWAP4 AND SWAP3 SWAP1 SWAP3 OR SWAP3 DUP4 SWAP1 SSTORE SWAP2 DIV AND SWAP1 JUMP JUMPDEST PUSH1 0x7 SLOAD PUSH0 SWAP1 PUSH1 0x1 PUSH1 0x1 PUSH1 0xA0 SHL SUB AND CALLER EQ PUSH2 0x161B JUMPI PUSH1 0x40 MLOAD PUSH3 0x461BCD PUSH1 0xE5 SHL DUP2 MSTORE PUSH1 0x4 ADD PUSH2 0x58C SWAP1 PUSH2 0x222F JUMP JUMPDEST DUP6 DUP6 DUP6 DUP6 DUP6 PUSH1 0x40 MLOAD PUSH1 0x20 ADD PUSH2 0x1634 SWAP6 SWAP5 SWAP4 SWAP3 SWAP2 SWAP1 PUSH2 0x22B9 JUMP JUMPDEST PUSH1 0x40 MLOAD PUSH1 0x20 DUP2 DUP4 SUB SUB DUP2 MSTORE SWAP1 PUSH1 0x40 MSTORE DUP1 MLOAD SWAP1 PUSH1 0x20 ADD KECCAK256 SWAP1 POP SWAP6 SWAP5 POP POP POP POP POP JUMP JUMPDEST PUSH1 0x7 SLOAD PUSH0 SWAP1 PUSH1 0x1 PUSH1 0x1 PUSH1 0xA0 SHL SUB AND CALLER EQ PUSH2 0x1681 JUMPI PUSH1 0x40 MLOAD PUSH3 0x461BCD PUSH1 0xE5 SHL DUP2 MSTORE PUSH1 0x4 ADD PUSH2 0x58C SWAP1 PUSH2 0x222F JUMP JUMPDEST PUSH1 0xA0 DUP3 ADD MLOAD PUSH0 SWAP1 DUP2 MSTORE PUSH1 0x20 DUP2 SWAP1 MSTORE PUSH1 0x40 DUP1 DUP3 KECCAK256 DUP2 MLOAD PUSH1 0xE0 DUP2 ADD SWAP1 SWAP3 MSTORE DUP1 SLOAD DUP3 SWAP1 DUP3 SWAP1 PUSH2 0x16AC SWAP1 PUSH2 0x21F7 JUMP JUMPDEST DUP1 PUSH1 0x1F ADD PUSH1 0x20 DUP1 SWAP2 DIV MUL PUSH1 0x20 ADD PUSH1 0x40 MLOAD SWAP1 DUP2 ADD PUSH1 0x40 MSTORE DUP1 SWAP3 SWAP2 SWAP1 DUP2 DUP2 MSTORE PUSH1 0x20 ADD DUP3 DUP1 SLOAD PUSH2 0x16D8 SWAP1 PUSH2 0x21F7 JUMP JUMPDEST DUP1 ISZERO PUSH2 0x1723 JUMPI DUP1 PUSH1 0x1F LT PUSH2 0x16FA JUMPI PUSH2 0x100 DUP1 DUP4 SLOAD DIV MUL DUP4 MSTORE SWAP2 PUSH1 0x20 ADD SWAP2 PUSH2 0x1723 JUMP JUMPDEST DUP3 ADD SWAP2 SWAP1 PUSH0 MSTORE PUSH1 0x20 PUSH0 KECCAK256 SWAP1 JUMPDEST DUP2 SLOAD DUP2 MSTORE SWAP1 PUSH1 0x1 ADD SWAP1 PUSH1 0x20 ADD DUP1 DUP4 GT PUSH2 0x1706 JUMPI DUP3 SWAP1 SUB PUSH1 0x1F AND DUP3 ADD SWAP2 JUMPDEST POP POP POP POP POP DUP2 MSTORE PUSH1 0x20 ADD PUSH1 0x1 DUP3 ADD DUP1 SLOAD PUSH2 0x173C SWAP1 PUSH2 0x21F7 JUMP JUMPDEST DUP1 PUSH1 0x1F ADD PUSH1 0x20 DUP1 SWAP2 DIV MUL PUSH1 0x20 ADD PUSH1 0x40 MLOAD SWAP1 DUP2 ADD PUSH1 0x40 MSTORE DUP1 SWAP3 SWAP2 SWAP1 DUP2 DUP2 MSTORE PUSH1 0x20 ADD DUP3 DUP1 SLOAD PUSH2 0x1768 SWAP1 PUSH2 0x21F7 JUMP JUMPDEST DUP1 ISZERO PUSH2 0x17B3 JUMPI DUP1 PUSH1 0x1F LT PUSH2 0x178A JUMPI PUSH2 0x100 DUP1 DUP4 SLOAD DIV MUL DUP4 MSTORE SWAP2 PUSH1 0x20 ADD SWAP2 PUSH2 0x17B3 JUMP JUMPDEST DUP3 ADD SWAP2 SWAP1 PUSH0 MSTORE PUSH1 0x20 PUSH0 KECCAK256 SWAP1 JUMPDEST DUP2 SLOAD DUP2 MSTORE SWAP1 PUSH1 0x1 ADD SWAP1 PUSH1 0x20 ADD DUP1 DUP4 GT PUSH2 0x1796 JUMPI DUP3 SWAP1 SUB PUSH1 0x1F AND DUP3 ADD SWAP2 JUMPDEST POP POP POP SWAP2 DUP4 MSTORE POP POP PUSH1 0x2 DUP3 ADD SLOAD PUSH1 0x1 PUSH1 0x1 PUSH1 0xA0 SHL SUB AND PUSH1 0x20 DUP3 ADD MSTORE PUSH1 0x3 DUP3 ADD DUP1 SLOAD PUSH1 0x40 SWAP1 SWAP3 ADD SWAP2 PUSH2 0x17E3 SWAP1 PUSH2 0x21F7 JUMP JUMPDEST DUP1 PUSH1 0x1F ADD PUSH1 0x20 DUP1 SWAP2 DIV MUL PUSH1 0x20 ADD PUSH1 0x40 MLOAD SWAP1 DUP2 ADD PUSH1 0x40 MSTORE DUP1 SWAP3 SWAP2 SWAP1 DUP2 DUP2 MSTORE PUSH1 0x20 ADD DUP3 DUP1 SLOAD PUSH2 0x180F SWAP1 PUSH2 0x21F7 JUMP JUMPDEST DUP1 ISZERO PUSH2 0x185A JUMPI DUP1 PUSH1 0x1F LT PUSH2 0x1831 JUMPI PUSH2 0x100 DUP1 DUP4 SLOAD DIV MUL DUP4 MSTORE SWAP2 PUSH1 0x20 ADD SWAP2 PUSH2 0x185A JUMP JUMPDEST DUP3 ADD SWAP2 SWAP1 PUSH0 MSTORE PUSH1 0x20 PUSH0 KECCAK256 SWAP1 JUMPDEST DUP2 SLOAD DUP2 MSTORE SWAP1 PUSH1 0x1 ADD SWAP1 PUSH1 0x20 ADD DUP1 DUP4 GT PUSH2 0x183D JUMPI DUP3 SWAP1 SUB PUSH1 0x1F AND DUP3 ADD SWAP2 JUMPDEST POP POP POP SWAP2 DUP4 MSTORE POP POP PUSH1 0x4 DUP3 ADD SLOAD PUSH1 0x1 PUSH1 0x1 PUSH1 0xA0 SHL SUB AND PUSH1 0x20 DUP3 ADD MSTORE PUSH1 0x5 DUP3 ADD SLOAD PUSH1 0x40 DUP3 ADD MSTORE PUSH1 0x6 SWAP1 SWAP2 ADD SLOAD PUSH1 0xFF AND ISZERO ISZERO PUSH1 0x60 SWAP1 SWAP2 ADD MSTORE PUSH1 0xC0 DUP2 ADD MLOAD SWAP1 SWAP2 POP ISZERO ISZERO PUSH1 0x1 SUB PUSH2 0x18E1 JUMPI PUSH1 0x40 MLOAD PUSH3 0x461BCD PUSH1 0xE5 SHL DUP2 MSTORE PUSH1 0x20 PUSH1 0x4 DUP3 ADD MSTORE PUSH1 0x15 PUSH1 0x24 DUP3 ADD MSTORE PUSH21 0x4C6963656E736520416C7265647920457869737473 PUSH1 0x58 SHL PUSH1 0x44 DUP3 ADD MSTORE PUSH1 0x64 ADD PUSH2 0x58C JUMP JUMPDEST PUSH1 0x40 DUP1 DUP5 ADD MLOAD PUSH1 0x1 PUSH1 0x1 PUSH1 0xA0 SHL SUB AND PUSH0 SWAP1 DUP2 MSTORE PUSH1 0x1 PUSH1 0x20 SWAP1 DUP2 MSTORE DUP3 DUP3 KECCAK256 DUP1 SLOAD DUP5 MLOAD DUP2 DUP5 MUL DUP2 ADD DUP5 ADD SWAP1 SWAP6 MSTORE DUP1 DUP6 MSTORE SWAP3 SWAP4 SWAP3 SWAP1 SWAP2 DUP4 ADD DUP3 DUP3 DUP1 ISZERO PUSH2 0x1941 JUMPI PUSH1 0x20 MUL DUP3 ADD SWAP2 SWAP1 PUSH0 MSTORE PUSH1 0x20 PUSH0 KECCAK256 SWAP1 JUMPDEST DUP2 SLOAD DUP2 MSTORE PUSH1 0x20 ADD SWAP1 PUSH1 0x1 ADD SWAP1 DUP1 DUP4 GT PUSH2 0x192D JUMPI JUMPDEST POP POP POP POP POP SWAP1 POP PUSH0 JUMPDEST DUP2 MLOAD DUP2 LT ISZERO PUSH2 0x1C0C JUMPI PUSH0 DUP1 DUP4 DUP4 DUP2 MLOAD DUP2 LT PUSH2 0x1967 JUMPI PUSH2 0x1967 PUSH2 0x2281 JUMP JUMPDEST PUSH1 0x20 MUL PUSH1 0x20 ADD ADD MLOAD DUP2 MSTORE PUSH1 0x20 ADD SWAP1 DUP2 MSTORE PUSH1 0x20 ADD PUSH0 KECCAK256 PUSH1 0x40 MLOAD DUP1 PUSH1 0xE0 ADD PUSH1 0x40 MSTORE SWAP1 DUP2 PUSH0 DUP3 ADD DUP1 SLOAD PUSH2 0x1996 SWAP1 PUSH2 0x21F7 JUMP JUMPDEST DUP1 PUSH1 0x1F ADD PUSH1 0x20 DUP1 SWAP2 DIV MUL PUSH1 0x20 ADD PUSH1 0x40 MLOAD SWAP1 DUP2 ADD PUSH1 0x40 MSTORE DUP1 SWAP3 SWAP2 SWAP1 DUP2 DUP2 MSTORE PUSH1 0x20 ADD DUP3 DUP1 SLOAD PUSH2 0x19C2 SWAP1 PUSH2 0x21F7 JUMP JUMPDEST DUP1 ISZERO PUSH2 0x1A0D JUMPI DUP1 PUSH1 0x1F LT PUSH2 0x19E4 JUMPI PUSH2 0x100 DUP1 DUP4 SLOAD DIV MUL DUP4 MSTORE SWAP2 PUSH1 0x20 ADD SWAP2 PUSH2 0x1A0D JUMP JUMPDEST DUP3 ADD SWAP2 SWAP1 PUSH0 MSTORE PUSH1 0x20 PUSH0 KECCAK256 SWAP1 JUMPDEST DUP2 SLOAD DUP2 MSTORE SWAP1 PUSH1 0x1 ADD SWAP1 PUSH1 0x20 ADD DUP1 DUP4 GT PUSH2 0x19F0 JUMPI DUP3 SWAP1 SUB PUSH1 0x1F AND DUP3 ADD SWAP2 JUMPDEST POP POP POP POP POP DUP2 MSTORE PUSH1 0x20 ADD PUSH1 0x1 DUP3 ADD DUP1 SLOAD PUSH2 0x1A26 SWAP1 PUSH2 0x21F7 JUMP JUMPDEST DUP1 PUSH1 0x1F ADD PUSH1 0x20 DUP1 SWAP2 DIV MUL PUSH1 0x20 ADD PUSH1 0x40 MLOAD SWAP1 DUP2 ADD PUSH1 0x40 MSTORE DUP1 SWAP3 SWAP2 SWAP1 DUP2 DUP2 MSTORE PUSH1 0x20 ADD DUP3 DUP1 SLOAD PUSH2 0x1A52 SWAP1 PUSH2 0x21F7 JUMP JUMPDEST DUP1 ISZERO PUSH2 0x1A9D JUMPI DUP1 PUSH1 0x1F LT PUSH2 0x1A74 JUMPI PUSH2 0x100 DUP1 DUP4 SLOAD DIV MUL DUP4 MSTORE SWAP2 PUSH1 0x20 ADD SWAP2 PUSH2 0x1A9D JUMP JUMPDEST DUP3 ADD SWAP2 SWAP1 PUSH0 MSTORE PUSH1 0x20 PUSH0 KECCAK256 SWAP1 JUMPDEST DUP2 SLOAD DUP2 MSTORE SWAP1 PUSH1 0x1 ADD SWAP1 PUSH1 0x20 ADD DUP1 DUP4 GT PUSH2 0x1A80 JUMPI DUP3 SWAP1 SUB PUSH1 0x1F AND DUP3 ADD SWAP2 JUMPDEST POP POP POP SWAP2 DUP4 MSTORE POP POP PUSH1 0x2 DUP3 ADD SLOAD PUSH1 0x1 PUSH1 0x1 PUSH1 0xA0 SHL SUB AND PUSH1 0x20 DUP3 ADD MSTORE PUSH1 0x3 DUP3 ADD DUP1 SLOAD PUSH1 0x40 SWAP1 SWAP3 ADD SWAP2 PUSH2 0x1ACD SWAP1 PUSH2 0x21F7 JUMP JUMPDEST DUP1 PUSH1 0x1F ADD PUSH1 0x20 DUP1 SWAP2 DIV MUL PUSH1 0x20 ADD PUSH1 0x40 MLOAD SWAP1 DUP2 ADD PUSH1 0x40 MSTORE DUP1 SWAP3 SWAP2 SWAP1 DUP2 DUP2 MSTORE PUSH1 0x20 ADD DUP3 DUP1 SLOAD PUSH2 0x1AF9 SWAP1 PUSH2 0x21F7 JUMP JUMPDEST DUP1 ISZERO PUSH2 0x1B44 JUMPI DUP1 PUSH1 0x1F LT PUSH2 0x1B1B JUMPI PUSH2 0x100 DUP1 DUP4 SLOAD DIV MUL DUP4 MSTORE SWAP2 PUSH1 0x20 ADD SWAP2 PUSH2 0x1B44 JUMP JUMPDEST DUP3 ADD SWAP2 SWAP1 PUSH0 MSTORE PUSH1 0x20 PUSH0 KECCAK256 SWAP1 JUMPDEST DUP2 SLOAD DUP2 MSTORE SWAP1 PUSH1 0x1 ADD SWAP1 PUSH1 0x20 ADD DUP1 DUP4 GT PUSH2 0x1B27 JUMPI DUP3 SWAP1 SUB PUSH1 0x1F AND DUP3 ADD SWAP2 JUMPDEST POP POP POP SWAP2 DUP4 MSTORE POP POP PUSH1 0x4 DUP3 ADD SLOAD PUSH1 0x1 PUSH1 0x1 PUSH1 0xA0 SHL SUB AND PUSH1 0x20 DUP1 DUP4 ADD SWAP2 SWAP1 SWAP2 MSTORE PUSH1 0x5 DUP4 ADD SLOAD PUSH1 0x40 DUP4 ADD MSTORE PUSH1 0x6 SWAP1 SWAP3 ADD SLOAD PUSH1 0xFF AND ISZERO ISZERO PUSH1 0x60 SWAP1 SWAP2 ADD MSTORE DUP7 DUP2 ADD MLOAD DUP1 MLOAD SWAP1 DUP3 ADD KECCAK256 DUP3 DUP3 ADD MLOAD DUP1 MLOAD SWAP3 ADD SWAP2 SWAP1 SWAP2 KECCAK256 SWAP2 SWAP5 POP SWAP1 SUB PUSH2 0x1BFA JUMPI PUSH2 0x1BC4 DUP3 DUP3 DUP2 MLOAD DUP2 LT PUSH2 0x1BB2 JUMPI PUSH2 0x1BB2 PUSH2 0x2281 JUMP JUMPDEST PUSH1 0x20 MUL PUSH1 0x20 ADD ADD MLOAD DUP7 PUSH1 0x40 ADD MLOAD PUSH2 0x1C20 JUMP JUMPDEST PUSH1 0x40 DUP1 DUP7 ADD MLOAD PUSH1 0x1 PUSH1 0x1 PUSH1 0xA0 SHL SUB AND PUSH0 SWAP1 DUP2 MSTORE PUSH1 0x1 PUSH1 0x20 MSTORE KECCAK256 DUP1 SLOAD DUP3 SWAP1 DUP2 LT PUSH2 0x1BEF JUMPI PUSH2 0x1BEF PUSH2 0x2281 JUMP JUMPDEST PUSH0 SWAP2 DUP3 MSTORE PUSH1 0x20 DUP3 KECCAK256 ADD SSTORE JUMPDEST DUP1 PUSH2 0x1C04 DUP2 PUSH2 0x2295 JUMP JUMPDEST SWAP2 POP POP PUSH2 0x194A JUMP JUMPDEST POP PUSH2 0x1C16 DUP5 PUSH2 0x1CE4 JUMP JUMPDEST POP PUSH1 0x1 SWAP4 SWAP3 POP POP POP JUMP JUMPDEST CALLER PUSH0 SWAP1 DUP2 MSTORE PUSH1 0x4 PUSH1 0x20 MSTORE PUSH1 0x40 SWAP1 KECCAK256 SLOAD PUSH1 0xFF AND PUSH2 0x1C3A JUMPI PUSH0 DUP1 REVERT JUMPDEST PUSH0 DUP3 DUP2 MSTORE PUSH1 0x20 DUP2 SWAP1 MSTORE PUSH1 0x40 DUP2 KECCAK256 SWAP1 PUSH2 0x1C52 DUP3 DUP3 PUSH2 0x1E37 JUMP JUMPDEST PUSH2 0x1C5F PUSH1 0x1 DUP4 ADD PUSH0 PUSH2 0x1E37 JUMP JUMPDEST PUSH1 0x2 DUP3 ADD DUP1 SLOAD PUSH1 0x1 PUSH1 0x1 PUSH1 0xA0 SHL SUB NOT AND SWAP1 SSTORE PUSH2 0x1C7E PUSH1 0x3 DUP4 ADD PUSH0 PUSH2 0x1E37 JUMP JUMPDEST POP PUSH1 0x4 DUP2 ADD DUP1 SLOAD PUSH1 0x1 PUSH1 0x1 PUSH1 0xA0 SHL SUB NOT AND SWAP1 SSTORE PUSH0 PUSH1 0x5 DUP3 ADD SSTORE PUSH1 0x6 ADD DUP1 SLOAD PUSH1 0xFF NOT AND SWAP1 SSTORE PUSH1 0x40 MLOAD DUP3 DUP2 MSTORE PUSH1 0x1 PUSH1 0x1 PUSH1 0xA0 SHL SUB DUP3 AND SWAP1 PUSH32 0xFBA9AEB04FD7E91A1CB29583E8D8BB97D3874361CC1F0B29F6E33F6D3047D8CF SWAP1 PUSH1 0x20 ADD PUSH1 0x40 MLOAD DUP1 SWAP2 SUB SWAP1 LOG2 POP POP JUMP JUMPDEST PUSH1 0x7 SLOAD PUSH1 0x1 PUSH1 0x1 PUSH1 0xA0 SHL SUB AND CALLER EQ PUSH2 0x1D0E JUMPI PUSH1 0x40 MLOAD PUSH3 0x461BCD PUSH1 0xE5 SHL DUP2 MSTORE PUSH1 0x4 ADD PUSH2 0x58C SWAP1 PUSH2 0x222F JUMP JUMPDEST PUSH1 0xA0 DUP2 ADD MLOAD PUSH0 SWAP1 DUP2 MSTORE PUSH1 0x20 DUP2 SWAP1 MSTORE PUSH1 0x40 SWAP1 KECCAK256 DUP2 MLOAD DUP3 SWAP2 SWAP1 DUP2 SWAP1 PUSH2 0x1D31 SWAP1 DUP3 PUSH2 0x2366 JUMP JUMPDEST POP PUSH1 0x20 DUP3 ADD MLOAD PUSH1 0x1 DUP3 ADD SWAP1 PUSH2 0x1D46 SWAP1 DUP3 PUSH2 0x2366 JUMP JUMPDEST POP PUSH1 0x40 DUP3 ADD MLOAD PUSH1 0x2 DUP3 ADD DUP1 SLOAD PUSH1 0x1 PUSH1 0x1 PUSH1 0xA0 SHL SUB NOT AND PUSH1 0x1 PUSH1 0x1 PUSH1 0xA0 SHL SUB SWAP1 SWAP3 AND SWAP2 SWAP1 SWAP2 OR SWAP1 SSTORE PUSH1 0x60 DUP3 ADD MLOAD PUSH1 0x3 DUP3 ADD SWAP1 PUSH2 0x1D81 SWAP1 DUP3 PUSH2 0x2366 JUMP JUMPDEST POP PUSH1 0x80 DUP3 ADD MLOAD PUSH1 0x4 DUP3 ADD DUP1 SLOAD PUSH1 0x1 PUSH1 0x1 PUSH1 0xA0 SHL SUB NOT AND PUSH1 0x1 PUSH1 0x1 PUSH1 0xA0 SHL SUB SWAP3 DUP4 AND OR SWAP1 SSTORE PUSH1 0xA0 DUP1 DUP5 ADD MLOAD PUSH1 0x5 DUP5 ADD SSTORE PUSH1 0xC0 SWAP1 SWAP4 ADD MLOAD PUSH1 0x6 SWAP1 SWAP3 ADD DUP1 SLOAD PUSH1 0xFF NOT AND SWAP3 ISZERO ISZERO SWAP3 SWAP1 SWAP3 OR SWAP1 SWAP2 SSTORE PUSH1 0x40 DUP4 DUP2 ADD DUP1 MLOAD DUP4 AND PUSH0 SWAP1 DUP2 MSTORE PUSH1 0x1 PUSH1 0x20 DUP2 DUP2 MSTORE DUP5 DUP4 KECCAK256 SWAP7 DUP9 ADD DUP1 MLOAD DUP9 SLOAD SWAP4 DUP5 ADD DUP10 SSTORE SWAP8 DUP5 MSTORE SWAP3 DUP2 SWAP1 KECCAK256 SWAP1 SWAP2 ADD SWAP6 SWAP1 SWAP6 SSTORE SWAP1 MLOAD SWAP1 MLOAD SWAP2 MLOAD SWAP2 DUP3 MSTORE SWAP1 SWAP2 AND SWAP2 PUSH32 0x88B059E42378123793B6B50C667570312662BFBE8C07098828E5639754FA1E5B SWAP2 ADD PUSH1 0x40 MLOAD DUP1 SWAP2 SUB SWAP1 LOG2 POP JUMP JUMPDEST POP DUP1 SLOAD PUSH2 0x1E43 SWAP1 PUSH2 0x21F7 JUMP JUMPDEST PUSH0 DUP3 SSTORE DUP1 PUSH1 0x1F LT PUSH2 0x1E52 JUMPI POP POP JUMP JUMPDEST PUSH1 0x1F ADD PUSH1 0x20 SWAP1 DIV SWAP1 PUSH0 MSTORE PUSH1 0x20 PUSH0 KECCAK256 SWAP1 DUP2 ADD SWAP1 PUSH2 0x1E6E SWAP2 SWAP1 PUSH2 0x1E71 JUMP JUMPDEST POP JUMP JUMPDEST JUMPDEST DUP1 DUP3 GT ISZERO PUSH2 0x1E85 JUMPI PUSH0 DUP2 SSTORE PUSH1 0x1 ADD PUSH2 0x1E72 JUMP JUMPDEST POP SWAP1 JUMP JUMPDEST PUSH0 PUSH1 0x20 DUP3 DUP5 SUB SLT ISZERO PUSH2 0x1E99 JUMPI PUSH0 DUP1 REVERT JUMPDEST POP CALLDATALOAD SWAP2 SWAP1 POP JUMP JUMPDEST PUSH0 JUMPDEST DUP4 DUP2 LT ISZERO PUSH2 0x1EBA JUMPI DUP2 DUP2 ADD MLOAD DUP4 DUP3 ADD MSTORE PUSH1 0x20 ADD PUSH2 0x1EA2 JUMP JUMPDEST POP POP PUSH0 SWAP2 ADD MSTORE JUMP JUMPDEST PUSH0 DUP2 MLOAD DUP1 DUP5 MSTORE PUSH2 0x1ED9 DUP2 PUSH1 0x20 DUP7 ADD PUSH1 0x20 DUP7 ADD PUSH2 0x1EA0 JUMP JUMPDEST PUSH1 0x1F ADD PUSH1 0x1F NOT AND SWAP3 SWAP1 SWAP3 ADD PUSH1 0x20 ADD SWAP3 SWAP2 POP POP JUMP JUMPDEST PUSH1 0x20 DUP2 MSTORE PUSH0 DUP3 MLOAD PUSH1 0xE0 PUSH1 0x20 DUP5 ADD MSTORE PUSH2 0x1F09 PUSH2 0x100 DUP5 ADD DUP3 PUSH2 0x1EC2 JUMP JUMPDEST SWAP1 POP PUSH1 0x20 DUP5 ADD MLOAD PUSH1 0x1F NOT DUP1 DUP6 DUP5 SUB ADD PUSH1 0x40 DUP7 ADD MSTORE PUSH2 0x1F27 DUP4 DUP4 PUSH2 0x1EC2 JUMP JUMPDEST PUSH1 0x40 DUP8 ADD MLOAD PUSH1 0x1 PUSH1 0x1 PUSH1 0xA0 SHL SUB SWAP1 DUP2 AND PUSH1 0x60 DUP9 DUP2 ADD SWAP2 SWAP1 SWAP2 MSTORE DUP9 ADD MLOAD DUP8 DUP4 SUB DUP5 ADD PUSH1 0x80 DUP10 ADD MSTORE SWAP2 SWAP5 POP SWAP1 SWAP3 POP PUSH2 0x1F5D DUP5 DUP5 PUSH2 0x1EC2 JUMP JUMPDEST SWAP4 POP DUP1 PUSH1 0x80 DUP9 ADD MLOAD AND PUSH1 0xA0 DUP8 ADD MSTORE POP POP POP PUSH1 0xA0 DUP5 ADD MLOAD PUSH1 0xC0 DUP5 ADD MSTORE PUSH1 0xC0 DUP5 ADD MLOAD PUSH2 0x1F8B PUSH1 0xE0 DUP6 ADD DUP3 ISZERO ISZERO SWAP1 MSTORE JUMP JUMPDEST POP SWAP4 SWAP3 POP POP POP JUMP JUMPDEST DUP1 CALLDATALOAD PUSH1 0x1 PUSH1 0x1 PUSH1 0xA0 SHL SUB DUP2 AND DUP2 EQ PUSH2 0x67F JUMPI PUSH0 DUP1 REVERT JUMPDEST PUSH0 PUSH1 0x20 DUP3 DUP5 SUB SLT ISZERO PUSH2 0x1FB9 JUMPI PUSH0 DUP1 REVERT JUMPDEST PUSH2 0x1FC2 DUP3 PUSH2 0x1F93 JUMP JUMPDEST SWAP4 SWAP3 POP POP POP JUMP JUMPDEST PUSH1 0x20 DUP1 DUP3 MSTORE DUP3 MLOAD DUP3 DUP3 ADD DUP2 SWAP1 MSTORE PUSH0 SWAP2 SWAP1 DUP5 DUP3 ADD SWAP1 PUSH1 0x40 DUP6 ADD SWAP1 DUP5 JUMPDEST DUP2 DUP2 LT ISZERO PUSH2 0x2000 JUMPI DUP4 MLOAD DUP4 MSTORE SWAP3 DUP5 ADD SWAP3 SWAP2 DUP5 ADD SWAP2 PUSH1 0x1 ADD PUSH2 0x1FE4 JUMP JUMPDEST POP SWAP1 SWAP7 SWAP6 POP POP POP POP POP POP JUMP JUMPDEST PUSH4 0x4E487B71 PUSH1 0xE0 SHL PUSH0 MSTORE PUSH1 0x41 PUSH1 0x4 MSTORE PUSH1 0x24 PUSH0 REVERT JUMPDEST PUSH0 DUP3 PUSH1 0x1F DUP4 ADD SLT PUSH2 0x202F JUMPI PUSH0 DUP1 REVERT JUMPDEST DUP2 CALLDATALOAD PUSH8 0xFFFFFFFFFFFFFFFF DUP1 DUP3 GT ISZERO PUSH2 0x204A JUMPI PUSH2 0x204A PUSH2 0x200C JUMP JUMPDEST PUSH1 0x40 MLOAD PUSH1 0x1F DUP4 ADD PUSH1 0x1F NOT SWAP1 DUP2 AND PUSH1 0x3F ADD AND DUP2 ADD SWAP1 DUP3 DUP3 GT DUP2 DUP4 LT OR ISZERO PUSH2 0x2072 JUMPI PUSH2 0x2072 PUSH2 0x200C JUMP JUMPDEST DUP2 PUSH1 0x40 MSTORE DUP4 DUP2 MSTORE DUP7 PUSH1 0x20 DUP6 DUP9 ADD ADD GT ISZERO PUSH2 0x208A JUMPI PUSH0 DUP1 REVERT JUMPDEST DUP4 PUSH1 0x20 DUP8 ADD PUSH1 0x20 DUP4 ADD CALLDATACOPY PUSH0 PUSH1 0x20 DUP6 DUP4 ADD ADD MSTORE DUP1 SWAP5 POP POP POP POP POP SWAP3 SWAP2 POP POP JUMP JUMPDEST PUSH0 DUP1 PUSH0 DUP1 PUSH0 PUSH1 0xA0 DUP7 DUP9 SUB SLT ISZERO PUSH2 0x20BD JUMPI PUSH0 DUP1 REVERT JUMPDEST DUP6 CALLDATALOAD PUSH8 0xFFFFFFFFFFFFFFFF DUP1 DUP3 GT ISZERO PUSH2 0x20D4 JUMPI PUSH0 DUP1 REVERT JUMPDEST PUSH2 0x20E0 DUP10 DUP4 DUP11 ADD PUSH2 0x2020 JUMP JUMPDEST SWAP7 POP PUSH1 0x20 DUP9 ADD CALLDATALOAD SWAP2 POP DUP1 DUP3 GT ISZERO PUSH2 0x20F5 JUMPI PUSH0 DUP1 REVERT JUMPDEST PUSH2 0x2101 DUP10 DUP4 DUP11 ADD PUSH2 0x2020 JUMP JUMPDEST SWAP6 POP PUSH1 0x40 DUP9 ADD CALLDATALOAD SWAP2 POP DUP1 DUP3 GT ISZERO PUSH2 0x2116 JUMPI PUSH0 DUP1 REVERT JUMPDEST PUSH2 0x2122 DUP10 DUP4 DUP11 ADD PUSH2 0x2020 JUMP JUMPDEST SWAP5 POP PUSH1 0x60 DUP9 ADD CALLDATALOAD SWAP2 POP DUP1 DUP3 GT ISZERO PUSH2 0x2137 JUMPI PUSH0 DUP1 REVERT JUMPDEST PUSH2 0x2143 DUP10 DUP4 DUP11 ADD PUSH2 0x2020 JUMP JUMPDEST SWAP4 POP PUSH1 0x80 DUP9 ADD CALLDATALOAD SWAP2 POP DUP1 DUP3 GT ISZERO PUSH2 0x2158 JUMPI PUSH0 DUP1 REVERT JUMPDEST POP PUSH2 0x2165 DUP9 DUP3 DUP10 ADD PUSH2 0x2020 JUMP JUMPDEST SWAP2 POP POP SWAP3 SWAP6 POP SWAP3 SWAP6 SWAP1 SWAP4 POP JUMP JUMPDEST PUSH0 PUSH1 0x20 DUP3 DUP5 SUB SLT ISZERO PUSH2 0x2182 JUMPI PUSH0 DUP1 REVERT JUMPDEST DUP2 CALLDATALOAD PUSH8 0xFFFFFFFFFFFFFFFF DUP2 GT ISZERO PUSH2 0x2198 JUMPI PUSH0 DUP1 REVERT JUMPDEST PUSH2 0x21A4 DUP5 DUP3 DUP6 ADD PUSH2 0x2020 JUMP JUMPDEST SWAP5 SWAP4 POP POP POP POP JUMP JUMPDEST PUSH0 DUP1 PUSH1 0x40 DUP4 DUP6 SUB SLT ISZERO PUSH2 0x21BD JUMPI PUSH0 DUP1 REVERT JUMPDEST DUP3 CALLDATALOAD PUSH8 0xFFFFFFFFFFFFFFFF DUP2 GT ISZERO PUSH2 0x21D3 JUMPI PUSH0 DUP1 REVERT JUMPDEST PUSH2 0x21DF DUP6 DUP3 DUP7 ADD PUSH2 0x2020 JUMP JUMPDEST SWAP3 POP POP PUSH2 0x21EE PUSH1 0x20 DUP5 ADD PUSH2 0x1F93 JUMP JUMPDEST SWAP1 POP SWAP3 POP SWAP3 SWAP1 POP JUMP JUMPDEST PUSH1 0x1 DUP2 DUP2 SHR SWAP1 DUP3 AND DUP1 PUSH2 0x220B JUMPI PUSH1 0x7F DUP3 AND SWAP2 POP JUMPDEST PUSH1 0x20 DUP3 LT DUP2 SUB PUSH2 0x2229 JUMPI PUSH4 0x4E487B71 PUSH1 0xE0 SHL PUSH0 MSTORE PUSH1 0x22 PUSH1 0x4 MSTORE PUSH1 0x24 PUSH0 REVERT JUMPDEST POP SWAP2 SWAP1 POP JUMP JUMPDEST PUSH1 0x20 DUP1 DUP3 MSTORE PUSH1 0x17 SWAP1 DUP3 ADD MSTORE PUSH32 0x4F6E6C79204F776E65722063616E206163746976617465000000000000000000 PUSH1 0x40 DUP3 ADD MSTORE PUSH1 0x60 ADD SWAP1 JUMP JUMPDEST PUSH0 DUP3 MLOAD PUSH2 0x2277 DUP2 DUP5 PUSH1 0x20 DUP8 ADD PUSH2 0x1EA0 JUMP JUMPDEST SWAP2 SWAP1 SWAP2 ADD SWAP3 SWAP2 POP POP JUMP JUMPDEST PUSH4 0x4E487B71 PUSH1 0xE0 SHL PUSH0 MSTORE PUSH1 0x32 PUSH1 0x4 MSTORE PUSH1 0x24 PUSH0 REVERT JUMPDEST PUSH0 PUSH1 0x1 DUP3 ADD PUSH2 0x22B2 JUMPI PUSH4 0x4E487B71 PUSH1 0xE0 SHL PUSH0 MSTORE PUSH1 0x11 PUSH1 0x4 MSTORE PUSH1 0x24 PUSH0 REVERT JUMPDEST POP PUSH1 0x1 ADD SWAP1 JUMP JUMPDEST PUSH1 0xA0 DUP2 MSTORE PUSH0 PUSH2 0x22CB PUSH1 0xA0 DUP4 ADD DUP9 PUSH2 0x1EC2 JUMP JUMPDEST DUP3 DUP2 SUB PUSH1 0x20 DUP5 ADD MSTORE PUSH2 0x22DD DUP2 DUP9 PUSH2 0x1EC2 JUMP JUMPDEST PUSH1 0x1 PUSH1 0x1 PUSH1 0xA0 SHL SUB DUP8 DUP2 AND PUSH1 0x40 DUP7 ADD MSTORE DUP5 DUP3 SUB PUSH1 0x60 DUP7 ADD MSTORE SWAP1 SWAP2 POP PUSH2 0x2302 DUP3 DUP8 PUSH2 0x1EC2 JUMP JUMPDEST SWAP3 POP DUP1 DUP6 AND PUSH1 0x80 DUP6 ADD MSTORE POP POP SWAP7 SWAP6 POP POP POP POP POP POP JUMP JUMPDEST PUSH1 0x1F DUP3 GT ISZERO PUSH2 0x2361 JUMPI PUSH0 DUP2 DUP2 MSTORE PUSH1 0x20 DUP2 KECCAK256 PUSH1 0x1F DUP6 ADD PUSH1 0x5 SHR DUP2 ADD PUSH1 0x20 DUP7 LT ISZERO PUSH2 0x233E JUMPI POP DUP1 JUMPDEST PUSH1 0x1F DUP6 ADD PUSH1 0x5 SHR DUP3 ADD SWAP2 POP JUMPDEST DUP2 DUP2 LT ISZERO PUSH2 0x235D JUMPI DUP3 DUP2 SSTORE PUSH1 0x1 ADD PUSH2 0x234A JUMP JUMPDEST POP POP POP JUMPDEST POP POP POP JUMP JUMPDEST DUP2 MLOAD PUSH8 0xFFFFFFFFFFFFFFFF DUP2 GT ISZERO PUSH2 0x2380 JUMPI PUSH2 0x2380 PUSH2 0x200C JUMP JUMPDEST PUSH2 0x2394 DUP2 PUSH2 0x238E DUP5 SLOAD PUSH2 0x21F7 JUMP JUMPDEST DUP5 PUSH2 0x2318 JUMP JUMPDEST PUSH1 0x20 DUP1 PUSH1 0x1F DUP4 GT PUSH1 0x1 DUP2 EQ PUSH2 0x23C7 JUMPI PUSH0 DUP5 ISZERO PUSH2 0x23B0 JUMPI POP DUP6 DUP4 ADD MLOAD JUMPDEST PUSH0 NOT PUSH1 0x3 DUP7 SWAP1 SHL SHR NOT AND PUSH1 0x1 DUP6 SWAP1 SHL OR DUP6 SSTORE PUSH2 0x235D JUMP JUMPDEST PUSH0 DUP6 DUP2 MSTORE PUSH1 0x20 DUP2 KECCAK256 PUSH1 0x1F NOT DUP7 AND SWAP2 JUMPDEST DUP3 DUP2 LT ISZERO PUSH2 0x23F5 JUMPI DUP9 DUP7 ADD MLOAD DUP3 SSTORE SWAP5 DUP5 ADD SWAP5 PUSH1 0x1 SWAP1 SWAP2 ADD SWAP1 DUP5 ADD PUSH2 0x23D6 JUMP JUMPDEST POP DUP6 DUP3 LT ISZERO PUSH2 0x2412 JUMPI DUP8 DUP6 ADD MLOAD PUSH0 NOT PUSH1 0x3 DUP9 SWAP1 SHL PUSH1 0xF8 AND SHR NOT AND DUP2 SSTORE JUMPDEST POP POP POP POP POP PUSH1 0x1 SWAP1 DUP2 SHL ADD SWAP1 SSTORE POP JUMP INVALID LOG2 PUSH5 0x6970667358 0x22 SLT KECCAK256 0xA6 DUP11 0xEF DIV SWAP1 0xD2 0x4F DUP4 DUP3 0xE PUSH23 0xB8A7635720DD243AA342A52E085E691D7374C2F4166473 PUSH16 0x6C634300081500330000000000000000 "
				},
				"gasEstimates": {
					"creation": {
						"codeDepositCost": "1860800",
						"executionCost": "74726",
						"totalCost": "1935526"
					},
					"external": {
						"addApprover(string,address)": "infinite",
						"addTaxPayer(string,address)": "infinite",
						"approveAdmin(address)": "infinite",
						"canMint()": "2387",
						"expirationLicense(bytes32)": "infinite",
						"getAddressSignature(bytes32)": "infinite",
						"getManyAddressSignature(address)": "infinite",
						"getOwnerAddressSignature()": "infinite",
						"getOwnnerSignature(bytes32)": "infinite",
						"mintingStop()": "26743",
						"proposeAdmin(address)": "infinite",
						"signatureMint(string,string,string,string,string)": "infinite",
						"signatureValidate(bytes32)": "infinite",
						"taxpayerAddress(string)": "infinite",
						"tranferOwnership(address)": "26881",
						"validateData(string,string,string,string,string)": "infinite"
					},
					"internal": {
						"_checkLicense(struct ISignature.StructSignature memory)": "infinite",
						"_createLicense(struct ISignature.StructSignature memory)": "infinite",
						"_deleteLicense(bytes32,address)": "infinite",
						"singLicense(string memory,string memory,address,string memory,address)": "infinite"
					}
				},
				"methodIdentifiers": {
					"addApprover(string,address)": "c8c2f4fe",
					"addTaxPayer(string,address)": "9dfb7831",
					"approveAdmin(address)": "6d73e669",
					"canMint()": "beb9716d",
					"expirationLicense(bytes32)": "d84ab181",
					"getAddressSignature(bytes32)": "62610492",
					"getManyAddressSignature(address)": "369f6cd7",
					"getOwnerAddressSignature()": "3fde3309",
					"getOwnnerSignature(bytes32)": "0c0bd76b",
					"mintingStop()": "dc2aa909",
					"proposeAdmin(address)": "147bf6c4",
					"signatureMint(string,string,string,string,string)": "ce7262a1",
					"signatureValidate(bytes32)": "bff2d536",
					"taxpayerAddress(string)": "84e26b2c",
					"tranferOwnership(address)": "83fc58b4",
					"validateData(string,string,string,string,string)": "7ea5cc1a"
				}
			},
			"storageLayout": {
				"storage": [
					{
						"astId": 67,
						"contract": "TokenSGTX/contracts/LicenciasTaxsClone.sol:LicenseTaxPayer",
						"label": "_signatureEnabled",
						"offset": 0,
						"slot": "0",
						"type": "t_mapping(t_bytes32,t_struct(StructSignature)16_storage)"
					},
					{
						"astId": 72,
						"contract": "TokenSGTX/contracts/LicenciasTaxsClone.sol:LicenseTaxPayer",
						"label": "_userSings",
						"offset": 0,
						"slot": "1",
						"type": "t_mapping(t_address,t_array(t_bytes32)dyn_storage)"
					},
					{
						"astId": 78,
						"contract": "TokenSGTX/contracts/LicenciasTaxsClone.sol:LicenseTaxPayer",
						"label": "_recordedLicenses",
						"offset": 0,
						"slot": "2",
						"type": "t_mapping(t_address,t_array(t_struct(StructSignature)16_storage)dyn_storage)"
					},
					{
						"astId": 82,
						"contract": "TokenSGTX/contracts/LicenciasTaxsClone.sol:LicenseTaxPayer",
						"label": "_taxpayers",
						"offset": 0,
						"slot": "3",
						"type": "t_mapping(t_string_memory_ptr,t_address)"
					},
					{
						"astId": 86,
						"contract": "TokenSGTX/contracts/LicenciasTaxsClone.sol:LicenseTaxPayer",
						"label": "_admins",
						"offset": 0,
						"slot": "4",
						"type": "t_mapping(t_address,t_bool)"
					},
					{
						"astId": 90,
						"contract": "TokenSGTX/contracts/LicenciasTaxsClone.sol:LicenseTaxPayer",
						"label": "_propoceAdmins",
						"offset": 0,
						"slot": "5",
						"type": "t_mapping(t_address,t_bool)"
					},
					{
						"astId": 94,
						"contract": "TokenSGTX/contracts/LicenciasTaxsClone.sol:LicenseTaxPayer",
						"label": "_approvers",
						"offset": 0,
						"slot": "6",
						"type": "t_mapping(t_string_memory_ptr,t_address)"
					},
					{
						"astId": 126,
						"contract": "TokenSGTX/contracts/LicenciasTaxsClone.sol:LicenseTaxPayer",
						"label": "owner",
						"offset": 0,
						"slot": "7",
						"type": "t_address"
					},
					{
						"astId": 129,
						"contract": "TokenSGTX/contracts/LicenciasTaxsClone.sol:LicenseTaxPayer",
						"label": "stopMinting",
						"offset": 20,
						"slot": "7",
						"type": "t_bool"
					}
				],
				"types": {
					"t_address": {
						"encoding": "inplace",
						"label": "address",
						"numberOfBytes": "20"
					},
					"t_array(t_bytes32)dyn_storage": {
						"base": "t_bytes32",
						"encoding": "dynamic_array",
						"label": "bytes32[]",
						"numberOfBytes": "32"
					},
					"t_array(t_struct(StructSignature)16_storage)dyn_storage": {
						"base": "t_struct(StructSignature)16_storage",
						"encoding": "dynamic_array",
						"label": "struct ISignature.StructSignature[]",
						"numberOfBytes": "32"
					},
					"t_bool": {
						"encoding": "inplace",
						"label": "bool",
						"numberOfBytes": "1"
					},
					"t_bytes32": {
						"encoding": "inplace",
						"label": "bytes32",
						"numberOfBytes": "32"
					},
					"t_mapping(t_address,t_array(t_bytes32)dyn_storage)": {
						"encoding": "mapping",
						"key": "t_address",
						"label": "mapping(address => bytes32[])",
						"numberOfBytes": "32",
						"value": "t_array(t_bytes32)dyn_storage"
					},
					"t_mapping(t_address,t_array(t_struct(StructSignature)16_storage)dyn_storage)": {
						"encoding": "mapping",
						"key": "t_address",
						"label": "mapping(address => struct ISignature.StructSignature[])",
						"numberOfBytes": "32",
						"value": "t_array(t_struct(StructSignature)16_storage)dyn_storage"
					},
					"t_mapping(t_address,t_bool)": {
						"encoding": "mapping",
						"key": "t_address",
						"label": "mapping(address => bool)",
						"numberOfBytes": "32",
						"value": "t_bool"
					},
					"t_mapping(t_bytes32,t_struct(StructSignature)16_storage)": {
						"encoding": "mapping",
						"key": "t_bytes32",
						"label": "mapping(bytes32 => struct ISignature.StructSignature)",
						"numberOfBytes": "32",
						"value": "t_struct(StructSignature)16_storage"
					},
					"t_mapping(t_string_memory_ptr,t_address)": {
						"encoding": "mapping",
						"key": "t_string_memory_ptr",
						"label": "mapping(string => address)",
						"numberOfBytes": "32",
						"value": "t_address"
					},
					"t_string_memory_ptr": {
						"encoding": "bytes",
						"label": "string",
						"numberOfBytes": "32"
					},
					"t_string_storage": {
						"encoding": "bytes",
						"label": "string",
						"numberOfBytes": "32"
					},
					"t_struct(StructSignature)16_storage": {
						"encoding": "inplace",
						"label": "struct ISignature.StructSignature",
						"members": [
							{
								"astId": 3,
								"contract": "TokenSGTX/contracts/LicenciasTaxsClone.sol:LicenseTaxPayer",
								"label": "concept",
								"offset": 0,
								"slot": "0",
								"type": "t_string_storage"
							},
							{
								"astId": 5,
								"contract": "TokenSGTX/contracts/LicenciasTaxsClone.sol:LicenseTaxPayer",
								"label": "identifier",
								"offset": 0,
								"slot": "1",
								"type": "t_string_storage"
							},
							{
								"astId": 7,
								"contract": "TokenSGTX/contracts/LicenciasTaxsClone.sol:LicenseTaxPayer",
								"label": "owner",
								"offset": 0,
								"slot": "2",
								"type": "t_address"
							},
							{
								"astId": 9,
								"contract": "TokenSGTX/contracts/LicenciasTaxsClone.sol:LicenseTaxPayer",
								"label": "data",
								"offset": 0,
								"slot": "3",
								"type": "t_string_storage"
							},
							{
								"astId": 11,
								"contract": "TokenSGTX/contracts/LicenciasTaxsClone.sol:LicenseTaxPayer",
								"label": "aprrover",
								"offset": 0,
								"slot": "4",
								"type": "t_address"
							},
							{
								"astId": 13,
								"contract": "TokenSGTX/contracts/LicenciasTaxsClone.sol:LicenseTaxPayer",
								"label": "signature",
								"offset": 0,
								"slot": "5",
								"type": "t_bytes32"
							},
							{
								"astId": 15,
								"contract": "TokenSGTX/contracts/LicenciasTaxsClone.sol:LicenseTaxPayer",
								"label": "isEntity",
								"offset": 0,
								"slot": "6",
								"type": "t_bool"
							}
						],
						"numberOfBytes": "224"
					}
				}
			},
			"userdoc": {
				"kind": "user",
				"methods": {},
				"version": 1
			}
		}
	}
}