{
	"TokenSGTX/contracts/SGTX.sol": {
		"SigatTokenX": {
			"abi": [
				{
					"inputs": [
						{
							"internalType": "string",
							"name": "name_",
							"type": "string"
						},
						{
							"internalType": "string",
							"name": "symbol_",
							"type": "string"
						},
						{
							"internalType": "uint256",
							"name": "supply_",
							"type": "uint256"
						},
						{
							"internalType": "uint8",
							"name": "decimals_",
							"type": "uint8"
						}
					],
					"stateMutability": "nonpayable",
					"type": "constructor"
				},
				{
					"inputs": [
						{
							"internalType": "address",
							"name": "spender",
							"type": "address"
						},
						{
							"internalType": "uint256",
							"name": "allowance",
							"type": "uint256"
						},
						{
							"internalType": "uint256",
							"name": "needed",
							"type": "uint256"
						}
					],
					"name": "ERC20InsufficientAllowance",
					"type": "error"
				},
				{
					"inputs": [
						{
							"internalType": "address",
							"name": "sender",
							"type": "address"
						},
						{
							"internalType": "uint256",
							"name": "balance",
							"type": "uint256"
						},
						{
							"internalType": "uint256",
							"name": "needed",
							"type": "uint256"
						}
					],
					"name": "ERC20InsufficientBalance",
					"type": "error"
				},
				{
					"inputs": [
						{
							"internalType": "address",
							"name": "approver",
							"type": "address"
						}
					],
					"name": "ERC20InvalidApprover",
					"type": "error"
				},
				{
					"inputs": [
						{
							"internalType": "address",
							"name": "receiver",
							"type": "address"
						}
					],
					"name": "ERC20InvalidReceiver",
					"type": "error"
				},
				{
					"inputs": [
						{
							"internalType": "address",
							"name": "sender",
							"type": "address"
						}
					],
					"name": "ERC20InvalidSender",
					"type": "error"
				},
				{
					"inputs": [
						{
							"internalType": "address",
							"name": "spender",
							"type": "address"
						}
					],
					"name": "ERC20InvalidSpender",
					"type": "error"
				},
				{
					"anonymous": false,
					"inputs": [
						{
							"indexed": true,
							"internalType": "address",
							"name": "owner",
							"type": "address"
						},
						{
							"indexed": true,
							"internalType": "address",
							"name": "spender",
							"type": "address"
						},
						{
							"indexed": false,
							"internalType": "uint256",
							"name": "value",
							"type": "uint256"
						}
					],
					"name": "Approval",
					"type": "event"
				},
				{
					"anonymous": false,
					"inputs": [
						{
							"indexed": true,
							"internalType": "address",
							"name": "currentOwner",
							"type": "address"
						},
						{
							"indexed": true,
							"internalType": "uint256",
							"name": "timeStamp",
							"type": "uint256"
						},
						{
							"indexed": true,
							"internalType": "bool",
							"name": "freeTranfer",
							"type": "bool"
						}
					],
					"name": "FreeTranfered",
					"type": "event"
				},
				{
					"anonymous": false,
					"inputs": [
						{
							"indexed": true,
							"internalType": "address",
							"name": "currentOwner",
							"type": "address"
						},
						{
							"indexed": true,
							"internalType": "uint256",
							"name": "timeStamp",
							"type": "uint256"
						},
						{
							"indexed": true,
							"internalType": "bool",
							"name": "paused",
							"type": "bool"
						}
					],
					"name": "Paused",
					"type": "event"
				},
				{
					"anonymous": false,
					"inputs": [
						{
							"indexed": true,
							"internalType": "address",
							"name": "from",
							"type": "address"
						},
						{
							"indexed": true,
							"internalType": "address",
							"name": "to",
							"type": "address"
						},
						{
							"indexed": false,
							"internalType": "uint256",
							"name": "value",
							"type": "uint256"
						}
					],
					"name": "Transfer",
					"type": "event"
				},
				{
					"inputs": [
						{
							"internalType": "address",
							"name": "adr",
							"type": "address"
						}
					],
					"name": "FreezeAddress",
					"outputs": [
						{
							"internalType": "bool",
							"name": "",
							"type": "bool"
						}
					],
					"stateMutability": "nonpayable",
					"type": "function"
				},
				{
					"inputs": [],
					"name": "Pause",
					"outputs": [
						{
							"internalType": "bool",
							"name": "",
							"type": "bool"
						}
					],
					"stateMutability": "nonpayable",
					"type": "function"
				},
				{
					"inputs": [
						{
							"internalType": "address",
							"name": "newOwner",
							"type": "address"
						}
					],
					"name": "TranferOwner",
					"outputs": [
						{
							"internalType": "address",
							"name": "",
							"type": "address"
						}
					],
					"stateMutability": "nonpayable",
					"type": "function"
				},
				{
					"inputs": [
						{
							"internalType": "address",
							"name": "adr",
							"type": "address"
						}
					],
					"name": "UnFreezeAddress",
					"outputs": [
						{
							"internalType": "bool",
							"name": "",
							"type": "bool"
						}
					],
					"stateMutability": "nonpayable",
					"type": "function"
				},
				{
					"inputs": [
						{
							"internalType": "address",
							"name": "",
							"type": "address"
						}
					],
					"name": "_balances",
					"outputs": [
						{
							"internalType": "uint256",
							"name": "",
							"type": "uint256"
						}
					],
					"stateMutability": "view",
					"type": "function"
				},
				{
					"inputs": [
						{
							"internalType": "address",
							"name": "",
							"type": "address"
						}
					],
					"name": "_freeze",
					"outputs": [
						{
							"internalType": "bool",
							"name": "",
							"type": "bool"
						}
					],
					"stateMutability": "view",
					"type": "function"
				},
				{
					"inputs": [
						{
							"internalType": "address",
							"name": "",
							"type": "address"
						}
					],
					"name": "_holders",
					"outputs": [
						{
							"internalType": "bool",
							"name": "",
							"type": "bool"
						}
					],
					"stateMutability": "view",
					"type": "function"
				},
				{
					"inputs": [
						{
							"internalType": "address",
							"name": "owner",
							"type": "address"
						},
						{
							"internalType": "address",
							"name": "spender",
							"type": "address"
						}
					],
					"name": "allowance",
					"outputs": [
						{
							"internalType": "uint256",
							"name": "",
							"type": "uint256"
						}
					],
					"stateMutability": "view",
					"type": "function"
				},
				{
					"inputs": [
						{
							"internalType": "address",
							"name": "spender",
							"type": "address"
						},
						{
							"internalType": "uint256",
							"name": "value",
							"type": "uint256"
						}
					],
					"name": "approve",
					"outputs": [
						{
							"internalType": "bool",
							"name": "",
							"type": "bool"
						}
					],
					"stateMutability": "nonpayable",
					"type": "function"
				},
				{
					"inputs": [
						{
							"internalType": "address",
							"name": "account",
							"type": "address"
						}
					],
					"name": "balanceOf",
					"outputs": [
						{
							"internalType": "uint256",
							"name": "",
							"type": "uint256"
						}
					],
					"stateMutability": "view",
					"type": "function"
				},
				{
					"inputs": [],
					"name": "decimals",
					"outputs": [
						{
							"internalType": "uint8",
							"name": "",
							"type": "uint8"
						}
					],
					"stateMutability": "view",
					"type": "function"
				},
				{
					"inputs": [],
					"name": "freeTranfer",
					"outputs": [
						{
							"internalType": "bool",
							"name": "",
							"type": "bool"
						}
					],
					"stateMutability": "nonpayable",
					"type": "function"
				},
				{
					"inputs": [
						{
							"internalType": "address",
							"name": "spender",
							"type": "address"
						},
						{
							"internalType": "uint256",
							"name": "addedValue",
							"type": "uint256"
						}
					],
					"name": "increaseAllowance",
					"outputs": [
						{
							"internalType": "bool",
							"name": "",
							"type": "bool"
						}
					],
					"stateMutability": "nonpayable",
					"type": "function"
				},
				{
					"inputs": [
						{
							"internalType": "address",
							"name": "adr",
							"type": "address"
						}
					],
					"name": "isFreezed",
					"outputs": [
						{
							"internalType": "bool",
							"name": "",
							"type": "bool"
						}
					],
					"stateMutability": "view",
					"type": "function"
				},
				{
					"inputs": [],
					"name": "isPaused",
					"outputs": [
						{
							"internalType": "bool",
							"name": "",
							"type": "bool"
						}
					],
					"stateMutability": "view",
					"type": "function"
				},
				{
					"inputs": [],
					"name": "name",
					"outputs": [
						{
							"internalType": "string",
							"name": "",
							"type": "string"
						}
					],
					"stateMutability": "view",
					"type": "function"
				},
				{
					"inputs": [],
					"name": "symbol",
					"outputs": [
						{
							"internalType": "string",
							"name": "",
							"type": "string"
						}
					],
					"stateMutability": "view",
					"type": "function"
				},
				{
					"inputs": [],
					"name": "totalSupply",
					"outputs": [
						{
							"internalType": "uint256",
							"name": "",
							"type": "uint256"
						}
					],
					"stateMutability": "view",
					"type": "function"
				},
				{
					"inputs": [
						{
							"internalType": "address",
							"name": "to",
							"type": "address"
						},
						{
							"internalType": "uint256",
							"name": "value",
							"type": "uint256"
						}
					],
					"name": "transfer",
					"outputs": [
						{
							"internalType": "bool",
							"name": "",
							"type": "bool"
						}
					],
					"stateMutability": "nonpayable",
					"type": "function"
				},
				{
					"inputs": [
						{
							"internalType": "address",
							"name": "from",
							"type": "address"
						},
						{
							"internalType": "address",
							"name": "to",
							"type": "address"
						},
						{
							"internalType": "uint256",
							"name": "value",
							"type": "uint256"
						}
					],
					"name": "transferFrom",
					"outputs": [
						{
							"internalType": "bool",
							"name": "",
							"type": "bool"
						}
					],
					"stateMutability": "nonpayable",
					"type": "function"
				},
				{
					"inputs": [],
					"name": "unFreeTransfer",
					"outputs": [
						{
							"internalType": "bool",
							"name": "",
							"type": "bool"
						}
					],
					"stateMutability": "nonpayable",
					"type": "function"
				},
				{
					"inputs": [],
					"name": "unPause",
					"outputs": [
						{
							"internalType": "bool",
							"name": "",
							"type": "bool"
						}
					],
					"stateMutability": "nonpayable",
					"type": "function"
				}
			],
			"devdoc": {
				"errors": {
					"ERC20InsufficientAllowance(address,uint256,uint256)": [
						{
							"details": "Indicates a failure with the `spender`’s `allowance`. Used in transfers.",
							"params": {
								"allowance": "Amount of tokens a `spender` is allowed to operate with.",
								"needed": "Minimum amount required to perform a transfer.",
								"spender": "Address that may be allowed to operate on tokens without being their owner."
							}
						}
					],
					"ERC20InsufficientBalance(address,uint256,uint256)": [
						{
							"details": "Indicates an error related to the current `balance` of a `sender`. Used in transfers.",
							"params": {
								"balance": "Current balance for the interacting account.",
								"needed": "Minimum amount required to perform a transfer.",
								"sender": "Address whose tokens are being transferred."
							}
						}
					],
					"ERC20InvalidApprover(address)": [
						{
							"details": "Indicates a failure with the `approver` of a token to be approved. Used in approvals.",
							"params": {
								"approver": "Address initiating an approval operation."
							}
						}
					],
					"ERC20InvalidReceiver(address)": [
						{
							"details": "Indicates a failure with the token `receiver`. Used in transfers.",
							"params": {
								"receiver": "Address to which tokens are being transferred."
							}
						}
					],
					"ERC20InvalidSender(address)": [
						{
							"details": "Indicates a failure with the token `sender`. Used in transfers.",
							"params": {
								"sender": "Address whose tokens are being transferred."
							}
						}
					],
					"ERC20InvalidSpender(address)": [
						{
							"details": "Indicates a failure with the `spender` to be approved. Used in approvals.",
							"params": {
								"spender": "Address that may be allowed to operate on tokens without being their owner."
							}
						}
					]
				},
				"events": {
					"Approval(address,address,uint256)": {
						"details": "Emitted when the allowance of a `spender` for an `owner` is set by a call to {approve}. `value` is the new allowance."
					},
					"Transfer(address,address,uint256)": {
						"details": "Emitted when `value` tokens are moved from one account (`from`) to another (`to`). Note that `value` may be zero."
					}
				},
				"kind": "dev",
				"methods": {
					"allowance(address,address)": {
						"details": "Returns the remaining number of tokens that `spender` will be allowed to spend on behalf of `owner` through {transferFrom}. This is zero by default. This value changes when {approve} or {transferFrom} are called."
					},
					"approve(address,uint256)": {
						"details": "Sets a `value` amount of tokens as the allowance of `spender` over the caller's tokens. Returns a boolean value indicating whether the operation succeeded. IMPORTANT: Beware that changing an allowance with this method brings the risk that someone may use both the old and the new allowance by unfortunate transaction ordering. One possible solution to mitigate this race condition is to first reduce the spender's allowance to 0 and set the desired value afterwards: https://github.com/ethereum/EIPs/issues/20#issuecomment-263524729 Emits an {Approval} event."
					},
					"balanceOf(address)": {
						"details": "Returns the value of tokens owned by `account`."
					},
					"totalSupply()": {
						"details": "Returns the value of tokens in existence."
					},
					"transfer(address,uint256)": {
						"details": "Moves a `value` amount of tokens from the caller's account to `to`. Returns a boolean value indicating whether the operation succeeded. Emits a {Transfer} event."
					},
					"transferFrom(address,address,uint256)": {
						"details": "Moves a `value` amount of tokens from `from` to `to` using the allowance mechanism. `value` is then deducted from the caller's allowance. Returns a boolean value indicating whether the operation succeeded. Emits a {Transfer} event."
					}
				},
				"version": 1
			},
			"evm": {
				"assembly": "    /* \"TokenSGTX/contracts/SGTX.sol\":4536:12246  contract SigatTokenX is IERC20, IERC20Errors {... */\n  mstore(0x40, 0x80)\n    /* \"TokenSGTX/contracts/SGTX.sol\":5265:5633  constructor(... */\n  callvalue\n  dup1\n  iszero\n  tag_1\n  jumpi\n  0x00\n  dup1\n  revert\ntag_1:\n  pop\n  mload(0x40)\n  sub(codesize, bytecodeSize)\n  dup1\n  bytecodeSize\n  dup4\n  codecopy\n  dup2\n  add\n  0x40\n  dup2\n  swap1\n  mstore\n  tag_2\n  swap2\n  tag_3\n  jump\t// in\ntag_2:\n    /* \"TokenSGTX/contracts/SGTX.sol\":5403:5409  _owner */\n  0x00\n    /* \"TokenSGTX/contracts/SGTX.sol\":5403:5422  _owner = msg.sender */\n  dup1\n  sload\n  not(sub(shl(0xa0, 0x01), 0x01))\n  and\n    /* \"TokenSGTX/contracts/SGTX.sol\":5412:5422  msg.sender */\n  caller\n    /* \"TokenSGTX/contracts/SGTX.sol\":5403:5422  _owner = msg.sender */\n  or\n  swap1\n  sstore\n    /* \"TokenSGTX/contracts/SGTX.sol\":5432:5439  _supply */\n  0x03\n    /* \"TokenSGTX/contracts/SGTX.sol\":5432:5449  _supply = supply_ */\n  dup3\n  swap1\n  sstore\n    /* \"TokenSGTX/contracts/SGTX.sol\":5403:5422  _owner = msg.sender */\n  0x01\n    /* \"TokenSGTX/contracts/SGTX.sol\":5459:5472  _name = name_ */\n  tag_6\n    /* \"TokenSGTX/contracts/SGTX.sol\":5467:5472  name_ */\n  dup6\n    /* \"TokenSGTX/contracts/SGTX.sol\":5403:5422  _owner = msg.sender */\n  dup3\n    /* \"TokenSGTX/contracts/SGTX.sol\":5459:5472  _name = name_ */\n  tag_7\n  jump\t// in\ntag_6:\n  pop\n    /* \"TokenSGTX/contracts/SGTX.sol\":5482:5489  _symbol */\n  0x02\n    /* \"TokenSGTX/contracts/SGTX.sol\":5482:5499  _symbol = symbol_ */\n  tag_8\n    /* \"TokenSGTX/contracts/SGTX.sol\":5492:5499  symbol_ */\n  dup5\n    /* \"TokenSGTX/contracts/SGTX.sol\":5482:5489  _symbol */\n  dup3\n    /* \"TokenSGTX/contracts/SGTX.sol\":5482:5499  _symbol = symbol_ */\n  tag_7\n  jump\t// in\ntag_8:\n  pop\n    /* \"TokenSGTX/contracts/SGTX.sol\":5509:5518  _decimals */\n  0x04\n    /* \"TokenSGTX/contracts/SGTX.sol\":5509:5530  _decimals = decimals_ */\n  dup1\n  sload\n  not(0xffffff)\n    /* \"TokenSGTX/contracts/SGTX.sol\":5565:5585  _freeTranfer = false */\n  and\n    /* \"TokenSGTX/contracts/SGTX.sol\":5509:5530  _decimals = decimals_ */\n  0xff\n  swap1\n  swap3\n  and\n    /* \"TokenSGTX/contracts/SGTX.sol\":5565:5585  _freeTranfer = false */\n  swap2\n  swap1\n  swap2\n  or\n  swap1\n  sstore\n  pop\n  pop\n    /* \"TokenSGTX/contracts/SGTX.sol\":5619:5626  _supply */\n  sload(0x03)\n    /* \"TokenSGTX/contracts/SGTX.sol\":5605:5615  msg.sender */\n  caller\n    /* \"TokenSGTX/contracts/SGTX.sol\":5509:5518  _decimals */\n  0x00\n    /* \"TokenSGTX/contracts/SGTX.sol\":5595:5616  _balances[msg.sender] */\n  swap1\n  dup2\n  mstore\n    /* \"TokenSGTX/contracts/SGTX.sol\":5595:5604  _balances */\n  0x05\n    /* \"TokenSGTX/contracts/SGTX.sol\":5595:5616  _balances[msg.sender] */\n  0x20\n  mstore\n  0x40\n  swap1\n  keccak256\n    /* \"TokenSGTX/contracts/SGTX.sol\":5595:5626  _balances[msg.sender] = _supply */\n  sstore\n  pop\n    /* \"TokenSGTX/contracts/SGTX.sol\":4536:12246  contract SigatTokenX is IERC20, IERC20Errors {... */\n  jump(tag_16)\n    /* \"#utility.yul\":14:141   */\ntag_10:\n    /* \"#utility.yul\":75:85   */\n  0x4e487b71\n    /* \"#utility.yul\":70:73   */\n  0xe0\n    /* \"#utility.yul\":66:86   */\n  shl\n    /* \"#utility.yul\":63:64   */\n  0x00\n    /* \"#utility.yul\":56:87   */\n  mstore\n    /* \"#utility.yul\":106:110   */\n  0x41\n    /* \"#utility.yul\":103:104   */\n  0x04\n    /* \"#utility.yul\":96:111   */\n  mstore\n    /* \"#utility.yul\":130:134   */\n  0x24\n    /* \"#utility.yul\":127:128   */\n  0x00\n    /* \"#utility.yul\":120:135   */\n  revert\n    /* \"#utility.yul\":146:986   */\ntag_11:\n    /* \"#utility.yul\":200:205   */\n  0x00\n    /* \"#utility.yul\":253:256   */\n  dup3\n    /* \"#utility.yul\":246:250   */\n  0x1f\n    /* \"#utility.yul\":238:244   */\n  dup4\n    /* \"#utility.yul\":234:251   */\n  add\n    /* \"#utility.yul\":230:257   */\n  slt\n    /* \"#utility.yul\":220:275   */\n  tag_19\n  jumpi\n    /* \"#utility.yul\":271:272   */\n  0x00\n    /* \"#utility.yul\":268:269   */\n  dup1\n    /* \"#utility.yul\":261:273   */\n  revert\n    /* \"#utility.yul\":220:275   */\ntag_19:\n    /* \"#utility.yul\":294:307   */\n  dup2\n  mload\n  sub(shl(0x40, 0x01), 0x01)\n    /* \"#utility.yul\":356:366   */\n  dup1\n  dup3\n  gt\n    /* \"#utility.yul\":353:389   */\n  iszero\n  tag_21\n  jumpi\n    /* \"#utility.yul\":369:387   */\n  tag_21\n  tag_10\n  jump\t// in\ntag_21:\n    /* \"#utility.yul\":444:446   */\n  0x40\n    /* \"#utility.yul\":438:447   */\n  mload\n    /* \"#utility.yul\":412:414   */\n  0x1f\n    /* \"#utility.yul\":498:511   */\n  dup4\n  add\n  not(0x1f)\n    /* \"#utility.yul\":494:516   */\n  swap1\n  dup2\n  and\n    /* \"#utility.yul\":518:520   */\n  0x3f\n    /* \"#utility.yul\":490:521   */\n  add\n    /* \"#utility.yul\":486:526   */\n  and\n    /* \"#utility.yul\":474:527   */\n  dup2\n  add\n  swap1\n    /* \"#utility.yul\":542:560   */\n  dup3\n  dup3\n  gt\n    /* \"#utility.yul\":562:584   */\n  dup2\n  dup4\n  lt\n    /* \"#utility.yul\":539:585   */\n  or\n    /* \"#utility.yul\":536:608   */\n  iszero\n  tag_23\n  jumpi\n    /* \"#utility.yul\":588:606   */\n  tag_23\n  tag_10\n  jump\t// in\ntag_23:\n    /* \"#utility.yul\":628:638   */\n  dup2\n    /* \"#utility.yul\":624:626   */\n  0x40\n    /* \"#utility.yul\":617:639   */\n  mstore\n    /* \"#utility.yul\":663:665   */\n  dup4\n    /* \"#utility.yul\":655:661   */\n  dup2\n    /* \"#utility.yul\":648:666   */\n  mstore\n    /* \"#utility.yul\":685:689   */\n  0x20\n    /* \"#utility.yul\":675:689   */\n  swap3\n  pop\n    /* \"#utility.yul\":730:733   */\n  dup7\n    /* \"#utility.yul\":725:727   */\n  dup4\n    /* \"#utility.yul\":720:722   */\n  dup6\n    /* \"#utility.yul\":712:718   */\n  dup9\n    /* \"#utility.yul\":708:723   */\n  add\n    /* \"#utility.yul\":704:728   */\n  add\n    /* \"#utility.yul\":701:734   */\n  gt\n    /* \"#utility.yul\":698:751   */\n  iszero\n  tag_24\n  jumpi\n    /* \"#utility.yul\":747:748   */\n  0x00\n    /* \"#utility.yul\":744:745   */\n  dup1\n    /* \"#utility.yul\":737:749   */\n  revert\n    /* \"#utility.yul\":698:751   */\ntag_24:\n    /* \"#utility.yul\":769:770   */\n  0x00\n    /* \"#utility.yul\":760:770   */\n  swap2\n  pop\n    /* \"#utility.yul\":779:912   */\ntag_25:\n    /* \"#utility.yul\":793:795   */\n  dup4\n    /* \"#utility.yul\":790:791   */\n  dup3\n    /* \"#utility.yul\":787:796   */\n  lt\n    /* \"#utility.yul\":779:912   */\n  iszero\n  tag_27\n  jumpi\n    /* \"#utility.yul\":881:895   */\n  dup6\n  dup3\n  add\n    /* \"#utility.yul\":877:900   */\n  dup4\n  add\n    /* \"#utility.yul\":871:901   */\n  mload\n    /* \"#utility.yul\":850:864   */\n  dup2\n  dup4\n  add\n    /* \"#utility.yul\":846:869   */\n  dup5\n  add\n    /* \"#utility.yul\":839:902   */\n  mstore\n    /* \"#utility.yul\":804:814   */\n  swap1\n  dup3\n  add\n  swap1\n    /* \"#utility.yul\":779:912   */\n  jump(tag_25)\ntag_27:\n    /* \"#utility.yul\":954:955   */\n  0x00\n    /* \"#utility.yul\":932:947   */\n  swap4\n  dup2\n  add\n    /* \"#utility.yul\":928:952   */\n  swap1\n  swap3\n  add\n    /* \"#utility.yul\":921:956   */\n  swap3\n  swap1\n  swap3\n  mstore\n    /* \"#utility.yul\":936:942   */\n  swap5\n    /* \"#utility.yul\":146:986   */\n  swap4\n  pop\n  pop\n  pop\n  pop\n  jump\t// out\n    /* \"#utility.yul\":991:1765   */\ntag_3:\n    /* \"#utility.yul\":1106:1112   */\n  0x00\n    /* \"#utility.yul\":1114:1120   */\n  dup1\n    /* \"#utility.yul\":1122:1128   */\n  0x00\n    /* \"#utility.yul\":1130:1136   */\n  dup1\n    /* \"#utility.yul\":1183:1186   */\n  0x80\n    /* \"#utility.yul\":1171:1180   */\n  dup6\n    /* \"#utility.yul\":1162:1169   */\n  dup8\n    /* \"#utility.yul\":1158:1181   */\n  sub\n    /* \"#utility.yul\":1154:1187   */\n  slt\n    /* \"#utility.yul\":1151:1204   */\n  iszero\n  tag_29\n  jumpi\n    /* \"#utility.yul\":1200:1201   */\n  0x00\n    /* \"#utility.yul\":1197:1198   */\n  dup1\n    /* \"#utility.yul\":1190:1202   */\n  revert\n    /* \"#utility.yul\":1151:1204   */\ntag_29:\n    /* \"#utility.yul\":1227:1243   */\n  dup5\n  mload\n  sub(shl(0x40, 0x01), 0x01)\n    /* \"#utility.yul\":1292:1306   */\n  dup1\n  dup3\n  gt\n    /* \"#utility.yul\":1289:1323   */\n  iszero\n  tag_30\n  jumpi\n    /* \"#utility.yul\":1319:1320   */\n  0x00\n    /* \"#utility.yul\":1316:1317   */\n  dup1\n    /* \"#utility.yul\":1309:1321   */\n  revert\n    /* \"#utility.yul\":1289:1323   */\ntag_30:\n    /* \"#utility.yul\":1342:1403   */\n  tag_31\n    /* \"#utility.yul\":1395:1402   */\n  dup9\n    /* \"#utility.yul\":1386:1392   */\n  dup4\n    /* \"#utility.yul\":1375:1384   */\n  dup10\n    /* \"#utility.yul\":1371:1393   */\n  add\n    /* \"#utility.yul\":1342:1403   */\n  tag_11\n  jump\t// in\ntag_31:\n    /* \"#utility.yul\":1332:1403   */\n  swap6\n  pop\n    /* \"#utility.yul\":1449:1451   */\n  0x20\n    /* \"#utility.yul\":1438:1447   */\n  dup8\n    /* \"#utility.yul\":1434:1452   */\n  add\n    /* \"#utility.yul\":1428:1453   */\n  mload\n    /* \"#utility.yul\":1412:1453   */\n  swap2\n  pop\n    /* \"#utility.yul\":1478:1480   */\n  dup1\n    /* \"#utility.yul\":1468:1476   */\n  dup3\n    /* \"#utility.yul\":1465:1481   */\n  gt\n    /* \"#utility.yul\":1462:1498   */\n  iszero\n  tag_32\n  jumpi\n    /* \"#utility.yul\":1494:1495   */\n  0x00\n    /* \"#utility.yul\":1491:1492   */\n  dup1\n    /* \"#utility.yul\":1484:1496   */\n  revert\n    /* \"#utility.yul\":1462:1498   */\ntag_32:\n  pop\n    /* \"#utility.yul\":1517:1580   */\n  tag_33\n    /* \"#utility.yul\":1572:1579   */\n  dup8\n    /* \"#utility.yul\":1561:1569   */\n  dup3\n    /* \"#utility.yul\":1550:1559   */\n  dup9\n    /* \"#utility.yul\":1546:1570   */\n  add\n    /* \"#utility.yul\":1517:1580   */\n  tag_11\n  jump\t// in\ntag_33:\n    /* \"#utility.yul\":1507:1580   */\n  swap4\n  pop\n  pop\n    /* \"#utility.yul\":1620:1622   */\n  0x40\n    /* \"#utility.yul\":1609:1618   */\n  dup6\n    /* \"#utility.yul\":1605:1623   */\n  add\n    /* \"#utility.yul\":1599:1624   */\n  mload\n    /* \"#utility.yul\":1589:1624   */\n  swap2\n  pop\n    /* \"#utility.yul\":1667:1669   */\n  0x60\n    /* \"#utility.yul\":1656:1665   */\n  dup6\n    /* \"#utility.yul\":1652:1670   */\n  add\n    /* \"#utility.yul\":1646:1671   */\n  mload\n    /* \"#utility.yul\":1711:1715   */\n  0xff\n    /* \"#utility.yul\":1704:1709   */\n  dup2\n    /* \"#utility.yul\":1700:1716   */\n  and\n    /* \"#utility.yul\":1693:1698   */\n  dup2\n    /* \"#utility.yul\":1690:1717   */\n  eq\n    /* \"#utility.yul\":1680:1735   */\n  tag_34\n  jumpi\n    /* \"#utility.yul\":1731:1732   */\n  0x00\n    /* \"#utility.yul\":1728:1729   */\n  dup1\n    /* \"#utility.yul\":1721:1733   */\n  revert\n    /* \"#utility.yul\":1680:1735   */\ntag_34:\n    /* \"#utility.yul\":991:1765   */\n  swap4\n  swap7\n  swap3\n  swap6\n  pop\n  swap1\n  swap4\n  pop\n  pop\n  jump\t// out\n    /* \"#utility.yul\":1770:2150   */\ntag_12:\n    /* \"#utility.yul\":1849:1850   */\n  0x01\n    /* \"#utility.yul\":1845:1857   */\n  dup2\n  dup2\n  shr\n  swap1\n    /* \"#utility.yul\":1892:1904   */\n  dup3\n  and\n  dup1\n    /* \"#utility.yul\":1913:1974   */\n  tag_36\n  jumpi\n    /* \"#utility.yul\":1967:1971   */\n  0x7f\n    /* \"#utility.yul\":1959:1965   */\n  dup3\n    /* \"#utility.yul\":1955:1972   */\n  and\n    /* \"#utility.yul\":1945:1972   */\n  swap2\n  pop\n    /* \"#utility.yul\":1913:1974   */\ntag_36:\n    /* \"#utility.yul\":2020:2022   */\n  0x20\n    /* \"#utility.yul\":2012:2018   */\n  dup3\n    /* \"#utility.yul\":2009:2023   */\n  lt\n    /* \"#utility.yul\":1989:2007   */\n  dup2\n    /* \"#utility.yul\":1986:2024   */\n  sub\n    /* \"#utility.yul\":1983:2144   */\n  tag_37\n  jumpi\n    /* \"#utility.yul\":2066:2076   */\n  0x4e487b71\n    /* \"#utility.yul\":2061:2064   */\n  0xe0\n    /* \"#utility.yul\":2057:2077   */\n  shl\n    /* \"#utility.yul\":2054:2055   */\n  0x00\n    /* \"#utility.yul\":2047:2078   */\n  mstore\n    /* \"#utility.yul\":2101:2105   */\n  0x22\n    /* \"#utility.yul\":2098:2099   */\n  0x04\n    /* \"#utility.yul\":2091:2106   */\n  mstore\n    /* \"#utility.yul\":2129:2133   */\n  0x24\n    /* \"#utility.yul\":2126:2127   */\n  0x00\n    /* \"#utility.yul\":2119:2134   */\n  revert\n    /* \"#utility.yul\":1983:2144   */\ntag_37:\n  pop\n    /* \"#utility.yul\":1770:2150   */\n  swap2\n  swap1\n  pop\n  jump\t// out\n    /* \"#utility.yul\":2281:2826   */\ntag_14:\n    /* \"#utility.yul\":2383:2385   */\n  0x1f\n    /* \"#utility.yul\":2378:2381   */\n  dup3\n    /* \"#utility.yul\":2375:2386   */\n  gt\n    /* \"#utility.yul\":2372:2820   */\n  iszero\n  tag_40\n  jumpi\n    /* \"#utility.yul\":2419:2420   */\n  0x00\n    /* \"#utility.yul\":2444:2449   */\n  dup2\n    /* \"#utility.yul\":2440:2442   */\n  dup2\n    /* \"#utility.yul\":2433:2450   */\n  mstore\n    /* \"#utility.yul\":2489:2493   */\n  0x20\n    /* \"#utility.yul\":2485:2487   */\n  dup2\n    /* \"#utility.yul\":2475:2494   */\n  keccak256\n    /* \"#utility.yul\":2559:2561   */\n  0x1f\n    /* \"#utility.yul\":2547:2557   */\n  dup6\n    /* \"#utility.yul\":2543:2562   */\n  add\n    /* \"#utility.yul\":2540:2541   */\n  0x05\n    /* \"#utility.yul\":2536:2563   */\n  shr\n    /* \"#utility.yul\":2530:2534   */\n  dup2\n    /* \"#utility.yul\":2526:2564   */\n  add\n    /* \"#utility.yul\":2595:2599   */\n  0x20\n    /* \"#utility.yul\":2583:2593   */\n  dup7\n    /* \"#utility.yul\":2580:2600   */\n  lt\n    /* \"#utility.yul\":2577:2624   */\n  iszero\n  tag_41\n  jumpi\n  pop\n    /* \"#utility.yul\":2618:2622   */\n  dup1\n    /* \"#utility.yul\":2577:2624   */\ntag_41:\n    /* \"#utility.yul\":2673:2675   */\n  0x1f\n    /* \"#utility.yul\":2668:2671   */\n  dup6\n    /* \"#utility.yul\":2664:2676   */\n  add\n    /* \"#utility.yul\":2661:2662   */\n  0x05\n    /* \"#utility.yul\":2657:2677   */\n  shr\n    /* \"#utility.yul\":2651:2655   */\n  dup3\n    /* \"#utility.yul\":2647:2678   */\n  add\n    /* \"#utility.yul\":2637:2678   */\n  swap2\n  pop\n    /* \"#utility.yul\":2728:2810   */\ntag_42:\n    /* \"#utility.yul\":2746:2748   */\n  dup2\n    /* \"#utility.yul\":2739:2744   */\n  dup2\n    /* \"#utility.yul\":2736:2749   */\n  lt\n    /* \"#utility.yul\":2728:2810   */\n  iszero\n  tag_44\n  jumpi\n    /* \"#utility.yul\":2791:2808   */\n  dup3\n  dup2\n  sstore\n    /* \"#utility.yul\":2772:2773   */\n  0x01\n    /* \"#utility.yul\":2761:2774   */\n  add\n    /* \"#utility.yul\":2728:2810   */\n  jump(tag_42)\ntag_44:\n    /* \"#utility.yul\":2732:2735   */\n  pop\n  pop\n  pop\n    /* \"#utility.yul\":2372:2820   */\ntag_40:\n    /* \"#utility.yul\":2281:2826   */\n  pop\n  pop\n  pop\n  jump\t// out\n    /* \"#utility.yul\":3002:4354   */\ntag_7:\n    /* \"#utility.yul\":3122:3132   */\n  dup2\n  mload\n  sub(shl(0x40, 0x01), 0x01)\n    /* \"#utility.yul\":3144:3174   */\n  dup2\n  gt\n    /* \"#utility.yul\":3141:3197   */\n  iszero\n  tag_48\n  jumpi\n    /* \"#utility.yul\":3177:3195   */\n  tag_48\n  tag_10\n  jump\t// in\ntag_48:\n    /* \"#utility.yul\":3206:3303   */\n  tag_49\n    /* \"#utility.yul\":3296:3302   */\n  dup2\n    /* \"#utility.yul\":3256:3294   */\n  tag_50\n    /* \"#utility.yul\":3288:3292   */\n  dup5\n    /* \"#utility.yul\":3282:3293   */\n  sload\n    /* \"#utility.yul\":3256:3294   */\n  tag_12\n  jump\t// in\ntag_50:\n    /* \"#utility.yul\":3250:3254   */\n  dup5\n    /* \"#utility.yul\":3206:3303   */\n  tag_14\n  jump\t// in\ntag_49:\n    /* \"#utility.yul\":3358:3362   */\n  0x20\n  dup1\n    /* \"#utility.yul\":3422:3424   */\n  0x1f\n    /* \"#utility.yul\":3411:3425   */\n  dup4\n  gt\n    /* \"#utility.yul\":3439:3440   */\n  0x01\n    /* \"#utility.yul\":3434:4097   */\n  dup2\n  eq\n  tag_52\n  jumpi\n    /* \"#utility.yul\":4141:4142   */\n  0x00\n    /* \"#utility.yul\":4158:4164   */\n  dup5\n    /* \"#utility.yul\":4155:4244   */\n  iszero\n  tag_53\n  jumpi\n  pop\n    /* \"#utility.yul\":4210:4229   */\n  dup6\n  dup4\n  add\n    /* \"#utility.yul\":4204:4230   */\n  mload\n    /* \"#utility.yul\":4155:4244   */\ntag_53:\n  not(0x00)\n    /* \"#utility.yul\":2959:2960   */\n  0x03\n    /* \"#utility.yul\":2955:2966   */\n  dup7\n  swap1\n  shl\n    /* \"#utility.yul\":2951:2975   */\n  shr\n    /* \"#utility.yul\":2947:2976   */\n  not\n    /* \"#utility.yul\":2937:2977   */\n  and\n    /* \"#utility.yul\":2983:2984   */\n  0x01\n    /* \"#utility.yul\":2979:2990   */\n  dup6\n  swap1\n  shl\n    /* \"#utility.yul\":2934:2991   */\n  or\n    /* \"#utility.yul\":4257:4338   */\n  dup6\n  sstore\n    /* \"#utility.yul\":3404:4348   */\n  jump(tag_44)\n    /* \"#utility.yul\":3434:4097   */\ntag_52:\n    /* \"#utility.yul\":2228:2229   */\n  0x00\n    /* \"#utility.yul\":2221:2235   */\n  dup6\n  dup2\n  mstore\n    /* \"#utility.yul\":2265:2269   */\n  0x20\n    /* \"#utility.yul\":2252:2270   */\n  dup2\n  keccak256\n  not(0x1f)\n    /* \"#utility.yul\":3470:3490   */\n  dup7\n  and\n  swap2\n    /* \"#utility.yul\":3588:3824   */\ntag_56:\n    /* \"#utility.yul\":3602:3609   */\n  dup3\n    /* \"#utility.yul\":3599:3600   */\n  dup2\n    /* \"#utility.yul\":3596:3610   */\n  lt\n    /* \"#utility.yul\":3588:3824   */\n  iszero\n  tag_58\n  jumpi\n    /* \"#utility.yul\":3691:3710   */\n  dup9\n  dup7\n  add\n    /* \"#utility.yul\":3685:3711   */\n  mload\n    /* \"#utility.yul\":3670:3712   */\n  dup3\n  sstore\n    /* \"#utility.yul\":3783:3810   */\n  swap5\n  dup5\n  add\n  swap5\n    /* \"#utility.yul\":3751:3752   */\n  0x01\n    /* \"#utility.yul\":3739:3753   */\n  swap1\n  swap2\n  add\n  swap1\n    /* \"#utility.yul\":3618:3637   */\n  dup5\n  add\n    /* \"#utility.yul\":3588:3824   */\n  jump(tag_56)\ntag_58:\n    /* \"#utility.yul\":3592:3595   */\n  pop\n    /* \"#utility.yul\":3852:3858   */\n  dup6\n    /* \"#utility.yul\":3843:3850   */\n  dup3\n    /* \"#utility.yul\":3840:3859   */\n  lt\n    /* \"#utility.yul\":3837:4038   */\n  iszero\n  tag_59\n  jumpi\n    /* \"#utility.yul\":3913:3932   */\n  dup8\n  dup6\n  add\n    /* \"#utility.yul\":3907:3933   */\n  mload\n  not(0x00)\n    /* \"#utility.yul\":3996:3997   */\n  0x03\n    /* \"#utility.yul\":3992:4006   */\n  dup9\n  swap1\n  shl\n    /* \"#utility.yul\":4008:4011   */\n  0xf8\n    /* \"#utility.yul\":3988:4012   */\n  and\n    /* \"#utility.yul\":3984:4021   */\n  shr\n    /* \"#utility.yul\":3980:4022   */\n  not\n    /* \"#utility.yul\":3965:4023   */\n  and\n    /* \"#utility.yul\":3950:4024   */\n  dup2\n  sstore\n    /* \"#utility.yul\":3837:4038   */\ntag_59:\n  pop\n  pop\n  pop\n  pop\n  pop\n    /* \"#utility.yul\":4084:4085   */\n  0x01\n    /* \"#utility.yul\":4068:4082   */\n  swap1\n  dup2\n  shl\n    /* \"#utility.yul\":4064:4086   */\n  add\n    /* \"#utility.yul\":4051:4087   */\n  swap1\n  sstore\n  pop\n    /* \"#utility.yul\":3002:4354   */\n  jump\t// out\ntag_16:\n    /* \"TokenSGTX/contracts/SGTX.sol\":4536:12246  contract SigatTokenX is IERC20, IERC20Errors {... */\n  dataSize(sub_0)\n  dup1\n  dataOffset(sub_0)\n  0x00\n  codecopy\n  0x00\n  return\nstop\n\nsub_0: assembly {\n        /* \"TokenSGTX/contracts/SGTX.sol\":4536:12246  contract SigatTokenX is IERC20, IERC20Errors {... */\n      mstore(0x40, 0x80)\n      callvalue\n      dup1\n      iszero\n      tag_1\n      jumpi\n      0x00\n      dup1\n      revert\n    tag_1:\n      pop\n      jumpi(tag_2, lt(calldatasize, 0x04))\n      shr(0xe0, calldataload(0x00))\n      dup1\n      0x7c77db72\n      gt\n      tag_25\n      jumpi\n      dup1\n      0xb187bd26\n      gt\n      tag_26\n      jumpi\n      dup1\n      0xb187bd26\n      eq\n      tag_19\n      jumpi\n      dup1\n      0xb8f309c7\n      eq\n      tag_20\n      jumpi\n      dup1\n      0xd6b70ac0\n      eq\n      tag_21\n      jumpi\n      dup1\n      0xdd62ed3e\n      eq\n      tag_22\n      jumpi\n      dup1\n      0xeb1d8152\n      eq\n      tag_23\n      jumpi\n      dup1\n      0xf7b188a5\n      eq\n      tag_24\n      jumpi\n      0x00\n      dup1\n      revert\n    tag_26:\n      dup1\n      0x7c77db72\n      eq\n      tag_14\n      jumpi\n      dup1\n      0x8111f24e\n      eq\n      tag_15\n      jumpi\n      dup1\n      0x91e2c315\n      eq\n      tag_16\n      jumpi\n      dup1\n      0x95d89b41\n      eq\n      tag_17\n      jumpi\n      dup1\n      0xa9059cbb\n      eq\n      tag_18\n      jumpi\n      0x00\n      dup1\n      revert\n    tag_25:\n      dup1\n      0x23b872dd\n      gt\n      tag_27\n      jumpi\n      dup1\n      0x23b872dd\n      eq\n      tag_8\n      jumpi\n      dup1\n      0x313ce567\n      eq\n      tag_9\n      jumpi\n      dup1\n      0x39509351\n      eq\n      tag_10\n      jumpi\n      dup1\n      0x6985a022\n      eq\n      tag_11\n      jumpi\n      dup1\n      0x6ebcf607\n      eq\n      tag_12\n      jumpi\n      dup1\n      0x70a08231\n      eq\n      tag_13\n      jumpi\n      0x00\n      dup1\n      revert\n    tag_27:\n      dup1\n      0x06fdde03\n      eq\n      tag_3\n      jumpi\n      dup1\n      0x095ea7b3\n      eq\n      tag_4\n      jumpi\n      dup1\n      0x18160ddd\n      eq\n      tag_5\n      jumpi\n      dup1\n      0x1aa66049\n      eq\n      tag_6\n      jumpi\n      dup1\n      0x1d4ca8bf\n      eq\n      tag_7\n      jumpi\n    tag_2:\n      0x00\n      dup1\n      revert\n        /* \"TokenSGTX/contracts/SGTX.sol\":9870:9952  function name() public view  returns (string memory) {... */\n    tag_3:\n      tag_28\n      tag_29\n      jump\t// in\n    tag_28:\n      mload(0x40)\n      tag_30\n      swap2\n      swap1\n      tag_31\n      jump\t// in\n    tag_30:\n      mload(0x40)\n      dup1\n      swap2\n      sub\n      swap1\n      return\n        /* \"TokenSGTX/contracts/SGTX.sol\":6508:6806  function approve(... */\n    tag_4:\n      tag_32\n      tag_33\n      calldatasize\n      0x04\n      tag_34\n      jump\t// in\n    tag_33:\n      tag_35\n      jump\t// in\n    tag_32:\n      mload(0x40)\n        /* \"#utility.yul\":1169:1183   */\n      swap1\n      iszero\n        /* \"#utility.yul\":1162:1184   */\n      iszero\n        /* \"#utility.yul\":1144:1185   */\n      dup2\n      mstore\n        /* \"#utility.yul\":1132:1134   */\n      0x20\n        /* \"#utility.yul\":1117:1135   */\n      add\n        /* \"TokenSGTX/contracts/SGTX.sol\":6508:6806  function approve(... */\n      tag_30\n        /* \"#utility.yul\":1004:1191   */\n      jump\n        /* \"TokenSGTX/contracts/SGTX.sol\":5639:5723  function totalSupply() public view returns (uint256) {... */\n    tag_5:\n        /* \"TokenSGTX/contracts/SGTX.sol\":5709:5716  _supply */\n      sload(0x03)\n        /* \"TokenSGTX/contracts/SGTX.sol\":5639:5723  function totalSupply() public view returns (uint256) {... */\n    tag_38:\n      mload(0x40)\n        /* \"#utility.yul\":1342:1367   */\n      swap1\n      dup2\n      mstore\n        /* \"#utility.yul\":1330:1332   */\n      0x20\n        /* \"#utility.yul\":1315:1333   */\n      add\n        /* \"TokenSGTX/contracts/SGTX.sol\":5639:5723  function totalSupply() public view returns (uint256) {... */\n      tag_30\n        /* \"#utility.yul\":1196:1373   */\n      jump\n        /* \"TokenSGTX/contracts/SGTX.sol\":11854:11977  function FreezeAddress(address adr) public isOwner returns (bool) {... */\n    tag_6:\n      tag_32\n      tag_43\n      calldatasize\n      0x04\n      tag_44\n      jump\t// in\n    tag_43:\n      tag_45\n      jump\t// in\n        /* \"TokenSGTX/contracts/SGTX.sol\":11413:11586  function freeTranfer() public isOwner returns (bool) {... */\n    tag_7:\n      tag_32\n      tag_48\n      jump\t// in\n        /* \"TokenSGTX/contracts/SGTX.sol\":7095:7526  function transferFrom(... */\n    tag_8:\n      tag_32\n      tag_51\n      calldatasize\n      0x04\n      tag_52\n      jump\t// in\n    tag_51:\n      tag_53\n      jump\t// in\n        /* \"TokenSGTX/contracts/SGTX.sol\":10050:10132  function decimals() public view  returns (uint8) {... */\n    tag_9:\n        /* \"TokenSGTX/contracts/SGTX.sol\":10116:10125  _decimals */\n      sload(0x04)\n        /* \"TokenSGTX/contracts/SGTX.sol\":10050:10132  function decimals() public view  returns (uint8) {... */\n      mload(0x40)\n        /* \"TokenSGTX/contracts/SGTX.sol\":10116:10125  _decimals */\n      0xff\n      swap1\n      swap2\n      and\n        /* \"#utility.yul\":2044:2080   */\n      dup2\n      mstore\n        /* \"#utility.yul\":2032:2034   */\n      0x20\n        /* \"#utility.yul\":2017:2035   */\n      add\n        /* \"TokenSGTX/contracts/SGTX.sol\":10050:10132  function decimals() public view  returns (uint8) {... */\n      tag_30\n        /* \"#utility.yul\":1902:2086   */\n      jump\n        /* \"TokenSGTX/contracts/SGTX.sol\":6812:7089  function increaseAllowance(... */\n    tag_10:\n      tag_32\n      tag_60\n      calldatasize\n      0x04\n      tag_34\n      jump\t// in\n    tag_60:\n      tag_61\n      jump\t// in\n        /* \"TokenSGTX/contracts/SGTX.sol\":10810:10973  function Pause() public virtual isOwner returns (bool) {... */\n    tag_11:\n      tag_32\n      tag_64\n      jump\t// in\n        /* \"TokenSGTX/contracts/SGTX.sol\":4785:4829  mapping(address => uint256) public _balances */\n    tag_12:\n      tag_38\n      tag_67\n      calldatasize\n      0x04\n      tag_44\n      jump\t// in\n    tag_67:\n      mstore(0x20, 0x05)\n      0x00\n      swap1\n      dup2\n      mstore\n      0x40\n      swap1\n      keccak256\n      sload\n      dup2\n      jump\n        /* \"TokenSGTX/contracts/SGTX.sol\":5729:5837  function balanceOf(address account) public view returns (uint256) {... */\n    tag_13:\n      tag_38\n      tag_71\n      calldatasize\n      0x04\n      tag_44\n      jump\t// in\n    tag_71:\n      sub(shl(0xa0, 0x01), 0x01)\n        /* \"TokenSGTX/contracts/SGTX.sol\":5812:5830  _balances[account] */\n      and\n        /* \"TokenSGTX/contracts/SGTX.sol\":5786:5793  uint256 */\n      0x00\n        /* \"TokenSGTX/contracts/SGTX.sol\":5812:5830  _balances[account] */\n      swap1\n      dup2\n      mstore\n        /* \"TokenSGTX/contracts/SGTX.sol\":5812:5821  _balances */\n      0x05\n        /* \"TokenSGTX/contracts/SGTX.sol\":5812:5830  _balances[account] */\n      0x20\n      mstore\n      0x40\n      swap1\n      keccak256\n      sload\n      swap1\n        /* \"TokenSGTX/contracts/SGTX.sol\":5729:5837  function balanceOf(address account) public view returns (uint256) {... */\n      jump\n        /* \"TokenSGTX/contracts/SGTX.sol\":4881:4920  mapping(address => bool) public _freeze */\n    tag_14:\n      tag_32\n      tag_75\n      calldatasize\n      0x04\n      tag_44\n      jump\t// in\n    tag_75:\n      mstore(0x20, 0x07)\n      0x00\n      swap1\n      dup2\n      mstore\n      0x40\n      swap1\n      keccak256\n      sload\n      0xff\n      and\n      dup2\n      jump\n        /* \"TokenSGTX/contracts/SGTX.sol\":12149:12244  function isFreezed(address adr) public view returns (bool) {... */\n    tag_15:\n      tag_32\n      tag_79\n      calldatasize\n      0x04\n      tag_44\n      jump\t// in\n    tag_79:\n      tag_80\n      jump\t// in\n        /* \"TokenSGTX/contracts/SGTX.sol\":11983:12143  function UnFreezeAddress(address adr) public isOwner returns (bool) {... */\n    tag_16:\n      tag_32\n      tag_83\n      calldatasize\n      0x04\n      tag_44\n      jump\t// in\n    tag_83:\n      tag_84\n      jump\t// in\n        /* \"TokenSGTX/contracts/SGTX.sol\":9958:10044  function symbol() public view  returns (string memory) {... */\n    tag_17:\n      tag_28\n      tag_87\n      jump\t// in\n        /* \"TokenSGTX/contracts/SGTX.sol\":5843:6196  function transfer(... */\n    tag_18:\n      tag_32\n      tag_90\n      calldatasize\n      0x04\n      tag_34\n      jump\t// in\n    tag_90:\n      tag_91\n      jump\t// in\n        /* \"TokenSGTX/contracts/SGTX.sol\":10638:10717  function isPaused() public view  returns (bool) {... */\n    tag_19:\n        /* \"TokenSGTX/contracts/SGTX.sol\":10703:10710  _paused */\n      sload(0x04)\n      0x0100\n      swap1\n      div\n      0xff\n      and\n        /* \"TokenSGTX/contracts/SGTX.sol\":10638:10717  function isPaused() public view  returns (bool) {... */\n      jump(tag_32)\n        /* \"TokenSGTX/contracts/SGTX.sol\":10503:10632  function TranferOwner(... */\n    tag_20:\n      tag_96\n      tag_97\n      calldatasize\n      0x04\n      tag_44\n      jump\t// in\n    tag_97:\n      tag_98\n      jump\t// in\n    tag_96:\n      mload(0x40)\n      sub(shl(0xa0, 0x01), 0x01)\n        /* \"#utility.yul\":2255:2287   */\n      swap1\n      swap2\n      and\n        /* \"#utility.yul\":2237:2288   */\n      dup2\n      mstore\n        /* \"#utility.yul\":2225:2227   */\n      0x20\n        /* \"#utility.yul\":2210:2228   */\n      add\n        /* \"TokenSGTX/contracts/SGTX.sol\":10503:10632  function TranferOwner(... */\n      tag_30\n        /* \"#utility.yul\":2091:2294   */\n      jump\n        /* \"TokenSGTX/contracts/SGTX.sol\":11691:11848  function unFreeTransfer() public isOwner returns (bool) {... */\n    tag_21:\n      tag_32\n      tag_102\n      jump\t// in\n        /* \"TokenSGTX/contracts/SGTX.sol\":9226:9388  function allowance(... */\n    tag_22:\n      tag_38\n      tag_105\n      calldatasize\n      0x04\n      tag_106\n      jump\t// in\n    tag_105:\n      tag_107\n      jump\t// in\n        /* \"TokenSGTX/contracts/SGTX.sol\":4835:4875  mapping(address => bool) public _holders */\n    tag_23:\n      tag_32\n      tag_110\n      calldatasize\n      0x04\n      tag_44\n      jump\t// in\n    tag_110:\n      mstore(0x20, 0x06)\n      0x00\n      swap1\n      dup2\n      mstore\n      0x40\n      swap1\n      keccak256\n      sload\n      0xff\n      and\n      dup2\n      jump\n        /* \"TokenSGTX/contracts/SGTX.sol\":11078:11216  function unPause() public isOwner returns (bool) {... */\n    tag_24:\n      tag_32\n      tag_114\n      jump\t// in\n        /* \"TokenSGTX/contracts/SGTX.sol\":9870:9952  function name() public view  returns (string memory) {... */\n    tag_29:\n        /* \"TokenSGTX/contracts/SGTX.sol\":9908:9921  string memory */\n      0x60\n        /* \"TokenSGTX/contracts/SGTX.sol\":9940:9945  _name */\n      0x01\n        /* \"TokenSGTX/contracts/SGTX.sol\":9933:9945  return _name */\n      dup1\n      sload\n      tag_117\n      swap1\n      tag_118\n      jump\t// in\n    tag_117:\n      dup1\n      0x1f\n      add\n      0x20\n      dup1\n      swap2\n      div\n      mul\n      0x20\n      add\n      mload(0x40)\n      swap1\n      dup2\n      add\n      0x40\n      mstore\n      dup1\n      swap3\n      swap2\n      swap1\n      dup2\n      dup2\n      mstore\n      0x20\n      add\n      dup3\n      dup1\n      sload\n      tag_119\n      swap1\n      tag_118\n      jump\t// in\n    tag_119:\n      dup1\n      iszero\n      tag_120\n      jumpi\n      dup1\n      0x1f\n      lt\n      tag_121\n      jumpi\n      0x0100\n      dup1\n      dup4\n      sload\n      div\n      mul\n      dup4\n      mstore\n      swap2\n      0x20\n      add\n      swap2\n      jump(tag_120)\n    tag_121:\n      dup3\n      add\n      swap2\n      swap1\n      0x00\n      mstore\n      keccak256(0x00, 0x20)\n      swap1\n    tag_122:\n      dup2\n      sload\n      dup2\n      mstore\n      swap1\n      0x01\n      add\n      swap1\n      0x20\n      add\n      dup1\n      dup4\n      gt\n      tag_122\n      jumpi\n      dup3\n      swap1\n      sub\n      0x1f\n      and\n      dup3\n      add\n      swap2\n    tag_120:\n      pop\n      pop\n      pop\n      pop\n      pop\n      swap1\n      pop\n        /* \"TokenSGTX/contracts/SGTX.sol\":9870:9952  function name() public view  returns (string memory) {... */\n      swap1\n      jump\t// out\n        /* \"TokenSGTX/contracts/SGTX.sol\":6508:6806  function approve(... */\n    tag_35:\n        /* \"TokenSGTX/contracts/SGTX.sol\":10285:10292  _paused */\n      sload(0x04)\n        /* \"TokenSGTX/contracts/SGTX.sol\":6620:6624  bool */\n      0x00\n      swap1\n        /* \"TokenSGTX/contracts/SGTX.sol\":10285:10292  _paused */\n      0x0100\n      swap1\n      div\n      0xff\n      and\n        /* \"TokenSGTX/contracts/SGTX.sol\":10284:10292  !_paused */\n      iszero\n        /* \"TokenSGTX/contracts/SGTX.sol\":10276:10328  require(!_paused, \"Contract is PAused By the Owner\") */\n      tag_124\n      jumpi\n      mload(0x40)\n      shl(0xe5, 0x461bcd)\n      dup2\n      mstore\n      0x04\n      add\n      tag_125\n      swap1\n      tag_126\n      jump\t// in\n    tag_125:\n      mload(0x40)\n      dup1\n      swap2\n      sub\n      swap1\n      revert\n    tag_124:\n        /* \"TokenSGTX/contracts/SGTX.sol\":10403:10424  isFreezed(msg.sender) */\n      tag_128\n        /* \"TokenSGTX/contracts/SGTX.sol\":10413:10423  msg.sender */\n      caller\n        /* \"TokenSGTX/contracts/SGTX.sol\":10403:10412  isFreezed */\n      tag_80\n        /* \"TokenSGTX/contracts/SGTX.sol\":10403:10424  isFreezed(msg.sender) */\n      jump\t// in\n    tag_128:\n        /* \"TokenSGTX/contracts/SGTX.sol\":10403:10433  isFreezed(msg.sender) == false */\n      iszero\n        /* \"TokenSGTX/contracts/SGTX.sol\":10382:10479  require(... */\n      tag_129\n      jumpi\n      mload(0x40)\n      shl(0xe5, 0x461bcd)\n      dup2\n      mstore\n      0x04\n      add\n      tag_125\n      swap1\n      tag_131\n      jump\t// in\n    tag_129:\n        /* \"TokenSGTX/contracts/SGTX.sol\":6677:6689  _freeTranfer */\n      sload(0x04)\n        /* \"TokenSGTX/contracts/SGTX.sol\":6652:6662  msg.sender */\n      caller\n      swap1\n        /* \"TokenSGTX/contracts/SGTX.sol\":6677:6689  _freeTranfer */\n      0x010000\n      swap1\n      div\n      0xff\n      and\n        /* \"TokenSGTX/contracts/SGTX.sol\":6672:6732  if (!_freeTranfer) {... */\n      tag_133\n      jumpi\n        /* \"TokenSGTX/contracts/SGTX.sol\":6715:6721  _owner */\n      and(sub(shl(0xa0, 0x01), 0x01), sload(0x00))\n      swap4\n      pop\n        /* \"TokenSGTX/contracts/SGTX.sol\":6672:6732  if (!_freeTranfer) {... */\n    tag_133:\n        /* \"TokenSGTX/contracts/SGTX.sol\":6741:6778  _approve(owner, spender, value, true) */\n      tag_134\n        /* \"TokenSGTX/contracts/SGTX.sol\":6750:6755  owner */\n      dup2\n        /* \"TokenSGTX/contracts/SGTX.sol\":6757:6764  spender */\n      dup6\n        /* \"TokenSGTX/contracts/SGTX.sol\":6766:6771  value */\n      dup6\n        /* \"TokenSGTX/contracts/SGTX.sol\":6773:6777  true */\n      0x01\n        /* \"TokenSGTX/contracts/SGTX.sol\":6741:6749  _approve */\n      tag_135\n        /* \"TokenSGTX/contracts/SGTX.sol\":6741:6778  _approve(owner, spender, value, true) */\n      jump\t// in\n    tag_134:\n        /* \"TokenSGTX/contracts/SGTX.sol\":6795:6799  true */\n      0x01\n        /* \"TokenSGTX/contracts/SGTX.sol\":6788:6799  return true */\n      swap2\n      pop\n      pop\n        /* \"TokenSGTX/contracts/SGTX.sol\":10489:10490  _ */\n    tag_132:\n        /* \"TokenSGTX/contracts/SGTX.sol\":6508:6806  function approve(... */\n      swap3\n      swap2\n      pop\n      pop\n      jump\t// out\n        /* \"TokenSGTX/contracts/SGTX.sol\":11854:11977  function FreezeAddress(address adr) public isOwner returns (bool) {... */\n    tag_45:\n        /* \"TokenSGTX/contracts/SGTX.sol\":11914:11918  bool */\n      0x00\n        /* \"TokenSGTX/contracts/SGTX.sol\":10189:10195  _owner */\n      dup1\n      sload\n      sub(shl(0xa0, 0x01), 0x01)\n      and\n        /* \"TokenSGTX/contracts/SGTX.sol\":10175:10185  msg.sender */\n      caller\n        /* \"TokenSGTX/contracts/SGTX.sol\":10175:10195  msg.sender == _owner */\n      eq\n        /* \"TokenSGTX/contracts/SGTX.sol\":10167:10223  require(msg.sender == _owner, \"Only Owner con activate\") */\n      tag_138\n      jumpi\n      mload(0x40)\n      shl(0xe5, 0x461bcd)\n      dup2\n      mstore\n      0x04\n      add\n      tag_125\n      swap1\n      tag_140\n      jump\t// in\n    tag_138:\n      pop\n      sub(shl(0xa0, 0x01), 0x01)\n        /* \"TokenSGTX/contracts/SGTX.sol\":11930:11942  _freeze[adr] */\n      dup2\n      and\n      0x00\n      swap1\n      dup2\n      mstore\n        /* \"TokenSGTX/contracts/SGTX.sol\":11930:11937  _freeze */\n      0x07\n        /* \"TokenSGTX/contracts/SGTX.sol\":11930:11942  _freeze[adr] */\n      0x20\n      mstore\n      0x40\n      swap1\n      keccak256\n        /* \"TokenSGTX/contracts/SGTX.sol\":11930:11949  _freeze[adr] = true */\n      dup1\n      sload\n      not(0xff)\n      and\n        /* \"TokenSGTX/contracts/SGTX.sol\":11945:11949  true */\n      0x01\n        /* \"TokenSGTX/contracts/SGTX.sol\":11930:11949  _freeze[adr] = true */\n      swap1\n      dup2\n      or\n      swap1\n      swap2\n      sstore\n        /* \"TokenSGTX/contracts/SGTX.sol\":10233:10234  _ */\n    tag_141:\n        /* \"TokenSGTX/contracts/SGTX.sol\":11854:11977  function FreezeAddress(address adr) public isOwner returns (bool) {... */\n      swap2\n      swap1\n      pop\n      jump\t// out\n        /* \"TokenSGTX/contracts/SGTX.sol\":11413:11586  function freeTranfer() public isOwner returns (bool) {... */\n    tag_48:\n        /* \"TokenSGTX/contracts/SGTX.sol\":11460:11464  bool */\n      0x00\n        /* \"TokenSGTX/contracts/SGTX.sol\":10189:10195  _owner */\n      dup1\n      sload\n      sub(shl(0xa0, 0x01), 0x01)\n      and\n        /* \"TokenSGTX/contracts/SGTX.sol\":10175:10185  msg.sender */\n      caller\n        /* \"TokenSGTX/contracts/SGTX.sol\":10175:10195  msg.sender == _owner */\n      eq\n        /* \"TokenSGTX/contracts/SGTX.sol\":10167:10223  require(msg.sender == _owner, \"Only Owner con activate\") */\n      tag_143\n      jumpi\n      mload(0x40)\n      shl(0xe5, 0x461bcd)\n      dup2\n      mstore\n      0x04\n      add\n      tag_125\n      swap1\n      tag_140\n      jump\t// in\n    tag_143:\n        /* \"TokenSGTX/contracts/SGTX.sol\":11476:11488  _freeTranfer */\n      0x04\n        /* \"TokenSGTX/contracts/SGTX.sol\":11476:11495  _freeTranfer = true */\n      dup1\n      sload\n      not(0xff0000)\n      and\n      0x010000\n      or\n      swap1\n      sstore\n        /* \"TokenSGTX/contracts/SGTX.sol\":11510:11558  FreeTranfered(msg.sender, block.timestamp, true) */\n      mload(0x40)\n        /* \"TokenSGTX/contracts/SGTX.sol\":11491:11495  true */\n      0x01\n      swap1\n        /* \"TokenSGTX/contracts/SGTX.sol\":11536:11551  block.timestamp */\n      timestamp\n      swap1\n        /* \"TokenSGTX/contracts/SGTX.sol\":11524:11534  msg.sender */\n      caller\n      swap1\n        /* \"TokenSGTX/contracts/SGTX.sol\":11510:11558  FreeTranfered(msg.sender, block.timestamp, true) */\n      0x01184061675848e328fb316abfd3f046f1cae4fb526dc24d09bdaa92e3921217\n      swap1\n        /* \"TokenSGTX/contracts/SGTX.sol\":11476:11495  _freeTranfer = true */\n      0x00\n      swap1\n        /* \"TokenSGTX/contracts/SGTX.sol\":11510:11558  FreeTranfered(msg.sender, block.timestamp, true) */\n      log4\n      pop\n        /* \"TokenSGTX/contracts/SGTX.sol\":11575:11579  true */\n      0x01\n        /* \"TokenSGTX/contracts/SGTX.sol\":11413:11586  function freeTranfer() public isOwner returns (bool) {... */\n      swap1\n      jump\t// out\n        /* \"TokenSGTX/contracts/SGTX.sol\":7095:7526  function transferFrom(... */\n    tag_53:\n        /* \"TokenSGTX/contracts/SGTX.sol\":10285:10292  _paused */\n      sload(0x04)\n        /* \"TokenSGTX/contracts/SGTX.sol\":7229:7233  bool */\n      0x00\n      swap1\n        /* \"TokenSGTX/contracts/SGTX.sol\":10285:10292  _paused */\n      0x0100\n      swap1\n      div\n      0xff\n      and\n        /* \"TokenSGTX/contracts/SGTX.sol\":10284:10292  !_paused */\n      iszero\n        /* \"TokenSGTX/contracts/SGTX.sol\":10276:10328  require(!_paused, \"Contract is PAused By the Owner\") */\n      tag_147\n      jumpi\n      mload(0x40)\n      shl(0xe5, 0x461bcd)\n      dup2\n      mstore\n      0x04\n      add\n      tag_125\n      swap1\n      tag_126\n      jump\t// in\n    tag_147:\n        /* \"TokenSGTX/contracts/SGTX.sol\":10403:10424  isFreezed(msg.sender) */\n      tag_150\n        /* \"TokenSGTX/contracts/SGTX.sol\":10413:10423  msg.sender */\n      caller\n        /* \"TokenSGTX/contracts/SGTX.sol\":10403:10412  isFreezed */\n      tag_80\n        /* \"TokenSGTX/contracts/SGTX.sol\":10403:10424  isFreezed(msg.sender) */\n      jump\t// in\n    tag_150:\n        /* \"TokenSGTX/contracts/SGTX.sol\":10403:10433  isFreezed(msg.sender) == false */\n      iszero\n        /* \"TokenSGTX/contracts/SGTX.sol\":10382:10479  require(... */\n      tag_151\n      jumpi\n      mload(0x40)\n      shl(0xe5, 0x461bcd)\n      dup2\n      mstore\n      0x04\n      add\n      tag_125\n      swap1\n      tag_131\n      jump\t// in\n    tag_151:\n        /* \"TokenSGTX/contracts/SGTX.sol\":7280:7286  _owner */\n      and(sub(shl(0xa0, 0x01), 0x01), sload(0x00))\n        /* \"TokenSGTX/contracts/SGTX.sol\":7266:7276  msg.sender */\n      caller\n        /* \"TokenSGTX/contracts/SGTX.sol\":7266:7286  msg.sender == _owner */\n      eq\n      dup1\n        /* \"TokenSGTX/contracts/SGTX.sol\":7266:7302  msg.sender == _owner || _freeTranfer */\n      tag_154\n      jumpi\n      pop\n        /* \"TokenSGTX/contracts/SGTX.sol\":7290:7302  _freeTranfer */\n      sload(0x04)\n      0x010000\n      swap1\n      div\n      0xff\n      and\n        /* \"TokenSGTX/contracts/SGTX.sol\":7266:7302  msg.sender == _owner || _freeTranfer */\n    tag_154:\n        /* \"TokenSGTX/contracts/SGTX.sol\":7245:7377  require(... */\n      tag_155\n      jumpi\n      mload(0x40)\n      shl(0xe5, 0x461bcd)\n      dup2\n      mstore\n      0x04\n      add\n      tag_125\n      swap1\n      tag_157\n      jump\t// in\n    tag_155:\n        /* \"TokenSGTX/contracts/SGTX.sol\":7405:7415  msg.sender */\n      caller\n        /* \"TokenSGTX/contracts/SGTX.sol\":7425:7462  _spendAllowance(from, spender, value) */\n      tag_158\n        /* \"TokenSGTX/contracts/SGTX.sol\":7441:7445  from */\n      dup6\n        /* \"TokenSGTX/contracts/SGTX.sol\":7405:7415  msg.sender */\n      dup3\n        /* \"TokenSGTX/contracts/SGTX.sol\":7456:7461  value */\n      dup6\n        /* \"TokenSGTX/contracts/SGTX.sol\":7425:7440  _spendAllowance */\n      tag_159\n        /* \"TokenSGTX/contracts/SGTX.sol\":7425:7462  _spendAllowance(from, spender, value) */\n      jump\t// in\n    tag_158:\n        /* \"TokenSGTX/contracts/SGTX.sol\":7472:7498  _transfer(from, to, value) */\n      tag_160\n        /* \"TokenSGTX/contracts/SGTX.sol\":7482:7486  from */\n      dup6\n        /* \"TokenSGTX/contracts/SGTX.sol\":7488:7490  to */\n      dup6\n        /* \"TokenSGTX/contracts/SGTX.sol\":7492:7497  value */\n      dup6\n        /* \"TokenSGTX/contracts/SGTX.sol\":7472:7481  _transfer */\n      tag_161\n        /* \"TokenSGTX/contracts/SGTX.sol\":7472:7498  _transfer(from, to, value) */\n      jump\t// in\n    tag_160:\n      pop\n        /* \"TokenSGTX/contracts/SGTX.sol\":7515:7519  true */\n      0x01\n      swap5\n        /* \"TokenSGTX/contracts/SGTX.sol\":7095:7526  function transferFrom(... */\n      swap4\n      pop\n      pop\n      pop\n      pop\n      jump\t// out\n        /* \"TokenSGTX/contracts/SGTX.sol\":6812:7089  function increaseAllowance(... */\n    tag_61:\n        /* \"TokenSGTX/contracts/SGTX.sol\":10285:10292  _paused */\n      sload(0x04)\n        /* \"TokenSGTX/contracts/SGTX.sol\":6939:6943  bool */\n      0x00\n      swap1\n        /* \"TokenSGTX/contracts/SGTX.sol\":10285:10292  _paused */\n      0x0100\n      swap1\n      div\n      0xff\n      and\n        /* \"TokenSGTX/contracts/SGTX.sol\":10284:10292  !_paused */\n      iszero\n        /* \"TokenSGTX/contracts/SGTX.sol\":10276:10328  require(!_paused, \"Contract is PAused By the Owner\") */\n      tag_164\n      jumpi\n      mload(0x40)\n      shl(0xe5, 0x461bcd)\n      dup2\n      mstore\n      0x04\n      add\n      tag_125\n      swap1\n      tag_126\n      jump\t// in\n    tag_164:\n        /* \"TokenSGTX/contracts/SGTX.sol\":10403:10424  isFreezed(msg.sender) */\n      tag_167\n        /* \"TokenSGTX/contracts/SGTX.sol\":10413:10423  msg.sender */\n      caller\n        /* \"TokenSGTX/contracts/SGTX.sol\":10403:10412  isFreezed */\n      tag_80\n        /* \"TokenSGTX/contracts/SGTX.sol\":10403:10424  isFreezed(msg.sender) */\n      jump\t// in\n    tag_167:\n        /* \"TokenSGTX/contracts/SGTX.sol\":10403:10433  isFreezed(msg.sender) == false */\n      iszero\n        /* \"TokenSGTX/contracts/SGTX.sol\":10382:10479  require(... */\n      tag_168\n      jumpi\n      mload(0x40)\n      shl(0xe5, 0x461bcd)\n      dup2\n      mstore\n      0x04\n      add\n      tag_125\n      swap1\n      tag_131\n      jump\t// in\n    tag_168:\n        /* \"TokenSGTX/contracts/SGTX.sol\":6971:6981  msg.sender */\n      caller\n        /* \"TokenSGTX/contracts/SGTX.sol\":6991:7061  _approve(owner, spender, allowance(owner, spender) + addedValue, true) */\n      tag_134\n        /* \"TokenSGTX/contracts/SGTX.sol\":6971:6981  msg.sender */\n      dup2\n        /* \"TokenSGTX/contracts/SGTX.sol\":7007:7014  spender */\n      dup6\n        /* \"TokenSGTX/contracts/SGTX.sol\":7044:7054  addedValue */\n      dup6\n        /* \"TokenSGTX/contracts/SGTX.sol\":7016:7041  allowance(owner, spender) */\n      tag_172\n        /* \"TokenSGTX/contracts/SGTX.sol\":6971:6981  msg.sender */\n      dup4\n        /* \"TokenSGTX/contracts/SGTX.sol\":7007:7014  spender */\n      dup4\n        /* \"TokenSGTX/contracts/SGTX.sol\":7016:7025  allowance */\n      tag_107\n        /* \"TokenSGTX/contracts/SGTX.sol\":7016:7041  allowance(owner, spender) */\n      jump\t// in\n    tag_172:\n        /* \"TokenSGTX/contracts/SGTX.sol\":7016:7054  allowance(owner, spender) + addedValue */\n      tag_173\n      swap2\n      swap1\n      tag_174\n      jump\t// in\n    tag_173:\n        /* \"TokenSGTX/contracts/SGTX.sol\":7056:7060  true */\n      0x01\n        /* \"TokenSGTX/contracts/SGTX.sol\":6991:6999  _approve */\n      tag_135\n        /* \"TokenSGTX/contracts/SGTX.sol\":6991:7061  _approve(owner, spender, allowance(owner, spender) + addedValue, true) */\n      jump\t// in\n        /* \"TokenSGTX/contracts/SGTX.sol\":10810:10973  function Pause() public virtual isOwner returns (bool) {... */\n    tag_64:\n        /* \"TokenSGTX/contracts/SGTX.sol\":10859:10863  bool */\n      0x00\n        /* \"TokenSGTX/contracts/SGTX.sol\":10189:10195  _owner */\n      dup1\n      sload\n      sub(shl(0xa0, 0x01), 0x01)\n      and\n        /* \"TokenSGTX/contracts/SGTX.sol\":10175:10185  msg.sender */\n      caller\n        /* \"TokenSGTX/contracts/SGTX.sol\":10175:10195  msg.sender == _owner */\n      eq\n        /* \"TokenSGTX/contracts/SGTX.sol\":10167:10223  require(msg.sender == _owner, \"Only Owner con activate\") */\n      tag_176\n      jumpi\n      mload(0x40)\n      shl(0xe5, 0x461bcd)\n      dup2\n      mstore\n      0x04\n      add\n      tag_125\n      swap1\n      tag_140\n      jump\t// in\n    tag_176:\n        /* \"TokenSGTX/contracts/SGTX.sol\":10875:10882  _paused */\n      0x04\n        /* \"TokenSGTX/contracts/SGTX.sol\":10875:10889  _paused = true */\n      dup1\n      sload\n      not(0xff00)\n      and\n      0x0100\n      or\n      swap1\n      sstore\n        /* \"TokenSGTX/contracts/SGTX.sol\":10904:10945  Paused(msg.sender, block.timestamp, true) */\n      mload(0x40)\n        /* \"TokenSGTX/contracts/SGTX.sol\":10885:10889  true */\n      0x01\n      swap1\n        /* \"TokenSGTX/contracts/SGTX.sol\":10923:10938  block.timestamp */\n      timestamp\n      swap1\n        /* \"TokenSGTX/contracts/SGTX.sol\":10911:10921  msg.sender */\n      caller\n      swap1\n        /* \"TokenSGTX/contracts/SGTX.sol\":10904:10945  Paused(msg.sender, block.timestamp, true) */\n      0xcd52c664c2010b8cb55e5d2ea0ae5add4a5b0460cfafc8af4af80f5bee1032ca\n      swap1\n        /* \"TokenSGTX/contracts/SGTX.sol\":10875:10889  _paused = true */\n      0x00\n      swap1\n        /* \"TokenSGTX/contracts/SGTX.sol\":10904:10945  Paused(msg.sender, block.timestamp, true) */\n      log4\n      pop\n        /* \"TokenSGTX/contracts/SGTX.sol\":10962:10966  true */\n      0x01\n        /* \"TokenSGTX/contracts/SGTX.sol\":10810:10973  function Pause() public virtual isOwner returns (bool) {... */\n      swap1\n      jump\t// out\n        /* \"TokenSGTX/contracts/SGTX.sol\":12149:12244  function isFreezed(address adr) public view returns (bool) {... */\n    tag_80:\n      sub(shl(0xa0, 0x01), 0x01)\n        /* \"TokenSGTX/contracts/SGTX.sol\":12225:12237  _freeze[adr] */\n      and\n        /* \"TokenSGTX/contracts/SGTX.sol\":12202:12206  bool */\n      0x00\n        /* \"TokenSGTX/contracts/SGTX.sol\":12225:12237  _freeze[adr] */\n      swap1\n      dup2\n      mstore\n        /* \"TokenSGTX/contracts/SGTX.sol\":12225:12232  _freeze */\n      0x07\n        /* \"TokenSGTX/contracts/SGTX.sol\":12225:12237  _freeze[adr] */\n      0x20\n      mstore\n      0x40\n      swap1\n      keccak256\n      sload\n      0xff\n      and\n      swap1\n        /* \"TokenSGTX/contracts/SGTX.sol\":12149:12244  function isFreezed(address adr) public view returns (bool) {... */\n      jump\t// out\n        /* \"TokenSGTX/contracts/SGTX.sol\":11983:12143  function UnFreezeAddress(address adr) public isOwner returns (bool) {... */\n    tag_84:\n        /* \"TokenSGTX/contracts/SGTX.sol\":12045:12049  bool */\n      0x00\n        /* \"TokenSGTX/contracts/SGTX.sol\":10189:10195  _owner */\n      dup1\n      sload\n      sub(shl(0xa0, 0x01), 0x01)\n      and\n        /* \"TokenSGTX/contracts/SGTX.sol\":10175:10185  msg.sender */\n      caller\n        /* \"TokenSGTX/contracts/SGTX.sol\":10175:10195  msg.sender == _owner */\n      eq\n        /* \"TokenSGTX/contracts/SGTX.sol\":10167:10223  require(msg.sender == _owner, \"Only Owner con activate\") */\n      tag_182\n      jumpi\n      mload(0x40)\n      shl(0xe5, 0x461bcd)\n      dup2\n      mstore\n      0x04\n      add\n      tag_125\n      swap1\n      tag_140\n      jump\t// in\n    tag_182:\n      pop\n      sub(shl(0xa0, 0x01), 0x01)\n        /* \"TokenSGTX/contracts/SGTX.sol\":12085:12097  _freeze[adr] */\n      and\n        /* \"TokenSGTX/contracts/SGTX.sol\":12100:12105  false */\n      0x00\n        /* \"TokenSGTX/contracts/SGTX.sol\":12085:12097  _freeze[adr] */\n      swap1\n      dup2\n      mstore\n        /* \"TokenSGTX/contracts/SGTX.sol\":12085:12092  _freeze */\n      0x07\n        /* \"TokenSGTX/contracts/SGTX.sol\":12085:12097  _freeze[adr] */\n      0x20\n      mstore\n      0x40\n      swap1\n      keccak256\n        /* \"TokenSGTX/contracts/SGTX.sol\":12085:12105  _freeze[adr] = false */\n      dup1\n      sload\n      not(0xff)\n      and\n      swap1\n      sstore\n      0x01\n      swap1\n        /* \"TokenSGTX/contracts/SGTX.sol\":11983:12143  function UnFreezeAddress(address adr) public isOwner returns (bool) {... */\n      jump\t// out\n        /* \"TokenSGTX/contracts/SGTX.sol\":9958:10044  function symbol() public view  returns (string memory) {... */\n    tag_87:\n        /* \"TokenSGTX/contracts/SGTX.sol\":9998:10011  string memory */\n      0x60\n        /* \"TokenSGTX/contracts/SGTX.sol\":10030:10037  _symbol */\n      0x02\n        /* \"TokenSGTX/contracts/SGTX.sol\":10023:10037  return _symbol */\n      dup1\n      sload\n      tag_117\n      swap1\n      tag_118\n      jump\t// in\n        /* \"TokenSGTX/contracts/SGTX.sol\":5843:6196  function transfer(... */\n    tag_91:\n        /* \"TokenSGTX/contracts/SGTX.sol\":10285:10292  _paused */\n      sload(0x04)\n        /* \"TokenSGTX/contracts/SGTX.sol\":5951:5955  bool */\n      0x00\n      swap1\n        /* \"TokenSGTX/contracts/SGTX.sol\":10285:10292  _paused */\n      0x0100\n      swap1\n      div\n      0xff\n      and\n        /* \"TokenSGTX/contracts/SGTX.sol\":10284:10292  !_paused */\n      iszero\n        /* \"TokenSGTX/contracts/SGTX.sol\":10276:10328  require(!_paused, \"Contract is PAused By the Owner\") */\n      tag_192\n      jumpi\n      mload(0x40)\n      shl(0xe5, 0x461bcd)\n      dup2\n      mstore\n      0x04\n      add\n      tag_125\n      swap1\n      tag_126\n      jump\t// in\n    tag_192:\n        /* \"TokenSGTX/contracts/SGTX.sol\":10403:10424  isFreezed(msg.sender) */\n      tag_195\n        /* \"TokenSGTX/contracts/SGTX.sol\":10413:10423  msg.sender */\n      caller\n        /* \"TokenSGTX/contracts/SGTX.sol\":10403:10412  isFreezed */\n      tag_80\n        /* \"TokenSGTX/contracts/SGTX.sol\":10403:10424  isFreezed(msg.sender) */\n      jump\t// in\n    tag_195:\n        /* \"TokenSGTX/contracts/SGTX.sol\":10403:10433  isFreezed(msg.sender) == false */\n      iszero\n        /* \"TokenSGTX/contracts/SGTX.sol\":10382:10479  require(... */\n      tag_196\n      jumpi\n      mload(0x40)\n      shl(0xe5, 0x461bcd)\n      dup2\n      mstore\n      0x04\n      add\n      tag_125\n      swap1\n      tag_131\n      jump\t// in\n    tag_196:\n        /* \"TokenSGTX/contracts/SGTX.sol\":6002:6008  _owner */\n      and(sub(shl(0xa0, 0x01), 0x01), sload(0x00))\n        /* \"TokenSGTX/contracts/SGTX.sol\":5988:5998  msg.sender */\n      caller\n        /* \"TokenSGTX/contracts/SGTX.sol\":5988:6008  msg.sender == _owner */\n      eq\n      dup1\n        /* \"TokenSGTX/contracts/SGTX.sol\":5988:6024  msg.sender == _owner || _freeTranfer */\n      tag_199\n      jumpi\n      pop\n        /* \"TokenSGTX/contracts/SGTX.sol\":6012:6024  _freeTranfer */\n      sload(0x04)\n      0x010000\n      swap1\n      div\n      0xff\n      and\n        /* \"TokenSGTX/contracts/SGTX.sol\":5988:6024  msg.sender == _owner || _freeTranfer */\n    tag_199:\n        /* \"TokenSGTX/contracts/SGTX.sol\":5967:6099  require(... */\n      tag_200\n      jumpi\n      mload(0x40)\n      shl(0xe5, 0x461bcd)\n      dup2\n      mstore\n      0x04\n      add\n      tag_125\n      swap1\n      tag_157\n      jump\t// in\n    tag_200:\n        /* \"TokenSGTX/contracts/SGTX.sol\":6124:6134  msg.sender */\n      caller\n        /* \"TokenSGTX/contracts/SGTX.sol\":6144:6168  _update(from, to, value) */\n      tag_134\n        /* \"TokenSGTX/contracts/SGTX.sol\":6124:6134  msg.sender */\n      dup2\n        /* \"TokenSGTX/contracts/SGTX.sol\":6158:6160  to */\n      dup6\n        /* \"TokenSGTX/contracts/SGTX.sol\":6162:6167  value */\n      dup6\n        /* \"TokenSGTX/contracts/SGTX.sol\":6144:6151  _update */\n      tag_203\n        /* \"TokenSGTX/contracts/SGTX.sol\":6144:6168  _update(from, to, value) */\n      jump\t// in\n        /* \"TokenSGTX/contracts/SGTX.sol\":10503:10632  function TranferOwner(... */\n    tag_98:\n        /* \"TokenSGTX/contracts/SGTX.sol\":10589:10596  address */\n      0x00\n        /* \"TokenSGTX/contracts/SGTX.sol\":10189:10195  _owner */\n      dup1\n      sload\n      sub(shl(0xa0, 0x01), 0x01)\n      and\n        /* \"TokenSGTX/contracts/SGTX.sol\":10175:10185  msg.sender */\n      caller\n        /* \"TokenSGTX/contracts/SGTX.sol\":10175:10195  msg.sender == _owner */\n      eq\n        /* \"TokenSGTX/contracts/SGTX.sol\":10167:10223  require(msg.sender == _owner, \"Only Owner con activate\") */\n      tag_206\n      jumpi\n      mload(0x40)\n      shl(0xe5, 0x461bcd)\n      dup2\n      mstore\n      0x04\n      add\n      tag_125\n      swap1\n      tag_140\n      jump\t// in\n    tag_206:\n        /* \"TokenSGTX/contracts/SGTX.sol\":10608:10614  _owner */\n      0x00\n        /* \"TokenSGTX/contracts/SGTX.sol\":10608:10625  _owner = newOwner */\n      dup1\n      sload\n      not(sub(shl(0xa0, 0x01), 0x01))\n      and\n      sub(shl(0xa0, 0x01), 0x01)\n      swap4\n      swap1\n      swap4\n      and\n      swap3\n      swap1\n      swap3\n      or\n      swap1\n      swap2\n      sstore\n      swap1\n        /* \"TokenSGTX/contracts/SGTX.sol\":10503:10632  function TranferOwner(... */\n      jump\t// out\n        /* \"TokenSGTX/contracts/SGTX.sol\":11691:11848  function unFreeTransfer() public isOwner returns (bool) {... */\n    tag_102:\n        /* \"TokenSGTX/contracts/SGTX.sol\":11741:11745  bool */\n      0x00\n        /* \"TokenSGTX/contracts/SGTX.sol\":10189:10195  _owner */\n      dup1\n      sload\n      sub(shl(0xa0, 0x01), 0x01)\n      and\n        /* \"TokenSGTX/contracts/SGTX.sol\":10175:10185  msg.sender */\n      caller\n        /* \"TokenSGTX/contracts/SGTX.sol\":10175:10195  msg.sender == _owner */\n      eq\n        /* \"TokenSGTX/contracts/SGTX.sol\":10167:10223  require(msg.sender == _owner, \"Only Owner con activate\") */\n      tag_210\n      jumpi\n      mload(0x40)\n      shl(0xe5, 0x461bcd)\n      dup2\n      mstore\n      0x04\n      add\n      tag_125\n      swap1\n      tag_140\n      jump\t// in\n    tag_210:\n        /* \"TokenSGTX/contracts/SGTX.sol\":11757:11769  _freeTranfer */\n      0x04\n        /* \"TokenSGTX/contracts/SGTX.sol\":11757:11777  _freeTranfer = false */\n      dup1\n      sload\n      not(0xff0000)\n      and\n      swap1\n      sstore\n        /* \"TokenSGTX/contracts/SGTX.sol\":11792:11841  FreeTranfered(msg.sender, block.timestamp, false) */\n      mload(0x40)\n        /* \"TokenSGTX/contracts/SGTX.sol\":11772:11777  false */\n      0x00\n      swap1\n        /* \"TokenSGTX/contracts/SGTX.sol\":11818:11833  block.timestamp */\n      timestamp\n      swap1\n        /* \"TokenSGTX/contracts/SGTX.sol\":11806:11816  msg.sender */\n      caller\n      swap1\n        /* \"TokenSGTX/contracts/SGTX.sol\":11792:11841  FreeTranfered(msg.sender, block.timestamp, false) */\n      0x01184061675848e328fb316abfd3f046f1cae4fb526dc24d09bdaa92e3921217\n      swap1\n        /* \"TokenSGTX/contracts/SGTX.sol\":11772:11777  false */\n      dup5\n      swap1\n        /* \"TokenSGTX/contracts/SGTX.sol\":11792:11841  FreeTranfered(msg.sender, block.timestamp, false) */\n      log4\n        /* \"TokenSGTX/contracts/SGTX.sol\":11691:11848  function unFreeTransfer() public isOwner returns (bool) {... */\n      swap1\n      jump\t// out\n        /* \"TokenSGTX/contracts/SGTX.sol\":9226:9388  function allowance(... */\n    tag_107:\n      sub(shl(0xa0, 0x01), 0x01)\n        /* \"TokenSGTX/contracts/SGTX.sol\":9354:9372  _allowances[owner] */\n      swap2\n      dup3\n      and\n        /* \"TokenSGTX/contracts/SGTX.sol\":9328:9335  uint256 */\n      0x00\n        /* \"TokenSGTX/contracts/SGTX.sol\":9354:9372  _allowances[owner] */\n      swap1\n      dup2\n      mstore\n        /* \"TokenSGTX/contracts/SGTX.sol\":9354:9365  _allowances */\n      0x08\n        /* \"TokenSGTX/contracts/SGTX.sol\":9354:9372  _allowances[owner] */\n      0x20\n      swap1\n      dup2\n      mstore\n      0x40\n      dup1\n      dup4\n      keccak256\n        /* \"TokenSGTX/contracts/SGTX.sol\":9354:9381  _allowances[owner][spender] */\n      swap4\n      swap1\n      swap5\n      and\n      dup3\n      mstore\n      swap2\n      swap1\n      swap2\n      mstore\n      keccak256\n      sload\n      swap1\n        /* \"TokenSGTX/contracts/SGTX.sol\":9226:9388  function allowance(... */\n      jump\t// out\n        /* \"TokenSGTX/contracts/SGTX.sol\":11078:11216  function unPause() public isOwner returns (bool) {... */\n    tag_114:\n        /* \"TokenSGTX/contracts/SGTX.sol\":11121:11125  bool */\n      0x00\n        /* \"TokenSGTX/contracts/SGTX.sol\":10189:10195  _owner */\n      dup1\n      sload\n      sub(shl(0xa0, 0x01), 0x01)\n      and\n        /* \"TokenSGTX/contracts/SGTX.sol\":10175:10185  msg.sender */\n      caller\n        /* \"TokenSGTX/contracts/SGTX.sol\":10175:10195  msg.sender == _owner */\n      eq\n        /* \"TokenSGTX/contracts/SGTX.sol\":10167:10223  require(msg.sender == _owner, \"Only Owner con activate\") */\n      tag_215\n      jumpi\n      mload(0x40)\n      shl(0xe5, 0x461bcd)\n      dup2\n      mstore\n      0x04\n      add\n      tag_125\n      swap1\n      tag_140\n      jump\t// in\n    tag_215:\n        /* \"TokenSGTX/contracts/SGTX.sol\":11137:11144  _paused */\n      0x04\n        /* \"TokenSGTX/contracts/SGTX.sol\":11137:11152  _paused = false */\n      dup1\n      sload\n      not(0xff00)\n      and\n      swap1\n      sstore\n        /* \"TokenSGTX/contracts/SGTX.sol\":11167:11209  Paused(msg.sender, block.timestamp, false) */\n      mload(0x40)\n        /* \"TokenSGTX/contracts/SGTX.sol\":11147:11152  false */\n      0x00\n      swap1\n        /* \"TokenSGTX/contracts/SGTX.sol\":11186:11201  block.timestamp */\n      timestamp\n      swap1\n        /* \"TokenSGTX/contracts/SGTX.sol\":11174:11184  msg.sender */\n      caller\n      swap1\n        /* \"TokenSGTX/contracts/SGTX.sol\":11167:11209  Paused(msg.sender, block.timestamp, false) */\n      0xcd52c664c2010b8cb55e5d2ea0ae5add4a5b0460cfafc8af4af80f5bee1032ca\n      swap1\n        /* \"TokenSGTX/contracts/SGTX.sol\":11147:11152  false */\n      dup5\n      swap1\n        /* \"TokenSGTX/contracts/SGTX.sol\":11167:11209  Paused(msg.sender, block.timestamp, false) */\n      log4\n        /* \"TokenSGTX/contracts/SGTX.sol\":11078:11216  function unPause() public isOwner returns (bool) {... */\n      swap1\n      jump\t// out\n        /* \"TokenSGTX/contracts/SGTX.sol\":9394:9864  function _approve(... */\n    tag_135:\n      sub(shl(0xa0, 0x01), 0x01)\n        /* \"TokenSGTX/contracts/SGTX.sol\":9544:9563  owner == address(0) */\n      dup5\n      and\n        /* \"TokenSGTX/contracts/SGTX.sol\":9540:9629  if (owner == address(0)) {... */\n      tag_219\n      jumpi\n        /* \"TokenSGTX/contracts/SGTX.sol\":9586:9618  ERC20InvalidApprover(address(0)) */\n      mload(0x40)\n      shl(0xe0, 0xe602df05)\n      dup2\n      mstore\n        /* \"TokenSGTX/contracts/SGTX.sol\":9615:9616  0 */\n      0x00\n        /* \"TokenSGTX/contracts/SGTX.sol\":9586:9618  ERC20InvalidApprover(address(0)) */\n      0x04\n      dup3\n      add\n        /* \"#utility.yul\":2237:2288   */\n      mstore\n        /* \"#utility.yul\":2210:2228   */\n      0x24\n      add\n        /* \"TokenSGTX/contracts/SGTX.sol\":9586:9618  ERC20InvalidApprover(address(0)) */\n      tag_125\n        /* \"#utility.yul\":2091:2294   */\n      jump\n        /* \"TokenSGTX/contracts/SGTX.sol\":9540:9629  if (owner == address(0)) {... */\n    tag_219:\n      sub(shl(0xa0, 0x01), 0x01)\n        /* \"TokenSGTX/contracts/SGTX.sol\":9642:9663  spender == address(0) */\n      dup4\n      and\n        /* \"TokenSGTX/contracts/SGTX.sol\":9638:9728  if (spender == address(0)) {... */\n      tag_221\n      jumpi\n        /* \"TokenSGTX/contracts/SGTX.sol\":9686:9717  ERC20InvalidSpender(address(0)) */\n      mload(0x40)\n      shl(0xe1, 0x4a1406b1)\n      dup2\n      mstore\n        /* \"TokenSGTX/contracts/SGTX.sol\":9714:9715  0 */\n      0x00\n        /* \"TokenSGTX/contracts/SGTX.sol\":9686:9717  ERC20InvalidSpender(address(0)) */\n      0x04\n      dup3\n      add\n        /* \"#utility.yul\":2237:2288   */\n      mstore\n        /* \"#utility.yul\":2210:2228   */\n      0x24\n      add\n        /* \"TokenSGTX/contracts/SGTX.sol\":9686:9717  ERC20InvalidSpender(address(0)) */\n      tag_125\n        /* \"#utility.yul\":2091:2294   */\n      jump\n        /* \"TokenSGTX/contracts/SGTX.sol\":9638:9728  if (spender == address(0)) {... */\n    tag_221:\n      sub(shl(0xa0, 0x01), 0x01)\n        /* \"TokenSGTX/contracts/SGTX.sol\":9737:9755  _allowances[owner] */\n      dup1\n      dup6\n      and\n      0x00\n      swap1\n      dup2\n      mstore\n        /* \"TokenSGTX/contracts/SGTX.sol\":9737:9748  _allowances */\n      0x08\n        /* \"TokenSGTX/contracts/SGTX.sol\":9737:9755  _allowances[owner] */\n      0x20\n      swap1\n      dup2\n      mstore\n      0x40\n      dup1\n      dup4\n      keccak256\n        /* \"TokenSGTX/contracts/SGTX.sol\":9737:9764  _allowances[owner][spender] */\n      swap4\n      dup8\n      and\n      dup4\n      mstore\n      swap3\n      swap1\n      mstore\n      keccak256\n        /* \"TokenSGTX/contracts/SGTX.sol\":9737:9772  _allowances[owner][spender] = value */\n      dup3\n      swap1\n      sstore\n        /* \"TokenSGTX/contracts/SGTX.sol\":9782:9858  if (emitEvent) {... */\n      dup1\n      iszero\n      tag_223\n      jumpi\n        /* \"TokenSGTX/contracts/SGTX.sol\":9832:9839  spender */\n      dup3\n      sub(shl(0xa0, 0x01), 0x01)\n        /* \"TokenSGTX/contracts/SGTX.sol\":9816:9847  Approval(owner, spender, value) */\n      and\n        /* \"TokenSGTX/contracts/SGTX.sol\":9825:9830  owner */\n      dup5\n      sub(shl(0xa0, 0x01), 0x01)\n        /* \"TokenSGTX/contracts/SGTX.sol\":9816:9847  Approval(owner, spender, value) */\n      and\n      0x8c5be1e5ebec7d5bd14f71427d1e84f3dd0314c0f7b2291e5b200ac8c7c3b925\n        /* \"TokenSGTX/contracts/SGTX.sol\":9841:9846  value */\n      dup5\n        /* \"TokenSGTX/contracts/SGTX.sol\":9816:9847  Approval(owner, spender, value) */\n      mload(0x40)\n      tag_224\n      swap2\n        /* \"#utility.yul\":1342:1367   */\n      dup2\n      mstore\n        /* \"#utility.yul\":1330:1332   */\n      0x20\n        /* \"#utility.yul\":1315:1333   */\n      add\n      swap1\n        /* \"#utility.yul\":1196:1373   */\n      jump\n        /* \"TokenSGTX/contracts/SGTX.sol\":9816:9847  Approval(owner, spender, value) */\n    tag_224:\n      mload(0x40)\n      dup1\n      swap2\n      sub\n      swap1\n      log3\n        /* \"TokenSGTX/contracts/SGTX.sol\":9782:9858  if (emitEvent) {... */\n    tag_223:\n        /* \"TokenSGTX/contracts/SGTX.sol\":9394:9864  function _approve(... */\n      pop\n      pop\n      pop\n      pop\n      jump\t// out\n        /* \"TokenSGTX/contracts/SGTX.sol\":8635:9220  function _spendAllowance(... */\n    tag_159:\n        /* \"TokenSGTX/contracts/SGTX.sol\":8764:8788  uint256 currentAllowance */\n      0x00\n        /* \"TokenSGTX/contracts/SGTX.sol\":8791:8816  allowance(owner, spender) */\n      tag_226\n        /* \"TokenSGTX/contracts/SGTX.sol\":8801:8806  owner */\n      dup5\n        /* \"TokenSGTX/contracts/SGTX.sol\":8808:8815  spender */\n      dup5\n        /* \"TokenSGTX/contracts/SGTX.sol\":8791:8800  allowance */\n      tag_107\n        /* \"TokenSGTX/contracts/SGTX.sol\":8791:8816  allowance(owner, spender) */\n      jump\t// in\n    tag_226:\n        /* \"TokenSGTX/contracts/SGTX.sol\":8764:8816  uint256 currentAllowance = allowance(owner, spender) */\n      swap1\n      pop\n      not(0x00)\n        /* \"TokenSGTX/contracts/SGTX.sol\":8830:8846  currentAllowance */\n      dup2\n        /* \"TokenSGTX/contracts/SGTX.sol\":8830:8867  currentAllowance != type(uint256).max */\n      eq\n        /* \"TokenSGTX/contracts/SGTX.sol\":8826:9214  if (currentAllowance != type(uint256).max) {... */\n      tag_223\n      jumpi\n        /* \"TokenSGTX/contracts/SGTX.sol\":8906:8911  value */\n      dup2\n        /* \"TokenSGTX/contracts/SGTX.sol\":8887:8903  currentAllowance */\n      dup2\n        /* \"TokenSGTX/contracts/SGTX.sol\":8887:8911  currentAllowance < value */\n      lt\n        /* \"TokenSGTX/contracts/SGTX.sol\":8883:9091  if (currentAllowance < value) {... */\n      iszero\n      tag_228\n      jumpi\n        /* \"TokenSGTX/contracts/SGTX.sol\":8938:9076  ERC20InsufficientAllowance(... */\n      mload(0x40)\n      shl(0xe1, 0x7dc7a0d9)\n      dup2\n      mstore\n      sub(shl(0xa0, 0x01), 0x01)\n        /* \"#utility.yul\":4874:4906   */\n      dup5\n      and\n        /* \"TokenSGTX/contracts/SGTX.sol\":8938:9076  ERC20InsufficientAllowance(... */\n      0x04\n      dup3\n      add\n        /* \"#utility.yul\":4856:4907   */\n      mstore\n        /* \"#utility.yul\":4923:4941   */\n      0x24\n      dup2\n      add\n        /* \"#utility.yul\":4916:4950   */\n      dup3\n      swap1\n      mstore\n        /* \"#utility.yul\":4966:4984   */\n      0x44\n      dup2\n      add\n        /* \"#utility.yul\":4959:4993   */\n      dup4\n      swap1\n      mstore\n        /* \"#utility.yul\":4829:4847   */\n      0x64\n      add\n        /* \"TokenSGTX/contracts/SGTX.sol\":8938:9076  ERC20InsufficientAllowance(... */\n      tag_125\n        /* \"#utility.yul\":4654:4999   */\n      jump\n        /* \"TokenSGTX/contracts/SGTX.sol\":8883:9091  if (currentAllowance < value) {... */\n    tag_228:\n        /* \"TokenSGTX/contracts/SGTX.sol\":9132:9189  _approve(owner, spender, currentAllowance - value, false) */\n      tag_223\n        /* \"TokenSGTX/contracts/SGTX.sol\":9141:9146  owner */\n      dup5\n        /* \"TokenSGTX/contracts/SGTX.sol\":9148:9155  spender */\n      dup5\n        /* \"TokenSGTX/contracts/SGTX.sol\":9176:9181  value */\n      dup5\n        /* \"TokenSGTX/contracts/SGTX.sol\":9157:9173  currentAllowance */\n      dup5\n        /* \"TokenSGTX/contracts/SGTX.sol\":9157:9181  currentAllowance - value */\n      sub\n        /* \"TokenSGTX/contracts/SGTX.sol\":9183:9188  false */\n      0x00\n        /* \"TokenSGTX/contracts/SGTX.sol\":9132:9140  _approve */\n      tag_135\n        /* \"TokenSGTX/contracts/SGTX.sol\":9132:9189  _approve(owner, spender, currentAllowance - value, false) */\n      jump\t// in\n        /* \"TokenSGTX/contracts/SGTX.sol\":6202:6502  function _transfer(address from, address to, uint256 value) internal {... */\n    tag_161:\n      sub(shl(0xa0, 0x01), 0x01)\n        /* \"TokenSGTX/contracts/SGTX.sol\":6285:6303  from == address(0) */\n      dup4\n      and\n        /* \"TokenSGTX/contracts/SGTX.sol\":6281:6367  if (from == address(0)) {... */\n      tag_233\n      jumpi\n        /* \"TokenSGTX/contracts/SGTX.sol\":6326:6356  ERC20InvalidSender(address(0)) */\n      mload(0x40)\n      shl(0xe1, 0x4b637e8f)\n      dup2\n      mstore\n        /* \"TokenSGTX/contracts/SGTX.sol\":6353:6354  0 */\n      0x00\n        /* \"TokenSGTX/contracts/SGTX.sol\":6326:6356  ERC20InvalidSender(address(0)) */\n      0x04\n      dup3\n      add\n        /* \"#utility.yul\":2237:2288   */\n      mstore\n        /* \"#utility.yul\":2210:2228   */\n      0x24\n      add\n        /* \"TokenSGTX/contracts/SGTX.sol\":6326:6356  ERC20InvalidSender(address(0)) */\n      tag_125\n        /* \"#utility.yul\":2091:2294   */\n      jump\n        /* \"TokenSGTX/contracts/SGTX.sol\":6281:6367  if (from == address(0)) {... */\n    tag_233:\n      sub(shl(0xa0, 0x01), 0x01)\n        /* \"TokenSGTX/contracts/SGTX.sol\":6380:6396  to == address(0) */\n      dup3\n      and\n        /* \"TokenSGTX/contracts/SGTX.sol\":6376:6462  if (to == address(0)) {... */\n      tag_235\n      jumpi\n        /* \"TokenSGTX/contracts/SGTX.sol\":6419:6451  ERC20InvalidReceiver(address(0)) */\n      mload(0x40)\n      shl(0xe0, 0xec442f05)\n      dup2\n      mstore\n        /* \"TokenSGTX/contracts/SGTX.sol\":6448:6449  0 */\n      0x00\n        /* \"TokenSGTX/contracts/SGTX.sol\":6419:6451  ERC20InvalidReceiver(address(0)) */\n      0x04\n      dup3\n      add\n        /* \"#utility.yul\":2237:2288   */\n      mstore\n        /* \"#utility.yul\":2210:2228   */\n      0x24\n      add\n        /* \"TokenSGTX/contracts/SGTX.sol\":6419:6451  ERC20InvalidReceiver(address(0)) */\n      tag_125\n        /* \"#utility.yul\":2091:2294   */\n      jump\n        /* \"TokenSGTX/contracts/SGTX.sol\":6376:6462  if (to == address(0)) {... */\n    tag_235:\n        /* \"TokenSGTX/contracts/SGTX.sol\":6471:6495  _update(from, to, value) */\n      tag_237\n        /* \"TokenSGTX/contracts/SGTX.sol\":6479:6483  from */\n      dup4\n        /* \"TokenSGTX/contracts/SGTX.sol\":6485:6487  to */\n      dup4\n        /* \"TokenSGTX/contracts/SGTX.sol\":6489:6494  value */\n      dup4\n        /* \"TokenSGTX/contracts/SGTX.sol\":6471:6478  _update */\n      tag_203\n        /* \"TokenSGTX/contracts/SGTX.sol\":6471:6495  _update(from, to, value) */\n      jump\t// in\n    tag_237:\n        /* \"TokenSGTX/contracts/SGTX.sol\":6202:6502  function _transfer(address from, address to, uint256 value) internal {... */\n      pop\n      pop\n      pop\n      jump\t// out\n        /* \"TokenSGTX/contracts/SGTX.sol\":7532:8629  function _update(address from, address to, uint256 value) internal virtual {... */\n    tag_203:\n      sub(shl(0xa0, 0x01), 0x01)\n        /* \"TokenSGTX/contracts/SGTX.sol\":7621:7639  from == address(0) */\n      dup4\n      and\n        /* \"TokenSGTX/contracts/SGTX.sol\":7617:8152  if (from == address(0)) {... */\n      tag_239\n      jumpi\n        /* \"TokenSGTX/contracts/SGTX.sol\":7768:7773  value */\n      dup1\n        /* \"TokenSGTX/contracts/SGTX.sol\":7757:7764  _supply */\n      0x03\n      0x00\n        /* \"TokenSGTX/contracts/SGTX.sol\":7757:7773  _supply += value */\n      dup3\n      dup3\n      sload\n      tag_240\n      swap2\n      swap1\n      tag_174\n      jump\t// in\n    tag_240:\n      swap1\n      swap2\n      sstore\n      pop\n        /* \"TokenSGTX/contracts/SGTX.sol\":7617:8152  if (from == address(0)) {... */\n      tag_241\n      swap1\n      pop\n      jump\n    tag_239:\n      sub(shl(0xa0, 0x01), 0x01)\n        /* \"TokenSGTX/contracts/SGTX.sol\":7826:7841  _balances[from] */\n      dup4\n      and\n        /* \"TokenSGTX/contracts/SGTX.sol\":7804:7823  uint256 fromBalance */\n      0x00\n        /* \"TokenSGTX/contracts/SGTX.sol\":7826:7841  _balances[from] */\n      swap1\n      dup2\n      mstore\n        /* \"TokenSGTX/contracts/SGTX.sol\":7826:7835  _balances */\n      0x05\n        /* \"TokenSGTX/contracts/SGTX.sol\":7826:7841  _balances[from] */\n      0x20\n      mstore\n      0x40\n      swap1\n      keccak256\n      sload\n        /* \"TokenSGTX/contracts/SGTX.sol\":7859:7878  fromBalance < value */\n      dup2\n      dup2\n      lt\n        /* \"TokenSGTX/contracts/SGTX.sol\":7855:7970  if (fromBalance < value) {... */\n      iszero\n      tag_242\n      jumpi\n        /* \"TokenSGTX/contracts/SGTX.sol\":7905:7955  ERC20InsufficientBalance(from, fromBalance, value) */\n      mload(0x40)\n      shl(0xe2, 0x391434e3)\n      dup2\n      mstore\n      sub(shl(0xa0, 0x01), 0x01)\n        /* \"#utility.yul\":4874:4906   */\n      dup6\n      and\n        /* \"TokenSGTX/contracts/SGTX.sol\":7905:7955  ERC20InsufficientBalance(from, fromBalance, value) */\n      0x04\n      dup3\n      add\n        /* \"#utility.yul\":4856:4907   */\n      mstore\n        /* \"#utility.yul\":4923:4941   */\n      0x24\n      dup2\n      add\n        /* \"#utility.yul\":4916:4950   */\n      dup3\n      swap1\n      mstore\n        /* \"#utility.yul\":4966:4984   */\n      0x44\n      dup2\n      add\n        /* \"#utility.yul\":4959:4993   */\n      dup4\n      swap1\n      mstore\n        /* \"#utility.yul\":4829:4847   */\n      0x64\n      add\n        /* \"TokenSGTX/contracts/SGTX.sol\":7905:7955  ERC20InsufficientBalance(from, fromBalance, value) */\n      tag_125\n        /* \"#utility.yul\":4654:4999   */\n      jump\n        /* \"TokenSGTX/contracts/SGTX.sol\":7855:7970  if (fromBalance < value) {... */\n    tag_242:\n      sub(shl(0xa0, 0x01), 0x01)\n        /* \"TokenSGTX/contracts/SGTX.sol\":8090:8105  _balances[from] */\n      dup5\n      and\n      0x00\n      swap1\n      dup2\n      mstore\n        /* \"TokenSGTX/contracts/SGTX.sol\":8090:8099  _balances */\n      0x05\n        /* \"TokenSGTX/contracts/SGTX.sol\":8090:8105  _balances[from] */\n      0x20\n      mstore\n      0x40\n      swap1\n      keccak256\n        /* \"TokenSGTX/contracts/SGTX.sol\":8108:8127  fromBalance - value */\n      swap1\n      dup3\n      swap1\n      sub\n        /* \"TokenSGTX/contracts/SGTX.sol\":8090:8127  _balances[from] = fromBalance - value */\n      swap1\n      sstore\n        /* \"TokenSGTX/contracts/SGTX.sol\":7617:8152  if (from == address(0)) {... */\n    tag_241:\n      sub(shl(0xa0, 0x01), 0x01)\n        /* \"TokenSGTX/contracts/SGTX.sol\":8166:8182  to == address(0) */\n      dup3\n      and\n        /* \"TokenSGTX/contracts/SGTX.sol\":8162:8582  if (to == address(0)) {... */\n      tag_244\n      jumpi\n        /* \"TokenSGTX/contracts/SGTX.sol\":8329:8336  _supply */\n      0x03\n        /* \"TokenSGTX/contracts/SGTX.sol\":8329:8345  _supply -= value */\n      dup1\n      sload\n      dup3\n      swap1\n      sub\n      swap1\n      sstore\n        /* \"TokenSGTX/contracts/SGTX.sol\":8162:8582  if (to == address(0)) {... */\n      jump(tag_245)\n    tag_244:\n      sub(shl(0xa0, 0x01), 0x01)\n        /* \"TokenSGTX/contracts/SGTX.sol\":8535:8548  _balances[to] */\n      dup3\n      and\n      0x00\n      swap1\n      dup2\n      mstore\n        /* \"TokenSGTX/contracts/SGTX.sol\":8535:8544  _balances */\n      0x05\n        /* \"TokenSGTX/contracts/SGTX.sol\":8535:8548  _balances[to] */\n      0x20\n      mstore\n      0x40\n      swap1\n      keccak256\n        /* \"TokenSGTX/contracts/SGTX.sol\":8535:8557  _balances[to] += value */\n      dup1\n      sload\n      dup3\n      add\n      swap1\n      sstore\n        /* \"TokenSGTX/contracts/SGTX.sol\":8162:8582  if (to == address(0)) {... */\n    tag_245:\n        /* \"TokenSGTX/contracts/SGTX.sol\":8612:8614  to */\n      dup2\n      sub(shl(0xa0, 0x01), 0x01)\n        /* \"TokenSGTX/contracts/SGTX.sol\":8597:8622  Transfer(from, to, value) */\n      and\n        /* \"TokenSGTX/contracts/SGTX.sol\":8606:8610  from */\n      dup4\n      sub(shl(0xa0, 0x01), 0x01)\n        /* \"TokenSGTX/contracts/SGTX.sol\":8597:8622  Transfer(from, to, value) */\n      and\n      0xddf252ad1be2c89b69c2b068fc378daa952ba7f163c4a11628f55a4df523b3ef\n        /* \"TokenSGTX/contracts/SGTX.sol\":8616:8621  value */\n      dup4\n        /* \"TokenSGTX/contracts/SGTX.sol\":8597:8622  Transfer(from, to, value) */\n      mload(0x40)\n      tag_246\n      swap2\n        /* \"#utility.yul\":1342:1367   */\n      dup2\n      mstore\n        /* \"#utility.yul\":1330:1332   */\n      0x20\n        /* \"#utility.yul\":1315:1333   */\n      add\n      swap1\n        /* \"#utility.yul\":1196:1373   */\n      jump\n        /* \"TokenSGTX/contracts/SGTX.sol\":8597:8622  Transfer(from, to, value) */\n    tag_246:\n      mload(0x40)\n      dup1\n      swap2\n      sub\n      swap1\n      log3\n        /* \"TokenSGTX/contracts/SGTX.sol\":7532:8629  function _update(address from, address to, uint256 value) internal virtual {... */\n      pop\n      pop\n      pop\n      jump\t// out\n        /* \"#utility.yul\":14:562   */\n    tag_31:\n        /* \"#utility.yul\":126:130   */\n      0x00\n        /* \"#utility.yul\":155:157   */\n      0x20\n        /* \"#utility.yul\":184:186   */\n      dup1\n        /* \"#utility.yul\":173:182   */\n      dup4\n        /* \"#utility.yul\":166:187   */\n      mstore\n        /* \"#utility.yul\":216:222   */\n      dup4\n        /* \"#utility.yul\":210:223   */\n      mload\n        /* \"#utility.yul\":259:265   */\n      dup1\n        /* \"#utility.yul\":254:256   */\n      dup3\n        /* \"#utility.yul\":243:252   */\n      dup6\n        /* \"#utility.yul\":239:257   */\n      add\n        /* \"#utility.yul\":232:266   */\n      mstore\n        /* \"#utility.yul\":284:285   */\n      0x00\n        /* \"#utility.yul\":294:434   */\n    tag_250:\n        /* \"#utility.yul\":308:314   */\n      dup2\n        /* \"#utility.yul\":305:306   */\n      dup2\n        /* \"#utility.yul\":302:315   */\n      lt\n        /* \"#utility.yul\":294:434   */\n      iszero\n      tag_252\n      jumpi\n        /* \"#utility.yul\":403:417   */\n      dup6\n      dup2\n      add\n        /* \"#utility.yul\":399:422   */\n      dup4\n      add\n        /* \"#utility.yul\":393:423   */\n      mload\n        /* \"#utility.yul\":369:386   */\n      dup6\n      dup3\n      add\n        /* \"#utility.yul\":388:390   */\n      0x40\n        /* \"#utility.yul\":365:391   */\n      add\n        /* \"#utility.yul\":358:424   */\n      mstore\n        /* \"#utility.yul\":323:333   */\n      dup3\n      add\n        /* \"#utility.yul\":294:434   */\n      jump(tag_250)\n    tag_252:\n        /* \"#utility.yul\":298:301   */\n      pop\n        /* \"#utility.yul\":483:484   */\n      0x00\n        /* \"#utility.yul\":478:480   */\n      0x40\n        /* \"#utility.yul\":469:475   */\n      dup3\n        /* \"#utility.yul\":458:467   */\n      dup7\n        /* \"#utility.yul\":454:476   */\n      add\n        /* \"#utility.yul\":450:481   */\n      add\n        /* \"#utility.yul\":443:485   */\n      mstore\n        /* \"#utility.yul\":553:555   */\n      0x40\n        /* \"#utility.yul\":546:548   */\n      0x1f\n        /* \"#utility.yul\":542:549   */\n      not\n        /* \"#utility.yul\":537:539   */\n      0x1f\n        /* \"#utility.yul\":529:535   */\n      dup4\n        /* \"#utility.yul\":525:540   */\n      add\n        /* \"#utility.yul\":521:550   */\n      and\n        /* \"#utility.yul\":510:519   */\n      dup6\n        /* \"#utility.yul\":506:551   */\n      add\n        /* \"#utility.yul\":502:556   */\n      add\n        /* \"#utility.yul\":494:556   */\n      swap3\n      pop\n      pop\n      pop\n        /* \"#utility.yul\":14:562   */\n      swap3\n      swap2\n      pop\n      pop\n      jump\t// out\n        /* \"#utility.yul\":567:740   */\n    tag_247:\n        /* \"#utility.yul\":635:655   */\n      dup1\n      calldataload\n      sub(shl(0xa0, 0x01), 0x01)\n        /* \"#utility.yul\":684:715   */\n      dup2\n      and\n        /* \"#utility.yul\":674:716   */\n      dup2\n      eq\n        /* \"#utility.yul\":664:734   */\n      tag_141\n      jumpi\n        /* \"#utility.yul\":730:731   */\n      0x00\n        /* \"#utility.yul\":727:728   */\n      dup1\n        /* \"#utility.yul\":720:732   */\n      revert\n        /* \"#utility.yul\":745:999   */\n    tag_34:\n        /* \"#utility.yul\":813:819   */\n      0x00\n        /* \"#utility.yul\":821:827   */\n      dup1\n        /* \"#utility.yul\":874:876   */\n      0x40\n        /* \"#utility.yul\":862:871   */\n      dup4\n        /* \"#utility.yul\":853:860   */\n      dup6\n        /* \"#utility.yul\":849:872   */\n      sub\n        /* \"#utility.yul\":845:877   */\n      slt\n        /* \"#utility.yul\":842:894   */\n      iszero\n      tag_256\n      jumpi\n        /* \"#utility.yul\":890:891   */\n      0x00\n        /* \"#utility.yul\":887:888   */\n      dup1\n        /* \"#utility.yul\":880:892   */\n      revert\n        /* \"#utility.yul\":842:894   */\n    tag_256:\n        /* \"#utility.yul\":913:942   */\n      tag_257\n        /* \"#utility.yul\":932:941   */\n      dup4\n        /* \"#utility.yul\":913:942   */\n      tag_247\n      jump\t// in\n    tag_257:\n        /* \"#utility.yul\":903:942   */\n      swap5\n        /* \"#utility.yul\":989:991   */\n      0x20\n        /* \"#utility.yul\":974:992   */\n      swap4\n      swap1\n      swap4\n      add\n        /* \"#utility.yul\":961:993   */\n      calldataload\n      swap4\n      pop\n      pop\n      pop\n        /* \"#utility.yul\":745:999   */\n      jump\t// out\n        /* \"#utility.yul\":1378:1564   */\n    tag_44:\n        /* \"#utility.yul\":1437:1443   */\n      0x00\n        /* \"#utility.yul\":1490:1492   */\n      0x20\n        /* \"#utility.yul\":1478:1487   */\n      dup3\n        /* \"#utility.yul\":1469:1476   */\n      dup5\n        /* \"#utility.yul\":1465:1488   */\n      sub\n        /* \"#utility.yul\":1461:1493   */\n      slt\n        /* \"#utility.yul\":1458:1510   */\n      iszero\n      tag_261\n      jumpi\n        /* \"#utility.yul\":1506:1507   */\n      0x00\n        /* \"#utility.yul\":1503:1504   */\n      dup1\n        /* \"#utility.yul\":1496:1508   */\n      revert\n        /* \"#utility.yul\":1458:1510   */\n    tag_261:\n        /* \"#utility.yul\":1529:1558   */\n      tag_262\n        /* \"#utility.yul\":1548:1557   */\n      dup3\n        /* \"#utility.yul\":1529:1558   */\n      tag_247\n      jump\t// in\n    tag_262:\n        /* \"#utility.yul\":1519:1558   */\n      swap4\n        /* \"#utility.yul\":1378:1564   */\n      swap3\n      pop\n      pop\n      pop\n      jump\t// out\n        /* \"#utility.yul\":1569:1897   */\n    tag_52:\n        /* \"#utility.yul\":1646:1652   */\n      0x00\n        /* \"#utility.yul\":1654:1660   */\n      dup1\n        /* \"#utility.yul\":1662:1668   */\n      0x00\n        /* \"#utility.yul\":1715:1717   */\n      0x60\n        /* \"#utility.yul\":1703:1712   */\n      dup5\n        /* \"#utility.yul\":1694:1701   */\n      dup7\n        /* \"#utility.yul\":1690:1713   */\n      sub\n        /* \"#utility.yul\":1686:1718   */\n      slt\n        /* \"#utility.yul\":1683:1735   */\n      iszero\n      tag_264\n      jumpi\n        /* \"#utility.yul\":1731:1732   */\n      0x00\n        /* \"#utility.yul\":1728:1729   */\n      dup1\n        /* \"#utility.yul\":1721:1733   */\n      revert\n        /* \"#utility.yul\":1683:1735   */\n    tag_264:\n        /* \"#utility.yul\":1754:1783   */\n      tag_265\n        /* \"#utility.yul\":1773:1782   */\n      dup5\n        /* \"#utility.yul\":1754:1783   */\n      tag_247\n      jump\t// in\n    tag_265:\n        /* \"#utility.yul\":1744:1783   */\n      swap3\n      pop\n        /* \"#utility.yul\":1802:1840   */\n      tag_266\n        /* \"#utility.yul\":1836:1838   */\n      0x20\n        /* \"#utility.yul\":1825:1834   */\n      dup6\n        /* \"#utility.yul\":1821:1839   */\n      add\n        /* \"#utility.yul\":1802:1840   */\n      tag_247\n      jump\t// in\n    tag_266:\n        /* \"#utility.yul\":1792:1840   */\n      swap2\n      pop\n        /* \"#utility.yul\":1887:1889   */\n      0x40\n        /* \"#utility.yul\":1876:1885   */\n      dup5\n        /* \"#utility.yul\":1872:1890   */\n      add\n        /* \"#utility.yul\":1859:1891   */\n      calldataload\n        /* \"#utility.yul\":1849:1891   */\n      swap1\n      pop\n        /* \"#utility.yul\":1569:1897   */\n      swap3\n      pop\n      swap3\n      pop\n      swap3\n      jump\t// out\n        /* \"#utility.yul\":2299:2559   */\n    tag_106:\n        /* \"#utility.yul\":2367:2373   */\n      0x00\n        /* \"#utility.yul\":2375:2381   */\n      dup1\n        /* \"#utility.yul\":2428:2430   */\n      0x40\n        /* \"#utility.yul\":2416:2425   */\n      dup4\n        /* \"#utility.yul\":2407:2414   */\n      dup6\n        /* \"#utility.yul\":2403:2426   */\n      sub\n        /* \"#utility.yul\":2399:2431   */\n      slt\n        /* \"#utility.yul\":2396:2448   */\n      iszero\n      tag_270\n      jumpi\n        /* \"#utility.yul\":2444:2445   */\n      0x00\n        /* \"#utility.yul\":2441:2442   */\n      dup1\n        /* \"#utility.yul\":2434:2446   */\n      revert\n        /* \"#utility.yul\":2396:2448   */\n    tag_270:\n        /* \"#utility.yul\":2467:2496   */\n      tag_271\n        /* \"#utility.yul\":2486:2495   */\n      dup4\n        /* \"#utility.yul\":2467:2496   */\n      tag_247\n      jump\t// in\n    tag_271:\n        /* \"#utility.yul\":2457:2496   */\n      swap2\n      pop\n        /* \"#utility.yul\":2515:2553   */\n      tag_272\n        /* \"#utility.yul\":2549:2551   */\n      0x20\n        /* \"#utility.yul\":2538:2547   */\n      dup5\n        /* \"#utility.yul\":2534:2552   */\n      add\n        /* \"#utility.yul\":2515:2553   */\n      tag_247\n      jump\t// in\n    tag_272:\n        /* \"#utility.yul\":2505:2553   */\n      swap1\n      pop\n        /* \"#utility.yul\":2299:2559   */\n      swap3\n      pop\n      swap3\n      swap1\n      pop\n      jump\t// out\n        /* \"#utility.yul\":2564:2944   */\n    tag_118:\n        /* \"#utility.yul\":2643:2644   */\n      0x01\n        /* \"#utility.yul\":2639:2651   */\n      dup2\n      dup2\n      shr\n      swap1\n        /* \"#utility.yul\":2686:2698   */\n      dup3\n      and\n      dup1\n        /* \"#utility.yul\":2707:2768   */\n      tag_274\n      jumpi\n        /* \"#utility.yul\":2761:2765   */\n      0x7f\n        /* \"#utility.yul\":2753:2759   */\n      dup3\n        /* \"#utility.yul\":2749:2766   */\n      and\n        /* \"#utility.yul\":2739:2766   */\n      swap2\n      pop\n        /* \"#utility.yul\":2707:2768   */\n    tag_274:\n        /* \"#utility.yul\":2814:2816   */\n      0x20\n        /* \"#utility.yul\":2806:2812   */\n      dup3\n        /* \"#utility.yul\":2803:2817   */\n      lt\n        /* \"#utility.yul\":2783:2801   */\n      dup2\n        /* \"#utility.yul\":2780:2818   */\n      sub\n        /* \"#utility.yul\":2777:2938   */\n      tag_275\n      jumpi\n        /* \"#utility.yul\":2860:2870   */\n      0x4e487b71\n        /* \"#utility.yul\":2855:2858   */\n      0xe0\n        /* \"#utility.yul\":2851:2871   */\n      shl\n        /* \"#utility.yul\":2848:2849   */\n      0x00\n        /* \"#utility.yul\":2841:2872   */\n      mstore\n        /* \"#utility.yul\":2895:2899   */\n      0x22\n        /* \"#utility.yul\":2892:2893   */\n      0x04\n        /* \"#utility.yul\":2885:2900   */\n      mstore\n        /* \"#utility.yul\":2923:2927   */\n      0x24\n        /* \"#utility.yul\":2920:2921   */\n      0x00\n        /* \"#utility.yul\":2913:2928   */\n      revert\n        /* \"#utility.yul\":2777:2938   */\n    tag_275:\n      pop\n        /* \"#utility.yul\":2564:2944   */\n      swap2\n      swap1\n      pop\n      jump\t// out\n        /* \"#utility.yul\":2949:3304   */\n    tag_126:\n        /* \"#utility.yul\":3151:3153   */\n      0x20\n        /* \"#utility.yul\":3133:3154   */\n      dup1\n      dup3\n      mstore\n        /* \"#utility.yul\":3190:3192   */\n      0x1f\n        /* \"#utility.yul\":3170:3188   */\n      swap1\n      dup3\n      add\n        /* \"#utility.yul\":3163:3193   */\n      mstore\n        /* \"#utility.yul\":3229:3262   */\n      0x436f6e74726163742069732050417573656420427920746865204f776e657200\n        /* \"#utility.yul\":3224:3226   */\n      0x40\n        /* \"#utility.yul\":3209:3227   */\n      dup3\n      add\n        /* \"#utility.yul\":3202:3263   */\n      mstore\n        /* \"#utility.yul\":3295:3297   */\n      0x60\n        /* \"#utility.yul\":3280:3298   */\n      add\n      swap1\n        /* \"#utility.yul\":2949:3304   */\n      jump\t// out\n        /* \"#utility.yul\":3309:3652   */\n    tag_131:\n        /* \"#utility.yul\":3511:3513   */\n      0x20\n        /* \"#utility.yul\":3493:3514   */\n      dup1\n      dup3\n      mstore\n        /* \"#utility.yul\":3550:3552   */\n      0x13\n        /* \"#utility.yul\":3530:3548   */\n      swap1\n      dup3\n      add\n        /* \"#utility.yul\":3523:3553   */\n      mstore\n      shl(0x6d, 0x020b2323932b9b99034b990333932b2bd32b21)\n        /* \"#utility.yul\":3584:3586   */\n      0x40\n        /* \"#utility.yul\":3569:3587   */\n      dup3\n      add\n        /* \"#utility.yul\":3562:3611   */\n      mstore\n        /* \"#utility.yul\":3643:3645   */\n      0x60\n        /* \"#utility.yul\":3628:3646   */\n      add\n      swap1\n        /* \"#utility.yul\":3309:3652   */\n      jump\t// out\n        /* \"#utility.yul\":3657:4004   */\n    tag_140:\n        /* \"#utility.yul\":3859:3861   */\n      0x20\n        /* \"#utility.yul\":3841:3862   */\n      dup1\n      dup3\n      mstore\n        /* \"#utility.yul\":3898:3900   */\n      0x17\n        /* \"#utility.yul\":3878:3896   */\n      swap1\n      dup3\n      add\n        /* \"#utility.yul\":3871:3901   */\n      mstore\n        /* \"#utility.yul\":3937:3962   */\n      0x4f6e6c79204f776e657220636f6e206163746976617465000000000000000000\n        /* \"#utility.yul\":3932:3934   */\n      0x40\n        /* \"#utility.yul\":3917:3935   */\n      dup3\n      add\n        /* \"#utility.yul\":3910:3963   */\n      mstore\n        /* \"#utility.yul\":3995:3997   */\n      0x60\n        /* \"#utility.yul\":3980:3998   */\n      add\n      swap1\n        /* \"#utility.yul\":3657:4004   */\n      jump\t// out\n        /* \"#utility.yul\":4009:4422   */\n    tag_157:\n        /* \"#utility.yul\":4211:4213   */\n      0x20\n        /* \"#utility.yul\":4193:4214   */\n      dup1\n      dup3\n      mstore\n        /* \"#utility.yul\":4250:4252   */\n      0x31\n        /* \"#utility.yul\":4230:4248   */\n      swap1\n      dup3\n      add\n        /* \"#utility.yul\":4223:4253   */\n      mstore\n        /* \"#utility.yul\":4289:4323   */\n      0x5472616e666572206973206e6f7420616c6c6f77656420746f2075736572206f\n        /* \"#utility.yul\":4284:4286   */\n      0x40\n        /* \"#utility.yul\":4269:4287   */\n      dup3\n      add\n        /* \"#utility.yul\":4262:4324   */\n      mstore\n      shl(0x7a, 0x1b9b1e4813dddb995c8818d85b881cd95d)\n        /* \"#utility.yul\":4355:4357   */\n      0x60\n        /* \"#utility.yul\":4340:4358   */\n      dup3\n      add\n        /* \"#utility.yul\":4333:4380   */\n      mstore\n        /* \"#utility.yul\":4412:4415   */\n      0x80\n        /* \"#utility.yul\":4397:4416   */\n      add\n      swap1\n        /* \"#utility.yul\":4009:4422   */\n      jump\t// out\n        /* \"#utility.yul\":4427:4649   */\n    tag_174:\n        /* \"#utility.yul\":4492:4501   */\n      dup1\n      dup3\n      add\n        /* \"#utility.yul\":4513:4523   */\n      dup1\n      dup3\n      gt\n        /* \"#utility.yul\":4510:4643   */\n      iszero\n      tag_132\n      jumpi\n        /* \"#utility.yul\":4565:4575   */\n      0x4e487b71\n        /* \"#utility.yul\":4560:4563   */\n      0xe0\n        /* \"#utility.yul\":4556:4576   */\n      shl\n        /* \"#utility.yul\":4553:4554   */\n      0x00\n        /* \"#utility.yul\":4546:4577   */\n      mstore\n        /* \"#utility.yul\":4600:4604   */\n      0x11\n        /* \"#utility.yul\":4597:4598   */\n      0x04\n        /* \"#utility.yul\":4590:4605   */\n      mstore\n        /* \"#utility.yul\":4628:4632   */\n      0x24\n        /* \"#utility.yul\":4625:4626   */\n      0x00\n        /* \"#utility.yul\":4618:4633   */\n      revert\n\n    auxdata: 0xa264697066735822122047bb95ecfbd8e9f7b91f115dbc8e33c4d6c4b77b4202a500d4827bfd3a286eee64736f6c63430008140033\n}\n",
				"bytecode": {
					"linkReferences": {},
					"object": "608060405234801562000010575f80fd5b506040516200116a3803806200116a833981016040819052620000339162000155565b5f80546001600160a01b031916331790556003829055600162000057858262000268565b50600262000066848262000268565b506004805462ffffff191660ff9092169190911790555050600354335f908152600560205260409020555062000330565b634e487b7160e01b5f52604160045260245ffd5b5f82601f830112620000bb575f80fd5b81516001600160401b0380821115620000d857620000d862000097565b604051601f8301601f19908116603f0116810190828211818310171562000103576200010362000097565b816040528381526020925086838588010111156200011f575f80fd5b5f91505b8382101562000142578582018301518183018401529082019062000123565b5f93810190920192909252949350505050565b5f805f806080858703121562000169575f80fd5b84516001600160401b038082111562000180575f80fd5b6200018e88838901620000ab565b95506020870151915080821115620001a4575f80fd5b50620001b387828801620000ab565b93505060408501519150606085015160ff81168114620001d1575f80fd5b939692955090935050565b600181811c90821680620001f157607f821691505b6020821081036200021057634e487b7160e01b5f52602260045260245ffd5b50919050565b601f82111562000263575f81815260208120601f850160051c810160208610156200023e5750805b601f850160051c820191505b818110156200025f578281556001016200024a565b5050505b505050565b81516001600160401b0381111562000284576200028462000097565b6200029c81620002958454620001dc565b8462000216565b602080601f831160018114620002d2575f8415620002ba5750858301515b5f19600386901b1c1916600185901b1785556200025f565b5f85815260208120601f198616915b828110156200030257888601518255948401946001909101908401620002e1565b50858210156200032057878501515f19600388901b60f8161c191681555b5050505050600190811b01905550565b610e2c806200033e5f395ff3fe608060405234801561000f575f80fd5b506004361061013d575f3560e01c80637c77db72116100b4578063b187bd2611610079578063b187bd261461029c578063b8f309c7146102ac578063d6b70ac0146102d7578063dd62ed3e146102df578063eb1d8152146102f2578063f7b188a514610314575f80fd5b80637c77db72146102395780638111f24e1461025b57806391e2c3151461026e57806395d89b4114610281578063a9059cbb14610289575f80fd5b806323b872dd1161010557806323b872dd146101af578063313ce567146101c257806339509351146101d75780636985a022146101ea5780636ebcf607146101f257806370a0823114610211575f80fd5b806306fdde0314610141578063095ea7b31461015f57806318160ddd146101825780631aa66049146101945780631d4ca8bf146101a7575b5f80fd5b61014961031c565b6040516101569190610ba0565b60405180910390f35b61017261016d366004610c01565b6103ac565b6040519015158152602001610156565b6003545b604051908152602001610156565b6101726101a2366004610c29565b61043e565b610172610494565b6101726101bd366004610c49565b610504565b60045460405160ff9091168152602001610156565b6101726101e5366004610c01565b6105b2565b610172610624565b610186610200366004610c29565b60056020525f908152604090205481565b61018661021f366004610c29565b6001600160a01b03165f9081526005602052604090205490565b610172610247366004610c29565b60076020525f908152604090205460ff1681565b610172610269366004610c29565b610692565b61017261027c366004610c29565b6106af565b6101496106fd565b610172610297366004610c01565b61070c565b600454610100900460ff16610172565b6102bf6102ba366004610c29565b6107a4565b6040516001600160a01b039091168152602001610156565b6101726107f1565b6101866102ed366004610c82565b610858565b610172610300366004610c29565b60066020525f908152604090205460ff1681565b610172610882565b60606001805461032b90610cb3565b80601f016020809104026020016040519081016040528092919081815260200182805461035790610cb3565b80156103a25780601f10610379576101008083540402835291602001916103a2565b820191905f5260205f20905b81548152906001019060200180831161038557829003601f168201915b5050505050905090565b6004545f90610100900460ff16156103df5760405162461bcd60e51b81526004016103d690610ceb565b60405180910390fd5b6103e833610692565b156104055760405162461bcd60e51b81526004016103d690610d22565b600454339062010000900460ff16610425575f546001600160a01b031693505b61043281858560016108e8565b60019150505b92915050565b5f80546001600160a01b031633146104685760405162461bcd60e51b81526004016103d690610d4f565b506001600160a01b0381165f908152600760205260409020805460ff191660019081179091555b919050565b5f80546001600160a01b031633146104be5760405162461bcd60e51b81526004016103d690610d4f565b6004805462ff0000191662010000179055604051600190429033907f01184061675848e328fb316abfd3f046f1cae4fb526dc24d09bdaa92e3921217905f90a450600190565b6004545f90610100900460ff161561052e5760405162461bcd60e51b81526004016103d690610ceb565b61053733610692565b156105545760405162461bcd60e51b81526004016103d690610d22565b5f546001600160a01b0316331480610574575060045462010000900460ff165b6105905760405162461bcd60e51b81526004016103d690610d86565b3361059c8582856109bb565b6105a7858585610a18565b506001949350505050565b6004545f90610100900460ff16156105dc5760405162461bcd60e51b81526004016103d690610ceb565b6105e533610692565b156106025760405162461bcd60e51b81526004016103d690610d22565b336104328185856106138383610858565b61061d9190610dd7565b60016108e8565b5f80546001600160a01b0316331461064e5760405162461bcd60e51b81526004016103d690610d4f565b6004805461ff001916610100179055604051600190429033907fcd52c664c2010b8cb55e5d2ea0ae5add4a5b0460cfafc8af4af80f5bee1032ca905f90a450600190565b6001600160a01b03165f9081526007602052604090205460ff1690565b5f80546001600160a01b031633146106d95760405162461bcd60e51b81526004016103d690610d4f565b506001600160a01b03165f908152600760205260409020805460ff19169055600190565b60606002805461032b90610cb3565b6004545f90610100900460ff16156107365760405162461bcd60e51b81526004016103d690610ceb565b61073f33610692565b1561075c5760405162461bcd60e51b81526004016103d690610d22565b5f546001600160a01b031633148061077c575060045462010000900460ff165b6107985760405162461bcd60e51b81526004016103d690610d86565b33610432818585610a7a565b5f80546001600160a01b031633146107ce5760405162461bcd60e51b81526004016103d690610d4f565b5f80546001600160a01b0319166001600160a01b03939093169290921790915590565b5f80546001600160a01b0316331461081b5760405162461bcd60e51b81526004016103d690610d4f565b6004805462ff0000191690556040515f90429033907f01184061675848e328fb316abfd3f046f1cae4fb526dc24d09bdaa92e3921217908490a490565b6001600160a01b039182165f90815260086020908152604080832093909416825291909152205490565b5f80546001600160a01b031633146108ac5760405162461bcd60e51b81526004016103d690610d4f565b6004805461ff00191690556040515f90429033907fcd52c664c2010b8cb55e5d2ea0ae5add4a5b0460cfafc8af4af80f5bee1032ca908490a490565b6001600160a01b0384166109115760405163e602df0560e01b81525f60048201526024016103d6565b6001600160a01b03831661093a57604051634a1406b160e11b81525f60048201526024016103d6565b6001600160a01b038085165f90815260086020908152604080832093871683529290522082905580156109b557826001600160a01b0316846001600160a01b03167f8c5be1e5ebec7d5bd14f71427d1e84f3dd0314c0f7b2291e5b200ac8c7c3b925846040516109ac91815260200190565b60405180910390a35b50505050565b5f6109c68484610858565b90505f1981146109b55781811015610a0a57604051637dc7a0d960e11b81526001600160a01b038416600482015260248101829052604481018390526064016103d6565b6109b584848484035f6108e8565b6001600160a01b038316610a4157604051634b637e8f60e11b81525f60048201526024016103d6565b6001600160a01b038216610a6a5760405163ec442f0560e01b81525f60048201526024016103d6565b610a75838383610a7a565b505050565b6001600160a01b038316610aa4578060035f828254610a999190610dd7565b90915550610b149050565b6001600160a01b0383165f9081526005602052604090205481811015610af65760405163391434e360e21b81526001600160a01b038516600482015260248101829052604481018390526064016103d6565b6001600160a01b0384165f9081526005602052604090209082900390555b6001600160a01b038216610b3057600380548290039055610b4e565b6001600160a01b0382165f9081526005602052604090208054820190555b816001600160a01b0316836001600160a01b03167fddf252ad1be2c89b69c2b068fc378daa952ba7f163c4a11628f55a4df523b3ef83604051610b9391815260200190565b60405180910390a3505050565b5f6020808352835180828501525f5b81811015610bcb57858101830151858201604001528201610baf565b505f604082860101526040601f19601f8301168501019250505092915050565b80356001600160a01b038116811461048f575f80fd5b5f8060408385031215610c12575f80fd5b610c1b83610beb565b946020939093013593505050565b5f60208284031215610c39575f80fd5b610c4282610beb565b9392505050565b5f805f60608486031215610c5b575f80fd5b610c6484610beb565b9250610c7260208501610beb565b9150604084013590509250925092565b5f8060408385031215610c93575f80fd5b610c9c83610beb565b9150610caa60208401610beb565b90509250929050565b600181811c90821680610cc757607f821691505b602082108103610ce557634e487b7160e01b5f52602260045260245ffd5b50919050565b6020808252601f908201527f436f6e74726163742069732050417573656420427920746865204f776e657200604082015260600190565b602080825260139082015272020b2323932b9b99034b990333932b2bd32b21606d1b604082015260600190565b60208082526017908201527f4f6e6c79204f776e657220636f6e206163746976617465000000000000000000604082015260600190565b60208082526031908201527f5472616e666572206973206e6f7420616c6c6f77656420746f2075736572206f6040820152701b9b1e4813dddb995c8818d85b881cd95d607a1b606082015260800190565b8082018082111561043857634e487b7160e01b5f52601160045260245ffdfea264697066735822122047bb95ecfbd8e9f7b91f115dbc8e33c4d6c4b77b4202a500d4827bfd3a286eee64736f6c63430008140033",
					"opcodes": "PUSH1 0x80 PUSH1 0x40 MSTORE CALLVALUE DUP1 ISZERO PUSH3 0x10 JUMPI PUSH0 DUP1 REVERT JUMPDEST POP PUSH1 0x40 MLOAD PUSH3 0x116A CODESIZE SUB DUP1 PUSH3 0x116A DUP4 CODECOPY DUP2 ADD PUSH1 0x40 DUP2 SWAP1 MSTORE PUSH3 0x33 SWAP2 PUSH3 0x155 JUMP JUMPDEST PUSH0 DUP1 SLOAD PUSH1 0x1 PUSH1 0x1 PUSH1 0xA0 SHL SUB NOT AND CALLER OR SWAP1 SSTORE PUSH1 0x3 DUP3 SWAP1 SSTORE PUSH1 0x1 PUSH3 0x57 DUP6 DUP3 PUSH3 0x268 JUMP JUMPDEST POP PUSH1 0x2 PUSH3 0x66 DUP5 DUP3 PUSH3 0x268 JUMP JUMPDEST POP PUSH1 0x4 DUP1 SLOAD PUSH3 0xFFFFFF NOT AND PUSH1 0xFF SWAP1 SWAP3 AND SWAP2 SWAP1 SWAP2 OR SWAP1 SSTORE POP POP PUSH1 0x3 SLOAD CALLER PUSH0 SWAP1 DUP2 MSTORE PUSH1 0x5 PUSH1 0x20 MSTORE PUSH1 0x40 SWAP1 KECCAK256 SSTORE POP PUSH3 0x330 JUMP JUMPDEST PUSH4 0x4E487B71 PUSH1 0xE0 SHL PUSH0 MSTORE PUSH1 0x41 PUSH1 0x4 MSTORE PUSH1 0x24 PUSH0 REVERT JUMPDEST PUSH0 DUP3 PUSH1 0x1F DUP4 ADD SLT PUSH3 0xBB JUMPI PUSH0 DUP1 REVERT JUMPDEST DUP2 MLOAD PUSH1 0x1 PUSH1 0x1 PUSH1 0x40 SHL SUB DUP1 DUP3 GT ISZERO PUSH3 0xD8 JUMPI PUSH3 0xD8 PUSH3 0x97 JUMP JUMPDEST PUSH1 0x40 MLOAD PUSH1 0x1F DUP4 ADD PUSH1 0x1F NOT SWAP1 DUP2 AND PUSH1 0x3F ADD AND DUP2 ADD SWAP1 DUP3 DUP3 GT DUP2 DUP4 LT OR ISZERO PUSH3 0x103 JUMPI PUSH3 0x103 PUSH3 0x97 JUMP JUMPDEST DUP2 PUSH1 0x40 MSTORE DUP4 DUP2 MSTORE PUSH1 0x20 SWAP3 POP DUP7 DUP4 DUP6 DUP9 ADD ADD GT ISZERO PUSH3 0x11F JUMPI PUSH0 DUP1 REVERT JUMPDEST PUSH0 SWAP2 POP JUMPDEST DUP4 DUP3 LT ISZERO PUSH3 0x142 JUMPI DUP6 DUP3 ADD DUP4 ADD MLOAD DUP2 DUP4 ADD DUP5 ADD MSTORE SWAP1 DUP3 ADD SWAP1 PUSH3 0x123 JUMP JUMPDEST PUSH0 SWAP4 DUP2 ADD SWAP1 SWAP3 ADD SWAP3 SWAP1 SWAP3 MSTORE SWAP5 SWAP4 POP POP POP POP JUMP JUMPDEST PUSH0 DUP1 PUSH0 DUP1 PUSH1 0x80 DUP6 DUP8 SUB SLT ISZERO PUSH3 0x169 JUMPI PUSH0 DUP1 REVERT JUMPDEST DUP5 MLOAD PUSH1 0x1 PUSH1 0x1 PUSH1 0x40 SHL SUB DUP1 DUP3 GT ISZERO PUSH3 0x180 JUMPI PUSH0 DUP1 REVERT JUMPDEST PUSH3 0x18E DUP9 DUP4 DUP10 ADD PUSH3 0xAB JUMP JUMPDEST SWAP6 POP PUSH1 0x20 DUP8 ADD MLOAD SWAP2 POP DUP1 DUP3 GT ISZERO PUSH3 0x1A4 JUMPI PUSH0 DUP1 REVERT JUMPDEST POP PUSH3 0x1B3 DUP8 DUP3 DUP9 ADD PUSH3 0xAB JUMP JUMPDEST SWAP4 POP POP PUSH1 0x40 DUP6 ADD MLOAD SWAP2 POP PUSH1 0x60 DUP6 ADD MLOAD PUSH1 0xFF DUP2 AND DUP2 EQ PUSH3 0x1D1 JUMPI PUSH0 DUP1 REVERT JUMPDEST SWAP4 SWAP7 SWAP3 SWAP6 POP SWAP1 SWAP4 POP POP JUMP JUMPDEST PUSH1 0x1 DUP2 DUP2 SHR SWAP1 DUP3 AND DUP1 PUSH3 0x1F1 JUMPI PUSH1 0x7F DUP3 AND SWAP2 POP JUMPDEST PUSH1 0x20 DUP3 LT DUP2 SUB PUSH3 0x210 JUMPI PUSH4 0x4E487B71 PUSH1 0xE0 SHL PUSH0 MSTORE PUSH1 0x22 PUSH1 0x4 MSTORE PUSH1 0x24 PUSH0 REVERT JUMPDEST POP SWAP2 SWAP1 POP JUMP JUMPDEST PUSH1 0x1F DUP3 GT ISZERO PUSH3 0x263 JUMPI PUSH0 DUP2 DUP2 MSTORE PUSH1 0x20 DUP2 KECCAK256 PUSH1 0x1F DUP6 ADD PUSH1 0x5 SHR DUP2 ADD PUSH1 0x20 DUP7 LT ISZERO PUSH3 0x23E JUMPI POP DUP1 JUMPDEST PUSH1 0x1F DUP6 ADD PUSH1 0x5 SHR DUP3 ADD SWAP2 POP JUMPDEST DUP2 DUP2 LT ISZERO PUSH3 0x25F JUMPI DUP3 DUP2 SSTORE PUSH1 0x1 ADD PUSH3 0x24A JUMP JUMPDEST POP POP POP JUMPDEST POP POP POP JUMP JUMPDEST DUP2 MLOAD PUSH1 0x1 PUSH1 0x1 PUSH1 0x40 SHL SUB DUP2 GT ISZERO PUSH3 0x284 JUMPI PUSH3 0x284 PUSH3 0x97 JUMP JUMPDEST PUSH3 0x29C DUP2 PUSH3 0x295 DUP5 SLOAD PUSH3 0x1DC JUMP JUMPDEST DUP5 PUSH3 0x216 JUMP JUMPDEST PUSH1 0x20 DUP1 PUSH1 0x1F DUP4 GT PUSH1 0x1 DUP2 EQ PUSH3 0x2D2 JUMPI PUSH0 DUP5 ISZERO PUSH3 0x2BA JUMPI POP DUP6 DUP4 ADD MLOAD JUMPDEST PUSH0 NOT PUSH1 0x3 DUP7 SWAP1 SHL SHR NOT AND PUSH1 0x1 DUP6 SWAP1 SHL OR DUP6 SSTORE PUSH3 0x25F JUMP JUMPDEST PUSH0 DUP6 DUP2 MSTORE PUSH1 0x20 DUP2 KECCAK256 PUSH1 0x1F NOT DUP7 AND SWAP2 JUMPDEST DUP3 DUP2 LT ISZERO PUSH3 0x302 JUMPI DUP9 DUP7 ADD MLOAD DUP3 SSTORE SWAP5 DUP5 ADD SWAP5 PUSH1 0x1 SWAP1 SWAP2 ADD SWAP1 DUP5 ADD PUSH3 0x2E1 JUMP JUMPDEST POP DUP6 DUP3 LT ISZERO PUSH3 0x320 JUMPI DUP8 DUP6 ADD MLOAD PUSH0 NOT PUSH1 0x3 DUP9 SWAP1 SHL PUSH1 0xF8 AND SHR NOT AND DUP2 SSTORE JUMPDEST POP POP POP POP POP PUSH1 0x1 SWAP1 DUP2 SHL ADD SWAP1 SSTORE POP JUMP JUMPDEST PUSH2 0xE2C DUP1 PUSH3 0x33E PUSH0 CODECOPY PUSH0 RETURN INVALID PUSH1 0x80 PUSH1 0x40 MSTORE CALLVALUE DUP1 ISZERO PUSH2 0xF JUMPI PUSH0 DUP1 REVERT JUMPDEST POP PUSH1 0x4 CALLDATASIZE LT PUSH2 0x13D JUMPI PUSH0 CALLDATALOAD PUSH1 0xE0 SHR DUP1 PUSH4 0x7C77DB72 GT PUSH2 0xB4 JUMPI DUP1 PUSH4 0xB187BD26 GT PUSH2 0x79 JUMPI DUP1 PUSH4 0xB187BD26 EQ PUSH2 0x29C JUMPI DUP1 PUSH4 0xB8F309C7 EQ PUSH2 0x2AC JUMPI DUP1 PUSH4 0xD6B70AC0 EQ PUSH2 0x2D7 JUMPI DUP1 PUSH4 0xDD62ED3E EQ PUSH2 0x2DF JUMPI DUP1 PUSH4 0xEB1D8152 EQ PUSH2 0x2F2 JUMPI DUP1 PUSH4 0xF7B188A5 EQ PUSH2 0x314 JUMPI PUSH0 DUP1 REVERT JUMPDEST DUP1 PUSH4 0x7C77DB72 EQ PUSH2 0x239 JUMPI DUP1 PUSH4 0x8111F24E EQ PUSH2 0x25B JUMPI DUP1 PUSH4 0x91E2C315 EQ PUSH2 0x26E JUMPI DUP1 PUSH4 0x95D89B41 EQ PUSH2 0x281 JUMPI DUP1 PUSH4 0xA9059CBB EQ PUSH2 0x289 JUMPI PUSH0 DUP1 REVERT JUMPDEST DUP1 PUSH4 0x23B872DD GT PUSH2 0x105 JUMPI DUP1 PUSH4 0x23B872DD EQ PUSH2 0x1AF JUMPI DUP1 PUSH4 0x313CE567 EQ PUSH2 0x1C2 JUMPI DUP1 PUSH4 0x39509351 EQ PUSH2 0x1D7 JUMPI DUP1 PUSH4 0x6985A022 EQ PUSH2 0x1EA JUMPI DUP1 PUSH4 0x6EBCF607 EQ PUSH2 0x1F2 JUMPI DUP1 PUSH4 0x70A08231 EQ PUSH2 0x211 JUMPI PUSH0 DUP1 REVERT JUMPDEST DUP1 PUSH4 0x6FDDE03 EQ PUSH2 0x141 JUMPI DUP1 PUSH4 0x95EA7B3 EQ PUSH2 0x15F JUMPI DUP1 PUSH4 0x18160DDD EQ PUSH2 0x182 JUMPI DUP1 PUSH4 0x1AA66049 EQ PUSH2 0x194 JUMPI DUP1 PUSH4 0x1D4CA8BF EQ PUSH2 0x1A7 JUMPI JUMPDEST PUSH0 DUP1 REVERT JUMPDEST PUSH2 0x149 PUSH2 0x31C JUMP JUMPDEST PUSH1 0x40 MLOAD PUSH2 0x156 SWAP2 SWAP1 PUSH2 0xBA0 JUMP JUMPDEST PUSH1 0x40 MLOAD DUP1 SWAP2 SUB SWAP1 RETURN JUMPDEST PUSH2 0x172 PUSH2 0x16D CALLDATASIZE PUSH1 0x4 PUSH2 0xC01 JUMP JUMPDEST PUSH2 0x3AC JUMP JUMPDEST PUSH1 0x40 MLOAD SWAP1 ISZERO ISZERO DUP2 MSTORE PUSH1 0x20 ADD PUSH2 0x156 JUMP JUMPDEST PUSH1 0x3 SLOAD JUMPDEST PUSH1 0x40 MLOAD SWAP1 DUP2 MSTORE PUSH1 0x20 ADD PUSH2 0x156 JUMP JUMPDEST PUSH2 0x172 PUSH2 0x1A2 CALLDATASIZE PUSH1 0x4 PUSH2 0xC29 JUMP JUMPDEST PUSH2 0x43E JUMP JUMPDEST PUSH2 0x172 PUSH2 0x494 JUMP JUMPDEST PUSH2 0x172 PUSH2 0x1BD CALLDATASIZE PUSH1 0x4 PUSH2 0xC49 JUMP JUMPDEST PUSH2 0x504 JUMP JUMPDEST PUSH1 0x4 SLOAD PUSH1 0x40 MLOAD PUSH1 0xFF SWAP1 SWAP2 AND DUP2 MSTORE PUSH1 0x20 ADD PUSH2 0x156 JUMP JUMPDEST PUSH2 0x172 PUSH2 0x1E5 CALLDATASIZE PUSH1 0x4 PUSH2 0xC01 JUMP JUMPDEST PUSH2 0x5B2 JUMP JUMPDEST PUSH2 0x172 PUSH2 0x624 JUMP JUMPDEST PUSH2 0x186 PUSH2 0x200 CALLDATASIZE PUSH1 0x4 PUSH2 0xC29 JUMP JUMPDEST PUSH1 0x5 PUSH1 0x20 MSTORE PUSH0 SWAP1 DUP2 MSTORE PUSH1 0x40 SWAP1 KECCAK256 SLOAD DUP2 JUMP JUMPDEST PUSH2 0x186 PUSH2 0x21F CALLDATASIZE PUSH1 0x4 PUSH2 0xC29 JUMP JUMPDEST PUSH1 0x1 PUSH1 0x1 PUSH1 0xA0 SHL SUB AND PUSH0 SWAP1 DUP2 MSTORE PUSH1 0x5 PUSH1 0x20 MSTORE PUSH1 0x40 SWAP1 KECCAK256 SLOAD SWAP1 JUMP JUMPDEST PUSH2 0x172 PUSH2 0x247 CALLDATASIZE PUSH1 0x4 PUSH2 0xC29 JUMP JUMPDEST PUSH1 0x7 PUSH1 0x20 MSTORE PUSH0 SWAP1 DUP2 MSTORE PUSH1 0x40 SWAP1 KECCAK256 SLOAD PUSH1 0xFF AND DUP2 JUMP JUMPDEST PUSH2 0x172 PUSH2 0x269 CALLDATASIZE PUSH1 0x4 PUSH2 0xC29 JUMP JUMPDEST PUSH2 0x692 JUMP JUMPDEST PUSH2 0x172 PUSH2 0x27C CALLDATASIZE PUSH1 0x4 PUSH2 0xC29 JUMP JUMPDEST PUSH2 0x6AF JUMP JUMPDEST PUSH2 0x149 PUSH2 0x6FD JUMP JUMPDEST PUSH2 0x172 PUSH2 0x297 CALLDATASIZE PUSH1 0x4 PUSH2 0xC01 JUMP JUMPDEST PUSH2 0x70C JUMP JUMPDEST PUSH1 0x4 SLOAD PUSH2 0x100 SWAP1 DIV PUSH1 0xFF AND PUSH2 0x172 JUMP JUMPDEST PUSH2 0x2BF PUSH2 0x2BA CALLDATASIZE PUSH1 0x4 PUSH2 0xC29 JUMP JUMPDEST PUSH2 0x7A4 JUMP JUMPDEST PUSH1 0x40 MLOAD PUSH1 0x1 PUSH1 0x1 PUSH1 0xA0 SHL SUB SWAP1 SWAP2 AND DUP2 MSTORE PUSH1 0x20 ADD PUSH2 0x156 JUMP JUMPDEST PUSH2 0x172 PUSH2 0x7F1 JUMP JUMPDEST PUSH2 0x186 PUSH2 0x2ED CALLDATASIZE PUSH1 0x4 PUSH2 0xC82 JUMP JUMPDEST PUSH2 0x858 JUMP JUMPDEST PUSH2 0x172 PUSH2 0x300 CALLDATASIZE PUSH1 0x4 PUSH2 0xC29 JUMP JUMPDEST PUSH1 0x6 PUSH1 0x20 MSTORE PUSH0 SWAP1 DUP2 MSTORE PUSH1 0x40 SWAP1 KECCAK256 SLOAD PUSH1 0xFF AND DUP2 JUMP JUMPDEST PUSH2 0x172 PUSH2 0x882 JUMP JUMPDEST PUSH1 0x60 PUSH1 0x1 DUP1 SLOAD PUSH2 0x32B SWAP1 PUSH2 0xCB3 JUMP JUMPDEST DUP1 PUSH1 0x1F ADD PUSH1 0x20 DUP1 SWAP2 DIV MUL PUSH1 0x20 ADD PUSH1 0x40 MLOAD SWAP1 DUP2 ADD PUSH1 0x40 MSTORE DUP1 SWAP3 SWAP2 SWAP1 DUP2 DUP2 MSTORE PUSH1 0x20 ADD DUP3 DUP1 SLOAD PUSH2 0x357 SWAP1 PUSH2 0xCB3 JUMP JUMPDEST DUP1 ISZERO PUSH2 0x3A2 JUMPI DUP1 PUSH1 0x1F LT PUSH2 0x379 JUMPI PUSH2 0x100 DUP1 DUP4 SLOAD DIV MUL DUP4 MSTORE SWAP2 PUSH1 0x20 ADD SWAP2 PUSH2 0x3A2 JUMP JUMPDEST DUP3 ADD SWAP2 SWAP1 PUSH0 MSTORE PUSH1 0x20 PUSH0 KECCAK256 SWAP1 JUMPDEST DUP2 SLOAD DUP2 MSTORE SWAP1 PUSH1 0x1 ADD SWAP1 PUSH1 0x20 ADD DUP1 DUP4 GT PUSH2 0x385 JUMPI DUP3 SWAP1 SUB PUSH1 0x1F AND DUP3 ADD SWAP2 JUMPDEST POP POP POP POP POP SWAP1 POP SWAP1 JUMP JUMPDEST PUSH1 0x4 SLOAD PUSH0 SWAP1 PUSH2 0x100 SWAP1 DIV PUSH1 0xFF AND ISZERO PUSH2 0x3DF JUMPI PUSH1 0x40 MLOAD PUSH3 0x461BCD PUSH1 0xE5 SHL DUP2 MSTORE PUSH1 0x4 ADD PUSH2 0x3D6 SWAP1 PUSH2 0xCEB JUMP JUMPDEST PUSH1 0x40 MLOAD DUP1 SWAP2 SUB SWAP1 REVERT JUMPDEST PUSH2 0x3E8 CALLER PUSH2 0x692 JUMP JUMPDEST ISZERO PUSH2 0x405 JUMPI PUSH1 0x40 MLOAD PUSH3 0x461BCD PUSH1 0xE5 SHL DUP2 MSTORE PUSH1 0x4 ADD PUSH2 0x3D6 SWAP1 PUSH2 0xD22 JUMP JUMPDEST PUSH1 0x4 SLOAD CALLER SWAP1 PUSH3 0x10000 SWAP1 DIV PUSH1 0xFF AND PUSH2 0x425 JUMPI PUSH0 SLOAD PUSH1 0x1 PUSH1 0x1 PUSH1 0xA0 SHL SUB AND SWAP4 POP JUMPDEST PUSH2 0x432 DUP2 DUP6 DUP6 PUSH1 0x1 PUSH2 0x8E8 JUMP JUMPDEST PUSH1 0x1 SWAP2 POP POP JUMPDEST SWAP3 SWAP2 POP POP JUMP JUMPDEST PUSH0 DUP1 SLOAD PUSH1 0x1 PUSH1 0x1 PUSH1 0xA0 SHL SUB AND CALLER EQ PUSH2 0x468 JUMPI PUSH1 0x40 MLOAD PUSH3 0x461BCD PUSH1 0xE5 SHL DUP2 MSTORE PUSH1 0x4 ADD PUSH2 0x3D6 SWAP1 PUSH2 0xD4F JUMP JUMPDEST POP PUSH1 0x1 PUSH1 0x1 PUSH1 0xA0 SHL SUB DUP2 AND PUSH0 SWAP1 DUP2 MSTORE PUSH1 0x7 PUSH1 0x20 MSTORE PUSH1 0x40 SWAP1 KECCAK256 DUP1 SLOAD PUSH1 0xFF NOT AND PUSH1 0x1 SWAP1 DUP2 OR SWAP1 SWAP2 SSTORE JUMPDEST SWAP2 SWAP1 POP JUMP JUMPDEST PUSH0 DUP1 SLOAD PUSH1 0x1 PUSH1 0x1 PUSH1 0xA0 SHL SUB AND CALLER EQ PUSH2 0x4BE JUMPI PUSH1 0x40 MLOAD PUSH3 0x461BCD PUSH1 0xE5 SHL DUP2 MSTORE PUSH1 0x4 ADD PUSH2 0x3D6 SWAP1 PUSH2 0xD4F JUMP JUMPDEST PUSH1 0x4 DUP1 SLOAD PUSH3 0xFF0000 NOT AND PUSH3 0x10000 OR SWAP1 SSTORE PUSH1 0x40 MLOAD PUSH1 0x1 SWAP1 TIMESTAMP SWAP1 CALLER SWAP1 PUSH32 0x1184061675848E328FB316ABFD3F046F1CAE4FB526DC24D09BDAA92E3921217 SWAP1 PUSH0 SWAP1 LOG4 POP PUSH1 0x1 SWAP1 JUMP JUMPDEST PUSH1 0x4 SLOAD PUSH0 SWAP1 PUSH2 0x100 SWAP1 DIV PUSH1 0xFF AND ISZERO PUSH2 0x52E JUMPI PUSH1 0x40 MLOAD PUSH3 0x461BCD PUSH1 0xE5 SHL DUP2 MSTORE PUSH1 0x4 ADD PUSH2 0x3D6 SWAP1 PUSH2 0xCEB JUMP JUMPDEST PUSH2 0x537 CALLER PUSH2 0x692 JUMP JUMPDEST ISZERO PUSH2 0x554 JUMPI PUSH1 0x40 MLOAD PUSH3 0x461BCD PUSH1 0xE5 SHL DUP2 MSTORE PUSH1 0x4 ADD PUSH2 0x3D6 SWAP1 PUSH2 0xD22 JUMP JUMPDEST PUSH0 SLOAD PUSH1 0x1 PUSH1 0x1 PUSH1 0xA0 SHL SUB AND CALLER EQ DUP1 PUSH2 0x574 JUMPI POP PUSH1 0x4 SLOAD PUSH3 0x10000 SWAP1 DIV PUSH1 0xFF AND JUMPDEST PUSH2 0x590 JUMPI PUSH1 0x40 MLOAD PUSH3 0x461BCD PUSH1 0xE5 SHL DUP2 MSTORE PUSH1 0x4 ADD PUSH2 0x3D6 SWAP1 PUSH2 0xD86 JUMP JUMPDEST CALLER PUSH2 0x59C DUP6 DUP3 DUP6 PUSH2 0x9BB JUMP JUMPDEST PUSH2 0x5A7 DUP6 DUP6 DUP6 PUSH2 0xA18 JUMP JUMPDEST POP PUSH1 0x1 SWAP5 SWAP4 POP POP POP POP JUMP JUMPDEST PUSH1 0x4 SLOAD PUSH0 SWAP1 PUSH2 0x100 SWAP1 DIV PUSH1 0xFF AND ISZERO PUSH2 0x5DC JUMPI PUSH1 0x40 MLOAD PUSH3 0x461BCD PUSH1 0xE5 SHL DUP2 MSTORE PUSH1 0x4 ADD PUSH2 0x3D6 SWAP1 PUSH2 0xCEB JUMP JUMPDEST PUSH2 0x5E5 CALLER PUSH2 0x692 JUMP JUMPDEST ISZERO PUSH2 0x602 JUMPI PUSH1 0x40 MLOAD PUSH3 0x461BCD PUSH1 0xE5 SHL DUP2 MSTORE PUSH1 0x4 ADD PUSH2 0x3D6 SWAP1 PUSH2 0xD22 JUMP JUMPDEST CALLER PUSH2 0x432 DUP2 DUP6 DUP6 PUSH2 0x613 DUP4 DUP4 PUSH2 0x858 JUMP JUMPDEST PUSH2 0x61D SWAP2 SWAP1 PUSH2 0xDD7 JUMP JUMPDEST PUSH1 0x1 PUSH2 0x8E8 JUMP JUMPDEST PUSH0 DUP1 SLOAD PUSH1 0x1 PUSH1 0x1 PUSH1 0xA0 SHL SUB AND CALLER EQ PUSH2 0x64E JUMPI PUSH1 0x40 MLOAD PUSH3 0x461BCD PUSH1 0xE5 SHL DUP2 MSTORE PUSH1 0x4 ADD PUSH2 0x3D6 SWAP1 PUSH2 0xD4F JUMP JUMPDEST PUSH1 0x4 DUP1 SLOAD PUSH2 0xFF00 NOT AND PUSH2 0x100 OR SWAP1 SSTORE PUSH1 0x40 MLOAD PUSH1 0x1 SWAP1 TIMESTAMP SWAP1 CALLER SWAP1 PUSH32 0xCD52C664C2010B8CB55E5D2EA0AE5ADD4A5B0460CFAFC8AF4AF80F5BEE1032CA SWAP1 PUSH0 SWAP1 LOG4 POP PUSH1 0x1 SWAP1 JUMP JUMPDEST PUSH1 0x1 PUSH1 0x1 PUSH1 0xA0 SHL SUB AND PUSH0 SWAP1 DUP2 MSTORE PUSH1 0x7 PUSH1 0x20 MSTORE PUSH1 0x40 SWAP1 KECCAK256 SLOAD PUSH1 0xFF AND SWAP1 JUMP JUMPDEST PUSH0 DUP1 SLOAD PUSH1 0x1 PUSH1 0x1 PUSH1 0xA0 SHL SUB AND CALLER EQ PUSH2 0x6D9 JUMPI PUSH1 0x40 MLOAD PUSH3 0x461BCD PUSH1 0xE5 SHL DUP2 MSTORE PUSH1 0x4 ADD PUSH2 0x3D6 SWAP1 PUSH2 0xD4F JUMP JUMPDEST POP PUSH1 0x1 PUSH1 0x1 PUSH1 0xA0 SHL SUB AND PUSH0 SWAP1 DUP2 MSTORE PUSH1 0x7 PUSH1 0x20 MSTORE PUSH1 0x40 SWAP1 KECCAK256 DUP1 SLOAD PUSH1 0xFF NOT AND SWAP1 SSTORE PUSH1 0x1 SWAP1 JUMP JUMPDEST PUSH1 0x60 PUSH1 0x2 DUP1 SLOAD PUSH2 0x32B SWAP1 PUSH2 0xCB3 JUMP JUMPDEST PUSH1 0x4 SLOAD PUSH0 SWAP1 PUSH2 0x100 SWAP1 DIV PUSH1 0xFF AND ISZERO PUSH2 0x736 JUMPI PUSH1 0x40 MLOAD PUSH3 0x461BCD PUSH1 0xE5 SHL DUP2 MSTORE PUSH1 0x4 ADD PUSH2 0x3D6 SWAP1 PUSH2 0xCEB JUMP JUMPDEST PUSH2 0x73F CALLER PUSH2 0x692 JUMP JUMPDEST ISZERO PUSH2 0x75C JUMPI PUSH1 0x40 MLOAD PUSH3 0x461BCD PUSH1 0xE5 SHL DUP2 MSTORE PUSH1 0x4 ADD PUSH2 0x3D6 SWAP1 PUSH2 0xD22 JUMP JUMPDEST PUSH0 SLOAD PUSH1 0x1 PUSH1 0x1 PUSH1 0xA0 SHL SUB AND CALLER EQ DUP1 PUSH2 0x77C JUMPI POP PUSH1 0x4 SLOAD PUSH3 0x10000 SWAP1 DIV PUSH1 0xFF AND JUMPDEST PUSH2 0x798 JUMPI PUSH1 0x40 MLOAD PUSH3 0x461BCD PUSH1 0xE5 SHL DUP2 MSTORE PUSH1 0x4 ADD PUSH2 0x3D6 SWAP1 PUSH2 0xD86 JUMP JUMPDEST CALLER PUSH2 0x432 DUP2 DUP6 DUP6 PUSH2 0xA7A JUMP JUMPDEST PUSH0 DUP1 SLOAD PUSH1 0x1 PUSH1 0x1 PUSH1 0xA0 SHL SUB AND CALLER EQ PUSH2 0x7CE JUMPI PUSH1 0x40 MLOAD PUSH3 0x461BCD PUSH1 0xE5 SHL DUP2 MSTORE PUSH1 0x4 ADD PUSH2 0x3D6 SWAP1 PUSH2 0xD4F JUMP JUMPDEST PUSH0 DUP1 SLOAD PUSH1 0x1 PUSH1 0x1 PUSH1 0xA0 SHL SUB NOT AND PUSH1 0x1 PUSH1 0x1 PUSH1 0xA0 SHL SUB SWAP4 SWAP1 SWAP4 AND SWAP3 SWAP1 SWAP3 OR SWAP1 SWAP2 SSTORE SWAP1 JUMP JUMPDEST PUSH0 DUP1 SLOAD PUSH1 0x1 PUSH1 0x1 PUSH1 0xA0 SHL SUB AND CALLER EQ PUSH2 0x81B JUMPI PUSH1 0x40 MLOAD PUSH3 0x461BCD PUSH1 0xE5 SHL DUP2 MSTORE PUSH1 0x4 ADD PUSH2 0x3D6 SWAP1 PUSH2 0xD4F JUMP JUMPDEST PUSH1 0x4 DUP1 SLOAD PUSH3 0xFF0000 NOT AND SWAP1 SSTORE PUSH1 0x40 MLOAD PUSH0 SWAP1 TIMESTAMP SWAP1 CALLER SWAP1 PUSH32 0x1184061675848E328FB316ABFD3F046F1CAE4FB526DC24D09BDAA92E3921217 SWAP1 DUP5 SWAP1 LOG4 SWAP1 JUMP JUMPDEST PUSH1 0x1 PUSH1 0x1 PUSH1 0xA0 SHL SUB SWAP2 DUP3 AND PUSH0 SWAP1 DUP2 MSTORE PUSH1 0x8 PUSH1 0x20 SWAP1 DUP2 MSTORE PUSH1 0x40 DUP1 DUP4 KECCAK256 SWAP4 SWAP1 SWAP5 AND DUP3 MSTORE SWAP2 SWAP1 SWAP2 MSTORE KECCAK256 SLOAD SWAP1 JUMP JUMPDEST PUSH0 DUP1 SLOAD PUSH1 0x1 PUSH1 0x1 PUSH1 0xA0 SHL SUB AND CALLER EQ PUSH2 0x8AC JUMPI PUSH1 0x40 MLOAD PUSH3 0x461BCD PUSH1 0xE5 SHL DUP2 MSTORE PUSH1 0x4 ADD PUSH2 0x3D6 SWAP1 PUSH2 0xD4F JUMP JUMPDEST PUSH1 0x4 DUP1 SLOAD PUSH2 0xFF00 NOT AND SWAP1 SSTORE PUSH1 0x40 MLOAD PUSH0 SWAP1 TIMESTAMP SWAP1 CALLER SWAP1 PUSH32 0xCD52C664C2010B8CB55E5D2EA0AE5ADD4A5B0460CFAFC8AF4AF80F5BEE1032CA SWAP1 DUP5 SWAP1 LOG4 SWAP1 JUMP JUMPDEST PUSH1 0x1 PUSH1 0x1 PUSH1 0xA0 SHL SUB DUP5 AND PUSH2 0x911 JUMPI PUSH1 0x40 MLOAD PUSH4 0xE602DF05 PUSH1 0xE0 SHL DUP2 MSTORE PUSH0 PUSH1 0x4 DUP3 ADD MSTORE PUSH1 0x24 ADD PUSH2 0x3D6 JUMP JUMPDEST PUSH1 0x1 PUSH1 0x1 PUSH1 0xA0 SHL SUB DUP4 AND PUSH2 0x93A JUMPI PUSH1 0x40 MLOAD PUSH4 0x4A1406B1 PUSH1 0xE1 SHL DUP2 MSTORE PUSH0 PUSH1 0x4 DUP3 ADD MSTORE PUSH1 0x24 ADD PUSH2 0x3D6 JUMP JUMPDEST PUSH1 0x1 PUSH1 0x1 PUSH1 0xA0 SHL SUB DUP1 DUP6 AND PUSH0 SWAP1 DUP2 MSTORE PUSH1 0x8 PUSH1 0x20 SWAP1 DUP2 MSTORE PUSH1 0x40 DUP1 DUP4 KECCAK256 SWAP4 DUP8 AND DUP4 MSTORE SWAP3 SWAP1 MSTORE KECCAK256 DUP3 SWAP1 SSTORE DUP1 ISZERO PUSH2 0x9B5 JUMPI DUP3 PUSH1 0x1 PUSH1 0x1 PUSH1 0xA0 SHL SUB AND DUP5 PUSH1 0x1 PUSH1 0x1 PUSH1 0xA0 SHL SUB AND PUSH32 0x8C5BE1E5EBEC7D5BD14F71427D1E84F3DD0314C0F7B2291E5B200AC8C7C3B925 DUP5 PUSH1 0x40 MLOAD PUSH2 0x9AC SWAP2 DUP2 MSTORE PUSH1 0x20 ADD SWAP1 JUMP JUMPDEST PUSH1 0x40 MLOAD DUP1 SWAP2 SUB SWAP1 LOG3 JUMPDEST POP POP POP POP JUMP JUMPDEST PUSH0 PUSH2 0x9C6 DUP5 DUP5 PUSH2 0x858 JUMP JUMPDEST SWAP1 POP PUSH0 NOT DUP2 EQ PUSH2 0x9B5 JUMPI DUP2 DUP2 LT ISZERO PUSH2 0xA0A JUMPI PUSH1 0x40 MLOAD PUSH4 0x7DC7A0D9 PUSH1 0xE1 SHL DUP2 MSTORE PUSH1 0x1 PUSH1 0x1 PUSH1 0xA0 SHL SUB DUP5 AND PUSH1 0x4 DUP3 ADD MSTORE PUSH1 0x24 DUP2 ADD DUP3 SWAP1 MSTORE PUSH1 0x44 DUP2 ADD DUP4 SWAP1 MSTORE PUSH1 0x64 ADD PUSH2 0x3D6 JUMP JUMPDEST PUSH2 0x9B5 DUP5 DUP5 DUP5 DUP5 SUB PUSH0 PUSH2 0x8E8 JUMP JUMPDEST PUSH1 0x1 PUSH1 0x1 PUSH1 0xA0 SHL SUB DUP4 AND PUSH2 0xA41 JUMPI PUSH1 0x40 MLOAD PUSH4 0x4B637E8F PUSH1 0xE1 SHL DUP2 MSTORE PUSH0 PUSH1 0x4 DUP3 ADD MSTORE PUSH1 0x24 ADD PUSH2 0x3D6 JUMP JUMPDEST PUSH1 0x1 PUSH1 0x1 PUSH1 0xA0 SHL SUB DUP3 AND PUSH2 0xA6A JUMPI PUSH1 0x40 MLOAD PUSH4 0xEC442F05 PUSH1 0xE0 SHL DUP2 MSTORE PUSH0 PUSH1 0x4 DUP3 ADD MSTORE PUSH1 0x24 ADD PUSH2 0x3D6 JUMP JUMPDEST PUSH2 0xA75 DUP4 DUP4 DUP4 PUSH2 0xA7A JUMP JUMPDEST POP POP POP JUMP JUMPDEST PUSH1 0x1 PUSH1 0x1 PUSH1 0xA0 SHL SUB DUP4 AND PUSH2 0xAA4 JUMPI DUP1 PUSH1 0x3 PUSH0 DUP3 DUP3 SLOAD PUSH2 0xA99 SWAP2 SWAP1 PUSH2 0xDD7 JUMP JUMPDEST SWAP1 SWAP2 SSTORE POP PUSH2 0xB14 SWAP1 POP JUMP JUMPDEST PUSH1 0x1 PUSH1 0x1 PUSH1 0xA0 SHL SUB DUP4 AND PUSH0 SWAP1 DUP2 MSTORE PUSH1 0x5 PUSH1 0x20 MSTORE PUSH1 0x40 SWAP1 KECCAK256 SLOAD DUP2 DUP2 LT ISZERO PUSH2 0xAF6 JUMPI PUSH1 0x40 MLOAD PUSH4 0x391434E3 PUSH1 0xE2 SHL DUP2 MSTORE PUSH1 0x1 PUSH1 0x1 PUSH1 0xA0 SHL SUB DUP6 AND PUSH1 0x4 DUP3 ADD MSTORE PUSH1 0x24 DUP2 ADD DUP3 SWAP1 MSTORE PUSH1 0x44 DUP2 ADD DUP4 SWAP1 MSTORE PUSH1 0x64 ADD PUSH2 0x3D6 JUMP JUMPDEST PUSH1 0x1 PUSH1 0x1 PUSH1 0xA0 SHL SUB DUP5 AND PUSH0 SWAP1 DUP2 MSTORE PUSH1 0x5 PUSH1 0x20 MSTORE PUSH1 0x40 SWAP1 KECCAK256 SWAP1 DUP3 SWAP1 SUB SWAP1 SSTORE JUMPDEST PUSH1 0x1 PUSH1 0x1 PUSH1 0xA0 SHL SUB DUP3 AND PUSH2 0xB30 JUMPI PUSH1 0x3 DUP1 SLOAD DUP3 SWAP1 SUB SWAP1 SSTORE PUSH2 0xB4E JUMP JUMPDEST PUSH1 0x1 PUSH1 0x1 PUSH1 0xA0 SHL SUB DUP3 AND PUSH0 SWAP1 DUP2 MSTORE PUSH1 0x5 PUSH1 0x20 MSTORE PUSH1 0x40 SWAP1 KECCAK256 DUP1 SLOAD DUP3 ADD SWAP1 SSTORE JUMPDEST DUP2 PUSH1 0x1 PUSH1 0x1 PUSH1 0xA0 SHL SUB AND DUP4 PUSH1 0x1 PUSH1 0x1 PUSH1 0xA0 SHL SUB AND PUSH32 0xDDF252AD1BE2C89B69C2B068FC378DAA952BA7F163C4A11628F55A4DF523B3EF DUP4 PUSH1 0x40 MLOAD PUSH2 0xB93 SWAP2 DUP2 MSTORE PUSH1 0x20 ADD SWAP1 JUMP JUMPDEST PUSH1 0x40 MLOAD DUP1 SWAP2 SUB SWAP1 LOG3 POP POP POP JUMP JUMPDEST PUSH0 PUSH1 0x20 DUP1 DUP4 MSTORE DUP4 MLOAD DUP1 DUP3 DUP6 ADD MSTORE PUSH0 JUMPDEST DUP2 DUP2 LT ISZERO PUSH2 0xBCB JUMPI DUP6 DUP2 ADD DUP4 ADD MLOAD DUP6 DUP3 ADD PUSH1 0x40 ADD MSTORE DUP3 ADD PUSH2 0xBAF JUMP JUMPDEST POP PUSH0 PUSH1 0x40 DUP3 DUP7 ADD ADD MSTORE PUSH1 0x40 PUSH1 0x1F NOT PUSH1 0x1F DUP4 ADD AND DUP6 ADD ADD SWAP3 POP POP POP SWAP3 SWAP2 POP POP JUMP JUMPDEST DUP1 CALLDATALOAD PUSH1 0x1 PUSH1 0x1 PUSH1 0xA0 SHL SUB DUP2 AND DUP2 EQ PUSH2 0x48F JUMPI PUSH0 DUP1 REVERT JUMPDEST PUSH0 DUP1 PUSH1 0x40 DUP4 DUP6 SUB SLT ISZERO PUSH2 0xC12 JUMPI PUSH0 DUP1 REVERT JUMPDEST PUSH2 0xC1B DUP4 PUSH2 0xBEB JUMP JUMPDEST SWAP5 PUSH1 0x20 SWAP4 SWAP1 SWAP4 ADD CALLDATALOAD SWAP4 POP POP POP JUMP JUMPDEST PUSH0 PUSH1 0x20 DUP3 DUP5 SUB SLT ISZERO PUSH2 0xC39 JUMPI PUSH0 DUP1 REVERT JUMPDEST PUSH2 0xC42 DUP3 PUSH2 0xBEB JUMP JUMPDEST SWAP4 SWAP3 POP POP POP JUMP JUMPDEST PUSH0 DUP1 PUSH0 PUSH1 0x60 DUP5 DUP7 SUB SLT ISZERO PUSH2 0xC5B JUMPI PUSH0 DUP1 REVERT JUMPDEST PUSH2 0xC64 DUP5 PUSH2 0xBEB JUMP JUMPDEST SWAP3 POP PUSH2 0xC72 PUSH1 0x20 DUP6 ADD PUSH2 0xBEB JUMP JUMPDEST SWAP2 POP PUSH1 0x40 DUP5 ADD CALLDATALOAD SWAP1 POP SWAP3 POP SWAP3 POP SWAP3 JUMP JUMPDEST PUSH0 DUP1 PUSH1 0x40 DUP4 DUP6 SUB SLT ISZERO PUSH2 0xC93 JUMPI PUSH0 DUP1 REVERT JUMPDEST PUSH2 0xC9C DUP4 PUSH2 0xBEB JUMP JUMPDEST SWAP2 POP PUSH2 0xCAA PUSH1 0x20 DUP5 ADD PUSH2 0xBEB JUMP JUMPDEST SWAP1 POP SWAP3 POP SWAP3 SWAP1 POP JUMP JUMPDEST PUSH1 0x1 DUP2 DUP2 SHR SWAP1 DUP3 AND DUP1 PUSH2 0xCC7 JUMPI PUSH1 0x7F DUP3 AND SWAP2 POP JUMPDEST PUSH1 0x20 DUP3 LT DUP2 SUB PUSH2 0xCE5 JUMPI PUSH4 0x4E487B71 PUSH1 0xE0 SHL PUSH0 MSTORE PUSH1 0x22 PUSH1 0x4 MSTORE PUSH1 0x24 PUSH0 REVERT JUMPDEST POP SWAP2 SWAP1 POP JUMP JUMPDEST PUSH1 0x20 DUP1 DUP3 MSTORE PUSH1 0x1F SWAP1 DUP3 ADD MSTORE PUSH32 0x436F6E74726163742069732050417573656420427920746865204F776E657200 PUSH1 0x40 DUP3 ADD MSTORE PUSH1 0x60 ADD SWAP1 JUMP JUMPDEST PUSH1 0x20 DUP1 DUP3 MSTORE PUSH1 0x13 SWAP1 DUP3 ADD MSTORE PUSH19 0x20B2323932B9B99034B990333932B2BD32B21 PUSH1 0x6D SHL PUSH1 0x40 DUP3 ADD MSTORE PUSH1 0x60 ADD SWAP1 JUMP JUMPDEST PUSH1 0x20 DUP1 DUP3 MSTORE PUSH1 0x17 SWAP1 DUP3 ADD MSTORE PUSH32 0x4F6E6C79204F776E657220636F6E206163746976617465000000000000000000 PUSH1 0x40 DUP3 ADD MSTORE PUSH1 0x60 ADD SWAP1 JUMP JUMPDEST PUSH1 0x20 DUP1 DUP3 MSTORE PUSH1 0x31 SWAP1 DUP3 ADD MSTORE PUSH32 0x5472616E666572206973206E6F7420616C6C6F77656420746F2075736572206F PUSH1 0x40 DUP3 ADD MSTORE PUSH17 0x1B9B1E4813DDDB995C8818D85B881CD95D PUSH1 0x7A SHL PUSH1 0x60 DUP3 ADD MSTORE PUSH1 0x80 ADD SWAP1 JUMP JUMPDEST DUP1 DUP3 ADD DUP1 DUP3 GT ISZERO PUSH2 0x438 JUMPI PUSH4 0x4E487B71 PUSH1 0xE0 SHL PUSH0 MSTORE PUSH1 0x11 PUSH1 0x4 MSTORE PUSH1 0x24 PUSH0 REVERT INVALID LOG2 PUSH5 0x6970667358 0x22 SLT KECCAK256 SELFBALANCE 0xBB SWAP6 0xEC 0xFB 0xD8 0xE9 0xF7 0xB9 0x1F GT 0x5D 0xBC DUP15 CALLER 0xC4 0xD6 0xC4 0xB7 PUSH28 0x4202A500D4827BFD3A286EEE64736F6C634300081400330000000000 "
				},
				"gasEstimates": {
					"creation": {
						"codeDepositCost": "725600",
						"executionCost": "infinite",
						"totalCost": "infinite"
					},
					"external": {
						"FreezeAddress(address)": "infinite",
						"Pause()": "28577",
						"TranferOwner(address)": "26838",
						"UnFreezeAddress(address)": "26881",
						"_balances(address)": "2627",
						"_freeze(address)": "2551",
						"_holders(address)": "2638",
						"allowance(address,address)": "infinite",
						"approve(address,uint256)": "33360",
						"balanceOf(address)": "2667",
						"decimals()": "2333",
						"freeTranfer()": "28600",
						"increaseAllowance(address,uint256)": "infinite",
						"isFreezed(address)": "2603",
						"isPaused()": "2336",
						"name()": "infinite",
						"symbol()": "infinite",
						"totalSupply()": "2348",
						"transfer(address,uint256)": "59865",
						"transferFrom(address,address,uint256)": "infinite",
						"unFreeTransfer()": "28543",
						"unPause()": "28609"
					},
					"internal": {
						"_approve(address,address,uint256,bool)": "infinite",
						"_spendAllowance(address,address,uint256)": "infinite",
						"_transfer(address,address,uint256)": "infinite",
						"_update(address,address,uint256)": "infinite",
						"isFreeTranfer()": "infinite"
					}
				},
				"methodIdentifiers": {
					"FreezeAddress(address)": "1aa66049",
					"Pause()": "6985a022",
					"TranferOwner(address)": "b8f309c7",
					"UnFreezeAddress(address)": "91e2c315",
					"_balances(address)": "6ebcf607",
					"_freeze(address)": "7c77db72",
					"_holders(address)": "eb1d8152",
					"allowance(address,address)": "dd62ed3e",
					"approve(address,uint256)": "095ea7b3",
					"balanceOf(address)": "70a08231",
					"decimals()": "313ce567",
					"freeTranfer()": "1d4ca8bf",
					"increaseAllowance(address,uint256)": "39509351",
					"isFreezed(address)": "8111f24e",
					"isPaused()": "b187bd26",
					"name()": "06fdde03",
					"symbol()": "95d89b41",
					"totalSupply()": "18160ddd",
					"transfer(address,uint256)": "a9059cbb",
					"transferFrom(address,address,uint256)": "23b872dd",
					"unFreeTransfer()": "d6b70ac0",
					"unPause()": "f7b188a5"
				}
			},
			"storageLayout": {
				"storage": [
					{
						"astId": 121,
						"contract": "TokenSGTX/contracts/SGTX.sol:SigatTokenX",
						"label": "_owner",
						"offset": 0,
						"slot": "0",
						"type": "t_address"
					},
					{
						"astId": 123,
						"contract": "TokenSGTX/contracts/SGTX.sol:SigatTokenX",
						"label": "_name",
						"offset": 0,
						"slot": "1",
						"type": "t_string_storage"
					},
					{
						"astId": 125,
						"contract": "TokenSGTX/contracts/SGTX.sol:SigatTokenX",
						"label": "_symbol",
						"offset": 0,
						"slot": "2",
						"type": "t_string_storage"
					},
					{
						"astId": 127,
						"contract": "TokenSGTX/contracts/SGTX.sol:SigatTokenX",
						"label": "_supply",
						"offset": 0,
						"slot": "3",
						"type": "t_uint256"
					},
					{
						"astId": 129,
						"contract": "TokenSGTX/contracts/SGTX.sol:SigatTokenX",
						"label": "_decimals",
						"offset": 0,
						"slot": "4",
						"type": "t_uint8"
					},
					{
						"astId": 131,
						"contract": "TokenSGTX/contracts/SGTX.sol:SigatTokenX",
						"label": "_paused",
						"offset": 1,
						"slot": "4",
						"type": "t_bool"
					},
					{
						"astId": 133,
						"contract": "TokenSGTX/contracts/SGTX.sol:SigatTokenX",
						"label": "_freeTranfer",
						"offset": 2,
						"slot": "4",
						"type": "t_bool"
					},
					{
						"astId": 137,
						"contract": "TokenSGTX/contracts/SGTX.sol:SigatTokenX",
						"label": "_balances",
						"offset": 0,
						"slot": "5",
						"type": "t_mapping(t_address,t_uint256)"
					},
					{
						"astId": 141,
						"contract": "TokenSGTX/contracts/SGTX.sol:SigatTokenX",
						"label": "_holders",
						"offset": 0,
						"slot": "6",
						"type": "t_mapping(t_address,t_bool)"
					},
					{
						"astId": 145,
						"contract": "TokenSGTX/contracts/SGTX.sol:SigatTokenX",
						"label": "_freeze",
						"offset": 0,
						"slot": "7",
						"type": "t_mapping(t_address,t_bool)"
					},
					{
						"astId": 151,
						"contract": "TokenSGTX/contracts/SGTX.sol:SigatTokenX",
						"label": "_allowances",
						"offset": 0,
						"slot": "8",
						"type": "t_mapping(t_address,t_mapping(t_address,t_uint256))"
					}
				],
				"types": {
					"t_address": {
						"encoding": "inplace",
						"label": "address",
						"numberOfBytes": "20"
					},
					"t_bool": {
						"encoding": "inplace",
						"label": "bool",
						"numberOfBytes": "1"
					},
					"t_mapping(t_address,t_bool)": {
						"encoding": "mapping",
						"key": "t_address",
						"label": "mapping(address => bool)",
						"numberOfBytes": "32",
						"value": "t_bool"
					},
					"t_mapping(t_address,t_mapping(t_address,t_uint256))": {
						"encoding": "mapping",
						"key": "t_address",
						"label": "mapping(address => mapping(address => uint256))",
						"numberOfBytes": "32",
						"value": "t_mapping(t_address,t_uint256)"
					},
					"t_mapping(t_address,t_uint256)": {
						"encoding": "mapping",
						"key": "t_address",
						"label": "mapping(address => uint256)",
						"numberOfBytes": "32",
						"value": "t_uint256"
					},
					"t_string_storage": {
						"encoding": "bytes",
						"label": "string",
						"numberOfBytes": "32"
					},
					"t_uint256": {
						"encoding": "inplace",
						"label": "uint256",
						"numberOfBytes": "32"
					},
					"t_uint8": {
						"encoding": "inplace",
						"label": "uint8",
						"numberOfBytes": "1"
					}
				}
			},
			"userdoc": {
				"kind": "user",
				"methods": {},
				"version": 1
			}
		}
	}
}