{
	"TokenSGTX/contracts/exmaple.sol": {
		"exampleSoft": {
			"abi": [
				{
					"inputs": [],
					"name": "check",
					"outputs": [
						{
							"internalType": "bool",
							"name": "",
							"type": "bool"
						}
					],
					"stateMutability": "view",
					"type": "function"
				},
				{
					"inputs": [
						{
							"internalType": "string",
							"name": "a",
							"type": "string"
						},
						{
							"internalType": "string",
							"name": "b",
							"type": "string"
						},
						{
							"internalType": "string",
							"name": "c",
							"type": "string"
						}
					],
					"name": "make",
					"outputs": [
						{
							"internalType": "bool",
							"name": "",
							"type": "bool"
						}
					],
					"stateMutability": "payable",
					"type": "function"
				},
				{
					"inputs": [
						{
							"internalType": "string",
							"name": "a",
							"type": "string"
						}
					],
					"name": "views",
					"outputs": [
						{
							"internalType": "bool",
							"name": "",
							"type": "bool"
						}
					],
					"stateMutability": "view",
					"type": "function"
				}
			],
			"devdoc": {
				"kind": "dev",
				"methods": {},
				"version": 1
			},
			"evm": {
				"assembly": "    /* \"TokenSGTX/contracts/exmaple.sol\":62:777  contract exampleSoft {... */\n  mstore(0x40, 0x80)\n    /* \"TokenSGTX/contracts/exmaple.sol\":215:238  bool someBoolVar = true */\n  0x00\n  dup1\n  sload\n  not(0xff)\n  and\n    /* \"TokenSGTX/contracts/exmaple.sol\":234:238  true */\n  0x01\n    /* \"TokenSGTX/contracts/exmaple.sol\":215:238  bool someBoolVar = true */\n  or\n  swap1\n  sstore\n    /* \"TokenSGTX/contracts/exmaple.sol\":62:777  contract exampleSoft {... */\n  callvalue\n  dup1\n  iszero\n  tag_1\n  jumpi\n  0x00\n  dup1\n  revert\ntag_1:\n  pop\n  dataSize(sub_0)\n  dup1\n  dataOffset(sub_0)\n  0x00\n  codecopy\n  0x00\n  return\nstop\n\nsub_0: assembly {\n        /* \"TokenSGTX/contracts/exmaple.sol\":62:777  contract exampleSoft {... */\n      mstore(0x40, 0x80)\n      jumpi(tag_1, lt(calldatasize, 0x04))\n      shr(0xe0, calldataload(0x00))\n      dup1\n      0x6f7b18fd\n      eq\n      tag_2\n      jumpi\n      dup1\n      0x919840ad\n      eq\n      tag_3\n      jumpi\n      dup1\n      0x9c1d98e2\n      eq\n      tag_4\n      jumpi\n    tag_1:\n      0x00\n      dup1\n      revert\n        /* \"TokenSGTX/contracts/exmaple.sol\":486:682  function views(string memory a) public view returns(bool) {... */\n    tag_2:\n      callvalue\n      dup1\n      iszero\n      tag_5\n      jumpi\n      0x00\n      dup1\n      revert\n    tag_5:\n      pop\n      tag_6\n      tag_7\n      calldatasize\n      0x04\n      tag_8\n      jump\t// in\n    tag_7:\n      tag_9\n      jump\t// in\n    tag_6:\n      mload(0x40)\n        /* \"#utility.yul\":1362:1376   */\n      swap1\n      iszero\n        /* \"#utility.yul\":1355:1377   */\n      iszero\n        /* \"#utility.yul\":1337:1378   */\n      dup2\n      mstore\n        /* \"#utility.yul\":1325:1327   */\n      0x20\n        /* \"#utility.yul\":1310:1328   */\n      add\n        /* \"TokenSGTX/contracts/exmaple.sol\":486:682  function views(string memory a) public view returns(bool) {... */\n      mload(0x40)\n      dup1\n      swap2\n      sub\n      swap1\n      return\n        /* \"TokenSGTX/contracts/exmaple.sol\":690:774  function check() external view returns(bool ){... */\n    tag_3:\n      callvalue\n      dup1\n      iszero\n      tag_12\n      jumpi\n      0x00\n      dup1\n      revert\n    tag_12:\n      pop\n        /* \"TokenSGTX/contracts/exmaple.sol\":729:733  bool */\n      0x00\n        /* \"TokenSGTX/contracts/exmaple.sol\":753:764  someBoolVar */\n      sload\n      0xff\n      and\n        /* \"TokenSGTX/contracts/exmaple.sol\":690:774  function check() external view returns(bool ){... */\n      jump(tag_6)\n        /* \"TokenSGTX/contracts/exmaple.sol\":282:472  function make(string memory a, string memory b, string memory c) public payable returns(bool) {... */\n    tag_4:\n      tag_6\n      tag_17\n      calldatasize\n      0x04\n      tag_18\n      jump\t// in\n    tag_17:\n      tag_19\n      jump\t// in\n        /* \"TokenSGTX/contracts/exmaple.sol\":486:682  function views(string memory a) public view returns(bool) {... */\n    tag_9:\n        /* \"TokenSGTX/contracts/exmaple.sol\":538:542  bool */\n      0x00\n        /* \"TokenSGTX/contracts/exmaple.sol\":555:569  lol memory obj */\n      dup1\n        /* \"TokenSGTX/contracts/exmaple.sol\":572:574  mp */\n      0x01\n        /* \"TokenSGTX/contracts/exmaple.sol\":575:576  a */\n      dup4\n        /* \"TokenSGTX/contracts/exmaple.sol\":572:577  mp[a] */\n      mload(0x40)\n      tag_22\n      swap2\n      swap1\n      tag_23\n      jump\t// in\n    tag_22:\n      swap1\n      dup2\n      mstore\n      0x20\n      add\n      mload(0x40)\n      dup1\n      swap2\n      sub\n      swap1\n      keccak256\n        /* \"TokenSGTX/contracts/exmaple.sol\":555:577  lol memory obj = mp[a] */\n      mload(0x40)\n      dup1\n      0x80\n      add\n      0x40\n      mstore\n      swap1\n      dup2\n      0x00\n      dup3\n      add\n      dup1\n      sload\n      tag_24\n      swap1\n      tag_25\n      jump\t// in\n    tag_24:\n      dup1\n      0x1f\n      add\n      0x20\n      dup1\n      swap2\n      div\n      mul\n      0x20\n      add\n      mload(0x40)\n      swap1\n      dup2\n      add\n      0x40\n      mstore\n      dup1\n      swap3\n      swap2\n      swap1\n      dup2\n      dup2\n      mstore\n      0x20\n      add\n      dup3\n      dup1\n      sload\n      tag_26\n      swap1\n      tag_25\n      jump\t// in\n    tag_26:\n      dup1\n      iszero\n      tag_27\n      jumpi\n      dup1\n      0x1f\n      lt\n      tag_28\n      jumpi\n      0x0100\n      dup1\n      dup4\n      sload\n      div\n      mul\n      dup4\n      mstore\n      swap2\n      0x20\n      add\n      swap2\n      jump(tag_27)\n    tag_28:\n      dup3\n      add\n      swap2\n      swap1\n      0x00\n      mstore\n      keccak256(0x00, 0x20)\n      swap1\n    tag_29:\n      dup2\n      sload\n      dup2\n      mstore\n      swap1\n      0x01\n      add\n      swap1\n      0x20\n      add\n      dup1\n      dup4\n      gt\n      tag_29\n      jumpi\n      dup3\n      swap1\n      sub\n      0x1f\n      and\n      dup3\n      add\n      swap2\n    tag_27:\n      pop\n      pop\n      pop\n      pop\n      pop\n      dup2\n      mstore\n      0x20\n      add\n      0x01\n      dup3\n      add\n      dup1\n      sload\n      tag_30\n      swap1\n      tag_25\n      jump\t// in\n    tag_30:\n      dup1\n      0x1f\n      add\n      0x20\n      dup1\n      swap2\n      div\n      mul\n      0x20\n      add\n      mload(0x40)\n      swap1\n      dup2\n      add\n      0x40\n      mstore\n      dup1\n      swap3\n      swap2\n      swap1\n      dup2\n      dup2\n      mstore\n      0x20\n      add\n      dup3\n      dup1\n      sload\n      tag_31\n      swap1\n      tag_25\n      jump\t// in\n    tag_31:\n      dup1\n      iszero\n      tag_32\n      jumpi\n      dup1\n      0x1f\n      lt\n      tag_33\n      jumpi\n      0x0100\n      dup1\n      dup4\n      sload\n      div\n      mul\n      dup4\n      mstore\n      swap2\n      0x20\n      add\n      swap2\n      jump(tag_32)\n    tag_33:\n      dup3\n      add\n      swap2\n      swap1\n      0x00\n      mstore\n      keccak256(0x00, 0x20)\n      swap1\n    tag_34:\n      dup2\n      sload\n      dup2\n      mstore\n      swap1\n      0x01\n      add\n      swap1\n      0x20\n      add\n      dup1\n      dup4\n      gt\n      tag_34\n      jumpi\n      dup3\n      swap1\n      sub\n      0x1f\n      and\n      dup3\n      add\n      swap2\n    tag_32:\n      pop\n      pop\n      pop\n      pop\n      pop\n      dup2\n      mstore\n      0x20\n      add\n      0x02\n      dup3\n      add\n      dup1\n      sload\n      tag_35\n      swap1\n      tag_25\n      jump\t// in\n    tag_35:\n      dup1\n      0x1f\n      add\n      0x20\n      dup1\n      swap2\n      div\n      mul\n      0x20\n      add\n      mload(0x40)\n      swap1\n      dup2\n      add\n      0x40\n      mstore\n      dup1\n      swap3\n      swap2\n      swap1\n      dup2\n      dup2\n      mstore\n      0x20\n      add\n      dup3\n      dup1\n      sload\n      tag_36\n      swap1\n      tag_25\n      jump\t// in\n    tag_36:\n      dup1\n      iszero\n      tag_37\n      jumpi\n      dup1\n      0x1f\n      lt\n      tag_38\n      jumpi\n      0x0100\n      dup1\n      dup4\n      sload\n      div\n      mul\n      dup4\n      mstore\n      swap2\n      0x20\n      add\n      swap2\n      jump(tag_37)\n    tag_38:\n      dup3\n      add\n      swap2\n      swap1\n      0x00\n      mstore\n      keccak256(0x00, 0x20)\n      swap1\n    tag_39:\n      dup2\n      sload\n      dup2\n      mstore\n      swap1\n      0x01\n      add\n      swap1\n      0x20\n      add\n      dup1\n      dup4\n      gt\n      tag_39\n      jumpi\n      dup3\n      swap1\n      sub\n      0x1f\n      and\n      dup3\n      add\n      swap2\n    tag_37:\n      pop\n      pop\n      pop\n      swap2\n      dup4\n      mstore\n      pop\n      pop\n      0x03\n      swap2\n      swap1\n      swap2\n      add\n      sload\n      0xff\n      and\n      iszero\n      iszero\n      0x20\n      swap1\n      swap2\n      add\n      mstore\n        /* \"TokenSGTX/contracts/exmaple.sol\":591:602  obj.isValid */\n      0x60\n      dup2\n      add\n      mload\n        /* \"TokenSGTX/contracts/exmaple.sol\":555:577  lol memory obj = mp[a] */\n      swap1\n      swap2\n      pop\n        /* \"TokenSGTX/contracts/exmaple.sol\":591:611  obj.isValid == false */\n      iszero\n      iszero\n        /* \"TokenSGTX/contracts/exmaple.sol\":555:577  lol memory obj = mp[a] */\n      0x00\n        /* \"TokenSGTX/contracts/exmaple.sol\":591:611  obj.isValid == false */\n      sub\n        /* \"TokenSGTX/contracts/exmaple.sol\":588:653  if(obj.isValid == false ) {... */\n      tag_40\n      jumpi\n      pop\n        /* \"TokenSGTX/contracts/exmaple.sol\":636:641  false */\n      0x00\n      swap3\n        /* \"TokenSGTX/contracts/exmaple.sol\":486:682  function views(string memory a) public view returns(bool) {... */\n      swap2\n      pop\n      pop\n      jump\t// out\n        /* \"TokenSGTX/contracts/exmaple.sol\":588:653  if(obj.isValid == false ) {... */\n    tag_40:\n      pop\n        /* \"TokenSGTX/contracts/exmaple.sol\":670:674  true */\n      0x01\n      swap3\n        /* \"TokenSGTX/contracts/exmaple.sol\":486:682  function views(string memory a) public view returns(bool) {... */\n      swap2\n      pop\n      pop\n      jump\t// out\n        /* \"TokenSGTX/contracts/exmaple.sol\":282:472  function make(string memory a, string memory b, string memory c) public payable returns(bool) {... */\n    tag_19:\n        /* \"TokenSGTX/contracts/exmaple.sol\":404:420  lol(a,b,c, true) */\n      0x40\n      dup1\n      mload\n      0x80\n      dup2\n      add\n      dup3\n      mstore\n      dup5\n      dup2\n      mstore\n      0x20\n      dup2\n      add\n      dup5\n      swap1\n      mstore\n      dup1\n      dup3\n      add\n      dup4\n      swap1\n      mstore\n        /* \"TokenSGTX/contracts/exmaple.sol\":415:419  true */\n      0x01\n        /* \"TokenSGTX/contracts/exmaple.sol\":404:420  lol(a,b,c, true) */\n      0x60\n      dup3\n      add\n      dup2\n      swap1\n      mstore\n        /* \"TokenSGTX/contracts/exmaple.sol\":431:436  mp[a] */\n      swap2\n      mload\n        /* \"TokenSGTX/contracts/exmaple.sol\":370:374  bool */\n      0x00\n      swap3\n        /* \"TokenSGTX/contracts/exmaple.sol\":404:420  lol(a,b,c, true) */\n      dup3\n      swap2\n        /* \"TokenSGTX/contracts/exmaple.sol\":431:436  mp[a] */\n      tag_43\n      swap1\n        /* \"TokenSGTX/contracts/exmaple.sol\":408:409  a */\n      dup9\n      swap1\n        /* \"TokenSGTX/contracts/exmaple.sol\":431:436  mp[a] */\n      tag_23\n      jump\t// in\n    tag_43:\n      swap1\n      dup2\n      mstore\n      mload(0x40)\n      swap1\n      dup2\n      swap1\n      sub\n      0x20\n      add\n      swap1\n      keccak256\n        /* \"TokenSGTX/contracts/exmaple.sol\":431:442  mp[a] = obj */\n      dup2\n      mload\n        /* \"TokenSGTX/contracts/exmaple.sol\":431:436  mp[a] */\n      dup2\n      swap1\n        /* \"TokenSGTX/contracts/exmaple.sol\":431:442  mp[a] = obj */\n      tag_44\n      swap1\n        /* \"TokenSGTX/contracts/exmaple.sol\":431:436  mp[a] */\n      dup3\n        /* \"TokenSGTX/contracts/exmaple.sol\":431:442  mp[a] = obj */\n      tag_45\n      jump\t// in\n    tag_44:\n      pop\n      0x20\n      dup3\n      add\n      mload\n      0x01\n      dup3\n      add\n      swap1\n      tag_46\n      swap1\n      dup3\n      tag_45\n      jump\t// in\n    tag_46:\n      pop\n      0x40\n      dup3\n      add\n      mload\n      0x02\n      dup3\n      add\n      swap1\n      tag_47\n      swap1\n      dup3\n      tag_45\n      jump\t// in\n    tag_47:\n      pop\n      0x60\n      swap2\n      swap1\n      swap2\n      add\n      mload\n      0x03\n      swap1\n      swap2\n      add\n      dup1\n      sload\n      not(0xff)\n      and\n      swap2\n      iszero\n      iszero\n      swap2\n      swap1\n      swap2\n      or\n      swap1\n      sstore\n      pop\n      0x01\n      swap5\n        /* \"TokenSGTX/contracts/exmaple.sol\":282:472  function make(string memory a, string memory b, string memory c) public payable returns(bool) {... */\n      swap4\n      pop\n      pop\n      pop\n      pop\n      jump\t// out\n        /* \"#utility.yul\":14:141   */\n    tag_48:\n        /* \"#utility.yul\":75:85   */\n      0x4e487b71\n        /* \"#utility.yul\":70:73   */\n      0xe0\n        /* \"#utility.yul\":66:86   */\n      shl\n        /* \"#utility.yul\":63:64   */\n      0x00\n        /* \"#utility.yul\":56:87   */\n      mstore\n        /* \"#utility.yul\":106:110   */\n      0x41\n        /* \"#utility.yul\":103:104   */\n      0x04\n        /* \"#utility.yul\":96:111   */\n      mstore\n        /* \"#utility.yul\":130:134   */\n      0x24\n        /* \"#utility.yul\":127:128   */\n      0x00\n        /* \"#utility.yul\":120:135   */\n      revert\n        /* \"#utility.yul\":146:865   */\n    tag_49:\n        /* \"#utility.yul\":189:194   */\n      0x00\n        /* \"#utility.yul\":242:245   */\n      dup3\n        /* \"#utility.yul\":235:239   */\n      0x1f\n        /* \"#utility.yul\":227:233   */\n      dup4\n        /* \"#utility.yul\":223:240   */\n      add\n        /* \"#utility.yul\":219:246   */\n      slt\n        /* \"#utility.yul\":209:264   */\n      tag_56\n      jumpi\n        /* \"#utility.yul\":260:261   */\n      0x00\n        /* \"#utility.yul\":257:258   */\n      dup1\n        /* \"#utility.yul\":250:262   */\n      revert\n        /* \"#utility.yul\":209:264   */\n    tag_56:\n        /* \"#utility.yul\":296:302   */\n      dup2\n        /* \"#utility.yul\":283:303   */\n      calldataload\n        /* \"#utility.yul\":322:340   */\n      0xffffffffffffffff\n        /* \"#utility.yul\":359:361   */\n      dup1\n        /* \"#utility.yul\":355:357   */\n      dup3\n        /* \"#utility.yul\":352:362   */\n      gt\n        /* \"#utility.yul\":349:385   */\n      iszero\n      tag_58\n      jumpi\n        /* \"#utility.yul\":365:383   */\n      tag_58\n      tag_48\n      jump\t// in\n    tag_58:\n        /* \"#utility.yul\":440:442   */\n      0x40\n        /* \"#utility.yul\":434:443   */\n      mload\n        /* \"#utility.yul\":408:410   */\n      0x1f\n        /* \"#utility.yul\":494:507   */\n      dup4\n      add\n      not(0x1f)\n        /* \"#utility.yul\":490:512   */\n      swap1\n      dup2\n      and\n        /* \"#utility.yul\":514:516   */\n      0x3f\n        /* \"#utility.yul\":486:517   */\n      add\n        /* \"#utility.yul\":482:522   */\n      and\n        /* \"#utility.yul\":470:523   */\n      dup2\n      add\n      swap1\n        /* \"#utility.yul\":538:556   */\n      dup3\n      dup3\n      gt\n        /* \"#utility.yul\":558:580   */\n      dup2\n      dup4\n      lt\n        /* \"#utility.yul\":535:581   */\n      or\n        /* \"#utility.yul\":532:604   */\n      iszero\n      tag_60\n      jumpi\n        /* \"#utility.yul\":584:602   */\n      tag_60\n      tag_48\n      jump\t// in\n    tag_60:\n        /* \"#utility.yul\":624:634   */\n      dup2\n        /* \"#utility.yul\":620:622   */\n      0x40\n        /* \"#utility.yul\":613:635   */\n      mstore\n        /* \"#utility.yul\":659:661   */\n      dup4\n        /* \"#utility.yul\":651:657   */\n      dup2\n        /* \"#utility.yul\":644:662   */\n      mstore\n        /* \"#utility.yul\":705:708   */\n      dup7\n        /* \"#utility.yul\":698:702   */\n      0x20\n        /* \"#utility.yul\":693:695   */\n      dup6\n        /* \"#utility.yul\":685:691   */\n      dup9\n        /* \"#utility.yul\":681:696   */\n      add\n        /* \"#utility.yul\":677:703   */\n      add\n        /* \"#utility.yul\":674:709   */\n      gt\n        /* \"#utility.yul\":671:726   */\n      iszero\n      tag_61\n      jumpi\n        /* \"#utility.yul\":722:723   */\n      0x00\n        /* \"#utility.yul\":719:720   */\n      dup1\n        /* \"#utility.yul\":712:724   */\n      revert\n        /* \"#utility.yul\":671:726   */\n    tag_61:\n        /* \"#utility.yul\":786:788   */\n      dup4\n        /* \"#utility.yul\":779:783   */\n      0x20\n        /* \"#utility.yul\":771:777   */\n      dup8\n        /* \"#utility.yul\":767:784   */\n      add\n        /* \"#utility.yul\":760:764   */\n      0x20\n        /* \"#utility.yul\":752:758   */\n      dup4\n        /* \"#utility.yul\":748:765   */\n      add\n        /* \"#utility.yul\":735:789   */\n      calldatacopy\n        /* \"#utility.yul\":833:834   */\n      0x00\n        /* \"#utility.yul\":826:830   */\n      0x20\n        /* \"#utility.yul\":821:823   */\n      dup6\n        /* \"#utility.yul\":813:819   */\n      dup4\n        /* \"#utility.yul\":809:824   */\n      add\n        /* \"#utility.yul\":805:831   */\n      add\n        /* \"#utility.yul\":798:835   */\n      mstore\n        /* \"#utility.yul\":853:859   */\n      dup1\n        /* \"#utility.yul\":844:859   */\n      swap5\n      pop\n      pop\n      pop\n      pop\n      pop\n        /* \"#utility.yul\":146:865   */\n      swap3\n      swap2\n      pop\n      pop\n      jump\t// out\n        /* \"#utility.yul\":870:1192   */\n    tag_8:\n        /* \"#utility.yul\":939:945   */\n      0x00\n        /* \"#utility.yul\":992:994   */\n      0x20\n        /* \"#utility.yul\":980:989   */\n      dup3\n        /* \"#utility.yul\":971:978   */\n      dup5\n        /* \"#utility.yul\":967:990   */\n      sub\n        /* \"#utility.yul\":963:995   */\n      slt\n        /* \"#utility.yul\":960:1012   */\n      iszero\n      tag_63\n      jumpi\n        /* \"#utility.yul\":1008:1009   */\n      0x00\n        /* \"#utility.yul\":1005:1006   */\n      dup1\n        /* \"#utility.yul\":998:1010   */\n      revert\n        /* \"#utility.yul\":960:1012   */\n    tag_63:\n        /* \"#utility.yul\":1048:1057   */\n      dup2\n        /* \"#utility.yul\":1035:1058   */\n      calldataload\n        /* \"#utility.yul\":1081:1099   */\n      0xffffffffffffffff\n        /* \"#utility.yul\":1073:1079   */\n      dup2\n        /* \"#utility.yul\":1070:1100   */\n      gt\n        /* \"#utility.yul\":1067:1117   */\n      iszero\n      tag_64\n      jumpi\n        /* \"#utility.yul\":1113:1114   */\n      0x00\n        /* \"#utility.yul\":1110:1111   */\n      dup1\n        /* \"#utility.yul\":1103:1115   */\n      revert\n        /* \"#utility.yul\":1067:1117   */\n    tag_64:\n        /* \"#utility.yul\":1136:1186   */\n      tag_65\n        /* \"#utility.yul\":1178:1185   */\n      dup5\n        /* \"#utility.yul\":1169:1175   */\n      dup3\n        /* \"#utility.yul\":1158:1167   */\n      dup6\n        /* \"#utility.yul\":1154:1176   */\n      add\n        /* \"#utility.yul\":1136:1186   */\n      tag_49\n      jump\t// in\n    tag_65:\n        /* \"#utility.yul\":1126:1186   */\n      swap5\n        /* \"#utility.yul\":870:1192   */\n      swap4\n      pop\n      pop\n      pop\n      pop\n      jump\t// out\n        /* \"#utility.yul\":1389:2132   */\n    tag_18:\n        /* \"#utility.yul\":1496:1502   */\n      0x00\n        /* \"#utility.yul\":1504:1510   */\n      dup1\n        /* \"#utility.yul\":1512:1518   */\n      0x00\n        /* \"#utility.yul\":1565:1567   */\n      0x60\n        /* \"#utility.yul\":1553:1562   */\n      dup5\n        /* \"#utility.yul\":1544:1551   */\n      dup7\n        /* \"#utility.yul\":1540:1563   */\n      sub\n        /* \"#utility.yul\":1536:1568   */\n      slt\n        /* \"#utility.yul\":1533:1585   */\n      iszero\n      tag_68\n      jumpi\n        /* \"#utility.yul\":1581:1582   */\n      0x00\n        /* \"#utility.yul\":1578:1579   */\n      dup1\n        /* \"#utility.yul\":1571:1583   */\n      revert\n        /* \"#utility.yul\":1533:1585   */\n    tag_68:\n        /* \"#utility.yul\":1621:1630   */\n      dup4\n        /* \"#utility.yul\":1608:1631   */\n      calldataload\n        /* \"#utility.yul\":1650:1668   */\n      0xffffffffffffffff\n        /* \"#utility.yul\":1691:1693   */\n      dup1\n        /* \"#utility.yul\":1683:1689   */\n      dup3\n        /* \"#utility.yul\":1680:1694   */\n      gt\n        /* \"#utility.yul\":1677:1711   */\n      iszero\n      tag_69\n      jumpi\n        /* \"#utility.yul\":1707:1708   */\n      0x00\n        /* \"#utility.yul\":1704:1705   */\n      dup1\n        /* \"#utility.yul\":1697:1709   */\n      revert\n        /* \"#utility.yul\":1677:1711   */\n    tag_69:\n        /* \"#utility.yul\":1730:1780   */\n      tag_70\n        /* \"#utility.yul\":1772:1779   */\n      dup8\n        /* \"#utility.yul\":1763:1769   */\n      dup4\n        /* \"#utility.yul\":1752:1761   */\n      dup9\n        /* \"#utility.yul\":1748:1770   */\n      add\n        /* \"#utility.yul\":1730:1780   */\n      tag_49\n      jump\t// in\n    tag_70:\n        /* \"#utility.yul\":1720:1780   */\n      swap5\n      pop\n        /* \"#utility.yul\":1833:1835   */\n      0x20\n        /* \"#utility.yul\":1822:1831   */\n      dup7\n        /* \"#utility.yul\":1818:1836   */\n      add\n        /* \"#utility.yul\":1805:1837   */\n      calldataload\n        /* \"#utility.yul\":1789:1837   */\n      swap2\n      pop\n        /* \"#utility.yul\":1862:1864   */\n      dup1\n        /* \"#utility.yul\":1852:1860   */\n      dup3\n        /* \"#utility.yul\":1849:1865   */\n      gt\n        /* \"#utility.yul\":1846:1882   */\n      iszero\n      tag_71\n      jumpi\n        /* \"#utility.yul\":1878:1879   */\n      0x00\n        /* \"#utility.yul\":1875:1876   */\n      dup1\n        /* \"#utility.yul\":1868:1880   */\n      revert\n        /* \"#utility.yul\":1846:1882   */\n    tag_71:\n        /* \"#utility.yul\":1901:1953   */\n      tag_72\n        /* \"#utility.yul\":1945:1952   */\n      dup8\n        /* \"#utility.yul\":1934:1942   */\n      dup4\n        /* \"#utility.yul\":1923:1932   */\n      dup9\n        /* \"#utility.yul\":1919:1943   */\n      add\n        /* \"#utility.yul\":1901:1953   */\n      tag_49\n      jump\t// in\n    tag_72:\n        /* \"#utility.yul\":1891:1953   */\n      swap4\n      pop\n        /* \"#utility.yul\":2006:2008   */\n      0x40\n        /* \"#utility.yul\":1995:2004   */\n      dup7\n        /* \"#utility.yul\":1991:2009   */\n      add\n        /* \"#utility.yul\":1978:2010   */\n      calldataload\n        /* \"#utility.yul\":1962:2010   */\n      swap2\n      pop\n        /* \"#utility.yul\":2035:2037   */\n      dup1\n        /* \"#utility.yul\":2025:2033   */\n      dup3\n        /* \"#utility.yul\":2022:2038   */\n      gt\n        /* \"#utility.yul\":2019:2055   */\n      iszero\n      tag_73\n      jumpi\n        /* \"#utility.yul\":2051:2052   */\n      0x00\n        /* \"#utility.yul\":2048:2049   */\n      dup1\n        /* \"#utility.yul\":2041:2053   */\n      revert\n        /* \"#utility.yul\":2019:2055   */\n    tag_73:\n      pop\n        /* \"#utility.yul\":2074:2126   */\n      tag_74\n        /* \"#utility.yul\":2118:2125   */\n      dup7\n        /* \"#utility.yul\":2107:2115   */\n      dup3\n        /* \"#utility.yul\":2096:2105   */\n      dup8\n        /* \"#utility.yul\":2092:2116   */\n      add\n        /* \"#utility.yul\":2074:2126   */\n      tag_49\n      jump\t// in\n    tag_74:\n        /* \"#utility.yul\":2064:2126   */\n      swap2\n      pop\n      pop\n        /* \"#utility.yul\":1389:2132   */\n      swap3\n      pop\n      swap3\n      pop\n      swap3\n      jump\t// out\n        /* \"#utility.yul\":2137:2551   */\n    tag_23:\n        /* \"#utility.yul\":2268:2271   */\n      0x00\n        /* \"#utility.yul\":2306:2312   */\n      dup3\n        /* \"#utility.yul\":2300:2313   */\n      mload\n        /* \"#utility.yul\":2331:2332   */\n      0x00\n        /* \"#utility.yul\":2341:2470   */\n    tag_76:\n        /* \"#utility.yul\":2355:2361   */\n      dup2\n        /* \"#utility.yul\":2352:2353   */\n      dup2\n        /* \"#utility.yul\":2349:2362   */\n      lt\n        /* \"#utility.yul\":2341:2470   */\n      iszero\n      tag_78\n      jumpi\n        /* \"#utility.yul\":2453:2457   */\n      0x20\n        /* \"#utility.yul\":2437:2451   */\n      dup2\n      dup7\n      add\n        /* \"#utility.yul\":2433:2458   */\n      dup2\n      add\n        /* \"#utility.yul\":2427:2459   */\n      mload\n        /* \"#utility.yul\":2414:2425   */\n      dup6\n      dup4\n      add\n        /* \"#utility.yul\":2407:2460   */\n      mstore\n        /* \"#utility.yul\":2370:2382   */\n      add\n        /* \"#utility.yul\":2341:2470   */\n      jump(tag_76)\n    tag_78:\n      pop\n        /* \"#utility.yul\":2525:2526   */\n      0x00\n        /* \"#utility.yul\":2489:2505   */\n      swap3\n      add\n        /* \"#utility.yul\":2514:2527   */\n      swap2\n      dup3\n      mstore\n      pop\n        /* \"#utility.yul\":2489:2505   */\n      swap2\n        /* \"#utility.yul\":2137:2551   */\n      swap1\n      pop\n      jump\t// out\n        /* \"#utility.yul\":2556:2936   */\n    tag_25:\n        /* \"#utility.yul\":2635:2636   */\n      0x01\n        /* \"#utility.yul\":2631:2643   */\n      dup2\n      dup2\n      shr\n      swap1\n        /* \"#utility.yul\":2678:2690   */\n      dup3\n      and\n      dup1\n        /* \"#utility.yul\":2699:2760   */\n      tag_80\n      jumpi\n        /* \"#utility.yul\":2753:2757   */\n      0x7f\n        /* \"#utility.yul\":2745:2751   */\n      dup3\n        /* \"#utility.yul\":2741:2758   */\n      and\n        /* \"#utility.yul\":2731:2758   */\n      swap2\n      pop\n        /* \"#utility.yul\":2699:2760   */\n    tag_80:\n        /* \"#utility.yul\":2806:2808   */\n      0x20\n        /* \"#utility.yul\":2798:2804   */\n      dup3\n        /* \"#utility.yul\":2795:2809   */\n      lt\n        /* \"#utility.yul\":2775:2793   */\n      dup2\n        /* \"#utility.yul\":2772:2810   */\n      sub\n        /* \"#utility.yul\":2769:2930   */\n      tag_81\n      jumpi\n        /* \"#utility.yul\":2852:2862   */\n      0x4e487b71\n        /* \"#utility.yul\":2847:2850   */\n      0xe0\n        /* \"#utility.yul\":2843:2863   */\n      shl\n        /* \"#utility.yul\":2840:2841   */\n      0x00\n        /* \"#utility.yul\":2833:2864   */\n      mstore\n        /* \"#utility.yul\":2887:2891   */\n      0x22\n        /* \"#utility.yul\":2884:2885   */\n      0x04\n        /* \"#utility.yul\":2877:2892   */\n      mstore\n        /* \"#utility.yul\":2915:2919   */\n      0x24\n        /* \"#utility.yul\":2912:2913   */\n      0x00\n        /* \"#utility.yul\":2905:2920   */\n      revert\n        /* \"#utility.yul\":2769:2930   */\n    tag_81:\n      pop\n        /* \"#utility.yul\":2556:2936   */\n      swap2\n      swap1\n      pop\n      jump\t// out\n        /* \"#utility.yul\":3067:3612   */\n    tag_51:\n        /* \"#utility.yul\":3169:3171   */\n      0x1f\n        /* \"#utility.yul\":3164:3167   */\n      dup3\n        /* \"#utility.yul\":3161:3172   */\n      gt\n        /* \"#utility.yul\":3158:3606   */\n      iszero\n      tag_84\n      jumpi\n        /* \"#utility.yul\":3205:3206   */\n      0x00\n        /* \"#utility.yul\":3230:3235   */\n      dup2\n        /* \"#utility.yul\":3226:3228   */\n      dup2\n        /* \"#utility.yul\":3219:3236   */\n      mstore\n        /* \"#utility.yul\":3275:3279   */\n      0x20\n        /* \"#utility.yul\":3271:3273   */\n      dup2\n        /* \"#utility.yul\":3261:3280   */\n      keccak256\n        /* \"#utility.yul\":3345:3347   */\n      0x1f\n        /* \"#utility.yul\":3333:3343   */\n      dup6\n        /* \"#utility.yul\":3329:3348   */\n      add\n        /* \"#utility.yul\":3326:3327   */\n      0x05\n        /* \"#utility.yul\":3322:3349   */\n      shr\n        /* \"#utility.yul\":3316:3320   */\n      dup2\n        /* \"#utility.yul\":3312:3350   */\n      add\n        /* \"#utility.yul\":3381:3385   */\n      0x20\n        /* \"#utility.yul\":3369:3379   */\n      dup7\n        /* \"#utility.yul\":3366:3386   */\n      lt\n        /* \"#utility.yul\":3363:3410   */\n      iszero\n      tag_85\n      jumpi\n      pop\n        /* \"#utility.yul\":3404:3408   */\n      dup1\n        /* \"#utility.yul\":3363:3410   */\n    tag_85:\n        /* \"#utility.yul\":3459:3461   */\n      0x1f\n        /* \"#utility.yul\":3454:3457   */\n      dup6\n        /* \"#utility.yul\":3450:3462   */\n      add\n        /* \"#utility.yul\":3447:3448   */\n      0x05\n        /* \"#utility.yul\":3443:3463   */\n      shr\n        /* \"#utility.yul\":3437:3441   */\n      dup3\n        /* \"#utility.yul\":3433:3464   */\n      add\n        /* \"#utility.yul\":3423:3464   */\n      swap2\n      pop\n        /* \"#utility.yul\":3514:3596   */\n    tag_86:\n        /* \"#utility.yul\":3532:3534   */\n      dup2\n        /* \"#utility.yul\":3525:3530   */\n      dup2\n        /* \"#utility.yul\":3522:3535   */\n      lt\n        /* \"#utility.yul\":3514:3596   */\n      iszero\n      tag_88\n      jumpi\n        /* \"#utility.yul\":3577:3594   */\n      dup3\n      dup2\n      sstore\n        /* \"#utility.yul\":3558:3559   */\n      0x01\n        /* \"#utility.yul\":3547:3560   */\n      add\n        /* \"#utility.yul\":3514:3596   */\n      jump(tag_86)\n    tag_88:\n        /* \"#utility.yul\":3518:3521   */\n      pop\n      pop\n      pop\n        /* \"#utility.yul\":3158:3606   */\n    tag_84:\n        /* \"#utility.yul\":3067:3612   */\n      pop\n      pop\n      pop\n      jump\t// out\n        /* \"#utility.yul\":3788:5140   */\n    tag_45:\n        /* \"#utility.yul\":3914:3917   */\n      dup2\n        /* \"#utility.yul\":3908:3918   */\n      mload\n        /* \"#utility.yul\":3941:3959   */\n      0xffffffffffffffff\n        /* \"#utility.yul\":3933:3939   */\n      dup2\n        /* \"#utility.yul\":3930:3960   */\n      gt\n        /* \"#utility.yul\":3927:3983   */\n      iszero\n      tag_92\n      jumpi\n        /* \"#utility.yul\":3963:3981   */\n      tag_92\n      tag_48\n      jump\t// in\n    tag_92:\n        /* \"#utility.yul\":3992:4089   */\n      tag_93\n        /* \"#utility.yul\":4082:4088   */\n      dup2\n        /* \"#utility.yul\":4042:4080   */\n      tag_94\n        /* \"#utility.yul\":4074:4078   */\n      dup5\n        /* \"#utility.yul\":4068:4079   */\n      sload\n        /* \"#utility.yul\":4042:4080   */\n      tag_25\n      jump\t// in\n    tag_94:\n        /* \"#utility.yul\":4036:4040   */\n      dup5\n        /* \"#utility.yul\":3992:4089   */\n      tag_51\n      jump\t// in\n    tag_93:\n        /* \"#utility.yul\":4144:4148   */\n      0x20\n      dup1\n        /* \"#utility.yul\":4208:4210   */\n      0x1f\n        /* \"#utility.yul\":4197:4211   */\n      dup4\n      gt\n        /* \"#utility.yul\":4225:4226   */\n      0x01\n        /* \"#utility.yul\":4220:4883   */\n      dup2\n      eq\n      tag_96\n      jumpi\n        /* \"#utility.yul\":4927:4928   */\n      0x00\n        /* \"#utility.yul\":4944:4950   */\n      dup5\n        /* \"#utility.yul\":4941:5030   */\n      iszero\n      tag_97\n      jumpi\n      pop\n        /* \"#utility.yul\":4996:5015   */\n      dup6\n      dup4\n      add\n        /* \"#utility.yul\":4990:5016   */\n      mload\n        /* \"#utility.yul\":4941:5030   */\n    tag_97:\n      not(0x00)\n        /* \"#utility.yul\":3745:3746   */\n      0x03\n        /* \"#utility.yul\":3741:3752   */\n      dup7\n      swap1\n      shl\n        /* \"#utility.yul\":3737:3761   */\n      shr\n        /* \"#utility.yul\":3733:3762   */\n      not\n        /* \"#utility.yul\":3723:3763   */\n      and\n        /* \"#utility.yul\":3769:3770   */\n      0x01\n        /* \"#utility.yul\":3765:3776   */\n      dup6\n      swap1\n      shl\n        /* \"#utility.yul\":3720:3777   */\n      or\n        /* \"#utility.yul\":5043:5124   */\n      dup6\n      sstore\n        /* \"#utility.yul\":4190:5134   */\n      jump(tag_88)\n        /* \"#utility.yul\":4220:4883   */\n    tag_96:\n        /* \"#utility.yul\":3014:3015   */\n      0x00\n        /* \"#utility.yul\":3007:3021   */\n      dup6\n      dup2\n      mstore\n        /* \"#utility.yul\":3051:3055   */\n      0x20\n        /* \"#utility.yul\":3038:3056   */\n      dup2\n      keccak256\n      not(0x1f)\n        /* \"#utility.yul\":4256:4276   */\n      dup7\n      and\n      swap2\n        /* \"#utility.yul\":4374:4610   */\n    tag_100:\n        /* \"#utility.yul\":4388:4395   */\n      dup3\n        /* \"#utility.yul\":4385:4386   */\n      dup2\n        /* \"#utility.yul\":4382:4396   */\n      lt\n        /* \"#utility.yul\":4374:4610   */\n      iszero\n      tag_102\n      jumpi\n        /* \"#utility.yul\":4477:4496   */\n      dup9\n      dup7\n      add\n        /* \"#utility.yul\":4471:4497   */\n      mload\n        /* \"#utility.yul\":4456:4498   */\n      dup3\n      sstore\n        /* \"#utility.yul\":4569:4596   */\n      swap5\n      dup5\n      add\n      swap5\n        /* \"#utility.yul\":4537:4538   */\n      0x01\n        /* \"#utility.yul\":4525:4539   */\n      swap1\n      swap2\n      add\n      swap1\n        /* \"#utility.yul\":4404:4423   */\n      dup5\n      add\n        /* \"#utility.yul\":4374:4610   */\n      jump(tag_100)\n    tag_102:\n        /* \"#utility.yul\":4378:4381   */\n      pop\n        /* \"#utility.yul\":4638:4644   */\n      dup6\n        /* \"#utility.yul\":4629:4636   */\n      dup3\n        /* \"#utility.yul\":4626:4645   */\n      lt\n        /* \"#utility.yul\":4623:4824   */\n      iszero\n      tag_103\n      jumpi\n        /* \"#utility.yul\":4699:4718   */\n      dup8\n      dup6\n      add\n        /* \"#utility.yul\":4693:4719   */\n      mload\n      not(0x00)\n        /* \"#utility.yul\":4782:4783   */\n      0x03\n        /* \"#utility.yul\":4778:4792   */\n      dup9\n      swap1\n      shl\n        /* \"#utility.yul\":4794:4797   */\n      0xf8\n        /* \"#utility.yul\":4774:4798   */\n      and\n        /* \"#utility.yul\":4770:4807   */\n      shr\n        /* \"#utility.yul\":4766:4808   */\n      not\n        /* \"#utility.yul\":4751:4809   */\n      and\n        /* \"#utility.yul\":4736:4810   */\n      dup2\n      sstore\n        /* \"#utility.yul\":4623:4824   */\n    tag_103:\n      pop\n      pop\n      pop\n      pop\n      pop\n        /* \"#utility.yul\":4870:4871   */\n      0x01\n        /* \"#utility.yul\":4854:4868   */\n      swap1\n      dup2\n      shl\n        /* \"#utility.yul\":4850:4872   */\n      add\n        /* \"#utility.yul\":4837:4873   */\n      swap1\n      sstore\n      pop\n        /* \"#utility.yul\":3788:5140   */\n      jump\t// out\n\n    auxdata: 0xa2646970667358221220e43c8e7f571cace2117972a56c04e55f1a0ef1c236714c618205b42a25dffb7b64736f6c63430008150033\n}\n",
				"bytecode": {
					"linkReferences": {},
					"object": "60806040525f805460ff1916600117905534801561001b575f80fd5b5061063e806100295f395ff3fe608060405260043610610033575f3560e01c80636f7b18fd14610037578063919840ad1461006a5780639c1d98e214610080575b5f80fd5b348015610042575f80fd5b506100566100513660046103de565b610093565b604051901515815260200160405180910390f35b348015610075575f80fd5b505f5460ff16610056565b61005661008e366004610418565b61029f565b5f806001836040516100a5919061049a565b90815260200160405180910390206040518060800160405290815f820180546100cd906104c6565b80601f01602080910402602001604051908101604052809291908181526020018280546100f9906104c6565b80156101445780601f1061011b57610100808354040283529160200191610144565b820191905f5260205f20905b81548152906001019060200180831161012757829003601f168201915b5050505050815260200160018201805461015d906104c6565b80601f0160208091040260200160405190810160405280929190818152602001828054610189906104c6565b80156101d45780601f106101ab576101008083540402835291602001916101d4565b820191905f5260205f20905b8154815290600101906020018083116101b757829003601f168201915b505050505081526020016002820180546101ed906104c6565b80601f0160208091040260200160405190810160405280929190818152602001828054610219906104c6565b80156102645780601f1061023b57610100808354040283529160200191610264565b820191905f5260205f20905b81548152906001019060200180831161024757829003601f168201915b50505091835250506003919091015460ff161515602090910152606081015190915015155f0361029657505f92915050565b50600192915050565b604080516080810182528481526020810184905280820183905260016060820181905291515f9282916102d390889061049a565b908152604051908190036020019020815181906102f0908261054c565b5060208201516001820190610305908261054c565b506040820151600282019061031a908261054c565b50606091909101516003909101805460ff1916911515919091179055506001949350505050565b634e487b7160e01b5f52604160045260245ffd5b5f82601f830112610364575f80fd5b813567ffffffffffffffff8082111561037f5761037f610341565b604051601f8301601f19908116603f011681019082821181831017156103a7576103a7610341565b816040528381528660208588010111156103bf575f80fd5b836020870160208301375f602085830101528094505050505092915050565b5f602082840312156103ee575f80fd5b813567ffffffffffffffff811115610404575f80fd5b61041084828501610355565b949350505050565b5f805f6060848603121561042a575f80fd5b833567ffffffffffffffff80821115610441575f80fd5b61044d87838801610355565b94506020860135915080821115610462575f80fd5b61046e87838801610355565b93506040860135915080821115610483575f80fd5b5061049086828701610355565b9150509250925092565b5f82515f5b818110156104b9576020818601810151858301520161049f565b505f920191825250919050565b600181811c908216806104da57607f821691505b6020821081036104f857634e487b7160e01b5f52602260045260245ffd5b50919050565b601f821115610547575f81815260208120601f850160051c810160208610156105245750805b601f850160051c820191505b8181101561054357828155600101610530565b5050505b505050565b815167ffffffffffffffff81111561056657610566610341565b61057a8161057484546104c6565b846104fe565b602080601f8311600181146105ad575f84156105965750858301515b5f19600386901b1c1916600185901b178555610543565b5f85815260208120601f198616915b828110156105db578886015182559484019460019091019084016105bc565b50858210156105f857878501515f19600388901b60f8161c191681555b5050505050600190811b0190555056fea2646970667358221220e43c8e7f571cace2117972a56c04e55f1a0ef1c236714c618205b42a25dffb7b64736f6c63430008150033",
					"opcodes": "PUSH1 0x80 PUSH1 0x40 MSTORE PUSH0 DUP1 SLOAD PUSH1 0xFF NOT AND PUSH1 0x1 OR SWAP1 SSTORE CALLVALUE DUP1 ISZERO PUSH2 0x1B JUMPI PUSH0 DUP1 REVERT JUMPDEST POP PUSH2 0x63E DUP1 PUSH2 0x29 PUSH0 CODECOPY PUSH0 RETURN INVALID PUSH1 0x80 PUSH1 0x40 MSTORE PUSH1 0x4 CALLDATASIZE LT PUSH2 0x33 JUMPI PUSH0 CALLDATALOAD PUSH1 0xE0 SHR DUP1 PUSH4 0x6F7B18FD EQ PUSH2 0x37 JUMPI DUP1 PUSH4 0x919840AD EQ PUSH2 0x6A JUMPI DUP1 PUSH4 0x9C1D98E2 EQ PUSH2 0x80 JUMPI JUMPDEST PUSH0 DUP1 REVERT JUMPDEST CALLVALUE DUP1 ISZERO PUSH2 0x42 JUMPI PUSH0 DUP1 REVERT JUMPDEST POP PUSH2 0x56 PUSH2 0x51 CALLDATASIZE PUSH1 0x4 PUSH2 0x3DE JUMP JUMPDEST PUSH2 0x93 JUMP JUMPDEST PUSH1 0x40 MLOAD SWAP1 ISZERO ISZERO DUP2 MSTORE PUSH1 0x20 ADD PUSH1 0x40 MLOAD DUP1 SWAP2 SUB SWAP1 RETURN JUMPDEST CALLVALUE DUP1 ISZERO PUSH2 0x75 JUMPI PUSH0 DUP1 REVERT JUMPDEST POP PUSH0 SLOAD PUSH1 0xFF AND PUSH2 0x56 JUMP JUMPDEST PUSH2 0x56 PUSH2 0x8E CALLDATASIZE PUSH1 0x4 PUSH2 0x418 JUMP JUMPDEST PUSH2 0x29F JUMP JUMPDEST PUSH0 DUP1 PUSH1 0x1 DUP4 PUSH1 0x40 MLOAD PUSH2 0xA5 SWAP2 SWAP1 PUSH2 0x49A JUMP JUMPDEST SWAP1 DUP2 MSTORE PUSH1 0x20 ADD PUSH1 0x40 MLOAD DUP1 SWAP2 SUB SWAP1 KECCAK256 PUSH1 0x40 MLOAD DUP1 PUSH1 0x80 ADD PUSH1 0x40 MSTORE SWAP1 DUP2 PUSH0 DUP3 ADD DUP1 SLOAD PUSH2 0xCD SWAP1 PUSH2 0x4C6 JUMP JUMPDEST DUP1 PUSH1 0x1F ADD PUSH1 0x20 DUP1 SWAP2 DIV MUL PUSH1 0x20 ADD PUSH1 0x40 MLOAD SWAP1 DUP2 ADD PUSH1 0x40 MSTORE DUP1 SWAP3 SWAP2 SWAP1 DUP2 DUP2 MSTORE PUSH1 0x20 ADD DUP3 DUP1 SLOAD PUSH2 0xF9 SWAP1 PUSH2 0x4C6 JUMP JUMPDEST DUP1 ISZERO PUSH2 0x144 JUMPI DUP1 PUSH1 0x1F LT PUSH2 0x11B JUMPI PUSH2 0x100 DUP1 DUP4 SLOAD DIV MUL DUP4 MSTORE SWAP2 PUSH1 0x20 ADD SWAP2 PUSH2 0x144 JUMP JUMPDEST DUP3 ADD SWAP2 SWAP1 PUSH0 MSTORE PUSH1 0x20 PUSH0 KECCAK256 SWAP1 JUMPDEST DUP2 SLOAD DUP2 MSTORE SWAP1 PUSH1 0x1 ADD SWAP1 PUSH1 0x20 ADD DUP1 DUP4 GT PUSH2 0x127 JUMPI DUP3 SWAP1 SUB PUSH1 0x1F AND DUP3 ADD SWAP2 JUMPDEST POP POP POP POP POP DUP2 MSTORE PUSH1 0x20 ADD PUSH1 0x1 DUP3 ADD DUP1 SLOAD PUSH2 0x15D SWAP1 PUSH2 0x4C6 JUMP JUMPDEST DUP1 PUSH1 0x1F ADD PUSH1 0x20 DUP1 SWAP2 DIV MUL PUSH1 0x20 ADD PUSH1 0x40 MLOAD SWAP1 DUP2 ADD PUSH1 0x40 MSTORE DUP1 SWAP3 SWAP2 SWAP1 DUP2 DUP2 MSTORE PUSH1 0x20 ADD DUP3 DUP1 SLOAD PUSH2 0x189 SWAP1 PUSH2 0x4C6 JUMP JUMPDEST DUP1 ISZERO PUSH2 0x1D4 JUMPI DUP1 PUSH1 0x1F LT PUSH2 0x1AB JUMPI PUSH2 0x100 DUP1 DUP4 SLOAD DIV MUL DUP4 MSTORE SWAP2 PUSH1 0x20 ADD SWAP2 PUSH2 0x1D4 JUMP JUMPDEST DUP3 ADD SWAP2 SWAP1 PUSH0 MSTORE PUSH1 0x20 PUSH0 KECCAK256 SWAP1 JUMPDEST DUP2 SLOAD DUP2 MSTORE SWAP1 PUSH1 0x1 ADD SWAP1 PUSH1 0x20 ADD DUP1 DUP4 GT PUSH2 0x1B7 JUMPI DUP3 SWAP1 SUB PUSH1 0x1F AND DUP3 ADD SWAP2 JUMPDEST POP POP POP POP POP DUP2 MSTORE PUSH1 0x20 ADD PUSH1 0x2 DUP3 ADD DUP1 SLOAD PUSH2 0x1ED SWAP1 PUSH2 0x4C6 JUMP JUMPDEST DUP1 PUSH1 0x1F ADD PUSH1 0x20 DUP1 SWAP2 DIV MUL PUSH1 0x20 ADD PUSH1 0x40 MLOAD SWAP1 DUP2 ADD PUSH1 0x40 MSTORE DUP1 SWAP3 SWAP2 SWAP1 DUP2 DUP2 MSTORE PUSH1 0x20 ADD DUP3 DUP1 SLOAD PUSH2 0x219 SWAP1 PUSH2 0x4C6 JUMP JUMPDEST DUP1 ISZERO PUSH2 0x264 JUMPI DUP1 PUSH1 0x1F LT PUSH2 0x23B JUMPI PUSH2 0x100 DUP1 DUP4 SLOAD DIV MUL DUP4 MSTORE SWAP2 PUSH1 0x20 ADD SWAP2 PUSH2 0x264 JUMP JUMPDEST DUP3 ADD SWAP2 SWAP1 PUSH0 MSTORE PUSH1 0x20 PUSH0 KECCAK256 SWAP1 JUMPDEST DUP2 SLOAD DUP2 MSTORE SWAP1 PUSH1 0x1 ADD SWAP1 PUSH1 0x20 ADD DUP1 DUP4 GT PUSH2 0x247 JUMPI DUP3 SWAP1 SUB PUSH1 0x1F AND DUP3 ADD SWAP2 JUMPDEST POP POP POP SWAP2 DUP4 MSTORE POP POP PUSH1 0x3 SWAP2 SWAP1 SWAP2 ADD SLOAD PUSH1 0xFF AND ISZERO ISZERO PUSH1 0x20 SWAP1 SWAP2 ADD MSTORE PUSH1 0x60 DUP2 ADD MLOAD SWAP1 SWAP2 POP ISZERO ISZERO PUSH0 SUB PUSH2 0x296 JUMPI POP PUSH0 SWAP3 SWAP2 POP POP JUMP JUMPDEST POP PUSH1 0x1 SWAP3 SWAP2 POP POP JUMP JUMPDEST PUSH1 0x40 DUP1 MLOAD PUSH1 0x80 DUP2 ADD DUP3 MSTORE DUP5 DUP2 MSTORE PUSH1 0x20 DUP2 ADD DUP5 SWAP1 MSTORE DUP1 DUP3 ADD DUP4 SWAP1 MSTORE PUSH1 0x1 PUSH1 0x60 DUP3 ADD DUP2 SWAP1 MSTORE SWAP2 MLOAD PUSH0 SWAP3 DUP3 SWAP2 PUSH2 0x2D3 SWAP1 DUP9 SWAP1 PUSH2 0x49A JUMP JUMPDEST SWAP1 DUP2 MSTORE PUSH1 0x40 MLOAD SWAP1 DUP2 SWAP1 SUB PUSH1 0x20 ADD SWAP1 KECCAK256 DUP2 MLOAD DUP2 SWAP1 PUSH2 0x2F0 SWAP1 DUP3 PUSH2 0x54C JUMP JUMPDEST POP PUSH1 0x20 DUP3 ADD MLOAD PUSH1 0x1 DUP3 ADD SWAP1 PUSH2 0x305 SWAP1 DUP3 PUSH2 0x54C JUMP JUMPDEST POP PUSH1 0x40 DUP3 ADD MLOAD PUSH1 0x2 DUP3 ADD SWAP1 PUSH2 0x31A SWAP1 DUP3 PUSH2 0x54C JUMP JUMPDEST POP PUSH1 0x60 SWAP2 SWAP1 SWAP2 ADD MLOAD PUSH1 0x3 SWAP1 SWAP2 ADD DUP1 SLOAD PUSH1 0xFF NOT AND SWAP2 ISZERO ISZERO SWAP2 SWAP1 SWAP2 OR SWAP1 SSTORE POP PUSH1 0x1 SWAP5 SWAP4 POP POP POP POP JUMP JUMPDEST PUSH4 0x4E487B71 PUSH1 0xE0 SHL PUSH0 MSTORE PUSH1 0x41 PUSH1 0x4 MSTORE PUSH1 0x24 PUSH0 REVERT JUMPDEST PUSH0 DUP3 PUSH1 0x1F DUP4 ADD SLT PUSH2 0x364 JUMPI PUSH0 DUP1 REVERT JUMPDEST DUP2 CALLDATALOAD PUSH8 0xFFFFFFFFFFFFFFFF DUP1 DUP3 GT ISZERO PUSH2 0x37F JUMPI PUSH2 0x37F PUSH2 0x341 JUMP JUMPDEST PUSH1 0x40 MLOAD PUSH1 0x1F DUP4 ADD PUSH1 0x1F NOT SWAP1 DUP2 AND PUSH1 0x3F ADD AND DUP2 ADD SWAP1 DUP3 DUP3 GT DUP2 DUP4 LT OR ISZERO PUSH2 0x3A7 JUMPI PUSH2 0x3A7 PUSH2 0x341 JUMP JUMPDEST DUP2 PUSH1 0x40 MSTORE DUP4 DUP2 MSTORE DUP7 PUSH1 0x20 DUP6 DUP9 ADD ADD GT ISZERO PUSH2 0x3BF JUMPI PUSH0 DUP1 REVERT JUMPDEST DUP4 PUSH1 0x20 DUP8 ADD PUSH1 0x20 DUP4 ADD CALLDATACOPY PUSH0 PUSH1 0x20 DUP6 DUP4 ADD ADD MSTORE DUP1 SWAP5 POP POP POP POP POP SWAP3 SWAP2 POP POP JUMP JUMPDEST PUSH0 PUSH1 0x20 DUP3 DUP5 SUB SLT ISZERO PUSH2 0x3EE JUMPI PUSH0 DUP1 REVERT JUMPDEST DUP2 CALLDATALOAD PUSH8 0xFFFFFFFFFFFFFFFF DUP2 GT ISZERO PUSH2 0x404 JUMPI PUSH0 DUP1 REVERT JUMPDEST PUSH2 0x410 DUP5 DUP3 DUP6 ADD PUSH2 0x355 JUMP JUMPDEST SWAP5 SWAP4 POP POP POP POP JUMP JUMPDEST PUSH0 DUP1 PUSH0 PUSH1 0x60 DUP5 DUP7 SUB SLT ISZERO PUSH2 0x42A JUMPI PUSH0 DUP1 REVERT JUMPDEST DUP4 CALLDATALOAD PUSH8 0xFFFFFFFFFFFFFFFF DUP1 DUP3 GT ISZERO PUSH2 0x441 JUMPI PUSH0 DUP1 REVERT JUMPDEST PUSH2 0x44D DUP8 DUP4 DUP9 ADD PUSH2 0x355 JUMP JUMPDEST SWAP5 POP PUSH1 0x20 DUP7 ADD CALLDATALOAD SWAP2 POP DUP1 DUP3 GT ISZERO PUSH2 0x462 JUMPI PUSH0 DUP1 REVERT JUMPDEST PUSH2 0x46E DUP8 DUP4 DUP9 ADD PUSH2 0x355 JUMP JUMPDEST SWAP4 POP PUSH1 0x40 DUP7 ADD CALLDATALOAD SWAP2 POP DUP1 DUP3 GT ISZERO PUSH2 0x483 JUMPI PUSH0 DUP1 REVERT JUMPDEST POP PUSH2 0x490 DUP7 DUP3 DUP8 ADD PUSH2 0x355 JUMP JUMPDEST SWAP2 POP POP SWAP3 POP SWAP3 POP SWAP3 JUMP JUMPDEST PUSH0 DUP3 MLOAD PUSH0 JUMPDEST DUP2 DUP2 LT ISZERO PUSH2 0x4B9 JUMPI PUSH1 0x20 DUP2 DUP7 ADD DUP2 ADD MLOAD DUP6 DUP4 ADD MSTORE ADD PUSH2 0x49F JUMP JUMPDEST POP PUSH0 SWAP3 ADD SWAP2 DUP3 MSTORE POP SWAP2 SWAP1 POP JUMP JUMPDEST PUSH1 0x1 DUP2 DUP2 SHR SWAP1 DUP3 AND DUP1 PUSH2 0x4DA JUMPI PUSH1 0x7F DUP3 AND SWAP2 POP JUMPDEST PUSH1 0x20 DUP3 LT DUP2 SUB PUSH2 0x4F8 JUMPI PUSH4 0x4E487B71 PUSH1 0xE0 SHL PUSH0 MSTORE PUSH1 0x22 PUSH1 0x4 MSTORE PUSH1 0x24 PUSH0 REVERT JUMPDEST POP SWAP2 SWAP1 POP JUMP JUMPDEST PUSH1 0x1F DUP3 GT ISZERO PUSH2 0x547 JUMPI PUSH0 DUP2 DUP2 MSTORE PUSH1 0x20 DUP2 KECCAK256 PUSH1 0x1F DUP6 ADD PUSH1 0x5 SHR DUP2 ADD PUSH1 0x20 DUP7 LT ISZERO PUSH2 0x524 JUMPI POP DUP1 JUMPDEST PUSH1 0x1F DUP6 ADD PUSH1 0x5 SHR DUP3 ADD SWAP2 POP JUMPDEST DUP2 DUP2 LT ISZERO PUSH2 0x543 JUMPI DUP3 DUP2 SSTORE PUSH1 0x1 ADD PUSH2 0x530 JUMP JUMPDEST POP POP POP JUMPDEST POP POP POP JUMP JUMPDEST DUP2 MLOAD PUSH8 0xFFFFFFFFFFFFFFFF DUP2 GT ISZERO PUSH2 0x566 JUMPI PUSH2 0x566 PUSH2 0x341 JUMP JUMPDEST PUSH2 0x57A DUP2 PUSH2 0x574 DUP5 SLOAD PUSH2 0x4C6 JUMP JUMPDEST DUP5 PUSH2 0x4FE JUMP JUMPDEST PUSH1 0x20 DUP1 PUSH1 0x1F DUP4 GT PUSH1 0x1 DUP2 EQ PUSH2 0x5AD JUMPI PUSH0 DUP5 ISZERO PUSH2 0x596 JUMPI POP DUP6 DUP4 ADD MLOAD JUMPDEST PUSH0 NOT PUSH1 0x3 DUP7 SWAP1 SHL SHR NOT AND PUSH1 0x1 DUP6 SWAP1 SHL OR DUP6 SSTORE PUSH2 0x543 JUMP JUMPDEST PUSH0 DUP6 DUP2 MSTORE PUSH1 0x20 DUP2 KECCAK256 PUSH1 0x1F NOT DUP7 AND SWAP2 JUMPDEST DUP3 DUP2 LT ISZERO PUSH2 0x5DB JUMPI DUP9 DUP7 ADD MLOAD DUP3 SSTORE SWAP5 DUP5 ADD SWAP5 PUSH1 0x1 SWAP1 SWAP2 ADD SWAP1 DUP5 ADD PUSH2 0x5BC JUMP JUMPDEST POP DUP6 DUP3 LT ISZERO PUSH2 0x5F8 JUMPI DUP8 DUP6 ADD MLOAD PUSH0 NOT PUSH1 0x3 DUP9 SWAP1 SHL PUSH1 0xF8 AND SHR NOT AND DUP2 SSTORE JUMPDEST POP POP POP POP POP PUSH1 0x1 SWAP1 DUP2 SHL ADD SWAP1 SSTORE POP JUMP INVALID LOG2 PUSH5 0x6970667358 0x22 SLT KECCAK256 0xE4 EXTCODECOPY DUP15 PUSH32 0x571CACE2117972A56C04E55F1A0EF1C236714C618205B42A25DFFB7B64736F6C PUSH4 0x43000815 STOP CALLER "
				},
				"gasEstimates": {
					"creation": {
						"codeDepositCost": "319600",
						"executionCost": "24576",
						"totalCost": "344176"
					},
					"external": {
						"check()": "2290",
						"make(string,string,string)": "infinite",
						"views(string)": "infinite"
					}
				},
				"methodIdentifiers": {
					"check()": "919840ad",
					"make(string,string,string)": "9c1d98e2",
					"views(string)": "6f7b18fd"
				}
			},
			"storageLayout": {
				"storage": [
					{
						"astId": 13,
						"contract": "TokenSGTX/contracts/exmaple.sol:exampleSoft",
						"label": "someBoolVar",
						"offset": 0,
						"slot": "0",
						"type": "t_bool"
					},
					{
						"astId": 18,
						"contract": "TokenSGTX/contracts/exmaple.sol:exampleSoft",
						"label": "mp",
						"offset": 0,
						"slot": "1",
						"type": "t_mapping(t_string_memory_ptr,t_struct(lol)10_storage)"
					}
				],
				"types": {
					"t_bool": {
						"encoding": "inplace",
						"label": "bool",
						"numberOfBytes": "1"
					},
					"t_mapping(t_string_memory_ptr,t_struct(lol)10_storage)": {
						"encoding": "mapping",
						"key": "t_string_memory_ptr",
						"label": "mapping(string => struct exampleSoft.lol)",
						"numberOfBytes": "32",
						"value": "t_struct(lol)10_storage"
					},
					"t_string_memory_ptr": {
						"encoding": "bytes",
						"label": "string",
						"numberOfBytes": "32"
					},
					"t_string_storage": {
						"encoding": "bytes",
						"label": "string",
						"numberOfBytes": "32"
					},
					"t_struct(lol)10_storage": {
						"encoding": "inplace",
						"label": "struct exampleSoft.lol",
						"members": [
							{
								"astId": 3,
								"contract": "TokenSGTX/contracts/exmaple.sol:exampleSoft",
								"label": "lolOne",
								"offset": 0,
								"slot": "0",
								"type": "t_string_storage"
							},
							{
								"astId": 5,
								"contract": "TokenSGTX/contracts/exmaple.sol:exampleSoft",
								"label": "loltwo",
								"offset": 0,
								"slot": "1",
								"type": "t_string_storage"
							},
							{
								"astId": 7,
								"contract": "TokenSGTX/contracts/exmaple.sol:exampleSoft",
								"label": "loltree",
								"offset": 0,
								"slot": "2",
								"type": "t_string_storage"
							},
							{
								"astId": 9,
								"contract": "TokenSGTX/contracts/exmaple.sol:exampleSoft",
								"label": "isValid",
								"offset": 0,
								"slot": "3",
								"type": "t_bool"
							}
						],
						"numberOfBytes": "128"
					}
				}
			},
			"userdoc": {
				"kind": "user",
				"methods": {},
				"version": 1
			}
		}
	}
}