{
	"data": {
		"bytecode": {
			"linkReferences": {},
			"object": "608060405234801561000f575f80fd5b506103588061001d5f395ff3fe60806040526004361061001d575f3560e01c8063cd4b1a2b14610021575b5f80fd5b61003b60048036038101906100369190610211565b61003d565b005b3373ffffffffffffffffffffffffffffffffffffffff167f611e11678333f6dd0911d8d4ab98b533d7157f66d3c473416a8a0fc1bca4e89c83836040516100859291906102f4565b60405180910390a25050565b5f604051905090565b5f80fd5b5f80fd5b5f80fd5b5f80fd5b5f601f19601f8301169050919050565b7f4e487b71000000000000000000000000000000000000000000000000000000005f52604160045260245ffd5b6100f0826100aa565b810181811067ffffffffffffffff8211171561010f5761010e6100ba565b5b80604052505050565b5f610121610091565b905061012d82826100e7565b919050565b5f67ffffffffffffffff82111561014c5761014b6100ba565b5b610155826100aa565b9050602081019050919050565b828183375f83830152505050565b5f61018261017d84610132565b610118565b90508281526020810184848401111561019e5761019d6100a6565b5b6101a9848285610162565b509392505050565b5f82601f8301126101c5576101c46100a2565b5b81356101d5848260208601610170565b91505092915050565b5f819050919050565b6101f0816101de565b81146101fa575f80fd5b50565b5f8135905061020b816101e7565b92915050565b5f80604083850312156102275761022661009a565b5b5f83013567ffffffffffffffff8111156102445761024361009e565b5b610250858286016101b1565b9250506020610261858286016101fd565b9150509250929050565b5f81519050919050565b5f82825260208201905092915050565b5f5b838110156102a2578082015181840152602081019050610287565b5f8484015250505050565b5f6102b78261026b565b6102c18185610275565b93506102d1818560208601610285565b6102da816100aa565b840191505092915050565b6102ee816101de565b82525050565b5f6040820190508181035f83015261030c81856102ad565b905061031b60208301846102e5565b939250505056fea26469706673582212201cfe624341a8ed1e4824fee9bbb4ec7f4a8385bf19e354988c60a1e6c5ba446e64736f6c63430008150033",
			"opcodes": "PUSH1 0x80 PUSH1 0x40 MSTORE CALLVALUE DUP1 ISZERO PUSH2 0xF JUMPI PUSH0 DUP1 REVERT JUMPDEST POP PUSH2 0x358 DUP1 PUSH2 0x1D PUSH0 CODECOPY PUSH0 RETURN INVALID PUSH1 0x80 PUSH1 0x40 MSTORE PUSH1 0x4 CALLDATASIZE LT PUSH2 0x1D JUMPI PUSH0 CALLDATALOAD PUSH1 0xE0 SHR DUP1 PUSH4 0xCD4B1A2B EQ PUSH2 0x21 JUMPI JUMPDEST PUSH0 DUP1 REVERT JUMPDEST PUSH2 0x3B PUSH1 0x4 DUP1 CALLDATASIZE SUB DUP2 ADD SWAP1 PUSH2 0x36 SWAP2 SWAP1 PUSH2 0x211 JUMP JUMPDEST PUSH2 0x3D JUMP JUMPDEST STOP JUMPDEST CALLER PUSH20 0xFFFFFFFFFFFFFFFFFFFFFFFFFFFFFFFFFFFFFFFF AND PUSH32 0x611E11678333F6DD0911D8D4AB98B533D7157F66D3C473416A8A0FC1BCA4E89C DUP4 DUP4 PUSH1 0x40 MLOAD PUSH2 0x85 SWAP3 SWAP2 SWAP1 PUSH2 0x2F4 JUMP JUMPDEST PUSH1 0x40 MLOAD DUP1 SWAP2 SUB SWAP1 LOG2 POP POP JUMP JUMPDEST PUSH0 PUSH1 0x40 MLOAD SWAP1 POP SWAP1 JUMP JUMPDEST PUSH0 DUP1 REVERT JUMPDEST PUSH0 DUP1 REVERT JUMPDEST PUSH0 DUP1 REVERT JUMPDEST PUSH0 DUP1 REVERT JUMPDEST PUSH0 PUSH1 0x1F NOT PUSH1 0x1F DUP4 ADD AND SWAP1 POP SWAP2 SWAP1 POP JUMP JUMPDEST PUSH32 0x4E487B7100000000000000000000000000000000000000000000000000000000 PUSH0 MSTORE PUSH1 0x41 PUSH1 0x4 MSTORE PUSH1 0x24 PUSH0 REVERT JUMPDEST PUSH2 0xF0 DUP3 PUSH2 0xAA JUMP JUMPDEST DUP2 ADD DUP2 DUP2 LT PUSH8 0xFFFFFFFFFFFFFFFF DUP3 GT OR ISZERO PUSH2 0x10F JUMPI PUSH2 0x10E PUSH2 0xBA JUMP JUMPDEST JUMPDEST DUP1 PUSH1 0x40 MSTORE POP POP POP JUMP JUMPDEST PUSH0 PUSH2 0x121 PUSH2 0x91 JUMP JUMPDEST SWAP1 POP PUSH2 0x12D DUP3 DUP3 PUSH2 0xE7 JUMP JUMPDEST SWAP2 SWAP1 POP JUMP JUMPDEST PUSH0 PUSH8 0xFFFFFFFFFFFFFFFF DUP3 GT ISZERO PUSH2 0x14C JUMPI PUSH2 0x14B PUSH2 0xBA JUMP JUMPDEST JUMPDEST PUSH2 0x155 DUP3 PUSH2 0xAA JUMP JUMPDEST SWAP1 POP PUSH1 0x20 DUP2 ADD SWAP1 POP SWAP2 SWAP1 POP JUMP JUMPDEST DUP3 DUP2 DUP4 CALLDATACOPY PUSH0 DUP4 DUP4 ADD MSTORE POP POP POP JUMP JUMPDEST PUSH0 PUSH2 0x182 PUSH2 0x17D DUP5 PUSH2 0x132 JUMP JUMPDEST PUSH2 0x118 JUMP JUMPDEST SWAP1 POP DUP3 DUP2 MSTORE PUSH1 0x20 DUP2 ADD DUP5 DUP5 DUP5 ADD GT ISZERO PUSH2 0x19E JUMPI PUSH2 0x19D PUSH2 0xA6 JUMP JUMPDEST JUMPDEST PUSH2 0x1A9 DUP5 DUP3 DUP6 PUSH2 0x162 JUMP JUMPDEST POP SWAP4 SWAP3 POP POP POP JUMP JUMPDEST PUSH0 DUP3 PUSH1 0x1F DUP4 ADD SLT PUSH2 0x1C5 JUMPI PUSH2 0x1C4 PUSH2 0xA2 JUMP JUMPDEST JUMPDEST DUP2 CALLDATALOAD PUSH2 0x1D5 DUP5 DUP3 PUSH1 0x20 DUP7 ADD PUSH2 0x170 JUMP JUMPDEST SWAP2 POP POP SWAP3 SWAP2 POP POP JUMP JUMPDEST PUSH0 DUP2 SWAP1 POP SWAP2 SWAP1 POP JUMP JUMPDEST PUSH2 0x1F0 DUP2 PUSH2 0x1DE JUMP JUMPDEST DUP2 EQ PUSH2 0x1FA JUMPI PUSH0 DUP1 REVERT JUMPDEST POP JUMP JUMPDEST PUSH0 DUP2 CALLDATALOAD SWAP1 POP PUSH2 0x20B DUP2 PUSH2 0x1E7 JUMP JUMPDEST SWAP3 SWAP2 POP POP JUMP JUMPDEST PUSH0 DUP1 PUSH1 0x40 DUP4 DUP6 SUB SLT ISZERO PUSH2 0x227 JUMPI PUSH2 0x226 PUSH2 0x9A JUMP JUMPDEST JUMPDEST PUSH0 DUP4 ADD CALLDATALOAD PUSH8 0xFFFFFFFFFFFFFFFF DUP2 GT ISZERO PUSH2 0x244 JUMPI PUSH2 0x243 PUSH2 0x9E JUMP JUMPDEST JUMPDEST PUSH2 0x250 DUP6 DUP3 DUP7 ADD PUSH2 0x1B1 JUMP JUMPDEST SWAP3 POP POP PUSH1 0x20 PUSH2 0x261 DUP6 DUP3 DUP7 ADD PUSH2 0x1FD JUMP JUMPDEST SWAP2 POP POP SWAP3 POP SWAP3 SWAP1 POP JUMP JUMPDEST PUSH0 DUP2 MLOAD SWAP1 POP SWAP2 SWAP1 POP JUMP JUMPDEST PUSH0 DUP3 DUP3 MSTORE PUSH1 0x20 DUP3 ADD SWAP1 POP SWAP3 SWAP2 POP POP JUMP JUMPDEST PUSH0 JUMPDEST DUP4 DUP2 LT ISZERO PUSH2 0x2A2 JUMPI DUP1 DUP3 ADD MLOAD DUP2 DUP5 ADD MSTORE PUSH1 0x20 DUP2 ADD SWAP1 POP PUSH2 0x287 JUMP JUMPDEST PUSH0 DUP5 DUP5 ADD MSTORE POP POP POP POP JUMP JUMPDEST PUSH0 PUSH2 0x2B7 DUP3 PUSH2 0x26B JUMP JUMPDEST PUSH2 0x2C1 DUP2 DUP6 PUSH2 0x275 JUMP JUMPDEST SWAP4 POP PUSH2 0x2D1 DUP2 DUP6 PUSH1 0x20 DUP7 ADD PUSH2 0x285 JUMP JUMPDEST PUSH2 0x2DA DUP2 PUSH2 0xAA JUMP JUMPDEST DUP5 ADD SWAP2 POP POP SWAP3 SWAP2 POP POP JUMP JUMPDEST PUSH2 0x2EE DUP2 PUSH2 0x1DE JUMP JUMPDEST DUP3 MSTORE POP POP JUMP JUMPDEST PUSH0 PUSH1 0x40 DUP3 ADD SWAP1 POP DUP2 DUP2 SUB PUSH0 DUP4 ADD MSTORE PUSH2 0x30C DUP2 DUP6 PUSH2 0x2AD JUMP JUMPDEST SWAP1 POP PUSH2 0x31B PUSH1 0x20 DUP4 ADD DUP5 PUSH2 0x2E5 JUMP JUMPDEST SWAP4 SWAP3 POP POP POP JUMP INVALID LOG2 PUSH5 0x6970667358 0x22 SLT KECCAK256 SHR INVALID PUSH3 0x4341A8 0xED 0x1E BASEFEE 0x24 INVALID 0xE9 0xBB 0xB4 0xEC PUSH32 0x4A8385BF19E354988C60A1E6C5BA446E64736F6C634300081500330000000000 "
		},
		"gasEstimates": {
			"creation": {
				"codeDepositCost": "171200",
				"executionCost": "212",
				"totalCost": "171412"
			},
			"external": {
				"createLicencia(string,uint256)": "infinite"
			}
		},
		"methodIdentifiers": {
			"createLicencia(string,uint256)": "cd4b1a2b"
		}
	},
	"abi": [
		{
			"anonymous": false,
			"inputs": [
				{
					"indexed": true,
					"internalType": "address",
					"name": "_from",
					"type": "address"
				},
				{
					"indexed": false,
					"internalType": "string",
					"name": "_rif",
					"type": "string"
				},
				{
					"indexed": false,
					"internalType": "uint256",
					"name": "_date",
					"type": "uint256"
				}
			],
			"name": "licencia",
			"type": "event"
		},
		{
			"inputs": [
				{
					"internalType": "string",
					"name": "_rif",
					"type": "string"
				},
				{
					"internalType": "uint256",
					"name": "_date",
					"type": "uint256"
				}
			],
			"name": "createLicencia",
			"outputs": [],
			"stateMutability": "payable",
			"type": "function"
		}
	]
}