{
	"TokenSGTX/contracts/Examples_Contracts/exmaple.sol": {
		"exampleSoft": {
			"abi": [
				{
					"inputs": [],
					"name": "CustomErrorMaker",
					"type": "error"
				},
				{
					"inputs": [],
					"name": "check",
					"outputs": [
						{
							"internalType": "bool",
							"name": "",
							"type": "bool"
						}
					],
					"stateMutability": "view",
					"type": "function"
				},
				{
					"inputs": [],
					"name": "check_one",
					"outputs": [
						{
							"internalType": "bool",
							"name": "",
							"type": "bool"
						}
					],
					"stateMutability": "view",
					"type": "function"
				},
				{
					"inputs": [
						{
							"internalType": "string",
							"name": "a",
							"type": "string"
						},
						{
							"internalType": "string",
							"name": "b",
							"type": "string"
						},
						{
							"internalType": "string",
							"name": "c",
							"type": "string"
						}
					],
					"name": "make",
					"outputs": [
						{
							"internalType": "bool",
							"name": "",
							"type": "bool"
						}
					],
					"stateMutability": "payable",
					"type": "function"
				},
				{
					"inputs": [
						{
							"internalType": "uint256",
							"name": "number",
							"type": "uint256"
						}
					],
					"name": "makeError",
					"outputs": [
						{
							"internalType": "bool",
							"name": "",
							"type": "bool"
						}
					],
					"stateMutability": "nonpayable",
					"type": "function"
				},
				{
					"inputs": [
						{
							"internalType": "string",
							"name": "a",
							"type": "string"
						}
					],
					"name": "views",
					"outputs": [
						{
							"internalType": "bool",
							"name": "",
							"type": "bool"
						}
					],
					"stateMutability": "view",
					"type": "function"
				}
			],
			"devdoc": {
				"kind": "dev",
				"methods": {},
				"version": 1
			},
			"evm": {
				"assembly": "    /* \"TokenSGTX/contracts/Examples_Contracts/exmaple.sol\":62:1091  contract exampleSoft {... */\n  mstore(0x40, 0x80)\n    /* \"TokenSGTX/contracts/Examples_Contracts/exmaple.sol\":215:238  bool someBoolVar = true */\n  0x00\n  dup1\n  sload\n  not(0xff)\n  and\n    /* \"TokenSGTX/contracts/Examples_Contracts/exmaple.sol\":234:238  true */\n  0x01\n    /* \"TokenSGTX/contracts/Examples_Contracts/exmaple.sol\":215:238  bool someBoolVar = true */\n  or\n  swap1\n  sstore\n    /* \"TokenSGTX/contracts/Examples_Contracts/exmaple.sol\":62:1091  contract exampleSoft {... */\n  callvalue\n  dup1\n  iszero\n  tag_1\n  jumpi\n  0x00\n  dup1\n  revert\ntag_1:\n  pop\n  dataSize(sub_0)\n  dup1\n  dataOffset(sub_0)\n  0x00\n  codecopy\n  0x00\n  return\nstop\n\nsub_0: assembly {\n        /* \"TokenSGTX/contracts/Examples_Contracts/exmaple.sol\":62:1091  contract exampleSoft {... */\n      mstore(0x40, 0x80)\n      jumpi(tag_1, lt(calldatasize, 0x04))\n      shr(0xe0, calldataload(0x00))\n      dup1\n      0x26803a7f\n      eq\n      tag_2\n      jumpi\n      dup1\n      0x6f7b18fd\n      eq\n      tag_3\n      jumpi\n      dup1\n      0x919840ad\n      eq\n      tag_2\n      jumpi\n      dup1\n      0x9c1d98e2\n      eq\n      tag_5\n      jumpi\n      dup1\n      0xf9e1aeb1\n      eq\n      tag_6\n      jumpi\n    tag_1:\n      0x00\n      dup1\n      revert\n        /* \"TokenSGTX/contracts/Examples_Contracts/exmaple.sol\":809:901  function check_one() public view virtual returns(bool ){... */\n    tag_2:\n      callvalue\n      dup1\n      iszero\n      tag_7\n      jumpi\n      0x00\n      dup1\n      revert\n    tag_7:\n      pop\n        /* \"TokenSGTX/contracts/Examples_Contracts/exmaple.sol\":858:862  bool */\n      0x00\n        /* \"TokenSGTX/contracts/Examples_Contracts/exmaple.sol\":882:893  someBoolVar */\n      sload\n      0xff\n      and\n        /* \"TokenSGTX/contracts/Examples_Contracts/exmaple.sol\":809:901  function check_one() public view virtual returns(bool ){... */\n    tag_8:\n      mload(0x40)\n        /* \"#utility.yul\":179:193   */\n      swap1\n      iszero\n        /* \"#utility.yul\":172:194   */\n      iszero\n        /* \"#utility.yul\":154:195   */\n      dup2\n      mstore\n        /* \"#utility.yul\":142:144   */\n      0x20\n        /* \"#utility.yul\":127:145   */\n      add\n        /* \"TokenSGTX/contracts/Examples_Contracts/exmaple.sol\":809:901  function check_one() public view virtual returns(bool ){... */\n      mload(0x40)\n      dup1\n      swap2\n      sub\n      swap1\n      return\n        /* \"TokenSGTX/contracts/Examples_Contracts/exmaple.sol\":513:709  function views(string memory a) public view returns(bool) {... */\n    tag_3:\n      callvalue\n      dup1\n      iszero\n      tag_12\n      jumpi\n      0x00\n      dup1\n      revert\n    tag_12:\n      pop\n      tag_8\n      tag_14\n      calldatasize\n      0x04\n      tag_15\n      jump\t// in\n    tag_14:\n      tag_16\n      jump\t// in\n        /* \"TokenSGTX/contracts/Examples_Contracts/exmaple.sol\":315:505  function make(string memory a, string memory b, string memory c) public payable returns(bool) {... */\n    tag_5:\n      tag_8\n      tag_23\n      calldatasize\n      0x04\n      tag_24\n      jump\t// in\n    tag_23:\n      tag_25\n      jump\t// in\n        /* \"TokenSGTX/contracts/Examples_Contracts/exmaple.sol\":909:1082  function makeError(uint number) public returns(bool) {... */\n    tag_6:\n      callvalue\n      dup1\n      iszero\n      tag_27\n      jumpi\n      0x00\n      dup1\n      revert\n    tag_27:\n      pop\n      tag_8\n      tag_29\n      calldatasize\n      0x04\n      tag_30\n      jump\t// in\n    tag_29:\n      tag_31\n      jump\t// in\n        /* \"TokenSGTX/contracts/Examples_Contracts/exmaple.sol\":513:709  function views(string memory a) public view returns(bool) {... */\n    tag_16:\n        /* \"TokenSGTX/contracts/Examples_Contracts/exmaple.sol\":565:569  bool */\n      0x00\n        /* \"TokenSGTX/contracts/Examples_Contracts/exmaple.sol\":582:596  lol memory obj */\n      dup1\n        /* \"TokenSGTX/contracts/Examples_Contracts/exmaple.sol\":599:601  mp */\n      0x01\n        /* \"TokenSGTX/contracts/Examples_Contracts/exmaple.sol\":602:603  a */\n      dup4\n        /* \"TokenSGTX/contracts/Examples_Contracts/exmaple.sol\":599:604  mp[a] */\n      mload(0x40)\n      tag_35\n      swap2\n      swap1\n      tag_36\n      jump\t// in\n    tag_35:\n      swap1\n      dup2\n      mstore\n      0x20\n      add\n      mload(0x40)\n      dup1\n      swap2\n      sub\n      swap1\n      keccak256\n        /* \"TokenSGTX/contracts/Examples_Contracts/exmaple.sol\":582:604  lol memory obj = mp[a] */\n      mload(0x40)\n      dup1\n      0x80\n      add\n      0x40\n      mstore\n      swap1\n      dup2\n      0x00\n      dup3\n      add\n      dup1\n      sload\n      tag_37\n      swap1\n      tag_38\n      jump\t// in\n    tag_37:\n      dup1\n      0x1f\n      add\n      0x20\n      dup1\n      swap2\n      div\n      mul\n      0x20\n      add\n      mload(0x40)\n      swap1\n      dup2\n      add\n      0x40\n      mstore\n      dup1\n      swap3\n      swap2\n      swap1\n      dup2\n      dup2\n      mstore\n      0x20\n      add\n      dup3\n      dup1\n      sload\n      tag_39\n      swap1\n      tag_38\n      jump\t// in\n    tag_39:\n      dup1\n      iszero\n      tag_40\n      jumpi\n      dup1\n      0x1f\n      lt\n      tag_41\n      jumpi\n      0x0100\n      dup1\n      dup4\n      sload\n      div\n      mul\n      dup4\n      mstore\n      swap2\n      0x20\n      add\n      swap2\n      jump(tag_40)\n    tag_41:\n      dup3\n      add\n      swap2\n      swap1\n      0x00\n      mstore\n      keccak256(0x00, 0x20)\n      swap1\n    tag_42:\n      dup2\n      sload\n      dup2\n      mstore\n      swap1\n      0x01\n      add\n      swap1\n      0x20\n      add\n      dup1\n      dup4\n      gt\n      tag_42\n      jumpi\n      dup3\n      swap1\n      sub\n      0x1f\n      and\n      dup3\n      add\n      swap2\n    tag_40:\n      pop\n      pop\n      pop\n      pop\n      pop\n      dup2\n      mstore\n      0x20\n      add\n      0x01\n      dup3\n      add\n      dup1\n      sload\n      tag_43\n      swap1\n      tag_38\n      jump\t// in\n    tag_43:\n      dup1\n      0x1f\n      add\n      0x20\n      dup1\n      swap2\n      div\n      mul\n      0x20\n      add\n      mload(0x40)\n      swap1\n      dup2\n      add\n      0x40\n      mstore\n      dup1\n      swap3\n      swap2\n      swap1\n      dup2\n      dup2\n      mstore\n      0x20\n      add\n      dup3\n      dup1\n      sload\n      tag_44\n      swap1\n      tag_38\n      jump\t// in\n    tag_44:\n      dup1\n      iszero\n      tag_45\n      jumpi\n      dup1\n      0x1f\n      lt\n      tag_46\n      jumpi\n      0x0100\n      dup1\n      dup4\n      sload\n      div\n      mul\n      dup4\n      mstore\n      swap2\n      0x20\n      add\n      swap2\n      jump(tag_45)\n    tag_46:\n      dup3\n      add\n      swap2\n      swap1\n      0x00\n      mstore\n      keccak256(0x00, 0x20)\n      swap1\n    tag_47:\n      dup2\n      sload\n      dup2\n      mstore\n      swap1\n      0x01\n      add\n      swap1\n      0x20\n      add\n      dup1\n      dup4\n      gt\n      tag_47\n      jumpi\n      dup3\n      swap1\n      sub\n      0x1f\n      and\n      dup3\n      add\n      swap2\n    tag_45:\n      pop\n      pop\n      pop\n      pop\n      pop\n      dup2\n      mstore\n      0x20\n      add\n      0x02\n      dup3\n      add\n      dup1\n      sload\n      tag_48\n      swap1\n      tag_38\n      jump\t// in\n    tag_48:\n      dup1\n      0x1f\n      add\n      0x20\n      dup1\n      swap2\n      div\n      mul\n      0x20\n      add\n      mload(0x40)\n      swap1\n      dup2\n      add\n      0x40\n      mstore\n      dup1\n      swap3\n      swap2\n      swap1\n      dup2\n      dup2\n      mstore\n      0x20\n      add\n      dup3\n      dup1\n      sload\n      tag_49\n      swap1\n      tag_38\n      jump\t// in\n    tag_49:\n      dup1\n      iszero\n      tag_50\n      jumpi\n      dup1\n      0x1f\n      lt\n      tag_51\n      jumpi\n      0x0100\n      dup1\n      dup4\n      sload\n      div\n      mul\n      dup4\n      mstore\n      swap2\n      0x20\n      add\n      swap2\n      jump(tag_50)\n    tag_51:\n      dup3\n      add\n      swap2\n      swap1\n      0x00\n      mstore\n      keccak256(0x00, 0x20)\n      swap1\n    tag_52:\n      dup2\n      sload\n      dup2\n      mstore\n      swap1\n      0x01\n      add\n      swap1\n      0x20\n      add\n      dup1\n      dup4\n      gt\n      tag_52\n      jumpi\n      dup3\n      swap1\n      sub\n      0x1f\n      and\n      dup3\n      add\n      swap2\n    tag_50:\n      pop\n      pop\n      pop\n      swap2\n      dup4\n      mstore\n      pop\n      pop\n      0x03\n      swap2\n      swap1\n      swap2\n      add\n      sload\n      0xff\n      and\n      iszero\n      iszero\n      0x20\n      swap1\n      swap2\n      add\n      mstore\n        /* \"TokenSGTX/contracts/Examples_Contracts/exmaple.sol\":618:629  obj.isValid */\n      0x60\n      dup2\n      add\n      mload\n        /* \"TokenSGTX/contracts/Examples_Contracts/exmaple.sol\":582:604  lol memory obj = mp[a] */\n      swap1\n      swap2\n      pop\n        /* \"TokenSGTX/contracts/Examples_Contracts/exmaple.sol\":618:638  obj.isValid == false */\n      iszero\n      iszero\n        /* \"TokenSGTX/contracts/Examples_Contracts/exmaple.sol\":582:604  lol memory obj = mp[a] */\n      0x00\n        /* \"TokenSGTX/contracts/Examples_Contracts/exmaple.sol\":618:638  obj.isValid == false */\n      sub\n        /* \"TokenSGTX/contracts/Examples_Contracts/exmaple.sol\":615:680  if(obj.isValid == false ) {... */\n      tag_53\n      jumpi\n      pop\n        /* \"TokenSGTX/contracts/Examples_Contracts/exmaple.sol\":663:668  false */\n      0x00\n      swap3\n        /* \"TokenSGTX/contracts/Examples_Contracts/exmaple.sol\":513:709  function views(string memory a) public view returns(bool) {... */\n      swap2\n      pop\n      pop\n      jump\t// out\n        /* \"TokenSGTX/contracts/Examples_Contracts/exmaple.sol\":615:680  if(obj.isValid == false ) {... */\n    tag_53:\n      pop\n        /* \"TokenSGTX/contracts/Examples_Contracts/exmaple.sol\":697:701  true */\n      0x01\n      swap3\n        /* \"TokenSGTX/contracts/Examples_Contracts/exmaple.sol\":513:709  function views(string memory a) public view returns(bool) {... */\n      swap2\n      pop\n      pop\n      jump\t// out\n        /* \"TokenSGTX/contracts/Examples_Contracts/exmaple.sol\":315:505  function make(string memory a, string memory b, string memory c) public payable returns(bool) {... */\n    tag_25:\n        /* \"TokenSGTX/contracts/Examples_Contracts/exmaple.sol\":437:453  lol(a,b,c, true) */\n      0x40\n      dup1\n      mload\n      0x80\n      dup2\n      add\n      dup3\n      mstore\n      dup5\n      dup2\n      mstore\n      0x20\n      dup2\n      add\n      dup5\n      swap1\n      mstore\n      dup1\n      dup3\n      add\n      dup4\n      swap1\n      mstore\n        /* \"TokenSGTX/contracts/Examples_Contracts/exmaple.sol\":448:452  true */\n      0x01\n        /* \"TokenSGTX/contracts/Examples_Contracts/exmaple.sol\":437:453  lol(a,b,c, true) */\n      0x60\n      dup3\n      add\n      dup2\n      swap1\n      mstore\n        /* \"TokenSGTX/contracts/Examples_Contracts/exmaple.sol\":464:469  mp[a] */\n      swap2\n      mload\n        /* \"TokenSGTX/contracts/Examples_Contracts/exmaple.sol\":403:407  bool */\n      0x00\n      swap3\n        /* \"TokenSGTX/contracts/Examples_Contracts/exmaple.sol\":437:453  lol(a,b,c, true) */\n      dup3\n      swap2\n        /* \"TokenSGTX/contracts/Examples_Contracts/exmaple.sol\":464:469  mp[a] */\n      tag_56\n      swap1\n        /* \"TokenSGTX/contracts/Examples_Contracts/exmaple.sol\":441:442  a */\n      dup9\n      swap1\n        /* \"TokenSGTX/contracts/Examples_Contracts/exmaple.sol\":464:469  mp[a] */\n      tag_36\n      jump\t// in\n    tag_56:\n      swap1\n      dup2\n      mstore\n      mload(0x40)\n      swap1\n      dup2\n      swap1\n      sub\n      0x20\n      add\n      swap1\n      keccak256\n        /* \"TokenSGTX/contracts/Examples_Contracts/exmaple.sol\":464:475  mp[a] = obj */\n      dup2\n      mload\n        /* \"TokenSGTX/contracts/Examples_Contracts/exmaple.sol\":464:469  mp[a] */\n      dup2\n      swap1\n        /* \"TokenSGTX/contracts/Examples_Contracts/exmaple.sol\":464:475  mp[a] = obj */\n      tag_57\n      swap1\n        /* \"TokenSGTX/contracts/Examples_Contracts/exmaple.sol\":464:469  mp[a] */\n      dup3\n        /* \"TokenSGTX/contracts/Examples_Contracts/exmaple.sol\":464:475  mp[a] = obj */\n      tag_58\n      jump\t// in\n    tag_57:\n      pop\n      0x20\n      dup3\n      add\n      mload\n      0x01\n      dup3\n      add\n      swap1\n      tag_59\n      swap1\n      dup3\n      tag_58\n      jump\t// in\n    tag_59:\n      pop\n      0x40\n      dup3\n      add\n      mload\n      0x02\n      dup3\n      add\n      swap1\n      tag_60\n      swap1\n      dup3\n      tag_58\n      jump\t// in\n    tag_60:\n      pop\n      0x60\n      swap2\n      swap1\n      swap2\n      add\n      mload\n      0x03\n      swap1\n      swap2\n      add\n      dup1\n      sload\n      not(0xff)\n      and\n      swap2\n      iszero\n      iszero\n      swap2\n      swap1\n      swap2\n      or\n      swap1\n      sstore\n      pop\n      0x01\n      swap5\n        /* \"TokenSGTX/contracts/Examples_Contracts/exmaple.sol\":315:505  function make(string memory a, string memory b, string memory c) public payable returns(bool) {... */\n      swap4\n      pop\n      pop\n      pop\n      pop\n      jump\t// out\n        /* \"TokenSGTX/contracts/Examples_Contracts/exmaple.sol\":909:1082  function makeError(uint number) public returns(bool) {... */\n    tag_31:\n        /* \"TokenSGTX/contracts/Examples_Contracts/exmaple.sol\":956:960  bool */\n      0x00\n        /* \"TokenSGTX/contracts/Examples_Contracts/exmaple.sol\":995:1001  number */\n      dup2\n        /* \"TokenSGTX/contracts/Examples_Contracts/exmaple.sol\":1005:1006  1 */\n      0x01\n        /* \"TokenSGTX/contracts/Examples_Contracts/exmaple.sol\":995:1006  number == 1 */\n      eq\n        /* \"TokenSGTX/contracts/Examples_Contracts/exmaple.sol\":973:1052  require(... */\n      tag_62\n      jumpi\n      mload(0x40)\n      shl(0xe5, 0x461bcd)\n      dup2\n      mstore\n        /* \"#utility.yul\":5532:5534   */\n      0x20\n        /* \"TokenSGTX/contracts/Examples_Contracts/exmaple.sol\":973:1052  require(... */\n      0x04\n      dup3\n      add\n        /* \"#utility.yul\":5514:5535   */\n      mstore\n        /* \"#utility.yul\":5571:5573   */\n      0x12\n        /* \"#utility.yul\":5551:5569   */\n      0x24\n      dup3\n      add\n        /* \"#utility.yul\":5544:5574   */\n      mstore\n      shl(0x70, 0x437573746f6d4572726f724d616b65722829)\n        /* \"#utility.yul\":5590:5608   */\n      0x44\n      dup3\n      add\n        /* \"#utility.yul\":5583:5631   */\n      mstore\n        /* \"#utility.yul\":5648:5666   */\n      0x64\n      add\n        /* \"TokenSGTX/contracts/Examples_Contracts/exmaple.sol\":973:1052  require(... */\n      mload(0x40)\n      dup1\n      swap2\n      sub\n      swap1\n      revert\n    tag_62:\n      pop\n        /* \"TokenSGTX/contracts/Examples_Contracts/exmaple.sol\":1070:1074  true */\n      0x01\n      swap2\n        /* \"TokenSGTX/contracts/Examples_Contracts/exmaple.sol\":909:1082  function makeError(uint number) public returns(bool) {... */\n      swap1\n      pop\n      jump\t// out\n        /* \"#utility.yul\":206:333   */\n    tag_65:\n        /* \"#utility.yul\":267:277   */\n      0x4e487b71\n        /* \"#utility.yul\":262:265   */\n      0xe0\n        /* \"#utility.yul\":258:278   */\n      shl\n        /* \"#utility.yul\":255:256   */\n      0x00\n        /* \"#utility.yul\":248:279   */\n      mstore\n        /* \"#utility.yul\":298:302   */\n      0x41\n        /* \"#utility.yul\":295:296   */\n      0x04\n        /* \"#utility.yul\":288:303   */\n      mstore\n        /* \"#utility.yul\":322:326   */\n      0x24\n        /* \"#utility.yul\":319:320   */\n      0x00\n        /* \"#utility.yul\":312:327   */\n      revert\n        /* \"#utility.yul\":338:1057   */\n    tag_66:\n        /* \"#utility.yul\":381:386   */\n      0x00\n        /* \"#utility.yul\":434:437   */\n      dup3\n        /* \"#utility.yul\":427:431   */\n      0x1f\n        /* \"#utility.yul\":419:425   */\n      dup4\n        /* \"#utility.yul\":415:432   */\n      add\n        /* \"#utility.yul\":411:438   */\n      slt\n        /* \"#utility.yul\":401:456   */\n      tag_74\n      jumpi\n        /* \"#utility.yul\":452:453   */\n      0x00\n        /* \"#utility.yul\":449:450   */\n      dup1\n        /* \"#utility.yul\":442:454   */\n      revert\n        /* \"#utility.yul\":401:456   */\n    tag_74:\n        /* \"#utility.yul\":488:494   */\n      dup2\n        /* \"#utility.yul\":475:495   */\n      calldataload\n        /* \"#utility.yul\":514:532   */\n      0xffffffffffffffff\n        /* \"#utility.yul\":551:553   */\n      dup1\n        /* \"#utility.yul\":547:549   */\n      dup3\n        /* \"#utility.yul\":544:554   */\n      gt\n        /* \"#utility.yul\":541:577   */\n      iszero\n      tag_76\n      jumpi\n        /* \"#utility.yul\":557:575   */\n      tag_76\n      tag_65\n      jump\t// in\n    tag_76:\n        /* \"#utility.yul\":632:634   */\n      0x40\n        /* \"#utility.yul\":626:635   */\n      mload\n        /* \"#utility.yul\":600:602   */\n      0x1f\n        /* \"#utility.yul\":686:699   */\n      dup4\n      add\n      not(0x1f)\n        /* \"#utility.yul\":682:704   */\n      swap1\n      dup2\n      and\n        /* \"#utility.yul\":706:708   */\n      0x3f\n        /* \"#utility.yul\":678:709   */\n      add\n        /* \"#utility.yul\":674:714   */\n      and\n        /* \"#utility.yul\":662:715   */\n      dup2\n      add\n      swap1\n        /* \"#utility.yul\":730:748   */\n      dup3\n      dup3\n      gt\n        /* \"#utility.yul\":750:772   */\n      dup2\n      dup4\n      lt\n        /* \"#utility.yul\":727:773   */\n      or\n        /* \"#utility.yul\":724:796   */\n      iszero\n      tag_78\n      jumpi\n        /* \"#utility.yul\":776:794   */\n      tag_78\n      tag_65\n      jump\t// in\n    tag_78:\n        /* \"#utility.yul\":816:826   */\n      dup2\n        /* \"#utility.yul\":812:814   */\n      0x40\n        /* \"#utility.yul\":805:827   */\n      mstore\n        /* \"#utility.yul\":851:853   */\n      dup4\n        /* \"#utility.yul\":843:849   */\n      dup2\n        /* \"#utility.yul\":836:854   */\n      mstore\n        /* \"#utility.yul\":897:900   */\n      dup7\n        /* \"#utility.yul\":890:894   */\n      0x20\n        /* \"#utility.yul\":885:887   */\n      dup6\n        /* \"#utility.yul\":877:883   */\n      dup9\n        /* \"#utility.yul\":873:888   */\n      add\n        /* \"#utility.yul\":869:895   */\n      add\n        /* \"#utility.yul\":866:901   */\n      gt\n        /* \"#utility.yul\":863:918   */\n      iszero\n      tag_79\n      jumpi\n        /* \"#utility.yul\":914:915   */\n      0x00\n        /* \"#utility.yul\":911:912   */\n      dup1\n        /* \"#utility.yul\":904:916   */\n      revert\n        /* \"#utility.yul\":863:918   */\n    tag_79:\n        /* \"#utility.yul\":978:980   */\n      dup4\n        /* \"#utility.yul\":971:975   */\n      0x20\n        /* \"#utility.yul\":963:969   */\n      dup8\n        /* \"#utility.yul\":959:976   */\n      add\n        /* \"#utility.yul\":952:956   */\n      0x20\n        /* \"#utility.yul\":944:950   */\n      dup4\n        /* \"#utility.yul\":940:957   */\n      add\n        /* \"#utility.yul\":927:981   */\n      calldatacopy\n        /* \"#utility.yul\":1025:1026   */\n      0x00\n        /* \"#utility.yul\":1018:1022   */\n      0x20\n        /* \"#utility.yul\":1013:1015   */\n      dup6\n        /* \"#utility.yul\":1005:1011   */\n      dup4\n        /* \"#utility.yul\":1001:1016   */\n      add\n        /* \"#utility.yul\":997:1023   */\n      add\n        /* \"#utility.yul\":990:1027   */\n      mstore\n        /* \"#utility.yul\":1045:1051   */\n      dup1\n        /* \"#utility.yul\":1036:1051   */\n      swap5\n      pop\n      pop\n      pop\n      pop\n      pop\n        /* \"#utility.yul\":338:1057   */\n      swap3\n      swap2\n      pop\n      pop\n      jump\t// out\n        /* \"#utility.yul\":1062:1384   */\n    tag_15:\n        /* \"#utility.yul\":1131:1137   */\n      0x00\n        /* \"#utility.yul\":1184:1186   */\n      0x20\n        /* \"#utility.yul\":1172:1181   */\n      dup3\n        /* \"#utility.yul\":1163:1170   */\n      dup5\n        /* \"#utility.yul\":1159:1182   */\n      sub\n        /* \"#utility.yul\":1155:1187   */\n      slt\n        /* \"#utility.yul\":1152:1204   */\n      iszero\n      tag_81\n      jumpi\n        /* \"#utility.yul\":1200:1201   */\n      0x00\n        /* \"#utility.yul\":1197:1198   */\n      dup1\n        /* \"#utility.yul\":1190:1202   */\n      revert\n        /* \"#utility.yul\":1152:1204   */\n    tag_81:\n        /* \"#utility.yul\":1240:1249   */\n      dup2\n        /* \"#utility.yul\":1227:1250   */\n      calldataload\n        /* \"#utility.yul\":1273:1291   */\n      0xffffffffffffffff\n        /* \"#utility.yul\":1265:1271   */\n      dup2\n        /* \"#utility.yul\":1262:1292   */\n      gt\n        /* \"#utility.yul\":1259:1309   */\n      iszero\n      tag_82\n      jumpi\n        /* \"#utility.yul\":1305:1306   */\n      0x00\n        /* \"#utility.yul\":1302:1303   */\n      dup1\n        /* \"#utility.yul\":1295:1307   */\n      revert\n        /* \"#utility.yul\":1259:1309   */\n    tag_82:\n        /* \"#utility.yul\":1328:1378   */\n      tag_83\n        /* \"#utility.yul\":1370:1377   */\n      dup5\n        /* \"#utility.yul\":1361:1367   */\n      dup3\n        /* \"#utility.yul\":1350:1359   */\n      dup6\n        /* \"#utility.yul\":1346:1368   */\n      add\n        /* \"#utility.yul\":1328:1378   */\n      tag_66\n      jump\t// in\n    tag_83:\n        /* \"#utility.yul\":1318:1378   */\n      swap5\n        /* \"#utility.yul\":1062:1384   */\n      swap4\n      pop\n      pop\n      pop\n      pop\n      jump\t// out\n        /* \"#utility.yul\":1389:2132   */\n    tag_24:\n        /* \"#utility.yul\":1496:1502   */\n      0x00\n        /* \"#utility.yul\":1504:1510   */\n      dup1\n        /* \"#utility.yul\":1512:1518   */\n      0x00\n        /* \"#utility.yul\":1565:1567   */\n      0x60\n        /* \"#utility.yul\":1553:1562   */\n      dup5\n        /* \"#utility.yul\":1544:1551   */\n      dup7\n        /* \"#utility.yul\":1540:1563   */\n      sub\n        /* \"#utility.yul\":1536:1568   */\n      slt\n        /* \"#utility.yul\":1533:1585   */\n      iszero\n      tag_85\n      jumpi\n        /* \"#utility.yul\":1581:1582   */\n      0x00\n        /* \"#utility.yul\":1578:1579   */\n      dup1\n        /* \"#utility.yul\":1571:1583   */\n      revert\n        /* \"#utility.yul\":1533:1585   */\n    tag_85:\n        /* \"#utility.yul\":1621:1630   */\n      dup4\n        /* \"#utility.yul\":1608:1631   */\n      calldataload\n        /* \"#utility.yul\":1650:1668   */\n      0xffffffffffffffff\n        /* \"#utility.yul\":1691:1693   */\n      dup1\n        /* \"#utility.yul\":1683:1689   */\n      dup3\n        /* \"#utility.yul\":1680:1694   */\n      gt\n        /* \"#utility.yul\":1677:1711   */\n      iszero\n      tag_86\n      jumpi\n        /* \"#utility.yul\":1707:1708   */\n      0x00\n        /* \"#utility.yul\":1704:1705   */\n      dup1\n        /* \"#utility.yul\":1697:1709   */\n      revert\n        /* \"#utility.yul\":1677:1711   */\n    tag_86:\n        /* \"#utility.yul\":1730:1780   */\n      tag_87\n        /* \"#utility.yul\":1772:1779   */\n      dup8\n        /* \"#utility.yul\":1763:1769   */\n      dup4\n        /* \"#utility.yul\":1752:1761   */\n      dup9\n        /* \"#utility.yul\":1748:1770   */\n      add\n        /* \"#utility.yul\":1730:1780   */\n      tag_66\n      jump\t// in\n    tag_87:\n        /* \"#utility.yul\":1720:1780   */\n      swap5\n      pop\n        /* \"#utility.yul\":1833:1835   */\n      0x20\n        /* \"#utility.yul\":1822:1831   */\n      dup7\n        /* \"#utility.yul\":1818:1836   */\n      add\n        /* \"#utility.yul\":1805:1837   */\n      calldataload\n        /* \"#utility.yul\":1789:1837   */\n      swap2\n      pop\n        /* \"#utility.yul\":1862:1864   */\n      dup1\n        /* \"#utility.yul\":1852:1860   */\n      dup3\n        /* \"#utility.yul\":1849:1865   */\n      gt\n        /* \"#utility.yul\":1846:1882   */\n      iszero\n      tag_88\n      jumpi\n        /* \"#utility.yul\":1878:1879   */\n      0x00\n        /* \"#utility.yul\":1875:1876   */\n      dup1\n        /* \"#utility.yul\":1868:1880   */\n      revert\n        /* \"#utility.yul\":1846:1882   */\n    tag_88:\n        /* \"#utility.yul\":1901:1953   */\n      tag_89\n        /* \"#utility.yul\":1945:1952   */\n      dup8\n        /* \"#utility.yul\":1934:1942   */\n      dup4\n        /* \"#utility.yul\":1923:1932   */\n      dup9\n        /* \"#utility.yul\":1919:1943   */\n      add\n        /* \"#utility.yul\":1901:1953   */\n      tag_66\n      jump\t// in\n    tag_89:\n        /* \"#utility.yul\":1891:1953   */\n      swap4\n      pop\n        /* \"#utility.yul\":2006:2008   */\n      0x40\n        /* \"#utility.yul\":1995:2004   */\n      dup7\n        /* \"#utility.yul\":1991:2009   */\n      add\n        /* \"#utility.yul\":1978:2010   */\n      calldataload\n        /* \"#utility.yul\":1962:2010   */\n      swap2\n      pop\n        /* \"#utility.yul\":2035:2037   */\n      dup1\n        /* \"#utility.yul\":2025:2033   */\n      dup3\n        /* \"#utility.yul\":2022:2038   */\n      gt\n        /* \"#utility.yul\":2019:2055   */\n      iszero\n      tag_90\n      jumpi\n        /* \"#utility.yul\":2051:2052   */\n      0x00\n        /* \"#utility.yul\":2048:2049   */\n      dup1\n        /* \"#utility.yul\":2041:2053   */\n      revert\n        /* \"#utility.yul\":2019:2055   */\n    tag_90:\n      pop\n        /* \"#utility.yul\":2074:2126   */\n      tag_91\n        /* \"#utility.yul\":2118:2125   */\n      dup7\n        /* \"#utility.yul\":2107:2115   */\n      dup3\n        /* \"#utility.yul\":2096:2105   */\n      dup8\n        /* \"#utility.yul\":2092:2116   */\n      add\n        /* \"#utility.yul\":2074:2126   */\n      tag_66\n      jump\t// in\n    tag_91:\n        /* \"#utility.yul\":2064:2126   */\n      swap2\n      pop\n      pop\n        /* \"#utility.yul\":1389:2132   */\n      swap3\n      pop\n      swap3\n      pop\n      swap3\n      jump\t// out\n        /* \"#utility.yul\":2137:2317   */\n    tag_30:\n        /* \"#utility.yul\":2196:2202   */\n      0x00\n        /* \"#utility.yul\":2249:2251   */\n      0x20\n        /* \"#utility.yul\":2237:2246   */\n      dup3\n        /* \"#utility.yul\":2228:2235   */\n      dup5\n        /* \"#utility.yul\":2224:2247   */\n      sub\n        /* \"#utility.yul\":2220:2252   */\n      slt\n        /* \"#utility.yul\":2217:2269   */\n      iszero\n      tag_93\n      jumpi\n        /* \"#utility.yul\":2265:2266   */\n      0x00\n        /* \"#utility.yul\":2262:2263   */\n      dup1\n        /* \"#utility.yul\":2255:2267   */\n      revert\n        /* \"#utility.yul\":2217:2269   */\n    tag_93:\n      pop\n        /* \"#utility.yul\":2288:2311   */\n      calldataload\n      swap2\n        /* \"#utility.yul\":2137:2317   */\n      swap1\n      pop\n      jump\t// out\n        /* \"#utility.yul\":2322:2736   */\n    tag_36:\n        /* \"#utility.yul\":2453:2456   */\n      0x00\n        /* \"#utility.yul\":2491:2497   */\n      dup3\n        /* \"#utility.yul\":2485:2498   */\n      mload\n        /* \"#utility.yul\":2516:2517   */\n      0x00\n        /* \"#utility.yul\":2526:2655   */\n    tag_95:\n        /* \"#utility.yul\":2540:2546   */\n      dup2\n        /* \"#utility.yul\":2537:2538   */\n      dup2\n        /* \"#utility.yul\":2534:2547   */\n      lt\n        /* \"#utility.yul\":2526:2655   */\n      iszero\n      tag_97\n      jumpi\n        /* \"#utility.yul\":2638:2642   */\n      0x20\n        /* \"#utility.yul\":2622:2636   */\n      dup2\n      dup7\n      add\n        /* \"#utility.yul\":2618:2643   */\n      dup2\n      add\n        /* \"#utility.yul\":2612:2644   */\n      mload\n        /* \"#utility.yul\":2599:2610   */\n      dup6\n      dup4\n      add\n        /* \"#utility.yul\":2592:2645   */\n      mstore\n        /* \"#utility.yul\":2555:2567   */\n      add\n        /* \"#utility.yul\":2526:2655   */\n      jump(tag_95)\n    tag_97:\n      pop\n        /* \"#utility.yul\":2710:2711   */\n      0x00\n        /* \"#utility.yul\":2674:2690   */\n      swap3\n      add\n        /* \"#utility.yul\":2699:2712   */\n      swap2\n      dup3\n      mstore\n      pop\n        /* \"#utility.yul\":2674:2690   */\n      swap2\n        /* \"#utility.yul\":2322:2736   */\n      swap1\n      pop\n      jump\t// out\n        /* \"#utility.yul\":2741:3121   */\n    tag_38:\n        /* \"#utility.yul\":2820:2821   */\n      0x01\n        /* \"#utility.yul\":2816:2828   */\n      dup2\n      dup2\n      shr\n      swap1\n        /* \"#utility.yul\":2863:2875   */\n      dup3\n      and\n      dup1\n        /* \"#utility.yul\":2884:2945   */\n      tag_99\n      jumpi\n        /* \"#utility.yul\":2938:2942   */\n      0x7f\n        /* \"#utility.yul\":2930:2936   */\n      dup3\n        /* \"#utility.yul\":2926:2943   */\n      and\n        /* \"#utility.yul\":2916:2943   */\n      swap2\n      pop\n        /* \"#utility.yul\":2884:2945   */\n    tag_99:\n        /* \"#utility.yul\":2991:2993   */\n      0x20\n        /* \"#utility.yul\":2983:2989   */\n      dup3\n        /* \"#utility.yul\":2980:2994   */\n      lt\n        /* \"#utility.yul\":2960:2978   */\n      dup2\n        /* \"#utility.yul\":2957:2995   */\n      sub\n        /* \"#utility.yul\":2954:3115   */\n      tag_100\n      jumpi\n        /* \"#utility.yul\":3037:3047   */\n      0x4e487b71\n        /* \"#utility.yul\":3032:3035   */\n      0xe0\n        /* \"#utility.yul\":3028:3048   */\n      shl\n        /* \"#utility.yul\":3025:3026   */\n      0x00\n        /* \"#utility.yul\":3018:3049   */\n      mstore\n        /* \"#utility.yul\":3072:3076   */\n      0x22\n        /* \"#utility.yul\":3069:3070   */\n      0x04\n        /* \"#utility.yul\":3062:3077   */\n      mstore\n        /* \"#utility.yul\":3100:3104   */\n      0x24\n        /* \"#utility.yul\":3097:3098   */\n      0x00\n        /* \"#utility.yul\":3090:3105   */\n      revert\n        /* \"#utility.yul\":2954:3115   */\n    tag_100:\n      pop\n        /* \"#utility.yul\":2741:3121   */\n      swap2\n      swap1\n      pop\n      jump\t// out\n        /* \"#utility.yul\":3252:3797   */\n    tag_68:\n        /* \"#utility.yul\":3354:3356   */\n      0x1f\n        /* \"#utility.yul\":3349:3352   */\n      dup3\n        /* \"#utility.yul\":3346:3357   */\n      gt\n        /* \"#utility.yul\":3343:3791   */\n      iszero\n      tag_103\n      jumpi\n        /* \"#utility.yul\":3390:3391   */\n      0x00\n        /* \"#utility.yul\":3415:3420   */\n      dup2\n        /* \"#utility.yul\":3411:3413   */\n      dup2\n        /* \"#utility.yul\":3404:3421   */\n      mstore\n        /* \"#utility.yul\":3460:3464   */\n      0x20\n        /* \"#utility.yul\":3456:3458   */\n      dup2\n        /* \"#utility.yul\":3446:3465   */\n      keccak256\n        /* \"#utility.yul\":3530:3532   */\n      0x1f\n        /* \"#utility.yul\":3518:3528   */\n      dup6\n        /* \"#utility.yul\":3514:3533   */\n      add\n        /* \"#utility.yul\":3511:3512   */\n      0x05\n        /* \"#utility.yul\":3507:3534   */\n      shr\n        /* \"#utility.yul\":3501:3505   */\n      dup2\n        /* \"#utility.yul\":3497:3535   */\n      add\n        /* \"#utility.yul\":3566:3570   */\n      0x20\n        /* \"#utility.yul\":3554:3564   */\n      dup7\n        /* \"#utility.yul\":3551:3571   */\n      lt\n        /* \"#utility.yul\":3548:3595   */\n      iszero\n      tag_104\n      jumpi\n      pop\n        /* \"#utility.yul\":3589:3593   */\n      dup1\n        /* \"#utility.yul\":3548:3595   */\n    tag_104:\n        /* \"#utility.yul\":3644:3646   */\n      0x1f\n        /* \"#utility.yul\":3639:3642   */\n      dup6\n        /* \"#utility.yul\":3635:3647   */\n      add\n        /* \"#utility.yul\":3632:3633   */\n      0x05\n        /* \"#utility.yul\":3628:3648   */\n      shr\n        /* \"#utility.yul\":3622:3626   */\n      dup3\n        /* \"#utility.yul\":3618:3649   */\n      add\n        /* \"#utility.yul\":3608:3649   */\n      swap2\n      pop\n        /* \"#utility.yul\":3699:3781   */\n    tag_105:\n        /* \"#utility.yul\":3717:3719   */\n      dup2\n        /* \"#utility.yul\":3710:3715   */\n      dup2\n        /* \"#utility.yul\":3707:3720   */\n      lt\n        /* \"#utility.yul\":3699:3781   */\n      iszero\n      tag_107\n      jumpi\n        /* \"#utility.yul\":3762:3779   */\n      dup3\n      dup2\n      sstore\n        /* \"#utility.yul\":3743:3744   */\n      0x01\n        /* \"#utility.yul\":3732:3745   */\n      add\n        /* \"#utility.yul\":3699:3781   */\n      jump(tag_105)\n    tag_107:\n        /* \"#utility.yul\":3703:3706   */\n      pop\n      pop\n      pop\n        /* \"#utility.yul\":3343:3791   */\n    tag_103:\n        /* \"#utility.yul\":3252:3797   */\n      pop\n      pop\n      pop\n      jump\t// out\n        /* \"#utility.yul\":3973:5325   */\n    tag_58:\n        /* \"#utility.yul\":4099:4102   */\n      dup2\n        /* \"#utility.yul\":4093:4103   */\n      mload\n        /* \"#utility.yul\":4126:4144   */\n      0xffffffffffffffff\n        /* \"#utility.yul\":4118:4124   */\n      dup2\n        /* \"#utility.yul\":4115:4145   */\n      gt\n        /* \"#utility.yul\":4112:4168   */\n      iszero\n      tag_111\n      jumpi\n        /* \"#utility.yul\":4148:4166   */\n      tag_111\n      tag_65\n      jump\t// in\n    tag_111:\n        /* \"#utility.yul\":4177:4274   */\n      tag_112\n        /* \"#utility.yul\":4267:4273   */\n      dup2\n        /* \"#utility.yul\":4227:4265   */\n      tag_113\n        /* \"#utility.yul\":4259:4263   */\n      dup5\n        /* \"#utility.yul\":4253:4264   */\n      sload\n        /* \"#utility.yul\":4227:4265   */\n      tag_38\n      jump\t// in\n    tag_113:\n        /* \"#utility.yul\":4221:4225   */\n      dup5\n        /* \"#utility.yul\":4177:4274   */\n      tag_68\n      jump\t// in\n    tag_112:\n        /* \"#utility.yul\":4329:4333   */\n      0x20\n      dup1\n        /* \"#utility.yul\":4393:4395   */\n      0x1f\n        /* \"#utility.yul\":4382:4396   */\n      dup4\n      gt\n        /* \"#utility.yul\":4410:4411   */\n      0x01\n        /* \"#utility.yul\":4405:5068   */\n      dup2\n      eq\n      tag_115\n      jumpi\n        /* \"#utility.yul\":5112:5113   */\n      0x00\n        /* \"#utility.yul\":5129:5135   */\n      dup5\n        /* \"#utility.yul\":5126:5215   */\n      iszero\n      tag_116\n      jumpi\n      pop\n        /* \"#utility.yul\":5181:5200   */\n      dup6\n      dup4\n      add\n        /* \"#utility.yul\":5175:5201   */\n      mload\n        /* \"#utility.yul\":5126:5215   */\n    tag_116:\n      not(0x00)\n        /* \"#utility.yul\":3930:3931   */\n      0x03\n        /* \"#utility.yul\":3926:3937   */\n      dup7\n      swap1\n      shl\n        /* \"#utility.yul\":3922:3946   */\n      shr\n        /* \"#utility.yul\":3918:3947   */\n      not\n        /* \"#utility.yul\":3908:3948   */\n      and\n        /* \"#utility.yul\":3954:3955   */\n      0x01\n        /* \"#utility.yul\":3950:3961   */\n      dup6\n      swap1\n      shl\n        /* \"#utility.yul\":3905:3962   */\n      or\n        /* \"#utility.yul\":5228:5309   */\n      dup6\n      sstore\n        /* \"#utility.yul\":4375:5319   */\n      jump(tag_107)\n        /* \"#utility.yul\":4405:5068   */\n    tag_115:\n        /* \"#utility.yul\":3199:3200   */\n      0x00\n        /* \"#utility.yul\":3192:3206   */\n      dup6\n      dup2\n      mstore\n        /* \"#utility.yul\":3236:3240   */\n      0x20\n        /* \"#utility.yul\":3223:3241   */\n      dup2\n      keccak256\n      not(0x1f)\n        /* \"#utility.yul\":4441:4461   */\n      dup7\n      and\n      swap2\n        /* \"#utility.yul\":4559:4795   */\n    tag_119:\n        /* \"#utility.yul\":4573:4580   */\n      dup3\n        /* \"#utility.yul\":4570:4571   */\n      dup2\n        /* \"#utility.yul\":4567:4581   */\n      lt\n        /* \"#utility.yul\":4559:4795   */\n      iszero\n      tag_121\n      jumpi\n        /* \"#utility.yul\":4662:4681   */\n      dup9\n      dup7\n      add\n        /* \"#utility.yul\":4656:4682   */\n      mload\n        /* \"#utility.yul\":4641:4683   */\n      dup3\n      sstore\n        /* \"#utility.yul\":4754:4781   */\n      swap5\n      dup5\n      add\n      swap5\n        /* \"#utility.yul\":4722:4723   */\n      0x01\n        /* \"#utility.yul\":4710:4724   */\n      swap1\n      swap2\n      add\n      swap1\n        /* \"#utility.yul\":4589:4608   */\n      dup5\n      add\n        /* \"#utility.yul\":4559:4795   */\n      jump(tag_119)\n    tag_121:\n        /* \"#utility.yul\":4563:4566   */\n      pop\n        /* \"#utility.yul\":4823:4829   */\n      dup6\n        /* \"#utility.yul\":4814:4821   */\n      dup3\n        /* \"#utility.yul\":4811:4830   */\n      lt\n        /* \"#utility.yul\":4808:5009   */\n      iszero\n      tag_122\n      jumpi\n        /* \"#utility.yul\":4884:4903   */\n      dup8\n      dup6\n      add\n        /* \"#utility.yul\":4878:4904   */\n      mload\n      not(0x00)\n        /* \"#utility.yul\":4967:4968   */\n      0x03\n        /* \"#utility.yul\":4963:4977   */\n      dup9\n      swap1\n      shl\n        /* \"#utility.yul\":4979:4982   */\n      0xf8\n        /* \"#utility.yul\":4959:4983   */\n      and\n        /* \"#utility.yul\":4955:4992   */\n      shr\n        /* \"#utility.yul\":4951:4993   */\n      not\n        /* \"#utility.yul\":4936:4994   */\n      and\n        /* \"#utility.yul\":4921:4995   */\n      dup2\n      sstore\n        /* \"#utility.yul\":4808:5009   */\n    tag_122:\n      pop\n      pop\n      pop\n      pop\n      pop\n        /* \"#utility.yul\":5055:5056   */\n      0x01\n        /* \"#utility.yul\":5039:5053   */\n      swap1\n      dup2\n      shl\n        /* \"#utility.yul\":5035:5057   */\n      add\n        /* \"#utility.yul\":5022:5058   */\n      swap1\n      sstore\n      pop\n        /* \"#utility.yul\":3973:5325   */\n      jump\t// out\n\n    auxdata: 0xa26469706673582212203ca58a6f3f2d1417812760fda48f4423581b4b641ed8fd54125bb2485acfdcaf64736f6c63430008110033\n}\n",
				"bytecode": {
					"linkReferences": {},
					"object": "60806040526000805460ff1916600117905534801561001d57600080fd5b506107058061002d6000396000f3fe60806040526004361061004a5760003560e01c806326803a7f1461004f5780636f7b18fd14610077578063919840ad1461004f5780639c1d98e214610097578063f9e1aeb1146100aa575b600080fd5b34801561005b57600080fd5b5060005460ff165b604051901515815260200160405180910390f35b34801561008357600080fd5b50610063610092366004610479565b6100ca565b6100636100a53660046104b6565b6102e0565b3480156100b657600080fd5b506100636100c536600461053e565b610383565b6000806001836040516100dd9190610557565b908152602001604051809103902060405180608001604052908160008201805461010690610586565b80601f016020809104026020016040519081016040528092919081815260200182805461013290610586565b801561017f5780601f106101545761010080835404028352916020019161017f565b820191906000526020600020905b81548152906001019060200180831161016257829003601f168201915b5050505050815260200160018201805461019890610586565b80601f01602080910402602001604051908101604052809291908181526020018280546101c490610586565b80156102115780601f106101e657610100808354040283529160200191610211565b820191906000526020600020905b8154815290600101906020018083116101f457829003601f168201915b5050505050815260200160028201805461022a90610586565b80601f016020809104026020016040519081016040528092919081815260200182805461025690610586565b80156102a35780601f10610278576101008083540402835291602001916102a3565b820191906000526020600020905b81548152906001019060200180831161028657829003601f168201915b50505091835250506003919091015460ff161515602090910152606081015190915015156000036102d75750600092915050565b50600192915050565b604080516080810182528481526020810184905280820183905260016060820181905291516000928291610315908890610557565b90815260405190819003602001902081518190610332908261060f565b5060208201516001820190610347908261060f565b506040820151600282019061035c908261060f565b50606091909101516003909101805460ff1916911515919091179055506001949350505050565b6000816001146103ce5760405162461bcd60e51b8152602060048201526012602482015271437573746f6d4572726f724d616b6572282960701b604482015260640160405180910390fd5b506001919050565b634e487b7160e01b600052604160045260246000fd5b600082601f8301126103fd57600080fd5b813567ffffffffffffffff80821115610418576104186103d6565b604051601f8301601f19908116603f01168101908282118183101715610440576104406103d6565b8160405283815286602085880101111561045957600080fd5b836020870160208301376000602085830101528094505050505092915050565b60006020828403121561048b57600080fd5b813567ffffffffffffffff8111156104a257600080fd5b6104ae848285016103ec565b949350505050565b6000806000606084860312156104cb57600080fd5b833567ffffffffffffffff808211156104e357600080fd5b6104ef878388016103ec565b9450602086013591508082111561050557600080fd5b610511878388016103ec565b9350604086013591508082111561052757600080fd5b50610534868287016103ec565b9150509250925092565b60006020828403121561055057600080fd5b5035919050565b6000825160005b81811015610578576020818601810151858301520161055e565b506000920191825250919050565b600181811c9082168061059a57607f821691505b6020821081036105ba57634e487b7160e01b600052602260045260246000fd5b50919050565b601f82111561060a57600081815260208120601f850160051c810160208610156105e75750805b601f850160051c820191505b81811015610606578281556001016105f3565b5050505b505050565b815167ffffffffffffffff811115610629576106296103d6565b61063d816106378454610586565b846105c0565b602080601f831160018114610672576000841561065a5750858301515b600019600386901b1c1916600185901b178555610606565b600085815260208120601f198616915b828110156106a157888601518255948401946001909101908401610682565b50858210156106bf5787850151600019600388901b60f8161c191681555b5050505050600190811b0190555056fea26469706673582212203ca58a6f3f2d1417812760fda48f4423581b4b641ed8fd54125bb2485acfdcaf64736f6c63430008110033",
					"opcodes": "PUSH1 0x80 PUSH1 0x40 MSTORE PUSH1 0x0 DUP1 SLOAD PUSH1 0xFF NOT AND PUSH1 0x1 OR SWAP1 SSTORE CALLVALUE DUP1 ISZERO PUSH2 0x1D JUMPI PUSH1 0x0 DUP1 REVERT JUMPDEST POP PUSH2 0x705 DUP1 PUSH2 0x2D PUSH1 0x0 CODECOPY PUSH1 0x0 RETURN INVALID PUSH1 0x80 PUSH1 0x40 MSTORE PUSH1 0x4 CALLDATASIZE LT PUSH2 0x4A JUMPI PUSH1 0x0 CALLDATALOAD PUSH1 0xE0 SHR DUP1 PUSH4 0x26803A7F EQ PUSH2 0x4F JUMPI DUP1 PUSH4 0x6F7B18FD EQ PUSH2 0x77 JUMPI DUP1 PUSH4 0x919840AD EQ PUSH2 0x4F JUMPI DUP1 PUSH4 0x9C1D98E2 EQ PUSH2 0x97 JUMPI DUP1 PUSH4 0xF9E1AEB1 EQ PUSH2 0xAA JUMPI JUMPDEST PUSH1 0x0 DUP1 REVERT JUMPDEST CALLVALUE DUP1 ISZERO PUSH2 0x5B JUMPI PUSH1 0x0 DUP1 REVERT JUMPDEST POP PUSH1 0x0 SLOAD PUSH1 0xFF AND JUMPDEST PUSH1 0x40 MLOAD SWAP1 ISZERO ISZERO DUP2 MSTORE PUSH1 0x20 ADD PUSH1 0x40 MLOAD DUP1 SWAP2 SUB SWAP1 RETURN JUMPDEST CALLVALUE DUP1 ISZERO PUSH2 0x83 JUMPI PUSH1 0x0 DUP1 REVERT JUMPDEST POP PUSH2 0x63 PUSH2 0x92 CALLDATASIZE PUSH1 0x4 PUSH2 0x479 JUMP JUMPDEST PUSH2 0xCA JUMP JUMPDEST PUSH2 0x63 PUSH2 0xA5 CALLDATASIZE PUSH1 0x4 PUSH2 0x4B6 JUMP JUMPDEST PUSH2 0x2E0 JUMP JUMPDEST CALLVALUE DUP1 ISZERO PUSH2 0xB6 JUMPI PUSH1 0x0 DUP1 REVERT JUMPDEST POP PUSH2 0x63 PUSH2 0xC5 CALLDATASIZE PUSH1 0x4 PUSH2 0x53E JUMP JUMPDEST PUSH2 0x383 JUMP JUMPDEST PUSH1 0x0 DUP1 PUSH1 0x1 DUP4 PUSH1 0x40 MLOAD PUSH2 0xDD SWAP2 SWAP1 PUSH2 0x557 JUMP JUMPDEST SWAP1 DUP2 MSTORE PUSH1 0x20 ADD PUSH1 0x40 MLOAD DUP1 SWAP2 SUB SWAP1 KECCAK256 PUSH1 0x40 MLOAD DUP1 PUSH1 0x80 ADD PUSH1 0x40 MSTORE SWAP1 DUP2 PUSH1 0x0 DUP3 ADD DUP1 SLOAD PUSH2 0x106 SWAP1 PUSH2 0x586 JUMP JUMPDEST DUP1 PUSH1 0x1F ADD PUSH1 0x20 DUP1 SWAP2 DIV MUL PUSH1 0x20 ADD PUSH1 0x40 MLOAD SWAP1 DUP2 ADD PUSH1 0x40 MSTORE DUP1 SWAP3 SWAP2 SWAP1 DUP2 DUP2 MSTORE PUSH1 0x20 ADD DUP3 DUP1 SLOAD PUSH2 0x132 SWAP1 PUSH2 0x586 JUMP JUMPDEST DUP1 ISZERO PUSH2 0x17F JUMPI DUP1 PUSH1 0x1F LT PUSH2 0x154 JUMPI PUSH2 0x100 DUP1 DUP4 SLOAD DIV MUL DUP4 MSTORE SWAP2 PUSH1 0x20 ADD SWAP2 PUSH2 0x17F JUMP JUMPDEST DUP3 ADD SWAP2 SWAP1 PUSH1 0x0 MSTORE PUSH1 0x20 PUSH1 0x0 KECCAK256 SWAP1 JUMPDEST DUP2 SLOAD DUP2 MSTORE SWAP1 PUSH1 0x1 ADD SWAP1 PUSH1 0x20 ADD DUP1 DUP4 GT PUSH2 0x162 JUMPI DUP3 SWAP1 SUB PUSH1 0x1F AND DUP3 ADD SWAP2 JUMPDEST POP POP POP POP POP DUP2 MSTORE PUSH1 0x20 ADD PUSH1 0x1 DUP3 ADD DUP1 SLOAD PUSH2 0x198 SWAP1 PUSH2 0x586 JUMP JUMPDEST DUP1 PUSH1 0x1F ADD PUSH1 0x20 DUP1 SWAP2 DIV MUL PUSH1 0x20 ADD PUSH1 0x40 MLOAD SWAP1 DUP2 ADD PUSH1 0x40 MSTORE DUP1 SWAP3 SWAP2 SWAP1 DUP2 DUP2 MSTORE PUSH1 0x20 ADD DUP3 DUP1 SLOAD PUSH2 0x1C4 SWAP1 PUSH2 0x586 JUMP JUMPDEST DUP1 ISZERO PUSH2 0x211 JUMPI DUP1 PUSH1 0x1F LT PUSH2 0x1E6 JUMPI PUSH2 0x100 DUP1 DUP4 SLOAD DIV MUL DUP4 MSTORE SWAP2 PUSH1 0x20 ADD SWAP2 PUSH2 0x211 JUMP JUMPDEST DUP3 ADD SWAP2 SWAP1 PUSH1 0x0 MSTORE PUSH1 0x20 PUSH1 0x0 KECCAK256 SWAP1 JUMPDEST DUP2 SLOAD DUP2 MSTORE SWAP1 PUSH1 0x1 ADD SWAP1 PUSH1 0x20 ADD DUP1 DUP4 GT PUSH2 0x1F4 JUMPI DUP3 SWAP1 SUB PUSH1 0x1F AND DUP3 ADD SWAP2 JUMPDEST POP POP POP POP POP DUP2 MSTORE PUSH1 0x20 ADD PUSH1 0x2 DUP3 ADD DUP1 SLOAD PUSH2 0x22A SWAP1 PUSH2 0x586 JUMP JUMPDEST DUP1 PUSH1 0x1F ADD PUSH1 0x20 DUP1 SWAP2 DIV MUL PUSH1 0x20 ADD PUSH1 0x40 MLOAD SWAP1 DUP2 ADD PUSH1 0x40 MSTORE DUP1 SWAP3 SWAP2 SWAP1 DUP2 DUP2 MSTORE PUSH1 0x20 ADD DUP3 DUP1 SLOAD PUSH2 0x256 SWAP1 PUSH2 0x586 JUMP JUMPDEST DUP1 ISZERO PUSH2 0x2A3 JUMPI DUP1 PUSH1 0x1F LT PUSH2 0x278 JUMPI PUSH2 0x100 DUP1 DUP4 SLOAD DIV MUL DUP4 MSTORE SWAP2 PUSH1 0x20 ADD SWAP2 PUSH2 0x2A3 JUMP JUMPDEST DUP3 ADD SWAP2 SWAP1 PUSH1 0x0 MSTORE PUSH1 0x20 PUSH1 0x0 KECCAK256 SWAP1 JUMPDEST DUP2 SLOAD DUP2 MSTORE SWAP1 PUSH1 0x1 ADD SWAP1 PUSH1 0x20 ADD DUP1 DUP4 GT PUSH2 0x286 JUMPI DUP3 SWAP1 SUB PUSH1 0x1F AND DUP3 ADD SWAP2 JUMPDEST POP POP POP SWAP2 DUP4 MSTORE POP POP PUSH1 0x3 SWAP2 SWAP1 SWAP2 ADD SLOAD PUSH1 0xFF AND ISZERO ISZERO PUSH1 0x20 SWAP1 SWAP2 ADD MSTORE PUSH1 0x60 DUP2 ADD MLOAD SWAP1 SWAP2 POP ISZERO ISZERO PUSH1 0x0 SUB PUSH2 0x2D7 JUMPI POP PUSH1 0x0 SWAP3 SWAP2 POP POP JUMP JUMPDEST POP PUSH1 0x1 SWAP3 SWAP2 POP POP JUMP JUMPDEST PUSH1 0x40 DUP1 MLOAD PUSH1 0x80 DUP2 ADD DUP3 MSTORE DUP5 DUP2 MSTORE PUSH1 0x20 DUP2 ADD DUP5 SWAP1 MSTORE DUP1 DUP3 ADD DUP4 SWAP1 MSTORE PUSH1 0x1 PUSH1 0x60 DUP3 ADD DUP2 SWAP1 MSTORE SWAP2 MLOAD PUSH1 0x0 SWAP3 DUP3 SWAP2 PUSH2 0x315 SWAP1 DUP9 SWAP1 PUSH2 0x557 JUMP JUMPDEST SWAP1 DUP2 MSTORE PUSH1 0x40 MLOAD SWAP1 DUP2 SWAP1 SUB PUSH1 0x20 ADD SWAP1 KECCAK256 DUP2 MLOAD DUP2 SWAP1 PUSH2 0x332 SWAP1 DUP3 PUSH2 0x60F JUMP JUMPDEST POP PUSH1 0x20 DUP3 ADD MLOAD PUSH1 0x1 DUP3 ADD SWAP1 PUSH2 0x347 SWAP1 DUP3 PUSH2 0x60F JUMP JUMPDEST POP PUSH1 0x40 DUP3 ADD MLOAD PUSH1 0x2 DUP3 ADD SWAP1 PUSH2 0x35C SWAP1 DUP3 PUSH2 0x60F JUMP JUMPDEST POP PUSH1 0x60 SWAP2 SWAP1 SWAP2 ADD MLOAD PUSH1 0x3 SWAP1 SWAP2 ADD DUP1 SLOAD PUSH1 0xFF NOT AND SWAP2 ISZERO ISZERO SWAP2 SWAP1 SWAP2 OR SWAP1 SSTORE POP PUSH1 0x1 SWAP5 SWAP4 POP POP POP POP JUMP JUMPDEST PUSH1 0x0 DUP2 PUSH1 0x1 EQ PUSH2 0x3CE JUMPI PUSH1 0x40 MLOAD PUSH3 0x461BCD PUSH1 0xE5 SHL DUP2 MSTORE PUSH1 0x20 PUSH1 0x4 DUP3 ADD MSTORE PUSH1 0x12 PUSH1 0x24 DUP3 ADD MSTORE PUSH18 0x437573746F6D4572726F724D616B65722829 PUSH1 0x70 SHL PUSH1 0x44 DUP3 ADD MSTORE PUSH1 0x64 ADD PUSH1 0x40 MLOAD DUP1 SWAP2 SUB SWAP1 REVERT JUMPDEST POP PUSH1 0x1 SWAP2 SWAP1 POP JUMP JUMPDEST PUSH4 0x4E487B71 PUSH1 0xE0 SHL PUSH1 0x0 MSTORE PUSH1 0x41 PUSH1 0x4 MSTORE PUSH1 0x24 PUSH1 0x0 REVERT JUMPDEST PUSH1 0x0 DUP3 PUSH1 0x1F DUP4 ADD SLT PUSH2 0x3FD JUMPI PUSH1 0x0 DUP1 REVERT JUMPDEST DUP2 CALLDATALOAD PUSH8 0xFFFFFFFFFFFFFFFF DUP1 DUP3 GT ISZERO PUSH2 0x418 JUMPI PUSH2 0x418 PUSH2 0x3D6 JUMP JUMPDEST PUSH1 0x40 MLOAD PUSH1 0x1F DUP4 ADD PUSH1 0x1F NOT SWAP1 DUP2 AND PUSH1 0x3F ADD AND DUP2 ADD SWAP1 DUP3 DUP3 GT DUP2 DUP4 LT OR ISZERO PUSH2 0x440 JUMPI PUSH2 0x440 PUSH2 0x3D6 JUMP JUMPDEST DUP2 PUSH1 0x40 MSTORE DUP4 DUP2 MSTORE DUP7 PUSH1 0x20 DUP6 DUP9 ADD ADD GT ISZERO PUSH2 0x459 JUMPI PUSH1 0x0 DUP1 REVERT JUMPDEST DUP4 PUSH1 0x20 DUP8 ADD PUSH1 0x20 DUP4 ADD CALLDATACOPY PUSH1 0x0 PUSH1 0x20 DUP6 DUP4 ADD ADD MSTORE DUP1 SWAP5 POP POP POP POP POP SWAP3 SWAP2 POP POP JUMP JUMPDEST PUSH1 0x0 PUSH1 0x20 DUP3 DUP5 SUB SLT ISZERO PUSH2 0x48B JUMPI PUSH1 0x0 DUP1 REVERT JUMPDEST DUP2 CALLDATALOAD PUSH8 0xFFFFFFFFFFFFFFFF DUP2 GT ISZERO PUSH2 0x4A2 JUMPI PUSH1 0x0 DUP1 REVERT JUMPDEST PUSH2 0x4AE DUP5 DUP3 DUP6 ADD PUSH2 0x3EC JUMP JUMPDEST SWAP5 SWAP4 POP POP POP POP JUMP JUMPDEST PUSH1 0x0 DUP1 PUSH1 0x0 PUSH1 0x60 DUP5 DUP7 SUB SLT ISZERO PUSH2 0x4CB JUMPI PUSH1 0x0 DUP1 REVERT JUMPDEST DUP4 CALLDATALOAD PUSH8 0xFFFFFFFFFFFFFFFF DUP1 DUP3 GT ISZERO PUSH2 0x4E3 JUMPI PUSH1 0x0 DUP1 REVERT JUMPDEST PUSH2 0x4EF DUP8 DUP4 DUP9 ADD PUSH2 0x3EC JUMP JUMPDEST SWAP5 POP PUSH1 0x20 DUP7 ADD CALLDATALOAD SWAP2 POP DUP1 DUP3 GT ISZERO PUSH2 0x505 JUMPI PUSH1 0x0 DUP1 REVERT JUMPDEST PUSH2 0x511 DUP8 DUP4 DUP9 ADD PUSH2 0x3EC JUMP JUMPDEST SWAP4 POP PUSH1 0x40 DUP7 ADD CALLDATALOAD SWAP2 POP DUP1 DUP3 GT ISZERO PUSH2 0x527 JUMPI PUSH1 0x0 DUP1 REVERT JUMPDEST POP PUSH2 0x534 DUP7 DUP3 DUP8 ADD PUSH2 0x3EC JUMP JUMPDEST SWAP2 POP POP SWAP3 POP SWAP3 POP SWAP3 JUMP JUMPDEST PUSH1 0x0 PUSH1 0x20 DUP3 DUP5 SUB SLT ISZERO PUSH2 0x550 JUMPI PUSH1 0x0 DUP1 REVERT JUMPDEST POP CALLDATALOAD SWAP2 SWAP1 POP JUMP JUMPDEST PUSH1 0x0 DUP3 MLOAD PUSH1 0x0 JUMPDEST DUP2 DUP2 LT ISZERO PUSH2 0x578 JUMPI PUSH1 0x20 DUP2 DUP7 ADD DUP2 ADD MLOAD DUP6 DUP4 ADD MSTORE ADD PUSH2 0x55E JUMP JUMPDEST POP PUSH1 0x0 SWAP3 ADD SWAP2 DUP3 MSTORE POP SWAP2 SWAP1 POP JUMP JUMPDEST PUSH1 0x1 DUP2 DUP2 SHR SWAP1 DUP3 AND DUP1 PUSH2 0x59A JUMPI PUSH1 0x7F DUP3 AND SWAP2 POP JUMPDEST PUSH1 0x20 DUP3 LT DUP2 SUB PUSH2 0x5BA JUMPI PUSH4 0x4E487B71 PUSH1 0xE0 SHL PUSH1 0x0 MSTORE PUSH1 0x22 PUSH1 0x4 MSTORE PUSH1 0x24 PUSH1 0x0 REVERT JUMPDEST POP SWAP2 SWAP1 POP JUMP JUMPDEST PUSH1 0x1F DUP3 GT ISZERO PUSH2 0x60A JUMPI PUSH1 0x0 DUP2 DUP2 MSTORE PUSH1 0x20 DUP2 KECCAK256 PUSH1 0x1F DUP6 ADD PUSH1 0x5 SHR DUP2 ADD PUSH1 0x20 DUP7 LT ISZERO PUSH2 0x5E7 JUMPI POP DUP1 JUMPDEST PUSH1 0x1F DUP6 ADD PUSH1 0x5 SHR DUP3 ADD SWAP2 POP JUMPDEST DUP2 DUP2 LT ISZERO PUSH2 0x606 JUMPI DUP3 DUP2 SSTORE PUSH1 0x1 ADD PUSH2 0x5F3 JUMP JUMPDEST POP POP POP JUMPDEST POP POP POP JUMP JUMPDEST DUP2 MLOAD PUSH8 0xFFFFFFFFFFFFFFFF DUP2 GT ISZERO PUSH2 0x629 JUMPI PUSH2 0x629 PUSH2 0x3D6 JUMP JUMPDEST PUSH2 0x63D DUP2 PUSH2 0x637 DUP5 SLOAD PUSH2 0x586 JUMP JUMPDEST DUP5 PUSH2 0x5C0 JUMP JUMPDEST PUSH1 0x20 DUP1 PUSH1 0x1F DUP4 GT PUSH1 0x1 DUP2 EQ PUSH2 0x672 JUMPI PUSH1 0x0 DUP5 ISZERO PUSH2 0x65A JUMPI POP DUP6 DUP4 ADD MLOAD JUMPDEST PUSH1 0x0 NOT PUSH1 0x3 DUP7 SWAP1 SHL SHR NOT AND PUSH1 0x1 DUP6 SWAP1 SHL OR DUP6 SSTORE PUSH2 0x606 JUMP JUMPDEST PUSH1 0x0 DUP6 DUP2 MSTORE PUSH1 0x20 DUP2 KECCAK256 PUSH1 0x1F NOT DUP7 AND SWAP2 JUMPDEST DUP3 DUP2 LT ISZERO PUSH2 0x6A1 JUMPI DUP9 DUP7 ADD MLOAD DUP3 SSTORE SWAP5 DUP5 ADD SWAP5 PUSH1 0x1 SWAP1 SWAP2 ADD SWAP1 DUP5 ADD PUSH2 0x682 JUMP JUMPDEST POP DUP6 DUP3 LT ISZERO PUSH2 0x6BF JUMPI DUP8 DUP6 ADD MLOAD PUSH1 0x0 NOT PUSH1 0x3 DUP9 SWAP1 SHL PUSH1 0xF8 AND SHR NOT AND DUP2 SSTORE JUMPDEST POP POP POP POP POP PUSH1 0x1 SWAP1 DUP2 SHL ADD SWAP1 SSTORE POP JUMP INVALID LOG2 PUSH5 0x6970667358 0x22 SLT KECCAK256 EXTCODECOPY 0xA5 DUP11 PUSH16 0x3F2D1417812760FDA48F4423581B4B64 0x1E 0xD8 REVERT SLOAD SLT JUMPDEST 0xB2 BASEFEE GAS 0xCF 0xDC 0xAF PUSH5 0x736F6C6343 STOP ADDMOD GT STOP CALLER "
				},
				"gasEstimates": {
					"creation": {
						"codeDepositCost": "359400",
						"executionCost": "24623",
						"totalCost": "384023"
					},
					"external": {
						"check()": "2303",
						"check_one()": "2259",
						"make(string,string,string)": "infinite",
						"makeError(uint256)": "414",
						"views(string)": "infinite"
					}
				},
				"methodIdentifiers": {
					"check()": "919840ad",
					"check_one()": "26803a7f",
					"make(string,string,string)": "9c1d98e2",
					"makeError(uint256)": "f9e1aeb1",
					"views(string)": "6f7b18fd"
				}
			},
			"storageLayout": {
				"storage": [
					{
						"astId": 13,
						"contract": "TokenSGTX/contracts/Examples_Contracts/exmaple.sol:exampleSoft",
						"label": "someBoolVar",
						"offset": 0,
						"slot": "0",
						"type": "t_bool"
					},
					{
						"astId": 18,
						"contract": "TokenSGTX/contracts/Examples_Contracts/exmaple.sol:exampleSoft",
						"label": "mp",
						"offset": 0,
						"slot": "1",
						"type": "t_mapping(t_string_memory_ptr,t_struct(lol)10_storage)"
					}
				],
				"types": {
					"t_bool": {
						"encoding": "inplace",
						"label": "bool",
						"numberOfBytes": "1"
					},
					"t_mapping(t_string_memory_ptr,t_struct(lol)10_storage)": {
						"encoding": "mapping",
						"key": "t_string_memory_ptr",
						"label": "mapping(string => struct exampleSoft.lol)",
						"numberOfBytes": "32",
						"value": "t_struct(lol)10_storage"
					},
					"t_string_memory_ptr": {
						"encoding": "bytes",
						"label": "string",
						"numberOfBytes": "32"
					},
					"t_string_storage": {
						"encoding": "bytes",
						"label": "string",
						"numberOfBytes": "32"
					},
					"t_struct(lol)10_storage": {
						"encoding": "inplace",
						"label": "struct exampleSoft.lol",
						"members": [
							{
								"astId": 3,
								"contract": "TokenSGTX/contracts/Examples_Contracts/exmaple.sol:exampleSoft",
								"label": "lolOne",
								"offset": 0,
								"slot": "0",
								"type": "t_string_storage"
							},
							{
								"astId": 5,
								"contract": "TokenSGTX/contracts/Examples_Contracts/exmaple.sol:exampleSoft",
								"label": "loltwo",
								"offset": 0,
								"slot": "1",
								"type": "t_string_storage"
							},
							{
								"astId": 7,
								"contract": "TokenSGTX/contracts/Examples_Contracts/exmaple.sol:exampleSoft",
								"label": "loltree",
								"offset": 0,
								"slot": "2",
								"type": "t_string_storage"
							},
							{
								"astId": 9,
								"contract": "TokenSGTX/contracts/Examples_Contracts/exmaple.sol:exampleSoft",
								"label": "isValid",
								"offset": 0,
								"slot": "3",
								"type": "t_bool"
							}
						],
						"numberOfBytes": "128"
					}
				}
			},
			"userdoc": {
				"kind": "user",
				"methods": {},
				"version": 1
			}
		}
	}
}