{
  "_format": "hh-sol-artifact-1",
  "contractName": "LicenseTaxPayer",
  "sourceName": "contracts/LicensesTaxs.sol",
  "abi": [
    {
      "inputs": [
        {
          "internalType": "string",
          "name": "name_",
          "type": "string"
        },
        {
          "internalType": "string",
          "name": "symbol_",
          "type": "string"
        }
      ],
      "stateMutability": "nonpayable",
      "type": "constructor"
    },
    {
      "anonymous": false,
      "inputs": [
        {
          "indexed": true,
          "internalType": "address",
          "name": "",
          "type": "address"
        },
        {
          "indexed": false,
          "internalType": "bool",
          "name": "",
          "type": "bool"
        }
      ],
      "name": "eventNewAdminPropose",
      "type": "event"
    },
    {
      "anonymous": false,
      "inputs": [
        {
          "indexed": true,
          "internalType": "address",
          "name": "",
          "type": "address"
        },
        {
          "indexed": false,
          "internalType": "bool",
          "name": "",
          "type": "bool"
        }
      ],
      "name": "eventNewAdminRegistred",
      "type": "event"
    },
    {
      "anonymous": false,
      "inputs": [
        {
          "indexed": true,
          "internalType": "address",
          "name": "",
          "type": "address"
        },
        {
          "indexed": false,
          "internalType": "bool",
          "name": "",
          "type": "bool"
        }
      ],
      "name": "eventNewApprover",
      "type": "event"
    },
    {
      "anonymous": false,
      "inputs": [
        {
          "indexed": true,
          "internalType": "address",
          "name": "_addressHolder",
          "type": "address"
        },
        {
          "indexed": false,
          "internalType": "bytes32",
          "name": "sing",
          "type": "bytes32"
        }
      ],
      "name": "eventSignatureCreate",
      "type": "event"
    },
    {
      "anonymous": false,
      "inputs": [
        {
          "indexed": true,
          "internalType": "address",
          "name": "_addressHolder",
          "type": "address"
        },
        {
          "indexed": false,
          "internalType": "bytes32",
          "name": "sing",
          "type": "bytes32"
        }
      ],
      "name": "eventSignatureExpired",
      "type": "event"
    },
    {
      "inputs": [
        {
          "internalType": "string",
          "name": "_Id",
          "type": "string"
        },
        {
          "internalType": "address",
          "name": "_relationAddress",
          "type": "address"
        }
      ],
      "name": "addApprover",
      "outputs": [
        {
          "internalType": "bool",
          "name": "",
          "type": "bool"
        }
      ],
      "stateMutability": "payable",
      "type": "function"
    },
    {
      "inputs": [
        {
          "internalType": "string",
          "name": "_rif",
          "type": "string"
        },
        {
          "internalType": "address",
          "name": "_relationAddress",
          "type": "address"
        }
      ],
      "name": "addTaxPayer",
      "outputs": [
        {
          "internalType": "bool",
          "name": "",
          "type": "bool"
        }
      ],
      "stateMutability": "payable",
      "type": "function"
    },
    {
      "inputs": [
        {
          "internalType": "address",
          "name": "_relationAddress",
          "type": "address"
        }
      ],
      "name": "approveAdmin",
      "outputs": [
        {
          "internalType": "bool",
          "name": "",
          "type": "bool"
        }
      ],
      "stateMutability": "payable",
      "type": "function"
    },
    {
      "inputs": [],
      "name": "balance",
      "outputs": [
        {
          "internalType": "uint256",
          "name": "",
          "type": "uint256"
        }
      ],
      "stateMutability": "view",
      "type": "function"
    },
    {
      "inputs": [],
      "name": "canMint",
      "outputs": [
        {
          "internalType": "bool",
          "name": "",
          "type": "bool"
        }
      ],
      "stateMutability": "view",
      "type": "function"
    },
    {
      "inputs": [
        {
          "internalType": "bytes32",
          "name": "singnature",
          "type": "bytes32"
        }
      ],
      "name": "expirationLicense",
      "outputs": [
        {
          "internalType": "bool",
          "name": "",
          "type": "bool"
        }
      ],
      "stateMutability": "payable",
      "type": "function"
    },
    {
      "inputs": [
        {
          "internalType": "address",
          "name": "_owner",
          "type": "address"
        },
        {
          "internalType": "bytes32",
          "name": "sign",
          "type": "bytes32"
        }
      ],
      "name": "getExpiredLicense",
      "outputs": [
        {
          "components": [
            {
              "internalType": "string",
              "name": "concept",
              "type": "string"
            },
            {
              "internalType": "string",
              "name": "identifier",
              "type": "string"
            },
            {
              "internalType": "address",
              "name": "owner",
              "type": "address"
            },
            {
              "internalType": "string",
              "name": "data",
              "type": "string"
            },
            {
              "internalType": "address",
              "name": "aprrover",
              "type": "address"
            },
            {
              "internalType": "bytes32",
              "name": "signature",
              "type": "bytes32"
            },
            {
              "internalType": "bool",
              "name": "isEntity",
              "type": "bool"
            }
          ],
          "internalType": "struct ISignature.StructSignature",
          "name": "oldLicense",
          "type": "tuple"
        }
      ],
      "stateMutability": "payable",
      "type": "function"
    },
    {
      "inputs": [
        {
          "internalType": "address",
          "name": "_owner",
          "type": "address"
        }
      ],
      "name": "getManyAddressSignature",
      "outputs": [
        {
          "internalType": "bytes32[]",
          "name": "",
          "type": "bytes32[]"
        }
      ],
      "stateMutability": "view",
      "type": "function"
    },
    {
      "inputs": [],
      "name": "getOwnerAddressSignature",
      "outputs": [
        {
          "internalType": "bytes32[]",
          "name": "",
          "type": "bytes32[]"
        }
      ],
      "stateMutability": "view",
      "type": "function"
    },
    {
      "inputs": [
        {
          "internalType": "bytes32",
          "name": "singnature",
          "type": "bytes32"
        }
      ],
      "name": "getOwnnerSignature",
      "outputs": [
        {
          "components": [
            {
              "internalType": "string",
              "name": "concept",
              "type": "string"
            },
            {
              "internalType": "string",
              "name": "identifier",
              "type": "string"
            },
            {
              "internalType": "address",
              "name": "owner",
              "type": "address"
            },
            {
              "internalType": "string",
              "name": "data",
              "type": "string"
            },
            {
              "internalType": "address",
              "name": "aprrover",
              "type": "address"
            },
            {
              "internalType": "bytes32",
              "name": "signature",
              "type": "bytes32"
            },
            {
              "internalType": "bool",
              "name": "isEntity",
              "type": "bool"
            }
          ],
          "internalType": "struct ISignature.StructSignature",
          "name": "",
          "type": "tuple"
        }
      ],
      "stateMutability": "view",
      "type": "function"
    },
    {
      "inputs": [
        {
          "internalType": "bytes32",
          "name": "singnature",
          "type": "bytes32"
        }
      ],
      "name": "getSignature",
      "outputs": [
        {
          "components": [
            {
              "internalType": "string",
              "name": "concept",
              "type": "string"
            },
            {
              "internalType": "string",
              "name": "identifier",
              "type": "string"
            },
            {
              "internalType": "address",
              "name": "owner",
              "type": "address"
            },
            {
              "internalType": "string",
              "name": "data",
              "type": "string"
            },
            {
              "internalType": "address",
              "name": "aprrover",
              "type": "address"
            },
            {
              "internalType": "bytes32",
              "name": "signature",
              "type": "bytes32"
            },
            {
              "internalType": "bool",
              "name": "isEntity",
              "type": "bool"
            }
          ],
          "internalType": "struct ISignature.StructSignature",
          "name": "",
          "type": "tuple"
        }
      ],
      "stateMutability": "view",
      "type": "function"
    },
    {
      "inputs": [],
      "name": "mintingStop",
      "outputs": [
        {
          "internalType": "bool",
          "name": "",
          "type": "bool"
        }
      ],
      "stateMutability": "nonpayable",
      "type": "function"
    },
    {
      "inputs": [],
      "name": "name",
      "outputs": [
        {
          "internalType": "string",
          "name": "",
          "type": "string"
        }
      ],
      "stateMutability": "view",
      "type": "function"
    },
    {
      "inputs": [
        {
          "internalType": "address",
          "name": "_relationAddress",
          "type": "address"
        }
      ],
      "name": "proposeAdmin",
      "outputs": [
        {
          "internalType": "bool",
          "name": "",
          "type": "bool"
        }
      ],
      "stateMutability": "payable",
      "type": "function"
    },
    {
      "inputs": [
        {
          "internalType": "address",
          "name": "_successor",
          "type": "address"
        }
      ],
      "name": "setSuccessor",
      "outputs": [
        {
          "internalType": "address",
          "name": "",
          "type": "address"
        }
      ],
      "stateMutability": "payable",
      "type": "function"
    },
    {
      "inputs": [
        {
          "internalType": "string",
          "name": "_consept",
          "type": "string"
        },
        {
          "internalType": "string",
          "name": "_owner",
          "type": "string"
        },
        {
          "internalType": "string",
          "name": "_approver",
          "type": "string"
        },
        {
          "internalType": "string",
          "name": "data",
          "type": "string"
        },
        {
          "internalType": "string",
          "name": "identifier",
          "type": "string"
        }
      ],
      "name": "signatureMint",
      "outputs": [
        {
          "internalType": "bytes32",
          "name": "",
          "type": "bytes32"
        }
      ],
      "stateMutability": "payable",
      "type": "function"
    },
    {
      "inputs": [
        {
          "internalType": "bytes32",
          "name": "singnature",
          "type": "bytes32"
        }
      ],
      "name": "signatureValidate",
      "outputs": [
        {
          "internalType": "bool",
          "name": "",
          "type": "bool"
        }
      ],
      "stateMutability": "view",
      "type": "function"
    },
    {
      "inputs": [],
      "name": "successor",
      "outputs": [
        {
          "internalType": "address",
          "name": "",
          "type": "address"
        }
      ],
      "stateMutability": "view",
      "type": "function"
    },
    {
      "inputs": [],
      "name": "symbol",
      "outputs": [
        {
          "internalType": "string",
          "name": "",
          "type": "string"
        }
      ],
      "stateMutability": "view",
      "type": "function"
    },
    {
      "inputs": [
        {
          "internalType": "string",
          "name": "_rif",
          "type": "string"
        }
      ],
      "name": "taxpayerAddress",
      "outputs": [
        {
          "internalType": "address",
          "name": "",
          "type": "address"
        }
      ],
      "stateMutability": "view",
      "type": "function"
    },
    {
      "inputs": [],
      "name": "totalMinted",
      "outputs": [
        {
          "internalType": "int32",
          "name": "",
          "type": "int32"
        }
      ],
      "stateMutability": "view",
      "type": "function"
    },
    {
      "inputs": [
        {
          "internalType": "address",
          "name": "NewOwner",
          "type": "address"
        }
      ],
      "name": "tranferOwnership",
      "outputs": [
        {
          "internalType": "bool",
          "name": "",
          "type": "bool"
        }
      ],
      "stateMutability": "payable",
      "type": "function"
    },
    {
      "inputs": [
        {
          "internalType": "string",
          "name": "_consept",
          "type": "string"
        },
        {
          "internalType": "string",
          "name": "_owner",
          "type": "string"
        },
        {
          "internalType": "string",
          "name": "_approver",
          "type": "string"
        },
        {
          "internalType": "string",
          "name": "data",
          "type": "string"
        },
        {
          "internalType": "string",
          "name": "identifier",
          "type": "string"
        }
      ],
      "name": "validateData",
      "outputs": [
        {
          "internalType": "bool",
          "name": "",
          "type": "bool"
        }
      ],
      "stateMutability": "view",
      "type": "function"
    }
  ],
  "bytecode": "0x60806040526001600860146101000a81548160ff0219169083151502179055506000600960146101000a81548163ffffffff021916908360030b63ffffffff1602179055503480156200005157600080fd5b506040516200527b3803806200527b8339818101604052810190620000779190620002cf565b6001600460003373ffffffffffffffffffffffffffffffffffffffff1673ffffffffffffffffffffffffffffffffffffffff16815260200190815260200160002060006101000a81548160ff02191690831515021790555033600860006101000a81548173ffffffffffffffffffffffffffffffffffffffff021916908373ffffffffffffffffffffffffffffffffffffffff16021790555081600a90816200012191906200059f565b5080600b90816200013391906200059f565b50505062000686565b6000604051905090565b600080fd5b600080fd5b600080fd5b600080fd5b6000601f19601f8301169050919050565b7f4e487b7100000000000000000000000000000000000000000000000000000000600052604160045260246000fd5b620001a5826200015a565b810181811067ffffffffffffffff82111715620001c757620001c66200016b565b5b80604052505050565b6000620001dc6200013c565b9050620001ea82826200019a565b919050565b600067ffffffffffffffff8211156200020d576200020c6200016b565b5b62000218826200015a565b9050602081019050919050565b60005b838110156200024557808201518184015260208101905062000228565b60008484015250505050565b6000620002686200026284620001ef565b620001d0565b90508281526020810184848401111562000287576200028662000155565b5b6200029484828562000225565b509392505050565b600082601f830112620002b457620002b362000150565b5b8151620002c684826020860162000251565b91505092915050565b60008060408385031215620002e957620002e862000146565b5b600083015167ffffffffffffffff8111156200030a57620003096200014b565b5b62000318858286016200029c565b925050602083015167ffffffffffffffff8111156200033c576200033b6200014b565b5b6200034a858286016200029c565b9150509250929050565b600081519050919050565b7f4e487b7100000000000000000000000000000000000000000000000000000000600052602260045260246000fd5b60006002820490506001821680620003a757607f821691505b602082108103620003bd57620003bc6200035f565b5b50919050565b60008190508160005260206000209050919050565b60006020601f8301049050919050565b600082821b905092915050565b600060088302620004277fffffffffffffffffffffffffffffffffffffffffffffffffffffffffffffffff82620003e8565b620004338683620003e8565b95508019841693508086168417925050509392505050565b6000819050919050565b6000819050919050565b6000620004806200047a62000474846200044b565b62000455565b6200044b565b9050919050565b6000819050919050565b6200049c836200045f565b620004b4620004ab8262000487565b848454620003f5565b825550505050565b600090565b620004cb620004bc565b620004d881848462000491565b505050565b5b818110156200050057620004f4600082620004c1565b600181019050620004de565b5050565b601f8211156200054f576200051981620003c3565b6200052484620003d8565b8101602085101562000534578190505b6200054c6200054385620003d8565b830182620004dd565b50505b505050565b600082821c905092915050565b6000620005746000198460080262000554565b1980831691505092915050565b60006200058f838362000561565b9150826002028217905092915050565b620005aa8262000354565b67ffffffffffffffff811115620005c657620005c56200016b565b5b620005d282546200038e565b620005df82828562000504565b600060209050601f83116001811462000617576000841562000602578287015190505b6200060e858262000581565b8655506200067e565b601f1984166200062786620003c3565b60005b8281101562000651578489015182556001820191506020850194506020810190506200062a565b868310156200067157848901516200066d601f89168262000561565b8355505b6001600288020188555050505b505050505050565b614be580620006966000396000f3fe6080604052600436106101405760003560e01c806395d89b41116100b6578063c4b14e0b1161006f578063c4b14e0b14610493578063c8c2f4fe146104d0578063ce7262a114610500578063d84ab18114610530578063dc2aa90914610560578063e516224e1461058b57610140565b806395d89b411461037a5780639dfb7831146103a5578063a2309ff8146103d5578063b69ef8a814610400578063beb9716d1461042b578063bff2d5361461045657610140565b80633fde3309116101085780633fde33091461024a5780636d73e669146102755780636ff968c3146102a55780637ea5cc1a146102d057806383fc58b41461030d57806384e26b2c1461033d57610140565b806306fdde03146101455780630c0bd76b1461017057806310e5bff8146101ad578063147bf6c4146101dd578063369f6cd71461020d575b600080fd5b34801561015157600080fd5b5061015a6105bb565b6040516101679190613a02565b60405180910390f35b34801561017c57600080fd5b5061019760048036038101906101929190613a6e565b61064d565b6040516101a49190613bfa565b60405180910390f35b6101c760048036038101906101c29190613c48565b610978565b6040516101d49190613c84565b60405180910390f35b6101f760048036038101906101f29190613c48565b610ae4565b6040516102049190613cae565b60405180910390f35b34801561021957600080fd5b50610234600480360381019061022f9190613c48565b610c7f565b6040516102419190613d78565b60405180910390f35b34801561025657600080fd5b5061025f610d6c565b60405161026c9190613d78565b60405180910390f35b61028f600480360381019061028a9190613c48565b610e01565b60405161029c9190613cae565b60405180910390f35b3480156102b157600080fd5b506102ba611025565b6040516102c79190613c84565b60405180910390f35b3480156102dc57600080fd5b506102f760048036038101906102f29190613ecf565b61104b565b6040516103049190613cae565b60405180910390f35b61032760048036038101906103229190613c48565b61110f565b6040516103349190613cae565b60405180910390f35b34801561034957600080fd5b50610364600480360381019061035f9190613fd6565b61125a565b6040516103719190613c84565b60405180910390f35b34801561038657600080fd5b5061038f6112f8565b60405161039c9190613a02565b60405180910390f35b6103bf60048036038101906103ba919061401f565b61138a565b6040516103cc9190613cae565b60405180910390f35b3480156103e157600080fd5b506103ea611483565b6040516103f79190614097565b60405180910390f35b34801561040c57600080fd5b50610415611496565b60405161042291906140cb565b60405180910390f35b34801561043757600080fd5b506104406114dd565b60405161044d9190613cae565b60405180910390f35b34801561046257600080fd5b5061047d60048036038101906104789190613a6e565b6114f4565b60405161048a9190613cae565b60405180910390f35b34801561049f57600080fd5b506104ba60048036038101906104b59190613a6e565b6117be565b6040516104c79190613bfa565b60405180910390f35b6104ea60048036038101906104e5919061401f565b611ac7565b6040516104f79190613cae565b60405180910390f35b61051a60048036038101906105159190613ecf565b611cbc565b60405161052791906140f5565b60405180910390f35b61054a60048036038101906105459190613a6e565b61213a565b6040516105579190613cae565b60405180910390f35b34801561056c57600080fd5b50610575612763565b6040516105829190613cae565b60405180910390f35b6105a560048036038101906105a09190614110565b612834565b6040516105b29190613bfa565b60405180910390f35b6060600a80546105ca9061417f565b80601f01602080910402602001604051908101604052809291908181526020018280546105f69061417f565b80156106435780601f1061061857610100808354040283529160200191610643565b820191906000526020600020905b81548152906001019060200180831161062657829003601f168201915b5050505050905090565b6106556138a7565b60008060008481526020019081526020016000206040518060e00160405290816000820180546106849061417f565b80601f01602080910402602001604051908101604052809291908181526020018280546106b09061417f565b80156106fd5780601f106106d2576101008083540402835291602001916106fd565b820191906000526020600020905b8154815290600101906020018083116106e057829003601f168201915b505050505081526020016001820180546107169061417f565b80601f01602080910402602001604051908101604052809291908181526020018280546107429061417f565b801561078f5780601f106107645761010080835404028352916020019161078f565b820191906000526020600020905b81548152906001019060200180831161077257829003601f168201915b505050505081526020016002820160009054906101000a900473ffffffffffffffffffffffffffffffffffffffff1673ffffffffffffffffffffffffffffffffffffffff1673ffffffffffffffffffffffffffffffffffffffff1681526020016003820180546107fe9061417f565b80601f016020809104026020016040519081016040528092919081815260200182805461082a9061417f565b80156108775780601f1061084c57610100808354040283529160200191610877565b820191906000526020600020905b81548152906001019060200180831161085a57829003601f168201915b505050505081526020016004820160009054906101000a900473ffffffffffffffffffffffffffffffffffffffff1673ffffffffffffffffffffffffffffffffffffffff1673ffffffffffffffffffffffffffffffffffffffff168152602001600582015481526020016006820160009054906101000a900460ff16151515158152505090503373ffffffffffffffffffffffffffffffffffffffff16816040015173ffffffffffffffffffffffffffffffffffffffff161461096f576040517f08c379a000000000000000000000000000000000000000000000000000000000815260040161096690614222565b60405180910390fd5b80915050919050565b6000600860009054906101000a900473ffffffffffffffffffffffffffffffffffffffff1673ffffffffffffffffffffffffffffffffffffffff163373ffffffffffffffffffffffffffffffffffffffff1614610a0a576040517f08c379a0000000000000000000000000000000000000000000000000000000008152600401610a019061428e565b60405180910390fd5b600073ffffffffffffffffffffffffffffffffffffffff168273ffffffffffffffffffffffffffffffffffffffff1603610a79576040517f08c379a0000000000000000000000000000000000000000000000000000000008152600401610a70906142fa565b60405180910390fd5b81600960006101000a81548173ffffffffffffffffffffffffffffffffffffffff021916908373ffffffffffffffffffffffffffffffffffffffff160217905550600960009054906101000a900473ffffffffffffffffffffffffffffffffffffffff169050919050565b6000600460003373ffffffffffffffffffffffffffffffffffffffff1673ffffffffffffffffffffffffffffffffffffffff16815260200190815260200160002060009054906101000a900460ff16610b3c57600080fd5b60011515600560008473ffffffffffffffffffffffffffffffffffffffff1673ffffffffffffffffffffffffffffffffffffffff16815260200190815260200160002060009054906101000a900460ff16151503610bcf576040517f08c379a0000000000000000000000000000000000000000000000000000000008152600401610bc690614366565b60405180910390fd5b6001600560008473ffffffffffffffffffffffffffffffffffffffff1673ffffffffffffffffffffffffffffffffffffffff16815260200190815260200160002060006101000a81548160ff0219169083151502179055508173ffffffffffffffffffffffffffffffffffffffff167ffcd0029428c001bd11d12d6e8302dda11ac68335a836d75d43004bf4ca7292ef6001604051610c6e9190613cae565b60405180910390a260019050919050565b6060600460003373ffffffffffffffffffffffffffffffffffffffff1673ffffffffffffffffffffffffffffffffffffffff16815260200190815260200160002060009054906101000a900460ff16610cd757600080fd5b600160008373ffffffffffffffffffffffffffffffffffffffff1673ffffffffffffffffffffffffffffffffffffffff168152602001908152602001600020805480602002602001604051908101604052809291908181526020018280548015610d6057602002820191906000526020600020905b815481526020019060010190808311610d4c575b50505050509050919050565b6060600160003373ffffffffffffffffffffffffffffffffffffffff1673ffffffffffffffffffffffffffffffffffffffff168152602001908152602001600020805480602002602001604051908101604052809291908181526020018280548015610df757602002820191906000526020600020905b815481526020019060010190808311610de3575b5050505050905090565b6000600860009054906101000a900473ffffffffffffffffffffffffffffffffffffffff1673ffffffffffffffffffffffffffffffffffffffff163373ffffffffffffffffffffffffffffffffffffffff1614610e93576040517f08c379a0000000000000000000000000000000000000000000000000000000008152600401610e8a9061428e565b60405180910390fd5b60011515600560008473ffffffffffffffffffffffffffffffffffffffff1673ffffffffffffffffffffffffffffffffffffffff16815260200190815260200160002060009054906101000a900460ff16151514610f26576040517f08c379a0000000000000000000000000000000000000000000000000000000008152600401610f1d906143f8565b60405180910390fd5b6001600460008473ffffffffffffffffffffffffffffffffffffffff1673ffffffffffffffffffffffffffffffffffffffff16815260200190815260200160002060006101000a81548160ff021916908315150217905550600560008373ffffffffffffffffffffffffffffffffffffffff1673ffffffffffffffffffffffffffffffffffffffff16815260200190815260200160002060006101000a81549060ff02191690558173ffffffffffffffffffffffffffffffffffffffff167f9aab773cc5c7f377774352463d765fa3acae0bc1c83c44357f4405639ebab44a60016040516110149190613cae565b60405180910390a260019050919050565b600960009054906101000a900473ffffffffffffffffffffffffffffffffffffffff1681565b6000600460003373ffffffffffffffffffffffffffffffffffffffff1673ffffffffffffffffffffffffffffffffffffffff16815260200190815260200160002060009054906101000a900460ff166110a357600080fd5b60006110f887846110b38961125a565b8760068a6040516110c49190614454565b908152602001604051809103902060009054906101000a900473ffffffffffffffffffffffffffffffffffffffff16612c5d565b9050611103816114f4565b91505095945050505050565b6000600860009054906101000a900473ffffffffffffffffffffffffffffffffffffffff1673ffffffffffffffffffffffffffffffffffffffff163373ffffffffffffffffffffffffffffffffffffffff16146111a1576040517f08c379a00000000000000000000000000000000000000000000000000000000081526004016111989061428e565b60405180910390fd5b600073ffffffffffffffffffffffffffffffffffffffff168273ffffffffffffffffffffffffffffffffffffffff1603611210576040517f08c379a0000000000000000000000000000000000000000000000000000000008152600401611207906144b7565b60405180910390fd5b81600860006101000a81548173ffffffffffffffffffffffffffffffffffffffff021916908373ffffffffffffffffffffffffffffffffffffffff16021790555060019050919050565b6000600460003373ffffffffffffffffffffffffffffffffffffffff1673ffffffffffffffffffffffffffffffffffffffff16815260200190815260200160002060009054906101000a900460ff166112b257600080fd5b6003826040516112c29190614454565b908152602001604051809103902060009054906101000a900473ffffffffffffffffffffffffffffffffffffffff169050919050565b6060600b80546113079061417f565b80601f01602080910402602001604051908101604052809291908181526020018280546113339061417f565b80156113805780601f1061135557610100808354040283529160200191611380565b820191906000526020600020905b81548152906001019060200180831161136357829003601f168201915b5050505050905090565b6000600860009054906101000a900473ffffffffffffffffffffffffffffffffffffffff1673ffffffffffffffffffffffffffffffffffffffff163373ffffffffffffffffffffffffffffffffffffffff161461141c576040517f08c379a00000000000000000000000000000000000000000000000000000000081526004016114139061428e565b60405180910390fd5b8160038460405161142d9190614454565b908152602001604051809103902060006101000a81548173ffffffffffffffffffffffffffffffffffffffff021916908373ffffffffffffffffffffffffffffffffffffffff1602179055506001905092915050565b600960149054906101000a900460030b81565b6000600760003373ffffffffffffffffffffffffffffffffffffffff1673ffffffffffffffffffffffffffffffffffffffff16815260200190815260200160002054905090565b6000600860149054906101000a900460ff16905090565b6000806000808481526020019081526020016000206040518060e00160405290816000820180546115249061417f565b80601f01602080910402602001604051908101604052809291908181526020018280546115509061417f565b801561159d5780601f106115725761010080835404028352916020019161159d565b820191906000526020600020905b81548152906001019060200180831161158057829003601f168201915b505050505081526020016001820180546115b69061417f565b80601f01602080910402602001604051908101604052809291908181526020018280546115e29061417f565b801561162f5780601f106116045761010080835404028352916020019161162f565b820191906000526020600020905b81548152906001019060200180831161161257829003601f168201915b505050505081526020016002820160009054906101000a900473ffffffffffffffffffffffffffffffffffffffff1673ffffffffffffffffffffffffffffffffffffffff1673ffffffffffffffffffffffffffffffffffffffff16815260200160038201805461169e9061417f565b80601f01602080910402602001604051908101604052809291908181526020018280546116ca9061417f565b80156117175780601f106116ec57610100808354040283529160200191611717565b820191906000526020600020905b8154815290600101906020018083116116fa57829003601f168201915b505050505081526020016004820160009054906101000a900473ffffffffffffffffffffffffffffffffffffffff1673ffffffffffffffffffffffffffffffffffffffff1673ffffffffffffffffffffffffffffffffffffffff168152602001600582015481526020016006820160009054906101000a900460ff161515151581525050905060008160a00151036117b35760009150506117b9565b60019150505b919050565b6117c66138a7565b600460003373ffffffffffffffffffffffffffffffffffffffff1673ffffffffffffffffffffffffffffffffffffffff16815260200190815260200160002060009054906101000a900460ff1661181c57600080fd5b6000808381526020019081526020016000206040518060e00160405290816000820180546118499061417f565b80601f01602080910402602001604051908101604052809291908181526020018280546118759061417f565b80156118c25780601f10611897576101008083540402835291602001916118c2565b820191906000526020600020905b8154815290600101906020018083116118a557829003601f168201915b505050505081526020016001820180546118db9061417f565b80601f01602080910402602001604051908101604052809291908181526020018280546119079061417f565b80156119545780601f1061192957610100808354040283529160200191611954565b820191906000526020600020905b81548152906001019060200180831161193757829003601f168201915b505050505081526020016002820160009054906101000a900473ffffffffffffffffffffffffffffffffffffffff1673ffffffffffffffffffffffffffffffffffffffff1673ffffffffffffffffffffffffffffffffffffffff1681526020016003820180546119c39061417f565b80601f01602080910402602001604051908101604052809291908181526020018280546119ef9061417f565b8015611a3c5780601f10611a1157610100808354040283529160200191611a3c565b820191906000526020600020905b815481529060010190602001808311611a1f57829003601f168201915b505050505081526020016004820160009054906101000a900473ffffffffffffffffffffffffffffffffffffffff1673ffffffffffffffffffffffffffffffffffffffff1673ffffffffffffffffffffffffffffffffffffffff168152602001600582015481526020016006820160009054906101000a900460ff1615151515815250509050919050565b6000600860009054906101000a900473ffffffffffffffffffffffffffffffffffffffff1673ffffffffffffffffffffffffffffffffffffffff163373ffffffffffffffffffffffffffffffffffffffff1614611b59576040517f08c379a0000000000000000000000000000000000000000000000000000000008152600401611b509061428e565b60405180910390fd5b600073ffffffffffffffffffffffffffffffffffffffff16600684604051611b819190614454565b908152602001604051809103902060009054906101000a900473ffffffffffffffffffffffffffffffffffffffff1673ffffffffffffffffffffffffffffffffffffffff1614611c06576040517f08c379a0000000000000000000000000000000000000000000000000000000008152600401611bfd90614523565b60405180910390fd5b81600684604051611c179190614454565b908152602001604051809103902060006101000a81548173ffffffffffffffffffffffffffffffffffffffff021916908373ffffffffffffffffffffffffffffffffffffffff1602179055508173ffffffffffffffffffffffffffffffffffffffff167fa590b4fc649a56bfc2765312a8b4becaa85a972fd5403de3f9a0a4270c40e71e6001604051611caa9190613cae565b60405180910390a26001905092915050565b6000600860009054906101000a900473ffffffffffffffffffffffffffffffffffffffff1673ffffffffffffffffffffffffffffffffffffffff163373ffffffffffffffffffffffffffffffffffffffff1614611d4e576040517f08c379a0000000000000000000000000000000000000000000000000000000008152600401611d459061428e565b60405180910390fd5b60011515600860149054906101000a900460ff16151514611da4576040517f08c379a0000000000000000000000000000000000000000000000000000000008152600401611d9b9061458f565b60405180910390fd5b600073ffffffffffffffffffffffffffffffffffffffff16611dc58661125a565b73ffffffffffffffffffffffffffffffffffffffff1603611e1b576040517f08c379a0000000000000000000000000000000000000000000000000000000008152600401611e12906145fb565b60405180910390fd5b600073ffffffffffffffffffffffffffffffffffffffff16600685604051611e439190614454565b908152602001604051809103902060009054906101000a900473ffffffffffffffffffffffffffffffffffffffff1673ffffffffffffffffffffffffffffffffffffffff1603611ec8576040517f08c379a0000000000000000000000000000000000000000000000000000000008152600401611ebf90614667565b60405180910390fd5b611ed18561125a565b73ffffffffffffffffffffffffffffffffffffffff16600685604051611ef79190614454565b908152602001604051809103902060009054906101000a900473ffffffffffffffffffffffffffffffffffffffff1673ffffffffffffffffffffffffffffffffffffffff1603611f7c576040517f08c379a0000000000000000000000000000000000000000000000000000000008152600401611f73906146d3565b60405180910390fd5b6000611fd18784611f8c8961125a565b8760068a604051611f9d9190614454565b908152602001604051809103902060009054906101000a900473ffffffffffffffffffffffffffffffffffffffff16612c5d565b905060006040518060e00160405280898152602001858152602001611ff58961125a565b73ffffffffffffffffffffffffffffffffffffffff1681526020018681526020016006886040516120269190614454565b908152602001604051809103902060009054906101000a900473ffffffffffffffffffffffffffffffffffffffff1673ffffffffffffffffffffffffffffffffffffffff16815260200183815260200160011515815250905061208881612d29565b506001600960148282829054906101000a900460030b6120a89190614722565b92506101000a81548163ffffffff021916908360030b63ffffffff1602179055506001600760006120d88a61125a565b73ffffffffffffffffffffffffffffffffffffffff1673ffffffffffffffffffffffffffffffffffffffff1681526020019081526020016000206000828254612121919061477e565b925050819055508060a001519250505095945050505050565b6000600460003373ffffffffffffffffffffffffffffffffffffffff1673ffffffffffffffffffffffffffffffffffffffff16815260200190815260200160002060009054906101000a900460ff1661219257600080fd5b60008060008481526020019081526020016000206040518060e00160405290816000820180546121c19061417f565b80601f01602080910402602001604051908101604052809291908181526020018280546121ed9061417f565b801561223a5780601f1061220f5761010080835404028352916020019161223a565b820191906000526020600020905b81548152906001019060200180831161221d57829003601f168201915b505050505081526020016001820180546122539061417f565b80601f016020809104026020016040519081016040528092919081815260200182805461227f9061417f565b80156122cc5780601f106122a1576101008083540402835291602001916122cc565b820191906000526020600020905b8154815290600101906020018083116122af57829003601f168201915b505050505081526020016002820160009054906101000a900473ffffffffffffffffffffffffffffffffffffffff1673ffffffffffffffffffffffffffffffffffffffff1673ffffffffffffffffffffffffffffffffffffffff16815260200160038201805461233b9061417f565b80601f01602080910402602001604051908101604052809291908181526020018280546123679061417f565b80156123b45780601f10612389576101008083540402835291602001916123b4565b820191906000526020600020905b81548152906001019060200180831161239757829003601f168201915b505050505081526020016004820160009054906101000a900473ffffffffffffffffffffffffffffffffffffffff1673ffffffffffffffffffffffffffffffffffffffff1673ffffffffffffffffffffffffffffffffffffffff168152602001600582015481526020016006820160009054906101000a900460ff16151515158152505090506124488382604001516134e5565b600160076000836040015173ffffffffffffffffffffffffffffffffffffffff1673ffffffffffffffffffffffffffffffffffffffff168152602001908152602001600020600082825461249c91906147b2565b92505081905550600060016000836040015173ffffffffffffffffffffffffffffffffffffffff1673ffffffffffffffffffffffffffffffffffffffff16815260200190815260200160002080548060200260200160405190810160405280929190818152602001828054801561253257602002820191906000526020600020905b81548152602001906001019080831161251e575b5050505050905060005b81518110156125dd5784828281518110612559576125586147e6565b5b6020026020010151036125ca5760016000846040015173ffffffffffffffffffffffffffffffffffffffff1673ffffffffffffffffffffffffffffffffffffffff16815260200190815260200160002081815481106125bb576125ba6147e6565b5b90600052602060002001600090555b80806125d590614815565b91505061253c565b5060008260c001901515908115158152505060026000836040015173ffffffffffffffffffffffffffffffffffffffff1673ffffffffffffffffffffffffffffffffffffffff16815260200190815260200160002082908060018154018082558091505060019003906000526020600020906007020160009091909190915060008201518160000190816126719190614a09565b5060208201518160010190816126879190614a09565b5060408201518160020160006101000a81548173ffffffffffffffffffffffffffffffffffffffff021916908373ffffffffffffffffffffffffffffffffffffffff16021790555060608201518160030190816126e49190614a09565b5060808201518160040160006101000a81548173ffffffffffffffffffffffffffffffffffffffff021916908373ffffffffffffffffffffffffffffffffffffffff16021790555060a0820151816005015560c08201518160060160006101000a81548160ff0219169083151502179055505050600192505050919050565b6000600860009054906101000a900473ffffffffffffffffffffffffffffffffffffffff1673ffffffffffffffffffffffffffffffffffffffff163373ffffffffffffffffffffffffffffffffffffffff16146127f5576040517f08c379a00000000000000000000000000000000000000000000000000000000081526004016127ec9061428e565b60405180910390fd5b600860149054906101000a900460ff1615600860146101000a81548160ff021916908315150217905550600860149054906101000a900460ff16905090565b61283c6138a7565b600860009054906101000a900473ffffffffffffffffffffffffffffffffffffffff1673ffffffffffffffffffffffffffffffffffffffff163373ffffffffffffffffffffffffffffffffffffffff16146128cc576040517f08c379a00000000000000000000000000000000000000000000000000000000081526004016128c39061428e565b60405180910390fd5b6000600260008573ffffffffffffffffffffffffffffffffffffffff1673ffffffffffffffffffffffffffffffffffffffff168152602001908152602001600020805480602002602001604051908101604052809291908181526020016000905b82821015612be657838290600052602060002090600702016040518060e00160405290816000820180546129609061417f565b80601f016020809104026020016040519081016040528092919081815260200182805461298c9061417f565b80156129d95780601f106129ae576101008083540402835291602001916129d9565b820191906000526020600020905b8154815290600101906020018083116129bc57829003601f168201915b505050505081526020016001820180546129f29061417f565b80601f0160208091040260200160405190810160405280929190818152602001828054612a1e9061417f565b8015612a6b5780601f10612a4057610100808354040283529160200191612a6b565b820191906000526020600020905b815481529060010190602001808311612a4e57829003601f168201915b505050505081526020016002820160009054906101000a900473ffffffffffffffffffffffffffffffffffffffff1673ffffffffffffffffffffffffffffffffffffffff1673ffffffffffffffffffffffffffffffffffffffff168152602001600382018054612ada9061417f565b80601f0160208091040260200160405190810160405280929190818152602001828054612b069061417f565b8015612b535780601f10612b2857610100808354040283529160200191612b53565b820191906000526020600020905b815481529060010190602001808311612b3657829003601f168201915b505050505081526020016004820160009054906101000a900473ffffffffffffffffffffffffffffffffffffffff1673ffffffffffffffffffffffffffffffffffffffff1673ffffffffffffffffffffffffffffffffffffffff168152602001600582015481526020016006820160009054906101000a900460ff1615151515815250508152602001906001019061292d565b50505050905060005b8151811015612c545783828281518110612c0c57612c0b6147e6565b5b602002602001015160a0015103612c4157818181518110612c3057612c2f6147e6565b5b602002602001015192505050612c57565b8080612c4c90614815565b915050612bef565b50505b92915050565b6000600860009054906101000a900473ffffffffffffffffffffffffffffffffffffffff1673ffffffffffffffffffffffffffffffffffffffff163373ffffffffffffffffffffffffffffffffffffffff1614612cef576040517f08c379a0000000000000000000000000000000000000000000000000000000008152600401612ce69061428e565b60405180910390fd5b8585858585604051602001612d08959493929190614adb565b60405160208183030381529060405280519060200120905095945050505050565b6000600860009054906101000a900473ffffffffffffffffffffffffffffffffffffffff1673ffffffffffffffffffffffffffffffffffffffff163373ffffffffffffffffffffffffffffffffffffffff1614612dbb576040517f08c379a0000000000000000000000000000000000000000000000000000000008152600401612db29061428e565b60405180910390fd5b60008060008460a0015181526020019081526020016000206040518060e0016040529081600082018054612dee9061417f565b80601f0160208091040260200160405190810160405280929190818152602001828054612e1a9061417f565b8015612e675780601f10612e3c57610100808354040283529160200191612e67565b820191906000526020600020905b815481529060010190602001808311612e4a57829003601f168201915b50505050508152602001600182018054612e809061417f565b80601f0160208091040260200160405190810160405280929190818152602001828054612eac9061417f565b8015612ef95780601f10612ece57610100808354040283529160200191612ef9565b820191906000526020600020905b815481529060010190602001808311612edc57829003601f168201915b505050505081526020016002820160009054906101000a900473ffffffffffffffffffffffffffffffffffffffff1673ffffffffffffffffffffffffffffffffffffffff1673ffffffffffffffffffffffffffffffffffffffff168152602001600382018054612f689061417f565b80601f0160208091040260200160405190810160405280929190818152602001828054612f949061417f565b8015612fe15780601f10612fb657610100808354040283529160200191612fe1565b820191906000526020600020905b815481529060010190602001808311612fc457829003601f168201915b505050505081526020016004820160009054906101000a900473ffffffffffffffffffffffffffffffffffffffff1673ffffffffffffffffffffffffffffffffffffffff1673ffffffffffffffffffffffffffffffffffffffff168152602001600582015481526020016006820160009054906101000a900460ff1615151515815250509050600115158160c001511515036130b2576040517f08c379a00000000000000000000000000000000000000000000000000000000081526004016130a990614b8f565b60405180910390fd5b600060016000856040015173ffffffffffffffffffffffffffffffffffffffff1673ffffffffffffffffffffffffffffffffffffffff16815260200190815260200160002080548060200260200160405190810160405280929190818152602001828054801561314157602002820191906000526020600020905b81548152602001906001019080831161312d575b5050505050905060005b81518110156134d05760008083838151811061316a576131696147e6565b5b602002602001015181526020019081526020016000206040518060e001604052908160008201805461319b9061417f565b80601f01602080910402602001604051908101604052809291908181526020018280546131c79061417f565b80156132145780601f106131e957610100808354040283529160200191613214565b820191906000526020600020905b8154815290600101906020018083116131f757829003601f168201915b5050505050815260200160018201805461322d9061417f565b80601f01602080910402602001604051908101604052809291908181526020018280546132599061417f565b80156132a65780601f1061327b576101008083540402835291602001916132a6565b820191906000526020600020905b81548152906001019060200180831161328957829003601f168201915b505050505081526020016002820160009054906101000a900473ffffffffffffffffffffffffffffffffffffffff1673ffffffffffffffffffffffffffffffffffffffff1673ffffffffffffffffffffffffffffffffffffffff1681526020016003820180546133159061417f565b80601f01602080910402602001604051908101604052809291908181526020018280546133419061417f565b801561338e5780601f106133635761010080835404028352916020019161338e565b820191906000526020600020905b81548152906001019060200180831161337157829003601f168201915b505050505081526020016004820160009054906101000a900473ffffffffffffffffffffffffffffffffffffffff1673ffffffffffffffffffffffffffffffffffffffff1673ffffffffffffffffffffffffffffffffffffffff168152602001600582015481526020016006820160009054906101000a900460ff1615151515815250509250846020015180519060200120836020015180519060200120036134bd57613459828281518110613447576134466147e6565b5b602002602001015186604001516134e5565b60016000866040015173ffffffffffffffffffffffffffffffffffffffff1673ffffffffffffffffffffffffffffffffffffffff16815260200190815260200160002081815481106134ae576134ad6147e6565b5b90600052602060002001600090555b80806134c890614815565b91505061314b565b506134da8461363c565b600192505050919050565b600460003373ffffffffffffffffffffffffffffffffffffffff1673ffffffffffffffffffffffffffffffffffffffff16815260200190815260200160002060009054906101000a900460ff1661353b57600080fd5b6000808381526020019081526020016000206000808201600061355e9190613915565b60018201600061356e9190613915565b6002820160006101000a81549073ffffffffffffffffffffffffffffffffffffffff02191690556003820160006135a59190613915565b6004820160006101000a81549073ffffffffffffffffffffffffffffffffffffffff021916905560058201600090556006820160006101000a81549060ff021916905550508073ffffffffffffffffffffffffffffffffffffffff167ffba9aeb04fd7e91a1cb29583e8d8bb97d3874361cc1f0b29f6e33f6d3047d8cf8360405161363091906140f5565b60405180910390a25050565b600860009054906101000a900473ffffffffffffffffffffffffffffffffffffffff1673ffffffffffffffffffffffffffffffffffffffff163373ffffffffffffffffffffffffffffffffffffffff16146136cc576040517f08c379a00000000000000000000000000000000000000000000000000000000081526004016136c39061428e565b60405180910390fd5b806000808360a00151815260200190815260200160002060008201518160000190816136f89190614a09565b50602082015181600101908161370e9190614a09565b5060408201518160020160006101000a81548173ffffffffffffffffffffffffffffffffffffffff021916908373ffffffffffffffffffffffffffffffffffffffff160217905550606082015181600301908161376b9190614a09565b5060808201518160040160006101000a81548173ffffffffffffffffffffffffffffffffffffffff021916908373ffffffffffffffffffffffffffffffffffffffff16021790555060a0820151816005015560c08201518160060160006101000a81548160ff02191690831515021790555090505060016000826040015173ffffffffffffffffffffffffffffffffffffffff1673ffffffffffffffffffffffffffffffffffffffff1681526020019081526020016000208160a001519080600181540180825580915050600190039060005260206000200160009091909190915055806040015173ffffffffffffffffffffffffffffffffffffffff167f88b059e42378123793b6b50c667570312662bfbe8c07098828e5639754fa1e5b8260a0015160405161389c91906140f5565b60405180910390a250565b6040518060e001604052806060815260200160608152602001600073ffffffffffffffffffffffffffffffffffffffff16815260200160608152602001600073ffffffffffffffffffffffffffffffffffffffff168152602001600080191681526020016000151581525090565b5080546139219061417f565b6000825580601f106139335750613952565b601f0160209004906000526020600020908101906139519190613955565b5b50565b5b8082111561396e576000816000905550600101613956565b5090565b600081519050919050565b600082825260208201905092915050565b60005b838110156139ac578082015181840152602081019050613991565b60008484015250505050565b6000601f19601f8301169050919050565b60006139d482613972565b6139de818561397d565b93506139ee81856020860161398e565b6139f7816139b8565b840191505092915050565b60006020820190508181036000830152613a1c81846139c9565b905092915050565b6000604051905090565b600080fd5b600080fd5b6000819050919050565b613a4b81613a38565b8114613a5657600080fd5b50565b600081359050613a6881613a42565b92915050565b600060208284031215613a8457613a83613a2e565b5b6000613a9284828501613a59565b91505092915050565b600082825260208201905092915050565b6000613ab782613972565b613ac18185613a9b565b9350613ad181856020860161398e565b613ada816139b8565b840191505092915050565b600073ffffffffffffffffffffffffffffffffffffffff82169050919050565b6000613b1082613ae5565b9050919050565b613b2081613b05565b82525050565b613b2f81613a38565b82525050565b60008115159050919050565b613b4a81613b35565b82525050565b600060e0830160008301518482036000860152613b6d8282613aac565b91505060208301518482036020860152613b878282613aac565b9150506040830151613b9c6040860182613b17565b5060608301518482036060860152613bb48282613aac565b9150506080830151613bc96080860182613b17565b5060a0830151613bdc60a0860182613b26565b5060c0830151613bef60c0860182613b41565b508091505092915050565b60006020820190508181036000830152613c148184613b50565b905092915050565b613c2581613b05565b8114613c3057600080fd5b50565b600081359050613c4281613c1c565b92915050565b600060208284031215613c5e57613c5d613a2e565b5b6000613c6c84828501613c33565b91505092915050565b613c7e81613b05565b82525050565b6000602082019050613c996000830184613c75565b92915050565b613ca881613b35565b82525050565b6000602082019050613cc36000830184613c9f565b92915050565b600081519050919050565b600082825260208201905092915050565b6000819050602082019050919050565b6000613d018383613b26565b60208301905092915050565b6000602082019050919050565b6000613d2582613cc9565b613d2f8185613cd4565b9350613d3a83613ce5565b8060005b83811015613d6b578151613d528882613cf5565b9750613d5d83613d0d565b925050600181019050613d3e565b5085935050505092915050565b60006020820190508181036000830152613d928184613d1a565b905092915050565b600080fd5b600080fd5b7f4e487b7100000000000000000000000000000000000000000000000000000000600052604160045260246000fd5b613ddc826139b8565b810181811067ffffffffffffffff82111715613dfb57613dfa613da4565b5b80604052505050565b6000613e0e613a24565b9050613e1a8282613dd3565b919050565b600067ffffffffffffffff821115613e3a57613e39613da4565b5b613e43826139b8565b9050602081019050919050565b82818337600083830152505050565b6000613e72613e6d84613e1f565b613e04565b905082815260208101848484011115613e8e57613e8d613d9f565b5b613e99848285613e50565b509392505050565b600082601f830112613eb657613eb5613d9a565b5b8135613ec6848260208601613e5f565b91505092915050565b600080600080600060a08688031215613eeb57613eea613a2e565b5b600086013567ffffffffffffffff811115613f0957613f08613a33565b5b613f1588828901613ea1565b955050602086013567ffffffffffffffff811115613f3657613f35613a33565b5b613f4288828901613ea1565b945050604086013567ffffffffffffffff811115613f6357613f62613a33565b5b613f6f88828901613ea1565b935050606086013567ffffffffffffffff811115613f9057613f8f613a33565b5b613f9c88828901613ea1565b925050608086013567ffffffffffffffff811115613fbd57613fbc613a33565b5b613fc988828901613ea1565b9150509295509295909350565b600060208284031215613fec57613feb613a2e565b5b600082013567ffffffffffffffff81111561400a57614009613a33565b5b61401684828501613ea1565b91505092915050565b6000806040838503121561403657614035613a2e565b5b600083013567ffffffffffffffff81111561405457614053613a33565b5b61406085828601613ea1565b925050602061407185828601613c33565b9150509250929050565b60008160030b9050919050565b6140918161407b565b82525050565b60006020820190506140ac6000830184614088565b92915050565b6000819050919050565b6140c5816140b2565b82525050565b60006020820190506140e060008301846140bc565b92915050565b6140ef81613a38565b82525050565b600060208201905061410a60008301846140e6565b92915050565b6000806040838503121561412757614126613a2e565b5b600061413585828601613c33565b925050602061414685828601613a59565b9150509250929050565b7f4e487b7100000000000000000000000000000000000000000000000000000000600052602260045260246000fd5b6000600282049050600182168061419757607f821691505b6020821081036141aa576141a9614150565b5b50919050565b7f596f75206d6f6e737420626520746865206f776e657220746f2073686f77206460008201527f617461207369676e656400000000000000000000000000000000000000000000602082015250565b600061420c602a8361397d565b9150614217826141b0565b604082019050919050565b6000602082019050818103600083015261423b816141ff565b9050919050565b7f4f6e6c79204f776e65722063616e206163746976617465000000000000000000600082015250565b600061427860178361397d565b915061428382614242565b602082019050919050565b600060208201905081810360008301526142a78161426b565b9050919050565b7f4d75737420626520612076616c69642061646472657373000000000000000000600082015250565b60006142e460178361397d565b91506142ef826142ae565b602082019050919050565b60006020820190508181036000830152614313816142d7565b9050919050565b7f6164647265737320666f722061646d696e20616c726564792070726f706f7365600082015250565b600061435060208361397d565b915061435b8261431a565b602082019050919050565b6000602082019050818103600083015261437f81614343565b9050919050565b7f61646472657373206d757374206265207265676973747265642062792061646d60008201527f696e730000000000000000000000000000000000000000000000000000000000602082015250565b60006143e260238361397d565b91506143ed82614386565b604082019050919050565b60006020820190508181036000830152614411816143d5565b9050919050565b600081905092915050565b600061442e82613972565b6144388185614418565b935061444881856020860161398e565b80840191505092915050565b60006144608284614423565b915081905092915050565b7f4f776e65722063616e27742062652061205a65726f2061646472657373000000600082015250565b60006144a1601d8361397d565b91506144ac8261446b565b602082019050919050565b600060208201905081810360008301526144d081614494565b9050919050565b7f4164647265737320616c72656164792061646465640000000000000000000000600082015250565b600061450d60158361397d565b9150614518826144d7565b602082019050919050565b6000602082019050818103600083015261453c81614500565b9050919050565b7f4d696e74696e67206861732073746f70656420627920746865206f776e657200600082015250565b6000614579601f8361397d565b915061458482614543565b602082019050919050565b600060208201905081810360008301526145a88161456c565b9050919050565b7f526966204e6f7420526567697374726564206861732054617870617965720000600082015250565b60006145e5601e8361397d565b91506145f0826145af565b602082019050919050565b60006020820190508181036000830152614614816145d8565b9050919050565b7f417070726f766572204e6f7420526567697374726564206861732056616c6964600082015250565b600061465160208361397d565b915061465c8261461b565b602082019050919050565b6000602082019050818103600083015261468081614644565b9050919050565b7f417070726f7665722063616e6e6f742070726f76652068696d73656c66000000600082015250565b60006146bd601d8361397d565b91506146c882614687565b602082019050919050565b600060208201905081810360008301526146ec816146b0565b9050919050565b7f4e487b7100000000000000000000000000000000000000000000000000000000600052601160045260246000fd5b600061472d8261407b565b91506147388361407b565b925082820190507fffffffffffffffffffffffffffffffffffffffffffffffffffffffff800000008112637fffffff82131715614778576147776146f3565b5b92915050565b6000614789826140b2565b9150614794836140b2565b92508282019050808211156147ac576147ab6146f3565b5b92915050565b60006147bd826140b2565b91506147c8836140b2565b92508282039050818111156147e0576147df6146f3565b5b92915050565b7f4e487b7100000000000000000000000000000000000000000000000000000000600052603260045260246000fd5b6000614820826140b2565b91507fffffffffffffffffffffffffffffffffffffffffffffffffffffffffffffffff8203614852576148516146f3565b5b600182019050919050565b60008190508160005260206000209050919050565b60006020601f8301049050919050565b600082821b905092915050565b6000600883026148bf7fffffffffffffffffffffffffffffffffffffffffffffffffffffffffffffffff82614882565b6148c98683614882565b95508019841693508086168417925050509392505050565b6000819050919050565b60006149066149016148fc846140b2565b6148e1565b6140b2565b9050919050565b6000819050919050565b614920836148eb565b61493461492c8261490d565b84845461488f565b825550505050565b600090565b61494961493c565b614954818484614917565b505050565b5b818110156149785761496d600082614941565b60018101905061495a565b5050565b601f8211156149bd5761498e8161485d565b61499784614872565b810160208510156149a6578190505b6149ba6149b285614872565b830182614959565b50505b505050565b600082821c905092915050565b60006149e0600019846008026149c2565b1980831691505092915050565b60006149f983836149cf565b9150826002028217905092915050565b614a1282613972565b67ffffffffffffffff811115614a2b57614a2a613da4565b5b614a35825461417f565b614a4082828561497c565b600060209050601f831160018114614a735760008415614a61578287015190505b614a6b85826149ed565b865550614ad3565b601f198416614a818661485d565b60005b82811015614aa957848901518255600182019150602085019450602081019050614a84565b86831015614ac65784890151614ac2601f8916826149cf565b8355505b6001600288020188555050505b505050505050565b600060a0820190508181036000830152614af581886139c9565b90508181036020830152614b0981876139c9565b9050614b186040830186613c75565b8181036060830152614b2a81856139c9565b9050614b396080830184613c75565b9695505050505050565b7f4c6963656e736520416c72656479204578697374730000000000000000000000600082015250565b6000614b7960158361397d565b9150614b8482614b43565b602082019050919050565b60006020820190508181036000830152614ba881614b6c565b905091905056fea26469706673582212204a8d7857326302e509ff394a7cb20cbb03a08e27e77eded04a503714775e3ca564736f6c63430008150033",
  "linkReferences": {},
  "deployedLinkReferences": {}
}